{
	"contracts/PropiedadesERC721_flattened.sol": {
		"PropiedadesERC721": {
			"abi": [
				{
					"inputs": [],
					"stateMutability": "nonpayable",
					"type": "constructor"
				},
				{
					"inputs": [
						{
							"internalType": "address",
							"name": "sender",
							"type": "address"
						},
						{
							"internalType": "uint256",
							"name": "tokenId",
							"type": "uint256"
						},
						{
							"internalType": "address",
							"name": "owner",
							"type": "address"
						}
					],
					"name": "ERC721IncorrectOwner",
					"type": "error"
				},
				{
					"inputs": [
						{
							"internalType": "address",
							"name": "operator",
							"type": "address"
						},
						{
							"internalType": "uint256",
							"name": "tokenId",
							"type": "uint256"
						}
					],
					"name": "ERC721InsufficientApproval",
					"type": "error"
				},
				{
					"inputs": [
						{
							"internalType": "address",
							"name": "approver",
							"type": "address"
						}
					],
					"name": "ERC721InvalidApprover",
					"type": "error"
				},
				{
					"inputs": [
						{
							"internalType": "address",
							"name": "operator",
							"type": "address"
						}
					],
					"name": "ERC721InvalidOperator",
					"type": "error"
				},
				{
					"inputs": [
						{
							"internalType": "address",
							"name": "owner",
							"type": "address"
						}
					],
					"name": "ERC721InvalidOwner",
					"type": "error"
				},
				{
					"inputs": [
						{
							"internalType": "address",
							"name": "receiver",
							"type": "address"
						}
					],
					"name": "ERC721InvalidReceiver",
					"type": "error"
				},
				{
					"inputs": [
						{
							"internalType": "address",
							"name": "sender",
							"type": "address"
						}
					],
					"name": "ERC721InvalidSender",
					"type": "error"
				},
				{
					"inputs": [
						{
							"internalType": "uint256",
							"name": "tokenId",
							"type": "uint256"
						}
					],
					"name": "ERC721NonexistentToken",
					"type": "error"
				},
				{
					"inputs": [
						{
							"internalType": "address",
							"name": "owner",
							"type": "address"
						}
					],
					"name": "OwnableInvalidOwner",
					"type": "error"
				},
				{
					"inputs": [
						{
							"internalType": "address",
							"name": "account",
							"type": "address"
						}
					],
					"name": "OwnableUnauthorizedAccount",
					"type": "error"
				},
				{
					"anonymous": false,
					"inputs": [
						{
							"indexed": true,
							"internalType": "address",
							"name": "owner",
							"type": "address"
						},
						{
							"indexed": true,
							"internalType": "address",
							"name": "approved",
							"type": "address"
						},
						{
							"indexed": true,
							"internalType": "uint256",
							"name": "tokenId",
							"type": "uint256"
						}
					],
					"name": "Approval",
					"type": "event"
				},
				{
					"anonymous": false,
					"inputs": [
						{
							"indexed": true,
							"internalType": "address",
							"name": "owner",
							"type": "address"
						},
						{
							"indexed": true,
							"internalType": "address",
							"name": "operator",
							"type": "address"
						},
						{
							"indexed": false,
							"internalType": "bool",
							"name": "approved",
							"type": "bool"
						}
					],
					"name": "ApprovalForAll",
					"type": "event"
				},
				{
					"anonymous": false,
					"inputs": [
						{
							"indexed": true,
							"internalType": "address",
							"name": "previousOwner",
							"type": "address"
						},
						{
							"indexed": true,
							"internalType": "address",
							"name": "newOwner",
							"type": "address"
						}
					],
					"name": "OwnershipTransferred",
					"type": "event"
				},
				{
					"anonymous": false,
					"inputs": [
						{
							"indexed": true,
							"internalType": "address",
							"name": "from",
							"type": "address"
						},
						{
							"indexed": true,
							"internalType": "address",
							"name": "to",
							"type": "address"
						},
						{
							"indexed": true,
							"internalType": "uint256",
							"name": "tokenId",
							"type": "uint256"
						}
					],
					"name": "Transfer",
					"type": "event"
				},
				{
					"inputs": [
						{
							"internalType": "address",
							"name": "to",
							"type": "address"
						},
						{
							"internalType": "uint256",
							"name": "tokenId",
							"type": "uint256"
						}
					],
					"name": "approve",
					"outputs": [],
					"stateMutability": "nonpayable",
					"type": "function"
				},
				{
					"inputs": [
						{
							"internalType": "address",
							"name": "owner",
							"type": "address"
						}
					],
					"name": "balanceOf",
					"outputs": [
						{
							"internalType": "uint256",
							"name": "",
							"type": "uint256"
						}
					],
					"stateMutability": "view",
					"type": "function"
				},
				{
					"inputs": [
						{
							"internalType": "uint256",
							"name": "tokenId",
							"type": "uint256"
						}
					],
					"name": "burn",
					"outputs": [],
					"stateMutability": "nonpayable",
					"type": "function"
				},
				{
					"inputs": [
						{
							"internalType": "uint256",
							"name": "tokenId",
							"type": "uint256"
						}
					],
					"name": "getApproved",
					"outputs": [
						{
							"internalType": "address",
							"name": "",
							"type": "address"
						}
					],
					"stateMutability": "view",
					"type": "function"
				},
				{
					"inputs": [
						{
							"internalType": "address",
							"name": "owner",
							"type": "address"
						},
						{
							"internalType": "address",
							"name": "operator",
							"type": "address"
						}
					],
					"name": "isApprovedForAll",
					"outputs": [
						{
							"internalType": "bool",
							"name": "",
							"type": "bool"
						}
					],
					"stateMutability": "view",
					"type": "function"
				},
				{
					"inputs": [
						{
							"internalType": "address",
							"name": "to",
							"type": "address"
						},
						{
							"internalType": "uint256",
							"name": "tokenId",
							"type": "uint256"
						}
					],
					"name": "mint",
					"outputs": [],
					"stateMutability": "nonpayable",
					"type": "function"
				},
				{
					"inputs": [],
					"name": "name",
					"outputs": [
						{
							"internalType": "string",
							"name": "",
							"type": "string"
						}
					],
					"stateMutability": "view",
					"type": "function"
				},
				{
					"inputs": [],
					"name": "owner",
					"outputs": [
						{
							"internalType": "address",
							"name": "",
							"type": "address"
						}
					],
					"stateMutability": "view",
					"type": "function"
				},
				{
					"inputs": [
						{
							"internalType": "uint256",
							"name": "tokenId",
							"type": "uint256"
						}
					],
					"name": "ownerOf",
					"outputs": [
						{
							"internalType": "address",
							"name": "",
							"type": "address"
						}
					],
					"stateMutability": "view",
					"type": "function"
				},
				{
					"inputs": [],
					"name": "renounceOwnership",
					"outputs": [],
					"stateMutability": "nonpayable",
					"type": "function"
				},
				{
					"inputs": [
						{
							"internalType": "address",
							"name": "from",
							"type": "address"
						},
						{
							"internalType": "address",
							"name": "to",
							"type": "address"
						},
						{
							"internalType": "uint256",
							"name": "tokenId",
							"type": "uint256"
						}
					],
					"name": "safeTransferFrom",
					"outputs": [],
					"stateMutability": "nonpayable",
					"type": "function"
				},
				{
					"inputs": [
						{
							"internalType": "address",
							"name": "from",
							"type": "address"
						},
						{
							"internalType": "address",
							"name": "to",
							"type": "address"
						},
						{
							"internalType": "uint256",
							"name": "tokenId",
							"type": "uint256"
						},
						{
							"internalType": "bytes",
							"name": "data",
							"type": "bytes"
						}
					],
					"name": "safeTransferFrom",
					"outputs": [],
					"stateMutability": "nonpayable",
					"type": "function"
				},
				{
					"inputs": [
						{
							"internalType": "address",
							"name": "operator",
							"type": "address"
						},
						{
							"internalType": "bool",
							"name": "approved",
							"type": "bool"
						}
					],
					"name": "setApprovalForAll",
					"outputs": [],
					"stateMutability": "nonpayable",
					"type": "function"
				},
				{
					"inputs": [
						{
							"internalType": "bytes4",
							"name": "interfaceId",
							"type": "bytes4"
						}
					],
					"name": "supportsInterface",
					"outputs": [
						{
							"internalType": "bool",
							"name": "",
							"type": "bool"
						}
					],
					"stateMutability": "view",
					"type": "function"
				},
				{
					"inputs": [],
					"name": "symbol",
					"outputs": [
						{
							"internalType": "string",
							"name": "",
							"type": "string"
						}
					],
					"stateMutability": "view",
					"type": "function"
				},
				{
					"inputs": [
						{
							"internalType": "uint256",
							"name": "tokenId",
							"type": "uint256"
						}
					],
					"name": "tokenURI",
					"outputs": [
						{
							"internalType": "string",
							"name": "",
							"type": "string"
						}
					],
					"stateMutability": "view",
					"type": "function"
				},
				{
					"inputs": [
						{
							"internalType": "address",
							"name": "from",
							"type": "address"
						},
						{
							"internalType": "address",
							"name": "to",
							"type": "address"
						},
						{
							"internalType": "uint256",
							"name": "tokenId",
							"type": "uint256"
						}
					],
					"name": "transferFrom",
					"outputs": [],
					"stateMutability": "nonpayable",
					"type": "function"
				},
				{
					"inputs": [
						{
							"internalType": "address",
							"name": "newOwner",
							"type": "address"
						}
					],
					"name": "transferOwnership",
					"outputs": [],
					"stateMutability": "nonpayable",
					"type": "function"
				}
			],
			"devdoc": {
				"errors": {
					"ERC721IncorrectOwner(address,uint256,address)": [
						{
							"details": "Indicates an error related to the ownership over a particular token. Used in transfers.",
							"params": {
								"owner": "Address of the current owner of a token.",
								"sender": "Address whose tokens are being transferred.",
								"tokenId": "Identifier number of a token."
							}
						}
					],
					"ERC721InsufficientApproval(address,uint256)": [
						{
							"details": "Indicates a failure with the `operator`’s approval. Used in transfers.",
							"params": {
								"operator": "Address that may be allowed to operate on tokens without being their owner.",
								"tokenId": "Identifier number of a token."
							}
						}
					],
					"ERC721InvalidApprover(address)": [
						{
							"details": "Indicates a failure with the `approver` of a token to be approved. Used in approvals.",
							"params": {
								"approver": "Address initiating an approval operation."
							}
						}
					],
					"ERC721InvalidOperator(address)": [
						{
							"details": "Indicates a failure with the `operator` to be approved. Used in approvals.",
							"params": {
								"operator": "Address that may be allowed to operate on tokens without being their owner."
							}
						}
					],
					"ERC721InvalidOwner(address)": [
						{
							"details": "Indicates that an address can't be an owner. For example, `address(0)` is a forbidden owner in EIP-20. Used in balance queries.",
							"params": {
								"owner": "Address of the current owner of a token."
							}
						}
					],
					"ERC721InvalidReceiver(address)": [
						{
							"details": "Indicates a failure with the token `receiver`. Used in transfers.",
							"params": {
								"receiver": "Address to which tokens are being transferred."
							}
						}
					],
					"ERC721InvalidSender(address)": [
						{
							"details": "Indicates a failure with the token `sender`. Used in transfers.",
							"params": {
								"sender": "Address whose tokens are being transferred."
							}
						}
					],
					"ERC721NonexistentToken(uint256)": [
						{
							"details": "Indicates a `tokenId` whose `owner` is the zero address.",
							"params": {
								"tokenId": "Identifier number of a token."
							}
						}
					],
					"OwnableInvalidOwner(address)": [
						{
							"details": "The owner is not a valid owner account. (eg. `address(0)`)"
						}
					],
					"OwnableUnauthorizedAccount(address)": [
						{
							"details": "The caller account is not authorized to perform an operation."
						}
					]
				},
				"events": {
					"Approval(address,address,uint256)": {
						"details": "Emitted when `owner` enables `approved` to manage the `tokenId` token."
					},
					"ApprovalForAll(address,address,bool)": {
						"details": "Emitted when `owner` enables or disables (`approved`) `operator` to manage all of its assets."
					},
					"Transfer(address,address,uint256)": {
						"details": "Emitted when `tokenId` token is transferred from `from` to `to`."
					}
				},
				"kind": "dev",
				"methods": {
					"approve(address,uint256)": {
						"details": "See {IERC721-approve}."
					},
					"balanceOf(address)": {
						"details": "See {IERC721-balanceOf}."
					},
					"getApproved(uint256)": {
						"details": "See {IERC721-getApproved}."
					},
					"isApprovedForAll(address,address)": {
						"details": "See {IERC721-isApprovedForAll}."
					},
					"name()": {
						"details": "See {IERC721Metadata-name}."
					},
					"owner()": {
						"details": "Returns the address of the current owner."
					},
					"ownerOf(uint256)": {
						"details": "See {IERC721-ownerOf}."
					},
					"renounceOwnership()": {
						"details": "Leaves the contract without owner. It will not be possible to call `onlyOwner` functions. Can only be called by the current owner. NOTE: Renouncing ownership will leave the contract without an owner, thereby disabling any functionality that is only available to the owner."
					},
					"safeTransferFrom(address,address,uint256)": {
						"details": "See {IERC721-safeTransferFrom}."
					},
					"safeTransferFrom(address,address,uint256,bytes)": {
						"details": "See {IERC721-safeTransferFrom}."
					},
					"setApprovalForAll(address,bool)": {
						"details": "See {IERC721-setApprovalForAll}."
					},
					"supportsInterface(bytes4)": {
						"details": "See {IERC165-supportsInterface}."
					},
					"symbol()": {
						"details": "See {IERC721Metadata-symbol}."
					},
					"tokenURI(uint256)": {
						"details": "See {IERC721Metadata-tokenURI}."
					},
					"transferFrom(address,address,uint256)": {
						"details": "See {IERC721-transferFrom}."
					},
					"transferOwnership(address)": {
						"details": "Transfers ownership of the contract to a new account (`newOwner`). Can only be called by the current owner."
					}
				},
				"version": 1
			},
			"evm": {
				"assembly": "    /* \"contracts/PropiedadesERC721_flattened.sol\":56111:56562  contract PropiedadesERC721 is ERC721, Ownable {... */\n  mstore(0x40, 0x80)\n    /* \"contracts/PropiedadesERC721_flattened.sol\":56163:56220  constructor() ERC721(\"Prop\", \"PP\") Ownable(msg.sender) {} */\n  callvalue\n  dup1\n  iszero\n  tag_1\n  jumpi\n  0x00\n  dup1\n  revert\ntag_1:\n  pop\n    /* \"contracts/PropiedadesERC721_flattened.sol\":56206:56216  msg.sender */\n  caller\n    /* \"contracts/PropiedadesERC721_flattened.sol\":39656:39769  constructor(string memory name_, string memory symbol_) {... */\n  mload(0x40)\n  dup1\n  0x40\n  add\n  0x40\n  mstore\n  dup1\n  0x04\n  dup2\n  mstore\n  0x20\n  add\n  0x50726f7000000000000000000000000000000000000000000000000000000000\n  dup2\n  mstore\n  pop\n  mload(0x40)\n  dup1\n  0x40\n  add\n  0x40\n  mstore\n  dup1\n  0x02\n  dup2\n  mstore\n  0x20\n  add\n  0x5050000000000000000000000000000000000000000000000000000000000000\n  dup2\n  mstore\n  pop\n    /* \"contracts/PropiedadesERC721_flattened.sol\":39730:39735  name_ */\n  dup2\n    /* \"contracts/PropiedadesERC721_flattened.sol\":39722:39727  _name */\n  0x00\n    /* \"contracts/PropiedadesERC721_flattened.sol\":39722:39735  _name = name_ */\n  swap1\n  dup2\n  tag_6\n  swap2\n  swap1\n  tag_7\n  jump\t// in\ntag_6:\n  pop\n    /* \"contracts/PropiedadesERC721_flattened.sol\":39755:39762  symbol_ */\n  dup1\n    /* \"contracts/PropiedadesERC721_flattened.sol\":39745:39752  _symbol */\n  0x01\n    /* \"contracts/PropiedadesERC721_flattened.sol\":39745:39762  _symbol = symbol_ */\n  swap1\n  dup2\n  tag_8\n  swap2\n  swap1\n  tag_7\n  jump\t// in\ntag_8:\n  pop\n    /* \"contracts/PropiedadesERC721_flattened.sol\":39656:39769  constructor(string memory name_, string memory symbol_) {... */\n  pop\n  pop\n    /* \"contracts/PropiedadesERC721_flattened.sol\":28295:28296  0 */\n  0x00\n    /* \"contracts/PropiedadesERC721_flattened.sol\":28271:28297  initialOwner == address(0) */\n  0xffffffffffffffffffffffffffffffffffffffff\n  and\n    /* \"contracts/PropiedadesERC721_flattened.sol\":28271:28283  initialOwner */\n  dup2\n    /* \"contracts/PropiedadesERC721_flattened.sol\":28271:28297  initialOwner == address(0) */\n  0xffffffffffffffffffffffffffffffffffffffff\n  and\n  sub\n    /* \"contracts/PropiedadesERC721_flattened.sol\":28267:28362  if (initialOwner == address(0)) {... */\n  tag_10\n  jumpi\n    /* \"contracts/PropiedadesERC721_flattened.sol\":28348:28349  0 */\n  0x00\n    /* \"contracts/PropiedadesERC721_flattened.sol\":28320:28351  OwnableInvalidOwner(address(0)) */\n  mload(0x40)\n  0x1e4fbdf700000000000000000000000000000000000000000000000000000000\n  dup2\n  mstore\n  0x04\n  add\n  tag_11\n  swap2\n  swap1\n  tag_12\n  jump\t// in\ntag_11:\n  mload(0x40)\n  dup1\n  swap2\n  sub\n  swap1\n  revert\n    /* \"contracts/PropiedadesERC721_flattened.sol\":28267:28362  if (initialOwner == address(0)) {... */\ntag_10:\n    /* \"contracts/PropiedadesERC721_flattened.sol\":28371:28403  _transferOwnership(initialOwner) */\n  tag_13\n    /* \"contracts/PropiedadesERC721_flattened.sol\":28390:28402  initialOwner */\n  dup2\n    /* \"contracts/PropiedadesERC721_flattened.sol\":28371:28389  _transferOwnership */\n  shl(0x20, tag_14)\n    /* \"contracts/PropiedadesERC721_flattened.sol\":28371:28403  _transferOwnership(initialOwner) */\n  0x20\n  shr\n  jump\t// in\ntag_13:\n    /* \"contracts/PropiedadesERC721_flattened.sol\":28223:28410  constructor(address initialOwner) {... */\n  pop\n    /* \"contracts/PropiedadesERC721_flattened.sol\":56111:56562  contract PropiedadesERC721 is ERC721, Ownable {... */\n  jump(tag_16)\n    /* \"contracts/PropiedadesERC721_flattened.sol\":29910:30097  function _transferOwnership(address newOwner) internal virtual {... */\ntag_14:\n    /* \"contracts/PropiedadesERC721_flattened.sol\":29983:29999  address oldOwner */\n  0x00\n    /* \"contracts/PropiedadesERC721_flattened.sol\":30002:30008  _owner */\n  0x06\n  0x00\n  swap1\n  sload\n  swap1\n  0x0100\n  exp\n  swap1\n  div\n  0xffffffffffffffffffffffffffffffffffffffff\n  and\n    /* \"contracts/PropiedadesERC721_flattened.sol\":29983:30008  address oldOwner = _owner */\n  swap1\n  pop\n    /* \"contracts/PropiedadesERC721_flattened.sol\":30027:30035  newOwner */\n  dup2\n    /* \"contracts/PropiedadesERC721_flattened.sol\":30018:30024  _owner */\n  0x06\n  0x00\n    /* \"contracts/PropiedadesERC721_flattened.sol\":30018:30035  _owner = newOwner */\n  0x0100\n  exp\n  dup2\n  sload\n  dup2\n  0xffffffffffffffffffffffffffffffffffffffff\n  mul\n  not\n  and\n  swap1\n  dup4\n  0xffffffffffffffffffffffffffffffffffffffff\n  and\n  mul\n  or\n  swap1\n  sstore\n  pop\n    /* \"contracts/PropiedadesERC721_flattened.sol\":30081:30089  newOwner */\n  dup2\n    /* \"contracts/PropiedadesERC721_flattened.sol\":30050:30090  OwnershipTransferred(oldOwner, newOwner) */\n  0xffffffffffffffffffffffffffffffffffffffff\n  and\n    /* \"contracts/PropiedadesERC721_flattened.sol\":30071:30079  oldOwner */\n  dup2\n    /* \"contracts/PropiedadesERC721_flattened.sol\":30050:30090  OwnershipTransferred(oldOwner, newOwner) */\n  0xffffffffffffffffffffffffffffffffffffffff\n  and\n  0x8be0079c531659141344cd1fd0a4f28419497f9722a3daafe3b4186f6b6457e0\n  mload(0x40)\n  mload(0x40)\n  dup1\n  swap2\n  sub\n  swap1\n  log3\n    /* \"contracts/PropiedadesERC721_flattened.sol\":29973:30097  {... */\n  pop\n    /* \"contracts/PropiedadesERC721_flattened.sol\":29910:30097  function _transferOwnership(address newOwner) internal virtual {... */\n  pop\n  jump\t// out\n    /* \"#utility.yul\":7:106   */\ntag_18:\n    /* \"#utility.yul\":59:65   */\n  0x00\n    /* \"#utility.yul\":93:98   */\n  dup2\n    /* \"#utility.yul\":87:99   */\n  mload\n    /* \"#utility.yul\":77:99   */\n  swap1\n  pop\n    /* \"#utility.yul\":7:106   */\n  swap2\n  swap1\n  pop\n  jump\t// out\n    /* \"#utility.yul\":112:292   */\ntag_19:\n    /* \"#utility.yul\":160:237   */\n  0x4e487b7100000000000000000000000000000000000000000000000000000000\n    /* \"#utility.yul\":157:158   */\n  0x00\n    /* \"#utility.yul\":150:238   */\n  mstore\n    /* \"#utility.yul\":257:261   */\n  0x41\n    /* \"#utility.yul\":254:255   */\n  0x04\n    /* \"#utility.yul\":247:262   */\n  mstore\n    /* \"#utility.yul\":281:285   */\n  0x24\n    /* \"#utility.yul\":278:279   */\n  0x00\n    /* \"#utility.yul\":271:286   */\n  revert\n    /* \"#utility.yul\":298:478   */\ntag_20:\n    /* \"#utility.yul\":346:423   */\n  0x4e487b7100000000000000000000000000000000000000000000000000000000\n    /* \"#utility.yul\":343:344   */\n  0x00\n    /* \"#utility.yul\":336:424   */\n  mstore\n    /* \"#utility.yul\":443:447   */\n  0x22\n    /* \"#utility.yul\":440:441   */\n  0x04\n    /* \"#utility.yul\":433:448   */\n  mstore\n    /* \"#utility.yul\":467:471   */\n  0x24\n    /* \"#utility.yul\":464:465   */\n  0x00\n    /* \"#utility.yul\":457:472   */\n  revert\n    /* \"#utility.yul\":484:804   */\ntag_21:\n    /* \"#utility.yul\":528:534   */\n  0x00\n    /* \"#utility.yul\":565:566   */\n  0x02\n    /* \"#utility.yul\":559:563   */\n  dup3\n    /* \"#utility.yul\":555:567   */\n  div\n    /* \"#utility.yul\":545:567   */\n  swap1\n  pop\n    /* \"#utility.yul\":612:613   */\n  0x01\n    /* \"#utility.yul\":606:610   */\n  dup3\n    /* \"#utility.yul\":602:614   */\n  and\n    /* \"#utility.yul\":633:651   */\n  dup1\n    /* \"#utility.yul\":623:704   */\n  tag_46\n  jumpi\n    /* \"#utility.yul\":689:693   */\n  0x7f\n    /* \"#utility.yul\":681:687   */\n  dup3\n    /* \"#utility.yul\":677:694   */\n  and\n    /* \"#utility.yul\":667:694   */\n  swap2\n  pop\n    /* \"#utility.yul\":623:704   */\ntag_46:\n    /* \"#utility.yul\":751:753   */\n  0x20\n    /* \"#utility.yul\":743:749   */\n  dup3\n    /* \"#utility.yul\":740:754   */\n  lt\n    /* \"#utility.yul\":720:738   */\n  dup2\n    /* \"#utility.yul\":717:755   */\n  sub\n    /* \"#utility.yul\":714:798   */\n  tag_47\n  jumpi\n    /* \"#utility.yul\":770:788   */\n  tag_48\n  tag_20\n  jump\t// in\ntag_48:\n    /* \"#utility.yul\":714:798   */\ntag_47:\n    /* \"#utility.yul\":535:804   */\n  pop\n    /* \"#utility.yul\":484:804   */\n  swap2\n  swap1\n  pop\n  jump\t// out\n    /* \"#utility.yul\":810:951   */\ntag_22:\n    /* \"#utility.yul\":859:863   */\n  0x00\n    /* \"#utility.yul\":882:885   */\n  dup2\n    /* \"#utility.yul\":874:885   */\n  swap1\n  pop\n    /* \"#utility.yul\":905:908   */\n  dup2\n    /* \"#utility.yul\":902:903   */\n  0x00\n    /* \"#utility.yul\":895:909   */\n  mstore\n    /* \"#utility.yul\":939:943   */\n  0x20\n    /* \"#utility.yul\":936:937   */\n  0x00\n    /* \"#utility.yul\":926:944   */\n  keccak256\n    /* \"#utility.yul\":918:944   */\n  swap1\n  pop\n    /* \"#utility.yul\":810:951   */\n  swap2\n  swap1\n  pop\n  jump\t// out\n    /* \"#utility.yul\":957:1050   */\ntag_23:\n    /* \"#utility.yul\":994:1000   */\n  0x00\n    /* \"#utility.yul\":1041:1043   */\n  0x20\n    /* \"#utility.yul\":1036:1038   */\n  0x1f\n    /* \"#utility.yul\":1029:1034   */\n  dup4\n    /* \"#utility.yul\":1025:1039   */\n  add\n    /* \"#utility.yul\":1021:1044   */\n  div\n    /* \"#utility.yul\":1011:1044   */\n  swap1\n  pop\n    /* \"#utility.yul\":957:1050   */\n  swap2\n  swap1\n  pop\n  jump\t// out\n    /* \"#utility.yul\":1056:1163   */\ntag_24:\n    /* \"#utility.yul\":1100:1108   */\n  0x00\n    /* \"#utility.yul\":1150:1155   */\n  dup3\n    /* \"#utility.yul\":1144:1148   */\n  dup3\n    /* \"#utility.yul\":1140:1156   */\n  shl\n    /* \"#utility.yul\":1119:1156   */\n  swap1\n  pop\n    /* \"#utility.yul\":1056:1163   */\n  swap3\n  swap2\n  pop\n  pop\n  jump\t// out\n    /* \"#utility.yul\":1169:1562   */\ntag_25:\n    /* \"#utility.yul\":1238:1244   */\n  0x00\n    /* \"#utility.yul\":1288:1289   */\n  0x08\n    /* \"#utility.yul\":1276:1286   */\n  dup4\n    /* \"#utility.yul\":1272:1290   */\n  mul\n    /* \"#utility.yul\":1311:1408   */\n  tag_53\n    /* \"#utility.yul\":1341:1407   */\n  0xffffffffffffffffffffffffffffffffffffffffffffffffffffffffffffffff\n    /* \"#utility.yul\":1330:1339   */\n  dup3\n    /* \"#utility.yul\":1311:1408   */\n  tag_24\n  jump\t// in\ntag_53:\n    /* \"#utility.yul\":1429:1468   */\n  tag_54\n    /* \"#utility.yul\":1459:1467   */\n  dup7\n    /* \"#utility.yul\":1448:1457   */\n  dup4\n    /* \"#utility.yul\":1429:1468   */\n  tag_24\n  jump\t// in\ntag_54:\n    /* \"#utility.yul\":1417:1468   */\n  swap6\n  pop\n    /* \"#utility.yul\":1501:1505   */\n  dup1\n    /* \"#utility.yul\":1497:1506   */\n  not\n    /* \"#utility.yul\":1490:1495   */\n  dup5\n    /* \"#utility.yul\":1486:1507   */\n  and\n    /* \"#utility.yul\":1477:1507   */\n  swap4\n  pop\n    /* \"#utility.yul\":1550:1554   */\n  dup1\n    /* \"#utility.yul\":1540:1548   */\n  dup7\n    /* \"#utility.yul\":1536:1555   */\n  and\n    /* \"#utility.yul\":1529:1534   */\n  dup5\n    /* \"#utility.yul\":1526:1556   */\n  or\n    /* \"#utility.yul\":1516:1556   */\n  swap3\n  pop\n    /* \"#utility.yul\":1245:1562   */\n  pop\n  pop\n    /* \"#utility.yul\":1169:1562   */\n  swap4\n  swap3\n  pop\n  pop\n  pop\n  jump\t// out\n    /* \"#utility.yul\":1568:1645   */\ntag_26:\n    /* \"#utility.yul\":1605:1612   */\n  0x00\n    /* \"#utility.yul\":1634:1639   */\n  dup2\n    /* \"#utility.yul\":1623:1639   */\n  swap1\n  pop\n    /* \"#utility.yul\":1568:1645   */\n  swap2\n  swap1\n  pop\n  jump\t// out\n    /* \"#utility.yul\":1651:1711   */\ntag_27:\n    /* \"#utility.yul\":1679:1682   */\n  0x00\n    /* \"#utility.yul\":1700:1705   */\n  dup2\n    /* \"#utility.yul\":1693:1705   */\n  swap1\n  pop\n    /* \"#utility.yul\":1651:1711   */\n  swap2\n  swap1\n  pop\n  jump\t// out\n    /* \"#utility.yul\":1717:1859   */\ntag_28:\n    /* \"#utility.yul\":1767:1776   */\n  0x00\n    /* \"#utility.yul\":1800:1853   */\n  tag_58\n    /* \"#utility.yul\":1818:1852   */\n  tag_59\n    /* \"#utility.yul\":1827:1851   */\n  tag_60\n    /* \"#utility.yul\":1845:1850   */\n  dup5\n    /* \"#utility.yul\":1827:1851   */\n  tag_26\n  jump\t// in\ntag_60:\n    /* \"#utility.yul\":1818:1852   */\n  tag_27\n  jump\t// in\ntag_59:\n    /* \"#utility.yul\":1800:1853   */\n  tag_26\n  jump\t// in\ntag_58:\n    /* \"#utility.yul\":1787:1853   */\n  swap1\n  pop\n    /* \"#utility.yul\":1717:1859   */\n  swap2\n  swap1\n  pop\n  jump\t// out\n    /* \"#utility.yul\":1865:1940   */\ntag_29:\n    /* \"#utility.yul\":1908:1911   */\n  0x00\n    /* \"#utility.yul\":1929:1934   */\n  dup2\n    /* \"#utility.yul\":1922:1934   */\n  swap1\n  pop\n    /* \"#utility.yul\":1865:1940   */\n  swap2\n  swap1\n  pop\n  jump\t// out\n    /* \"#utility.yul\":1946:2215   */\ntag_30:\n    /* \"#utility.yul\":2056:2095   */\n  tag_63\n    /* \"#utility.yul\":2087:2094   */\n  dup4\n    /* \"#utility.yul\":2056:2095   */\n  tag_28\n  jump\t// in\ntag_63:\n    /* \"#utility.yul\":2117:2208   */\n  tag_64\n    /* \"#utility.yul\":2166:2207   */\n  tag_65\n    /* \"#utility.yul\":2190:2206   */\n  dup3\n    /* \"#utility.yul\":2166:2207   */\n  tag_29\n  jump\t// in\ntag_65:\n    /* \"#utility.yul\":2158:2164   */\n  dup5\n    /* \"#utility.yul\":2151:2155   */\n  dup5\n    /* \"#utility.yul\":2145:2156   */\n  sload\n    /* \"#utility.yul\":2117:2208   */\n  tag_25\n  jump\t// in\ntag_64:\n    /* \"#utility.yul\":2111:2115   */\n  dup3\n    /* \"#utility.yul\":2104:2209   */\n  sstore\n    /* \"#utility.yul\":2022:2215   */\n  pop\n    /* \"#utility.yul\":1946:2215   */\n  pop\n  pop\n  pop\n  jump\t// out\n    /* \"#utility.yul\":2221:2294   */\ntag_31:\n    /* \"#utility.yul\":2266:2269   */\n  0x00\n    /* \"#utility.yul\":2221:2294   */\n  swap1\n  jump\t// out\n    /* \"#utility.yul\":2300:2489   */\ntag_32:\n    /* \"#utility.yul\":2377:2409   */\n  tag_68\n  tag_31\n  jump\t// in\ntag_68:\n    /* \"#utility.yul\":2418:2483   */\n  tag_69\n    /* \"#utility.yul\":2476:2482   */\n  dup2\n    /* \"#utility.yul\":2468:2474   */\n  dup5\n    /* \"#utility.yul\":2462:2466   */\n  dup5\n    /* \"#utility.yul\":2418:2483   */\n  tag_30\n  jump\t// in\ntag_69:\n    /* \"#utility.yul\":2353:2489   */\n  pop\n    /* \"#utility.yul\":2300:2489   */\n  pop\n  pop\n  jump\t// out\n    /* \"#utility.yul\":2495:2681   */\ntag_33:\n    /* \"#utility.yul\":2555:2675   */\ntag_71:\n    /* \"#utility.yul\":2572:2575   */\n  dup2\n    /* \"#utility.yul\":2565:2570   */\n  dup2\n    /* \"#utility.yul\":2562:2576   */\n  lt\n    /* \"#utility.yul\":2555:2675   */\n  iszero\n  tag_73\n  jumpi\n    /* \"#utility.yul\":2626:2665   */\n  tag_74\n    /* \"#utility.yul\":2663:2664   */\n  0x00\n    /* \"#utility.yul\":2656:2661   */\n  dup3\n    /* \"#utility.yul\":2626:2665   */\n  tag_32\n  jump\t// in\ntag_74:\n    /* \"#utility.yul\":2599:2600   */\n  0x01\n    /* \"#utility.yul\":2592:2597   */\n  dup2\n    /* \"#utility.yul\":2588:2601   */\n  add\n    /* \"#utility.yul\":2579:2601   */\n  swap1\n  pop\n    /* \"#utility.yul\":2555:2675   */\n  jump(tag_71)\ntag_73:\n    /* \"#utility.yul\":2495:2681   */\n  pop\n  pop\n  jump\t// out\n    /* \"#utility.yul\":2687:3230   */\ntag_34:\n    /* \"#utility.yul\":2788:2790   */\n  0x1f\n    /* \"#utility.yul\":2783:2786   */\n  dup3\n    /* \"#utility.yul\":2780:2791   */\n  gt\n    /* \"#utility.yul\":2777:3223   */\n  iszero\n  tag_76\n  jumpi\n    /* \"#utility.yul\":2822:2860   */\n  tag_77\n    /* \"#utility.yul\":2854:2859   */\n  dup2\n    /* \"#utility.yul\":2822:2860   */\n  tag_22\n  jump\t// in\ntag_77:\n    /* \"#utility.yul\":2906:2935   */\n  tag_78\n    /* \"#utility.yul\":2924:2934   */\n  dup5\n    /* \"#utility.yul\":2906:2935   */\n  tag_23\n  jump\t// in\ntag_78:\n    /* \"#utility.yul\":2896:2904   */\n  dup2\n    /* \"#utility.yul\":2892:2936   */\n  add\n    /* \"#utility.yul\":3089:3091   */\n  0x20\n    /* \"#utility.yul\":3077:3087   */\n  dup6\n    /* \"#utility.yul\":3074:3092   */\n  lt\n    /* \"#utility.yul\":3071:3120   */\n  iszero\n  tag_79\n  jumpi\n    /* \"#utility.yul\":3110:3118   */\n  dup2\n    /* \"#utility.yul\":3095:3118   */\n  swap1\n  pop\n    /* \"#utility.yul\":3071:3120   */\ntag_79:\n    /* \"#utility.yul\":3133:3213   */\n  tag_80\n    /* \"#utility.yul\":3189:3211   */\n  tag_81\n    /* \"#utility.yul\":3207:3210   */\n  dup6\n    /* \"#utility.yul\":3189:3211   */\n  tag_23\n  jump\t// in\ntag_81:\n    /* \"#utility.yul\":3179:3187   */\n  dup4\n    /* \"#utility.yul\":3175:3212   */\n  add\n    /* \"#utility.yul\":3162:3173   */\n  dup3\n    /* \"#utility.yul\":3133:3213   */\n  tag_33\n  jump\t// in\ntag_80:\n    /* \"#utility.yul\":2792:3223   */\n  pop\n  pop\n    /* \"#utility.yul\":2777:3223   */\ntag_76:\n    /* \"#utility.yul\":2687:3230   */\n  pop\n  pop\n  pop\n  jump\t// out\n    /* \"#utility.yul\":3236:3353   */\ntag_35:\n    /* \"#utility.yul\":3290:3298   */\n  0x00\n    /* \"#utility.yul\":3340:3345   */\n  dup3\n    /* \"#utility.yul\":3334:3338   */\n  dup3\n    /* \"#utility.yul\":3330:3346   */\n  shr\n    /* \"#utility.yul\":3309:3346   */\n  swap1\n  pop\n    /* \"#utility.yul\":3236:3353   */\n  swap3\n  swap2\n  pop\n  pop\n  jump\t// out\n    /* \"#utility.yul\":3359:3528   */\ntag_36:\n    /* \"#utility.yul\":3403:3409   */\n  0x00\n    /* \"#utility.yul\":3436:3487   */\n  tag_84\n    /* \"#utility.yul\":3484:3485   */\n  0x00\n    /* \"#utility.yul\":3480:3486   */\n  not\n    /* \"#utility.yul\":3472:3477   */\n  dup5\n    /* \"#utility.yul\":3469:3470   */\n  0x08\n    /* \"#utility.yul\":3465:3478   */\n  mul\n    /* \"#utility.yul\":3436:3487   */\n  tag_35\n  jump\t// in\ntag_84:\n    /* \"#utility.yul\":3432:3488   */\n  not\n    /* \"#utility.yul\":3517:3521   */\n  dup1\n    /* \"#utility.yul\":3511:3515   */\n  dup4\n    /* \"#utility.yul\":3507:3522   */\n  and\n    /* \"#utility.yul\":3497:3522   */\n  swap2\n  pop\n    /* \"#utility.yul\":3410:3528   */\n  pop\n    /* \"#utility.yul\":3359:3528   */\n  swap3\n  swap2\n  pop\n  pop\n  jump\t// out\n    /* \"#utility.yul\":3533:3828   */\ntag_37:\n    /* \"#utility.yul\":3609:3613   */\n  0x00\n    /* \"#utility.yul\":3755:3784   */\n  tag_86\n    /* \"#utility.yul\":3780:3783   */\n  dup4\n    /* \"#utility.yul\":3774:3778   */\n  dup4\n    /* \"#utility.yul\":3755:3784   */\n  tag_36\n  jump\t// in\ntag_86:\n    /* \"#utility.yul\":3747:3784   */\n  swap2\n  pop\n    /* \"#utility.yul\":3817:3820   */\n  dup3\n    /* \"#utility.yul\":3814:3815   */\n  0x02\n    /* \"#utility.yul\":3810:3821   */\n  mul\n    /* \"#utility.yul\":3804:3808   */\n  dup3\n    /* \"#utility.yul\":3801:3822   */\n  or\n    /* \"#utility.yul\":3793:3822   */\n  swap1\n  pop\n    /* \"#utility.yul\":3533:3828   */\n  swap3\n  swap2\n  pop\n  pop\n  jump\t// out\n    /* \"#utility.yul\":3833:5228   */\ntag_7:\n    /* \"#utility.yul\":3950:3987   */\n  tag_88\n    /* \"#utility.yul\":3983:3986   */\n  dup3\n    /* \"#utility.yul\":3950:3987   */\n  tag_18\n  jump\t// in\ntag_88:\n    /* \"#utility.yul\":4052:4070   */\n  0xffffffffffffffff\n    /* \"#utility.yul\":4044:4050   */\n  dup2\n    /* \"#utility.yul\":4041:4071   */\n  gt\n    /* \"#utility.yul\":4038:4094   */\n  iszero\n  tag_89\n  jumpi\n    /* \"#utility.yul\":4074:4092   */\n  tag_90\n  tag_19\n  jump\t// in\ntag_90:\n    /* \"#utility.yul\":4038:4094   */\ntag_89:\n    /* \"#utility.yul\":4118:4156   */\n  tag_91\n    /* \"#utility.yul\":4150:4154   */\n  dup3\n    /* \"#utility.yul\":4144:4155   */\n  sload\n    /* \"#utility.yul\":4118:4156   */\n  tag_21\n  jump\t// in\ntag_91:\n    /* \"#utility.yul\":4203:4270   */\n  tag_92\n    /* \"#utility.yul\":4263:4269   */\n  dup3\n    /* \"#utility.yul\":4255:4261   */\n  dup3\n    /* \"#utility.yul\":4249:4253   */\n  dup6\n    /* \"#utility.yul\":4203:4270   */\n  tag_34\n  jump\t// in\ntag_92:\n    /* \"#utility.yul\":4297:4298   */\n  0x00\n    /* \"#utility.yul\":4321:4325   */\n  0x20\n    /* \"#utility.yul\":4308:4325   */\n  swap1\n  pop\n    /* \"#utility.yul\":4353:4355   */\n  0x1f\n    /* \"#utility.yul\":4345:4351   */\n  dup4\n    /* \"#utility.yul\":4342:4356   */\n  gt\n    /* \"#utility.yul\":4370:4371   */\n  0x01\n    /* \"#utility.yul\":4365:4983   */\n  dup2\n  eq\n  tag_94\n  jumpi\n    /* \"#utility.yul\":5027:5028   */\n  0x00\n    /* \"#utility.yul\":5044:5050   */\n  dup5\n    /* \"#utility.yul\":5041:5118   */\n  iszero\n  tag_95\n  jumpi\n    /* \"#utility.yul\":5093:5102   */\n  dup3\n    /* \"#utility.yul\":5088:5091   */\n  dup8\n    /* \"#utility.yul\":5084:5103   */\n  add\n    /* \"#utility.yul\":5078:5104   */\n  mload\n    /* \"#utility.yul\":5069:5104   */\n  swap1\n  pop\n    /* \"#utility.yul\":5041:5118   */\ntag_95:\n    /* \"#utility.yul\":5144:5211   */\n  tag_96\n    /* \"#utility.yul\":5204:5210   */\n  dup6\n    /* \"#utility.yul\":5197:5202   */\n  dup3\n    /* \"#utility.yul\":5144:5211   */\n  tag_37\n  jump\t// in\ntag_96:\n    /* \"#utility.yul\":5138:5142   */\n  dup7\n    /* \"#utility.yul\":5131:5212   */\n  sstore\n    /* \"#utility.yul\":5000:5222   */\n  pop\n    /* \"#utility.yul\":4335:5222   */\n  jump(tag_93)\n    /* \"#utility.yul\":4365:4983   */\ntag_94:\n    /* \"#utility.yul\":4417:4421   */\n  0x1f\n    /* \"#utility.yul\":4413:4422   */\n  not\n    /* \"#utility.yul\":4405:4411   */\n  dup5\n    /* \"#utility.yul\":4401:4423   */\n  and\n    /* \"#utility.yul\":4451:4488   */\n  tag_97\n    /* \"#utility.yul\":4483:4487   */\n  dup7\n    /* \"#utility.yul\":4451:4488   */\n  tag_22\n  jump\t// in\ntag_97:\n    /* \"#utility.yul\":4510:4511   */\n  0x00\n    /* \"#utility.yul\":4524:4732   */\ntag_98:\n    /* \"#utility.yul\":4538:4545   */\n  dup3\n    /* \"#utility.yul\":4535:4536   */\n  dup2\n    /* \"#utility.yul\":4532:4546   */\n  lt\n    /* \"#utility.yul\":4524:4732   */\n  iszero\n  tag_100\n  jumpi\n    /* \"#utility.yul\":4617:4626   */\n  dup5\n    /* \"#utility.yul\":4612:4615   */\n  dup10\n    /* \"#utility.yul\":4608:4627   */\n  add\n    /* \"#utility.yul\":4602:4628   */\n  mload\n    /* \"#utility.yul\":4594:4600   */\n  dup3\n    /* \"#utility.yul\":4587:4629   */\n  sstore\n    /* \"#utility.yul\":4668:4669   */\n  0x01\n    /* \"#utility.yul\":4660:4666   */\n  dup3\n    /* \"#utility.yul\":4656:4670   */\n  add\n    /* \"#utility.yul\":4646:4670   */\n  swap2\n  pop\n    /* \"#utility.yul\":4715:4717   */\n  0x20\n    /* \"#utility.yul\":4704:4713   */\n  dup6\n    /* \"#utility.yul\":4700:4718   */\n  add\n    /* \"#utility.yul\":4687:4718   */\n  swap5\n  pop\n    /* \"#utility.yul\":4561:4565   */\n  0x20\n    /* \"#utility.yul\":4558:4559   */\n  dup2\n    /* \"#utility.yul\":4554:4566   */\n  add\n    /* \"#utility.yul\":4549:4566   */\n  swap1\n  pop\n    /* \"#utility.yul\":4524:4732   */\n  jump(tag_98)\ntag_100:\n    /* \"#utility.yul\":4760:4766   */\n  dup7\n    /* \"#utility.yul\":4751:4758   */\n  dup4\n    /* \"#utility.yul\":4748:4767   */\n  lt\n    /* \"#utility.yul\":4745:4924   */\n  iszero\n  tag_101\n  jumpi\n    /* \"#utility.yul\":4818:4827   */\n  dup5\n    /* \"#utility.yul\":4813:4816   */\n  dup10\n    /* \"#utility.yul\":4809:4828   */\n  add\n    /* \"#utility.yul\":4803:4829   */\n  mload\n    /* \"#utility.yul\":4861:4909   */\n  tag_102\n    /* \"#utility.yul\":4903:4907   */\n  0x1f\n    /* \"#utility.yul\":4895:4901   */\n  dup10\n    /* \"#utility.yul\":4891:4908   */\n  and\n    /* \"#utility.yul\":4880:4889   */\n  dup3\n    /* \"#utility.yul\":4861:4909   */\n  tag_36\n  jump\t// in\ntag_102:\n    /* \"#utility.yul\":4853:4859   */\n  dup4\n    /* \"#utility.yul\":4846:4910   */\n  sstore\n    /* \"#utility.yul\":4768:4924   */\n  pop\n    /* \"#utility.yul\":4745:4924   */\ntag_101:\n    /* \"#utility.yul\":4970:4971   */\n  0x01\n    /* \"#utility.yul\":4966:4967   */\n  0x02\n    /* \"#utility.yul\":4958:4964   */\n  dup9\n    /* \"#utility.yul\":4954:4968   */\n  mul\n    /* \"#utility.yul\":4950:4972   */\n  add\n    /* \"#utility.yul\":4944:4948   */\n  dup9\n    /* \"#utility.yul\":4937:4973   */\n  sstore\n    /* \"#utility.yul\":4372:4983   */\n  pop\n  pop\n  pop\n    /* \"#utility.yul\":4335:5222   */\ntag_93:\n  pop\n    /* \"#utility.yul\":3925:5228   */\n  pop\n  pop\n  pop\n    /* \"#utility.yul\":3833:5228   */\n  pop\n  pop\n  jump\t// out\n    /* \"#utility.yul\":5234:5360   */\ntag_38:\n    /* \"#utility.yul\":5271:5278   */\n  0x00\n    /* \"#utility.yul\":5311:5353   */\n  0xffffffffffffffffffffffffffffffffffffffff\n    /* \"#utility.yul\":5304:5309   */\n  dup3\n    /* \"#utility.yul\":5300:5354   */\n  and\n    /* \"#utility.yul\":5289:5354   */\n  swap1\n  pop\n    /* \"#utility.yul\":5234:5360   */\n  swap2\n  swap1\n  pop\n  jump\t// out\n    /* \"#utility.yul\":5366:5462   */\ntag_39:\n    /* \"#utility.yul\":5403:5410   */\n  0x00\n    /* \"#utility.yul\":5432:5456   */\n  tag_105\n    /* \"#utility.yul\":5450:5455   */\n  dup3\n    /* \"#utility.yul\":5432:5456   */\n  tag_38\n  jump\t// in\ntag_105:\n    /* \"#utility.yul\":5421:5456   */\n  swap1\n  pop\n    /* \"#utility.yul\":5366:5462   */\n  swap2\n  swap1\n  pop\n  jump\t// out\n    /* \"#utility.yul\":5468:5586   */\ntag_40:\n    /* \"#utility.yul\":5555:5579   */\n  tag_107\n    /* \"#utility.yul\":5573:5578   */\n  dup2\n    /* \"#utility.yul\":5555:5579   */\n  tag_39\n  jump\t// in\ntag_107:\n    /* \"#utility.yul\":5550:5553   */\n  dup3\n    /* \"#utility.yul\":5543:5580   */\n  mstore\n    /* \"#utility.yul\":5468:5586   */\n  pop\n  pop\n  jump\t// out\n    /* \"#utility.yul\":5592:5814   */\ntag_12:\n    /* \"#utility.yul\":5685:5689   */\n  0x00\n    /* \"#utility.yul\":5723:5725   */\n  0x20\n    /* \"#utility.yul\":5712:5721   */\n  dup3\n    /* \"#utility.yul\":5708:5726   */\n  add\n    /* \"#utility.yul\":5700:5726   */\n  swap1\n  pop\n    /* \"#utility.yul\":5736:5807   */\n  tag_109\n    /* \"#utility.yul\":5804:5805   */\n  0x00\n    /* \"#utility.yul\":5793:5802   */\n  dup4\n    /* \"#utility.yul\":5789:5806   */\n  add\n    /* \"#utility.yul\":5780:5786   */\n  dup5\n    /* \"#utility.yul\":5736:5807   */\n  tag_40\n  jump\t// in\ntag_109:\n    /* \"#utility.yul\":5592:5814   */\n  swap3\n  swap2\n  pop\n  pop\n  jump\t// out\n    /* \"contracts/PropiedadesERC721_flattened.sol\":56111:56562  contract PropiedadesERC721 is ERC721, Ownable {... */\ntag_16:\n  dataSize(sub_0)\n  dup1\n  dataOffset(sub_0)\n  0x00\n  codecopy\n  0x00\n  return\nstop\n\nsub_0: assembly {\n        /* \"contracts/PropiedadesERC721_flattened.sol\":56111:56562  contract PropiedadesERC721 is ERC721, Ownable {... */\n      mstore(0x40, 0x80)\n      callvalue\n      dup1\n      iszero\n      tag_1\n      jumpi\n      0x00\n      dup1\n      revert\n    tag_1:\n      pop\n      jumpi(tag_2, lt(calldatasize, 0x04))\n      shr(0xe0, calldataload(0x00))\n      dup1\n      0x70a08231\n      gt\n      tag_21\n      jumpi\n      dup1\n      0xa22cb465\n      gt\n      tag_22\n      jumpi\n      dup1\n      0xa22cb465\n      eq\n      tag_16\n      jumpi\n      dup1\n      0xb88d4fde\n      eq\n      tag_17\n      jumpi\n      dup1\n      0xc87b56dd\n      eq\n      tag_18\n      jumpi\n      dup1\n      0xe985e9c5\n      eq\n      tag_19\n      jumpi\n      dup1\n      0xf2fde38b\n      eq\n      tag_20\n      jumpi\n      jump(tag_2)\n    tag_22:\n      dup1\n      0x70a08231\n      eq\n      tag_12\n      jumpi\n      dup1\n      0x715018a6\n      eq\n      tag_13\n      jumpi\n      dup1\n      0x8da5cb5b\n      eq\n      tag_14\n      jumpi\n      dup1\n      0x95d89b41\n      eq\n      tag_15\n      jumpi\n      jump(tag_2)\n    tag_21:\n      dup1\n      0x23b872dd\n      gt\n      tag_23\n      jumpi\n      dup1\n      0x23b872dd\n      eq\n      tag_7\n      jumpi\n      dup1\n      0x40c10f19\n      eq\n      tag_8\n      jumpi\n      dup1\n      0x42842e0e\n      eq\n      tag_9\n      jumpi\n      dup1\n      0x42966c68\n      eq\n      tag_10\n      jumpi\n      dup1\n      0x6352211e\n      eq\n      tag_11\n      jumpi\n      jump(tag_2)\n    tag_23:\n      dup1\n      0x01ffc9a7\n      eq\n      tag_3\n      jumpi\n      dup1\n      0x06fdde03\n      eq\n      tag_4\n      jumpi\n      dup1\n      0x081812fc\n      eq\n      tag_5\n      jumpi\n      dup1\n      0x095ea7b3\n      eq\n      tag_6\n      jumpi\n    tag_2:\n      0x00\n      dup1\n      revert\n        /* \"contracts/PropiedadesERC721_flattened.sol\":39836:40136  function supportsInterface(bytes4 interfaceId) public view virtual override(ERC165, IERC165) returns (bool) {... */\n    tag_3:\n      tag_24\n      0x04\n      dup1\n      calldatasize\n      sub\n      dup2\n      add\n      swap1\n      tag_25\n      swap2\n      swap1\n      tag_26\n      jump\t// in\n    tag_25:\n      tag_27\n      jump\t// in\n    tag_24:\n      mload(0x40)\n      tag_28\n      swap2\n      swap1\n      tag_29\n      jump\t// in\n    tag_28:\n      mload(0x40)\n      dup1\n      swap2\n      sub\n      swap1\n      return\n        /* \"contracts/PropiedadesERC721_flattened.sol\":40640:40729  function name() public view virtual returns (string memory) {... */\n    tag_4:\n      tag_30\n      tag_31\n      jump\t// in\n    tag_30:\n      mload(0x40)\n      tag_32\n      swap2\n      swap1\n      tag_33\n      jump\t// in\n    tag_32:\n      mload(0x40)\n      dup1\n      swap2\n      sub\n      swap1\n      return\n        /* \"contracts/PropiedadesERC721_flattened.sol\":41772:41926  function getApproved(uint256 tokenId) public view virtual returns (address) {... */\n    tag_5:\n      tag_34\n      0x04\n      dup1\n      calldatasize\n      sub\n      dup2\n      add\n      swap1\n      tag_35\n      swap2\n      swap1\n      tag_36\n      jump\t// in\n    tag_35:\n      tag_37\n      jump\t// in\n    tag_34:\n      mload(0x40)\n      tag_38\n      swap2\n      swap1\n      tag_39\n      jump\t// in\n    tag_38:\n      mload(0x40)\n      dup1\n      swap2\n      sub\n      swap1\n      return\n        /* \"contracts/PropiedadesERC721_flattened.sol\":41598:41711  function approve(address to, uint256 tokenId) public virtual {... */\n    tag_6:\n      tag_40\n      0x04\n      dup1\n      calldatasize\n      sub\n      dup2\n      add\n      swap1\n      tag_41\n      swap2\n      swap1\n      tag_42\n      jump\t// in\n    tag_41:\n      tag_43\n      jump\t// in\n    tag_40:\n      stop\n        /* \"contracts/PropiedadesERC721_flattened.sol\":42418:42996  function transferFrom(address from, address to, uint256 tokenId) public virtual {... */\n    tag_7:\n      tag_44\n      0x04\n      dup1\n      calldatasize\n      sub\n      dup2\n      add\n      swap1\n      tag_45\n      swap2\n      swap1\n      tag_46\n      jump\t// in\n    tag_45:\n      tag_47\n      jump\t// in\n    tag_44:\n      stop\n        /* \"contracts/PropiedadesERC721_flattened.sol\":56305:56400  function mint(address to, uint256 tokenId) public onlyOwner {... */\n    tag_8:\n      tag_48\n      0x04\n      dup1\n      calldatasize\n      sub\n      dup2\n      add\n      swap1\n      tag_49\n      swap2\n      swap1\n      tag_42\n      jump\t// in\n    tag_49:\n      tag_50\n      jump\t// in\n    tag_48:\n      stop\n        /* \"contracts/PropiedadesERC721_flattened.sol\":43062:43194  function safeTransferFrom(address from, address to, uint256 tokenId) public {... */\n    tag_9:\n      tag_51\n      0x04\n      dup1\n      calldatasize\n      sub\n      dup2\n      add\n      swap1\n      tag_52\n      swap2\n      swap1\n      tag_46\n      jump\t// in\n    tag_52:\n      tag_53\n      jump\t// in\n    tag_51:\n      stop\n        /* \"contracts/PropiedadesERC721_flattened.sol\":56480:56560  function burn(uint256 tokenId) public  onlyOwner {... */\n    tag_10:\n      tag_54\n      0x04\n      dup1\n      calldatasize\n      sub\n      dup2\n      add\n      swap1\n      tag_55\n      swap2\n      swap1\n      tag_36\n      jump\t// in\n    tag_55:\n      tag_56\n      jump\t// in\n    tag_54:\n      stop\n        /* \"contracts/PropiedadesERC721_flattened.sol\":40460:40578  function ownerOf(uint256 tokenId) public view virtual returns (address) {... */\n    tag_11:\n      tag_57\n      0x04\n      dup1\n      calldatasize\n      sub\n      dup2\n      add\n      swap1\n      tag_58\n      swap2\n      swap1\n      tag_36\n      jump\t// in\n    tag_58:\n      tag_59\n      jump\t// in\n    tag_57:\n      mload(0x40)\n      tag_60\n      swap2\n      swap1\n      tag_39\n      jump\t// in\n    tag_60:\n      mload(0x40)\n      dup1\n      swap2\n      sub\n      swap1\n      return\n        /* \"contracts/PropiedadesERC721_flattened.sol\":40195:40403  function balanceOf(address owner) public view virtual returns (uint256) {... */\n    tag_12:\n      tag_61\n      0x04\n      dup1\n      calldatasize\n      sub\n      dup2\n      add\n      swap1\n      tag_62\n      swap2\n      swap1\n      tag_63\n      jump\t// in\n    tag_62:\n      tag_64\n      jump\t// in\n    tag_61:\n      mload(0x40)\n      tag_65\n      swap2\n      swap1\n      tag_66\n      jump\t// in\n    tag_65:\n      mload(0x40)\n      dup1\n      swap2\n      sub\n      swap1\n      return\n        /* \"contracts/PropiedadesERC721_flattened.sol\":29291:29392  function renounceOwnership() public virtual onlyOwner {... */\n    tag_13:\n      tag_67\n      tag_68\n      jump\t// in\n    tag_67:\n      stop\n        /* \"contracts/PropiedadesERC721_flattened.sol\":28636:28721  function owner() public view virtual returns (address) {... */\n    tag_14:\n      tag_69\n      tag_70\n      jump\t// in\n    tag_69:\n      mload(0x40)\n      tag_71\n      swap2\n      swap1\n      tag_39\n      jump\t// in\n    tag_71:\n      mload(0x40)\n      dup1\n      swap2\n      sub\n      swap1\n      return\n        /* \"contracts/PropiedadesERC721_flattened.sol\":40793:40886  function symbol() public view virtual returns (string memory) {... */\n    tag_15:\n      tag_72\n      tag_73\n      jump\t// in\n    tag_72:\n      mload(0x40)\n      tag_74\n      swap2\n      swap1\n      tag_33\n      jump\t// in\n    tag_74:\n      mload(0x40)\n      dup1\n      swap2\n      sub\n      swap1\n      return\n        /* \"contracts/PropiedadesERC721_flattened.sol\":41993:42137  function setApprovalForAll(address operator, bool approved) public virtual {... */\n    tag_16:\n      tag_75\n      0x04\n      dup1\n      calldatasize\n      sub\n      dup2\n      add\n      swap1\n      tag_76\n      swap2\n      swap1\n      tag_77\n      jump\t// in\n    tag_76:\n      tag_78\n      jump\t// in\n    tag_75:\n      stop\n        /* \"contracts/PropiedadesERC721_flattened.sol\":43260:43468  function safeTransferFrom(address from, address to, uint256 tokenId, bytes memory data) public virtual {... */\n    tag_17:\n      tag_79\n      0x04\n      dup1\n      calldatasize\n      sub\n      dup2\n      add\n      swap1\n      tag_80\n      swap2\n      swap1\n      tag_81\n      jump\t// in\n    tag_80:\n      tag_82\n      jump\t// in\n    tag_79:\n      stop\n        /* \"contracts/PropiedadesERC721_flattened.sol\":40952:41207  function tokenURI(uint256 tokenId) public view virtual returns (string memory) {... */\n    tag_18:\n      tag_83\n      0x04\n      dup1\n      calldatasize\n      sub\n      dup2\n      add\n      swap1\n      tag_84\n      swap2\n      swap1\n      tag_36\n      jump\t// in\n    tag_84:\n      tag_85\n      jump\t// in\n    tag_83:\n      mload(0x40)\n      tag_86\n      swap2\n      swap1\n      tag_33\n      jump\t// in\n    tag_86:\n      mload(0x40)\n      dup1\n      swap2\n      sub\n      swap1\n      return\n        /* \"contracts/PropiedadesERC721_flattened.sol\":42203:42356  function isApprovedForAll(address owner, address operator) public view virtual returns (bool) {... */\n    tag_19:\n      tag_87\n      0x04\n      dup1\n      calldatasize\n      sub\n      dup2\n      add\n      swap1\n      tag_88\n      swap2\n      swap1\n      tag_89\n      jump\t// in\n    tag_88:\n      tag_90\n      jump\t// in\n    tag_87:\n      mload(0x40)\n      tag_91\n      swap2\n      swap1\n      tag_29\n      jump\t// in\n    tag_91:\n      mload(0x40)\n      dup1\n      swap2\n      sub\n      swap1\n      return\n        /* \"contracts/PropiedadesERC721_flattened.sol\":29541:29756  function transferOwnership(address newOwner) public virtual onlyOwner {... */\n    tag_20:\n      tag_92\n      0x04\n      dup1\n      calldatasize\n      sub\n      dup2\n      add\n      swap1\n      tag_93\n      swap2\n      swap1\n      tag_63\n      jump\t// in\n    tag_93:\n      tag_94\n      jump\t// in\n    tag_92:\n      stop\n        /* \"contracts/PropiedadesERC721_flattened.sol\":39836:40136  function supportsInterface(bytes4 interfaceId) public view virtual override(ERC165, IERC165) returns (bool) {... */\n    tag_27:\n        /* \"contracts/PropiedadesERC721_flattened.sol\":39938:39942  bool */\n      0x00\n        /* \"contracts/PropiedadesERC721_flattened.sol\":39988:40013  type(IERC721).interfaceId */\n      0x80ac58cd00000000000000000000000000000000000000000000000000000000\n        /* \"contracts/PropiedadesERC721_flattened.sol\":39973:40013  interfaceId == type(IERC721).interfaceId */\n      not(0xffffffffffffffffffffffffffffffffffffffffffffffffffffffff)\n      and\n        /* \"contracts/PropiedadesERC721_flattened.sol\":39973:39984  interfaceId */\n      dup3\n        /* \"contracts/PropiedadesERC721_flattened.sol\":39973:40013  interfaceId == type(IERC721).interfaceId */\n      not(0xffffffffffffffffffffffffffffffffffffffffffffffffffffffff)\n      and\n      eq\n        /* \"contracts/PropiedadesERC721_flattened.sol\":39973:40077  interfaceId == type(IERC721).interfaceId ||... */\n      dup1\n      tag_96\n      jumpi\n      pop\n        /* \"contracts/PropiedadesERC721_flattened.sol\":40044:40077  type(IERC721Metadata).interfaceId */\n      0x5b5e139f00000000000000000000000000000000000000000000000000000000\n        /* \"contracts/PropiedadesERC721_flattened.sol\":40029:40077  interfaceId == type(IERC721Metadata).interfaceId */\n      not(0xffffffffffffffffffffffffffffffffffffffffffffffffffffffff)\n      and\n        /* \"contracts/PropiedadesERC721_flattened.sol\":40029:40040  interfaceId */\n      dup3\n        /* \"contracts/PropiedadesERC721_flattened.sol\":40029:40077  interfaceId == type(IERC721Metadata).interfaceId */\n      not(0xffffffffffffffffffffffffffffffffffffffffffffffffffffffff)\n      and\n      eq\n        /* \"contracts/PropiedadesERC721_flattened.sol\":39973:40077  interfaceId == type(IERC721).interfaceId ||... */\n    tag_96:\n        /* \"contracts/PropiedadesERC721_flattened.sol\":39973:40129  interfaceId == type(IERC721).interfaceId ||... */\n      dup1\n      tag_97\n      jumpi\n      pop\n        /* \"contracts/PropiedadesERC721_flattened.sol\":40093:40129  super.supportsInterface(interfaceId) */\n      tag_98\n        /* \"contracts/PropiedadesERC721_flattened.sol\":40117:40128  interfaceId */\n      dup3\n        /* \"contracts/PropiedadesERC721_flattened.sol\":40093:40116  super.supportsInterface */\n      tag_99\n        /* \"contracts/PropiedadesERC721_flattened.sol\":40093:40129  super.supportsInterface(interfaceId) */\n      jump\t// in\n    tag_98:\n        /* \"contracts/PropiedadesERC721_flattened.sol\":39973:40129  interfaceId == type(IERC721).interfaceId ||... */\n    tag_97:\n        /* \"contracts/PropiedadesERC721_flattened.sol\":39954:40129  return... */\n      swap1\n      pop\n        /* \"contracts/PropiedadesERC721_flattened.sol\":39836:40136  function supportsInterface(bytes4 interfaceId) public view virtual override(ERC165, IERC165) returns (bool) {... */\n      swap2\n      swap1\n      pop\n      jump\t// out\n        /* \"contracts/PropiedadesERC721_flattened.sol\":40640:40729  function name() public view virtual returns (string memory) {... */\n    tag_31:\n        /* \"contracts/PropiedadesERC721_flattened.sol\":40685:40698  string memory */\n      0x60\n        /* \"contracts/PropiedadesERC721_flattened.sol\":40717:40722  _name */\n      0x00\n        /* \"contracts/PropiedadesERC721_flattened.sol\":40710:40722  return _name */\n      dup1\n      sload\n      tag_101\n      swap1\n      tag_102\n      jump\t// in\n    tag_101:\n      dup1\n      0x1f\n      add\n      0x20\n      dup1\n      swap2\n      div\n      mul\n      0x20\n      add\n      mload(0x40)\n      swap1\n      dup2\n      add\n      0x40\n      mstore\n      dup1\n      swap3\n      swap2\n      swap1\n      dup2\n      dup2\n      mstore\n      0x20\n      add\n      dup3\n      dup1\n      sload\n      tag_103\n      swap1\n      tag_102\n      jump\t// in\n    tag_103:\n      dup1\n      iszero\n      tag_104\n      jumpi\n      dup1\n      0x1f\n      lt\n      tag_105\n      jumpi\n      0x0100\n      dup1\n      dup4\n      sload\n      div\n      mul\n      dup4\n      mstore\n      swap2\n      0x20\n      add\n      swap2\n      jump(tag_104)\n    tag_105:\n      dup3\n      add\n      swap2\n      swap1\n      0x00\n      mstore\n      keccak256(0x00, 0x20)\n      swap1\n    tag_106:\n      dup2\n      sload\n      dup2\n      mstore\n      swap1\n      0x01\n      add\n      swap1\n      0x20\n      add\n      dup1\n      dup4\n      gt\n      tag_106\n      jumpi\n      dup3\n      swap1\n      sub\n      0x1f\n      and\n      dup3\n      add\n      swap2\n    tag_104:\n      pop\n      pop\n      pop\n      pop\n      pop\n      swap1\n      pop\n        /* \"contracts/PropiedadesERC721_flattened.sol\":40640:40729  function name() public view virtual returns (string memory) {... */\n      swap1\n      jump\t// out\n        /* \"contracts/PropiedadesERC721_flattened.sol\":41772:41926  function getApproved(uint256 tokenId) public view virtual returns (address) {... */\n    tag_37:\n        /* \"contracts/PropiedadesERC721_flattened.sol\":41839:41846  address */\n      0x00\n        /* \"contracts/PropiedadesERC721_flattened.sol\":41858:41880  _requireOwned(tokenId) */\n      tag_108\n        /* \"contracts/PropiedadesERC721_flattened.sol\":41872:41879  tokenId */\n      dup3\n        /* \"contracts/PropiedadesERC721_flattened.sol\":41858:41871  _requireOwned */\n      tag_109\n        /* \"contracts/PropiedadesERC721_flattened.sol\":41858:41880  _requireOwned(tokenId) */\n      jump\t// in\n    tag_108:\n      pop\n        /* \"contracts/PropiedadesERC721_flattened.sol\":41898:41919  _getApproved(tokenId) */\n      tag_110\n        /* \"contracts/PropiedadesERC721_flattened.sol\":41911:41918  tokenId */\n      dup3\n        /* \"contracts/PropiedadesERC721_flattened.sol\":41898:41910  _getApproved */\n      tag_111\n        /* \"contracts/PropiedadesERC721_flattened.sol\":41898:41919  _getApproved(tokenId) */\n      jump\t// in\n    tag_110:\n        /* \"contracts/PropiedadesERC721_flattened.sol\":41891:41919  return _getApproved(tokenId) */\n      swap1\n      pop\n        /* \"contracts/PropiedadesERC721_flattened.sol\":41772:41926  function getApproved(uint256 tokenId) public view virtual returns (address) {... */\n      swap2\n      swap1\n      pop\n      jump\t// out\n        /* \"contracts/PropiedadesERC721_flattened.sol\":41598:41711  function approve(address to, uint256 tokenId) public virtual {... */\n    tag_43:\n        /* \"contracts/PropiedadesERC721_flattened.sol\":41669:41704  _approve(to, tokenId, _msgSender()) */\n      tag_113\n        /* \"contracts/PropiedadesERC721_flattened.sol\":41678:41680  to */\n      dup3\n        /* \"contracts/PropiedadesERC721_flattened.sol\":41682:41689  tokenId */\n      dup3\n        /* \"contracts/PropiedadesERC721_flattened.sol\":41691:41703  _msgSender() */\n      tag_114\n        /* \"contracts/PropiedadesERC721_flattened.sol\":41691:41701  _msgSender */\n      tag_115\n        /* \"contracts/PropiedadesERC721_flattened.sol\":41691:41703  _msgSender() */\n      jump\t// in\n    tag_114:\n        /* \"contracts/PropiedadesERC721_flattened.sol\":41669:41677  _approve */\n      tag_116\n        /* \"contracts/PropiedadesERC721_flattened.sol\":41669:41704  _approve(to, tokenId, _msgSender()) */\n      jump\t// in\n    tag_113:\n        /* \"contracts/PropiedadesERC721_flattened.sol\":41598:41711  function approve(address to, uint256 tokenId) public virtual {... */\n      pop\n      pop\n      jump\t// out\n        /* \"contracts/PropiedadesERC721_flattened.sol\":42418:42996  function transferFrom(address from, address to, uint256 tokenId) public virtual {... */\n    tag_47:\n        /* \"contracts/PropiedadesERC721_flattened.sol\":42526:42527  0 */\n      0x00\n        /* \"contracts/PropiedadesERC721_flattened.sol\":42512:42528  to == address(0) */\n      0xffffffffffffffffffffffffffffffffffffffff\n      and\n        /* \"contracts/PropiedadesERC721_flattened.sol\":42512:42514  to */\n      dup3\n        /* \"contracts/PropiedadesERC721_flattened.sol\":42512:42528  to == address(0) */\n      0xffffffffffffffffffffffffffffffffffffffff\n      and\n      sub\n        /* \"contracts/PropiedadesERC721_flattened.sol\":42508:42595  if (to == address(0)) {... */\n      tag_118\n      jumpi\n        /* \"contracts/PropiedadesERC721_flattened.sol\":42581:42582  0 */\n      0x00\n        /* \"contracts/PropiedadesERC721_flattened.sol\":42551:42584  ERC721InvalidReceiver(address(0)) */\n      mload(0x40)\n      0x64a0ae9200000000000000000000000000000000000000000000000000000000\n      dup2\n      mstore\n      0x04\n      add\n      tag_119\n      swap2\n      swap1\n      tag_39\n      jump\t// in\n    tag_119:\n      mload(0x40)\n      dup1\n      swap2\n      sub\n      swap1\n      revert\n        /* \"contracts/PropiedadesERC721_flattened.sol\":42508:42595  if (to == address(0)) {... */\n    tag_118:\n        /* \"contracts/PropiedadesERC721_flattened.sol\":42813:42834  address previousOwner */\n      0x00\n        /* \"contracts/PropiedadesERC721_flattened.sol\":42837:42871  _update(to, tokenId, _msgSender()) */\n      tag_120\n        /* \"contracts/PropiedadesERC721_flattened.sol\":42845:42847  to */\n      dup4\n        /* \"contracts/PropiedadesERC721_flattened.sol\":42849:42856  tokenId */\n      dup4\n        /* \"contracts/PropiedadesERC721_flattened.sol\":42858:42870  _msgSender() */\n      tag_121\n        /* \"contracts/PropiedadesERC721_flattened.sol\":42858:42868  _msgSender */\n      tag_115\n        /* \"contracts/PropiedadesERC721_flattened.sol\":42858:42870  _msgSender() */\n      jump\t// in\n    tag_121:\n        /* \"contracts/PropiedadesERC721_flattened.sol\":42837:42844  _update */\n      tag_122\n        /* \"contracts/PropiedadesERC721_flattened.sol\":42837:42871  _update(to, tokenId, _msgSender()) */\n      jump\t// in\n    tag_120:\n        /* \"contracts/PropiedadesERC721_flattened.sol\":42813:42871  address previousOwner = _update(to, tokenId, _msgSender()) */\n      swap1\n      pop\n        /* \"contracts/PropiedadesERC721_flattened.sol\":42902:42906  from */\n      dup4\n        /* \"contracts/PropiedadesERC721_flattened.sol\":42885:42906  previousOwner != from */\n      0xffffffffffffffffffffffffffffffffffffffff\n      and\n        /* \"contracts/PropiedadesERC721_flattened.sol\":42885:42898  previousOwner */\n      dup2\n        /* \"contracts/PropiedadesERC721_flattened.sol\":42885:42906  previousOwner != from */\n      0xffffffffffffffffffffffffffffffffffffffff\n      and\n      eq\n        /* \"contracts/PropiedadesERC721_flattened.sol\":42881:42990  if (previousOwner != from) {... */\n      tag_123\n      jumpi\n        /* \"contracts/PropiedadesERC721_flattened.sol\":42950:42954  from */\n      dup4\n        /* \"contracts/PropiedadesERC721_flattened.sol\":42956:42963  tokenId */\n      dup3\n        /* \"contracts/PropiedadesERC721_flattened.sol\":42965:42978  previousOwner */\n      dup3\n        /* \"contracts/PropiedadesERC721_flattened.sol\":42929:42979  ERC721IncorrectOwner(from, tokenId, previousOwner) */\n      mload(0x40)\n      0x64283d7b00000000000000000000000000000000000000000000000000000000\n      dup2\n      mstore\n      0x04\n      add\n      tag_124\n      swap4\n      swap3\n      swap2\n      swap1\n      tag_125\n      jump\t// in\n    tag_124:\n      mload(0x40)\n      dup1\n      swap2\n      sub\n      swap1\n      revert\n        /* \"contracts/PropiedadesERC721_flattened.sol\":42881:42990  if (previousOwner != from) {... */\n    tag_123:\n        /* \"contracts/PropiedadesERC721_flattened.sol\":42498:42996  {... */\n      pop\n        /* \"contracts/PropiedadesERC721_flattened.sol\":42418:42996  function transferFrom(address from, address to, uint256 tokenId) public virtual {... */\n      pop\n      pop\n      pop\n      jump\t// out\n        /* \"contracts/PropiedadesERC721_flattened.sol\":56305:56400  function mint(address to, uint256 tokenId) public onlyOwner {... */\n    tag_50:\n        /* \"contracts/PropiedadesERC721_flattened.sol\":28529:28542  _checkOwner() */\n      tag_127\n        /* \"contracts/PropiedadesERC721_flattened.sol\":28529:28540  _checkOwner */\n      tag_128\n        /* \"contracts/PropiedadesERC721_flattened.sol\":28529:28542  _checkOwner() */\n      jump\t// in\n    tag_127:\n        /* \"contracts/PropiedadesERC721_flattened.sol\":56375:56393  _mint(to, tokenId) */\n      tag_130\n        /* \"contracts/PropiedadesERC721_flattened.sol\":56381:56383  to */\n      dup3\n        /* \"contracts/PropiedadesERC721_flattened.sol\":56385:56392  tokenId */\n      dup3\n        /* \"contracts/PropiedadesERC721_flattened.sol\":56375:56380  _mint */\n      tag_131\n        /* \"contracts/PropiedadesERC721_flattened.sol\":56375:56393  _mint(to, tokenId) */\n      jump\t// in\n    tag_130:\n        /* \"contracts/PropiedadesERC721_flattened.sol\":56305:56400  function mint(address to, uint256 tokenId) public onlyOwner {... */\n      pop\n      pop\n      jump\t// out\n        /* \"contracts/PropiedadesERC721_flattened.sol\":43062:43194  function safeTransferFrom(address from, address to, uint256 tokenId) public {... */\n    tag_53:\n        /* \"contracts/PropiedadesERC721_flattened.sol\":43148:43187  safeTransferFrom(from, to, tokenId, \"\") */\n      tag_133\n        /* \"contracts/PropiedadesERC721_flattened.sol\":43165:43169  from */\n      dup4\n        /* \"contracts/PropiedadesERC721_flattened.sol\":43171:43173  to */\n      dup4\n        /* \"contracts/PropiedadesERC721_flattened.sol\":43175:43182  tokenId */\n      dup4\n        /* \"contracts/PropiedadesERC721_flattened.sol\":43148:43187  safeTransferFrom(from, to, tokenId, \"\") */\n      mload(0x40)\n      dup1\n      0x20\n      add\n      0x40\n      mstore\n      dup1\n      0x00\n      dup2\n      mstore\n      pop\n        /* \"contracts/PropiedadesERC721_flattened.sol\":43148:43164  safeTransferFrom */\n      tag_82\n        /* \"contracts/PropiedadesERC721_flattened.sol\":43148:43187  safeTransferFrom(from, to, tokenId, \"\") */\n      jump\t// in\n    tag_133:\n        /* \"contracts/PropiedadesERC721_flattened.sol\":43062:43194  function safeTransferFrom(address from, address to, uint256 tokenId) public {... */\n      pop\n      pop\n      pop\n      jump\t// out\n        /* \"contracts/PropiedadesERC721_flattened.sol\":56480:56560  function burn(uint256 tokenId) public  onlyOwner {... */\n    tag_56:\n        /* \"contracts/PropiedadesERC721_flattened.sol\":28529:28542  _checkOwner() */\n      tag_135\n        /* \"contracts/PropiedadesERC721_flattened.sol\":28529:28540  _checkOwner */\n      tag_128\n        /* \"contracts/PropiedadesERC721_flattened.sol\":28529:28542  _checkOwner() */\n      jump\t// in\n    tag_135:\n        /* \"contracts/PropiedadesERC721_flattened.sol\":56539:56553  _burn(tokenId) */\n      tag_137\n        /* \"contracts/PropiedadesERC721_flattened.sol\":56545:56552  tokenId */\n      dup2\n        /* \"contracts/PropiedadesERC721_flattened.sol\":56539:56544  _burn */\n      tag_138\n        /* \"contracts/PropiedadesERC721_flattened.sol\":56539:56553  _burn(tokenId) */\n      jump\t// in\n    tag_137:\n        /* \"contracts/PropiedadesERC721_flattened.sol\":56480:56560  function burn(uint256 tokenId) public  onlyOwner {... */\n      pop\n      jump\t// out\n        /* \"contracts/PropiedadesERC721_flattened.sol\":40460:40578  function ownerOf(uint256 tokenId) public view virtual returns (address) {... */\n    tag_59:\n        /* \"contracts/PropiedadesERC721_flattened.sol\":40523:40530  address */\n      0x00\n        /* \"contracts/PropiedadesERC721_flattened.sol\":40549:40571  _requireOwned(tokenId) */\n      tag_140\n        /* \"contracts/PropiedadesERC721_flattened.sol\":40563:40570  tokenId */\n      dup3\n        /* \"contracts/PropiedadesERC721_flattened.sol\":40549:40562  _requireOwned */\n      tag_109\n        /* \"contracts/PropiedadesERC721_flattened.sol\":40549:40571  _requireOwned(tokenId) */\n      jump\t// in\n    tag_140:\n        /* \"contracts/PropiedadesERC721_flattened.sol\":40542:40571  return _requireOwned(tokenId) */\n      swap1\n      pop\n        /* \"contracts/PropiedadesERC721_flattened.sol\":40460:40578  function ownerOf(uint256 tokenId) public view virtual returns (address) {... */\n      swap2\n      swap1\n      pop\n      jump\t// out\n        /* \"contracts/PropiedadesERC721_flattened.sol\":40195:40403  function balanceOf(address owner) public view virtual returns (uint256) {... */\n    tag_64:\n        /* \"contracts/PropiedadesERC721_flattened.sol\":40258:40265  uint256 */\n      0x00\n        /* \"contracts/PropiedadesERC721_flattened.sol\":40298:40299  0 */\n      dup1\n        /* \"contracts/PropiedadesERC721_flattened.sol\":40281:40300  owner == address(0) */\n      0xffffffffffffffffffffffffffffffffffffffff\n      and\n        /* \"contracts/PropiedadesERC721_flattened.sol\":40281:40286  owner */\n      dup3\n        /* \"contracts/PropiedadesERC721_flattened.sol\":40281:40300  owner == address(0) */\n      0xffffffffffffffffffffffffffffffffffffffff\n      and\n      sub\n        /* \"contracts/PropiedadesERC721_flattened.sol\":40277:40364  if (owner == address(0)) {... */\n      tag_142\n      jumpi\n        /* \"contracts/PropiedadesERC721_flattened.sol\":40350:40351  0 */\n      0x00\n        /* \"contracts/PropiedadesERC721_flattened.sol\":40323:40353  ERC721InvalidOwner(address(0)) */\n      mload(0x40)\n      0x89c62b6400000000000000000000000000000000000000000000000000000000\n      dup2\n      mstore\n      0x04\n      add\n      tag_143\n      swap2\n      swap1\n      tag_39\n      jump\t// in\n    tag_143:\n      mload(0x40)\n      dup1\n      swap2\n      sub\n      swap1\n      revert\n        /* \"contracts/PropiedadesERC721_flattened.sol\":40277:40364  if (owner == address(0)) {... */\n    tag_142:\n        /* \"contracts/PropiedadesERC721_flattened.sol\":40380:40389  _balances */\n      0x03\n        /* \"contracts/PropiedadesERC721_flattened.sol\":40380:40396  _balances[owner] */\n      0x00\n        /* \"contracts/PropiedadesERC721_flattened.sol\":40390:40395  owner */\n      dup4\n        /* \"contracts/PropiedadesERC721_flattened.sol\":40380:40396  _balances[owner] */\n      0xffffffffffffffffffffffffffffffffffffffff\n      and\n      0xffffffffffffffffffffffffffffffffffffffff\n      and\n      dup2\n      mstore\n      0x20\n      add\n      swap1\n      dup2\n      mstore\n      0x20\n      add\n      0x00\n      keccak256\n      sload\n        /* \"contracts/PropiedadesERC721_flattened.sol\":40373:40396  return _balances[owner] */\n      swap1\n      pop\n        /* \"contracts/PropiedadesERC721_flattened.sol\":40195:40403  function balanceOf(address owner) public view virtual returns (uint256) {... */\n      swap2\n      swap1\n      pop\n      jump\t// out\n        /* \"contracts/PropiedadesERC721_flattened.sol\":29291:29392  function renounceOwnership() public virtual onlyOwner {... */\n    tag_68:\n        /* \"contracts/PropiedadesERC721_flattened.sol\":28529:28542  _checkOwner() */\n      tag_145\n        /* \"contracts/PropiedadesERC721_flattened.sol\":28529:28540  _checkOwner */\n      tag_128\n        /* \"contracts/PropiedadesERC721_flattened.sol\":28529:28542  _checkOwner() */\n      jump\t// in\n    tag_145:\n        /* \"contracts/PropiedadesERC721_flattened.sol\":29355:29385  _transferOwnership(address(0)) */\n      tag_147\n        /* \"contracts/PropiedadesERC721_flattened.sol\":29382:29383  0 */\n      0x00\n        /* \"contracts/PropiedadesERC721_flattened.sol\":29355:29373  _transferOwnership */\n      tag_148\n        /* \"contracts/PropiedadesERC721_flattened.sol\":29355:29385  _transferOwnership(address(0)) */\n      jump\t// in\n    tag_147:\n        /* \"contracts/PropiedadesERC721_flattened.sol\":29291:29392  function renounceOwnership() public virtual onlyOwner {... */\n      jump\t// out\n        /* \"contracts/PropiedadesERC721_flattened.sol\":28636:28721  function owner() public view virtual returns (address) {... */\n    tag_70:\n        /* \"contracts/PropiedadesERC721_flattened.sol\":28682:28689  address */\n      0x00\n        /* \"contracts/PropiedadesERC721_flattened.sol\":28708:28714  _owner */\n      0x06\n      0x00\n      swap1\n      sload\n      swap1\n      0x0100\n      exp\n      swap1\n      div\n      0xffffffffffffffffffffffffffffffffffffffff\n      and\n        /* \"contracts/PropiedadesERC721_flattened.sol\":28701:28714  return _owner */\n      swap1\n      pop\n        /* \"contracts/PropiedadesERC721_flattened.sol\":28636:28721  function owner() public view virtual returns (address) {... */\n      swap1\n      jump\t// out\n        /* \"contracts/PropiedadesERC721_flattened.sol\":40793:40886  function symbol() public view virtual returns (string memory) {... */\n    tag_73:\n        /* \"contracts/PropiedadesERC721_flattened.sol\":40840:40853  string memory */\n      0x60\n        /* \"contracts/PropiedadesERC721_flattened.sol\":40872:40879  _symbol */\n      0x01\n        /* \"contracts/PropiedadesERC721_flattened.sol\":40865:40879  return _symbol */\n      dup1\n      sload\n      tag_151\n      swap1\n      tag_102\n      jump\t// in\n    tag_151:\n      dup1\n      0x1f\n      add\n      0x20\n      dup1\n      swap2\n      div\n      mul\n      0x20\n      add\n      mload(0x40)\n      swap1\n      dup2\n      add\n      0x40\n      mstore\n      dup1\n      swap3\n      swap2\n      swap1\n      dup2\n      dup2\n      mstore\n      0x20\n      add\n      dup3\n      dup1\n      sload\n      tag_152\n      swap1\n      tag_102\n      jump\t// in\n    tag_152:\n      dup1\n      iszero\n      tag_153\n      jumpi\n      dup1\n      0x1f\n      lt\n      tag_154\n      jumpi\n      0x0100\n      dup1\n      dup4\n      sload\n      div\n      mul\n      dup4\n      mstore\n      swap2\n      0x20\n      add\n      swap2\n      jump(tag_153)\n    tag_154:\n      dup3\n      add\n      swap2\n      swap1\n      0x00\n      mstore\n      keccak256(0x00, 0x20)\n      swap1\n    tag_155:\n      dup2\n      sload\n      dup2\n      mstore\n      swap1\n      0x01\n      add\n      swap1\n      0x20\n      add\n      dup1\n      dup4\n      gt\n      tag_155\n      jumpi\n      dup3\n      swap1\n      sub\n      0x1f\n      and\n      dup3\n      add\n      swap2\n    tag_153:\n      pop\n      pop\n      pop\n      pop\n      pop\n      swap1\n      pop\n        /* \"contracts/PropiedadesERC721_flattened.sol\":40793:40886  function symbol() public view virtual returns (string memory) {... */\n      swap1\n      jump\t// out\n        /* \"contracts/PropiedadesERC721_flattened.sol\":41993:42137  function setApprovalForAll(address operator, bool approved) public virtual {... */\n    tag_78:\n        /* \"contracts/PropiedadesERC721_flattened.sol\":42078:42130  _setApprovalForAll(_msgSender(), operator, approved) */\n      tag_157\n        /* \"contracts/PropiedadesERC721_flattened.sol\":42097:42109  _msgSender() */\n      tag_158\n        /* \"contracts/PropiedadesERC721_flattened.sol\":42097:42107  _msgSender */\n      tag_115\n        /* \"contracts/PropiedadesERC721_flattened.sol\":42097:42109  _msgSender() */\n      jump\t// in\n    tag_158:\n        /* \"contracts/PropiedadesERC721_flattened.sol\":42111:42119  operator */\n      dup4\n        /* \"contracts/PropiedadesERC721_flattened.sol\":42121:42129  approved */\n      dup4\n        /* \"contracts/PropiedadesERC721_flattened.sol\":42078:42096  _setApprovalForAll */\n      tag_159\n        /* \"contracts/PropiedadesERC721_flattened.sol\":42078:42130  _setApprovalForAll(_msgSender(), operator, approved) */\n      jump\t// in\n    tag_157:\n        /* \"contracts/PropiedadesERC721_flattened.sol\":41993:42137  function setApprovalForAll(address operator, bool approved) public virtual {... */\n      pop\n      pop\n      jump\t// out\n        /* \"contracts/PropiedadesERC721_flattened.sol\":43260:43468  function safeTransferFrom(address from, address to, uint256 tokenId, bytes memory data) public virtual {... */\n    tag_82:\n        /* \"contracts/PropiedadesERC721_flattened.sol\":43373:43404  transferFrom(from, to, tokenId) */\n      tag_161\n        /* \"contracts/PropiedadesERC721_flattened.sol\":43386:43390  from */\n      dup5\n        /* \"contracts/PropiedadesERC721_flattened.sol\":43392:43394  to */\n      dup5\n        /* \"contracts/PropiedadesERC721_flattened.sol\":43396:43403  tokenId */\n      dup5\n        /* \"contracts/PropiedadesERC721_flattened.sol\":43373:43385  transferFrom */\n      tag_47\n        /* \"contracts/PropiedadesERC721_flattened.sol\":43373:43404  transferFrom(from, to, tokenId) */\n      jump\t// in\n    tag_161:\n        /* \"contracts/PropiedadesERC721_flattened.sol\":43414:43461  _checkOnERC721Received(from, to, tokenId, data) */\n      tag_162\n        /* \"contracts/PropiedadesERC721_flattened.sol\":43437:43441  from */\n      dup5\n        /* \"contracts/PropiedadesERC721_flattened.sol\":43443:43445  to */\n      dup5\n        /* \"contracts/PropiedadesERC721_flattened.sol\":43447:43454  tokenId */\n      dup5\n        /* \"contracts/PropiedadesERC721_flattened.sol\":43456:43460  data */\n      dup5\n        /* \"contracts/PropiedadesERC721_flattened.sol\":43414:43436  _checkOnERC721Received */\n      tag_163\n        /* \"contracts/PropiedadesERC721_flattened.sol\":43414:43461  _checkOnERC721Received(from, to, tokenId, data) */\n      jump\t// in\n    tag_162:\n        /* \"contracts/PropiedadesERC721_flattened.sol\":43260:43468  function safeTransferFrom(address from, address to, uint256 tokenId, bytes memory data) public virtual {... */\n      pop\n      pop\n      pop\n      pop\n      jump\t// out\n        /* \"contracts/PropiedadesERC721_flattened.sol\":40952:41207  function tokenURI(uint256 tokenId) public view virtual returns (string memory) {... */\n    tag_85:\n        /* \"contracts/PropiedadesERC721_flattened.sol\":41016:41029  string memory */\n      0x60\n        /* \"contracts/PropiedadesERC721_flattened.sol\":41041:41063  _requireOwned(tokenId) */\n      tag_165\n        /* \"contracts/PropiedadesERC721_flattened.sol\":41055:41062  tokenId */\n      dup3\n        /* \"contracts/PropiedadesERC721_flattened.sol\":41041:41054  _requireOwned */\n      tag_109\n        /* \"contracts/PropiedadesERC721_flattened.sol\":41041:41063  _requireOwned(tokenId) */\n      jump\t// in\n    tag_165:\n      pop\n        /* \"contracts/PropiedadesERC721_flattened.sol\":41074:41095  string memory baseURI */\n      0x00\n        /* \"contracts/PropiedadesERC721_flattened.sol\":41098:41108  _baseURI() */\n      tag_166\n        /* \"contracts/PropiedadesERC721_flattened.sol\":41098:41106  _baseURI */\n      tag_167\n        /* \"contracts/PropiedadesERC721_flattened.sol\":41098:41108  _baseURI() */\n      jump\t// in\n    tag_166:\n        /* \"contracts/PropiedadesERC721_flattened.sol\":41074:41108  string memory baseURI = _baseURI() */\n      swap1\n      pop\n        /* \"contracts/PropiedadesERC721_flattened.sol\":41149:41150  0 */\n      0x00\n        /* \"contracts/PropiedadesERC721_flattened.sol\":41131:41138  baseURI */\n      dup2\n        /* \"contracts/PropiedadesERC721_flattened.sol\":41125:41146  bytes(baseURI).length */\n      mload\n        /* \"contracts/PropiedadesERC721_flattened.sol\":41125:41150  bytes(baseURI).length > 0 */\n      gt\n        /* \"contracts/PropiedadesERC721_flattened.sol\":41125:41200  bytes(baseURI).length > 0 ? string.concat(baseURI, tokenId.toString()) : \"\" */\n      tag_168\n      jumpi\n      mload(0x40)\n      dup1\n      0x20\n      add\n      0x40\n      mstore\n      dup1\n      0x00\n      dup2\n      mstore\n      pop\n      jump(tag_169)\n    tag_168:\n        /* \"contracts/PropiedadesERC721_flattened.sol\":41167:41174  baseURI */\n      dup1\n        /* \"contracts/PropiedadesERC721_flattened.sol\":41176:41194  tokenId.toString() */\n      tag_170\n        /* \"contracts/PropiedadesERC721_flattened.sol\":41176:41183  tokenId */\n      dup5\n        /* \"contracts/PropiedadesERC721_flattened.sol\":41176:41192  tokenId.toString */\n      tag_171\n        /* \"contracts/PropiedadesERC721_flattened.sol\":41176:41194  tokenId.toString() */\n      jump\t// in\n    tag_170:\n        /* \"contracts/PropiedadesERC721_flattened.sol\":41153:41195  string.concat(baseURI, tokenId.toString()) */\n      add(0x20, mload(0x40))\n      tag_172\n      swap3\n      swap2\n      swap1\n      tag_173\n      jump\t// in\n    tag_172:\n      mload(0x40)\n      0x20\n      dup2\n      dup4\n      sub\n      sub\n      dup2\n      mstore\n      swap1\n      0x40\n      mstore\n        /* \"contracts/PropiedadesERC721_flattened.sol\":41125:41200  bytes(baseURI).length > 0 ? string.concat(baseURI, tokenId.toString()) : \"\" */\n    tag_169:\n        /* \"contracts/PropiedadesERC721_flattened.sol\":41118:41200  return bytes(baseURI).length > 0 ? string.concat(baseURI, tokenId.toString()) : \"\" */\n      swap2\n      pop\n      pop\n        /* \"contracts/PropiedadesERC721_flattened.sol\":40952:41207  function tokenURI(uint256 tokenId) public view virtual returns (string memory) {... */\n      swap2\n      swap1\n      pop\n      jump\t// out\n        /* \"contracts/PropiedadesERC721_flattened.sol\":42203:42356  function isApprovedForAll(address owner, address operator) public view virtual returns (bool) {... */\n    tag_90:\n        /* \"contracts/PropiedadesERC721_flattened.sol\":42291:42295  bool */\n      0x00\n        /* \"contracts/PropiedadesERC721_flattened.sol\":42314:42332  _operatorApprovals */\n      0x05\n        /* \"contracts/PropiedadesERC721_flattened.sol\":42314:42339  _operatorApprovals[owner] */\n      0x00\n        /* \"contracts/PropiedadesERC721_flattened.sol\":42333:42338  owner */\n      dup5\n        /* \"contracts/PropiedadesERC721_flattened.sol\":42314:42339  _operatorApprovals[owner] */\n      0xffffffffffffffffffffffffffffffffffffffff\n      and\n      0xffffffffffffffffffffffffffffffffffffffff\n      and\n      dup2\n      mstore\n      0x20\n      add\n      swap1\n      dup2\n      mstore\n      0x20\n      add\n      0x00\n      keccak256\n        /* \"contracts/PropiedadesERC721_flattened.sol\":42314:42349  _operatorApprovals[owner][operator] */\n      0x00\n        /* \"contracts/PropiedadesERC721_flattened.sol\":42340:42348  operator */\n      dup4\n        /* \"contracts/PropiedadesERC721_flattened.sol\":42314:42349  _operatorApprovals[owner][operator] */\n      0xffffffffffffffffffffffffffffffffffffffff\n      and\n      0xffffffffffffffffffffffffffffffffffffffff\n      and\n      dup2\n      mstore\n      0x20\n      add\n      swap1\n      dup2\n      mstore\n      0x20\n      add\n      0x00\n      keccak256\n      0x00\n      swap1\n      sload\n      swap1\n      0x0100\n      exp\n      swap1\n      div\n      0xff\n      and\n        /* \"contracts/PropiedadesERC721_flattened.sol\":42307:42349  return _operatorApprovals[owner][operator] */\n      swap1\n      pop\n        /* \"contracts/PropiedadesERC721_flattened.sol\":42203:42356  function isApprovedForAll(address owner, address operator) public view virtual returns (bool) {... */\n      swap3\n      swap2\n      pop\n      pop\n      jump\t// out\n        /* \"contracts/PropiedadesERC721_flattened.sol\":29541:29756  function transferOwnership(address newOwner) public virtual onlyOwner {... */\n    tag_94:\n        /* \"contracts/PropiedadesERC721_flattened.sol\":28529:28542  _checkOwner() */\n      tag_176\n        /* \"contracts/PropiedadesERC721_flattened.sol\":28529:28540  _checkOwner */\n      tag_128\n        /* \"contracts/PropiedadesERC721_flattened.sol\":28529:28542  _checkOwner() */\n      jump\t// in\n    tag_176:\n        /* \"contracts/PropiedadesERC721_flattened.sol\":29645:29646  0 */\n      0x00\n        /* \"contracts/PropiedadesERC721_flattened.sol\":29625:29647  newOwner == address(0) */\n      0xffffffffffffffffffffffffffffffffffffffff\n      and\n        /* \"contracts/PropiedadesERC721_flattened.sol\":29625:29633  newOwner */\n      dup2\n        /* \"contracts/PropiedadesERC721_flattened.sol\":29625:29647  newOwner == address(0) */\n      0xffffffffffffffffffffffffffffffffffffffff\n      and\n      sub\n        /* \"contracts/PropiedadesERC721_flattened.sol\":29621:29712  if (newOwner == address(0)) {... */\n      tag_178\n      jumpi\n        /* \"contracts/PropiedadesERC721_flattened.sol\":29698:29699  0 */\n      0x00\n        /* \"contracts/PropiedadesERC721_flattened.sol\":29670:29701  OwnableInvalidOwner(address(0)) */\n      mload(0x40)\n      0x1e4fbdf700000000000000000000000000000000000000000000000000000000\n      dup2\n      mstore\n      0x04\n      add\n      tag_179\n      swap2\n      swap1\n      tag_39\n      jump\t// in\n    tag_179:\n      mload(0x40)\n      dup1\n      swap2\n      sub\n      swap1\n      revert\n        /* \"contracts/PropiedadesERC721_flattened.sol\":29621:29712  if (newOwner == address(0)) {... */\n    tag_178:\n        /* \"contracts/PropiedadesERC721_flattened.sol\":29721:29749  _transferOwnership(newOwner) */\n      tag_180\n        /* \"contracts/PropiedadesERC721_flattened.sol\":29740:29748  newOwner */\n      dup2\n        /* \"contracts/PropiedadesERC721_flattened.sol\":29721:29739  _transferOwnership */\n      tag_148\n        /* \"contracts/PropiedadesERC721_flattened.sol\":29721:29749  _transferOwnership(newOwner) */\n      jump\t// in\n    tag_180:\n        /* \"contracts/PropiedadesERC721_flattened.sol\":29541:29756  function transferOwnership(address newOwner) public virtual onlyOwner {... */\n      pop\n      jump\t// out\n        /* \"contracts/PropiedadesERC721_flattened.sol\":32795:32941  function supportsInterface(bytes4 interfaceId) public view virtual returns (bool) {... */\n    tag_99:\n        /* \"contracts/PropiedadesERC721_flattened.sol\":32871:32875  bool */\n      0x00\n        /* \"contracts/PropiedadesERC721_flattened.sol\":32909:32934  type(IERC165).interfaceId */\n      0x01ffc9a700000000000000000000000000000000000000000000000000000000\n        /* \"contracts/PropiedadesERC721_flattened.sol\":32894:32934  interfaceId == type(IERC165).interfaceId */\n      not(0xffffffffffffffffffffffffffffffffffffffffffffffffffffffff)\n      and\n        /* \"contracts/PropiedadesERC721_flattened.sol\":32894:32905  interfaceId */\n      dup3\n        /* \"contracts/PropiedadesERC721_flattened.sol\":32894:32934  interfaceId == type(IERC165).interfaceId */\n      not(0xffffffffffffffffffffffffffffffffffffffffffffffffffffffff)\n      and\n      eq\n        /* \"contracts/PropiedadesERC721_flattened.sol\":32887:32934  return interfaceId == type(IERC165).interfaceId */\n      swap1\n      pop\n        /* \"contracts/PropiedadesERC721_flattened.sol\":32795:32941  function supportsInterface(bytes4 interfaceId) public view virtual returns (bool) {... */\n      swap2\n      swap1\n      pop\n      jump\t// out\n        /* \"contracts/PropiedadesERC721_flattened.sol\":54413:54654  function _requireOwned(uint256 tokenId) internal view returns (address) {... */\n    tag_109:\n        /* \"contracts/PropiedadesERC721_flattened.sol\":54476:54483  address */\n      0x00\n        /* \"contracts/PropiedadesERC721_flattened.sol\":54495:54508  address owner */\n      dup1\n        /* \"contracts/PropiedadesERC721_flattened.sol\":54511:54528  _ownerOf(tokenId) */\n      tag_183\n        /* \"contracts/PropiedadesERC721_flattened.sol\":54520:54527  tokenId */\n      dup4\n        /* \"contracts/PropiedadesERC721_flattened.sol\":54511:54519  _ownerOf */\n      tag_184\n        /* \"contracts/PropiedadesERC721_flattened.sol\":54511:54528  _ownerOf(tokenId) */\n      jump\t// in\n    tag_183:\n        /* \"contracts/PropiedadesERC721_flattened.sol\":54495:54528  address owner = _ownerOf(tokenId) */\n      swap1\n      pop\n        /* \"contracts/PropiedadesERC721_flattened.sol\":54559:54560  0 */\n      0x00\n        /* \"contracts/PropiedadesERC721_flattened.sol\":54542:54561  owner == address(0) */\n      0xffffffffffffffffffffffffffffffffffffffff\n      and\n        /* \"contracts/PropiedadesERC721_flattened.sol\":54542:54547  owner */\n      dup2\n        /* \"contracts/PropiedadesERC721_flattened.sol\":54542:54561  owner == address(0) */\n      0xffffffffffffffffffffffffffffffffffffffff\n      and\n      sub\n        /* \"contracts/PropiedadesERC721_flattened.sol\":54538:54626  if (owner == address(0)) {... */\n      tag_185\n      jumpi\n        /* \"contracts/PropiedadesERC721_flattened.sol\":54607:54614  tokenId */\n      dup3\n        /* \"contracts/PropiedadesERC721_flattened.sol\":54584:54615  ERC721NonexistentToken(tokenId) */\n      mload(0x40)\n      0x7e27328900000000000000000000000000000000000000000000000000000000\n      dup2\n      mstore\n      0x04\n      add\n      tag_186\n      swap2\n      swap1\n      tag_66\n      jump\t// in\n    tag_186:\n      mload(0x40)\n      dup1\n      swap2\n      sub\n      swap1\n      revert\n        /* \"contracts/PropiedadesERC721_flattened.sol\":54538:54626  if (owner == address(0)) {... */\n    tag_185:\n        /* \"contracts/PropiedadesERC721_flattened.sol\":54642:54647  owner */\n      dup1\n        /* \"contracts/PropiedadesERC721_flattened.sol\":54635:54647  return owner */\n      swap2\n      pop\n      pop\n        /* \"contracts/PropiedadesERC721_flattened.sol\":54413:54654  function _requireOwned(uint256 tokenId) internal view returns (address) {... */\n      swap2\n      swap1\n      pop\n      jump\t// out\n        /* \"contracts/PropiedadesERC721_flattened.sol\":44213:44340  function _getApproved(uint256 tokenId) internal view virtual returns (address) {... */\n    tag_111:\n        /* \"contracts/PropiedadesERC721_flattened.sol\":44283:44290  address */\n      0x00\n        /* \"contracts/PropiedadesERC721_flattened.sol\":44309:44324  _tokenApprovals */\n      0x04\n        /* \"contracts/PropiedadesERC721_flattened.sol\":44309:44333  _tokenApprovals[tokenId] */\n      0x00\n        /* \"contracts/PropiedadesERC721_flattened.sol\":44325:44332  tokenId */\n      dup4\n        /* \"contracts/PropiedadesERC721_flattened.sol\":44309:44333  _tokenApprovals[tokenId] */\n      dup2\n      mstore\n      0x20\n      add\n      swap1\n      dup2\n      mstore\n      0x20\n      add\n      0x00\n      keccak256\n      0x00\n      swap1\n      sload\n      swap1\n      0x0100\n      exp\n      swap1\n      div\n      0xffffffffffffffffffffffffffffffffffffffff\n      and\n        /* \"contracts/PropiedadesERC721_flattened.sol\":44302:44333  return _tokenApprovals[tokenId] */\n      swap1\n      pop\n        /* \"contracts/PropiedadesERC721_flattened.sol\":44213:44340  function _getApproved(uint256 tokenId) internal view virtual returns (address) {... */\n      swap2\n      swap1\n      pop\n      jump\t// out\n        /* \"contracts/PropiedadesERC721_flattened.sol\":26714:26810  function _msgSender() internal view virtual returns (address) {... */\n    tag_115:\n        /* \"contracts/PropiedadesERC721_flattened.sol\":26767:26774  address */\n      0x00\n        /* \"contracts/PropiedadesERC721_flattened.sol\":26793:26803  msg.sender */\n      caller\n        /* \"contracts/PropiedadesERC721_flattened.sol\":26786:26803  return msg.sender */\n      swap1\n      pop\n        /* \"contracts/PropiedadesERC721_flattened.sol\":26714:26810  function _msgSender() internal view virtual returns (address) {... */\n      swap1\n      jump\t// out\n        /* \"contracts/PropiedadesERC721_flattened.sol\":52693:52813  function _approve(address to, uint256 tokenId, address auth) internal {... */\n    tag_116:\n        /* \"contracts/PropiedadesERC721_flattened.sol\":52773:52806  _approve(to, tokenId, auth, true) */\n      tag_190\n        /* \"contracts/PropiedadesERC721_flattened.sol\":52782:52784  to */\n      dup4\n        /* \"contracts/PropiedadesERC721_flattened.sol\":52786:52793  tokenId */\n      dup4\n        /* \"contracts/PropiedadesERC721_flattened.sol\":52795:52799  auth */\n      dup4\n        /* \"contracts/PropiedadesERC721_flattened.sol\":52801:52805  true */\n      0x01\n        /* \"contracts/PropiedadesERC721_flattened.sol\":52773:52781  _approve */\n      tag_191\n        /* \"contracts/PropiedadesERC721_flattened.sol\":52773:52806  _approve(to, tokenId, auth, true) */\n      jump\t// in\n    tag_190:\n        /* \"contracts/PropiedadesERC721_flattened.sol\":52693:52813  function _approve(address to, uint256 tokenId, address auth) internal {... */\n      pop\n      pop\n      pop\n      jump\t// out\n        /* \"contracts/PropiedadesERC721_flattened.sol\":47113:47908  function _update(address to, uint256 tokenId, address auth) internal virtual returns (address) {... */\n    tag_122:\n        /* \"contracts/PropiedadesERC721_flattened.sol\":47199:47206  address */\n      0x00\n        /* \"contracts/PropiedadesERC721_flattened.sol\":47218:47230  address from */\n      dup1\n        /* \"contracts/PropiedadesERC721_flattened.sol\":47233:47250  _ownerOf(tokenId) */\n      tag_193\n        /* \"contracts/PropiedadesERC721_flattened.sol\":47242:47249  tokenId */\n      dup5\n        /* \"contracts/PropiedadesERC721_flattened.sol\":47233:47241  _ownerOf */\n      tag_184\n        /* \"contracts/PropiedadesERC721_flattened.sol\":47233:47250  _ownerOf(tokenId) */\n      jump\t// in\n    tag_193:\n        /* \"contracts/PropiedadesERC721_flattened.sol\":47218:47250  address from = _ownerOf(tokenId) */\n      swap1\n      pop\n        /* \"contracts/PropiedadesERC721_flattened.sol\":47326:47327  0 */\n      0x00\n        /* \"contracts/PropiedadesERC721_flattened.sol\":47310:47328  auth != address(0) */\n      0xffffffffffffffffffffffffffffffffffffffff\n      and\n        /* \"contracts/PropiedadesERC721_flattened.sol\":47310:47314  auth */\n      dup4\n        /* \"contracts/PropiedadesERC721_flattened.sol\":47310:47328  auth != address(0) */\n      0xffffffffffffffffffffffffffffffffffffffff\n      and\n      eq\n        /* \"contracts/PropiedadesERC721_flattened.sol\":47306:47392  if (auth != address(0)) {... */\n      tag_194\n      jumpi\n        /* \"contracts/PropiedadesERC721_flattened.sol\":47344:47381  _checkAuthorized(from, auth, tokenId) */\n      tag_195\n        /* \"contracts/PropiedadesERC721_flattened.sol\":47361:47365  from */\n      dup2\n        /* \"contracts/PropiedadesERC721_flattened.sol\":47367:47371  auth */\n      dup5\n        /* \"contracts/PropiedadesERC721_flattened.sol\":47373:47380  tokenId */\n      dup7\n        /* \"contracts/PropiedadesERC721_flattened.sol\":47344:47360  _checkAuthorized */\n      tag_196\n        /* \"contracts/PropiedadesERC721_flattened.sol\":47344:47381  _checkAuthorized(from, auth, tokenId) */\n      jump\t// in\n    tag_195:\n        /* \"contracts/PropiedadesERC721_flattened.sol\":47306:47392  if (auth != address(0)) {... */\n    tag_194:\n        /* \"contracts/PropiedadesERC721_flattened.sol\":47452:47453  0 */\n      0x00\n        /* \"contracts/PropiedadesERC721_flattened.sol\":47436:47454  from != address(0) */\n      0xffffffffffffffffffffffffffffffffffffffff\n      and\n        /* \"contracts/PropiedadesERC721_flattened.sol\":47436:47440  from */\n      dup2\n        /* \"contracts/PropiedadesERC721_flattened.sol\":47436:47454  from != address(0) */\n      0xffffffffffffffffffffffffffffffffffffffff\n      and\n      eq\n        /* \"contracts/PropiedadesERC721_flattened.sol\":47432:47688  if (from != address(0)) {... */\n      tag_197\n      jumpi\n        /* \"contracts/PropiedadesERC721_flattened.sol\":47552:47600  _approve(address(0), tokenId, address(0), false) */\n      tag_198\n        /* \"contracts/PropiedadesERC721_flattened.sol\":47569:47570  0 */\n      0x00\n        /* \"contracts/PropiedadesERC721_flattened.sol\":47573:47580  tokenId */\n      dup6\n        /* \"contracts/PropiedadesERC721_flattened.sol\":47590:47591  0 */\n      0x00\n        /* \"contracts/PropiedadesERC721_flattened.sol\":47594:47599  false */\n      dup1\n        /* \"contracts/PropiedadesERC721_flattened.sol\":47552:47560  _approve */\n      tag_191\n        /* \"contracts/PropiedadesERC721_flattened.sol\":47552:47600  _approve(address(0), tokenId, address(0), false) */\n      jump\t// in\n    tag_198:\n        /* \"contracts/PropiedadesERC721_flattened.sol\":47662:47663  1 */\n      0x01\n        /* \"contracts/PropiedadesERC721_flattened.sol\":47643:47652  _balances */\n      0x03\n        /* \"contracts/PropiedadesERC721_flattened.sol\":47643:47658  _balances[from] */\n      0x00\n        /* \"contracts/PropiedadesERC721_flattened.sol\":47653:47657  from */\n      dup4\n        /* \"contracts/PropiedadesERC721_flattened.sol\":47643:47658  _balances[from] */\n      0xffffffffffffffffffffffffffffffffffffffff\n      and\n      0xffffffffffffffffffffffffffffffffffffffff\n      and\n      dup2\n      mstore\n      0x20\n      add\n      swap1\n      dup2\n      mstore\n      0x20\n      add\n      0x00\n      keccak256\n      0x00\n        /* \"contracts/PropiedadesERC721_flattened.sol\":47643:47663  _balances[from] -= 1 */\n      dup3\n      dup3\n      sload\n      sub\n      swap3\n      pop\n      pop\n      dup2\n      swap1\n      sstore\n      pop\n        /* \"contracts/PropiedadesERC721_flattened.sol\":47432:47688  if (from != address(0)) {... */\n    tag_197:\n        /* \"contracts/PropiedadesERC721_flattened.sol\":47716:47717  0 */\n      0x00\n        /* \"contracts/PropiedadesERC721_flattened.sol\":47702:47718  to != address(0) */\n      0xffffffffffffffffffffffffffffffffffffffff\n      and\n        /* \"contracts/PropiedadesERC721_flattened.sol\":47702:47704  to */\n      dup6\n        /* \"contracts/PropiedadesERC721_flattened.sol\":47702:47718  to != address(0) */\n      0xffffffffffffffffffffffffffffffffffffffff\n      and\n      eq\n        /* \"contracts/PropiedadesERC721_flattened.sol\":47698:47805  if (to != address(0)) {... */\n      tag_199\n      jumpi\n        /* \"contracts/PropiedadesERC721_flattened.sol\":47779:47780  1 */\n      0x01\n        /* \"contracts/PropiedadesERC721_flattened.sol\":47762:47771  _balances */\n      0x03\n        /* \"contracts/PropiedadesERC721_flattened.sol\":47762:47775  _balances[to] */\n      0x00\n        /* \"contracts/PropiedadesERC721_flattened.sol\":47772:47774  to */\n      dup8\n        /* \"contracts/PropiedadesERC721_flattened.sol\":47762:47775  _balances[to] */\n      0xffffffffffffffffffffffffffffffffffffffff\n      and\n      0xffffffffffffffffffffffffffffffffffffffff\n      and\n      dup2\n      mstore\n      0x20\n      add\n      swap1\n      dup2\n      mstore\n      0x20\n      add\n      0x00\n      keccak256\n      0x00\n        /* \"contracts/PropiedadesERC721_flattened.sol\":47762:47780  _balances[to] += 1 */\n      dup3\n      dup3\n      sload\n      add\n      swap3\n      pop\n      pop\n      dup2\n      swap1\n      sstore\n      pop\n        /* \"contracts/PropiedadesERC721_flattened.sol\":47698:47805  if (to != address(0)) {... */\n    tag_199:\n        /* \"contracts/PropiedadesERC721_flattened.sol\":47834:47836  to */\n      dup5\n        /* \"contracts/PropiedadesERC721_flattened.sol\":47815:47822  _owners */\n      0x02\n        /* \"contracts/PropiedadesERC721_flattened.sol\":47815:47831  _owners[tokenId] */\n      0x00\n        /* \"contracts/PropiedadesERC721_flattened.sol\":47823:47830  tokenId */\n      dup7\n        /* \"contracts/PropiedadesERC721_flattened.sol\":47815:47831  _owners[tokenId] */\n      dup2\n      mstore\n      0x20\n      add\n      swap1\n      dup2\n      mstore\n      0x20\n      add\n      0x00\n      keccak256\n      0x00\n        /* \"contracts/PropiedadesERC721_flattened.sol\":47815:47836  _owners[tokenId] = to */\n      0x0100\n      exp\n      dup2\n      sload\n      dup2\n      0xffffffffffffffffffffffffffffffffffffffff\n      mul\n      not\n      and\n      swap1\n      dup4\n      0xffffffffffffffffffffffffffffffffffffffff\n      and\n      mul\n      or\n      swap1\n      sstore\n      pop\n        /* \"contracts/PropiedadesERC721_flattened.sol\":47871:47878  tokenId */\n      dup4\n        /* \"contracts/PropiedadesERC721_flattened.sol\":47867:47869  to */\n      dup6\n        /* \"contracts/PropiedadesERC721_flattened.sol\":47852:47879  Transfer(from, to, tokenId) */\n      0xffffffffffffffffffffffffffffffffffffffff\n      and\n        /* \"contracts/PropiedadesERC721_flattened.sol\":47861:47865  from */\n      dup3\n        /* \"contracts/PropiedadesERC721_flattened.sol\":47852:47879  Transfer(from, to, tokenId) */\n      0xffffffffffffffffffffffffffffffffffffffff\n      and\n      0xddf252ad1be2c89b69c2b068fc378daa952ba7f163c4a11628f55a4df523b3ef\n      mload(0x40)\n      mload(0x40)\n      dup1\n      swap2\n      sub\n      swap1\n      log4\n        /* \"contracts/PropiedadesERC721_flattened.sol\":47897:47901  from */\n      dup1\n        /* \"contracts/PropiedadesERC721_flattened.sol\":47890:47901  return from */\n      swap2\n      pop\n      pop\n        /* \"contracts/PropiedadesERC721_flattened.sol\":47113:47908  function _update(address to, uint256 tokenId, address auth) internal virtual returns (address) {... */\n      swap4\n      swap3\n      pop\n      pop\n      pop\n      jump\t// out\n        /* \"contracts/PropiedadesERC721_flattened.sol\":28794:28956  function _checkOwner() internal view virtual {... */\n    tag_128:\n        /* \"contracts/PropiedadesERC721_flattened.sol\":28864:28876  _msgSender() */\n      tag_201\n        /* \"contracts/PropiedadesERC721_flattened.sol\":28864:28874  _msgSender */\n      tag_115\n        /* \"contracts/PropiedadesERC721_flattened.sol\":28864:28876  _msgSender() */\n      jump\t// in\n    tag_201:\n        /* \"contracts/PropiedadesERC721_flattened.sol\":28853:28876  owner() != _msgSender() */\n      0xffffffffffffffffffffffffffffffffffffffff\n      and\n        /* \"contracts/PropiedadesERC721_flattened.sol\":28853:28860  owner() */\n      tag_202\n        /* \"contracts/PropiedadesERC721_flattened.sol\":28853:28858  owner */\n      tag_70\n        /* \"contracts/PropiedadesERC721_flattened.sol\":28853:28860  owner() */\n      jump\t// in\n    tag_202:\n        /* \"contracts/PropiedadesERC721_flattened.sol\":28853:28876  owner() != _msgSender() */\n      0xffffffffffffffffffffffffffffffffffffffff\n      and\n      eq\n        /* \"contracts/PropiedadesERC721_flattened.sol\":28849:28950  if (owner() != _msgSender()) {... */\n      tag_203\n      jumpi\n        /* \"contracts/PropiedadesERC721_flattened.sol\":28926:28938  _msgSender() */\n      tag_204\n        /* \"contracts/PropiedadesERC721_flattened.sol\":28926:28936  _msgSender */\n      tag_115\n        /* \"contracts/PropiedadesERC721_flattened.sol\":28926:28938  _msgSender() */\n      jump\t// in\n    tag_204:\n        /* \"contracts/PropiedadesERC721_flattened.sol\":28899:28939  OwnableUnauthorizedAccount(_msgSender()) */\n      mload(0x40)\n      0x118cdaa700000000000000000000000000000000000000000000000000000000\n      dup2\n      mstore\n      0x04\n      add\n      tag_205\n      swap2\n      swap1\n      tag_39\n      jump\t// in\n    tag_205:\n      mload(0x40)\n      dup1\n      swap2\n      sub\n      swap1\n      revert\n        /* \"contracts/PropiedadesERC721_flattened.sol\":28849:28950  if (owner() != _msgSender()) {... */\n    tag_203:\n        /* \"contracts/PropiedadesERC721_flattened.sol\":28794:28956  function _checkOwner() internal view virtual {... */\n      jump\t// out\n        /* \"contracts/PropiedadesERC721_flattened.sol\":48230:48557  function _mint(address to, uint256 tokenId) internal {... */\n    tag_131:\n        /* \"contracts/PropiedadesERC721_flattened.sol\":48311:48312  0 */\n      0x00\n        /* \"contracts/PropiedadesERC721_flattened.sol\":48297:48313  to == address(0) */\n      0xffffffffffffffffffffffffffffffffffffffff\n      and\n        /* \"contracts/PropiedadesERC721_flattened.sol\":48297:48299  to */\n      dup3\n        /* \"contracts/PropiedadesERC721_flattened.sol\":48297:48313  to == address(0) */\n      0xffffffffffffffffffffffffffffffffffffffff\n      and\n      sub\n        /* \"contracts/PropiedadesERC721_flattened.sol\":48293:48380  if (to == address(0)) {... */\n      tag_207\n      jumpi\n        /* \"contracts/PropiedadesERC721_flattened.sol\":48366:48367  0 */\n      0x00\n        /* \"contracts/PropiedadesERC721_flattened.sol\":48336:48369  ERC721InvalidReceiver(address(0)) */\n      mload(0x40)\n      0x64a0ae9200000000000000000000000000000000000000000000000000000000\n      dup2\n      mstore\n      0x04\n      add\n      tag_208\n      swap2\n      swap1\n      tag_39\n      jump\t// in\n    tag_208:\n      mload(0x40)\n      dup1\n      swap2\n      sub\n      swap1\n      revert\n        /* \"contracts/PropiedadesERC721_flattened.sol\":48293:48380  if (to == address(0)) {... */\n    tag_207:\n        /* \"contracts/PropiedadesERC721_flattened.sol\":48389:48410  address previousOwner */\n      0x00\n        /* \"contracts/PropiedadesERC721_flattened.sol\":48413:48445  _update(to, tokenId, address(0)) */\n      tag_209\n        /* \"contracts/PropiedadesERC721_flattened.sol\":48421:48423  to */\n      dup4\n        /* \"contracts/PropiedadesERC721_flattened.sol\":48425:48432  tokenId */\n      dup4\n        /* \"contracts/PropiedadesERC721_flattened.sol\":48442:48443  0 */\n      0x00\n        /* \"contracts/PropiedadesERC721_flattened.sol\":48413:48420  _update */\n      tag_122\n        /* \"contracts/PropiedadesERC721_flattened.sol\":48413:48445  _update(to, tokenId, address(0)) */\n      jump\t// in\n    tag_209:\n        /* \"contracts/PropiedadesERC721_flattened.sol\":48389:48445  address previousOwner = _update(to, tokenId, address(0)) */\n      swap1\n      pop\n        /* \"contracts/PropiedadesERC721_flattened.sol\":48484:48485  0 */\n      0x00\n        /* \"contracts/PropiedadesERC721_flattened.sol\":48459:48486  previousOwner != address(0) */\n      0xffffffffffffffffffffffffffffffffffffffff\n      and\n        /* \"contracts/PropiedadesERC721_flattened.sol\":48459:48472  previousOwner */\n      dup2\n        /* \"contracts/PropiedadesERC721_flattened.sol\":48459:48486  previousOwner != address(0) */\n      0xffffffffffffffffffffffffffffffffffffffff\n      and\n      eq\n        /* \"contracts/PropiedadesERC721_flattened.sol\":48455:48551  if (previousOwner != address(0)) {... */\n      tag_210\n      jumpi\n        /* \"contracts/PropiedadesERC721_flattened.sol\":48537:48538  0 */\n      0x00\n        /* \"contracts/PropiedadesERC721_flattened.sol\":48509:48540  ERC721InvalidSender(address(0)) */\n      mload(0x40)\n      0x73c6ac6e00000000000000000000000000000000000000000000000000000000\n      dup2\n      mstore\n      0x04\n      add\n      tag_211\n      swap2\n      swap1\n      tag_39\n      jump\t// in\n    tag_211:\n      mload(0x40)\n      dup1\n      swap2\n      sub\n      swap1\n      revert\n        /* \"contracts/PropiedadesERC721_flattened.sol\":48455:48551  if (previousOwner != address(0)) {... */\n    tag_210:\n        /* \"contracts/PropiedadesERC721_flattened.sol\":48283:48557  {... */\n      pop\n        /* \"contracts/PropiedadesERC721_flattened.sol\":48230:48557  function _mint(address to, uint256 tokenId) internal {... */\n      pop\n      pop\n      jump\t// out\n        /* \"contracts/PropiedadesERC721_flattened.sol\":49737:49964  function _burn(uint256 tokenId) internal {... */\n    tag_138:\n        /* \"contracts/PropiedadesERC721_flattened.sol\":49788:49809  address previousOwner */\n      0x00\n        /* \"contracts/PropiedadesERC721_flattened.sol\":49812:49852  _update(address(0), tokenId, address(0)) */\n      tag_213\n        /* \"contracts/PropiedadesERC721_flattened.sol\":49828:49829  0 */\n      0x00\n        /* \"contracts/PropiedadesERC721_flattened.sol\":49832:49839  tokenId */\n      dup4\n        /* \"contracts/PropiedadesERC721_flattened.sol\":49849:49850  0 */\n      0x00\n        /* \"contracts/PropiedadesERC721_flattened.sol\":49812:49819  _update */\n      tag_122\n        /* \"contracts/PropiedadesERC721_flattened.sol\":49812:49852  _update(address(0), tokenId, address(0)) */\n      jump\t// in\n    tag_213:\n        /* \"contracts/PropiedadesERC721_flattened.sol\":49788:49852  address previousOwner = _update(address(0), tokenId, address(0)) */\n      swap1\n      pop\n        /* \"contracts/PropiedadesERC721_flattened.sol\":49891:49892  0 */\n      0x00\n        /* \"contracts/PropiedadesERC721_flattened.sol\":49866:49893  previousOwner == address(0) */\n      0xffffffffffffffffffffffffffffffffffffffff\n      and\n        /* \"contracts/PropiedadesERC721_flattened.sol\":49866:49879  previousOwner */\n      dup2\n        /* \"contracts/PropiedadesERC721_flattened.sol\":49866:49893  previousOwner == address(0) */\n      0xffffffffffffffffffffffffffffffffffffffff\n      and\n      sub\n        /* \"contracts/PropiedadesERC721_flattened.sol\":49862:49958  if (previousOwner == address(0)) {... */\n      tag_214\n      jumpi\n        /* \"contracts/PropiedadesERC721_flattened.sol\":49939:49946  tokenId */\n      dup2\n        /* \"contracts/PropiedadesERC721_flattened.sol\":49916:49947  ERC721NonexistentToken(tokenId) */\n      mload(0x40)\n      0x7e27328900000000000000000000000000000000000000000000000000000000\n      dup2\n      mstore\n      0x04\n      add\n      tag_215\n      swap2\n      swap1\n      tag_66\n      jump\t// in\n    tag_215:\n      mload(0x40)\n      dup1\n      swap2\n      sub\n      swap1\n      revert\n        /* \"contracts/PropiedadesERC721_flattened.sol\":49862:49958  if (previousOwner == address(0)) {... */\n    tag_214:\n        /* \"contracts/PropiedadesERC721_flattened.sol\":49778:49964  {... */\n      pop\n        /* \"contracts/PropiedadesERC721_flattened.sol\":49737:49964  function _burn(uint256 tokenId) internal {... */\n      pop\n      jump\t// out\n        /* \"contracts/PropiedadesERC721_flattened.sol\":29910:30097  function _transferOwnership(address newOwner) internal virtual {... */\n    tag_148:\n        /* \"contracts/PropiedadesERC721_flattened.sol\":29983:29999  address oldOwner */\n      0x00\n        /* \"contracts/PropiedadesERC721_flattened.sol\":30002:30008  _owner */\n      0x06\n      0x00\n      swap1\n      sload\n      swap1\n      0x0100\n      exp\n      swap1\n      div\n      0xffffffffffffffffffffffffffffffffffffffff\n      and\n        /* \"contracts/PropiedadesERC721_flattened.sol\":29983:30008  address oldOwner = _owner */\n      swap1\n      pop\n        /* \"contracts/PropiedadesERC721_flattened.sol\":30027:30035  newOwner */\n      dup2\n        /* \"contracts/PropiedadesERC721_flattened.sol\":30018:30024  _owner */\n      0x06\n      0x00\n        /* \"contracts/PropiedadesERC721_flattened.sol\":30018:30035  _owner = newOwner */\n      0x0100\n      exp\n      dup2\n      sload\n      dup2\n      0xffffffffffffffffffffffffffffffffffffffff\n      mul\n      not\n      and\n      swap1\n      dup4\n      0xffffffffffffffffffffffffffffffffffffffff\n      and\n      mul\n      or\n      swap1\n      sstore\n      pop\n        /* \"contracts/PropiedadesERC721_flattened.sol\":30081:30089  newOwner */\n      dup2\n        /* \"contracts/PropiedadesERC721_flattened.sol\":30050:30090  OwnershipTransferred(oldOwner, newOwner) */\n      0xffffffffffffffffffffffffffffffffffffffff\n      and\n        /* \"contracts/PropiedadesERC721_flattened.sol\":30071:30079  oldOwner */\n      dup2\n        /* \"contracts/PropiedadesERC721_flattened.sol\":30050:30090  OwnershipTransferred(oldOwner, newOwner) */\n      0xffffffffffffffffffffffffffffffffffffffff\n      and\n      0x8be0079c531659141344cd1fd0a4f28419497f9722a3daafe3b4186f6b6457e0\n      mload(0x40)\n      mload(0x40)\n      dup1\n      swap2\n      sub\n      swap1\n      log3\n        /* \"contracts/PropiedadesERC721_flattened.sol\":29973:30097  {... */\n      pop\n        /* \"contracts/PropiedadesERC721_flattened.sol\":29910:30097  function _transferOwnership(address newOwner) internal virtual {... */\n      pop\n      jump\t// out\n        /* \"contracts/PropiedadesERC721_flattened.sol\":53866:54178  function _setApprovalForAll(address owner, address operator, bool approved) internal virtual {... */\n    tag_159:\n        /* \"contracts/PropiedadesERC721_flattened.sol\":53993:53994  0 */\n      0x00\n        /* \"contracts/PropiedadesERC721_flattened.sol\":53973:53995  operator == address(0) */\n      0xffffffffffffffffffffffffffffffffffffffff\n      and\n        /* \"contracts/PropiedadesERC721_flattened.sol\":53973:53981  operator */\n      dup3\n        /* \"contracts/PropiedadesERC721_flattened.sol\":53973:53995  operator == address(0) */\n      0xffffffffffffffffffffffffffffffffffffffff\n      and\n      sub\n        /* \"contracts/PropiedadesERC721_flattened.sol\":53969:54060  if (operator == address(0)) {... */\n      tag_218\n      jumpi\n        /* \"contracts/PropiedadesERC721_flattened.sol\":54040:54048  operator */\n      dup2\n        /* \"contracts/PropiedadesERC721_flattened.sol\":54018:54049  ERC721InvalidOperator(operator) */\n      mload(0x40)\n      0x5b08ba1800000000000000000000000000000000000000000000000000000000\n      dup2\n      mstore\n      0x04\n      add\n      tag_219\n      swap2\n      swap1\n      tag_39\n      jump\t// in\n    tag_219:\n      mload(0x40)\n      dup1\n      swap2\n      sub\n      swap1\n      revert\n        /* \"contracts/PropiedadesERC721_flattened.sol\":53969:54060  if (operator == address(0)) {... */\n    tag_218:\n        /* \"contracts/PropiedadesERC721_flattened.sol\":54107:54115  approved */\n      dup1\n        /* \"contracts/PropiedadesERC721_flattened.sol\":54069:54087  _operatorApprovals */\n      0x05\n        /* \"contracts/PropiedadesERC721_flattened.sol\":54069:54094  _operatorApprovals[owner] */\n      0x00\n        /* \"contracts/PropiedadesERC721_flattened.sol\":54088:54093  owner */\n      dup6\n        /* \"contracts/PropiedadesERC721_flattened.sol\":54069:54094  _operatorApprovals[owner] */\n      0xffffffffffffffffffffffffffffffffffffffff\n      and\n      0xffffffffffffffffffffffffffffffffffffffff\n      and\n      dup2\n      mstore\n      0x20\n      add\n      swap1\n      dup2\n      mstore\n      0x20\n      add\n      0x00\n      keccak256\n        /* \"contracts/PropiedadesERC721_flattened.sol\":54069:54104  _operatorApprovals[owner][operator] */\n      0x00\n        /* \"contracts/PropiedadesERC721_flattened.sol\":54095:54103  operator */\n      dup5\n        /* \"contracts/PropiedadesERC721_flattened.sol\":54069:54104  _operatorApprovals[owner][operator] */\n      0xffffffffffffffffffffffffffffffffffffffff\n      and\n      0xffffffffffffffffffffffffffffffffffffffff\n      and\n      dup2\n      mstore\n      0x20\n      add\n      swap1\n      dup2\n      mstore\n      0x20\n      add\n      0x00\n      keccak256\n      0x00\n        /* \"contracts/PropiedadesERC721_flattened.sol\":54069:54115  _operatorApprovals[owner][operator] = approved */\n      0x0100\n      exp\n      dup2\n      sload\n      dup2\n      0xff\n      mul\n      not\n      and\n      swap1\n      dup4\n      iszero\n      iszero\n      mul\n      or\n      swap1\n      sstore\n      pop\n        /* \"contracts/PropiedadesERC721_flattened.sol\":54152:54160  operator */\n      dup2\n        /* \"contracts/PropiedadesERC721_flattened.sol\":54130:54171  ApprovalForAll(owner, operator, approved) */\n      0xffffffffffffffffffffffffffffffffffffffff\n      and\n        /* \"contracts/PropiedadesERC721_flattened.sol\":54145:54150  owner */\n      dup4\n        /* \"contracts/PropiedadesERC721_flattened.sol\":54130:54171  ApprovalForAll(owner, operator, approved) */\n      0xffffffffffffffffffffffffffffffffffffffff\n      and\n      0x17307eab39ab6107e8899845ad3d59bd9653f200f220920489ca2b5937696c31\n        /* \"contracts/PropiedadesERC721_flattened.sol\":54162:54170  approved */\n      dup4\n        /* \"contracts/PropiedadesERC721_flattened.sol\":54130:54171  ApprovalForAll(owner, operator, approved) */\n      mload(0x40)\n      tag_220\n      swap2\n      swap1\n      tag_29\n      jump\t// in\n    tag_220:\n      mload(0x40)\n      dup1\n      swap2\n      sub\n      swap1\n      log3\n        /* \"contracts/PropiedadesERC721_flattened.sol\":53866:54178  function _setApprovalForAll(address owner, address operator, bool approved) internal virtual {... */\n      pop\n      pop\n      pop\n      jump\t// out\n        /* \"contracts/PropiedadesERC721_flattened.sol\":55193:55975  function _checkOnERC721Received(address from, address to, uint256 tokenId, bytes memory data) private {... */\n    tag_163:\n        /* \"contracts/PropiedadesERC721_flattened.sol\":55326:55327  0 */\n      0x00\n        /* \"contracts/PropiedadesERC721_flattened.sol\":55309:55311  to */\n      dup4\n        /* \"contracts/PropiedadesERC721_flattened.sol\":55309:55323  to.code.length */\n      0xffffffffffffffffffffffffffffffffffffffff\n      and\n      extcodesize\n        /* \"contracts/PropiedadesERC721_flattened.sol\":55309:55327  to.code.length > 0 */\n      gt\n        /* \"contracts/PropiedadesERC721_flattened.sol\":55305:55969  if (to.code.length > 0) {... */\n      iszero\n      tag_222\n      jumpi\n        /* \"contracts/PropiedadesERC721_flattened.sol\":55363:55365  to */\n      dup3\n        /* \"contracts/PropiedadesERC721_flattened.sol\":55347:55383  IERC721Receiver(to).onERC721Received */\n      0xffffffffffffffffffffffffffffffffffffffff\n      and\n      0x150b7a02\n        /* \"contracts/PropiedadesERC721_flattened.sol\":55384:55396  _msgSender() */\n      tag_223\n        /* \"contracts/PropiedadesERC721_flattened.sol\":55384:55394  _msgSender */\n      tag_115\n        /* \"contracts/PropiedadesERC721_flattened.sol\":55384:55396  _msgSender() */\n      jump\t// in\n    tag_223:\n        /* \"contracts/PropiedadesERC721_flattened.sol\":55398:55402  from */\n      dup7\n        /* \"contracts/PropiedadesERC721_flattened.sol\":55404:55411  tokenId */\n      dup6\n        /* \"contracts/PropiedadesERC721_flattened.sol\":55413:55417  data */\n      dup6\n        /* \"contracts/PropiedadesERC721_flattened.sol\":55347:55418  IERC721Receiver(to).onERC721Received(_msgSender(), from, tokenId, data) */\n      mload(0x40)\n      dup6\n      0xffffffff\n      and\n      0xe0\n      shl\n      dup2\n      mstore\n      0x04\n      add\n      tag_224\n      swap5\n      swap4\n      swap3\n      swap2\n      swap1\n      tag_225\n      jump\t// in\n    tag_224:\n      0x20\n      mload(0x40)\n      dup1\n      dup4\n      sub\n      dup2\n      0x00\n      dup8\n      gas\n      call\n      swap3\n      pop\n      pop\n      pop\n      dup1\n      iszero\n      tag_226\n      jumpi\n      pop\n      mload(0x40)\n      returndatasize\n      not(0x1f)\n      0x1f\n      dup3\n      add\n      and\n      dup3\n      add\n      dup1\n      0x40\n      mstore\n      pop\n      dup2\n      add\n      swap1\n      tag_227\n      swap2\n      swap1\n      tag_228\n      jump\t// in\n    tag_227:\n      0x01\n    tag_226:\n        /* \"contracts/PropiedadesERC721_flattened.sol\":55343:55959  try IERC721Receiver(to).onERC721Received(_msgSender(), from, tokenId, data) returns (bytes4 retval) {... */\n      tag_229\n      jumpi\n      returndatasize\n      dup1\n      0x00\n      dup2\n      eq\n      tag_234\n      jumpi\n      mload(0x40)\n      swap2\n      pop\n      and(add(returndatasize, 0x3f), not(0x1f))\n      dup3\n      add\n      0x40\n      mstore\n      returndatasize\n      dup3\n      mstore\n      returndatasize\n      0x00\n      0x20\n      dup5\n      add\n      returndatacopy\n      jump(tag_233)\n    tag_234:\n      0x60\n      swap2\n      pop\n    tag_233:\n      pop\n        /* \"contracts/PropiedadesERC721_flattened.sol\":55673:55674  0 */\n      0x00\n        /* \"contracts/PropiedadesERC721_flattened.sol\":55656:55662  reason */\n      dup2\n        /* \"contracts/PropiedadesERC721_flattened.sol\":55656:55669  reason.length */\n      mload\n        /* \"contracts/PropiedadesERC721_flattened.sol\":55656:55674  reason.length == 0 */\n      sub\n        /* \"contracts/PropiedadesERC721_flattened.sol\":55652:55945  if (reason.length == 0) {... */\n      tag_235\n      jumpi\n        /* \"contracts/PropiedadesERC721_flattened.sol\":55727:55729  to */\n      dup4\n        /* \"contracts/PropiedadesERC721_flattened.sol\":55705:55730  ERC721InvalidReceiver(to) */\n      mload(0x40)\n      0x64a0ae9200000000000000000000000000000000000000000000000000000000\n      dup2\n      mstore\n      0x04\n      add\n      tag_236\n      swap2\n      swap1\n      tag_39\n      jump\t// in\n    tag_236:\n      mload(0x40)\n      dup1\n      swap2\n      sub\n      swap1\n      revert\n        /* \"contracts/PropiedadesERC721_flattened.sol\":55652:55945  if (reason.length == 0) {... */\n    tag_235:\n        /* \"contracts/PropiedadesERC721_flattened.sol\":55897:55903  reason */\n      dup1\n        /* \"contracts/PropiedadesERC721_flattened.sol\":55891:55904  mload(reason) */\n      mload\n        /* \"contracts/PropiedadesERC721_flattened.sol\":55882:55888  reason */\n      dup2\n        /* \"contracts/PropiedadesERC721_flattened.sol\":55878:55880  32 */\n      0x20\n        /* \"contracts/PropiedadesERC721_flattened.sol\":55874:55889  add(32, reason) */\n      add\n        /* \"contracts/PropiedadesERC721_flattened.sol\":55867:55905  revert(add(32, reason), mload(reason)) */\n      revert\n        /* \"contracts/PropiedadesERC721_flattened.sol\":55343:55959  try IERC721Receiver(to).onERC721Received(_msgSender(), from, tokenId, data) returns (bytes4 retval) {... */\n    tag_229:\n        /* \"contracts/PropiedadesERC721_flattened.sol\":55475:55516  IERC721Receiver.onERC721Received.selector */\n      shl(0xe0, 0x150b7a02)\n        /* \"contracts/PropiedadesERC721_flattened.sol\":55465:55516  retval != IERC721Receiver.onERC721Received.selector */\n      not(0xffffffffffffffffffffffffffffffffffffffffffffffffffffffff)\n      and\n        /* \"contracts/PropiedadesERC721_flattened.sol\":55465:55471  retval */\n      dup2\n        /* \"contracts/PropiedadesERC721_flattened.sol\":55465:55516  retval != IERC721Receiver.onERC721Received.selector */\n      not(0xffffffffffffffffffffffffffffffffffffffffffffffffffffffff)\n      and\n      eq\n        /* \"contracts/PropiedadesERC721_flattened.sol\":55461:55591  if (retval != IERC721Receiver.onERC721Received.selector) {... */\n      tag_239\n      jumpi\n        /* \"contracts/PropiedadesERC721_flattened.sol\":55569:55571  to */\n      dup4\n        /* \"contracts/PropiedadesERC721_flattened.sol\":55547:55572  ERC721InvalidReceiver(to) */\n      mload(0x40)\n      0x64a0ae9200000000000000000000000000000000000000000000000000000000\n      dup2\n      mstore\n      0x04\n      add\n      tag_240\n      swap2\n      swap1\n      tag_39\n      jump\t// in\n    tag_240:\n      mload(0x40)\n      dup1\n      swap2\n      sub\n      swap1\n      revert\n        /* \"contracts/PropiedadesERC721_flattened.sol\":55461:55591  if (retval != IERC721Receiver.onERC721Received.selector) {... */\n    tag_239:\n        /* \"contracts/PropiedadesERC721_flattened.sol\":55419:55605  returns (bytes4 retval) {... */\n      pop\n        /* \"contracts/PropiedadesERC721_flattened.sol\":55305:55969  if (to.code.length > 0) {... */\n    tag_222:\n        /* \"contracts/PropiedadesERC721_flattened.sol\":55193:55975  function _checkOnERC721Received(address from, address to, uint256 tokenId, bytes memory data) private {... */\n      pop\n      pop\n      pop\n      pop\n      jump\t// out\n        /* \"contracts/PropiedadesERC721_flattened.sol\":41449:41541  function _baseURI() internal view virtual returns (string memory) {... */\n    tag_167:\n        /* \"contracts/PropiedadesERC721_flattened.sol\":41500:41513  string memory */\n      0x60\n        /* \"contracts/PropiedadesERC721_flattened.sol\":41525:41534  return \"\" */\n      mload(0x40)\n      dup1\n      0x20\n      add\n      0x40\n      mstore\n      dup1\n      0x00\n      dup2\n      mstore\n      pop\n      swap1\n      pop\n        /* \"contracts/PropiedadesERC721_flattened.sol\":41449:41541  function _baseURI() internal view virtual returns (string memory) {... */\n      swap1\n      jump\t// out\n        /* \"contracts/PropiedadesERC721_flattened.sol\":23574:24272  function toString(uint256 value) internal pure returns (string memory) {... */\n    tag_171:\n        /* \"contracts/PropiedadesERC721_flattened.sol\":23630:23643  string memory */\n      0x60\n        /* \"contracts/PropiedadesERC721_flattened.sol\":23679:23693  uint256 length */\n      0x00\n        /* \"contracts/PropiedadesERC721_flattened.sol\":23716:23717  1 */\n      0x01\n        /* \"contracts/PropiedadesERC721_flattened.sol\":23696:23713  Math.log10(value) */\n      tag_243\n        /* \"contracts/PropiedadesERC721_flattened.sol\":23707:23712  value */\n      dup5\n        /* \"contracts/PropiedadesERC721_flattened.sol\":23696:23706  Math.log10 */\n      tag_244\n        /* \"contracts/PropiedadesERC721_flattened.sol\":23696:23713  Math.log10(value) */\n      jump\t// in\n    tag_243:\n        /* \"contracts/PropiedadesERC721_flattened.sol\":23696:23717  Math.log10(value) + 1 */\n      add\n        /* \"contracts/PropiedadesERC721_flattened.sol\":23679:23717  uint256 length = Math.log10(value) + 1 */\n      swap1\n      pop\n        /* \"contracts/PropiedadesERC721_flattened.sol\":23731:23751  string memory buffer */\n      0x00\n        /* \"contracts/PropiedadesERC721_flattened.sol\":23765:23771  length */\n      dup2\n        /* \"contracts/PropiedadesERC721_flattened.sol\":23754:23772  new string(length) */\n      0xffffffffffffffff\n      dup2\n      gt\n      iszero\n      tag_245\n      jumpi\n      tag_246\n      tag_247\n      jump\t// in\n    tag_246:\n    tag_245:\n      mload(0x40)\n      swap1\n      dup1\n      dup3\n      mstore\n      dup1\n      0x1f\n      add\n      not(0x1f)\n      and\n      0x20\n      add\n      dup3\n      add\n      0x40\n      mstore\n      dup1\n      iszero\n      tag_248\n      jumpi\n      dup2\n      0x20\n      add\n      0x01\n      dup3\n      mul\n      dup1\n      calldatasize\n      dup4\n      calldatacopy\n      dup1\n      dup3\n      add\n      swap2\n      pop\n      pop\n      swap1\n      pop\n    tag_248:\n      pop\n        /* \"contracts/PropiedadesERC721_flattened.sol\":23731:23772  string memory buffer = new string(length) */\n      swap1\n      pop\n        /* \"contracts/PropiedadesERC721_flattened.sol\":23786:23797  uint256 ptr */\n      0x00\n        /* \"contracts/PropiedadesERC721_flattened.sol\":23912:23918  length */\n      dup3\n        /* \"contracts/PropiedadesERC721_flattened.sol\":23908:23910  32 */\n      0x20\n        /* \"contracts/PropiedadesERC721_flattened.sol\":23904:23919  add(32, length) */\n      add\n        /* \"contracts/PropiedadesERC721_flattened.sol\":23896:23902  buffer */\n      dup3\n        /* \"contracts/PropiedadesERC721_flattened.sol\":23892:23920  add(buffer, add(32, length)) */\n      add\n        /* \"contracts/PropiedadesERC721_flattened.sol\":23885:23920  ptr := add(buffer, add(32, length)) */\n      swap1\n      pop\n        /* \"contracts/PropiedadesERC721_flattened.sol\":23947:24229  while (true) {... */\n    tag_249:\n        /* \"contracts/PropiedadesERC721_flattened.sol\":23954:23958  true */\n      0x01\n        /* \"contracts/PropiedadesERC721_flattened.sol\":23947:24229  while (true) {... */\n      iszero\n      tag_250\n      jumpi\n        /* \"contracts/PropiedadesERC721_flattened.sol\":23978:23983  ptr-- */\n      dup1\n      dup1\n      0x01\n      swap1\n      sub\n      swap2\n      pop\n      pop\n        /* \"contracts/PropiedadesERC721_flattened.sol\":24117:24127  HEX_DIGITS */\n      0x3031323334353637383961626364656600000000000000000000000000000000\n        /* \"contracts/PropiedadesERC721_flattened.sol\":24112:24114  10 */\n      0x0a\n        /* \"contracts/PropiedadesERC721_flattened.sol\":24105:24110  value */\n      dup7\n        /* \"contracts/PropiedadesERC721_flattened.sol\":24101:24115  mod(value, 10) */\n      mod\n        /* \"contracts/PropiedadesERC721_flattened.sol\":24096:24128  byte(mod(value, 10), HEX_DIGITS) */\n      byte\n        /* \"contracts/PropiedadesERC721_flattened.sol\":24091:24094  ptr */\n      dup2\n        /* \"contracts/PropiedadesERC721_flattened.sol\":24083:24129  mstore8(ptr, byte(mod(value, 10), HEX_DIGITS)) */\n      mstore8\n        /* \"contracts/PropiedadesERC721_flattened.sol\":24173:24175  10 */\n      0x0a\n        /* \"contracts/PropiedadesERC721_flattened.sol\":24164:24175  value /= 10 */\n      dup6\n      dup2\n      tag_251\n      jumpi\n      tag_252\n      tag_253\n      jump\t// in\n    tag_252:\n    tag_251:\n      div\n      swap5\n      pop\n        /* \"contracts/PropiedadesERC721_flattened.sol\":24206:24207  0 */\n      0x00\n        /* \"contracts/PropiedadesERC721_flattened.sol\":24197:24202  value */\n      dup6\n        /* \"contracts/PropiedadesERC721_flattened.sol\":24197:24207  value == 0 */\n      sub\n        /* \"contracts/PropiedadesERC721_flattened.sol\":23947:24229  while (true) {... */\n      tag_249\n        /* \"contracts/PropiedadesERC721_flattened.sol\":24193:24214  if (value == 0) break */\n      jumpi\n        /* \"contracts/PropiedadesERC721_flattened.sol\":23947:24229  while (true) {... */\n    tag_250:\n        /* \"contracts/PropiedadesERC721_flattened.sol\":24249:24255  buffer */\n      dup2\n        /* \"contracts/PropiedadesERC721_flattened.sol\":24242:24255  return buffer */\n      swap4\n      pop\n      pop\n      pop\n      pop\n        /* \"contracts/PropiedadesERC721_flattened.sol\":23574:24272  function toString(uint256 value) internal pure returns (string memory) {... */\n      swap2\n      swap1\n      pop\n      jump\t// out\n        /* \"contracts/PropiedadesERC721_flattened.sol\":43982:44097  function _ownerOf(uint256 tokenId) internal view virtual returns (address) {... */\n    tag_184:\n        /* \"contracts/PropiedadesERC721_flattened.sol\":44048:44055  address */\n      0x00\n        /* \"contracts/PropiedadesERC721_flattened.sol\":44074:44081  _owners */\n      0x02\n        /* \"contracts/PropiedadesERC721_flattened.sol\":44074:44090  _owners[tokenId] */\n      0x00\n        /* \"contracts/PropiedadesERC721_flattened.sol\":44082:44089  tokenId */\n      dup4\n        /* \"contracts/PropiedadesERC721_flattened.sol\":44074:44090  _owners[tokenId] */\n      dup2\n      mstore\n      0x20\n      add\n      swap1\n      dup2\n      mstore\n      0x20\n      add\n      0x00\n      keccak256\n      0x00\n      swap1\n      sload\n      swap1\n      0x0100\n      exp\n      swap1\n      div\n      0xffffffffffffffffffffffffffffffffffffffff\n      and\n        /* \"contracts/PropiedadesERC721_flattened.sol\":44067:44090  return _owners[tokenId] */\n      swap1\n      pop\n        /* \"contracts/PropiedadesERC721_flattened.sol\":43982:44097  function _ownerOf(uint256 tokenId) internal view virtual returns (address) {... */\n      swap2\n      swap1\n      pop\n      jump\t// out\n        /* \"contracts/PropiedadesERC721_flattened.sol\":52995:53657  function _approve(address to, uint256 tokenId, address auth, bool emitEvent) internal virtual {... */\n    tag_191:\n        /* \"contracts/PropiedadesERC721_flattened.sol\":53155:53164  emitEvent */\n      dup1\n        /* \"contracts/PropiedadesERC721_flattened.sol\":53155:53186  emitEvent || auth != address(0) */\n      dup1\n      tag_257\n      jumpi\n      pop\n        /* \"contracts/PropiedadesERC721_flattened.sol\":53184:53185  0 */\n      0x00\n        /* \"contracts/PropiedadesERC721_flattened.sol\":53168:53186  auth != address(0) */\n      0xffffffffffffffffffffffffffffffffffffffff\n      and\n        /* \"contracts/PropiedadesERC721_flattened.sol\":53168:53172  auth */\n      dup3\n        /* \"contracts/PropiedadesERC721_flattened.sol\":53168:53186  auth != address(0) */\n      0xffffffffffffffffffffffffffffffffffffffff\n      and\n      eq\n      iszero\n        /* \"contracts/PropiedadesERC721_flattened.sol\":53155:53186  emitEvent || auth != address(0) */\n    tag_257:\n        /* \"contracts/PropiedadesERC721_flattened.sol\":53151:53611  if (emitEvent || auth != address(0)) {... */\n      iszero\n      tag_258\n      jumpi\n        /* \"contracts/PropiedadesERC721_flattened.sol\":53202:53215  address owner */\n      0x00\n        /* \"contracts/PropiedadesERC721_flattened.sol\":53218:53240  _requireOwned(tokenId) */\n      tag_259\n        /* \"contracts/PropiedadesERC721_flattened.sol\":53232:53239  tokenId */\n      dup5\n        /* \"contracts/PropiedadesERC721_flattened.sol\":53218:53231  _requireOwned */\n      tag_109\n        /* \"contracts/PropiedadesERC721_flattened.sol\":53218:53240  _requireOwned(tokenId) */\n      jump\t// in\n    tag_259:\n        /* \"contracts/PropiedadesERC721_flattened.sol\":53202:53240  address owner = _requireOwned(tokenId) */\n      swap1\n      pop\n        /* \"contracts/PropiedadesERC721_flattened.sol\":53384:53385  0 */\n      0x00\n        /* \"contracts/PropiedadesERC721_flattened.sol\":53368:53386  auth != address(0) */\n      0xffffffffffffffffffffffffffffffffffffffff\n      and\n        /* \"contracts/PropiedadesERC721_flattened.sol\":53368:53372  auth */\n      dup4\n        /* \"contracts/PropiedadesERC721_flattened.sol\":53368:53386  auth != address(0) */\n      0xffffffffffffffffffffffffffffffffffffffff\n      and\n      eq\n      iszero\n        /* \"contracts/PropiedadesERC721_flattened.sol\":53368:53403  auth != address(0) && owner != auth */\n      dup1\n      iszero\n      tag_260\n      jumpi\n      pop\n        /* \"contracts/PropiedadesERC721_flattened.sol\":53399:53403  auth */\n      dup3\n        /* \"contracts/PropiedadesERC721_flattened.sol\":53390:53403  owner != auth */\n      0xffffffffffffffffffffffffffffffffffffffff\n      and\n        /* \"contracts/PropiedadesERC721_flattened.sol\":53390:53395  owner */\n      dup2\n        /* \"contracts/PropiedadesERC721_flattened.sol\":53390:53403  owner != auth */\n      0xffffffffffffffffffffffffffffffffffffffff\n      and\n      eq\n      iszero\n        /* \"contracts/PropiedadesERC721_flattened.sol\":53368:53403  auth != address(0) && owner != auth */\n    tag_260:\n        /* \"contracts/PropiedadesERC721_flattened.sol\":53368:53437  auth != address(0) && owner != auth && !isApprovedForAll(owner, auth) */\n      dup1\n      iszero\n      tag_261\n      jumpi\n      pop\n        /* \"contracts/PropiedadesERC721_flattened.sol\":53408:53437  isApprovedForAll(owner, auth) */\n      tag_262\n        /* \"contracts/PropiedadesERC721_flattened.sol\":53425:53430  owner */\n      dup2\n        /* \"contracts/PropiedadesERC721_flattened.sol\":53432:53436  auth */\n      dup5\n        /* \"contracts/PropiedadesERC721_flattened.sol\":53408:53424  isApprovedForAll */\n      tag_90\n        /* \"contracts/PropiedadesERC721_flattened.sol\":53408:53437  isApprovedForAll(owner, auth) */\n      jump\t// in\n    tag_262:\n        /* \"contracts/PropiedadesERC721_flattened.sol\":53407:53437  !isApprovedForAll(owner, auth) */\n      iszero\n        /* \"contracts/PropiedadesERC721_flattened.sol\":53368:53437  auth != address(0) && owner != auth && !isApprovedForAll(owner, auth) */\n    tag_261:\n        /* \"contracts/PropiedadesERC721_flattened.sol\":53364:53506  if (auth != address(0) && owner != auth && !isApprovedForAll(owner, auth)) {... */\n      iszero\n      tag_263\n      jumpi\n        /* \"contracts/PropiedadesERC721_flattened.sol\":53486:53490  auth */\n      dup3\n        /* \"contracts/PropiedadesERC721_flattened.sol\":53464:53491  ERC721InvalidApprover(auth) */\n      mload(0x40)\n      0xa9fbf51f00000000000000000000000000000000000000000000000000000000\n      dup2\n      mstore\n      0x04\n      add\n      tag_264\n      swap2\n      swap1\n      tag_39\n      jump\t// in\n    tag_264:\n      mload(0x40)\n      dup1\n      swap2\n      sub\n      swap1\n      revert\n        /* \"contracts/PropiedadesERC721_flattened.sol\":53364:53506  if (auth != address(0) && owner != auth && !isApprovedForAll(owner, auth)) {... */\n    tag_263:\n        /* \"contracts/PropiedadesERC721_flattened.sol\":53524:53533  emitEvent */\n      dup2\n        /* \"contracts/PropiedadesERC721_flattened.sol\":53520:53601  if (emitEvent) {... */\n      iszero\n      tag_265\n      jumpi\n        /* \"contracts/PropiedadesERC721_flattened.sol\":53578:53585  tokenId */\n      dup4\n        /* \"contracts/PropiedadesERC721_flattened.sol\":53574:53576  to */\n      dup6\n        /* \"contracts/PropiedadesERC721_flattened.sol\":53558:53586  Approval(owner, to, tokenId) */\n      0xffffffffffffffffffffffffffffffffffffffff\n      and\n        /* \"contracts/PropiedadesERC721_flattened.sol\":53567:53572  owner */\n      dup3\n        /* \"contracts/PropiedadesERC721_flattened.sol\":53558:53586  Approval(owner, to, tokenId) */\n      0xffffffffffffffffffffffffffffffffffffffff\n      and\n      0x8c5be1e5ebec7d5bd14f71427d1e84f3dd0314c0f7b2291e5b200ac8c7c3b925\n      mload(0x40)\n      mload(0x40)\n      dup1\n      swap2\n      sub\n      swap1\n      log4\n        /* \"contracts/PropiedadesERC721_flattened.sol\":53520:53601  if (emitEvent) {... */\n    tag_265:\n        /* \"contracts/PropiedadesERC721_flattened.sol\":53188:53611  {... */\n      pop\n        /* \"contracts/PropiedadesERC721_flattened.sol\":53151:53611  if (emitEvent || auth != address(0)) {... */\n    tag_258:\n        /* \"contracts/PropiedadesERC721_flattened.sol\":53648:53650  to */\n      dup4\n        /* \"contracts/PropiedadesERC721_flattened.sol\":53621:53636  _tokenApprovals */\n      0x04\n        /* \"contracts/PropiedadesERC721_flattened.sol\":53621:53645  _tokenApprovals[tokenId] */\n      0x00\n        /* \"contracts/PropiedadesERC721_flattened.sol\":53637:53644  tokenId */\n      dup6\n        /* \"contracts/PropiedadesERC721_flattened.sol\":53621:53645  _tokenApprovals[tokenId] */\n      dup2\n      mstore\n      0x20\n      add\n      swap1\n      dup2\n      mstore\n      0x20\n      add\n      0x00\n      keccak256\n      0x00\n        /* \"contracts/PropiedadesERC721_flattened.sol\":53621:53650  _tokenApprovals[tokenId] = to */\n      0x0100\n      exp\n      dup2\n      sload\n      dup2\n      0xffffffffffffffffffffffffffffffffffffffff\n      mul\n      not\n      and\n      swap1\n      dup4\n      0xffffffffffffffffffffffffffffffffffffffff\n      and\n      mul\n      or\n      swap1\n      sstore\n      pop\n        /* \"contracts/PropiedadesERC721_flattened.sol\":52995:53657  function _approve(address to, uint256 tokenId, address auth, bool emitEvent) internal virtual {... */\n      pop\n      pop\n      pop\n      pop\n      jump\t// out\n        /* \"contracts/PropiedadesERC721_flattened.sol\":45357:45725  function _checkAuthorized(address owner, address spender, uint256 tokenId) internal view virtual {... */\n    tag_196:\n        /* \"contracts/PropiedadesERC721_flattened.sol\":45469:45507  _isAuthorized(owner, spender, tokenId) */\n      tag_267\n        /* \"contracts/PropiedadesERC721_flattened.sol\":45483:45488  owner */\n      dup4\n        /* \"contracts/PropiedadesERC721_flattened.sol\":45490:45497  spender */\n      dup4\n        /* \"contracts/PropiedadesERC721_flattened.sol\":45499:45506  tokenId */\n      dup4\n        /* \"contracts/PropiedadesERC721_flattened.sol\":45469:45482  _isAuthorized */\n      tag_268\n        /* \"contracts/PropiedadesERC721_flattened.sol\":45469:45507  _isAuthorized(owner, spender, tokenId) */\n      jump\t// in\n    tag_267:\n        /* \"contracts/PropiedadesERC721_flattened.sol\":45464:45719  if (!_isAuthorized(owner, spender, tokenId)) {... */\n      tag_269\n      jumpi\n        /* \"contracts/PropiedadesERC721_flattened.sol\":45544:45545  0 */\n      0x00\n        /* \"contracts/PropiedadesERC721_flattened.sol\":45527:45546  owner == address(0) */\n      0xffffffffffffffffffffffffffffffffffffffff\n      and\n        /* \"contracts/PropiedadesERC721_flattened.sol\":45527:45532  owner */\n      dup4\n        /* \"contracts/PropiedadesERC721_flattened.sol\":45527:45546  owner == address(0) */\n      0xffffffffffffffffffffffffffffffffffffffff\n      and\n      sub\n        /* \"contracts/PropiedadesERC721_flattened.sol\":45523:45709  if (owner == address(0)) {... */\n      tag_270\n      jumpi\n        /* \"contracts/PropiedadesERC721_flattened.sol\":45596:45603  tokenId */\n      dup1\n        /* \"contracts/PropiedadesERC721_flattened.sol\":45573:45604  ERC721NonexistentToken(tokenId) */\n      mload(0x40)\n      0x7e27328900000000000000000000000000000000000000000000000000000000\n      dup2\n      mstore\n      0x04\n      add\n      tag_271\n      swap2\n      swap1\n      tag_66\n      jump\t// in\n    tag_271:\n      mload(0x40)\n      dup1\n      swap2\n      sub\n      swap1\n      revert\n        /* \"contracts/PropiedadesERC721_flattened.sol\":45523:45709  if (owner == address(0)) {... */\n    tag_270:\n        /* \"contracts/PropiedadesERC721_flattened.sol\":45677:45684  spender */\n      dup2\n        /* \"contracts/PropiedadesERC721_flattened.sol\":45686:45693  tokenId */\n      dup2\n        /* \"contracts/PropiedadesERC721_flattened.sol\":45650:45694  ERC721InsufficientApproval(spender, tokenId) */\n      mload(0x40)\n      0x177e802f00000000000000000000000000000000000000000000000000000000\n      dup2\n      mstore\n      0x04\n      add\n      tag_273\n      swap3\n      swap2\n      swap1\n      tag_274\n      jump\t// in\n    tag_273:\n      mload(0x40)\n      dup1\n      swap2\n      sub\n      swap1\n      revert\n        /* \"contracts/PropiedadesERC721_flattened.sol\":45464:45719  if (!_isAuthorized(owner, spender, tokenId)) {... */\n    tag_269:\n        /* \"contracts/PropiedadesERC721_flattened.sol\":45357:45725  function _checkAuthorized(address owner, address spender, uint256 tokenId) internal view virtual {... */\n      pop\n      pop\n      pop\n      jump\t// out\n        /* \"contracts/PropiedadesERC721_flattened.sol\":20098:21014  function log10(uint256 value) internal pure returns (uint256) {... */\n    tag_244:\n        /* \"contracts/PropiedadesERC721_flattened.sol\":20151:20158  uint256 */\n      0x00\n        /* \"contracts/PropiedadesERC721_flattened.sol\":20170:20184  uint256 result */\n      dup1\n        /* \"contracts/PropiedadesERC721_flattened.sol\":20187:20188  0 */\n      0x00\n        /* \"contracts/PropiedadesERC721_flattened.sol\":20170:20188  uint256 result = 0 */\n      swap1\n      pop\n        /* \"contracts/PropiedadesERC721_flattened.sol\":20235:20243  10 ** 64 */\n      0x184f03e93ff9f4daa797ed6e38ed64bf6a1f010000000000000000\n        /* \"contracts/PropiedadesERC721_flattened.sol\":20226:20231  value */\n      dup4\n        /* \"contracts/PropiedadesERC721_flattened.sol\":20226:20243  value >= 10 ** 64 */\n      lt\n        /* \"contracts/PropiedadesERC721_flattened.sol\":20222:20325  if (value >= 10 ** 64) {... */\n      tag_276\n      jumpi\n        /* \"contracts/PropiedadesERC721_flattened.sol\":20272:20280  10 ** 64 */\n      0x184f03e93ff9f4daa797ed6e38ed64bf6a1f010000000000000000\n        /* \"contracts/PropiedadesERC721_flattened.sol\":20263:20280  value /= 10 ** 64 */\n      dup4\n      dup2\n      tag_277\n      jumpi\n      tag_278\n      tag_253\n      jump\t// in\n    tag_278:\n    tag_277:\n      div\n      swap3\n      pop\n        /* \"contracts/PropiedadesERC721_flattened.sol\":20308:20310  64 */\n      0x40\n        /* \"contracts/PropiedadesERC721_flattened.sol\":20298:20310  result += 64 */\n      dup2\n      add\n      swap1\n      pop\n        /* \"contracts/PropiedadesERC721_flattened.sol\":20222:20325  if (value >= 10 ** 64) {... */\n    tag_276:\n        /* \"contracts/PropiedadesERC721_flattened.sol\":20351:20359  10 ** 32 */\n      0x04ee2d6d415b85acef8100000000\n        /* \"contracts/PropiedadesERC721_flattened.sol\":20342:20347  value */\n      dup4\n        /* \"contracts/PropiedadesERC721_flattened.sol\":20342:20359  value >= 10 ** 32 */\n      lt\n        /* \"contracts/PropiedadesERC721_flattened.sol\":20338:20441  if (value >= 10 ** 32) {... */\n      tag_279\n      jumpi\n        /* \"contracts/PropiedadesERC721_flattened.sol\":20388:20396  10 ** 32 */\n      0x04ee2d6d415b85acef8100000000\n        /* \"contracts/PropiedadesERC721_flattened.sol\":20379:20396  value /= 10 ** 32 */\n      dup4\n      dup2\n      tag_280\n      jumpi\n      tag_281\n      tag_253\n      jump\t// in\n    tag_281:\n    tag_280:\n      div\n      swap3\n      pop\n        /* \"contracts/PropiedadesERC721_flattened.sol\":20424:20426  32 */\n      0x20\n        /* \"contracts/PropiedadesERC721_flattened.sol\":20414:20426  result += 32 */\n      dup2\n      add\n      swap1\n      pop\n        /* \"contracts/PropiedadesERC721_flattened.sol\":20338:20441  if (value >= 10 ** 32) {... */\n    tag_279:\n        /* \"contracts/PropiedadesERC721_flattened.sol\":20467:20475  10 ** 16 */\n      0x2386f26fc10000\n        /* \"contracts/PropiedadesERC721_flattened.sol\":20458:20463  value */\n      dup4\n        /* \"contracts/PropiedadesERC721_flattened.sol\":20458:20475  value >= 10 ** 16 */\n      lt\n        /* \"contracts/PropiedadesERC721_flattened.sol\":20454:20557  if (value >= 10 ** 16) {... */\n      tag_282\n      jumpi\n        /* \"contracts/PropiedadesERC721_flattened.sol\":20504:20512  10 ** 16 */\n      0x2386f26fc10000\n        /* \"contracts/PropiedadesERC721_flattened.sol\":20495:20512  value /= 10 ** 16 */\n      dup4\n      dup2\n      tag_283\n      jumpi\n      tag_284\n      tag_253\n      jump\t// in\n    tag_284:\n    tag_283:\n      div\n      swap3\n      pop\n        /* \"contracts/PropiedadesERC721_flattened.sol\":20540:20542  16 */\n      0x10\n        /* \"contracts/PropiedadesERC721_flattened.sol\":20530:20542  result += 16 */\n      dup2\n      add\n      swap1\n      pop\n        /* \"contracts/PropiedadesERC721_flattened.sol\":20454:20557  if (value >= 10 ** 16) {... */\n    tag_282:\n        /* \"contracts/PropiedadesERC721_flattened.sol\":20583:20590  10 ** 8 */\n      0x05f5e100\n        /* \"contracts/PropiedadesERC721_flattened.sol\":20574:20579  value */\n      dup4\n        /* \"contracts/PropiedadesERC721_flattened.sol\":20574:20590  value >= 10 ** 8 */\n      lt\n        /* \"contracts/PropiedadesERC721_flattened.sol\":20570:20670  if (value >= 10 ** 8) {... */\n      tag_285\n      jumpi\n        /* \"contracts/PropiedadesERC721_flattened.sol\":20619:20626  10 ** 8 */\n      0x05f5e100\n        /* \"contracts/PropiedadesERC721_flattened.sol\":20610:20626  value /= 10 ** 8 */\n      dup4\n      dup2\n      tag_286\n      jumpi\n      tag_287\n      tag_253\n      jump\t// in\n    tag_287:\n    tag_286:\n      div\n      swap3\n      pop\n        /* \"contracts/PropiedadesERC721_flattened.sol\":20654:20655  8 */\n      0x08\n        /* \"contracts/PropiedadesERC721_flattened.sol\":20644:20655  result += 8 */\n      dup2\n      add\n      swap1\n      pop\n        /* \"contracts/PropiedadesERC721_flattened.sol\":20570:20670  if (value >= 10 ** 8) {... */\n    tag_285:\n        /* \"contracts/PropiedadesERC721_flattened.sol\":20696:20703  10 ** 4 */\n      0x2710\n        /* \"contracts/PropiedadesERC721_flattened.sol\":20687:20692  value */\n      dup4\n        /* \"contracts/PropiedadesERC721_flattened.sol\":20687:20703  value >= 10 ** 4 */\n      lt\n        /* \"contracts/PropiedadesERC721_flattened.sol\":20683:20783  if (value >= 10 ** 4) {... */\n      tag_288\n      jumpi\n        /* \"contracts/PropiedadesERC721_flattened.sol\":20732:20739  10 ** 4 */\n      0x2710\n        /* \"contracts/PropiedadesERC721_flattened.sol\":20723:20739  value /= 10 ** 4 */\n      dup4\n      dup2\n      tag_289\n      jumpi\n      tag_290\n      tag_253\n      jump\t// in\n    tag_290:\n    tag_289:\n      div\n      swap3\n      pop\n        /* \"contracts/PropiedadesERC721_flattened.sol\":20767:20768  4 */\n      0x04\n        /* \"contracts/PropiedadesERC721_flattened.sol\":20757:20768  result += 4 */\n      dup2\n      add\n      swap1\n      pop\n        /* \"contracts/PropiedadesERC721_flattened.sol\":20683:20783  if (value >= 10 ** 4) {... */\n    tag_288:\n        /* \"contracts/PropiedadesERC721_flattened.sol\":20809:20816  10 ** 2 */\n      0x64\n        /* \"contracts/PropiedadesERC721_flattened.sol\":20800:20805  value */\n      dup4\n        /* \"contracts/PropiedadesERC721_flattened.sol\":20800:20816  value >= 10 ** 2 */\n      lt\n        /* \"contracts/PropiedadesERC721_flattened.sol\":20796:20896  if (value >= 10 ** 2) {... */\n      tag_291\n      jumpi\n        /* \"contracts/PropiedadesERC721_flattened.sol\":20845:20852  10 ** 2 */\n      0x64\n        /* \"contracts/PropiedadesERC721_flattened.sol\":20836:20852  value /= 10 ** 2 */\n      dup4\n      dup2\n      tag_292\n      jumpi\n      tag_293\n      tag_253\n      jump\t// in\n    tag_293:\n    tag_292:\n      div\n      swap3\n      pop\n        /* \"contracts/PropiedadesERC721_flattened.sol\":20880:20881  2 */\n      0x02\n        /* \"contracts/PropiedadesERC721_flattened.sol\":20870:20881  result += 2 */\n      dup2\n      add\n      swap1\n      pop\n        /* \"contracts/PropiedadesERC721_flattened.sol\":20796:20896  if (value >= 10 ** 2) {... */\n    tag_291:\n        /* \"contracts/PropiedadesERC721_flattened.sol\":20922:20929  10 ** 1 */\n      0x0a\n        /* \"contracts/PropiedadesERC721_flattened.sol\":20913:20918  value */\n      dup4\n        /* \"contracts/PropiedadesERC721_flattened.sol\":20913:20929  value >= 10 ** 1 */\n      lt\n        /* \"contracts/PropiedadesERC721_flattened.sol\":20909:20975  if (value >= 10 ** 1) {... */\n      tag_294\n      jumpi\n        /* \"contracts/PropiedadesERC721_flattened.sol\":20959:20960  1 */\n      0x01\n        /* \"contracts/PropiedadesERC721_flattened.sol\":20949:20960  result += 1 */\n      dup2\n      add\n      swap1\n      pop\n        /* \"contracts/PropiedadesERC721_flattened.sol\":20909:20975  if (value >= 10 ** 1) {... */\n    tag_294:\n        /* \"contracts/PropiedadesERC721_flattened.sol\":21001:21007  result */\n      dup1\n        /* \"contracts/PropiedadesERC721_flattened.sol\":20994:21007  return result */\n      swap2\n      pop\n      pop\n        /* \"contracts/PropiedadesERC721_flattened.sol\":20098:21014  function log10(uint256 value) internal pure returns (uint256) {... */\n      swap2\n      swap1\n      pop\n      jump\t// out\n        /* \"contracts/PropiedadesERC721_flattened.sol\":44651:44923  function _isAuthorized(address owner, address spender, uint256 tokenId) internal view virtual returns (bool) {... */\n    tag_268:\n        /* \"contracts/PropiedadesERC721_flattened.sol\":44754:44758  bool */\n      0x00\n        /* \"contracts/PropiedadesERC721_flattened.sol\":44808:44809  0 */\n      dup1\n        /* \"contracts/PropiedadesERC721_flattened.sol\":44789:44810  spender != address(0) */\n      0xffffffffffffffffffffffffffffffffffffffff\n      and\n        /* \"contracts/PropiedadesERC721_flattened.sol\":44789:44796  spender */\n      dup4\n        /* \"contracts/PropiedadesERC721_flattened.sol\":44789:44810  spender != address(0) */\n      0xffffffffffffffffffffffffffffffffffffffff\n      and\n      eq\n      iszero\n        /* \"contracts/PropiedadesERC721_flattened.sol\":44789:44916  spender != address(0) &&... */\n      dup1\n      iszero\n      tag_296\n      jumpi\n      pop\n        /* \"contracts/PropiedadesERC721_flattened.sol\":44836:44843  spender */\n      dup3\n        /* \"contracts/PropiedadesERC721_flattened.sol\":44827:44843  owner == spender */\n      0xffffffffffffffffffffffffffffffffffffffff\n      and\n        /* \"contracts/PropiedadesERC721_flattened.sol\":44827:44832  owner */\n      dup5\n        /* \"contracts/PropiedadesERC721_flattened.sol\":44827:44843  owner == spender */\n      0xffffffffffffffffffffffffffffffffffffffff\n      and\n      eq\n        /* \"contracts/PropiedadesERC721_flattened.sol\":44827:44879  owner == spender || isApprovedForAll(owner, spender) */\n      dup1\n      tag_297\n      jumpi\n      pop\n        /* \"contracts/PropiedadesERC721_flattened.sol\":44847:44879  isApprovedForAll(owner, spender) */\n      tag_298\n        /* \"contracts/PropiedadesERC721_flattened.sol\":44864:44869  owner */\n      dup5\n        /* \"contracts/PropiedadesERC721_flattened.sol\":44871:44878  spender */\n      dup5\n        /* \"contracts/PropiedadesERC721_flattened.sol\":44847:44863  isApprovedForAll */\n      tag_90\n        /* \"contracts/PropiedadesERC721_flattened.sol\":44847:44879  isApprovedForAll(owner, spender) */\n      jump\t// in\n    tag_298:\n        /* \"contracts/PropiedadesERC721_flattened.sol\":44827:44879  owner == spender || isApprovedForAll(owner, spender) */\n    tag_297:\n        /* \"contracts/PropiedadesERC721_flattened.sol\":44827:44915  owner == spender || isApprovedForAll(owner, spender) || _getApproved(tokenId) == spender */\n      dup1\n      tag_299\n      jumpi\n      pop\n        /* \"contracts/PropiedadesERC721_flattened.sol\":44908:44915  spender */\n      dup3\n        /* \"contracts/PropiedadesERC721_flattened.sol\":44883:44915  _getApproved(tokenId) == spender */\n      0xffffffffffffffffffffffffffffffffffffffff\n      and\n        /* \"contracts/PropiedadesERC721_flattened.sol\":44883:44904  _getApproved(tokenId) */\n      tag_300\n        /* \"contracts/PropiedadesERC721_flattened.sol\":44896:44903  tokenId */\n      dup4\n        /* \"contracts/PropiedadesERC721_flattened.sol\":44883:44895  _getApproved */\n      tag_111\n        /* \"contracts/PropiedadesERC721_flattened.sol\":44883:44904  _getApproved(tokenId) */\n      jump\t// in\n    tag_300:\n        /* \"contracts/PropiedadesERC721_flattened.sol\":44883:44915  _getApproved(tokenId) == spender */\n      0xffffffffffffffffffffffffffffffffffffffff\n      and\n      eq\n        /* \"contracts/PropiedadesERC721_flattened.sol\":44827:44915  owner == spender || isApprovedForAll(owner, spender) || _getApproved(tokenId) == spender */\n    tag_299:\n        /* \"contracts/PropiedadesERC721_flattened.sol\":44789:44916  spender != address(0) &&... */\n    tag_296:\n        /* \"contracts/PropiedadesERC721_flattened.sol\":44770:44916  return... */\n      swap1\n      pop\n        /* \"contracts/PropiedadesERC721_flattened.sol\":44651:44923  function _isAuthorized(address owner, address spender, uint256 tokenId) internal view virtual returns (bool) {... */\n      swap4\n      swap3\n      pop\n      pop\n      pop\n      jump\t// out\n        /* \"#utility.yul\":7:82   */\n    tag_301:\n        /* \"#utility.yul\":40:46   */\n      0x00\n        /* \"#utility.yul\":73:75   */\n      0x40\n        /* \"#utility.yul\":67:76   */\n      mload\n        /* \"#utility.yul\":57:76   */\n      swap1\n      pop\n        /* \"#utility.yul\":7:82   */\n      swap1\n      jump\t// out\n        /* \"#utility.yul\":88:205   */\n    tag_302:\n        /* \"#utility.yul\":197:198   */\n      0x00\n        /* \"#utility.yul\":194:195   */\n      dup1\n        /* \"#utility.yul\":187:199   */\n      revert\n        /* \"#utility.yul\":211:328   */\n    tag_303:\n        /* \"#utility.yul\":320:321   */\n      0x00\n        /* \"#utility.yul\":317:318   */\n      dup1\n        /* \"#utility.yul\":310:322   */\n      revert\n        /* \"#utility.yul\":334:483   */\n    tag_304:\n        /* \"#utility.yul\":370:377   */\n      0x00\n        /* \"#utility.yul\":410:476   */\n      0xffffffff00000000000000000000000000000000000000000000000000000000\n        /* \"#utility.yul\":403:408   */\n      dup3\n        /* \"#utility.yul\":399:477   */\n      and\n        /* \"#utility.yul\":388:477   */\n      swap1\n      pop\n        /* \"#utility.yul\":334:483   */\n      swap2\n      swap1\n      pop\n      jump\t// out\n        /* \"#utility.yul\":489:609   */\n    tag_305:\n        /* \"#utility.yul\":561:584   */\n      tag_346\n        /* \"#utility.yul\":578:583   */\n      dup2\n        /* \"#utility.yul\":561:584   */\n      tag_304\n      jump\t// in\n    tag_346:\n        /* \"#utility.yul\":554:559   */\n      dup2\n        /* \"#utility.yul\":551:585   */\n      eq\n        /* \"#utility.yul\":541:603   */\n      tag_347\n      jumpi\n        /* \"#utility.yul\":599:600   */\n      0x00\n        /* \"#utility.yul\":596:597   */\n      dup1\n        /* \"#utility.yul\":589:601   */\n      revert\n        /* \"#utility.yul\":541:603   */\n    tag_347:\n        /* \"#utility.yul\":489:609   */\n      pop\n      jump\t// out\n        /* \"#utility.yul\":615:752   */\n    tag_306:\n        /* \"#utility.yul\":660:665   */\n      0x00\n        /* \"#utility.yul\":698:704   */\n      dup2\n        /* \"#utility.yul\":685:705   */\n      calldataload\n        /* \"#utility.yul\":676:705   */\n      swap1\n      pop\n        /* \"#utility.yul\":714:746   */\n      tag_349\n        /* \"#utility.yul\":740:745   */\n      dup2\n        /* \"#utility.yul\":714:746   */\n      tag_305\n      jump\t// in\n    tag_349:\n        /* \"#utility.yul\":615:752   */\n      swap3\n      swap2\n      pop\n      pop\n      jump\t// out\n        /* \"#utility.yul\":758:1085   */\n    tag_26:\n        /* \"#utility.yul\":816:822   */\n      0x00\n        /* \"#utility.yul\":865:867   */\n      0x20\n        /* \"#utility.yul\":853:862   */\n      dup3\n        /* \"#utility.yul\":844:851   */\n      dup5\n        /* \"#utility.yul\":840:863   */\n      sub\n        /* \"#utility.yul\":836:868   */\n      slt\n        /* \"#utility.yul\":833:952   */\n      iszero\n      tag_351\n      jumpi\n        /* \"#utility.yul\":871:950   */\n      tag_352\n      tag_302\n      jump\t// in\n    tag_352:\n        /* \"#utility.yul\":833:952   */\n    tag_351:\n        /* \"#utility.yul\":991:992   */\n      0x00\n        /* \"#utility.yul\":1016:1068   */\n      tag_353\n        /* \"#utility.yul\":1060:1067   */\n      dup5\n        /* \"#utility.yul\":1051:1057   */\n      dup3\n        /* \"#utility.yul\":1040:1049   */\n      dup6\n        /* \"#utility.yul\":1036:1058   */\n      add\n        /* \"#utility.yul\":1016:1068   */\n      tag_306\n      jump\t// in\n    tag_353:\n        /* \"#utility.yul\":1006:1068   */\n      swap2\n      pop\n        /* \"#utility.yul\":962:1078   */\n      pop\n        /* \"#utility.yul\":758:1085   */\n      swap3\n      swap2\n      pop\n      pop\n      jump\t// out\n        /* \"#utility.yul\":1091:1181   */\n    tag_307:\n        /* \"#utility.yul\":1125:1132   */\n      0x00\n        /* \"#utility.yul\":1168:1173   */\n      dup2\n        /* \"#utility.yul\":1161:1174   */\n      iszero\n        /* \"#utility.yul\":1154:1175   */\n      iszero\n        /* \"#utility.yul\":1143:1175   */\n      swap1\n      pop\n        /* \"#utility.yul\":1091:1181   */\n      swap2\n      swap1\n      pop\n      jump\t// out\n        /* \"#utility.yul\":1187:1296   */\n    tag_308:\n        /* \"#utility.yul\":1268:1289   */\n      tag_356\n        /* \"#utility.yul\":1283:1288   */\n      dup2\n        /* \"#utility.yul\":1268:1289   */\n      tag_307\n      jump\t// in\n    tag_356:\n        /* \"#utility.yul\":1263:1266   */\n      dup3\n        /* \"#utility.yul\":1256:1290   */\n      mstore\n        /* \"#utility.yul\":1187:1296   */\n      pop\n      pop\n      jump\t// out\n        /* \"#utility.yul\":1302:1512   */\n    tag_29:\n        /* \"#utility.yul\":1389:1393   */\n      0x00\n        /* \"#utility.yul\":1427:1429   */\n      0x20\n        /* \"#utility.yul\":1416:1425   */\n      dup3\n        /* \"#utility.yul\":1412:1430   */\n      add\n        /* \"#utility.yul\":1404:1430   */\n      swap1\n      pop\n        /* \"#utility.yul\":1440:1505   */\n      tag_358\n        /* \"#utility.yul\":1502:1503   */\n      0x00\n        /* \"#utility.yul\":1491:1500   */\n      dup4\n        /* \"#utility.yul\":1487:1504   */\n      add\n        /* \"#utility.yul\":1478:1484   */\n      dup5\n        /* \"#utility.yul\":1440:1505   */\n      tag_308\n      jump\t// in\n    tag_358:\n        /* \"#utility.yul\":1302:1512   */\n      swap3\n      swap2\n      pop\n      pop\n      jump\t// out\n        /* \"#utility.yul\":1518:1617   */\n    tag_309:\n        /* \"#utility.yul\":1570:1576   */\n      0x00\n        /* \"#utility.yul\":1604:1609   */\n      dup2\n        /* \"#utility.yul\":1598:1610   */\n      mload\n        /* \"#utility.yul\":1588:1610   */\n      swap1\n      pop\n        /* \"#utility.yul\":1518:1617   */\n      swap2\n      swap1\n      pop\n      jump\t// out\n        /* \"#utility.yul\":1623:1792   */\n    tag_310:\n        /* \"#utility.yul\":1707:1718   */\n      0x00\n        /* \"#utility.yul\":1741:1747   */\n      dup3\n        /* \"#utility.yul\":1736:1739   */\n      dup3\n        /* \"#utility.yul\":1729:1748   */\n      mstore\n        /* \"#utility.yul\":1781:1785   */\n      0x20\n        /* \"#utility.yul\":1776:1779   */\n      dup3\n        /* \"#utility.yul\":1772:1786   */\n      add\n        /* \"#utility.yul\":1757:1786   */\n      swap1\n      pop\n        /* \"#utility.yul\":1623:1792   */\n      swap3\n      swap2\n      pop\n      pop\n      jump\t// out\n        /* \"#utility.yul\":1798:1937   */\n    tag_311:\n        /* \"#utility.yul\":1887:1893   */\n      dup3\n        /* \"#utility.yul\":1882:1885   */\n      dup2\n        /* \"#utility.yul\":1877:1880   */\n      dup4\n        /* \"#utility.yul\":1871:1894   */\n      mcopy\n        /* \"#utility.yul\":1928:1929   */\n      0x00\n        /* \"#utility.yul\":1919:1925   */\n      dup4\n        /* \"#utility.yul\":1914:1917   */\n      dup4\n        /* \"#utility.yul\":1910:1926   */\n      add\n        /* \"#utility.yul\":1903:1930   */\n      mstore\n        /* \"#utility.yul\":1798:1937   */\n      pop\n      pop\n      pop\n      jump\t// out\n        /* \"#utility.yul\":1943:2045   */\n    tag_312:\n        /* \"#utility.yul\":1984:1990   */\n      0x00\n        /* \"#utility.yul\":2035:2037   */\n      0x1f\n        /* \"#utility.yul\":2031:2038   */\n      not\n        /* \"#utility.yul\":2026:2028   */\n      0x1f\n        /* \"#utility.yul\":2019:2024   */\n      dup4\n        /* \"#utility.yul\":2015:2029   */\n      add\n        /* \"#utility.yul\":2011:2039   */\n      and\n        /* \"#utility.yul\":2001:2039   */\n      swap1\n      pop\n        /* \"#utility.yul\":1943:2045   */\n      swap2\n      swap1\n      pop\n      jump\t// out\n        /* \"#utility.yul\":2051:2428   */\n    tag_313:\n        /* \"#utility.yul\":2139:2142   */\n      0x00\n        /* \"#utility.yul\":2167:2206   */\n      tag_364\n        /* \"#utility.yul\":2200:2205   */\n      dup3\n        /* \"#utility.yul\":2167:2206   */\n      tag_309\n      jump\t// in\n    tag_364:\n        /* \"#utility.yul\":2222:2293   */\n      tag_365\n        /* \"#utility.yul\":2286:2292   */\n      dup2\n        /* \"#utility.yul\":2281:2284   */\n      dup6\n        /* \"#utility.yul\":2222:2293   */\n      tag_310\n      jump\t// in\n    tag_365:\n        /* \"#utility.yul\":2215:2293   */\n      swap4\n      pop\n        /* \"#utility.yul\":2302:2367   */\n      tag_366\n        /* \"#utility.yul\":2360:2366   */\n      dup2\n        /* \"#utility.yul\":2355:2358   */\n      dup6\n        /* \"#utility.yul\":2348:2352   */\n      0x20\n        /* \"#utility.yul\":2341:2346   */\n      dup7\n        /* \"#utility.yul\":2337:2353   */\n      add\n        /* \"#utility.yul\":2302:2367   */\n      tag_311\n      jump\t// in\n    tag_366:\n        /* \"#utility.yul\":2392:2421   */\n      tag_367\n        /* \"#utility.yul\":2414:2420   */\n      dup2\n        /* \"#utility.yul\":2392:2421   */\n      tag_312\n      jump\t// in\n    tag_367:\n        /* \"#utility.yul\":2387:2390   */\n      dup5\n        /* \"#utility.yul\":2383:2422   */\n      add\n        /* \"#utility.yul\":2376:2422   */\n      swap2\n      pop\n        /* \"#utility.yul\":2143:2428   */\n      pop\n        /* \"#utility.yul\":2051:2428   */\n      swap3\n      swap2\n      pop\n      pop\n      jump\t// out\n        /* \"#utility.yul\":2434:2747   */\n    tag_33:\n        /* \"#utility.yul\":2547:2551   */\n      0x00\n        /* \"#utility.yul\":2585:2587   */\n      0x20\n        /* \"#utility.yul\":2574:2583   */\n      dup3\n        /* \"#utility.yul\":2570:2588   */\n      add\n        /* \"#utility.yul\":2562:2588   */\n      swap1\n      pop\n        /* \"#utility.yul\":2634:2643   */\n      dup2\n        /* \"#utility.yul\":2628:2632   */\n      dup2\n        /* \"#utility.yul\":2624:2644   */\n      sub\n        /* \"#utility.yul\":2620:2621   */\n      0x00\n        /* \"#utility.yul\":2609:2618   */\n      dup4\n        /* \"#utility.yul\":2605:2622   */\n      add\n        /* \"#utility.yul\":2598:2645   */\n      mstore\n        /* \"#utility.yul\":2662:2740   */\n      tag_369\n        /* \"#utility.yul\":2735:2739   */\n      dup2\n        /* \"#utility.yul\":2726:2732   */\n      dup5\n        /* \"#utility.yul\":2662:2740   */\n      tag_313\n      jump\t// in\n    tag_369:\n        /* \"#utility.yul\":2654:2740   */\n      swap1\n      pop\n        /* \"#utility.yul\":2434:2747   */\n      swap3\n      swap2\n      pop\n      pop\n      jump\t// out\n        /* \"#utility.yul\":2753:2830   */\n    tag_314:\n        /* \"#utility.yul\":2790:2797   */\n      0x00\n        /* \"#utility.yul\":2819:2824   */\n      dup2\n        /* \"#utility.yul\":2808:2824   */\n      swap1\n      pop\n        /* \"#utility.yul\":2753:2830   */\n      swap2\n      swap1\n      pop\n      jump\t// out\n        /* \"#utility.yul\":2836:2958   */\n    tag_315:\n        /* \"#utility.yul\":2909:2933   */\n      tag_372\n        /* \"#utility.yul\":2927:2932   */\n      dup2\n        /* \"#utility.yul\":2909:2933   */\n      tag_314\n      jump\t// in\n    tag_372:\n        /* \"#utility.yul\":2902:2907   */\n      dup2\n        /* \"#utility.yul\":2899:2934   */\n      eq\n        /* \"#utility.yul\":2889:2952   */\n      tag_373\n      jumpi\n        /* \"#utility.yul\":2948:2949   */\n      0x00\n        /* \"#utility.yul\":2945:2946   */\n      dup1\n        /* \"#utility.yul\":2938:2950   */\n      revert\n        /* \"#utility.yul\":2889:2952   */\n    tag_373:\n        /* \"#utility.yul\":2836:2958   */\n      pop\n      jump\t// out\n        /* \"#utility.yul\":2964:3103   */\n    tag_316:\n        /* \"#utility.yul\":3010:3015   */\n      0x00\n        /* \"#utility.yul\":3048:3054   */\n      dup2\n        /* \"#utility.yul\":3035:3055   */\n      calldataload\n        /* \"#utility.yul\":3026:3055   */\n      swap1\n      pop\n        /* \"#utility.yul\":3064:3097   */\n      tag_375\n        /* \"#utility.yul\":3091:3096   */\n      dup2\n        /* \"#utility.yul\":3064:3097   */\n      tag_315\n      jump\t// in\n    tag_375:\n        /* \"#utility.yul\":2964:3103   */\n      swap3\n      swap2\n      pop\n      pop\n      jump\t// out\n        /* \"#utility.yul\":3109:3438   */\n    tag_36:\n        /* \"#utility.yul\":3168:3174   */\n      0x00\n        /* \"#utility.yul\":3217:3219   */\n      0x20\n        /* \"#utility.yul\":3205:3214   */\n      dup3\n        /* \"#utility.yul\":3196:3203   */\n      dup5\n        /* \"#utility.yul\":3192:3215   */\n      sub\n        /* \"#utility.yul\":3188:3220   */\n      slt\n        /* \"#utility.yul\":3185:3304   */\n      iszero\n      tag_377\n      jumpi\n        /* \"#utility.yul\":3223:3302   */\n      tag_378\n      tag_302\n      jump\t// in\n    tag_378:\n        /* \"#utility.yul\":3185:3304   */\n    tag_377:\n        /* \"#utility.yul\":3343:3344   */\n      0x00\n        /* \"#utility.yul\":3368:3421   */\n      tag_379\n        /* \"#utility.yul\":3413:3420   */\n      dup5\n        /* \"#utility.yul\":3404:3410   */\n      dup3\n        /* \"#utility.yul\":3393:3402   */\n      dup6\n        /* \"#utility.yul\":3389:3411   */\n      add\n        /* \"#utility.yul\":3368:3421   */\n      tag_316\n      jump\t// in\n    tag_379:\n        /* \"#utility.yul\":3358:3421   */\n      swap2\n      pop\n        /* \"#utility.yul\":3314:3431   */\n      pop\n        /* \"#utility.yul\":3109:3438   */\n      swap3\n      swap2\n      pop\n      pop\n      jump\t// out\n        /* \"#utility.yul\":3444:3570   */\n    tag_317:\n        /* \"#utility.yul\":3481:3488   */\n      0x00\n        /* \"#utility.yul\":3521:3563   */\n      0xffffffffffffffffffffffffffffffffffffffff\n        /* \"#utility.yul\":3514:3519   */\n      dup3\n        /* \"#utility.yul\":3510:3564   */\n      and\n        /* \"#utility.yul\":3499:3564   */\n      swap1\n      pop\n        /* \"#utility.yul\":3444:3570   */\n      swap2\n      swap1\n      pop\n      jump\t// out\n        /* \"#utility.yul\":3576:3672   */\n    tag_318:\n        /* \"#utility.yul\":3613:3620   */\n      0x00\n        /* \"#utility.yul\":3642:3666   */\n      tag_382\n        /* \"#utility.yul\":3660:3665   */\n      dup3\n        /* \"#utility.yul\":3642:3666   */\n      tag_317\n      jump\t// in\n    tag_382:\n        /* \"#utility.yul\":3631:3666   */\n      swap1\n      pop\n        /* \"#utility.yul\":3576:3672   */\n      swap2\n      swap1\n      pop\n      jump\t// out\n        /* \"#utility.yul\":3678:3796   */\n    tag_319:\n        /* \"#utility.yul\":3765:3789   */\n      tag_384\n        /* \"#utility.yul\":3783:3788   */\n      dup2\n        /* \"#utility.yul\":3765:3789   */\n      tag_318\n      jump\t// in\n    tag_384:\n        /* \"#utility.yul\":3760:3763   */\n      dup3\n        /* \"#utility.yul\":3753:3790   */\n      mstore\n        /* \"#utility.yul\":3678:3796   */\n      pop\n      pop\n      jump\t// out\n        /* \"#utility.yul\":3802:4024   */\n    tag_39:\n        /* \"#utility.yul\":3895:3899   */\n      0x00\n        /* \"#utility.yul\":3933:3935   */\n      0x20\n        /* \"#utility.yul\":3922:3931   */\n      dup3\n        /* \"#utility.yul\":3918:3936   */\n      add\n        /* \"#utility.yul\":3910:3936   */\n      swap1\n      pop\n        /* \"#utility.yul\":3946:4017   */\n      tag_386\n        /* \"#utility.yul\":4014:4015   */\n      0x00\n        /* \"#utility.yul\":4003:4012   */\n      dup4\n        /* \"#utility.yul\":3999:4016   */\n      add\n        /* \"#utility.yul\":3990:3996   */\n      dup5\n        /* \"#utility.yul\":3946:4017   */\n      tag_319\n      jump\t// in\n    tag_386:\n        /* \"#utility.yul\":3802:4024   */\n      swap3\n      swap2\n      pop\n      pop\n      jump\t// out\n        /* \"#utility.yul\":4030:4152   */\n    tag_320:\n        /* \"#utility.yul\":4103:4127   */\n      tag_388\n        /* \"#utility.yul\":4121:4126   */\n      dup2\n        /* \"#utility.yul\":4103:4127   */\n      tag_318\n      jump\t// in\n    tag_388:\n        /* \"#utility.yul\":4096:4101   */\n      dup2\n        /* \"#utility.yul\":4093:4128   */\n      eq\n        /* \"#utility.yul\":4083:4146   */\n      tag_389\n      jumpi\n        /* \"#utility.yul\":4142:4143   */\n      0x00\n        /* \"#utility.yul\":4139:4140   */\n      dup1\n        /* \"#utility.yul\":4132:4144   */\n      revert\n        /* \"#utility.yul\":4083:4146   */\n    tag_389:\n        /* \"#utility.yul\":4030:4152   */\n      pop\n      jump\t// out\n        /* \"#utility.yul\":4158:4297   */\n    tag_321:\n        /* \"#utility.yul\":4204:4209   */\n      0x00\n        /* \"#utility.yul\":4242:4248   */\n      dup2\n        /* \"#utility.yul\":4229:4249   */\n      calldataload\n        /* \"#utility.yul\":4220:4249   */\n      swap1\n      pop\n        /* \"#utility.yul\":4258:4291   */\n      tag_391\n        /* \"#utility.yul\":4285:4290   */\n      dup2\n        /* \"#utility.yul\":4258:4291   */\n      tag_320\n      jump\t// in\n    tag_391:\n        /* \"#utility.yul\":4158:4297   */\n      swap3\n      swap2\n      pop\n      pop\n      jump\t// out\n        /* \"#utility.yul\":4303:4777   */\n    tag_42:\n        /* \"#utility.yul\":4371:4377   */\n      0x00\n        /* \"#utility.yul\":4379:4385   */\n      dup1\n        /* \"#utility.yul\":4428:4430   */\n      0x40\n        /* \"#utility.yul\":4416:4425   */\n      dup4\n        /* \"#utility.yul\":4407:4414   */\n      dup6\n        /* \"#utility.yul\":4403:4426   */\n      sub\n        /* \"#utility.yul\":4399:4431   */\n      slt\n        /* \"#utility.yul\":4396:4515   */\n      iszero\n      tag_393\n      jumpi\n        /* \"#utility.yul\":4434:4513   */\n      tag_394\n      tag_302\n      jump\t// in\n    tag_394:\n        /* \"#utility.yul\":4396:4515   */\n    tag_393:\n        /* \"#utility.yul\":4554:4555   */\n      0x00\n        /* \"#utility.yul\":4579:4632   */\n      tag_395\n        /* \"#utility.yul\":4624:4631   */\n      dup6\n        /* \"#utility.yul\":4615:4621   */\n      dup3\n        /* \"#utility.yul\":4604:4613   */\n      dup7\n        /* \"#utility.yul\":4600:4622   */\n      add\n        /* \"#utility.yul\":4579:4632   */\n      tag_321\n      jump\t// in\n    tag_395:\n        /* \"#utility.yul\":4569:4632   */\n      swap3\n      pop\n        /* \"#utility.yul\":4525:4642   */\n      pop\n        /* \"#utility.yul\":4681:4683   */\n      0x20\n        /* \"#utility.yul\":4707:4760   */\n      tag_396\n        /* \"#utility.yul\":4752:4759   */\n      dup6\n        /* \"#utility.yul\":4743:4749   */\n      dup3\n        /* \"#utility.yul\":4732:4741   */\n      dup7\n        /* \"#utility.yul\":4728:4750   */\n      add\n        /* \"#utility.yul\":4707:4760   */\n      tag_316\n      jump\t// in\n    tag_396:\n        /* \"#utility.yul\":4697:4760   */\n      swap2\n      pop\n        /* \"#utility.yul\":4652:4770   */\n      pop\n        /* \"#utility.yul\":4303:4777   */\n      swap3\n      pop\n      swap3\n      swap1\n      pop\n      jump\t// out\n        /* \"#utility.yul\":4783:5402   */\n    tag_46:\n        /* \"#utility.yul\":4860:4866   */\n      0x00\n        /* \"#utility.yul\":4868:4874   */\n      dup1\n        /* \"#utility.yul\":4876:4882   */\n      0x00\n        /* \"#utility.yul\":4925:4927   */\n      0x60\n        /* \"#utility.yul\":4913:4922   */\n      dup5\n        /* \"#utility.yul\":4904:4911   */\n      dup7\n        /* \"#utility.yul\":4900:4923   */\n      sub\n        /* \"#utility.yul\":4896:4928   */\n      slt\n        /* \"#utility.yul\":4893:5012   */\n      iszero\n      tag_398\n      jumpi\n        /* \"#utility.yul\":4931:5010   */\n      tag_399\n      tag_302\n      jump\t// in\n    tag_399:\n        /* \"#utility.yul\":4893:5012   */\n    tag_398:\n        /* \"#utility.yul\":5051:5052   */\n      0x00\n        /* \"#utility.yul\":5076:5129   */\n      tag_400\n        /* \"#utility.yul\":5121:5128   */\n      dup7\n        /* \"#utility.yul\":5112:5118   */\n      dup3\n        /* \"#utility.yul\":5101:5110   */\n      dup8\n        /* \"#utility.yul\":5097:5119   */\n      add\n        /* \"#utility.yul\":5076:5129   */\n      tag_321\n      jump\t// in\n    tag_400:\n        /* \"#utility.yul\":5066:5129   */\n      swap4\n      pop\n        /* \"#utility.yul\":5022:5139   */\n      pop\n        /* \"#utility.yul\":5178:5180   */\n      0x20\n        /* \"#utility.yul\":5204:5257   */\n      tag_401\n        /* \"#utility.yul\":5249:5256   */\n      dup7\n        /* \"#utility.yul\":5240:5246   */\n      dup3\n        /* \"#utility.yul\":5229:5238   */\n      dup8\n        /* \"#utility.yul\":5225:5247   */\n      add\n        /* \"#utility.yul\":5204:5257   */\n      tag_321\n      jump\t// in\n    tag_401:\n        /* \"#utility.yul\":5194:5257   */\n      swap3\n      pop\n        /* \"#utility.yul\":5149:5267   */\n      pop\n        /* \"#utility.yul\":5306:5308   */\n      0x40\n        /* \"#utility.yul\":5332:5385   */\n      tag_402\n        /* \"#utility.yul\":5377:5384   */\n      dup7\n        /* \"#utility.yul\":5368:5374   */\n      dup3\n        /* \"#utility.yul\":5357:5366   */\n      dup8\n        /* \"#utility.yul\":5353:5375   */\n      add\n        /* \"#utility.yul\":5332:5385   */\n      tag_316\n      jump\t// in\n    tag_402:\n        /* \"#utility.yul\":5322:5385   */\n      swap2\n      pop\n        /* \"#utility.yul\":5277:5395   */\n      pop\n        /* \"#utility.yul\":4783:5402   */\n      swap3\n      pop\n      swap3\n      pop\n      swap3\n      jump\t// out\n        /* \"#utility.yul\":5408:5737   */\n    tag_63:\n        /* \"#utility.yul\":5467:5473   */\n      0x00\n        /* \"#utility.yul\":5516:5518   */\n      0x20\n        /* \"#utility.yul\":5504:5513   */\n      dup3\n        /* \"#utility.yul\":5495:5502   */\n      dup5\n        /* \"#utility.yul\":5491:5514   */\n      sub\n        /* \"#utility.yul\":5487:5519   */\n      slt\n        /* \"#utility.yul\":5484:5603   */\n      iszero\n      tag_404\n      jumpi\n        /* \"#utility.yul\":5522:5601   */\n      tag_405\n      tag_302\n      jump\t// in\n    tag_405:\n        /* \"#utility.yul\":5484:5603   */\n    tag_404:\n        /* \"#utility.yul\":5642:5643   */\n      0x00\n        /* \"#utility.yul\":5667:5720   */\n      tag_406\n        /* \"#utility.yul\":5712:5719   */\n      dup5\n        /* \"#utility.yul\":5703:5709   */\n      dup3\n        /* \"#utility.yul\":5692:5701   */\n      dup6\n        /* \"#utility.yul\":5688:5710   */\n      add\n        /* \"#utility.yul\":5667:5720   */\n      tag_321\n      jump\t// in\n    tag_406:\n        /* \"#utility.yul\":5657:5720   */\n      swap2\n      pop\n        /* \"#utility.yul\":5613:5730   */\n      pop\n        /* \"#utility.yul\":5408:5737   */\n      swap3\n      swap2\n      pop\n      pop\n      jump\t// out\n        /* \"#utility.yul\":5743:5861   */\n    tag_322:\n        /* \"#utility.yul\":5830:5854   */\n      tag_408\n        /* \"#utility.yul\":5848:5853   */\n      dup2\n        /* \"#utility.yul\":5830:5854   */\n      tag_314\n      jump\t// in\n    tag_408:\n        /* \"#utility.yul\":5825:5828   */\n      dup3\n        /* \"#utility.yul\":5818:5855   */\n      mstore\n        /* \"#utility.yul\":5743:5861   */\n      pop\n      pop\n      jump\t// out\n        /* \"#utility.yul\":5867:6089   */\n    tag_66:\n        /* \"#utility.yul\":5960:5964   */\n      0x00\n        /* \"#utility.yul\":5998:6000   */\n      0x20\n        /* \"#utility.yul\":5987:5996   */\n      dup3\n        /* \"#utility.yul\":5983:6001   */\n      add\n        /* \"#utility.yul\":5975:6001   */\n      swap1\n      pop\n        /* \"#utility.yul\":6011:6082   */\n      tag_410\n        /* \"#utility.yul\":6079:6080   */\n      0x00\n        /* \"#utility.yul\":6068:6077   */\n      dup4\n        /* \"#utility.yul\":6064:6081   */\n      add\n        /* \"#utility.yul\":6055:6061   */\n      dup5\n        /* \"#utility.yul\":6011:6082   */\n      tag_322\n      jump\t// in\n    tag_410:\n        /* \"#utility.yul\":5867:6089   */\n      swap3\n      swap2\n      pop\n      pop\n      jump\t// out\n        /* \"#utility.yul\":6095:6211   */\n    tag_323:\n        /* \"#utility.yul\":6165:6186   */\n      tag_412\n        /* \"#utility.yul\":6180:6185   */\n      dup2\n        /* \"#utility.yul\":6165:6186   */\n      tag_307\n      jump\t// in\n    tag_412:\n        /* \"#utility.yul\":6158:6163   */\n      dup2\n        /* \"#utility.yul\":6155:6187   */\n      eq\n        /* \"#utility.yul\":6145:6205   */\n      tag_413\n      jumpi\n        /* \"#utility.yul\":6201:6202   */\n      0x00\n        /* \"#utility.yul\":6198:6199   */\n      dup1\n        /* \"#utility.yul\":6191:6203   */\n      revert\n        /* \"#utility.yul\":6145:6205   */\n    tag_413:\n        /* \"#utility.yul\":6095:6211   */\n      pop\n      jump\t// out\n        /* \"#utility.yul\":6217:6350   */\n    tag_324:\n        /* \"#utility.yul\":6260:6265   */\n      0x00\n        /* \"#utility.yul\":6298:6304   */\n      dup2\n        /* \"#utility.yul\":6285:6305   */\n      calldataload\n        /* \"#utility.yul\":6276:6305   */\n      swap1\n      pop\n        /* \"#utility.yul\":6314:6344   */\n      tag_415\n        /* \"#utility.yul\":6338:6343   */\n      dup2\n        /* \"#utility.yul\":6314:6344   */\n      tag_323\n      jump\t// in\n    tag_415:\n        /* \"#utility.yul\":6217:6350   */\n      swap3\n      swap2\n      pop\n      pop\n      jump\t// out\n        /* \"#utility.yul\":6356:6824   */\n    tag_77:\n        /* \"#utility.yul\":6421:6427   */\n      0x00\n        /* \"#utility.yul\":6429:6435   */\n      dup1\n        /* \"#utility.yul\":6478:6480   */\n      0x40\n        /* \"#utility.yul\":6466:6475   */\n      dup4\n        /* \"#utility.yul\":6457:6464   */\n      dup6\n        /* \"#utility.yul\":6453:6476   */\n      sub\n        /* \"#utility.yul\":6449:6481   */\n      slt\n        /* \"#utility.yul\":6446:6565   */\n      iszero\n      tag_417\n      jumpi\n        /* \"#utility.yul\":6484:6563   */\n      tag_418\n      tag_302\n      jump\t// in\n    tag_418:\n        /* \"#utility.yul\":6446:6565   */\n    tag_417:\n        /* \"#utility.yul\":6604:6605   */\n      0x00\n        /* \"#utility.yul\":6629:6682   */\n      tag_419\n        /* \"#utility.yul\":6674:6681   */\n      dup6\n        /* \"#utility.yul\":6665:6671   */\n      dup3\n        /* \"#utility.yul\":6654:6663   */\n      dup7\n        /* \"#utility.yul\":6650:6672   */\n      add\n        /* \"#utility.yul\":6629:6682   */\n      tag_321\n      jump\t// in\n    tag_419:\n        /* \"#utility.yul\":6619:6682   */\n      swap3\n      pop\n        /* \"#utility.yul\":6575:6692   */\n      pop\n        /* \"#utility.yul\":6731:6733   */\n      0x20\n        /* \"#utility.yul\":6757:6807   */\n      tag_420\n        /* \"#utility.yul\":6799:6806   */\n      dup6\n        /* \"#utility.yul\":6790:6796   */\n      dup3\n        /* \"#utility.yul\":6779:6788   */\n      dup7\n        /* \"#utility.yul\":6775:6797   */\n      add\n        /* \"#utility.yul\":6757:6807   */\n      tag_324\n      jump\t// in\n    tag_420:\n        /* \"#utility.yul\":6747:6807   */\n      swap2\n      pop\n        /* \"#utility.yul\":6702:6817   */\n      pop\n        /* \"#utility.yul\":6356:6824   */\n      swap3\n      pop\n      swap3\n      swap1\n      pop\n      jump\t// out\n        /* \"#utility.yul\":6830:6947   */\n    tag_325:\n        /* \"#utility.yul\":6939:6940   */\n      0x00\n        /* \"#utility.yul\":6936:6937   */\n      dup1\n        /* \"#utility.yul\":6929:6941   */\n      revert\n        /* \"#utility.yul\":6953:7070   */\n    tag_326:\n        /* \"#utility.yul\":7062:7063   */\n      0x00\n        /* \"#utility.yul\":7059:7060   */\n      dup1\n        /* \"#utility.yul\":7052:7064   */\n      revert\n        /* \"#utility.yul\":7076:7256   */\n    tag_247:\n        /* \"#utility.yul\":7124:7201   */\n      0x4e487b7100000000000000000000000000000000000000000000000000000000\n        /* \"#utility.yul\":7121:7122   */\n      0x00\n        /* \"#utility.yul\":7114:7202   */\n      mstore\n        /* \"#utility.yul\":7221:7225   */\n      0x41\n        /* \"#utility.yul\":7218:7219   */\n      0x04\n        /* \"#utility.yul\":7211:7226   */\n      mstore\n        /* \"#utility.yul\":7245:7249   */\n      0x24\n        /* \"#utility.yul\":7242:7243   */\n      0x00\n        /* \"#utility.yul\":7235:7250   */\n      revert\n        /* \"#utility.yul\":7262:7543   */\n    tag_327:\n        /* \"#utility.yul\":7345:7372   */\n      tag_425\n        /* \"#utility.yul\":7367:7371   */\n      dup3\n        /* \"#utility.yul\":7345:7372   */\n      tag_312\n      jump\t// in\n    tag_425:\n        /* \"#utility.yul\":7337:7343   */\n      dup2\n        /* \"#utility.yul\":7333:7373   */\n      add\n        /* \"#utility.yul\":7475:7481   */\n      dup2\n        /* \"#utility.yul\":7463:7473   */\n      dup2\n        /* \"#utility.yul\":7460:7482   */\n      lt\n        /* \"#utility.yul\":7439:7457   */\n      0xffffffffffffffff\n        /* \"#utility.yul\":7427:7437   */\n      dup3\n        /* \"#utility.yul\":7424:7458   */\n      gt\n        /* \"#utility.yul\":7421:7483   */\n      or\n        /* \"#utility.yul\":7418:7506   */\n      iszero\n      tag_426\n      jumpi\n        /* \"#utility.yul\":7486:7504   */\n      tag_427\n      tag_247\n      jump\t// in\n    tag_427:\n        /* \"#utility.yul\":7418:7506   */\n    tag_426:\n        /* \"#utility.yul\":7526:7536   */\n      dup1\n        /* \"#utility.yul\":7522:7524   */\n      0x40\n        /* \"#utility.yul\":7515:7537   */\n      mstore\n        /* \"#utility.yul\":7305:7543   */\n      pop\n        /* \"#utility.yul\":7262:7543   */\n      pop\n      pop\n      jump\t// out\n        /* \"#utility.yul\":7549:7678   */\n    tag_328:\n        /* \"#utility.yul\":7583:7589   */\n      0x00\n        /* \"#utility.yul\":7610:7630   */\n      tag_429\n      tag_301\n      jump\t// in\n    tag_429:\n        /* \"#utility.yul\":7600:7630   */\n      swap1\n      pop\n        /* \"#utility.yul\":7639:7672   */\n      tag_430\n        /* \"#utility.yul\":7667:7671   */\n      dup3\n        /* \"#utility.yul\":7659:7665   */\n      dup3\n        /* \"#utility.yul\":7639:7672   */\n      tag_327\n      jump\t// in\n    tag_430:\n        /* \"#utility.yul\":7549:7678   */\n      swap2\n      swap1\n      pop\n      jump\t// out\n        /* \"#utility.yul\":7684:7991   */\n    tag_329:\n        /* \"#utility.yul\":7745:7749   */\n      0x00\n        /* \"#utility.yul\":7835:7853   */\n      0xffffffffffffffff\n        /* \"#utility.yul\":7827:7833   */\n      dup3\n        /* \"#utility.yul\":7824:7854   */\n      gt\n        /* \"#utility.yul\":7821:7877   */\n      iszero\n      tag_432\n      jumpi\n        /* \"#utility.yul\":7857:7875   */\n      tag_433\n      tag_247\n      jump\t// in\n    tag_433:\n        /* \"#utility.yul\":7821:7877   */\n    tag_432:\n        /* \"#utility.yul\":7895:7924   */\n      tag_434\n        /* \"#utility.yul\":7917:7923   */\n      dup3\n        /* \"#utility.yul\":7895:7924   */\n      tag_312\n      jump\t// in\n    tag_434:\n        /* \"#utility.yul\":7887:7924   */\n      swap1\n      pop\n        /* \"#utility.yul\":7979:7983   */\n      0x20\n        /* \"#utility.yul\":7973:7977   */\n      dup2\n        /* \"#utility.yul\":7969:7984   */\n      add\n        /* \"#utility.yul\":7961:7984   */\n      swap1\n      pop\n        /* \"#utility.yul\":7684:7991   */\n      swap2\n      swap1\n      pop\n      jump\t// out\n        /* \"#utility.yul\":7997:8145   */\n    tag_330:\n        /* \"#utility.yul\":8095:8101   */\n      dup3\n        /* \"#utility.yul\":8090:8093   */\n      dup2\n        /* \"#utility.yul\":8085:8088   */\n      dup4\n        /* \"#utility.yul\":8072:8102   */\n      calldatacopy\n        /* \"#utility.yul\":8136:8137   */\n      0x00\n        /* \"#utility.yul\":8127:8133   */\n      dup4\n        /* \"#utility.yul\":8122:8125   */\n      dup4\n        /* \"#utility.yul\":8118:8134   */\n      add\n        /* \"#utility.yul\":8111:8138   */\n      mstore\n        /* \"#utility.yul\":7997:8145   */\n      pop\n      pop\n      pop\n      jump\t// out\n        /* \"#utility.yul\":8151:8574   */\n    tag_331:\n        /* \"#utility.yul\":8228:8233   */\n      0x00\n        /* \"#utility.yul\":8253:8318   */\n      tag_437\n        /* \"#utility.yul\":8269:8317   */\n      tag_438\n        /* \"#utility.yul\":8310:8316   */\n      dup5\n        /* \"#utility.yul\":8269:8317   */\n      tag_329\n      jump\t// in\n    tag_438:\n        /* \"#utility.yul\":8253:8318   */\n      tag_328\n      jump\t// in\n    tag_437:\n        /* \"#utility.yul\":8244:8318   */\n      swap1\n      pop\n        /* \"#utility.yul\":8341:8347   */\n      dup3\n        /* \"#utility.yul\":8334:8339   */\n      dup2\n        /* \"#utility.yul\":8327:8348   */\n      mstore\n        /* \"#utility.yul\":8379:8383   */\n      0x20\n        /* \"#utility.yul\":8372:8377   */\n      dup2\n        /* \"#utility.yul\":8368:8384   */\n      add\n        /* \"#utility.yul\":8417:8420   */\n      dup5\n        /* \"#utility.yul\":8408:8414   */\n      dup5\n        /* \"#utility.yul\":8403:8406   */\n      dup5\n        /* \"#utility.yul\":8399:8415   */\n      add\n        /* \"#utility.yul\":8396:8421   */\n      gt\n        /* \"#utility.yul\":8393:8505   */\n      iszero\n      tag_439\n      jumpi\n        /* \"#utility.yul\":8424:8503   */\n      tag_440\n      tag_326\n      jump\t// in\n    tag_440:\n        /* \"#utility.yul\":8393:8505   */\n    tag_439:\n        /* \"#utility.yul\":8514:8568   */\n      tag_441\n        /* \"#utility.yul\":8561:8567   */\n      dup5\n        /* \"#utility.yul\":8556:8559   */\n      dup3\n        /* \"#utility.yul\":8551:8554   */\n      dup6\n        /* \"#utility.yul\":8514:8568   */\n      tag_330\n      jump\t// in\n    tag_441:\n        /* \"#utility.yul\":8234:8574   */\n      pop\n        /* \"#utility.yul\":8151:8574   */\n      swap4\n      swap3\n      pop\n      pop\n      pop\n      jump\t// out\n        /* \"#utility.yul\":8593:8931   */\n    tag_332:\n        /* \"#utility.yul\":8648:8653   */\n      0x00\n        /* \"#utility.yul\":8697:8700   */\n      dup3\n        /* \"#utility.yul\":8690:8694   */\n      0x1f\n        /* \"#utility.yul\":8682:8688   */\n      dup4\n        /* \"#utility.yul\":8678:8695   */\n      add\n        /* \"#utility.yul\":8674:8701   */\n      slt\n        /* \"#utility.yul\":8664:8786   */\n      tag_443\n      jumpi\n        /* \"#utility.yul\":8705:8784   */\n      tag_444\n      tag_325\n      jump\t// in\n    tag_444:\n        /* \"#utility.yul\":8664:8786   */\n    tag_443:\n        /* \"#utility.yul\":8822:8828   */\n      dup2\n        /* \"#utility.yul\":8809:8829   */\n      calldataload\n        /* \"#utility.yul\":8847:8925   */\n      tag_445\n        /* \"#utility.yul\":8921:8924   */\n      dup5\n        /* \"#utility.yul\":8913:8919   */\n      dup3\n        /* \"#utility.yul\":8906:8910   */\n      0x20\n        /* \"#utility.yul\":8898:8904   */\n      dup7\n        /* \"#utility.yul\":8894:8911   */\n      add\n        /* \"#utility.yul\":8847:8925   */\n      tag_331\n      jump\t// in\n    tag_445:\n        /* \"#utility.yul\":8838:8925   */\n      swap2\n      pop\n        /* \"#utility.yul\":8654:8931   */\n      pop\n        /* \"#utility.yul\":8593:8931   */\n      swap3\n      swap2\n      pop\n      pop\n      jump\t// out\n        /* \"#utility.yul\":8937:9880   */\n    tag_81:\n        /* \"#utility.yul\":9032:9038   */\n      0x00\n        /* \"#utility.yul\":9040:9046   */\n      dup1\n        /* \"#utility.yul\":9048:9054   */\n      0x00\n        /* \"#utility.yul\":9056:9062   */\n      dup1\n        /* \"#utility.yul\":9105:9108   */\n      0x80\n        /* \"#utility.yul\":9093:9102   */\n      dup6\n        /* \"#utility.yul\":9084:9091   */\n      dup8\n        /* \"#utility.yul\":9080:9103   */\n      sub\n        /* \"#utility.yul\":9076:9109   */\n      slt\n        /* \"#utility.yul\":9073:9193   */\n      iszero\n      tag_447\n      jumpi\n        /* \"#utility.yul\":9112:9191   */\n      tag_448\n      tag_302\n      jump\t// in\n    tag_448:\n        /* \"#utility.yul\":9073:9193   */\n    tag_447:\n        /* \"#utility.yul\":9232:9233   */\n      0x00\n        /* \"#utility.yul\":9257:9310   */\n      tag_449\n        /* \"#utility.yul\":9302:9309   */\n      dup8\n        /* \"#utility.yul\":9293:9299   */\n      dup3\n        /* \"#utility.yul\":9282:9291   */\n      dup9\n        /* \"#utility.yul\":9278:9300   */\n      add\n        /* \"#utility.yul\":9257:9310   */\n      tag_321\n      jump\t// in\n    tag_449:\n        /* \"#utility.yul\":9247:9310   */\n      swap5\n      pop\n        /* \"#utility.yul\":9203:9320   */\n      pop\n        /* \"#utility.yul\":9359:9361   */\n      0x20\n        /* \"#utility.yul\":9385:9438   */\n      tag_450\n        /* \"#utility.yul\":9430:9437   */\n      dup8\n        /* \"#utility.yul\":9421:9427   */\n      dup3\n        /* \"#utility.yul\":9410:9419   */\n      dup9\n        /* \"#utility.yul\":9406:9428   */\n      add\n        /* \"#utility.yul\":9385:9438   */\n      tag_321\n      jump\t// in\n    tag_450:\n        /* \"#utility.yul\":9375:9438   */\n      swap4\n      pop\n        /* \"#utility.yul\":9330:9448   */\n      pop\n        /* \"#utility.yul\":9487:9489   */\n      0x40\n        /* \"#utility.yul\":9513:9566   */\n      tag_451\n        /* \"#utility.yul\":9558:9565   */\n      dup8\n        /* \"#utility.yul\":9549:9555   */\n      dup3\n        /* \"#utility.yul\":9538:9547   */\n      dup9\n        /* \"#utility.yul\":9534:9556   */\n      add\n        /* \"#utility.yul\":9513:9566   */\n      tag_316\n      jump\t// in\n    tag_451:\n        /* \"#utility.yul\":9503:9566   */\n      swap3\n      pop\n        /* \"#utility.yul\":9458:9576   */\n      pop\n        /* \"#utility.yul\":9643:9645   */\n      0x60\n        /* \"#utility.yul\":9632:9641   */\n      dup6\n        /* \"#utility.yul\":9628:9646   */\n      add\n        /* \"#utility.yul\":9615:9647   */\n      calldataload\n        /* \"#utility.yul\":9674:9692   */\n      0xffffffffffffffff\n        /* \"#utility.yul\":9666:9672   */\n      dup2\n        /* \"#utility.yul\":9663:9693   */\n      gt\n        /* \"#utility.yul\":9660:9777   */\n      iszero\n      tag_452\n      jumpi\n        /* \"#utility.yul\":9696:9775   */\n      tag_453\n      tag_303\n      jump\t// in\n    tag_453:\n        /* \"#utility.yul\":9660:9777   */\n    tag_452:\n        /* \"#utility.yul\":9801:9863   */\n      tag_454\n        /* \"#utility.yul\":9855:9862   */\n      dup8\n        /* \"#utility.yul\":9846:9852   */\n      dup3\n        /* \"#utility.yul\":9835:9844   */\n      dup9\n        /* \"#utility.yul\":9831:9853   */\n      add\n        /* \"#utility.yul\":9801:9863   */\n      tag_332\n      jump\t// in\n    tag_454:\n        /* \"#utility.yul\":9791:9863   */\n      swap2\n      pop\n        /* \"#utility.yul\":9586:9873   */\n      pop\n        /* \"#utility.yul\":8937:9880   */\n      swap3\n      swap6\n      swap2\n      swap5\n      pop\n      swap3\n      pop\n      jump\t// out\n        /* \"#utility.yul\":9886:10360   */\n    tag_89:\n        /* \"#utility.yul\":9954:9960   */\n      0x00\n        /* \"#utility.yul\":9962:9968   */\n      dup1\n        /* \"#utility.yul\":10011:10013   */\n      0x40\n        /* \"#utility.yul\":9999:10008   */\n      dup4\n        /* \"#utility.yul\":9990:9997   */\n      dup6\n        /* \"#utility.yul\":9986:10009   */\n      sub\n        /* \"#utility.yul\":9982:10014   */\n      slt\n        /* \"#utility.yul\":9979:10098   */\n      iszero\n      tag_456\n      jumpi\n        /* \"#utility.yul\":10017:10096   */\n      tag_457\n      tag_302\n      jump\t// in\n    tag_457:\n        /* \"#utility.yul\":9979:10098   */\n    tag_456:\n        /* \"#utility.yul\":10137:10138   */\n      0x00\n        /* \"#utility.yul\":10162:10215   */\n      tag_458\n        /* \"#utility.yul\":10207:10214   */\n      dup6\n        /* \"#utility.yul\":10198:10204   */\n      dup3\n        /* \"#utility.yul\":10187:10196   */\n      dup7\n        /* \"#utility.yul\":10183:10205   */\n      add\n        /* \"#utility.yul\":10162:10215   */\n      tag_321\n      jump\t// in\n    tag_458:\n        /* \"#utility.yul\":10152:10215   */\n      swap3\n      pop\n        /* \"#utility.yul\":10108:10225   */\n      pop\n        /* \"#utility.yul\":10264:10266   */\n      0x20\n        /* \"#utility.yul\":10290:10343   */\n      tag_459\n        /* \"#utility.yul\":10335:10342   */\n      dup6\n        /* \"#utility.yul\":10326:10332   */\n      dup3\n        /* \"#utility.yul\":10315:10324   */\n      dup7\n        /* \"#utility.yul\":10311:10333   */\n      add\n        /* \"#utility.yul\":10290:10343   */\n      tag_321\n      jump\t// in\n    tag_459:\n        /* \"#utility.yul\":10280:10343   */\n      swap2\n      pop\n        /* \"#utility.yul\":10235:10353   */\n      pop\n        /* \"#utility.yul\":9886:10360   */\n      swap3\n      pop\n      swap3\n      swap1\n      pop\n      jump\t// out\n        /* \"#utility.yul\":10366:10546   */\n    tag_333:\n        /* \"#utility.yul\":10414:10491   */\n      0x4e487b7100000000000000000000000000000000000000000000000000000000\n        /* \"#utility.yul\":10411:10412   */\n      0x00\n        /* \"#utility.yul\":10404:10492   */\n      mstore\n        /* \"#utility.yul\":10511:10515   */\n      0x22\n        /* \"#utility.yul\":10508:10509   */\n      0x04\n        /* \"#utility.yul\":10501:10516   */\n      mstore\n        /* \"#utility.yul\":10535:10539   */\n      0x24\n        /* \"#utility.yul\":10532:10533   */\n      0x00\n        /* \"#utility.yul\":10525:10540   */\n      revert\n        /* \"#utility.yul\":10552:10872   */\n    tag_102:\n        /* \"#utility.yul\":10596:10602   */\n      0x00\n        /* \"#utility.yul\":10633:10634   */\n      0x02\n        /* \"#utility.yul\":10627:10631   */\n      dup3\n        /* \"#utility.yul\":10623:10635   */\n      div\n        /* \"#utility.yul\":10613:10635   */\n      swap1\n      pop\n        /* \"#utility.yul\":10680:10681   */\n      0x01\n        /* \"#utility.yul\":10674:10678   */\n      dup3\n        /* \"#utility.yul\":10670:10682   */\n      and\n        /* \"#utility.yul\":10701:10719   */\n      dup1\n        /* \"#utility.yul\":10691:10772   */\n      tag_462\n      jumpi\n        /* \"#utility.yul\":10757:10761   */\n      0x7f\n        /* \"#utility.yul\":10749:10755   */\n      dup3\n        /* \"#utility.yul\":10745:10762   */\n      and\n        /* \"#utility.yul\":10735:10762   */\n      swap2\n      pop\n        /* \"#utility.yul\":10691:10772   */\n    tag_462:\n        /* \"#utility.yul\":10819:10821   */\n      0x20\n        /* \"#utility.yul\":10811:10817   */\n      dup3\n        /* \"#utility.yul\":10808:10822   */\n      lt\n        /* \"#utility.yul\":10788:10806   */\n      dup2\n        /* \"#utility.yul\":10785:10823   */\n      sub\n        /* \"#utility.yul\":10782:10866   */\n      tag_463\n      jumpi\n        /* \"#utility.yul\":10838:10856   */\n      tag_464\n      tag_333\n      jump\t// in\n    tag_464:\n        /* \"#utility.yul\":10782:10866   */\n    tag_463:\n        /* \"#utility.yul\":10603:10872   */\n      pop\n        /* \"#utility.yul\":10552:10872   */\n      swap2\n      swap1\n      pop\n      jump\t// out\n        /* \"#utility.yul\":10878:11320   */\n    tag_125:\n        /* \"#utility.yul\":11027:11031   */\n      0x00\n        /* \"#utility.yul\":11065:11067   */\n      0x60\n        /* \"#utility.yul\":11054:11063   */\n      dup3\n        /* \"#utility.yul\":11050:11068   */\n      add\n        /* \"#utility.yul\":11042:11068   */\n      swap1\n      pop\n        /* \"#utility.yul\":11078:11149   */\n      tag_466\n        /* \"#utility.yul\":11146:11147   */\n      0x00\n        /* \"#utility.yul\":11135:11144   */\n      dup4\n        /* \"#utility.yul\":11131:11148   */\n      add\n        /* \"#utility.yul\":11122:11128   */\n      dup7\n        /* \"#utility.yul\":11078:11149   */\n      tag_319\n      jump\t// in\n    tag_466:\n        /* \"#utility.yul\":11159:11231   */\n      tag_467\n        /* \"#utility.yul\":11227:11229   */\n      0x20\n        /* \"#utility.yul\":11216:11225   */\n      dup4\n        /* \"#utility.yul\":11212:11230   */\n      add\n        /* \"#utility.yul\":11203:11209   */\n      dup6\n        /* \"#utility.yul\":11159:11231   */\n      tag_322\n      jump\t// in\n    tag_467:\n        /* \"#utility.yul\":11241:11313   */\n      tag_468\n        /* \"#utility.yul\":11309:11311   */\n      0x40\n        /* \"#utility.yul\":11298:11307   */\n      dup4\n        /* \"#utility.yul\":11294:11312   */\n      add\n        /* \"#utility.yul\":11285:11291   */\n      dup5\n        /* \"#utility.yul\":11241:11313   */\n      tag_319\n      jump\t// in\n    tag_468:\n        /* \"#utility.yul\":10878:11320   */\n      swap5\n      swap4\n      pop\n      pop\n      pop\n      pop\n      jump\t// out\n        /* \"#utility.yul\":11326:11474   */\n    tag_334:\n        /* \"#utility.yul\":11428:11439   */\n      0x00\n        /* \"#utility.yul\":11465:11468   */\n      dup2\n        /* \"#utility.yul\":11450:11468   */\n      swap1\n      pop\n        /* \"#utility.yul\":11326:11474   */\n      swap3\n      swap2\n      pop\n      pop\n      jump\t// out\n        /* \"#utility.yul\":11480:11870   */\n    tag_335:\n        /* \"#utility.yul\":11586:11589   */\n      0x00\n        /* \"#utility.yul\":11614:11653   */\n      tag_471\n        /* \"#utility.yul\":11647:11652   */\n      dup3\n        /* \"#utility.yul\":11614:11653   */\n      tag_309\n      jump\t// in\n    tag_471:\n        /* \"#utility.yul\":11669:11758   */\n      tag_472\n        /* \"#utility.yul\":11751:11757   */\n      dup2\n        /* \"#utility.yul\":11746:11749   */\n      dup6\n        /* \"#utility.yul\":11669:11758   */\n      tag_334\n      jump\t// in\n    tag_472:\n        /* \"#utility.yul\":11662:11758   */\n      swap4\n      pop\n        /* \"#utility.yul\":11767:11832   */\n      tag_473\n        /* \"#utility.yul\":11825:11831   */\n      dup2\n        /* \"#utility.yul\":11820:11823   */\n      dup6\n        /* \"#utility.yul\":11813:11817   */\n      0x20\n        /* \"#utility.yul\":11806:11811   */\n      dup7\n        /* \"#utility.yul\":11802:11818   */\n      add\n        /* \"#utility.yul\":11767:11832   */\n      tag_311\n      jump\t// in\n    tag_473:\n        /* \"#utility.yul\":11857:11863   */\n      dup1\n        /* \"#utility.yul\":11852:11855   */\n      dup5\n        /* \"#utility.yul\":11848:11864   */\n      add\n        /* \"#utility.yul\":11841:11864   */\n      swap2\n      pop\n        /* \"#utility.yul\":11590:11870   */\n      pop\n        /* \"#utility.yul\":11480:11870   */\n      swap3\n      swap2\n      pop\n      pop\n      jump\t// out\n        /* \"#utility.yul\":11876:12311   */\n    tag_173:\n        /* \"#utility.yul\":12056:12059   */\n      0x00\n        /* \"#utility.yul\":12078:12173   */\n      tag_475\n        /* \"#utility.yul\":12169:12172   */\n      dup3\n        /* \"#utility.yul\":12160:12166   */\n      dup6\n        /* \"#utility.yul\":12078:12173   */\n      tag_335\n      jump\t// in\n    tag_475:\n        /* \"#utility.yul\":12071:12173   */\n      swap2\n      pop\n        /* \"#utility.yul\":12190:12285   */\n      tag_476\n        /* \"#utility.yul\":12281:12284   */\n      dup3\n        /* \"#utility.yul\":12272:12278   */\n      dup5\n        /* \"#utility.yul\":12190:12285   */\n      tag_335\n      jump\t// in\n    tag_476:\n        /* \"#utility.yul\":12183:12285   */\n      swap2\n      pop\n        /* \"#utility.yul\":12302:12305   */\n      dup2\n        /* \"#utility.yul\":12295:12305   */\n      swap1\n      pop\n        /* \"#utility.yul\":11876:12311   */\n      swap4\n      swap3\n      pop\n      pop\n      pop\n      jump\t// out\n        /* \"#utility.yul\":12317:12415   */\n    tag_336:\n        /* \"#utility.yul\":12368:12374   */\n      0x00\n        /* \"#utility.yul\":12402:12407   */\n      dup2\n        /* \"#utility.yul\":12396:12408   */\n      mload\n        /* \"#utility.yul\":12386:12408   */\n      swap1\n      pop\n        /* \"#utility.yul\":12317:12415   */\n      swap2\n      swap1\n      pop\n      jump\t// out\n        /* \"#utility.yul\":12421:12589   */\n    tag_337:\n        /* \"#utility.yul\":12504:12515   */\n      0x00\n        /* \"#utility.yul\":12538:12544   */\n      dup3\n        /* \"#utility.yul\":12533:12536   */\n      dup3\n        /* \"#utility.yul\":12526:12545   */\n      mstore\n        /* \"#utility.yul\":12578:12582   */\n      0x20\n        /* \"#utility.yul\":12573:12576   */\n      dup3\n        /* \"#utility.yul\":12569:12583   */\n      add\n        /* \"#utility.yul\":12554:12583   */\n      swap1\n      pop\n        /* \"#utility.yul\":12421:12589   */\n      swap3\n      swap2\n      pop\n      pop\n      jump\t// out\n        /* \"#utility.yul\":12595:12968   */\n    tag_338:\n        /* \"#utility.yul\":12681:12684   */\n      0x00\n        /* \"#utility.yul\":12709:12747   */\n      tag_480\n        /* \"#utility.yul\":12741:12746   */\n      dup3\n        /* \"#utility.yul\":12709:12747   */\n      tag_336\n      jump\t// in\n    tag_480:\n        /* \"#utility.yul\":12763:12833   */\n      tag_481\n        /* \"#utility.yul\":12826:12832   */\n      dup2\n        /* \"#utility.yul\":12821:12824   */\n      dup6\n        /* \"#utility.yul\":12763:12833   */\n      tag_337\n      jump\t// in\n    tag_481:\n        /* \"#utility.yul\":12756:12833   */\n      swap4\n      pop\n        /* \"#utility.yul\":12842:12907   */\n      tag_482\n        /* \"#utility.yul\":12900:12906   */\n      dup2\n        /* \"#utility.yul\":12895:12898   */\n      dup6\n        /* \"#utility.yul\":12888:12892   */\n      0x20\n        /* \"#utility.yul\":12881:12886   */\n      dup7\n        /* \"#utility.yul\":12877:12893   */\n      add\n        /* \"#utility.yul\":12842:12907   */\n      tag_311\n      jump\t// in\n    tag_482:\n        /* \"#utility.yul\":12932:12961   */\n      tag_483\n        /* \"#utility.yul\":12954:12960   */\n      dup2\n        /* \"#utility.yul\":12932:12961   */\n      tag_312\n      jump\t// in\n    tag_483:\n        /* \"#utility.yul\":12927:12930   */\n      dup5\n        /* \"#utility.yul\":12923:12962   */\n      add\n        /* \"#utility.yul\":12916:12962   */\n      swap2\n      pop\n        /* \"#utility.yul\":12685:12968   */\n      pop\n        /* \"#utility.yul\":12595:12968   */\n      swap3\n      swap2\n      pop\n      pop\n      jump\t// out\n        /* \"#utility.yul\":12974:13614   */\n    tag_225:\n        /* \"#utility.yul\":13169:13173   */\n      0x00\n        /* \"#utility.yul\":13207:13210   */\n      0x80\n        /* \"#utility.yul\":13196:13205   */\n      dup3\n        /* \"#utility.yul\":13192:13211   */\n      add\n        /* \"#utility.yul\":13184:13211   */\n      swap1\n      pop\n        /* \"#utility.yul\":13221:13292   */\n      tag_485\n        /* \"#utility.yul\":13289:13290   */\n      0x00\n        /* \"#utility.yul\":13278:13287   */\n      dup4\n        /* \"#utility.yul\":13274:13291   */\n      add\n        /* \"#utility.yul\":13265:13271   */\n      dup8\n        /* \"#utility.yul\":13221:13292   */\n      tag_319\n      jump\t// in\n    tag_485:\n        /* \"#utility.yul\":13302:13374   */\n      tag_486\n        /* \"#utility.yul\":13370:13372   */\n      0x20\n        /* \"#utility.yul\":13359:13368   */\n      dup4\n        /* \"#utility.yul\":13355:13373   */\n      add\n        /* \"#utility.yul\":13346:13352   */\n      dup7\n        /* \"#utility.yul\":13302:13374   */\n      tag_319\n      jump\t// in\n    tag_486:\n        /* \"#utility.yul\":13384:13456   */\n      tag_487\n        /* \"#utility.yul\":13452:13454   */\n      0x40\n        /* \"#utility.yul\":13441:13450   */\n      dup4\n        /* \"#utility.yul\":13437:13455   */\n      add\n        /* \"#utility.yul\":13428:13434   */\n      dup6\n        /* \"#utility.yul\":13384:13456   */\n      tag_322\n      jump\t// in\n    tag_487:\n        /* \"#utility.yul\":13503:13512   */\n      dup2\n        /* \"#utility.yul\":13497:13501   */\n      dup2\n        /* \"#utility.yul\":13493:13513   */\n      sub\n        /* \"#utility.yul\":13488:13490   */\n      0x60\n        /* \"#utility.yul\":13477:13486   */\n      dup4\n        /* \"#utility.yul\":13473:13491   */\n      add\n        /* \"#utility.yul\":13466:13514   */\n      mstore\n        /* \"#utility.yul\":13531:13607   */\n      tag_488\n        /* \"#utility.yul\":13602:13606   */\n      dup2\n        /* \"#utility.yul\":13593:13599   */\n      dup5\n        /* \"#utility.yul\":13531:13607   */\n      tag_338\n      jump\t// in\n    tag_488:\n        /* \"#utility.yul\":13523:13607   */\n      swap1\n      pop\n        /* \"#utility.yul\":12974:13614   */\n      swap6\n      swap5\n      pop\n      pop\n      pop\n      pop\n      pop\n      jump\t// out\n        /* \"#utility.yul\":13620:13761   */\n    tag_339:\n        /* \"#utility.yul\":13676:13681   */\n      0x00\n        /* \"#utility.yul\":13707:13713   */\n      dup2\n        /* \"#utility.yul\":13701:13714   */\n      mload\n        /* \"#utility.yul\":13692:13714   */\n      swap1\n      pop\n        /* \"#utility.yul\":13723:13755   */\n      tag_490\n        /* \"#utility.yul\":13749:13754   */\n      dup2\n        /* \"#utility.yul\":13723:13755   */\n      tag_305\n      jump\t// in\n    tag_490:\n        /* \"#utility.yul\":13620:13761   */\n      swap3\n      swap2\n      pop\n      pop\n      jump\t// out\n        /* \"#utility.yul\":13767:14116   */\n    tag_228:\n        /* \"#utility.yul\":13836:13842   */\n      0x00\n        /* \"#utility.yul\":13885:13887   */\n      0x20\n        /* \"#utility.yul\":13873:13882   */\n      dup3\n        /* \"#utility.yul\":13864:13871   */\n      dup5\n        /* \"#utility.yul\":13860:13883   */\n      sub\n        /* \"#utility.yul\":13856:13888   */\n      slt\n        /* \"#utility.yul\":13853:13972   */\n      iszero\n      tag_492\n      jumpi\n        /* \"#utility.yul\":13891:13970   */\n      tag_493\n      tag_302\n      jump\t// in\n    tag_493:\n        /* \"#utility.yul\":13853:13972   */\n    tag_492:\n        /* \"#utility.yul\":14011:14012   */\n      0x00\n        /* \"#utility.yul\":14036:14099   */\n      tag_494\n        /* \"#utility.yul\":14091:14098   */\n      dup5\n        /* \"#utility.yul\":14082:14088   */\n      dup3\n        /* \"#utility.yul\":14071:14080   */\n      dup6\n        /* \"#utility.yul\":14067:14089   */\n      add\n        /* \"#utility.yul\":14036:14099   */\n      tag_339\n      jump\t// in\n    tag_494:\n        /* \"#utility.yul\":14026:14099   */\n      swap2\n      pop\n        /* \"#utility.yul\":13982:14109   */\n      pop\n        /* \"#utility.yul\":13767:14116   */\n      swap3\n      swap2\n      pop\n      pop\n      jump\t// out\n        /* \"#utility.yul\":14122:14302   */\n    tag_253:\n        /* \"#utility.yul\":14170:14247   */\n      0x4e487b7100000000000000000000000000000000000000000000000000000000\n        /* \"#utility.yul\":14167:14168   */\n      0x00\n        /* \"#utility.yul\":14160:14248   */\n      mstore\n        /* \"#utility.yul\":14267:14271   */\n      0x12\n        /* \"#utility.yul\":14264:14265   */\n      0x04\n        /* \"#utility.yul\":14257:14272   */\n      mstore\n        /* \"#utility.yul\":14291:14295   */\n      0x24\n        /* \"#utility.yul\":14288:14289   */\n      0x00\n        /* \"#utility.yul\":14281:14296   */\n      revert\n        /* \"#utility.yul\":14308:14640   */\n    tag_274:\n        /* \"#utility.yul\":14429:14433   */\n      0x00\n        /* \"#utility.yul\":14467:14469   */\n      0x40\n        /* \"#utility.yul\":14456:14465   */\n      dup3\n        /* \"#utility.yul\":14452:14470   */\n      add\n        /* \"#utility.yul\":14444:14470   */\n      swap1\n      pop\n        /* \"#utility.yul\":14480:14551   */\n      tag_497\n        /* \"#utility.yul\":14548:14549   */\n      0x00\n        /* \"#utility.yul\":14537:14546   */\n      dup4\n        /* \"#utility.yul\":14533:14550   */\n      add\n        /* \"#utility.yul\":14524:14530   */\n      dup6\n        /* \"#utility.yul\":14480:14551   */\n      tag_319\n      jump\t// in\n    tag_497:\n        /* \"#utility.yul\":14561:14633   */\n      tag_498\n        /* \"#utility.yul\":14629:14631   */\n      0x20\n        /* \"#utility.yul\":14618:14627   */\n      dup4\n        /* \"#utility.yul\":14614:14632   */\n      add\n        /* \"#utility.yul\":14605:14611   */\n      dup5\n        /* \"#utility.yul\":14561:14633   */\n      tag_322\n      jump\t// in\n    tag_498:\n        /* \"#utility.yul\":14308:14640   */\n      swap4\n      swap3\n      pop\n      pop\n      pop\n      jump\t// out\n\n    auxdata: 0xa2646970667358221220bda1c54163b3db15c04c68fb4e13918e5aacf7df24ec93f25a9621e3af12d2a364736f6c63430008190033\n}\n",
				"bytecode": {
					"linkReferences": {},
					"object": "608060405234801561000f575f80fd5b50336040518060400160405280600481526020017f50726f70000000000000000000000000000000000000000000000000000000008152506040518060400160405280600281526020017f5050000000000000000000000000000000000000000000000000000000000000815250815f908161008b9190610420565b50806001908161009b9190610420565b5050505f73ffffffffffffffffffffffffffffffffffffffff168173ffffffffffffffffffffffffffffffffffffffff160361010e575f6040517f1e4fbdf7000000000000000000000000000000000000000000000000000000008152600401610105919061052e565b60405180910390fd5b61011d8161012360201b60201c565b50610547565b5f60065f9054906101000a900473ffffffffffffffffffffffffffffffffffffffff1690508160065f6101000a81548173ffffffffffffffffffffffffffffffffffffffff021916908373ffffffffffffffffffffffffffffffffffffffff1602179055508173ffffffffffffffffffffffffffffffffffffffff168173ffffffffffffffffffffffffffffffffffffffff167f8be0079c531659141344cd1fd0a4f28419497f9722a3daafe3b4186f6b6457e060405160405180910390a35050565b5f81519050919050565b7f4e487b71000000000000000000000000000000000000000000000000000000005f52604160045260245ffd5b7f4e487b71000000000000000000000000000000000000000000000000000000005f52602260045260245ffd5b5f600282049050600182168061026157607f821691505b6020821081036102745761027361021d565b5b50919050565b5f819050815f5260205f209050919050565b5f6020601f8301049050919050565b5f82821b905092915050565b5f600883026102d67fffffffffffffffffffffffffffffffffffffffffffffffffffffffffffffffff8261029b565b6102e0868361029b565b95508019841693508086168417925050509392505050565b5f819050919050565b5f819050919050565b5f61032461031f61031a846102f8565b610301565b6102f8565b9050919050565b5f819050919050565b61033d8361030a565b6103516103498261032b565b8484546102a7565b825550505050565b5f90565b610365610359565b610370818484610334565b505050565b5b81811015610393576103885f8261035d565b600181019050610376565b5050565b601f8211156103d8576103a98161027a565b6103b28461028c565b810160208510156103c1578190505b6103d56103cd8561028c565b830182610375565b50505b505050565b5f82821c905092915050565b5f6103f85f19846008026103dd565b1980831691505092915050565b5f61041083836103e9565b9150826002028217905092915050565b610429826101e6565b67ffffffffffffffff811115610442576104416101f0565b5b61044c825461024a565b610457828285610397565b5f60209050601f831160018114610488575f8415610476578287015190505b6104808582610405565b8655506104e7565b601f1984166104968661027a565b5f5b828110156104bd57848901518255600182019150602085019450602081019050610498565b868310156104da57848901516104d6601f8916826103e9565b8355505b6001600288020188555050505b505050505050565b5f73ffffffffffffffffffffffffffffffffffffffff82169050919050565b5f610518826104ef565b9050919050565b6105288161050e565b82525050565b5f6020820190506105415f83018461051f565b92915050565b61202f806105545f395ff3fe608060405234801561000f575f80fd5b5060043610610114575f3560e01c806370a08231116100a0578063a22cb4651161006f578063a22cb465146102c8578063b88d4fde146102e4578063c87b56dd14610300578063e985e9c514610330578063f2fde38b1461036057610114565b806370a0823114610252578063715018a6146102825780638da5cb5b1461028c57806395d89b41146102aa57610114565b806323b872dd116100e757806323b872dd146101b257806340c10f19146101ce57806342842e0e146101ea57806342966c68146102065780636352211e1461022257610114565b806301ffc9a71461011857806306fdde0314610148578063081812fc14610166578063095ea7b314610196575b5f80fd5b610132600480360381019061012d91906118da565b61037c565b60405161013f919061191f565b60405180910390f35b61015061045d565b60405161015d91906119a8565b60405180910390f35b610180600480360381019061017b91906119fb565b6104ec565b60405161018d9190611a65565b60405180910390f35b6101b060048036038101906101ab9190611aa8565b610507565b005b6101cc60048036038101906101c79190611ae6565b61051d565b005b6101e860048036038101906101e39190611aa8565b61061c565b005b61020460048036038101906101ff9190611ae6565b610632565b005b610220600480360381019061021b91906119fb565b610651565b005b61023c600480360381019061023791906119fb565b610665565b6040516102499190611a65565b60405180910390f35b61026c60048036038101906102679190611b36565b610676565b6040516102799190611b70565b60405180910390f35b61028a61072c565b005b61029461073f565b6040516102a19190611a65565b60405180910390f35b6102b2610767565b6040516102bf91906119a8565b60405180910390f35b6102e260048036038101906102dd9190611bb3565b6107f7565b005b6102fe60048036038101906102f99190611d1d565b61080d565b005b61031a600480360381019061031591906119fb565b61082a565b60405161032791906119a8565b60405180910390f35b61034a60048036038101906103459190611d9d565b610890565b604051610357919061191f565b60405180910390f35b61037a60048036038101906103759190611b36565b61091e565b005b5f7f80ac58cd000000000000000000000000000000000000000000000000000000007bffffffffffffffffffffffffffffffffffffffffffffffffffffffff1916827bffffffffffffffffffffffffffffffffffffffffffffffffffffffff1916148061044657507f5b5e139f000000000000000000000000000000000000000000000000000000007bffffffffffffffffffffffffffffffffffffffffffffffffffffffff1916827bffffffffffffffffffffffffffffffffffffffffffffffffffffffff1916145b806104565750610455826109a2565b5b9050919050565b60605f805461046b90611e08565b80601f016020809104026020016040519081016040528092919081815260200182805461049790611e08565b80156104e25780601f106104b9576101008083540402835291602001916104e2565b820191905f5260205f20905b8154815290600101906020018083116104c557829003601f168201915b5050505050905090565b5f6104f682610a0b565b5061050082610a91565b9050919050565b6105198282610514610aca565b610ad1565b5050565b5f73ffffffffffffffffffffffffffffffffffffffff168273ffffffffffffffffffffffffffffffffffffffff160361058d575f6040517f64a0ae920000000000000000000000000000000000000000000000000000000081526004016105849190611a65565b60405180910390fd5b5f6105a0838361059b610aca565b610ae3565b90508373ffffffffffffffffffffffffffffffffffffffff168173ffffffffffffffffffffffffffffffffffffffff1614610616578382826040517f64283d7b00000000000000000000000000000000000000000000000000000000815260040161060d93929190611e38565b60405180910390fd5b50505050565b610624610cee565b61062e8282610d75565b5050565b61064c83838360405180602001604052805f81525061080d565b505050565b610659610cee565b61066281610e68565b50565b5f61066f82610a0b565b9050919050565b5f8073ffffffffffffffffffffffffffffffffffffffff168273ffffffffffffffffffffffffffffffffffffffff16036106e7575f6040517f89c62b640000000000000000000000000000000000000000000000000000000081526004016106de9190611a65565b60405180910390fd5b60035f8373ffffffffffffffffffffffffffffffffffffffff1673ffffffffffffffffffffffffffffffffffffffff1681526020019081526020015f20549050919050565b610734610cee565b61073d5f610eea565b565b5f60065f9054906101000a900473ffffffffffffffffffffffffffffffffffffffff16905090565b60606001805461077690611e08565b80601f01602080910402602001604051908101604052809291908181526020018280546107a290611e08565b80156107ed5780601f106107c4576101008083540402835291602001916107ed565b820191905f5260205f20905b8154815290600101906020018083116107d057829003601f168201915b5050505050905090565b610809610802610aca565b8383610fad565b5050565b61081884848461051d565b61082484848484611116565b50505050565b606061083582610a0b565b505f61083f6112c8565b90505f81511161085d5760405180602001604052805f815250610888565b80610867846112de565b604051602001610878929190611ea7565b6040516020818303038152906040525b915050919050565b5f60055f8473ffffffffffffffffffffffffffffffffffffffff1673ffffffffffffffffffffffffffffffffffffffff1681526020019081526020015f205f8373ffffffffffffffffffffffffffffffffffffffff1673ffffffffffffffffffffffffffffffffffffffff1681526020019081526020015f205f9054906101000a900460ff16905092915050565b610926610cee565b5f73ffffffffffffffffffffffffffffffffffffffff168173ffffffffffffffffffffffffffffffffffffffff1603610996575f6040517f1e4fbdf700000000000000000000000000000000000000000000000000000000815260040161098d9190611a65565b60405180910390fd5b61099f81610eea565b50565b5f7f01ffc9a7000000000000000000000000000000000000000000000000000000007bffffffffffffffffffffffffffffffffffffffffffffffffffffffff1916827bffffffffffffffffffffffffffffffffffffffffffffffffffffffff1916149050919050565b5f80610a16836113a8565b90505f73ffffffffffffffffffffffffffffffffffffffff168173ffffffffffffffffffffffffffffffffffffffff1603610a8857826040517f7e273289000000000000000000000000000000000000000000000000000000008152600401610a7f9190611b70565b60405180910390fd5b80915050919050565b5f60045f8381526020019081526020015f205f9054906101000a900473ffffffffffffffffffffffffffffffffffffffff169050919050565b5f33905090565b610ade83838360016113e1565b505050565b5f80610aee846113a8565b90505f73ffffffffffffffffffffffffffffffffffffffff168373ffffffffffffffffffffffffffffffffffffffff1614610b2f57610b2e8184866115a0565b5b5f73ffffffffffffffffffffffffffffffffffffffff168173ffffffffffffffffffffffffffffffffffffffff1614610bba57610b6e5f855f806113e1565b600160035f8373ffffffffffffffffffffffffffffffffffffffff1673ffffffffffffffffffffffffffffffffffffffff1681526020019081526020015f205f82825403925050819055505b5f73ffffffffffffffffffffffffffffffffffffffff168573ffffffffffffffffffffffffffffffffffffffff1614610c3957600160035f8773ffffffffffffffffffffffffffffffffffffffff1673ffffffffffffffffffffffffffffffffffffffff1681526020019081526020015f205f82825401925050819055505b8460025f8681526020019081526020015f205f6101000a81548173ffffffffffffffffffffffffffffffffffffffff021916908373ffffffffffffffffffffffffffffffffffffffff160217905550838573ffffffffffffffffffffffffffffffffffffffff168273ffffffffffffffffffffffffffffffffffffffff167fddf252ad1be2c89b69c2b068fc378daa952ba7f163c4a11628f55a4df523b3ef60405160405180910390a4809150509392505050565b610cf6610aca565b73ffffffffffffffffffffffffffffffffffffffff16610d1461073f565b73ffffffffffffffffffffffffffffffffffffffff1614610d7357610d37610aca565b6040517f118cdaa7000000000000000000000000000000000000000000000000000000008152600401610d6a9190611a65565b60405180910390fd5b565b5f73ffffffffffffffffffffffffffffffffffffffff168273ffffffffffffffffffffffffffffffffffffffff1603610de5575f6040517f64a0ae92000000000000000000000000000000000000000000000000000000008152600401610ddc9190611a65565b60405180910390fd5b5f610df183835f610ae3565b90505f73ffffffffffffffffffffffffffffffffffffffff168173ffffffffffffffffffffffffffffffffffffffff1614610e63575f6040517f73c6ac6e000000000000000000000000000000000000000000000000000000008152600401610e5a9190611a65565b60405180910390fd5b505050565b5f610e745f835f610ae3565b90505f73ffffffffffffffffffffffffffffffffffffffff168173ffffffffffffffffffffffffffffffffffffffff1603610ee657816040517f7e273289000000000000000000000000000000000000000000000000000000008152600401610edd9190611b70565b60405180910390fd5b5050565b5f60065f9054906101000a900473ffffffffffffffffffffffffffffffffffffffff1690508160065f6101000a81548173ffffffffffffffffffffffffffffffffffffffff021916908373ffffffffffffffffffffffffffffffffffffffff1602179055508173ffffffffffffffffffffffffffffffffffffffff168173ffffffffffffffffffffffffffffffffffffffff167f8be0079c531659141344cd1fd0a4f28419497f9722a3daafe3b4186f6b6457e060405160405180910390a35050565b5f73ffffffffffffffffffffffffffffffffffffffff168273ffffffffffffffffffffffffffffffffffffffff160361101d57816040517f5b08ba180000000000000000000000000000000000000000000000000000000081526004016110149190611a65565b60405180910390fd5b8060055f8573ffffffffffffffffffffffffffffffffffffffff1673ffffffffffffffffffffffffffffffffffffffff1681526020019081526020015f205f8473ffffffffffffffffffffffffffffffffffffffff1673ffffffffffffffffffffffffffffffffffffffff1681526020019081526020015f205f6101000a81548160ff0219169083151502179055508173ffffffffffffffffffffffffffffffffffffffff168373ffffffffffffffffffffffffffffffffffffffff167f17307eab39ab6107e8899845ad3d59bd9653f200f220920489ca2b5937696c3183604051611109919061191f565b60405180910390a3505050565b5f8373ffffffffffffffffffffffffffffffffffffffff163b11156112c2578273ffffffffffffffffffffffffffffffffffffffff1663150b7a02611159610aca565b8685856040518563ffffffff1660e01b815260040161117b9493929190611f1c565b6020604051808303815f875af19250505080156111b657506040513d601f19601f820116820180604052508101906111b39190611f7a565b60015b611237573d805f81146111e4576040519150601f19603f3d011682016040523d82523d5f602084013e6111e9565b606091505b505f81510361122f57836040517f64a0ae920000000000000000000000000000000000000000000000000000000081526004016112269190611a65565b60405180910390fd5b805181602001fd5b63150b7a0260e01b7bffffffffffffffffffffffffffffffffffffffffffffffffffffffff1916817bffffffffffffffffffffffffffffffffffffffffffffffffffffffff1916146112c057836040517f64a0ae920000000000000000000000000000000000000000000000000000000081526004016112b79190611a65565b60405180910390fd5b505b50505050565b606060405180602001604052805f815250905090565b60605f60016112ec84611663565b0190505f8167ffffffffffffffff81111561130a57611309611bf9565b5b6040519080825280601f01601f19166020018201604052801561133c5781602001600182028036833780820191505090505b5090505f82602001820190505b60011561139d578080600190039150507f3031323334353637383961626364656600000000000000000000000000000000600a86061a8153600a858161139257611391611fa5565b5b0494505f8503611349575b819350505050919050565b5f60025f8381526020019081526020015f205f9054906101000a900473ffffffffffffffffffffffffffffffffffffffff169050919050565b808061141957505f73ffffffffffffffffffffffffffffffffffffffff168273ffffffffffffffffffffffffffffffffffffffff1614155b1561154b575f61142884610a0b565b90505f73ffffffffffffffffffffffffffffffffffffffff168373ffffffffffffffffffffffffffffffffffffffff161415801561149257508273ffffffffffffffffffffffffffffffffffffffff168173ffffffffffffffffffffffffffffffffffffffff1614155b80156114a557506114a38184610890565b155b156114e757826040517fa9fbf51f0000000000000000000000000000000000000000000000000000000081526004016114de9190611a65565b60405180910390fd5b811561154957838573ffffffffffffffffffffffffffffffffffffffff168273ffffffffffffffffffffffffffffffffffffffff167f8c5be1e5ebec7d5bd14f71427d1e84f3dd0314c0f7b2291e5b200ac8c7c3b92560405160405180910390a45b505b8360045f8581526020019081526020015f205f6101000a81548173ffffffffffffffffffffffffffffffffffffffff021916908373ffffffffffffffffffffffffffffffffffffffff16021790555050505050565b6115ab8383836117b4565b61165e575f73ffffffffffffffffffffffffffffffffffffffff168373ffffffffffffffffffffffffffffffffffffffff160361161f57806040517f7e2732890000000000000000000000000000000000000000000000000000000081526004016116169190611b70565b60405180910390fd5b81816040517f177e802f000000000000000000000000000000000000000000000000000000008152600401611655929190611fd2565b60405180910390fd5b505050565b5f805f90507a184f03e93ff9f4daa797ed6e38ed64bf6a1f01000000000000000083106116bf577a184f03e93ff9f4daa797ed6e38ed64bf6a1f01000000000000000083816116b5576116b4611fa5565b5b0492506040810190505b6d04ee2d6d415b85acef810000000083106116fc576d04ee2d6d415b85acef810000000083816116f2576116f1611fa5565b5b0492506020810190505b662386f26fc10000831061172b57662386f26fc10000838161172157611720611fa5565b5b0492506010810190505b6305f5e1008310611754576305f5e100838161174a57611749611fa5565b5b0492506008810190505b612710831061177957612710838161176f5761176e611fa5565b5b0492506004810190505b6064831061179c576064838161179257611791611fa5565b5b0492506002810190505b600a83106117ab576001810190505b80915050919050565b5f8073ffffffffffffffffffffffffffffffffffffffff168373ffffffffffffffffffffffffffffffffffffffff161415801561186b57508273ffffffffffffffffffffffffffffffffffffffff168473ffffffffffffffffffffffffffffffffffffffff16148061182c575061182b8484610890565b5b8061186a57508273ffffffffffffffffffffffffffffffffffffffff1661185283610a91565b73ffffffffffffffffffffffffffffffffffffffff16145b5b90509392505050565b5f604051905090565b5f80fd5b5f80fd5b5f7fffffffff0000000000000000000000000000000000000000000000000000000082169050919050565b6118b981611885565b81146118c3575f80fd5b50565b5f813590506118d4816118b0565b92915050565b5f602082840312156118ef576118ee61187d565b5b5f6118fc848285016118c6565b91505092915050565b5f8115159050919050565b61191981611905565b82525050565b5f6020820190506119325f830184611910565b92915050565b5f81519050919050565b5f82825260208201905092915050565b8281835e5f83830152505050565b5f601f19601f8301169050919050565b5f61197a82611938565b6119848185611942565b9350611994818560208601611952565b61199d81611960565b840191505092915050565b5f6020820190508181035f8301526119c08184611970565b905092915050565b5f819050919050565b6119da816119c8565b81146119e4575f80fd5b50565b5f813590506119f5816119d1565b92915050565b5f60208284031215611a1057611a0f61187d565b5b5f611a1d848285016119e7565b91505092915050565b5f73ffffffffffffffffffffffffffffffffffffffff82169050919050565b5f611a4f82611a26565b9050919050565b611a5f81611a45565b82525050565b5f602082019050611a785f830184611a56565b92915050565b611a8781611a45565b8114611a91575f80fd5b50565b5f81359050611aa281611a7e565b92915050565b5f8060408385031215611abe57611abd61187d565b5b5f611acb85828601611a94565b9250506020611adc858286016119e7565b9150509250929050565b5f805f60608486031215611afd57611afc61187d565b5b5f611b0a86828701611a94565b9350506020611b1b86828701611a94565b9250506040611b2c868287016119e7565b9150509250925092565b5f60208284031215611b4b57611b4a61187d565b5b5f611b5884828501611a94565b91505092915050565b611b6a816119c8565b82525050565b5f602082019050611b835f830184611b61565b92915050565b611b9281611905565b8114611b9c575f80fd5b50565b5f81359050611bad81611b89565b92915050565b5f8060408385031215611bc957611bc861187d565b5b5f611bd685828601611a94565b9250506020611be785828601611b9f565b9150509250929050565b5f80fd5b5f80fd5b7f4e487b71000000000000000000000000000000000000000000000000000000005f52604160045260245ffd5b611c2f82611960565b810181811067ffffffffffffffff82111715611c4e57611c4d611bf9565b5b80604052505050565b5f611c60611874565b9050611c6c8282611c26565b919050565b5f67ffffffffffffffff821115611c8b57611c8a611bf9565b5b611c9482611960565b9050602081019050919050565b828183375f83830152505050565b5f611cc1611cbc84611c71565b611c57565b905082815260208101848484011115611cdd57611cdc611bf5565b5b611ce8848285611ca1565b509392505050565b5f82601f830112611d0457611d03611bf1565b5b8135611d14848260208601611caf565b91505092915050565b5f805f8060808587031215611d3557611d3461187d565b5b5f611d4287828801611a94565b9450506020611d5387828801611a94565b9350506040611d64878288016119e7565b925050606085013567ffffffffffffffff811115611d8557611d84611881565b5b611d9187828801611cf0565b91505092959194509250565b5f8060408385031215611db357611db261187d565b5b5f611dc085828601611a94565b9250506020611dd185828601611a94565b9150509250929050565b7f4e487b71000000000000000000000000000000000000000000000000000000005f52602260045260245ffd5b5f6002820490506001821680611e1f57607f821691505b602082108103611e3257611e31611ddb565b5b50919050565b5f606082019050611e4b5f830186611a56565b611e586020830185611b61565b611e656040830184611a56565b949350505050565b5f81905092915050565b5f611e8182611938565b611e8b8185611e6d565b9350611e9b818560208601611952565b80840191505092915050565b5f611eb28285611e77565b9150611ebe8284611e77565b91508190509392505050565b5f81519050919050565b5f82825260208201905092915050565b5f611eee82611eca565b611ef88185611ed4565b9350611f08818560208601611952565b611f1181611960565b840191505092915050565b5f608082019050611f2f5f830187611a56565b611f3c6020830186611a56565b611f496040830185611b61565b8181036060830152611f5b8184611ee4565b905095945050505050565b5f81519050611f74816118b0565b92915050565b5f60208284031215611f8f57611f8e61187d565b5b5f611f9c84828501611f66565b91505092915050565b7f4e487b71000000000000000000000000000000000000000000000000000000005f52601260045260245ffd5b5f604082019050611fe55f830185611a56565b611ff26020830184611b61565b939250505056fea2646970667358221220bda1c54163b3db15c04c68fb4e13918e5aacf7df24ec93f25a9621e3af12d2a364736f6c63430008190033",
					"opcodes": "PUSH1 0x80 PUSH1 0x40 MSTORE CALLVALUE DUP1 ISZERO PUSH2 0xF JUMPI PUSH0 DUP1 REVERT JUMPDEST POP CALLER PUSH1 0x40 MLOAD DUP1 PUSH1 0x40 ADD PUSH1 0x40 MSTORE DUP1 PUSH1 0x4 DUP2 MSTORE PUSH1 0x20 ADD PUSH32 0x50726F7000000000000000000000000000000000000000000000000000000000 DUP2 MSTORE POP PUSH1 0x40 MLOAD DUP1 PUSH1 0x40 ADD PUSH1 0x40 MSTORE DUP1 PUSH1 0x2 DUP2 MSTORE PUSH1 0x20 ADD PUSH32 0x5050000000000000000000000000000000000000000000000000000000000000 DUP2 MSTORE POP DUP2 PUSH0 SWAP1 DUP2 PUSH2 0x8B SWAP2 SWAP1 PUSH2 0x420 JUMP JUMPDEST POP DUP1 PUSH1 0x1 SWAP1 DUP2 PUSH2 0x9B SWAP2 SWAP1 PUSH2 0x420 JUMP JUMPDEST POP POP POP PUSH0 PUSH20 0xFFFFFFFFFFFFFFFFFFFFFFFFFFFFFFFFFFFFFFFF AND DUP2 PUSH20 0xFFFFFFFFFFFFFFFFFFFFFFFFFFFFFFFFFFFFFFFF AND SUB PUSH2 0x10E JUMPI PUSH0 PUSH1 0x40 MLOAD PUSH32 0x1E4FBDF700000000000000000000000000000000000000000000000000000000 DUP2 MSTORE PUSH1 0x4 ADD PUSH2 0x105 SWAP2 SWAP1 PUSH2 0x52E JUMP JUMPDEST PUSH1 0x40 MLOAD DUP1 SWAP2 SUB SWAP1 REVERT JUMPDEST PUSH2 0x11D DUP2 PUSH2 0x123 PUSH1 0x20 SHL PUSH1 0x20 SHR JUMP JUMPDEST POP PUSH2 0x547 JUMP JUMPDEST PUSH0 PUSH1 0x6 PUSH0 SWAP1 SLOAD SWAP1 PUSH2 0x100 EXP SWAP1 DIV PUSH20 0xFFFFFFFFFFFFFFFFFFFFFFFFFFFFFFFFFFFFFFFF AND SWAP1 POP DUP2 PUSH1 0x6 PUSH0 PUSH2 0x100 EXP DUP2 SLOAD DUP2 PUSH20 0xFFFFFFFFFFFFFFFFFFFFFFFFFFFFFFFFFFFFFFFF MUL NOT AND SWAP1 DUP4 PUSH20 0xFFFFFFFFFFFFFFFFFFFFFFFFFFFFFFFFFFFFFFFF AND MUL OR SWAP1 SSTORE POP DUP2 PUSH20 0xFFFFFFFFFFFFFFFFFFFFFFFFFFFFFFFFFFFFFFFF AND DUP2 PUSH20 0xFFFFFFFFFFFFFFFFFFFFFFFFFFFFFFFFFFFFFFFF AND PUSH32 0x8BE0079C531659141344CD1FD0A4F28419497F9722A3DAAFE3B4186F6B6457E0 PUSH1 0x40 MLOAD PUSH1 0x40 MLOAD DUP1 SWAP2 SUB SWAP1 LOG3 POP POP JUMP JUMPDEST PUSH0 DUP2 MLOAD SWAP1 POP SWAP2 SWAP1 POP JUMP JUMPDEST PUSH32 0x4E487B7100000000000000000000000000000000000000000000000000000000 PUSH0 MSTORE PUSH1 0x41 PUSH1 0x4 MSTORE PUSH1 0x24 PUSH0 REVERT JUMPDEST PUSH32 0x4E487B7100000000000000000000000000000000000000000000000000000000 PUSH0 MSTORE PUSH1 0x22 PUSH1 0x4 MSTORE PUSH1 0x24 PUSH0 REVERT JUMPDEST PUSH0 PUSH1 0x2 DUP3 DIV SWAP1 POP PUSH1 0x1 DUP3 AND DUP1 PUSH2 0x261 JUMPI PUSH1 0x7F DUP3 AND SWAP2 POP JUMPDEST PUSH1 0x20 DUP3 LT DUP2 SUB PUSH2 0x274 JUMPI PUSH2 0x273 PUSH2 0x21D JUMP JUMPDEST JUMPDEST POP SWAP2 SWAP1 POP JUMP JUMPDEST PUSH0 DUP2 SWAP1 POP DUP2 PUSH0 MSTORE PUSH1 0x20 PUSH0 KECCAK256 SWAP1 POP SWAP2 SWAP1 POP JUMP JUMPDEST PUSH0 PUSH1 0x20 PUSH1 0x1F DUP4 ADD DIV SWAP1 POP SWAP2 SWAP1 POP JUMP JUMPDEST PUSH0 DUP3 DUP3 SHL SWAP1 POP SWAP3 SWAP2 POP POP JUMP JUMPDEST PUSH0 PUSH1 0x8 DUP4 MUL PUSH2 0x2D6 PUSH32 0xFFFFFFFFFFFFFFFFFFFFFFFFFFFFFFFFFFFFFFFFFFFFFFFFFFFFFFFFFFFFFFFF DUP3 PUSH2 0x29B JUMP JUMPDEST PUSH2 0x2E0 DUP7 DUP4 PUSH2 0x29B JUMP JUMPDEST SWAP6 POP DUP1 NOT DUP5 AND SWAP4 POP DUP1 DUP7 AND DUP5 OR SWAP3 POP POP POP SWAP4 SWAP3 POP POP POP JUMP JUMPDEST PUSH0 DUP2 SWAP1 POP SWAP2 SWAP1 POP JUMP JUMPDEST PUSH0 DUP2 SWAP1 POP SWAP2 SWAP1 POP JUMP JUMPDEST PUSH0 PUSH2 0x324 PUSH2 0x31F PUSH2 0x31A DUP5 PUSH2 0x2F8 JUMP JUMPDEST PUSH2 0x301 JUMP JUMPDEST PUSH2 0x2F8 JUMP JUMPDEST SWAP1 POP SWAP2 SWAP1 POP JUMP JUMPDEST PUSH0 DUP2 SWAP1 POP SWAP2 SWAP1 POP JUMP JUMPDEST PUSH2 0x33D DUP4 PUSH2 0x30A JUMP JUMPDEST PUSH2 0x351 PUSH2 0x349 DUP3 PUSH2 0x32B JUMP JUMPDEST DUP5 DUP5 SLOAD PUSH2 0x2A7 JUMP JUMPDEST DUP3 SSTORE POP POP POP POP JUMP JUMPDEST PUSH0 SWAP1 JUMP JUMPDEST PUSH2 0x365 PUSH2 0x359 JUMP JUMPDEST PUSH2 0x370 DUP2 DUP5 DUP5 PUSH2 0x334 JUMP JUMPDEST POP POP POP JUMP JUMPDEST JUMPDEST DUP2 DUP2 LT ISZERO PUSH2 0x393 JUMPI PUSH2 0x388 PUSH0 DUP3 PUSH2 0x35D JUMP JUMPDEST PUSH1 0x1 DUP2 ADD SWAP1 POP PUSH2 0x376 JUMP JUMPDEST POP POP JUMP JUMPDEST PUSH1 0x1F DUP3 GT ISZERO PUSH2 0x3D8 JUMPI PUSH2 0x3A9 DUP2 PUSH2 0x27A JUMP JUMPDEST PUSH2 0x3B2 DUP5 PUSH2 0x28C JUMP JUMPDEST DUP2 ADD PUSH1 0x20 DUP6 LT ISZERO PUSH2 0x3C1 JUMPI DUP2 SWAP1 POP JUMPDEST PUSH2 0x3D5 PUSH2 0x3CD DUP6 PUSH2 0x28C JUMP JUMPDEST DUP4 ADD DUP3 PUSH2 0x375 JUMP JUMPDEST POP POP JUMPDEST POP POP POP JUMP JUMPDEST PUSH0 DUP3 DUP3 SHR SWAP1 POP SWAP3 SWAP2 POP POP JUMP JUMPDEST PUSH0 PUSH2 0x3F8 PUSH0 NOT DUP5 PUSH1 0x8 MUL PUSH2 0x3DD JUMP JUMPDEST NOT DUP1 DUP4 AND SWAP2 POP POP SWAP3 SWAP2 POP POP JUMP JUMPDEST PUSH0 PUSH2 0x410 DUP4 DUP4 PUSH2 0x3E9 JUMP JUMPDEST SWAP2 POP DUP3 PUSH1 0x2 MUL DUP3 OR SWAP1 POP SWAP3 SWAP2 POP POP JUMP JUMPDEST PUSH2 0x429 DUP3 PUSH2 0x1E6 JUMP JUMPDEST PUSH8 0xFFFFFFFFFFFFFFFF DUP2 GT ISZERO PUSH2 0x442 JUMPI PUSH2 0x441 PUSH2 0x1F0 JUMP JUMPDEST JUMPDEST PUSH2 0x44C DUP3 SLOAD PUSH2 0x24A JUMP JUMPDEST PUSH2 0x457 DUP3 DUP3 DUP6 PUSH2 0x397 JUMP JUMPDEST PUSH0 PUSH1 0x20 SWAP1 POP PUSH1 0x1F DUP4 GT PUSH1 0x1 DUP2 EQ PUSH2 0x488 JUMPI PUSH0 DUP5 ISZERO PUSH2 0x476 JUMPI DUP3 DUP8 ADD MLOAD SWAP1 POP JUMPDEST PUSH2 0x480 DUP6 DUP3 PUSH2 0x405 JUMP JUMPDEST DUP7 SSTORE POP PUSH2 0x4E7 JUMP JUMPDEST PUSH1 0x1F NOT DUP5 AND PUSH2 0x496 DUP7 PUSH2 0x27A JUMP JUMPDEST PUSH0 JUMPDEST DUP3 DUP2 LT ISZERO PUSH2 0x4BD JUMPI DUP5 DUP10 ADD MLOAD DUP3 SSTORE PUSH1 0x1 DUP3 ADD SWAP2 POP PUSH1 0x20 DUP6 ADD SWAP5 POP PUSH1 0x20 DUP2 ADD SWAP1 POP PUSH2 0x498 JUMP JUMPDEST DUP7 DUP4 LT ISZERO PUSH2 0x4DA JUMPI DUP5 DUP10 ADD MLOAD PUSH2 0x4D6 PUSH1 0x1F DUP10 AND DUP3 PUSH2 0x3E9 JUMP JUMPDEST DUP4 SSTORE POP JUMPDEST PUSH1 0x1 PUSH1 0x2 DUP9 MUL ADD DUP9 SSTORE POP POP POP JUMPDEST POP POP POP POP POP POP JUMP JUMPDEST PUSH0 PUSH20 0xFFFFFFFFFFFFFFFFFFFFFFFFFFFFFFFFFFFFFFFF DUP3 AND SWAP1 POP SWAP2 SWAP1 POP JUMP JUMPDEST PUSH0 PUSH2 0x518 DUP3 PUSH2 0x4EF JUMP JUMPDEST SWAP1 POP SWAP2 SWAP1 POP JUMP JUMPDEST PUSH2 0x528 DUP2 PUSH2 0x50E JUMP JUMPDEST DUP3 MSTORE POP POP JUMP JUMPDEST PUSH0 PUSH1 0x20 DUP3 ADD SWAP1 POP PUSH2 0x541 PUSH0 DUP4 ADD DUP5 PUSH2 0x51F JUMP JUMPDEST SWAP3 SWAP2 POP POP JUMP JUMPDEST PUSH2 0x202F DUP1 PUSH2 0x554 PUSH0 CODECOPY PUSH0 RETURN INVALID PUSH1 0x80 PUSH1 0x40 MSTORE CALLVALUE DUP1 ISZERO PUSH2 0xF JUMPI PUSH0 DUP1 REVERT JUMPDEST POP PUSH1 0x4 CALLDATASIZE LT PUSH2 0x114 JUMPI PUSH0 CALLDATALOAD PUSH1 0xE0 SHR DUP1 PUSH4 0x70A08231 GT PUSH2 0xA0 JUMPI DUP1 PUSH4 0xA22CB465 GT PUSH2 0x6F JUMPI DUP1 PUSH4 0xA22CB465 EQ PUSH2 0x2C8 JUMPI DUP1 PUSH4 0xB88D4FDE EQ PUSH2 0x2E4 JUMPI DUP1 PUSH4 0xC87B56DD EQ PUSH2 0x300 JUMPI DUP1 PUSH4 0xE985E9C5 EQ PUSH2 0x330 JUMPI DUP1 PUSH4 0xF2FDE38B EQ PUSH2 0x360 JUMPI PUSH2 0x114 JUMP JUMPDEST DUP1 PUSH4 0x70A08231 EQ PUSH2 0x252 JUMPI DUP1 PUSH4 0x715018A6 EQ PUSH2 0x282 JUMPI DUP1 PUSH4 0x8DA5CB5B EQ PUSH2 0x28C JUMPI DUP1 PUSH4 0x95D89B41 EQ PUSH2 0x2AA JUMPI PUSH2 0x114 JUMP JUMPDEST DUP1 PUSH4 0x23B872DD GT PUSH2 0xE7 JUMPI DUP1 PUSH4 0x23B872DD EQ PUSH2 0x1B2 JUMPI DUP1 PUSH4 0x40C10F19 EQ PUSH2 0x1CE JUMPI DUP1 PUSH4 0x42842E0E EQ PUSH2 0x1EA JUMPI DUP1 PUSH4 0x42966C68 EQ PUSH2 0x206 JUMPI DUP1 PUSH4 0x6352211E EQ PUSH2 0x222 JUMPI PUSH2 0x114 JUMP JUMPDEST DUP1 PUSH4 0x1FFC9A7 EQ PUSH2 0x118 JUMPI DUP1 PUSH4 0x6FDDE03 EQ PUSH2 0x148 JUMPI DUP1 PUSH4 0x81812FC EQ PUSH2 0x166 JUMPI DUP1 PUSH4 0x95EA7B3 EQ PUSH2 0x196 JUMPI JUMPDEST PUSH0 DUP1 REVERT JUMPDEST PUSH2 0x132 PUSH1 0x4 DUP1 CALLDATASIZE SUB DUP2 ADD SWAP1 PUSH2 0x12D SWAP2 SWAP1 PUSH2 0x18DA JUMP JUMPDEST PUSH2 0x37C JUMP JUMPDEST PUSH1 0x40 MLOAD PUSH2 0x13F SWAP2 SWAP1 PUSH2 0x191F JUMP JUMPDEST PUSH1 0x40 MLOAD DUP1 SWAP2 SUB SWAP1 RETURN JUMPDEST PUSH2 0x150 PUSH2 0x45D JUMP JUMPDEST PUSH1 0x40 MLOAD PUSH2 0x15D SWAP2 SWAP1 PUSH2 0x19A8 JUMP JUMPDEST PUSH1 0x40 MLOAD DUP1 SWAP2 SUB SWAP1 RETURN JUMPDEST PUSH2 0x180 PUSH1 0x4 DUP1 CALLDATASIZE SUB DUP2 ADD SWAP1 PUSH2 0x17B SWAP2 SWAP1 PUSH2 0x19FB JUMP JUMPDEST PUSH2 0x4EC JUMP JUMPDEST PUSH1 0x40 MLOAD PUSH2 0x18D SWAP2 SWAP1 PUSH2 0x1A65 JUMP JUMPDEST PUSH1 0x40 MLOAD DUP1 SWAP2 SUB SWAP1 RETURN JUMPDEST PUSH2 0x1B0 PUSH1 0x4 DUP1 CALLDATASIZE SUB DUP2 ADD SWAP1 PUSH2 0x1AB SWAP2 SWAP1 PUSH2 0x1AA8 JUMP JUMPDEST PUSH2 0x507 JUMP JUMPDEST STOP JUMPDEST PUSH2 0x1CC PUSH1 0x4 DUP1 CALLDATASIZE SUB DUP2 ADD SWAP1 PUSH2 0x1C7 SWAP2 SWAP1 PUSH2 0x1AE6 JUMP JUMPDEST PUSH2 0x51D JUMP JUMPDEST STOP JUMPDEST PUSH2 0x1E8 PUSH1 0x4 DUP1 CALLDATASIZE SUB DUP2 ADD SWAP1 PUSH2 0x1E3 SWAP2 SWAP1 PUSH2 0x1AA8 JUMP JUMPDEST PUSH2 0x61C JUMP JUMPDEST STOP JUMPDEST PUSH2 0x204 PUSH1 0x4 DUP1 CALLDATASIZE SUB DUP2 ADD SWAP1 PUSH2 0x1FF SWAP2 SWAP1 PUSH2 0x1AE6 JUMP JUMPDEST PUSH2 0x632 JUMP JUMPDEST STOP JUMPDEST PUSH2 0x220 PUSH1 0x4 DUP1 CALLDATASIZE SUB DUP2 ADD SWAP1 PUSH2 0x21B SWAP2 SWAP1 PUSH2 0x19FB JUMP JUMPDEST PUSH2 0x651 JUMP JUMPDEST STOP JUMPDEST PUSH2 0x23C PUSH1 0x4 DUP1 CALLDATASIZE SUB DUP2 ADD SWAP1 PUSH2 0x237 SWAP2 SWAP1 PUSH2 0x19FB JUMP JUMPDEST PUSH2 0x665 JUMP JUMPDEST PUSH1 0x40 MLOAD PUSH2 0x249 SWAP2 SWAP1 PUSH2 0x1A65 JUMP JUMPDEST PUSH1 0x40 MLOAD DUP1 SWAP2 SUB SWAP1 RETURN JUMPDEST PUSH2 0x26C PUSH1 0x4 DUP1 CALLDATASIZE SUB DUP2 ADD SWAP1 PUSH2 0x267 SWAP2 SWAP1 PUSH2 0x1B36 JUMP JUMPDEST PUSH2 0x676 JUMP JUMPDEST PUSH1 0x40 MLOAD PUSH2 0x279 SWAP2 SWAP1 PUSH2 0x1B70 JUMP JUMPDEST PUSH1 0x40 MLOAD DUP1 SWAP2 SUB SWAP1 RETURN JUMPDEST PUSH2 0x28A PUSH2 0x72C JUMP JUMPDEST STOP JUMPDEST PUSH2 0x294 PUSH2 0x73F JUMP JUMPDEST PUSH1 0x40 MLOAD PUSH2 0x2A1 SWAP2 SWAP1 PUSH2 0x1A65 JUMP JUMPDEST PUSH1 0x40 MLOAD DUP1 SWAP2 SUB SWAP1 RETURN JUMPDEST PUSH2 0x2B2 PUSH2 0x767 JUMP JUMPDEST PUSH1 0x40 MLOAD PUSH2 0x2BF SWAP2 SWAP1 PUSH2 0x19A8 JUMP JUMPDEST PUSH1 0x40 MLOAD DUP1 SWAP2 SUB SWAP1 RETURN JUMPDEST PUSH2 0x2E2 PUSH1 0x4 DUP1 CALLDATASIZE SUB DUP2 ADD SWAP1 PUSH2 0x2DD SWAP2 SWAP1 PUSH2 0x1BB3 JUMP JUMPDEST PUSH2 0x7F7 JUMP JUMPDEST STOP JUMPDEST PUSH2 0x2FE PUSH1 0x4 DUP1 CALLDATASIZE SUB DUP2 ADD SWAP1 PUSH2 0x2F9 SWAP2 SWAP1 PUSH2 0x1D1D JUMP JUMPDEST PUSH2 0x80D JUMP JUMPDEST STOP JUMPDEST PUSH2 0x31A PUSH1 0x4 DUP1 CALLDATASIZE SUB DUP2 ADD SWAP1 PUSH2 0x315 SWAP2 SWAP1 PUSH2 0x19FB JUMP JUMPDEST PUSH2 0x82A JUMP JUMPDEST PUSH1 0x40 MLOAD PUSH2 0x327 SWAP2 SWAP1 PUSH2 0x19A8 JUMP JUMPDEST PUSH1 0x40 MLOAD DUP1 SWAP2 SUB SWAP1 RETURN JUMPDEST PUSH2 0x34A PUSH1 0x4 DUP1 CALLDATASIZE SUB DUP2 ADD SWAP1 PUSH2 0x345 SWAP2 SWAP1 PUSH2 0x1D9D JUMP JUMPDEST PUSH2 0x890 JUMP JUMPDEST PUSH1 0x40 MLOAD PUSH2 0x357 SWAP2 SWAP1 PUSH2 0x191F JUMP JUMPDEST PUSH1 0x40 MLOAD DUP1 SWAP2 SUB SWAP1 RETURN JUMPDEST PUSH2 0x37A PUSH1 0x4 DUP1 CALLDATASIZE SUB DUP2 ADD SWAP1 PUSH2 0x375 SWAP2 SWAP1 PUSH2 0x1B36 JUMP JUMPDEST PUSH2 0x91E JUMP JUMPDEST STOP JUMPDEST PUSH0 PUSH32 0x80AC58CD00000000000000000000000000000000000000000000000000000000 PUSH28 0xFFFFFFFFFFFFFFFFFFFFFFFFFFFFFFFFFFFFFFFFFFFFFFFFFFFFFFFF NOT AND DUP3 PUSH28 0xFFFFFFFFFFFFFFFFFFFFFFFFFFFFFFFFFFFFFFFFFFFFFFFFFFFFFFFF NOT AND EQ DUP1 PUSH2 0x446 JUMPI POP PUSH32 0x5B5E139F00000000000000000000000000000000000000000000000000000000 PUSH28 0xFFFFFFFFFFFFFFFFFFFFFFFFFFFFFFFFFFFFFFFFFFFFFFFFFFFFFFFF NOT AND DUP3 PUSH28 0xFFFFFFFFFFFFFFFFFFFFFFFFFFFFFFFFFFFFFFFFFFFFFFFFFFFFFFFF NOT AND EQ JUMPDEST DUP1 PUSH2 0x456 JUMPI POP PUSH2 0x455 DUP3 PUSH2 0x9A2 JUMP JUMPDEST JUMPDEST SWAP1 POP SWAP2 SWAP1 POP JUMP JUMPDEST PUSH1 0x60 PUSH0 DUP1 SLOAD PUSH2 0x46B SWAP1 PUSH2 0x1E08 JUMP JUMPDEST DUP1 PUSH1 0x1F ADD PUSH1 0x20 DUP1 SWAP2 DIV MUL PUSH1 0x20 ADD PUSH1 0x40 MLOAD SWAP1 DUP2 ADD PUSH1 0x40 MSTORE DUP1 SWAP3 SWAP2 SWAP1 DUP2 DUP2 MSTORE PUSH1 0x20 ADD DUP3 DUP1 SLOAD PUSH2 0x497 SWAP1 PUSH2 0x1E08 JUMP JUMPDEST DUP1 ISZERO PUSH2 0x4E2 JUMPI DUP1 PUSH1 0x1F LT PUSH2 0x4B9 JUMPI PUSH2 0x100 DUP1 DUP4 SLOAD DIV MUL DUP4 MSTORE SWAP2 PUSH1 0x20 ADD SWAP2 PUSH2 0x4E2 JUMP JUMPDEST DUP3 ADD SWAP2 SWAP1 PUSH0 MSTORE PUSH1 0x20 PUSH0 KECCAK256 SWAP1 JUMPDEST DUP2 SLOAD DUP2 MSTORE SWAP1 PUSH1 0x1 ADD SWAP1 PUSH1 0x20 ADD DUP1 DUP4 GT PUSH2 0x4C5 JUMPI DUP3 SWAP1 SUB PUSH1 0x1F AND DUP3 ADD SWAP2 JUMPDEST POP POP POP POP POP SWAP1 POP SWAP1 JUMP JUMPDEST PUSH0 PUSH2 0x4F6 DUP3 PUSH2 0xA0B JUMP JUMPDEST POP PUSH2 0x500 DUP3 PUSH2 0xA91 JUMP JUMPDEST SWAP1 POP SWAP2 SWAP1 POP JUMP JUMPDEST PUSH2 0x519 DUP3 DUP3 PUSH2 0x514 PUSH2 0xACA JUMP JUMPDEST PUSH2 0xAD1 JUMP JUMPDEST POP POP JUMP JUMPDEST PUSH0 PUSH20 0xFFFFFFFFFFFFFFFFFFFFFFFFFFFFFFFFFFFFFFFF AND DUP3 PUSH20 0xFFFFFFFFFFFFFFFFFFFFFFFFFFFFFFFFFFFFFFFF AND SUB PUSH2 0x58D JUMPI PUSH0 PUSH1 0x40 MLOAD PUSH32 0x64A0AE9200000000000000000000000000000000000000000000000000000000 DUP2 MSTORE PUSH1 0x4 ADD PUSH2 0x584 SWAP2 SWAP1 PUSH2 0x1A65 JUMP JUMPDEST PUSH1 0x40 MLOAD DUP1 SWAP2 SUB SWAP1 REVERT JUMPDEST PUSH0 PUSH2 0x5A0 DUP4 DUP4 PUSH2 0x59B PUSH2 0xACA JUMP JUMPDEST PUSH2 0xAE3 JUMP JUMPDEST SWAP1 POP DUP4 PUSH20 0xFFFFFFFFFFFFFFFFFFFFFFFFFFFFFFFFFFFFFFFF AND DUP2 PUSH20 0xFFFFFFFFFFFFFFFFFFFFFFFFFFFFFFFFFFFFFFFF AND EQ PUSH2 0x616 JUMPI DUP4 DUP3 DUP3 PUSH1 0x40 MLOAD PUSH32 0x64283D7B00000000000000000000000000000000000000000000000000000000 DUP2 MSTORE PUSH1 0x4 ADD PUSH2 0x60D SWAP4 SWAP3 SWAP2 SWAP1 PUSH2 0x1E38 JUMP JUMPDEST PUSH1 0x40 MLOAD DUP1 SWAP2 SUB SWAP1 REVERT JUMPDEST POP POP POP POP JUMP JUMPDEST PUSH2 0x624 PUSH2 0xCEE JUMP JUMPDEST PUSH2 0x62E DUP3 DUP3 PUSH2 0xD75 JUMP JUMPDEST POP POP JUMP JUMPDEST PUSH2 0x64C DUP4 DUP4 DUP4 PUSH1 0x40 MLOAD DUP1 PUSH1 0x20 ADD PUSH1 0x40 MSTORE DUP1 PUSH0 DUP2 MSTORE POP PUSH2 0x80D JUMP JUMPDEST POP POP POP JUMP JUMPDEST PUSH2 0x659 PUSH2 0xCEE JUMP JUMPDEST PUSH2 0x662 DUP2 PUSH2 0xE68 JUMP JUMPDEST POP JUMP JUMPDEST PUSH0 PUSH2 0x66F DUP3 PUSH2 0xA0B JUMP JUMPDEST SWAP1 POP SWAP2 SWAP1 POP JUMP JUMPDEST PUSH0 DUP1 PUSH20 0xFFFFFFFFFFFFFFFFFFFFFFFFFFFFFFFFFFFFFFFF AND DUP3 PUSH20 0xFFFFFFFFFFFFFFFFFFFFFFFFFFFFFFFFFFFFFFFF AND SUB PUSH2 0x6E7 JUMPI PUSH0 PUSH1 0x40 MLOAD PUSH32 0x89C62B6400000000000000000000000000000000000000000000000000000000 DUP2 MSTORE PUSH1 0x4 ADD PUSH2 0x6DE SWAP2 SWAP1 PUSH2 0x1A65 JUMP JUMPDEST PUSH1 0x40 MLOAD DUP1 SWAP2 SUB SWAP1 REVERT JUMPDEST PUSH1 0x3 PUSH0 DUP4 PUSH20 0xFFFFFFFFFFFFFFFFFFFFFFFFFFFFFFFFFFFFFFFF AND PUSH20 0xFFFFFFFFFFFFFFFFFFFFFFFFFFFFFFFFFFFFFFFF AND DUP2 MSTORE PUSH1 0x20 ADD SWAP1 DUP2 MSTORE PUSH1 0x20 ADD PUSH0 KECCAK256 SLOAD SWAP1 POP SWAP2 SWAP1 POP JUMP JUMPDEST PUSH2 0x734 PUSH2 0xCEE JUMP JUMPDEST PUSH2 0x73D PUSH0 PUSH2 0xEEA JUMP JUMPDEST JUMP JUMPDEST PUSH0 PUSH1 0x6 PUSH0 SWAP1 SLOAD SWAP1 PUSH2 0x100 EXP SWAP1 DIV PUSH20 0xFFFFFFFFFFFFFFFFFFFFFFFFFFFFFFFFFFFFFFFF AND SWAP1 POP SWAP1 JUMP JUMPDEST PUSH1 0x60 PUSH1 0x1 DUP1 SLOAD PUSH2 0x776 SWAP1 PUSH2 0x1E08 JUMP JUMPDEST DUP1 PUSH1 0x1F ADD PUSH1 0x20 DUP1 SWAP2 DIV MUL PUSH1 0x20 ADD PUSH1 0x40 MLOAD SWAP1 DUP2 ADD PUSH1 0x40 MSTORE DUP1 SWAP3 SWAP2 SWAP1 DUP2 DUP2 MSTORE PUSH1 0x20 ADD DUP3 DUP1 SLOAD PUSH2 0x7A2 SWAP1 PUSH2 0x1E08 JUMP JUMPDEST DUP1 ISZERO PUSH2 0x7ED JUMPI DUP1 PUSH1 0x1F LT PUSH2 0x7C4 JUMPI PUSH2 0x100 DUP1 DUP4 SLOAD DIV MUL DUP4 MSTORE SWAP2 PUSH1 0x20 ADD SWAP2 PUSH2 0x7ED JUMP JUMPDEST DUP3 ADD SWAP2 SWAP1 PUSH0 MSTORE PUSH1 0x20 PUSH0 KECCAK256 SWAP1 JUMPDEST DUP2 SLOAD DUP2 MSTORE SWAP1 PUSH1 0x1 ADD SWAP1 PUSH1 0x20 ADD DUP1 DUP4 GT PUSH2 0x7D0 JUMPI DUP3 SWAP1 SUB PUSH1 0x1F AND DUP3 ADD SWAP2 JUMPDEST POP POP POP POP POP SWAP1 POP SWAP1 JUMP JUMPDEST PUSH2 0x809 PUSH2 0x802 PUSH2 0xACA JUMP JUMPDEST DUP4 DUP4 PUSH2 0xFAD JUMP JUMPDEST POP POP JUMP JUMPDEST PUSH2 0x818 DUP5 DUP5 DUP5 PUSH2 0x51D JUMP JUMPDEST PUSH2 0x824 DUP5 DUP5 DUP5 DUP5 PUSH2 0x1116 JUMP JUMPDEST POP POP POP POP JUMP JUMPDEST PUSH1 0x60 PUSH2 0x835 DUP3 PUSH2 0xA0B JUMP JUMPDEST POP PUSH0 PUSH2 0x83F PUSH2 0x12C8 JUMP JUMPDEST SWAP1 POP PUSH0 DUP2 MLOAD GT PUSH2 0x85D JUMPI PUSH1 0x40 MLOAD DUP1 PUSH1 0x20 ADD PUSH1 0x40 MSTORE DUP1 PUSH0 DUP2 MSTORE POP PUSH2 0x888 JUMP JUMPDEST DUP1 PUSH2 0x867 DUP5 PUSH2 0x12DE JUMP JUMPDEST PUSH1 0x40 MLOAD PUSH1 0x20 ADD PUSH2 0x878 SWAP3 SWAP2 SWAP1 PUSH2 0x1EA7 JUMP JUMPDEST PUSH1 0x40 MLOAD PUSH1 0x20 DUP2 DUP4 SUB SUB DUP2 MSTORE SWAP1 PUSH1 0x40 MSTORE JUMPDEST SWAP2 POP POP SWAP2 SWAP1 POP JUMP JUMPDEST PUSH0 PUSH1 0x5 PUSH0 DUP5 PUSH20 0xFFFFFFFFFFFFFFFFFFFFFFFFFFFFFFFFFFFFFFFF AND PUSH20 0xFFFFFFFFFFFFFFFFFFFFFFFFFFFFFFFFFFFFFFFF AND DUP2 MSTORE PUSH1 0x20 ADD SWAP1 DUP2 MSTORE PUSH1 0x20 ADD PUSH0 KECCAK256 PUSH0 DUP4 PUSH20 0xFFFFFFFFFFFFFFFFFFFFFFFFFFFFFFFFFFFFFFFF AND PUSH20 0xFFFFFFFFFFFFFFFFFFFFFFFFFFFFFFFFFFFFFFFF AND DUP2 MSTORE PUSH1 0x20 ADD SWAP1 DUP2 MSTORE PUSH1 0x20 ADD PUSH0 KECCAK256 PUSH0 SWAP1 SLOAD SWAP1 PUSH2 0x100 EXP SWAP1 DIV PUSH1 0xFF AND SWAP1 POP SWAP3 SWAP2 POP POP JUMP JUMPDEST PUSH2 0x926 PUSH2 0xCEE JUMP JUMPDEST PUSH0 PUSH20 0xFFFFFFFFFFFFFFFFFFFFFFFFFFFFFFFFFFFFFFFF AND DUP2 PUSH20 0xFFFFFFFFFFFFFFFFFFFFFFFFFFFFFFFFFFFFFFFF AND SUB PUSH2 0x996 JUMPI PUSH0 PUSH1 0x40 MLOAD PUSH32 0x1E4FBDF700000000000000000000000000000000000000000000000000000000 DUP2 MSTORE PUSH1 0x4 ADD PUSH2 0x98D SWAP2 SWAP1 PUSH2 0x1A65 JUMP JUMPDEST PUSH1 0x40 MLOAD DUP1 SWAP2 SUB SWAP1 REVERT JUMPDEST PUSH2 0x99F DUP2 PUSH2 0xEEA JUMP JUMPDEST POP JUMP JUMPDEST PUSH0 PUSH32 0x1FFC9A700000000000000000000000000000000000000000000000000000000 PUSH28 0xFFFFFFFFFFFFFFFFFFFFFFFFFFFFFFFFFFFFFFFFFFFFFFFFFFFFFFFF NOT AND DUP3 PUSH28 0xFFFFFFFFFFFFFFFFFFFFFFFFFFFFFFFFFFFFFFFFFFFFFFFFFFFFFFFF NOT AND EQ SWAP1 POP SWAP2 SWAP1 POP JUMP JUMPDEST PUSH0 DUP1 PUSH2 0xA16 DUP4 PUSH2 0x13A8 JUMP JUMPDEST SWAP1 POP PUSH0 PUSH20 0xFFFFFFFFFFFFFFFFFFFFFFFFFFFFFFFFFFFFFFFF AND DUP2 PUSH20 0xFFFFFFFFFFFFFFFFFFFFFFFFFFFFFFFFFFFFFFFF AND SUB PUSH2 0xA88 JUMPI DUP3 PUSH1 0x40 MLOAD PUSH32 0x7E27328900000000000000000000000000000000000000000000000000000000 DUP2 MSTORE PUSH1 0x4 ADD PUSH2 0xA7F SWAP2 SWAP1 PUSH2 0x1B70 JUMP JUMPDEST PUSH1 0x40 MLOAD DUP1 SWAP2 SUB SWAP1 REVERT JUMPDEST DUP1 SWAP2 POP POP SWAP2 SWAP1 POP JUMP JUMPDEST PUSH0 PUSH1 0x4 PUSH0 DUP4 DUP2 MSTORE PUSH1 0x20 ADD SWAP1 DUP2 MSTORE PUSH1 0x20 ADD PUSH0 KECCAK256 PUSH0 SWAP1 SLOAD SWAP1 PUSH2 0x100 EXP SWAP1 DIV PUSH20 0xFFFFFFFFFFFFFFFFFFFFFFFFFFFFFFFFFFFFFFFF AND SWAP1 POP SWAP2 SWAP1 POP JUMP JUMPDEST PUSH0 CALLER SWAP1 POP SWAP1 JUMP JUMPDEST PUSH2 0xADE DUP4 DUP4 DUP4 PUSH1 0x1 PUSH2 0x13E1 JUMP JUMPDEST POP POP POP JUMP JUMPDEST PUSH0 DUP1 PUSH2 0xAEE DUP5 PUSH2 0x13A8 JUMP JUMPDEST SWAP1 POP PUSH0 PUSH20 0xFFFFFFFFFFFFFFFFFFFFFFFFFFFFFFFFFFFFFFFF AND DUP4 PUSH20 0xFFFFFFFFFFFFFFFFFFFFFFFFFFFFFFFFFFFFFFFF AND EQ PUSH2 0xB2F JUMPI PUSH2 0xB2E DUP2 DUP5 DUP7 PUSH2 0x15A0 JUMP JUMPDEST JUMPDEST PUSH0 PUSH20 0xFFFFFFFFFFFFFFFFFFFFFFFFFFFFFFFFFFFFFFFF AND DUP2 PUSH20 0xFFFFFFFFFFFFFFFFFFFFFFFFFFFFFFFFFFFFFFFF AND EQ PUSH2 0xBBA JUMPI PUSH2 0xB6E PUSH0 DUP6 PUSH0 DUP1 PUSH2 0x13E1 JUMP JUMPDEST PUSH1 0x1 PUSH1 0x3 PUSH0 DUP4 PUSH20 0xFFFFFFFFFFFFFFFFFFFFFFFFFFFFFFFFFFFFFFFF AND PUSH20 0xFFFFFFFFFFFFFFFFFFFFFFFFFFFFFFFFFFFFFFFF AND DUP2 MSTORE PUSH1 0x20 ADD SWAP1 DUP2 MSTORE PUSH1 0x20 ADD PUSH0 KECCAK256 PUSH0 DUP3 DUP3 SLOAD SUB SWAP3 POP POP DUP2 SWAP1 SSTORE POP JUMPDEST PUSH0 PUSH20 0xFFFFFFFFFFFFFFFFFFFFFFFFFFFFFFFFFFFFFFFF AND DUP6 PUSH20 0xFFFFFFFFFFFFFFFFFFFFFFFFFFFFFFFFFFFFFFFF AND EQ PUSH2 0xC39 JUMPI PUSH1 0x1 PUSH1 0x3 PUSH0 DUP8 PUSH20 0xFFFFFFFFFFFFFFFFFFFFFFFFFFFFFFFFFFFFFFFF AND PUSH20 0xFFFFFFFFFFFFFFFFFFFFFFFFFFFFFFFFFFFFFFFF AND DUP2 MSTORE PUSH1 0x20 ADD SWAP1 DUP2 MSTORE PUSH1 0x20 ADD PUSH0 KECCAK256 PUSH0 DUP3 DUP3 SLOAD ADD SWAP3 POP POP DUP2 SWAP1 SSTORE POP JUMPDEST DUP5 PUSH1 0x2 PUSH0 DUP7 DUP2 MSTORE PUSH1 0x20 ADD SWAP1 DUP2 MSTORE PUSH1 0x20 ADD PUSH0 KECCAK256 PUSH0 PUSH2 0x100 EXP DUP2 SLOAD DUP2 PUSH20 0xFFFFFFFFFFFFFFFFFFFFFFFFFFFFFFFFFFFFFFFF MUL NOT AND SWAP1 DUP4 PUSH20 0xFFFFFFFFFFFFFFFFFFFFFFFFFFFFFFFFFFFFFFFF AND MUL OR SWAP1 SSTORE POP DUP4 DUP6 PUSH20 0xFFFFFFFFFFFFFFFFFFFFFFFFFFFFFFFFFFFFFFFF AND DUP3 PUSH20 0xFFFFFFFFFFFFFFFFFFFFFFFFFFFFFFFFFFFFFFFF AND PUSH32 0xDDF252AD1BE2C89B69C2B068FC378DAA952BA7F163C4A11628F55A4DF523B3EF PUSH1 0x40 MLOAD PUSH1 0x40 MLOAD DUP1 SWAP2 SUB SWAP1 LOG4 DUP1 SWAP2 POP POP SWAP4 SWAP3 POP POP POP JUMP JUMPDEST PUSH2 0xCF6 PUSH2 0xACA JUMP JUMPDEST PUSH20 0xFFFFFFFFFFFFFFFFFFFFFFFFFFFFFFFFFFFFFFFF AND PUSH2 0xD14 PUSH2 0x73F JUMP JUMPDEST PUSH20 0xFFFFFFFFFFFFFFFFFFFFFFFFFFFFFFFFFFFFFFFF AND EQ PUSH2 0xD73 JUMPI PUSH2 0xD37 PUSH2 0xACA JUMP JUMPDEST PUSH1 0x40 MLOAD PUSH32 0x118CDAA700000000000000000000000000000000000000000000000000000000 DUP2 MSTORE PUSH1 0x4 ADD PUSH2 0xD6A SWAP2 SWAP1 PUSH2 0x1A65 JUMP JUMPDEST PUSH1 0x40 MLOAD DUP1 SWAP2 SUB SWAP1 REVERT JUMPDEST JUMP JUMPDEST PUSH0 PUSH20 0xFFFFFFFFFFFFFFFFFFFFFFFFFFFFFFFFFFFFFFFF AND DUP3 PUSH20 0xFFFFFFFFFFFFFFFFFFFFFFFFFFFFFFFFFFFFFFFF AND SUB PUSH2 0xDE5 JUMPI PUSH0 PUSH1 0x40 MLOAD PUSH32 0x64A0AE9200000000000000000000000000000000000000000000000000000000 DUP2 MSTORE PUSH1 0x4 ADD PUSH2 0xDDC SWAP2 SWAP1 PUSH2 0x1A65 JUMP JUMPDEST PUSH1 0x40 MLOAD DUP1 SWAP2 SUB SWAP1 REVERT JUMPDEST PUSH0 PUSH2 0xDF1 DUP4 DUP4 PUSH0 PUSH2 0xAE3 JUMP JUMPDEST SWAP1 POP PUSH0 PUSH20 0xFFFFFFFFFFFFFFFFFFFFFFFFFFFFFFFFFFFFFFFF AND DUP2 PUSH20 0xFFFFFFFFFFFFFFFFFFFFFFFFFFFFFFFFFFFFFFFF AND EQ PUSH2 0xE63 JUMPI PUSH0 PUSH1 0x40 MLOAD PUSH32 0x73C6AC6E00000000000000000000000000000000000000000000000000000000 DUP2 MSTORE PUSH1 0x4 ADD PUSH2 0xE5A SWAP2 SWAP1 PUSH2 0x1A65 JUMP JUMPDEST PUSH1 0x40 MLOAD DUP1 SWAP2 SUB SWAP1 REVERT JUMPDEST POP POP POP JUMP JUMPDEST PUSH0 PUSH2 0xE74 PUSH0 DUP4 PUSH0 PUSH2 0xAE3 JUMP JUMPDEST SWAP1 POP PUSH0 PUSH20 0xFFFFFFFFFFFFFFFFFFFFFFFFFFFFFFFFFFFFFFFF AND DUP2 PUSH20 0xFFFFFFFFFFFFFFFFFFFFFFFFFFFFFFFFFFFFFFFF AND SUB PUSH2 0xEE6 JUMPI DUP2 PUSH1 0x40 MLOAD PUSH32 0x7E27328900000000000000000000000000000000000000000000000000000000 DUP2 MSTORE PUSH1 0x4 ADD PUSH2 0xEDD SWAP2 SWAP1 PUSH2 0x1B70 JUMP JUMPDEST PUSH1 0x40 MLOAD DUP1 SWAP2 SUB SWAP1 REVERT JUMPDEST POP POP JUMP JUMPDEST PUSH0 PUSH1 0x6 PUSH0 SWAP1 SLOAD SWAP1 PUSH2 0x100 EXP SWAP1 DIV PUSH20 0xFFFFFFFFFFFFFFFFFFFFFFFFFFFFFFFFFFFFFFFF AND SWAP1 POP DUP2 PUSH1 0x6 PUSH0 PUSH2 0x100 EXP DUP2 SLOAD DUP2 PUSH20 0xFFFFFFFFFFFFFFFFFFFFFFFFFFFFFFFFFFFFFFFF MUL NOT AND SWAP1 DUP4 PUSH20 0xFFFFFFFFFFFFFFFFFFFFFFFFFFFFFFFFFFFFFFFF AND MUL OR SWAP1 SSTORE POP DUP2 PUSH20 0xFFFFFFFFFFFFFFFFFFFFFFFFFFFFFFFFFFFFFFFF AND DUP2 PUSH20 0xFFFFFFFFFFFFFFFFFFFFFFFFFFFFFFFFFFFFFFFF AND PUSH32 0x8BE0079C531659141344CD1FD0A4F28419497F9722A3DAAFE3B4186F6B6457E0 PUSH1 0x40 MLOAD PUSH1 0x40 MLOAD DUP1 SWAP2 SUB SWAP1 LOG3 POP POP JUMP JUMPDEST PUSH0 PUSH20 0xFFFFFFFFFFFFFFFFFFFFFFFFFFFFFFFFFFFFFFFF AND DUP3 PUSH20 0xFFFFFFFFFFFFFFFFFFFFFFFFFFFFFFFFFFFFFFFF AND SUB PUSH2 0x101D JUMPI DUP2 PUSH1 0x40 MLOAD PUSH32 0x5B08BA1800000000000000000000000000000000000000000000000000000000 DUP2 MSTORE PUSH1 0x4 ADD PUSH2 0x1014 SWAP2 SWAP1 PUSH2 0x1A65 JUMP JUMPDEST PUSH1 0x40 MLOAD DUP1 SWAP2 SUB SWAP1 REVERT JUMPDEST DUP1 PUSH1 0x5 PUSH0 DUP6 PUSH20 0xFFFFFFFFFFFFFFFFFFFFFFFFFFFFFFFFFFFFFFFF AND PUSH20 0xFFFFFFFFFFFFFFFFFFFFFFFFFFFFFFFFFFFFFFFF AND DUP2 MSTORE PUSH1 0x20 ADD SWAP1 DUP2 MSTORE PUSH1 0x20 ADD PUSH0 KECCAK256 PUSH0 DUP5 PUSH20 0xFFFFFFFFFFFFFFFFFFFFFFFFFFFFFFFFFFFFFFFF AND PUSH20 0xFFFFFFFFFFFFFFFFFFFFFFFFFFFFFFFFFFFFFFFF AND DUP2 MSTORE PUSH1 0x20 ADD SWAP1 DUP2 MSTORE PUSH1 0x20 ADD PUSH0 KECCAK256 PUSH0 PUSH2 0x100 EXP DUP2 SLOAD DUP2 PUSH1 0xFF MUL NOT AND SWAP1 DUP4 ISZERO ISZERO MUL OR SWAP1 SSTORE POP DUP2 PUSH20 0xFFFFFFFFFFFFFFFFFFFFFFFFFFFFFFFFFFFFFFFF AND DUP4 PUSH20 0xFFFFFFFFFFFFFFFFFFFFFFFFFFFFFFFFFFFFFFFF AND PUSH32 0x17307EAB39AB6107E8899845AD3D59BD9653F200F220920489CA2B5937696C31 DUP4 PUSH1 0x40 MLOAD PUSH2 0x1109 SWAP2 SWAP1 PUSH2 0x191F JUMP JUMPDEST PUSH1 0x40 MLOAD DUP1 SWAP2 SUB SWAP1 LOG3 POP POP POP JUMP JUMPDEST PUSH0 DUP4 PUSH20 0xFFFFFFFFFFFFFFFFFFFFFFFFFFFFFFFFFFFFFFFF AND EXTCODESIZE GT ISZERO PUSH2 0x12C2 JUMPI DUP3 PUSH20 0xFFFFFFFFFFFFFFFFFFFFFFFFFFFFFFFFFFFFFFFF AND PUSH4 0x150B7A02 PUSH2 0x1159 PUSH2 0xACA JUMP JUMPDEST DUP7 DUP6 DUP6 PUSH1 0x40 MLOAD DUP6 PUSH4 0xFFFFFFFF AND PUSH1 0xE0 SHL DUP2 MSTORE PUSH1 0x4 ADD PUSH2 0x117B SWAP5 SWAP4 SWAP3 SWAP2 SWAP1 PUSH2 0x1F1C JUMP JUMPDEST PUSH1 0x20 PUSH1 0x40 MLOAD DUP1 DUP4 SUB DUP2 PUSH0 DUP8 GAS CALL SWAP3 POP POP POP DUP1 ISZERO PUSH2 0x11B6 JUMPI POP PUSH1 0x40 MLOAD RETURNDATASIZE PUSH1 0x1F NOT PUSH1 0x1F DUP3 ADD AND DUP3 ADD DUP1 PUSH1 0x40 MSTORE POP DUP2 ADD SWAP1 PUSH2 0x11B3 SWAP2 SWAP1 PUSH2 0x1F7A JUMP JUMPDEST PUSH1 0x1 JUMPDEST PUSH2 0x1237 JUMPI RETURNDATASIZE DUP1 PUSH0 DUP2 EQ PUSH2 0x11E4 JUMPI PUSH1 0x40 MLOAD SWAP2 POP PUSH1 0x1F NOT PUSH1 0x3F RETURNDATASIZE ADD AND DUP3 ADD PUSH1 0x40 MSTORE RETURNDATASIZE DUP3 MSTORE RETURNDATASIZE PUSH0 PUSH1 0x20 DUP5 ADD RETURNDATACOPY PUSH2 0x11E9 JUMP JUMPDEST PUSH1 0x60 SWAP2 POP JUMPDEST POP PUSH0 DUP2 MLOAD SUB PUSH2 0x122F JUMPI DUP4 PUSH1 0x40 MLOAD PUSH32 0x64A0AE9200000000000000000000000000000000000000000000000000000000 DUP2 MSTORE PUSH1 0x4 ADD PUSH2 0x1226 SWAP2 SWAP1 PUSH2 0x1A65 JUMP JUMPDEST PUSH1 0x40 MLOAD DUP1 SWAP2 SUB SWAP1 REVERT JUMPDEST DUP1 MLOAD DUP2 PUSH1 0x20 ADD REVERT JUMPDEST PUSH4 0x150B7A02 PUSH1 0xE0 SHL PUSH28 0xFFFFFFFFFFFFFFFFFFFFFFFFFFFFFFFFFFFFFFFFFFFFFFFFFFFFFFFF NOT AND DUP2 PUSH28 0xFFFFFFFFFFFFFFFFFFFFFFFFFFFFFFFFFFFFFFFFFFFFFFFFFFFFFFFF NOT AND EQ PUSH2 0x12C0 JUMPI DUP4 PUSH1 0x40 MLOAD PUSH32 0x64A0AE9200000000000000000000000000000000000000000000000000000000 DUP2 MSTORE PUSH1 0x4 ADD PUSH2 0x12B7 SWAP2 SWAP1 PUSH2 0x1A65 JUMP JUMPDEST PUSH1 0x40 MLOAD DUP1 SWAP2 SUB SWAP1 REVERT JUMPDEST POP JUMPDEST POP POP POP POP JUMP JUMPDEST PUSH1 0x60 PUSH1 0x40 MLOAD DUP1 PUSH1 0x20 ADD PUSH1 0x40 MSTORE DUP1 PUSH0 DUP2 MSTORE POP SWAP1 POP SWAP1 JUMP JUMPDEST PUSH1 0x60 PUSH0 PUSH1 0x1 PUSH2 0x12EC DUP5 PUSH2 0x1663 JUMP JUMPDEST ADD SWAP1 POP PUSH0 DUP2 PUSH8 0xFFFFFFFFFFFFFFFF DUP2 GT ISZERO PUSH2 0x130A JUMPI PUSH2 0x1309 PUSH2 0x1BF9 JUMP JUMPDEST JUMPDEST PUSH1 0x40 MLOAD SWAP1 DUP1 DUP3 MSTORE DUP1 PUSH1 0x1F ADD PUSH1 0x1F NOT AND PUSH1 0x20 ADD DUP3 ADD PUSH1 0x40 MSTORE DUP1 ISZERO PUSH2 0x133C JUMPI DUP2 PUSH1 0x20 ADD PUSH1 0x1 DUP3 MUL DUP1 CALLDATASIZE DUP4 CALLDATACOPY DUP1 DUP3 ADD SWAP2 POP POP SWAP1 POP JUMPDEST POP SWAP1 POP PUSH0 DUP3 PUSH1 0x20 ADD DUP3 ADD SWAP1 POP JUMPDEST PUSH1 0x1 ISZERO PUSH2 0x139D JUMPI DUP1 DUP1 PUSH1 0x1 SWAP1 SUB SWAP2 POP POP PUSH32 0x3031323334353637383961626364656600000000000000000000000000000000 PUSH1 0xA DUP7 MOD BYTE DUP2 MSTORE8 PUSH1 0xA DUP6 DUP2 PUSH2 0x1392 JUMPI PUSH2 0x1391 PUSH2 0x1FA5 JUMP JUMPDEST JUMPDEST DIV SWAP5 POP PUSH0 DUP6 SUB PUSH2 0x1349 JUMPI JUMPDEST DUP2 SWAP4 POP POP POP POP SWAP2 SWAP1 POP JUMP JUMPDEST PUSH0 PUSH1 0x2 PUSH0 DUP4 DUP2 MSTORE PUSH1 0x20 ADD SWAP1 DUP2 MSTORE PUSH1 0x20 ADD PUSH0 KECCAK256 PUSH0 SWAP1 SLOAD SWAP1 PUSH2 0x100 EXP SWAP1 DIV PUSH20 0xFFFFFFFFFFFFFFFFFFFFFFFFFFFFFFFFFFFFFFFF AND SWAP1 POP SWAP2 SWAP1 POP JUMP JUMPDEST DUP1 DUP1 PUSH2 0x1419 JUMPI POP PUSH0 PUSH20 0xFFFFFFFFFFFFFFFFFFFFFFFFFFFFFFFFFFFFFFFF AND DUP3 PUSH20 0xFFFFFFFFFFFFFFFFFFFFFFFFFFFFFFFFFFFFFFFF AND EQ ISZERO JUMPDEST ISZERO PUSH2 0x154B JUMPI PUSH0 PUSH2 0x1428 DUP5 PUSH2 0xA0B JUMP JUMPDEST SWAP1 POP PUSH0 PUSH20 0xFFFFFFFFFFFFFFFFFFFFFFFFFFFFFFFFFFFFFFFF AND DUP4 PUSH20 0xFFFFFFFFFFFFFFFFFFFFFFFFFFFFFFFFFFFFFFFF AND EQ ISZERO DUP1 ISZERO PUSH2 0x1492 JUMPI POP DUP3 PUSH20 0xFFFFFFFFFFFFFFFFFFFFFFFFFFFFFFFFFFFFFFFF AND DUP2 PUSH20 0xFFFFFFFFFFFFFFFFFFFFFFFFFFFFFFFFFFFFFFFF AND EQ ISZERO JUMPDEST DUP1 ISZERO PUSH2 0x14A5 JUMPI POP PUSH2 0x14A3 DUP2 DUP5 PUSH2 0x890 JUMP JUMPDEST ISZERO JUMPDEST ISZERO PUSH2 0x14E7 JUMPI DUP3 PUSH1 0x40 MLOAD PUSH32 0xA9FBF51F00000000000000000000000000000000000000000000000000000000 DUP2 MSTORE PUSH1 0x4 ADD PUSH2 0x14DE SWAP2 SWAP1 PUSH2 0x1A65 JUMP JUMPDEST PUSH1 0x40 MLOAD DUP1 SWAP2 SUB SWAP1 REVERT JUMPDEST DUP2 ISZERO PUSH2 0x1549 JUMPI DUP4 DUP6 PUSH20 0xFFFFFFFFFFFFFFFFFFFFFFFFFFFFFFFFFFFFFFFF AND DUP3 PUSH20 0xFFFFFFFFFFFFFFFFFFFFFFFFFFFFFFFFFFFFFFFF AND PUSH32 0x8C5BE1E5EBEC7D5BD14F71427D1E84F3DD0314C0F7B2291E5B200AC8C7C3B925 PUSH1 0x40 MLOAD PUSH1 0x40 MLOAD DUP1 SWAP2 SUB SWAP1 LOG4 JUMPDEST POP JUMPDEST DUP4 PUSH1 0x4 PUSH0 DUP6 DUP2 MSTORE PUSH1 0x20 ADD SWAP1 DUP2 MSTORE PUSH1 0x20 ADD PUSH0 KECCAK256 PUSH0 PUSH2 0x100 EXP DUP2 SLOAD DUP2 PUSH20 0xFFFFFFFFFFFFFFFFFFFFFFFFFFFFFFFFFFFFFFFF MUL NOT AND SWAP1 DUP4 PUSH20 0xFFFFFFFFFFFFFFFFFFFFFFFFFFFFFFFFFFFFFFFF AND MUL OR SWAP1 SSTORE POP POP POP POP POP JUMP JUMPDEST PUSH2 0x15AB DUP4 DUP4 DUP4 PUSH2 0x17B4 JUMP JUMPDEST PUSH2 0x165E JUMPI PUSH0 PUSH20 0xFFFFFFFFFFFFFFFFFFFFFFFFFFFFFFFFFFFFFFFF AND DUP4 PUSH20 0xFFFFFFFFFFFFFFFFFFFFFFFFFFFFFFFFFFFFFFFF AND SUB PUSH2 0x161F JUMPI DUP1 PUSH1 0x40 MLOAD PUSH32 0x7E27328900000000000000000000000000000000000000000000000000000000 DUP2 MSTORE PUSH1 0x4 ADD PUSH2 0x1616 SWAP2 SWAP1 PUSH2 0x1B70 JUMP JUMPDEST PUSH1 0x40 MLOAD DUP1 SWAP2 SUB SWAP1 REVERT JUMPDEST DUP2 DUP2 PUSH1 0x40 MLOAD PUSH32 0x177E802F00000000000000000000000000000000000000000000000000000000 DUP2 MSTORE PUSH1 0x4 ADD PUSH2 0x1655 SWAP3 SWAP2 SWAP1 PUSH2 0x1FD2 JUMP JUMPDEST PUSH1 0x40 MLOAD DUP1 SWAP2 SUB SWAP1 REVERT JUMPDEST POP POP POP JUMP JUMPDEST PUSH0 DUP1 PUSH0 SWAP1 POP PUSH27 0x184F03E93FF9F4DAA797ED6E38ED64BF6A1F010000000000000000 DUP4 LT PUSH2 0x16BF JUMPI PUSH27 0x184F03E93FF9F4DAA797ED6E38ED64BF6A1F010000000000000000 DUP4 DUP2 PUSH2 0x16B5 JUMPI PUSH2 0x16B4 PUSH2 0x1FA5 JUMP JUMPDEST JUMPDEST DIV SWAP3 POP PUSH1 0x40 DUP2 ADD SWAP1 POP JUMPDEST PUSH14 0x4EE2D6D415B85ACEF8100000000 DUP4 LT PUSH2 0x16FC JUMPI PUSH14 0x4EE2D6D415B85ACEF8100000000 DUP4 DUP2 PUSH2 0x16F2 JUMPI PUSH2 0x16F1 PUSH2 0x1FA5 JUMP JUMPDEST JUMPDEST DIV SWAP3 POP PUSH1 0x20 DUP2 ADD SWAP1 POP JUMPDEST PUSH7 0x2386F26FC10000 DUP4 LT PUSH2 0x172B JUMPI PUSH7 0x2386F26FC10000 DUP4 DUP2 PUSH2 0x1721 JUMPI PUSH2 0x1720 PUSH2 0x1FA5 JUMP JUMPDEST JUMPDEST DIV SWAP3 POP PUSH1 0x10 DUP2 ADD SWAP1 POP JUMPDEST PUSH4 0x5F5E100 DUP4 LT PUSH2 0x1754 JUMPI PUSH4 0x5F5E100 DUP4 DUP2 PUSH2 0x174A JUMPI PUSH2 0x1749 PUSH2 0x1FA5 JUMP JUMPDEST JUMPDEST DIV SWAP3 POP PUSH1 0x8 DUP2 ADD SWAP1 POP JUMPDEST PUSH2 0x2710 DUP4 LT PUSH2 0x1779 JUMPI PUSH2 0x2710 DUP4 DUP2 PUSH2 0x176F JUMPI PUSH2 0x176E PUSH2 0x1FA5 JUMP JUMPDEST JUMPDEST DIV SWAP3 POP PUSH1 0x4 DUP2 ADD SWAP1 POP JUMPDEST PUSH1 0x64 DUP4 LT PUSH2 0x179C JUMPI PUSH1 0x64 DUP4 DUP2 PUSH2 0x1792 JUMPI PUSH2 0x1791 PUSH2 0x1FA5 JUMP JUMPDEST JUMPDEST DIV SWAP3 POP PUSH1 0x2 DUP2 ADD SWAP1 POP JUMPDEST PUSH1 0xA DUP4 LT PUSH2 0x17AB JUMPI PUSH1 0x1 DUP2 ADD SWAP1 POP JUMPDEST DUP1 SWAP2 POP POP SWAP2 SWAP1 POP JUMP JUMPDEST PUSH0 DUP1 PUSH20 0xFFFFFFFFFFFFFFFFFFFFFFFFFFFFFFFFFFFFFFFF AND DUP4 PUSH20 0xFFFFFFFFFFFFFFFFFFFFFFFFFFFFFFFFFFFFFFFF AND EQ ISZERO DUP1 ISZERO PUSH2 0x186B JUMPI POP DUP3 PUSH20 0xFFFFFFFFFFFFFFFFFFFFFFFFFFFFFFFFFFFFFFFF AND DUP5 PUSH20 0xFFFFFFFFFFFFFFFFFFFFFFFFFFFFFFFFFFFFFFFF AND EQ DUP1 PUSH2 0x182C JUMPI POP PUSH2 0x182B DUP5 DUP5 PUSH2 0x890 JUMP JUMPDEST JUMPDEST DUP1 PUSH2 0x186A JUMPI POP DUP3 PUSH20 0xFFFFFFFFFFFFFFFFFFFFFFFFFFFFFFFFFFFFFFFF AND PUSH2 0x1852 DUP4 PUSH2 0xA91 JUMP JUMPDEST PUSH20 0xFFFFFFFFFFFFFFFFFFFFFFFFFFFFFFFFFFFFFFFF AND EQ JUMPDEST JUMPDEST SWAP1 POP SWAP4 SWAP3 POP POP POP JUMP JUMPDEST PUSH0 PUSH1 0x40 MLOAD SWAP1 POP SWAP1 JUMP JUMPDEST PUSH0 DUP1 REVERT JUMPDEST PUSH0 DUP1 REVERT JUMPDEST PUSH0 PUSH32 0xFFFFFFFF00000000000000000000000000000000000000000000000000000000 DUP3 AND SWAP1 POP SWAP2 SWAP1 POP JUMP JUMPDEST PUSH2 0x18B9 DUP2 PUSH2 0x1885 JUMP JUMPDEST DUP2 EQ PUSH2 0x18C3 JUMPI PUSH0 DUP1 REVERT JUMPDEST POP JUMP JUMPDEST PUSH0 DUP2 CALLDATALOAD SWAP1 POP PUSH2 0x18D4 DUP2 PUSH2 0x18B0 JUMP JUMPDEST SWAP3 SWAP2 POP POP JUMP JUMPDEST PUSH0 PUSH1 0x20 DUP3 DUP5 SUB SLT ISZERO PUSH2 0x18EF JUMPI PUSH2 0x18EE PUSH2 0x187D JUMP JUMPDEST JUMPDEST PUSH0 PUSH2 0x18FC DUP5 DUP3 DUP6 ADD PUSH2 0x18C6 JUMP JUMPDEST SWAP2 POP POP SWAP3 SWAP2 POP POP JUMP JUMPDEST PUSH0 DUP2 ISZERO ISZERO SWAP1 POP SWAP2 SWAP1 POP JUMP JUMPDEST PUSH2 0x1919 DUP2 PUSH2 0x1905 JUMP JUMPDEST DUP3 MSTORE POP POP JUMP JUMPDEST PUSH0 PUSH1 0x20 DUP3 ADD SWAP1 POP PUSH2 0x1932 PUSH0 DUP4 ADD DUP5 PUSH2 0x1910 JUMP JUMPDEST SWAP3 SWAP2 POP POP JUMP JUMPDEST PUSH0 DUP2 MLOAD SWAP1 POP SWAP2 SWAP1 POP JUMP JUMPDEST PUSH0 DUP3 DUP3 MSTORE PUSH1 0x20 DUP3 ADD SWAP1 POP SWAP3 SWAP2 POP POP JUMP JUMPDEST DUP3 DUP2 DUP4 MCOPY PUSH0 DUP4 DUP4 ADD MSTORE POP POP POP JUMP JUMPDEST PUSH0 PUSH1 0x1F NOT PUSH1 0x1F DUP4 ADD AND SWAP1 POP SWAP2 SWAP1 POP JUMP JUMPDEST PUSH0 PUSH2 0x197A DUP3 PUSH2 0x1938 JUMP JUMPDEST PUSH2 0x1984 DUP2 DUP6 PUSH2 0x1942 JUMP JUMPDEST SWAP4 POP PUSH2 0x1994 DUP2 DUP6 PUSH1 0x20 DUP7 ADD PUSH2 0x1952 JUMP JUMPDEST PUSH2 0x199D DUP2 PUSH2 0x1960 JUMP JUMPDEST DUP5 ADD SWAP2 POP POP SWAP3 SWAP2 POP POP JUMP JUMPDEST PUSH0 PUSH1 0x20 DUP3 ADD SWAP1 POP DUP2 DUP2 SUB PUSH0 DUP4 ADD MSTORE PUSH2 0x19C0 DUP2 DUP5 PUSH2 0x1970 JUMP JUMPDEST SWAP1 POP SWAP3 SWAP2 POP POP JUMP JUMPDEST PUSH0 DUP2 SWAP1 POP SWAP2 SWAP1 POP JUMP JUMPDEST PUSH2 0x19DA DUP2 PUSH2 0x19C8 JUMP JUMPDEST DUP2 EQ PUSH2 0x19E4 JUMPI PUSH0 DUP1 REVERT JUMPDEST POP JUMP JUMPDEST PUSH0 DUP2 CALLDATALOAD SWAP1 POP PUSH2 0x19F5 DUP2 PUSH2 0x19D1 JUMP JUMPDEST SWAP3 SWAP2 POP POP JUMP JUMPDEST PUSH0 PUSH1 0x20 DUP3 DUP5 SUB SLT ISZERO PUSH2 0x1A10 JUMPI PUSH2 0x1A0F PUSH2 0x187D JUMP JUMPDEST JUMPDEST PUSH0 PUSH2 0x1A1D DUP5 DUP3 DUP6 ADD PUSH2 0x19E7 JUMP JUMPDEST SWAP2 POP POP SWAP3 SWAP2 POP POP JUMP JUMPDEST PUSH0 PUSH20 0xFFFFFFFFFFFFFFFFFFFFFFFFFFFFFFFFFFFFFFFF DUP3 AND SWAP1 POP SWAP2 SWAP1 POP JUMP JUMPDEST PUSH0 PUSH2 0x1A4F DUP3 PUSH2 0x1A26 JUMP JUMPDEST SWAP1 POP SWAP2 SWAP1 POP JUMP JUMPDEST PUSH2 0x1A5F DUP2 PUSH2 0x1A45 JUMP JUMPDEST DUP3 MSTORE POP POP JUMP JUMPDEST PUSH0 PUSH1 0x20 DUP3 ADD SWAP1 POP PUSH2 0x1A78 PUSH0 DUP4 ADD DUP5 PUSH2 0x1A56 JUMP JUMPDEST SWAP3 SWAP2 POP POP JUMP JUMPDEST PUSH2 0x1A87 DUP2 PUSH2 0x1A45 JUMP JUMPDEST DUP2 EQ PUSH2 0x1A91 JUMPI PUSH0 DUP1 REVERT JUMPDEST POP JUMP JUMPDEST PUSH0 DUP2 CALLDATALOAD SWAP1 POP PUSH2 0x1AA2 DUP2 PUSH2 0x1A7E JUMP JUMPDEST SWAP3 SWAP2 POP POP JUMP JUMPDEST PUSH0 DUP1 PUSH1 0x40 DUP4 DUP6 SUB SLT ISZERO PUSH2 0x1ABE JUMPI PUSH2 0x1ABD PUSH2 0x187D JUMP JUMPDEST JUMPDEST PUSH0 PUSH2 0x1ACB DUP6 DUP3 DUP7 ADD PUSH2 0x1A94 JUMP JUMPDEST SWAP3 POP POP PUSH1 0x20 PUSH2 0x1ADC DUP6 DUP3 DUP7 ADD PUSH2 0x19E7 JUMP JUMPDEST SWAP2 POP POP SWAP3 POP SWAP3 SWAP1 POP JUMP JUMPDEST PUSH0 DUP1 PUSH0 PUSH1 0x60 DUP5 DUP7 SUB SLT ISZERO PUSH2 0x1AFD JUMPI PUSH2 0x1AFC PUSH2 0x187D JUMP JUMPDEST JUMPDEST PUSH0 PUSH2 0x1B0A DUP7 DUP3 DUP8 ADD PUSH2 0x1A94 JUMP JUMPDEST SWAP4 POP POP PUSH1 0x20 PUSH2 0x1B1B DUP7 DUP3 DUP8 ADD PUSH2 0x1A94 JUMP JUMPDEST SWAP3 POP POP PUSH1 0x40 PUSH2 0x1B2C DUP7 DUP3 DUP8 ADD PUSH2 0x19E7 JUMP JUMPDEST SWAP2 POP POP SWAP3 POP SWAP3 POP SWAP3 JUMP JUMPDEST PUSH0 PUSH1 0x20 DUP3 DUP5 SUB SLT ISZERO PUSH2 0x1B4B JUMPI PUSH2 0x1B4A PUSH2 0x187D JUMP JUMPDEST JUMPDEST PUSH0 PUSH2 0x1B58 DUP5 DUP3 DUP6 ADD PUSH2 0x1A94 JUMP JUMPDEST SWAP2 POP POP SWAP3 SWAP2 POP POP JUMP JUMPDEST PUSH2 0x1B6A DUP2 PUSH2 0x19C8 JUMP JUMPDEST DUP3 MSTORE POP POP JUMP JUMPDEST PUSH0 PUSH1 0x20 DUP3 ADD SWAP1 POP PUSH2 0x1B83 PUSH0 DUP4 ADD DUP5 PUSH2 0x1B61 JUMP JUMPDEST SWAP3 SWAP2 POP POP JUMP JUMPDEST PUSH2 0x1B92 DUP2 PUSH2 0x1905 JUMP JUMPDEST DUP2 EQ PUSH2 0x1B9C JUMPI PUSH0 DUP1 REVERT JUMPDEST POP JUMP JUMPDEST PUSH0 DUP2 CALLDATALOAD SWAP1 POP PUSH2 0x1BAD DUP2 PUSH2 0x1B89 JUMP JUMPDEST SWAP3 SWAP2 POP POP JUMP JUMPDEST PUSH0 DUP1 PUSH1 0x40 DUP4 DUP6 SUB SLT ISZERO PUSH2 0x1BC9 JUMPI PUSH2 0x1BC8 PUSH2 0x187D JUMP JUMPDEST JUMPDEST PUSH0 PUSH2 0x1BD6 DUP6 DUP3 DUP7 ADD PUSH2 0x1A94 JUMP JUMPDEST SWAP3 POP POP PUSH1 0x20 PUSH2 0x1BE7 DUP6 DUP3 DUP7 ADD PUSH2 0x1B9F JUMP JUMPDEST SWAP2 POP POP SWAP3 POP SWAP3 SWAP1 POP JUMP JUMPDEST PUSH0 DUP1 REVERT JUMPDEST PUSH0 DUP1 REVERT JUMPDEST PUSH32 0x4E487B7100000000000000000000000000000000000000000000000000000000 PUSH0 MSTORE PUSH1 0x41 PUSH1 0x4 MSTORE PUSH1 0x24 PUSH0 REVERT JUMPDEST PUSH2 0x1C2F DUP3 PUSH2 0x1960 JUMP JUMPDEST DUP2 ADD DUP2 DUP2 LT PUSH8 0xFFFFFFFFFFFFFFFF DUP3 GT OR ISZERO PUSH2 0x1C4E JUMPI PUSH2 0x1C4D PUSH2 0x1BF9 JUMP JUMPDEST JUMPDEST DUP1 PUSH1 0x40 MSTORE POP POP POP JUMP JUMPDEST PUSH0 PUSH2 0x1C60 PUSH2 0x1874 JUMP JUMPDEST SWAP1 POP PUSH2 0x1C6C DUP3 DUP3 PUSH2 0x1C26 JUMP JUMPDEST SWAP2 SWAP1 POP JUMP JUMPDEST PUSH0 PUSH8 0xFFFFFFFFFFFFFFFF DUP3 GT ISZERO PUSH2 0x1C8B JUMPI PUSH2 0x1C8A PUSH2 0x1BF9 JUMP JUMPDEST JUMPDEST PUSH2 0x1C94 DUP3 PUSH2 0x1960 JUMP JUMPDEST SWAP1 POP PUSH1 0x20 DUP2 ADD SWAP1 POP SWAP2 SWAP1 POP JUMP JUMPDEST DUP3 DUP2 DUP4 CALLDATACOPY PUSH0 DUP4 DUP4 ADD MSTORE POP POP POP JUMP JUMPDEST PUSH0 PUSH2 0x1CC1 PUSH2 0x1CBC DUP5 PUSH2 0x1C71 JUMP JUMPDEST PUSH2 0x1C57 JUMP JUMPDEST SWAP1 POP DUP3 DUP2 MSTORE PUSH1 0x20 DUP2 ADD DUP5 DUP5 DUP5 ADD GT ISZERO PUSH2 0x1CDD JUMPI PUSH2 0x1CDC PUSH2 0x1BF5 JUMP JUMPDEST JUMPDEST PUSH2 0x1CE8 DUP5 DUP3 DUP6 PUSH2 0x1CA1 JUMP JUMPDEST POP SWAP4 SWAP3 POP POP POP JUMP JUMPDEST PUSH0 DUP3 PUSH1 0x1F DUP4 ADD SLT PUSH2 0x1D04 JUMPI PUSH2 0x1D03 PUSH2 0x1BF1 JUMP JUMPDEST JUMPDEST DUP2 CALLDATALOAD PUSH2 0x1D14 DUP5 DUP3 PUSH1 0x20 DUP7 ADD PUSH2 0x1CAF JUMP JUMPDEST SWAP2 POP POP SWAP3 SWAP2 POP POP JUMP JUMPDEST PUSH0 DUP1 PUSH0 DUP1 PUSH1 0x80 DUP6 DUP8 SUB SLT ISZERO PUSH2 0x1D35 JUMPI PUSH2 0x1D34 PUSH2 0x187D JUMP JUMPDEST JUMPDEST PUSH0 PUSH2 0x1D42 DUP8 DUP3 DUP9 ADD PUSH2 0x1A94 JUMP JUMPDEST SWAP5 POP POP PUSH1 0x20 PUSH2 0x1D53 DUP8 DUP3 DUP9 ADD PUSH2 0x1A94 JUMP JUMPDEST SWAP4 POP POP PUSH1 0x40 PUSH2 0x1D64 DUP8 DUP3 DUP9 ADD PUSH2 0x19E7 JUMP JUMPDEST SWAP3 POP POP PUSH1 0x60 DUP6 ADD CALLDATALOAD PUSH8 0xFFFFFFFFFFFFFFFF DUP2 GT ISZERO PUSH2 0x1D85 JUMPI PUSH2 0x1D84 PUSH2 0x1881 JUMP JUMPDEST JUMPDEST PUSH2 0x1D91 DUP8 DUP3 DUP9 ADD PUSH2 0x1CF0 JUMP JUMPDEST SWAP2 POP POP SWAP3 SWAP6 SWAP2 SWAP5 POP SWAP3 POP JUMP JUMPDEST PUSH0 DUP1 PUSH1 0x40 DUP4 DUP6 SUB SLT ISZERO PUSH2 0x1DB3 JUMPI PUSH2 0x1DB2 PUSH2 0x187D JUMP JUMPDEST JUMPDEST PUSH0 PUSH2 0x1DC0 DUP6 DUP3 DUP7 ADD PUSH2 0x1A94 JUMP JUMPDEST SWAP3 POP POP PUSH1 0x20 PUSH2 0x1DD1 DUP6 DUP3 DUP7 ADD PUSH2 0x1A94 JUMP JUMPDEST SWAP2 POP POP SWAP3 POP SWAP3 SWAP1 POP JUMP JUMPDEST PUSH32 0x4E487B7100000000000000000000000000000000000000000000000000000000 PUSH0 MSTORE PUSH1 0x22 PUSH1 0x4 MSTORE PUSH1 0x24 PUSH0 REVERT JUMPDEST PUSH0 PUSH1 0x2 DUP3 DIV SWAP1 POP PUSH1 0x1 DUP3 AND DUP1 PUSH2 0x1E1F JUMPI PUSH1 0x7F DUP3 AND SWAP2 POP JUMPDEST PUSH1 0x20 DUP3 LT DUP2 SUB PUSH2 0x1E32 JUMPI PUSH2 0x1E31 PUSH2 0x1DDB JUMP JUMPDEST JUMPDEST POP SWAP2 SWAP1 POP JUMP JUMPDEST PUSH0 PUSH1 0x60 DUP3 ADD SWAP1 POP PUSH2 0x1E4B PUSH0 DUP4 ADD DUP7 PUSH2 0x1A56 JUMP JUMPDEST PUSH2 0x1E58 PUSH1 0x20 DUP4 ADD DUP6 PUSH2 0x1B61 JUMP JUMPDEST PUSH2 0x1E65 PUSH1 0x40 DUP4 ADD DUP5 PUSH2 0x1A56 JUMP JUMPDEST SWAP5 SWAP4 POP POP POP POP JUMP JUMPDEST PUSH0 DUP2 SWAP1 POP SWAP3 SWAP2 POP POP JUMP JUMPDEST PUSH0 PUSH2 0x1E81 DUP3 PUSH2 0x1938 JUMP JUMPDEST PUSH2 0x1E8B DUP2 DUP6 PUSH2 0x1E6D JUMP JUMPDEST SWAP4 POP PUSH2 0x1E9B DUP2 DUP6 PUSH1 0x20 DUP7 ADD PUSH2 0x1952 JUMP JUMPDEST DUP1 DUP5 ADD SWAP2 POP POP SWAP3 SWAP2 POP POP JUMP JUMPDEST PUSH0 PUSH2 0x1EB2 DUP3 DUP6 PUSH2 0x1E77 JUMP JUMPDEST SWAP2 POP PUSH2 0x1EBE DUP3 DUP5 PUSH2 0x1E77 JUMP JUMPDEST SWAP2 POP DUP2 SWAP1 POP SWAP4 SWAP3 POP POP POP JUMP JUMPDEST PUSH0 DUP2 MLOAD SWAP1 POP SWAP2 SWAP1 POP JUMP JUMPDEST PUSH0 DUP3 DUP3 MSTORE PUSH1 0x20 DUP3 ADD SWAP1 POP SWAP3 SWAP2 POP POP JUMP JUMPDEST PUSH0 PUSH2 0x1EEE DUP3 PUSH2 0x1ECA JUMP JUMPDEST PUSH2 0x1EF8 DUP2 DUP6 PUSH2 0x1ED4 JUMP JUMPDEST SWAP4 POP PUSH2 0x1F08 DUP2 DUP6 PUSH1 0x20 DUP7 ADD PUSH2 0x1952 JUMP JUMPDEST PUSH2 0x1F11 DUP2 PUSH2 0x1960 JUMP JUMPDEST DUP5 ADD SWAP2 POP POP SWAP3 SWAP2 POP POP JUMP JUMPDEST PUSH0 PUSH1 0x80 DUP3 ADD SWAP1 POP PUSH2 0x1F2F PUSH0 DUP4 ADD DUP8 PUSH2 0x1A56 JUMP JUMPDEST PUSH2 0x1F3C PUSH1 0x20 DUP4 ADD DUP7 PUSH2 0x1A56 JUMP JUMPDEST PUSH2 0x1F49 PUSH1 0x40 DUP4 ADD DUP6 PUSH2 0x1B61 JUMP JUMPDEST DUP2 DUP2 SUB PUSH1 0x60 DUP4 ADD MSTORE PUSH2 0x1F5B DUP2 DUP5 PUSH2 0x1EE4 JUMP JUMPDEST SWAP1 POP SWAP6 SWAP5 POP POP POP POP POP JUMP JUMPDEST PUSH0 DUP2 MLOAD SWAP1 POP PUSH2 0x1F74 DUP2 PUSH2 0x18B0 JUMP JUMPDEST SWAP3 SWAP2 POP POP JUMP JUMPDEST PUSH0 PUSH1 0x20 DUP3 DUP5 SUB SLT ISZERO PUSH2 0x1F8F JUMPI PUSH2 0x1F8E PUSH2 0x187D JUMP JUMPDEST JUMPDEST PUSH0 PUSH2 0x1F9C DUP5 DUP3 DUP6 ADD PUSH2 0x1F66 JUMP JUMPDEST SWAP2 POP POP SWAP3 SWAP2 POP POP JUMP JUMPDEST PUSH32 0x4E487B7100000000000000000000000000000000000000000000000000000000 PUSH0 MSTORE PUSH1 0x12 PUSH1 0x4 MSTORE PUSH1 0x24 PUSH0 REVERT JUMPDEST PUSH0 PUSH1 0x40 DUP3 ADD SWAP1 POP PUSH2 0x1FE5 PUSH0 DUP4 ADD DUP6 PUSH2 0x1A56 JUMP JUMPDEST PUSH2 0x1FF2 PUSH1 0x20 DUP4 ADD DUP5 PUSH2 0x1B61 JUMP JUMPDEST SWAP4 SWAP3 POP POP POP JUMP INVALID LOG2 PUSH5 0x6970667358 0x22 SLT KECCAK256 0xBD LOG1 0xC5 COINBASE PUSH4 0xB3DB15C0 0x4C PUSH9 0xFB4E13918E5AACF7DF 0x24 0xEC SWAP4 CALLCODE GAS SWAP7 0x21 0xE3 0xAF SLT 0xD2 LOG3 PUSH5 0x736F6C6343 STOP ADDMOD NOT STOP CALLER "
				},
				"gasEstimates": {
					"creation": {
						"codeDepositCost": "1647800",
						"executionCost": "infinite",
						"totalCost": "infinite"
					},
					"external": {
						"approve(address,uint256)": "infinite",
						"balanceOf(address)": "infinite",
						"burn(uint256)": "infinite",
						"getApproved(uint256)": "infinite",
						"isApprovedForAll(address,address)": "infinite",
						"mint(address,uint256)": "infinite",
						"name()": "infinite",
						"owner()": "2582",
						"ownerOf(uint256)": "infinite",
						"renounceOwnership()": "infinite",
						"safeTransferFrom(address,address,uint256)": "infinite",
						"safeTransferFrom(address,address,uint256,bytes)": "infinite",
						"setApprovalForAll(address,bool)": "infinite",
						"supportsInterface(bytes4)": "787",
						"symbol()": "infinite",
						"tokenURI(uint256)": "infinite",
						"transferFrom(address,address,uint256)": "infinite",
						"transferOwnership(address)": "infinite"
					}
				},
				"methodIdentifiers": {
					"approve(address,uint256)": "095ea7b3",
					"balanceOf(address)": "70a08231",
					"burn(uint256)": "42966c68",
					"getApproved(uint256)": "081812fc",
					"isApprovedForAll(address,address)": "e985e9c5",
					"mint(address,uint256)": "40c10f19",
					"name()": "06fdde03",
					"owner()": "8da5cb5b",
					"ownerOf(uint256)": "6352211e",
					"renounceOwnership()": "715018a6",
					"safeTransferFrom(address,address,uint256)": "42842e0e",
					"safeTransferFrom(address,address,uint256,bytes)": "b88d4fde",
					"setApprovalForAll(address,bool)": "a22cb465",
					"supportsInterface(bytes4)": "01ffc9a7",
					"symbol()": "95d89b41",
					"tokenURI(uint256)": "c87b56dd",
					"transferFrom(address,address,uint256)": "23b872dd",
					"transferOwnership(address)": "f2fde38b"
				}
			},
			"storageLayout": {
				"storage": [
					{
						"astId": 1922,
						"contract": "contracts/PropiedadesERC721_flattened.sol:PropiedadesERC721",
						"label": "_name",
						"offset": 0,
						"slot": "0",
						"type": "t_string_storage"
					},
					{
						"astId": 1924,
						"contract": "contracts/PropiedadesERC721_flattened.sol:PropiedadesERC721",
						"label": "_symbol",
						"offset": 0,
						"slot": "1",
						"type": "t_string_storage"
					},
					{
						"astId": 1928,
						"contract": "contracts/PropiedadesERC721_flattened.sol:PropiedadesERC721",
						"label": "_owners",
						"offset": 0,
						"slot": "2",
						"type": "t_mapping(t_uint256,t_address)"
					},
					{
						"astId": 1932,
						"contract": "contracts/PropiedadesERC721_flattened.sol:PropiedadesERC721",
						"label": "_balances",
						"offset": 0,
						"slot": "3",
						"type": "t_mapping(t_address,t_uint256)"
					},
					{
						"astId": 1936,
						"contract": "contracts/PropiedadesERC721_flattened.sol:PropiedadesERC721",
						"label": "_tokenApprovals",
						"offset": 0,
						"slot": "4",
						"type": "t_mapping(t_uint256,t_address)"
					},
					{
						"astId": 1942,
						"contract": "contracts/PropiedadesERC721_flattened.sol:PropiedadesERC721",
						"label": "_operatorApprovals",
						"offset": 0,
						"slot": "5",
						"type": "t_mapping(t_address,t_mapping(t_address,t_bool))"
					},
					{
						"astId": 1578,
						"contract": "contracts/PropiedadesERC721_flattened.sol:PropiedadesERC721",
						"label": "_owner",
						"offset": 0,
						"slot": "6",
						"type": "t_address"
					}
				],
				"types": {
					"t_address": {
						"encoding": "inplace",
						"label": "address",
						"numberOfBytes": "20"
					},
					"t_bool": {
						"encoding": "inplace",
						"label": "bool",
						"numberOfBytes": "1"
					},
					"t_mapping(t_address,t_bool)": {
						"encoding": "mapping",
						"key": "t_address",
						"label": "mapping(address => bool)",
						"numberOfBytes": "32",
						"value": "t_bool"
					},
					"t_mapping(t_address,t_mapping(t_address,t_bool))": {
						"encoding": "mapping",
						"key": "t_address",
						"label": "mapping(address => mapping(address => bool))",
						"numberOfBytes": "32",
						"value": "t_mapping(t_address,t_bool)"
					},
					"t_mapping(t_address,t_uint256)": {
						"encoding": "mapping",
						"key": "t_address",
						"label": "mapping(address => uint256)",
						"numberOfBytes": "32",
						"value": "t_uint256"
					},
					"t_mapping(t_uint256,t_address)": {
						"encoding": "mapping",
						"key": "t_uint256",
						"label": "mapping(uint256 => address)",
						"numberOfBytes": "32",
						"value": "t_address"
					},
					"t_string_storage": {
						"encoding": "bytes",
						"label": "string",
						"numberOfBytes": "32"
					},
					"t_uint256": {
						"encoding": "inplace",
						"label": "uint256",
						"numberOfBytes": "32"
					}
				}
			},
			"userdoc": {
				"kind": "user",
				"methods": {},
				"version": 1
			}
		}
	}
}