{
	"contracts/PropiedadesToke.sol": {
		"PropiedadesERC1155": {
			"abi": [
				{
					"inputs": [
						{
							"internalType": "string",
							"name": "uri",
							"type": "string"
						}
					],
					"stateMutability": "nonpayable",
					"type": "constructor"
				},
				{
					"inputs": [
						{
							"internalType": "address",
							"name": "sender",
							"type": "address"
						},
						{
							"internalType": "uint256",
							"name": "balance",
							"type": "uint256"
						},
						{
							"internalType": "uint256",
							"name": "needed",
							"type": "uint256"
						},
						{
							"internalType": "uint256",
							"name": "tokenId",
							"type": "uint256"
						}
					],
					"name": "ERC1155InsufficientBalance",
					"type": "error"
				},
				{
					"inputs": [
						{
							"internalType": "address",
							"name": "approver",
							"type": "address"
						}
					],
					"name": "ERC1155InvalidApprover",
					"type": "error"
				},
				{
					"inputs": [
						{
							"internalType": "uint256",
							"name": "idsLength",
							"type": "uint256"
						},
						{
							"internalType": "uint256",
							"name": "valuesLength",
							"type": "uint256"
						}
					],
					"name": "ERC1155InvalidArrayLength",
					"type": "error"
				},
				{
					"inputs": [
						{
							"internalType": "address",
							"name": "operator",
							"type": "address"
						}
					],
					"name": "ERC1155InvalidOperator",
					"type": "error"
				},
				{
					"inputs": [
						{
							"internalType": "address",
							"name": "receiver",
							"type": "address"
						}
					],
					"name": "ERC1155InvalidReceiver",
					"type": "error"
				},
				{
					"inputs": [
						{
							"internalType": "address",
							"name": "sender",
							"type": "address"
						}
					],
					"name": "ERC1155InvalidSender",
					"type": "error"
				},
				{
					"inputs": [
						{
							"internalType": "address",
							"name": "operator",
							"type": "address"
						},
						{
							"internalType": "address",
							"name": "owner",
							"type": "address"
						}
					],
					"name": "ERC1155MissingApprovalForAll",
					"type": "error"
				},
				{
					"inputs": [
						{
							"internalType": "address",
							"name": "owner",
							"type": "address"
						}
					],
					"name": "OwnableInvalidOwner",
					"type": "error"
				},
				{
					"inputs": [
						{
							"internalType": "address",
							"name": "account",
							"type": "address"
						}
					],
					"name": "OwnableUnauthorizedAccount",
					"type": "error"
				},
				{
					"anonymous": false,
					"inputs": [
						{
							"indexed": true,
							"internalType": "address",
							"name": "account",
							"type": "address"
						},
						{
							"indexed": true,
							"internalType": "address",
							"name": "operator",
							"type": "address"
						},
						{
							"indexed": false,
							"internalType": "bool",
							"name": "approved",
							"type": "bool"
						}
					],
					"name": "ApprovalForAll",
					"type": "event"
				},
				{
					"anonymous": false,
					"inputs": [
						{
							"indexed": true,
							"internalType": "address",
							"name": "previousOwner",
							"type": "address"
						},
						{
							"indexed": true,
							"internalType": "address",
							"name": "newOwner",
							"type": "address"
						}
					],
					"name": "OwnershipTransferred",
					"type": "event"
				},
				{
					"anonymous": false,
					"inputs": [
						{
							"indexed": true,
							"internalType": "address",
							"name": "operator",
							"type": "address"
						},
						{
							"indexed": true,
							"internalType": "address",
							"name": "from",
							"type": "address"
						},
						{
							"indexed": true,
							"internalType": "address",
							"name": "to",
							"type": "address"
						},
						{
							"indexed": false,
							"internalType": "uint256[]",
							"name": "ids",
							"type": "uint256[]"
						},
						{
							"indexed": false,
							"internalType": "uint256[]",
							"name": "values",
							"type": "uint256[]"
						}
					],
					"name": "TransferBatch",
					"type": "event"
				},
				{
					"anonymous": false,
					"inputs": [
						{
							"indexed": true,
							"internalType": "address",
							"name": "operator",
							"type": "address"
						},
						{
							"indexed": true,
							"internalType": "address",
							"name": "from",
							"type": "address"
						},
						{
							"indexed": true,
							"internalType": "address",
							"name": "to",
							"type": "address"
						},
						{
							"indexed": false,
							"internalType": "uint256",
							"name": "id",
							"type": "uint256"
						},
						{
							"indexed": false,
							"internalType": "uint256",
							"name": "value",
							"type": "uint256"
						}
					],
					"name": "TransferSingle",
					"type": "event"
				},
				{
					"anonymous": false,
					"inputs": [
						{
							"indexed": false,
							"internalType": "string",
							"name": "value",
							"type": "string"
						},
						{
							"indexed": true,
							"internalType": "uint256",
							"name": "id",
							"type": "uint256"
						}
					],
					"name": "URI",
					"type": "event"
				},
				{
					"inputs": [
						{
							"internalType": "address",
							"name": "account",
							"type": "address"
						},
						{
							"internalType": "uint256",
							"name": "id",
							"type": "uint256"
						}
					],
					"name": "balanceOf",
					"outputs": [
						{
							"internalType": "uint256",
							"name": "",
							"type": "uint256"
						}
					],
					"stateMutability": "view",
					"type": "function"
				},
				{
					"inputs": [
						{
							"internalType": "address[]",
							"name": "accounts",
							"type": "address[]"
						},
						{
							"internalType": "uint256[]",
							"name": "ids",
							"type": "uint256[]"
						}
					],
					"name": "balanceOfBatch",
					"outputs": [
						{
							"internalType": "uint256[]",
							"name": "",
							"type": "uint256[]"
						}
					],
					"stateMutability": "view",
					"type": "function"
				},
				{
					"inputs": [
						{
							"internalType": "address",
							"name": "account",
							"type": "address"
						},
						{
							"internalType": "uint256",
							"name": "id",
							"type": "uint256"
						},
						{
							"internalType": "uint256",
							"name": "amount",
							"type": "uint256"
						}
					],
					"name": "burn",
					"outputs": [],
					"stateMutability": "nonpayable",
					"type": "function"
				},
				{
					"inputs": [
						{
							"internalType": "address",
							"name": "account",
							"type": "address"
						},
						{
							"internalType": "address",
							"name": "operator",
							"type": "address"
						}
					],
					"name": "isApprovedForAll",
					"outputs": [
						{
							"internalType": "bool",
							"name": "",
							"type": "bool"
						}
					],
					"stateMutability": "view",
					"type": "function"
				},
				{
					"inputs": [
						{
							"internalType": "address",
							"name": "account",
							"type": "address"
						},
						{
							"internalType": "uint256",
							"name": "id",
							"type": "uint256"
						},
						{
							"internalType": "uint256",
							"name": "amount",
							"type": "uint256"
						},
						{
							"internalType": "bytes",
							"name": "data",
							"type": "bytes"
						}
					],
					"name": "mint",
					"outputs": [],
					"stateMutability": "nonpayable",
					"type": "function"
				},
				{
					"inputs": [],
					"name": "owner",
					"outputs": [
						{
							"internalType": "address",
							"name": "",
							"type": "address"
						}
					],
					"stateMutability": "view",
					"type": "function"
				},
				{
					"inputs": [],
					"name": "renounceOwnership",
					"outputs": [],
					"stateMutability": "nonpayable",
					"type": "function"
				},
				{
					"inputs": [
						{
							"internalType": "address",
							"name": "from",
							"type": "address"
						},
						{
							"internalType": "address",
							"name": "to",
							"type": "address"
						},
						{
							"internalType": "uint256[]",
							"name": "ids",
							"type": "uint256[]"
						},
						{
							"internalType": "uint256[]",
							"name": "values",
							"type": "uint256[]"
						},
						{
							"internalType": "bytes",
							"name": "data",
							"type": "bytes"
						}
					],
					"name": "safeBatchTransferFrom",
					"outputs": [],
					"stateMutability": "nonpayable",
					"type": "function"
				},
				{
					"inputs": [
						{
							"internalType": "address",
							"name": "from",
							"type": "address"
						},
						{
							"internalType": "address",
							"name": "to",
							"type": "address"
						},
						{
							"internalType": "uint256",
							"name": "id",
							"type": "uint256"
						},
						{
							"internalType": "uint256",
							"name": "value",
							"type": "uint256"
						},
						{
							"internalType": "bytes",
							"name": "data",
							"type": "bytes"
						}
					],
					"name": "safeTransferFrom",
					"outputs": [],
					"stateMutability": "nonpayable",
					"type": "function"
				},
				{
					"inputs": [
						{
							"internalType": "address",
							"name": "operator",
							"type": "address"
						},
						{
							"internalType": "bool",
							"name": "approved",
							"type": "bool"
						}
					],
					"name": "setApprovalForAll",
					"outputs": [],
					"stateMutability": "nonpayable",
					"type": "function"
				},
				{
					"inputs": [
						{
							"internalType": "string",
							"name": "newuri",
							"type": "string"
						}
					],
					"name": "setURI",
					"outputs": [],
					"stateMutability": "nonpayable",
					"type": "function"
				},
				{
					"inputs": [
						{
							"internalType": "bytes4",
							"name": "interfaceId",
							"type": "bytes4"
						}
					],
					"name": "supportsInterface",
					"outputs": [
						{
							"internalType": "bool",
							"name": "",
							"type": "bool"
						}
					],
					"stateMutability": "view",
					"type": "function"
				},
				{
					"inputs": [
						{
							"internalType": "address",
							"name": "newOwner",
							"type": "address"
						}
					],
					"name": "transferOwnership",
					"outputs": [],
					"stateMutability": "nonpayable",
					"type": "function"
				},
				{
					"inputs": [
						{
							"internalType": "uint256",
							"name": "",
							"type": "uint256"
						}
					],
					"name": "uri",
					"outputs": [
						{
							"internalType": "string",
							"name": "",
							"type": "string"
						}
					],
					"stateMutability": "view",
					"type": "function"
				}
			],
			"devdoc": {
				"errors": {
					"ERC1155InsufficientBalance(address,uint256,uint256,uint256)": [
						{
							"details": "Indicates an error related to the current `balance` of a `sender`. Used in transfers.",
							"params": {
								"balance": "Current balance for the interacting account.",
								"needed": "Minimum amount required to perform a transfer.",
								"sender": "Address whose tokens are being transferred.",
								"tokenId": "Identifier number of a token."
							}
						}
					],
					"ERC1155InvalidApprover(address)": [
						{
							"details": "Indicates a failure with the `approver` of a token to be approved. Used in approvals.",
							"params": {
								"approver": "Address initiating an approval operation."
							}
						}
					],
					"ERC1155InvalidArrayLength(uint256,uint256)": [
						{
							"details": "Indicates an array length mismatch between ids and values in a safeBatchTransferFrom operation. Used in batch transfers.",
							"params": {
								"idsLength": "Length of the array of token identifiers",
								"valuesLength": "Length of the array of token amounts"
							}
						}
					],
					"ERC1155InvalidOperator(address)": [
						{
							"details": "Indicates a failure with the `operator` to be approved. Used in approvals.",
							"params": {
								"operator": "Address that may be allowed to operate on tokens without being their owner."
							}
						}
					],
					"ERC1155InvalidReceiver(address)": [
						{
							"details": "Indicates a failure with the token `receiver`. Used in transfers.",
							"params": {
								"receiver": "Address to which tokens are being transferred."
							}
						}
					],
					"ERC1155InvalidSender(address)": [
						{
							"details": "Indicates a failure with the token `sender`. Used in transfers.",
							"params": {
								"sender": "Address whose tokens are being transferred."
							}
						}
					],
					"ERC1155MissingApprovalForAll(address,address)": [
						{
							"details": "Indicates a failure with the `operator`’s approval. Used in transfers.",
							"params": {
								"operator": "Address that may be allowed to operate on tokens without being their owner.",
								"owner": "Address of the current owner of a token."
							}
						}
					],
					"OwnableInvalidOwner(address)": [
						{
							"details": "The owner is not a valid owner account. (eg. `address(0)`)"
						}
					],
					"OwnableUnauthorizedAccount(address)": [
						{
							"details": "The caller account is not authorized to perform an operation."
						}
					]
				},
				"events": {
					"ApprovalForAll(address,address,bool)": {
						"details": "Emitted when `account` grants or revokes permission to `operator` to transfer their tokens, according to `approved`."
					},
					"TransferBatch(address,address,address,uint256[],uint256[])": {
						"details": "Equivalent to multiple {TransferSingle} events, where `operator`, `from` and `to` are the same for all transfers."
					},
					"TransferSingle(address,address,address,uint256,uint256)": {
						"details": "Emitted when `value` amount of tokens of type `id` are transferred from `from` to `to` by `operator`."
					},
					"URI(string,uint256)": {
						"details": "Emitted when the URI for token type `id` changes to `value`, if it is a non-programmatic URI. If an {URI} event was emitted for `id`, the standard https://eips.ethereum.org/EIPS/eip-1155#metadata-extensions[guarantees] that `value` will equal the value returned by {IERC1155MetadataURI-uri}."
					}
				},
				"kind": "dev",
				"methods": {
					"balanceOf(address,uint256)": {
						"details": "See {IERC1155-balanceOf}."
					},
					"balanceOfBatch(address[],uint256[])": {
						"details": "See {IERC1155-balanceOfBatch}. Requirements: - `accounts` and `ids` must have the same length."
					},
					"isApprovedForAll(address,address)": {
						"details": "See {IERC1155-isApprovedForAll}."
					},
					"owner()": {
						"details": "Returns the address of the current owner."
					},
					"renounceOwnership()": {
						"details": "Leaves the contract without owner. It will not be possible to call `onlyOwner` functions. Can only be called by the current owner. NOTE: Renouncing ownership will leave the contract without an owner, thereby disabling any functionality that is only available to the owner."
					},
					"safeBatchTransferFrom(address,address,uint256[],uint256[],bytes)": {
						"details": "See {IERC1155-safeBatchTransferFrom}."
					},
					"safeTransferFrom(address,address,uint256,uint256,bytes)": {
						"details": "See {IERC1155-safeTransferFrom}."
					},
					"setApprovalForAll(address,bool)": {
						"details": "See {IERC1155-setApprovalForAll}."
					},
					"supportsInterface(bytes4)": {
						"details": "See {IERC165-supportsInterface}."
					},
					"transferOwnership(address)": {
						"details": "Transfers ownership of the contract to a new account (`newOwner`). Can only be called by the current owner."
					},
					"uri(uint256)": {
						"details": "See {IERC1155MetadataURI-uri}. This implementation returns the same URI for *all* token types. It relies on the token type ID substitution mechanism https://eips.ethereum.org/EIPS/eip-1155#metadata[defined in the EIP]. Clients calling this function must replace the `\\{id\\}` substring with the actual token type ID."
					}
				},
				"version": 1
			},
			"evm": {
				"assembly": "    /* \"contracts/PropiedadesToke.sol\":242:936  contract PropiedadesERC1155 is ERC1155, Ownable {... */\n  mstore(0x40, 0x80)\n    /* \"contracts/PropiedadesToke.sol\":297:364  constructor(string memory uri) ERC1155(uri) Ownable(msg.sender)  {} */\n  callvalue\n  dup1\n  iszero\n  tag_1\n  jumpi\n  0x00\n  dup1\n  revert\ntag_1:\n  pop\n  mload(0x40)\n  sub(codesize, bytecodeSize)\n  dup1\n  bytecodeSize\n  dup4\n  codecopy\n  dup2\n  dup2\n  add\n  0x40\n  mstore\n  dup2\n  add\n  swap1\n  tag_2\n  swap2\n  swap1\n  tag_3\n  jump\t// in\ntag_2:\n    /* \"contracts/PropiedadesToke.sol\":349:359  msg.sender */\n  caller\n    /* \"contracts/PropiedadesToke.sol\":336:339  uri */\n  dup2\n    /* \"@openzeppelin/contracts/token/ERC1155/ERC1155.sol\":1293:1306  _setURI(uri_) */\n  tag_8\n    /* \"@openzeppelin/contracts/token/ERC1155/ERC1155.sol\":1301:1305  uri_ */\n  dup2\n    /* \"@openzeppelin/contracts/token/ERC1155/ERC1155.sol\":1293:1300  _setURI */\n  shl(0x20, tag_9)\n    /* \"@openzeppelin/contracts/token/ERC1155/ERC1155.sol\":1293:1306  _setURI(uri_) */\n  0x20\n  shr\n  jump\t// in\ntag_8:\n    /* \"@openzeppelin/contracts/token/ERC1155/ERC1155.sol\":1251:1313  constructor(string memory uri_) {... */\n  pop\n    /* \"@openzeppelin/contracts/access/Ownable.sol\":1297:1298  0 */\n  0x00\n    /* \"@openzeppelin/contracts/access/Ownable.sol\":1273:1299  initialOwner == address(0) */\n  0xffffffffffffffffffffffffffffffffffffffff\n  and\n    /* \"@openzeppelin/contracts/access/Ownable.sol\":1273:1285  initialOwner */\n  dup2\n    /* \"@openzeppelin/contracts/access/Ownable.sol\":1273:1299  initialOwner == address(0) */\n  0xffffffffffffffffffffffffffffffffffffffff\n  and\n  sub\n    /* \"@openzeppelin/contracts/access/Ownable.sol\":1269:1364  if (initialOwner == address(0)) {... */\n  tag_11\n  jumpi\n    /* \"@openzeppelin/contracts/access/Ownable.sol\":1350:1351  0 */\n  0x00\n    /* \"@openzeppelin/contracts/access/Ownable.sol\":1322:1353  OwnableInvalidOwner(address(0)) */\n  mload(0x40)\n  0x1e4fbdf700000000000000000000000000000000000000000000000000000000\n  dup2\n  mstore\n  0x04\n  add\n  tag_12\n  swap2\n  swap1\n  tag_13\n  jump\t// in\ntag_12:\n  mload(0x40)\n  dup1\n  swap2\n  sub\n  swap1\n  revert\n    /* \"@openzeppelin/contracts/access/Ownable.sol\":1269:1364  if (initialOwner == address(0)) {... */\ntag_11:\n    /* \"@openzeppelin/contracts/access/Ownable.sol\":1373:1405  _transferOwnership(initialOwner) */\n  tag_14\n    /* \"@openzeppelin/contracts/access/Ownable.sol\":1392:1404  initialOwner */\n  dup2\n    /* \"@openzeppelin/contracts/access/Ownable.sol\":1373:1391  _transferOwnership */\n  shl(0x20, tag_15)\n    /* \"@openzeppelin/contracts/access/Ownable.sol\":1373:1405  _transferOwnership(initialOwner) */\n  0x20\n  shr\n  jump\t// in\ntag_14:\n    /* \"@openzeppelin/contracts/access/Ownable.sol\":1225:1412  constructor(address initialOwner) {... */\n  pop\n    /* \"contracts/PropiedadesToke.sol\":297:364  constructor(string memory uri) ERC1155(uri) Ownable(msg.sender)  {} */\n  pop\n    /* \"contracts/PropiedadesToke.sol\":242:936  contract PropiedadesERC1155 is ERC1155, Ownable {... */\n  jump(tag_17)\n    /* \"@openzeppelin/contracts/token/ERC1155/ERC1155.sol\":10282:10368  function _setURI(string memory newuri) internal virtual {... */\ntag_9:\n    /* \"@openzeppelin/contracts/token/ERC1155/ERC1155.sol\":10355:10361  newuri */\n  dup1\n    /* \"@openzeppelin/contracts/token/ERC1155/ERC1155.sol\":10348:10352  _uri */\n  0x02\n    /* \"@openzeppelin/contracts/token/ERC1155/ERC1155.sol\":10348:10361  _uri = newuri */\n  swap1\n  dup2\n  tag_19\n  swap2\n  swap1\n  tag_20\n  jump\t// in\ntag_19:\n  pop\n    /* \"@openzeppelin/contracts/token/ERC1155/ERC1155.sol\":10282:10368  function _setURI(string memory newuri) internal virtual {... */\n  pop\n  jump\t// out\n    /* \"@openzeppelin/contracts/access/Ownable.sol\":2912:3099  function _transferOwnership(address newOwner) internal virtual {... */\ntag_15:\n    /* \"@openzeppelin/contracts/access/Ownable.sol\":2985:3001  address oldOwner */\n  0x00\n    /* \"@openzeppelin/contracts/access/Ownable.sol\":3004:3010  _owner */\n  0x03\n  0x00\n  swap1\n  sload\n  swap1\n  0x0100\n  exp\n  swap1\n  div\n  0xffffffffffffffffffffffffffffffffffffffff\n  and\n    /* \"@openzeppelin/contracts/access/Ownable.sol\":2985:3010  address oldOwner = _owner */\n  swap1\n  pop\n    /* \"@openzeppelin/contracts/access/Ownable.sol\":3029:3037  newOwner */\n  dup2\n    /* \"@openzeppelin/contracts/access/Ownable.sol\":3020:3026  _owner */\n  0x03\n  0x00\n    /* \"@openzeppelin/contracts/access/Ownable.sol\":3020:3037  _owner = newOwner */\n  0x0100\n  exp\n  dup2\n  sload\n  dup2\n  0xffffffffffffffffffffffffffffffffffffffff\n  mul\n  not\n  and\n  swap1\n  dup4\n  0xffffffffffffffffffffffffffffffffffffffff\n  and\n  mul\n  or\n  swap1\n  sstore\n  pop\n    /* \"@openzeppelin/contracts/access/Ownable.sol\":3083:3091  newOwner */\n  dup2\n    /* \"@openzeppelin/contracts/access/Ownable.sol\":3052:3092  OwnershipTransferred(oldOwner, newOwner) */\n  0xffffffffffffffffffffffffffffffffffffffff\n  and\n    /* \"@openzeppelin/contracts/access/Ownable.sol\":3073:3081  oldOwner */\n  dup2\n    /* \"@openzeppelin/contracts/access/Ownable.sol\":3052:3092  OwnershipTransferred(oldOwner, newOwner) */\n  0xffffffffffffffffffffffffffffffffffffffff\n  and\n  0x8be0079c531659141344cd1fd0a4f28419497f9722a3daafe3b4186f6b6457e0\n  mload(0x40)\n  mload(0x40)\n  dup1\n  swap2\n  sub\n  swap1\n  log3\n    /* \"@openzeppelin/contracts/access/Ownable.sol\":2975:3099  {... */\n  pop\n    /* \"@openzeppelin/contracts/access/Ownable.sol\":2912:3099  function _transferOwnership(address newOwner) internal virtual {... */\n  pop\n  jump\t// out\n    /* \"#utility.yul\":7:82   */\ntag_22:\n    /* \"#utility.yul\":40:46   */\n  0x00\n    /* \"#utility.yul\":73:75   */\n  0x40\n    /* \"#utility.yul\":67:76   */\n  mload\n    /* \"#utility.yul\":57:76   */\n  swap1\n  pop\n    /* \"#utility.yul\":7:82   */\n  swap1\n  jump\t// out\n    /* \"#utility.yul\":88:205   */\ntag_23:\n    /* \"#utility.yul\":197:198   */\n  0x00\n    /* \"#utility.yul\":194:195   */\n  dup1\n    /* \"#utility.yul\":187:199   */\n  revert\n    /* \"#utility.yul\":211:328   */\ntag_24:\n    /* \"#utility.yul\":320:321   */\n  0x00\n    /* \"#utility.yul\":317:318   */\n  dup1\n    /* \"#utility.yul\":310:322   */\n  revert\n    /* \"#utility.yul\":334:451   */\ntag_25:\n    /* \"#utility.yul\":443:444   */\n  0x00\n    /* \"#utility.yul\":440:441   */\n  dup1\n    /* \"#utility.yul\":433:445   */\n  revert\n    /* \"#utility.yul\":457:574   */\ntag_26:\n    /* \"#utility.yul\":566:567   */\n  0x00\n    /* \"#utility.yul\":563:564   */\n  dup1\n    /* \"#utility.yul\":556:568   */\n  revert\n    /* \"#utility.yul\":580:682   */\ntag_27:\n    /* \"#utility.yul\":621:627   */\n  0x00\n    /* \"#utility.yul\":672:674   */\n  0x1f\n    /* \"#utility.yul\":668:675   */\n  not\n    /* \"#utility.yul\":663:665   */\n  0x1f\n    /* \"#utility.yul\":656:661   */\n  dup4\n    /* \"#utility.yul\":652:666   */\n  add\n    /* \"#utility.yul\":648:676   */\n  and\n    /* \"#utility.yul\":638:676   */\n  swap1\n  pop\n    /* \"#utility.yul\":580:682   */\n  swap2\n  swap1\n  pop\n  jump\t// out\n    /* \"#utility.yul\":688:868   */\ntag_28:\n    /* \"#utility.yul\":736:813   */\n  0x4e487b7100000000000000000000000000000000000000000000000000000000\n    /* \"#utility.yul\":733:734   */\n  0x00\n    /* \"#utility.yul\":726:814   */\n  mstore\n    /* \"#utility.yul\":833:837   */\n  0x41\n    /* \"#utility.yul\":830:831   */\n  0x04\n    /* \"#utility.yul\":823:838   */\n  mstore\n    /* \"#utility.yul\":857:861   */\n  0x24\n    /* \"#utility.yul\":854:855   */\n  0x00\n    /* \"#utility.yul\":847:862   */\n  revert\n    /* \"#utility.yul\":874:1155   */\ntag_29:\n    /* \"#utility.yul\":957:984   */\n  tag_66\n    /* \"#utility.yul\":979:983   */\n  dup3\n    /* \"#utility.yul\":957:984   */\n  tag_27\n  jump\t// in\ntag_66:\n    /* \"#utility.yul\":949:955   */\n  dup2\n    /* \"#utility.yul\":945:985   */\n  add\n    /* \"#utility.yul\":1087:1093   */\n  dup2\n    /* \"#utility.yul\":1075:1085   */\n  dup2\n    /* \"#utility.yul\":1072:1094   */\n  lt\n    /* \"#utility.yul\":1051:1069   */\n  0xffffffffffffffff\n    /* \"#utility.yul\":1039:1049   */\n  dup3\n    /* \"#utility.yul\":1036:1070   */\n  gt\n    /* \"#utility.yul\":1033:1095   */\n  or\n    /* \"#utility.yul\":1030:1118   */\n  iszero\n  tag_67\n  jumpi\n    /* \"#utility.yul\":1098:1116   */\n  tag_68\n  tag_28\n  jump\t// in\ntag_68:\n    /* \"#utility.yul\":1030:1118   */\ntag_67:\n    /* \"#utility.yul\":1138:1148   */\n  dup1\n    /* \"#utility.yul\":1134:1136   */\n  0x40\n    /* \"#utility.yul\":1127:1149   */\n  mstore\n    /* \"#utility.yul\":917:1155   */\n  pop\n    /* \"#utility.yul\":874:1155   */\n  pop\n  pop\n  jump\t// out\n    /* \"#utility.yul\":1161:1290   */\ntag_30:\n    /* \"#utility.yul\":1195:1201   */\n  0x00\n    /* \"#utility.yul\":1222:1242   */\n  tag_70\n  tag_22\n  jump\t// in\ntag_70:\n    /* \"#utility.yul\":1212:1242   */\n  swap1\n  pop\n    /* \"#utility.yul\":1251:1284   */\n  tag_71\n    /* \"#utility.yul\":1279:1283   */\n  dup3\n    /* \"#utility.yul\":1271:1277   */\n  dup3\n    /* \"#utility.yul\":1251:1284   */\n  tag_29\n  jump\t// in\ntag_71:\n    /* \"#utility.yul\":1161:1290   */\n  swap2\n  swap1\n  pop\n  jump\t// out\n    /* \"#utility.yul\":1296:1604   */\ntag_31:\n    /* \"#utility.yul\":1358:1362   */\n  0x00\n    /* \"#utility.yul\":1448:1466   */\n  0xffffffffffffffff\n    /* \"#utility.yul\":1440:1446   */\n  dup3\n    /* \"#utility.yul\":1437:1467   */\n  gt\n    /* \"#utility.yul\":1434:1490   */\n  iszero\n  tag_73\n  jumpi\n    /* \"#utility.yul\":1470:1488   */\n  tag_74\n  tag_28\n  jump\t// in\ntag_74:\n    /* \"#utility.yul\":1434:1490   */\ntag_73:\n    /* \"#utility.yul\":1508:1537   */\n  tag_75\n    /* \"#utility.yul\":1530:1536   */\n  dup3\n    /* \"#utility.yul\":1508:1537   */\n  tag_27\n  jump\t// in\ntag_75:\n    /* \"#utility.yul\":1500:1537   */\n  swap1\n  pop\n    /* \"#utility.yul\":1592:1596   */\n  0x20\n    /* \"#utility.yul\":1586:1590   */\n  dup2\n    /* \"#utility.yul\":1582:1597   */\n  add\n    /* \"#utility.yul\":1574:1597   */\n  swap1\n  pop\n    /* \"#utility.yul\":1296:1604   */\n  swap2\n  swap1\n  pop\n  jump\t// out\n    /* \"#utility.yul\":1610:1749   */\ntag_32:\n    /* \"#utility.yul\":1699:1705   */\n  dup3\n    /* \"#utility.yul\":1694:1697   */\n  dup2\n    /* \"#utility.yul\":1689:1692   */\n  dup4\n    /* \"#utility.yul\":1683:1706   */\n  mcopy\n    /* \"#utility.yul\":1740:1741   */\n  0x00\n    /* \"#utility.yul\":1731:1737   */\n  dup4\n    /* \"#utility.yul\":1726:1729   */\n  dup4\n    /* \"#utility.yul\":1722:1738   */\n  add\n    /* \"#utility.yul\":1715:1742   */\n  mstore\n    /* \"#utility.yul\":1610:1749   */\n  pop\n  pop\n  pop\n  jump\t// out\n    /* \"#utility.yul\":1755:2189   */\ntag_33:\n    /* \"#utility.yul\":1844:1849   */\n  0x00\n    /* \"#utility.yul\":1869:1935   */\n  tag_78\n    /* \"#utility.yul\":1885:1934   */\n  tag_79\n    /* \"#utility.yul\":1927:1933   */\n  dup5\n    /* \"#utility.yul\":1885:1934   */\n  tag_31\n  jump\t// in\ntag_79:\n    /* \"#utility.yul\":1869:1935   */\n  tag_30\n  jump\t// in\ntag_78:\n    /* \"#utility.yul\":1860:1935   */\n  swap1\n  pop\n    /* \"#utility.yul\":1958:1964   */\n  dup3\n    /* \"#utility.yul\":1951:1956   */\n  dup2\n    /* \"#utility.yul\":1944:1965   */\n  mstore\n    /* \"#utility.yul\":1996:2000   */\n  0x20\n    /* \"#utility.yul\":1989:1994   */\n  dup2\n    /* \"#utility.yul\":1985:2001   */\n  add\n    /* \"#utility.yul\":2034:2037   */\n  dup5\n    /* \"#utility.yul\":2025:2031   */\n  dup5\n    /* \"#utility.yul\":2020:2023   */\n  dup5\n    /* \"#utility.yul\":2016:2032   */\n  add\n    /* \"#utility.yul\":2013:2038   */\n  gt\n    /* \"#utility.yul\":2010:2122   */\n  iszero\n  tag_80\n  jumpi\n    /* \"#utility.yul\":2041:2120   */\n  tag_81\n  tag_26\n  jump\t// in\ntag_81:\n    /* \"#utility.yul\":2010:2122   */\ntag_80:\n    /* \"#utility.yul\":2131:2183   */\n  tag_82\n    /* \"#utility.yul\":2176:2182   */\n  dup5\n    /* \"#utility.yul\":2171:2174   */\n  dup3\n    /* \"#utility.yul\":2166:2169   */\n  dup6\n    /* \"#utility.yul\":2131:2183   */\n  tag_32\n  jump\t// in\ntag_82:\n    /* \"#utility.yul\":1850:2189   */\n  pop\n    /* \"#utility.yul\":1755:2189   */\n  swap4\n  swap3\n  pop\n  pop\n  pop\n  jump\t// out\n    /* \"#utility.yul\":2209:2564   */\ntag_34:\n    /* \"#utility.yul\":2276:2281   */\n  0x00\n    /* \"#utility.yul\":2325:2328   */\n  dup3\n    /* \"#utility.yul\":2318:2322   */\n  0x1f\n    /* \"#utility.yul\":2310:2316   */\n  dup4\n    /* \"#utility.yul\":2306:2323   */\n  add\n    /* \"#utility.yul\":2302:2329   */\n  slt\n    /* \"#utility.yul\":2292:2414   */\n  tag_84\n  jumpi\n    /* \"#utility.yul\":2333:2412   */\n  tag_85\n  tag_25\n  jump\t// in\ntag_85:\n    /* \"#utility.yul\":2292:2414   */\ntag_84:\n    /* \"#utility.yul\":2443:2449   */\n  dup2\n    /* \"#utility.yul\":2437:2450   */\n  mload\n    /* \"#utility.yul\":2468:2558   */\n  tag_86\n    /* \"#utility.yul\":2554:2557   */\n  dup5\n    /* \"#utility.yul\":2546:2552   */\n  dup3\n    /* \"#utility.yul\":2539:2543   */\n  0x20\n    /* \"#utility.yul\":2531:2537   */\n  dup7\n    /* \"#utility.yul\":2527:2544   */\n  add\n    /* \"#utility.yul\":2468:2558   */\n  tag_33\n  jump\t// in\ntag_86:\n    /* \"#utility.yul\":2459:2558   */\n  swap2\n  pop\n    /* \"#utility.yul\":2282:2564   */\n  pop\n    /* \"#utility.yul\":2209:2564   */\n  swap3\n  swap2\n  pop\n  pop\n  jump\t// out\n    /* \"#utility.yul\":2570:3094   */\ntag_3:\n    /* \"#utility.yul\":2650:2656   */\n  0x00\n    /* \"#utility.yul\":2699:2701   */\n  0x20\n    /* \"#utility.yul\":2687:2696   */\n  dup3\n    /* \"#utility.yul\":2678:2685   */\n  dup5\n    /* \"#utility.yul\":2674:2697   */\n  sub\n    /* \"#utility.yul\":2670:2702   */\n  slt\n    /* \"#utility.yul\":2667:2786   */\n  iszero\n  tag_88\n  jumpi\n    /* \"#utility.yul\":2705:2784   */\n  tag_89\n  tag_23\n  jump\t// in\ntag_89:\n    /* \"#utility.yul\":2667:2786   */\ntag_88:\n    /* \"#utility.yul\":2846:2847   */\n  0x00\n    /* \"#utility.yul\":2835:2844   */\n  dup3\n    /* \"#utility.yul\":2831:2848   */\n  add\n    /* \"#utility.yul\":2825:2849   */\n  mload\n    /* \"#utility.yul\":2876:2894   */\n  0xffffffffffffffff\n    /* \"#utility.yul\":2868:2874   */\n  dup2\n    /* \"#utility.yul\":2865:2895   */\n  gt\n    /* \"#utility.yul\":2862:2979   */\n  iszero\n  tag_90\n  jumpi\n    /* \"#utility.yul\":2898:2977   */\n  tag_91\n  tag_24\n  jump\t// in\ntag_91:\n    /* \"#utility.yul\":2862:2979   */\ntag_90:\n    /* \"#utility.yul\":3003:3077   */\n  tag_92\n    /* \"#utility.yul\":3069:3076   */\n  dup5\n    /* \"#utility.yul\":3060:3066   */\n  dup3\n    /* \"#utility.yul\":3049:3058   */\n  dup6\n    /* \"#utility.yul\":3045:3067   */\n  add\n    /* \"#utility.yul\":3003:3077   */\n  tag_34\n  jump\t// in\ntag_92:\n    /* \"#utility.yul\":2993:3077   */\n  swap2\n  pop\n    /* \"#utility.yul\":2796:3087   */\n  pop\n    /* \"#utility.yul\":2570:3094   */\n  swap3\n  swap2\n  pop\n  pop\n  jump\t// out\n    /* \"#utility.yul\":3100:3226   */\ntag_35:\n    /* \"#utility.yul\":3137:3144   */\n  0x00\n    /* \"#utility.yul\":3177:3219   */\n  0xffffffffffffffffffffffffffffffffffffffff\n    /* \"#utility.yul\":3170:3175   */\n  dup3\n    /* \"#utility.yul\":3166:3220   */\n  and\n    /* \"#utility.yul\":3155:3220   */\n  swap1\n  pop\n    /* \"#utility.yul\":3100:3226   */\n  swap2\n  swap1\n  pop\n  jump\t// out\n    /* \"#utility.yul\":3232:3328   */\ntag_36:\n    /* \"#utility.yul\":3269:3276   */\n  0x00\n    /* \"#utility.yul\":3298:3322   */\n  tag_95\n    /* \"#utility.yul\":3316:3321   */\n  dup3\n    /* \"#utility.yul\":3298:3322   */\n  tag_35\n  jump\t// in\ntag_95:\n    /* \"#utility.yul\":3287:3322   */\n  swap1\n  pop\n    /* \"#utility.yul\":3232:3328   */\n  swap2\n  swap1\n  pop\n  jump\t// out\n    /* \"#utility.yul\":3334:3452   */\ntag_37:\n    /* \"#utility.yul\":3421:3445   */\n  tag_97\n    /* \"#utility.yul\":3439:3444   */\n  dup2\n    /* \"#utility.yul\":3421:3445   */\n  tag_36\n  jump\t// in\ntag_97:\n    /* \"#utility.yul\":3416:3419   */\n  dup3\n    /* \"#utility.yul\":3409:3446   */\n  mstore\n    /* \"#utility.yul\":3334:3452   */\n  pop\n  pop\n  jump\t// out\n    /* \"#utility.yul\":3458:3680   */\ntag_13:\n    /* \"#utility.yul\":3551:3555   */\n  0x00\n    /* \"#utility.yul\":3589:3591   */\n  0x20\n    /* \"#utility.yul\":3578:3587   */\n  dup3\n    /* \"#utility.yul\":3574:3592   */\n  add\n    /* \"#utility.yul\":3566:3592   */\n  swap1\n  pop\n    /* \"#utility.yul\":3602:3673   */\n  tag_99\n    /* \"#utility.yul\":3670:3671   */\n  0x00\n    /* \"#utility.yul\":3659:3668   */\n  dup4\n    /* \"#utility.yul\":3655:3672   */\n  add\n    /* \"#utility.yul\":3646:3652   */\n  dup5\n    /* \"#utility.yul\":3602:3673   */\n  tag_37\n  jump\t// in\ntag_99:\n    /* \"#utility.yul\":3458:3680   */\n  swap3\n  swap2\n  pop\n  pop\n  jump\t// out\n    /* \"#utility.yul\":3686:3785   */\ntag_38:\n    /* \"#utility.yul\":3738:3744   */\n  0x00\n    /* \"#utility.yul\":3772:3777   */\n  dup2\n    /* \"#utility.yul\":3766:3778   */\n  mload\n    /* \"#utility.yul\":3756:3778   */\n  swap1\n  pop\n    /* \"#utility.yul\":3686:3785   */\n  swap2\n  swap1\n  pop\n  jump\t// out\n    /* \"#utility.yul\":3791:3971   */\ntag_39:\n    /* \"#utility.yul\":3839:3916   */\n  0x4e487b7100000000000000000000000000000000000000000000000000000000\n    /* \"#utility.yul\":3836:3837   */\n  0x00\n    /* \"#utility.yul\":3829:3917   */\n  mstore\n    /* \"#utility.yul\":3936:3940   */\n  0x22\n    /* \"#utility.yul\":3933:3934   */\n  0x04\n    /* \"#utility.yul\":3926:3941   */\n  mstore\n    /* \"#utility.yul\":3960:3964   */\n  0x24\n    /* \"#utility.yul\":3957:3958   */\n  0x00\n    /* \"#utility.yul\":3950:3965   */\n  revert\n    /* \"#utility.yul\":3977:4297   */\ntag_40:\n    /* \"#utility.yul\":4021:4027   */\n  0x00\n    /* \"#utility.yul\":4058:4059   */\n  0x02\n    /* \"#utility.yul\":4052:4056   */\n  dup3\n    /* \"#utility.yul\":4048:4060   */\n  div\n    /* \"#utility.yul\":4038:4060   */\n  swap1\n  pop\n    /* \"#utility.yul\":4105:4106   */\n  0x01\n    /* \"#utility.yul\":4099:4103   */\n  dup3\n    /* \"#utility.yul\":4095:4107   */\n  and\n    /* \"#utility.yul\":4126:4144   */\n  dup1\n    /* \"#utility.yul\":4116:4197   */\n  tag_103\n  jumpi\n    /* \"#utility.yul\":4182:4186   */\n  0x7f\n    /* \"#utility.yul\":4174:4180   */\n  dup3\n    /* \"#utility.yul\":4170:4187   */\n  and\n    /* \"#utility.yul\":4160:4187   */\n  swap2\n  pop\n    /* \"#utility.yul\":4116:4197   */\ntag_103:\n    /* \"#utility.yul\":4244:4246   */\n  0x20\n    /* \"#utility.yul\":4236:4242   */\n  dup3\n    /* \"#utility.yul\":4233:4247   */\n  lt\n    /* \"#utility.yul\":4213:4231   */\n  dup2\n    /* \"#utility.yul\":4210:4248   */\n  sub\n    /* \"#utility.yul\":4207:4291   */\n  tag_104\n  jumpi\n    /* \"#utility.yul\":4263:4281   */\n  tag_105\n  tag_39\n  jump\t// in\ntag_105:\n    /* \"#utility.yul\":4207:4291   */\ntag_104:\n    /* \"#utility.yul\":4028:4297   */\n  pop\n    /* \"#utility.yul\":3977:4297   */\n  swap2\n  swap1\n  pop\n  jump\t// out\n    /* \"#utility.yul\":4303:4444   */\ntag_41:\n    /* \"#utility.yul\":4352:4356   */\n  0x00\n    /* \"#utility.yul\":4375:4378   */\n  dup2\n    /* \"#utility.yul\":4367:4378   */\n  swap1\n  pop\n    /* \"#utility.yul\":4398:4401   */\n  dup2\n    /* \"#utility.yul\":4395:4396   */\n  0x00\n    /* \"#utility.yul\":4388:4402   */\n  mstore\n    /* \"#utility.yul\":4432:4436   */\n  0x20\n    /* \"#utility.yul\":4429:4430   */\n  0x00\n    /* \"#utility.yul\":4419:4437   */\n  keccak256\n    /* \"#utility.yul\":4411:4437   */\n  swap1\n  pop\n    /* \"#utility.yul\":4303:4444   */\n  swap2\n  swap1\n  pop\n  jump\t// out\n    /* \"#utility.yul\":4450:4543   */\ntag_42:\n    /* \"#utility.yul\":4487:4493   */\n  0x00\n    /* \"#utility.yul\":4534:4536   */\n  0x20\n    /* \"#utility.yul\":4529:4531   */\n  0x1f\n    /* \"#utility.yul\":4522:4527   */\n  dup4\n    /* \"#utility.yul\":4518:4532   */\n  add\n    /* \"#utility.yul\":4514:4537   */\n  div\n    /* \"#utility.yul\":4504:4537   */\n  swap1\n  pop\n    /* \"#utility.yul\":4450:4543   */\n  swap2\n  swap1\n  pop\n  jump\t// out\n    /* \"#utility.yul\":4549:4656   */\ntag_43:\n    /* \"#utility.yul\":4593:4601   */\n  0x00\n    /* \"#utility.yul\":4643:4648   */\n  dup3\n    /* \"#utility.yul\":4637:4641   */\n  dup3\n    /* \"#utility.yul\":4633:4649   */\n  shl\n    /* \"#utility.yul\":4612:4649   */\n  swap1\n  pop\n    /* \"#utility.yul\":4549:4656   */\n  swap3\n  swap2\n  pop\n  pop\n  jump\t// out\n    /* \"#utility.yul\":4662:5055   */\ntag_44:\n    /* \"#utility.yul\":4731:4737   */\n  0x00\n    /* \"#utility.yul\":4781:4782   */\n  0x08\n    /* \"#utility.yul\":4769:4779   */\n  dup4\n    /* \"#utility.yul\":4765:4783   */\n  mul\n    /* \"#utility.yul\":4804:4901   */\n  tag_110\n    /* \"#utility.yul\":4834:4900   */\n  0xffffffffffffffffffffffffffffffffffffffffffffffffffffffffffffffff\n    /* \"#utility.yul\":4823:4832   */\n  dup3\n    /* \"#utility.yul\":4804:4901   */\n  tag_43\n  jump\t// in\ntag_110:\n    /* \"#utility.yul\":4922:4961   */\n  tag_111\n    /* \"#utility.yul\":4952:4960   */\n  dup7\n    /* \"#utility.yul\":4941:4950   */\n  dup4\n    /* \"#utility.yul\":4922:4961   */\n  tag_43\n  jump\t// in\ntag_111:\n    /* \"#utility.yul\":4910:4961   */\n  swap6\n  pop\n    /* \"#utility.yul\":4994:4998   */\n  dup1\n    /* \"#utility.yul\":4990:4999   */\n  not\n    /* \"#utility.yul\":4983:4988   */\n  dup5\n    /* \"#utility.yul\":4979:5000   */\n  and\n    /* \"#utility.yul\":4970:5000   */\n  swap4\n  pop\n    /* \"#utility.yul\":5043:5047   */\n  dup1\n    /* \"#utility.yul\":5033:5041   */\n  dup7\n    /* \"#utility.yul\":5029:5048   */\n  and\n    /* \"#utility.yul\":5022:5027   */\n  dup5\n    /* \"#utility.yul\":5019:5049   */\n  or\n    /* \"#utility.yul\":5009:5049   */\n  swap3\n  pop\n    /* \"#utility.yul\":4738:5055   */\n  pop\n  pop\n    /* \"#utility.yul\":4662:5055   */\n  swap4\n  swap3\n  pop\n  pop\n  pop\n  jump\t// out\n    /* \"#utility.yul\":5061:5138   */\ntag_45:\n    /* \"#utility.yul\":5098:5105   */\n  0x00\n    /* \"#utility.yul\":5127:5132   */\n  dup2\n    /* \"#utility.yul\":5116:5132   */\n  swap1\n  pop\n    /* \"#utility.yul\":5061:5138   */\n  swap2\n  swap1\n  pop\n  jump\t// out\n    /* \"#utility.yul\":5144:5204   */\ntag_46:\n    /* \"#utility.yul\":5172:5175   */\n  0x00\n    /* \"#utility.yul\":5193:5198   */\n  dup2\n    /* \"#utility.yul\":5186:5198   */\n  swap1\n  pop\n    /* \"#utility.yul\":5144:5204   */\n  swap2\n  swap1\n  pop\n  jump\t// out\n    /* \"#utility.yul\":5210:5352   */\ntag_47:\n    /* \"#utility.yul\":5260:5269   */\n  0x00\n    /* \"#utility.yul\":5293:5346   */\n  tag_115\n    /* \"#utility.yul\":5311:5345   */\n  tag_116\n    /* \"#utility.yul\":5320:5344   */\n  tag_117\n    /* \"#utility.yul\":5338:5343   */\n  dup5\n    /* \"#utility.yul\":5320:5344   */\n  tag_45\n  jump\t// in\ntag_117:\n    /* \"#utility.yul\":5311:5345   */\n  tag_46\n  jump\t// in\ntag_116:\n    /* \"#utility.yul\":5293:5346   */\n  tag_45\n  jump\t// in\ntag_115:\n    /* \"#utility.yul\":5280:5346   */\n  swap1\n  pop\n    /* \"#utility.yul\":5210:5352   */\n  swap2\n  swap1\n  pop\n  jump\t// out\n    /* \"#utility.yul\":5358:5433   */\ntag_48:\n    /* \"#utility.yul\":5401:5404   */\n  0x00\n    /* \"#utility.yul\":5422:5427   */\n  dup2\n    /* \"#utility.yul\":5415:5427   */\n  swap1\n  pop\n    /* \"#utility.yul\":5358:5433   */\n  swap2\n  swap1\n  pop\n  jump\t// out\n    /* \"#utility.yul\":5439:5708   */\ntag_49:\n    /* \"#utility.yul\":5549:5588   */\n  tag_120\n    /* \"#utility.yul\":5580:5587   */\n  dup4\n    /* \"#utility.yul\":5549:5588   */\n  tag_47\n  jump\t// in\ntag_120:\n    /* \"#utility.yul\":5610:5701   */\n  tag_121\n    /* \"#utility.yul\":5659:5700   */\n  tag_122\n    /* \"#utility.yul\":5683:5699   */\n  dup3\n    /* \"#utility.yul\":5659:5700   */\n  tag_48\n  jump\t// in\ntag_122:\n    /* \"#utility.yul\":5651:5657   */\n  dup5\n    /* \"#utility.yul\":5644:5648   */\n  dup5\n    /* \"#utility.yul\":5638:5649   */\n  sload\n    /* \"#utility.yul\":5610:5701   */\n  tag_44\n  jump\t// in\ntag_121:\n    /* \"#utility.yul\":5604:5608   */\n  dup3\n    /* \"#utility.yul\":5597:5702   */\n  sstore\n    /* \"#utility.yul\":5515:5708   */\n  pop\n    /* \"#utility.yul\":5439:5708   */\n  pop\n  pop\n  pop\n  jump\t// out\n    /* \"#utility.yul\":5714:5787   */\ntag_50:\n    /* \"#utility.yul\":5759:5762   */\n  0x00\n    /* \"#utility.yul\":5714:5787   */\n  swap1\n  jump\t// out\n    /* \"#utility.yul\":5793:5982   */\ntag_51:\n    /* \"#utility.yul\":5870:5902   */\n  tag_125\n  tag_50\n  jump\t// in\ntag_125:\n    /* \"#utility.yul\":5911:5976   */\n  tag_126\n    /* \"#utility.yul\":5969:5975   */\n  dup2\n    /* \"#utility.yul\":5961:5967   */\n  dup5\n    /* \"#utility.yul\":5955:5959   */\n  dup5\n    /* \"#utility.yul\":5911:5976   */\n  tag_49\n  jump\t// in\ntag_126:\n    /* \"#utility.yul\":5846:5982   */\n  pop\n    /* \"#utility.yul\":5793:5982   */\n  pop\n  pop\n  jump\t// out\n    /* \"#utility.yul\":5988:6174   */\ntag_52:\n    /* \"#utility.yul\":6048:6168   */\ntag_128:\n    /* \"#utility.yul\":6065:6068   */\n  dup2\n    /* \"#utility.yul\":6058:6063   */\n  dup2\n    /* \"#utility.yul\":6055:6069   */\n  lt\n    /* \"#utility.yul\":6048:6168   */\n  iszero\n  tag_130\n  jumpi\n    /* \"#utility.yul\":6119:6158   */\n  tag_131\n    /* \"#utility.yul\":6156:6157   */\n  0x00\n    /* \"#utility.yul\":6149:6154   */\n  dup3\n    /* \"#utility.yul\":6119:6158   */\n  tag_51\n  jump\t// in\ntag_131:\n    /* \"#utility.yul\":6092:6093   */\n  0x01\n    /* \"#utility.yul\":6085:6090   */\n  dup2\n    /* \"#utility.yul\":6081:6094   */\n  add\n    /* \"#utility.yul\":6072:6094   */\n  swap1\n  pop\n    /* \"#utility.yul\":6048:6168   */\n  jump(tag_128)\ntag_130:\n    /* \"#utility.yul\":5988:6174   */\n  pop\n  pop\n  jump\t// out\n    /* \"#utility.yul\":6180:6723   */\ntag_53:\n    /* \"#utility.yul\":6281:6283   */\n  0x1f\n    /* \"#utility.yul\":6276:6279   */\n  dup3\n    /* \"#utility.yul\":6273:6284   */\n  gt\n    /* \"#utility.yul\":6270:6716   */\n  iszero\n  tag_133\n  jumpi\n    /* \"#utility.yul\":6315:6353   */\n  tag_134\n    /* \"#utility.yul\":6347:6352   */\n  dup2\n    /* \"#utility.yul\":6315:6353   */\n  tag_41\n  jump\t// in\ntag_134:\n    /* \"#utility.yul\":6399:6428   */\n  tag_135\n    /* \"#utility.yul\":6417:6427   */\n  dup5\n    /* \"#utility.yul\":6399:6428   */\n  tag_42\n  jump\t// in\ntag_135:\n    /* \"#utility.yul\":6389:6397   */\n  dup2\n    /* \"#utility.yul\":6385:6429   */\n  add\n    /* \"#utility.yul\":6582:6584   */\n  0x20\n    /* \"#utility.yul\":6570:6580   */\n  dup6\n    /* \"#utility.yul\":6567:6585   */\n  lt\n    /* \"#utility.yul\":6564:6613   */\n  iszero\n  tag_136\n  jumpi\n    /* \"#utility.yul\":6603:6611   */\n  dup2\n    /* \"#utility.yul\":6588:6611   */\n  swap1\n  pop\n    /* \"#utility.yul\":6564:6613   */\ntag_136:\n    /* \"#utility.yul\":6626:6706   */\n  tag_137\n    /* \"#utility.yul\":6682:6704   */\n  tag_138\n    /* \"#utility.yul\":6700:6703   */\n  dup6\n    /* \"#utility.yul\":6682:6704   */\n  tag_42\n  jump\t// in\ntag_138:\n    /* \"#utility.yul\":6672:6680   */\n  dup4\n    /* \"#utility.yul\":6668:6705   */\n  add\n    /* \"#utility.yul\":6655:6666   */\n  dup3\n    /* \"#utility.yul\":6626:6706   */\n  tag_52\n  jump\t// in\ntag_137:\n    /* \"#utility.yul\":6285:6716   */\n  pop\n  pop\n    /* \"#utility.yul\":6270:6716   */\ntag_133:\n    /* \"#utility.yul\":6180:6723   */\n  pop\n  pop\n  pop\n  jump\t// out\n    /* \"#utility.yul\":6729:6846   */\ntag_54:\n    /* \"#utility.yul\":6783:6791   */\n  0x00\n    /* \"#utility.yul\":6833:6838   */\n  dup3\n    /* \"#utility.yul\":6827:6831   */\n  dup3\n    /* \"#utility.yul\":6823:6839   */\n  shr\n    /* \"#utility.yul\":6802:6839   */\n  swap1\n  pop\n    /* \"#utility.yul\":6729:6846   */\n  swap3\n  swap2\n  pop\n  pop\n  jump\t// out\n    /* \"#utility.yul\":6852:7021   */\ntag_55:\n    /* \"#utility.yul\":6896:6902   */\n  0x00\n    /* \"#utility.yul\":6929:6980   */\n  tag_141\n    /* \"#utility.yul\":6977:6978   */\n  0x00\n    /* \"#utility.yul\":6973:6979   */\n  not\n    /* \"#utility.yul\":6965:6970   */\n  dup5\n    /* \"#utility.yul\":6962:6963   */\n  0x08\n    /* \"#utility.yul\":6958:6971   */\n  mul\n    /* \"#utility.yul\":6929:6980   */\n  tag_54\n  jump\t// in\ntag_141:\n    /* \"#utility.yul\":6925:6981   */\n  not\n    /* \"#utility.yul\":7010:7014   */\n  dup1\n    /* \"#utility.yul\":7004:7008   */\n  dup4\n    /* \"#utility.yul\":7000:7015   */\n  and\n    /* \"#utility.yul\":6990:7015   */\n  swap2\n  pop\n    /* \"#utility.yul\":6903:7021   */\n  pop\n    /* \"#utility.yul\":6852:7021   */\n  swap3\n  swap2\n  pop\n  pop\n  jump\t// out\n    /* \"#utility.yul\":7026:7321   */\ntag_56:\n    /* \"#utility.yul\":7102:7106   */\n  0x00\n    /* \"#utility.yul\":7248:7277   */\n  tag_143\n    /* \"#utility.yul\":7273:7276   */\n  dup4\n    /* \"#utility.yul\":7267:7271   */\n  dup4\n    /* \"#utility.yul\":7248:7277   */\n  tag_55\n  jump\t// in\ntag_143:\n    /* \"#utility.yul\":7240:7277   */\n  swap2\n  pop\n    /* \"#utility.yul\":7310:7313   */\n  dup3\n    /* \"#utility.yul\":7307:7308   */\n  0x02\n    /* \"#utility.yul\":7303:7314   */\n  mul\n    /* \"#utility.yul\":7297:7301   */\n  dup3\n    /* \"#utility.yul\":7294:7315   */\n  or\n    /* \"#utility.yul\":7286:7315   */\n  swap1\n  pop\n    /* \"#utility.yul\":7026:7321   */\n  swap3\n  swap2\n  pop\n  pop\n  jump\t// out\n    /* \"#utility.yul\":7326:8721   */\ntag_20:\n    /* \"#utility.yul\":7443:7480   */\n  tag_145\n    /* \"#utility.yul\":7476:7479   */\n  dup3\n    /* \"#utility.yul\":7443:7480   */\n  tag_38\n  jump\t// in\ntag_145:\n    /* \"#utility.yul\":7545:7563   */\n  0xffffffffffffffff\n    /* \"#utility.yul\":7537:7543   */\n  dup2\n    /* \"#utility.yul\":7534:7564   */\n  gt\n    /* \"#utility.yul\":7531:7587   */\n  iszero\n  tag_146\n  jumpi\n    /* \"#utility.yul\":7567:7585   */\n  tag_147\n  tag_28\n  jump\t// in\ntag_147:\n    /* \"#utility.yul\":7531:7587   */\ntag_146:\n    /* \"#utility.yul\":7611:7649   */\n  tag_148\n    /* \"#utility.yul\":7643:7647   */\n  dup3\n    /* \"#utility.yul\":7637:7648   */\n  sload\n    /* \"#utility.yul\":7611:7649   */\n  tag_40\n  jump\t// in\ntag_148:\n    /* \"#utility.yul\":7696:7763   */\n  tag_149\n    /* \"#utility.yul\":7756:7762   */\n  dup3\n    /* \"#utility.yul\":7748:7754   */\n  dup3\n    /* \"#utility.yul\":7742:7746   */\n  dup6\n    /* \"#utility.yul\":7696:7763   */\n  tag_53\n  jump\t// in\ntag_149:\n    /* \"#utility.yul\":7790:7791   */\n  0x00\n    /* \"#utility.yul\":7814:7818   */\n  0x20\n    /* \"#utility.yul\":7801:7818   */\n  swap1\n  pop\n    /* \"#utility.yul\":7846:7848   */\n  0x1f\n    /* \"#utility.yul\":7838:7844   */\n  dup4\n    /* \"#utility.yul\":7835:7849   */\n  gt\n    /* \"#utility.yul\":7863:7864   */\n  0x01\n    /* \"#utility.yul\":7858:8476   */\n  dup2\n  eq\n  tag_151\n  jumpi\n    /* \"#utility.yul\":8520:8521   */\n  0x00\n    /* \"#utility.yul\":8537:8543   */\n  dup5\n    /* \"#utility.yul\":8534:8611   */\n  iszero\n  tag_152\n  jumpi\n    /* \"#utility.yul\":8586:8595   */\n  dup3\n    /* \"#utility.yul\":8581:8584   */\n  dup8\n    /* \"#utility.yul\":8577:8596   */\n  add\n    /* \"#utility.yul\":8571:8597   */\n  mload\n    /* \"#utility.yul\":8562:8597   */\n  swap1\n  pop\n    /* \"#utility.yul\":8534:8611   */\ntag_152:\n    /* \"#utility.yul\":8637:8704   */\n  tag_153\n    /* \"#utility.yul\":8697:8703   */\n  dup6\n    /* \"#utility.yul\":8690:8695   */\n  dup3\n    /* \"#utility.yul\":8637:8704   */\n  tag_56\n  jump\t// in\ntag_153:\n    /* \"#utility.yul\":8631:8635   */\n  dup7\n    /* \"#utility.yul\":8624:8705   */\n  sstore\n    /* \"#utility.yul\":8493:8715   */\n  pop\n    /* \"#utility.yul\":7828:8715   */\n  jump(tag_150)\n    /* \"#utility.yul\":7858:8476   */\ntag_151:\n    /* \"#utility.yul\":7910:7914   */\n  0x1f\n    /* \"#utility.yul\":7906:7915   */\n  not\n    /* \"#utility.yul\":7898:7904   */\n  dup5\n    /* \"#utility.yul\":7894:7916   */\n  and\n    /* \"#utility.yul\":7944:7981   */\n  tag_154\n    /* \"#utility.yul\":7976:7980   */\n  dup7\n    /* \"#utility.yul\":7944:7981   */\n  tag_41\n  jump\t// in\ntag_154:\n    /* \"#utility.yul\":8003:8004   */\n  0x00\n    /* \"#utility.yul\":8017:8225   */\ntag_155:\n    /* \"#utility.yul\":8031:8038   */\n  dup3\n    /* \"#utility.yul\":8028:8029   */\n  dup2\n    /* \"#utility.yul\":8025:8039   */\n  lt\n    /* \"#utility.yul\":8017:8225   */\n  iszero\n  tag_157\n  jumpi\n    /* \"#utility.yul\":8110:8119   */\n  dup5\n    /* \"#utility.yul\":8105:8108   */\n  dup10\n    /* \"#utility.yul\":8101:8120   */\n  add\n    /* \"#utility.yul\":8095:8121   */\n  mload\n    /* \"#utility.yul\":8087:8093   */\n  dup3\n    /* \"#utility.yul\":8080:8122   */\n  sstore\n    /* \"#utility.yul\":8161:8162   */\n  0x01\n    /* \"#utility.yul\":8153:8159   */\n  dup3\n    /* \"#utility.yul\":8149:8163   */\n  add\n    /* \"#utility.yul\":8139:8163   */\n  swap2\n  pop\n    /* \"#utility.yul\":8208:8210   */\n  0x20\n    /* \"#utility.yul\":8197:8206   */\n  dup6\n    /* \"#utility.yul\":8193:8211   */\n  add\n    /* \"#utility.yul\":8180:8211   */\n  swap5\n  pop\n    /* \"#utility.yul\":8054:8058   */\n  0x20\n    /* \"#utility.yul\":8051:8052   */\n  dup2\n    /* \"#utility.yul\":8047:8059   */\n  add\n    /* \"#utility.yul\":8042:8059   */\n  swap1\n  pop\n    /* \"#utility.yul\":8017:8225   */\n  jump(tag_155)\ntag_157:\n    /* \"#utility.yul\":8253:8259   */\n  dup7\n    /* \"#utility.yul\":8244:8251   */\n  dup4\n    /* \"#utility.yul\":8241:8260   */\n  lt\n    /* \"#utility.yul\":8238:8417   */\n  iszero\n  tag_158\n  jumpi\n    /* \"#utility.yul\":8311:8320   */\n  dup5\n    /* \"#utility.yul\":8306:8309   */\n  dup10\n    /* \"#utility.yul\":8302:8321   */\n  add\n    /* \"#utility.yul\":8296:8322   */\n  mload\n    /* \"#utility.yul\":8354:8402   */\n  tag_159\n    /* \"#utility.yul\":8396:8400   */\n  0x1f\n    /* \"#utility.yul\":8388:8394   */\n  dup10\n    /* \"#utility.yul\":8384:8401   */\n  and\n    /* \"#utility.yul\":8373:8382   */\n  dup3\n    /* \"#utility.yul\":8354:8402   */\n  tag_55\n  jump\t// in\ntag_159:\n    /* \"#utility.yul\":8346:8352   */\n  dup4\n    /* \"#utility.yul\":8339:8403   */\n  sstore\n    /* \"#utility.yul\":8261:8417   */\n  pop\n    /* \"#utility.yul\":8238:8417   */\ntag_158:\n    /* \"#utility.yul\":8463:8464   */\n  0x01\n    /* \"#utility.yul\":8459:8460   */\n  0x02\n    /* \"#utility.yul\":8451:8457   */\n  dup9\n    /* \"#utility.yul\":8447:8461   */\n  mul\n    /* \"#utility.yul\":8443:8465   */\n  add\n    /* \"#utility.yul\":8437:8441   */\n  dup9\n    /* \"#utility.yul\":8430:8466   */\n  sstore\n    /* \"#utility.yul\":7865:8476   */\n  pop\n  pop\n  pop\n    /* \"#utility.yul\":7828:8715   */\ntag_150:\n  pop\n    /* \"#utility.yul\":7418:8721   */\n  pop\n  pop\n  pop\n    /* \"#utility.yul\":7326:8721   */\n  pop\n  pop\n  jump\t// out\n    /* \"contracts/PropiedadesToke.sol\":242:936  contract PropiedadesERC1155 is ERC1155, Ownable {... */\ntag_17:\n  dataSize(sub_0)\n  dup1\n  dataOffset(sub_0)\n  0x00\n  codecopy\n  0x00\n  return\nstop\n\nsub_0: assembly {\n        /* \"contracts/PropiedadesToke.sol\":242:936  contract PropiedadesERC1155 is ERC1155, Ownable {... */\n      mstore(0x40, 0x80)\n      callvalue\n      dup1\n      iszero\n      tag_1\n      jumpi\n      0x00\n      dup1\n      revert\n    tag_1:\n      pop\n      jumpi(tag_2, lt(calldatasize, 0x04))\n      shr(0xe0, calldataload(0x00))\n      dup1\n      0x731133e9\n      gt\n      tag_17\n      jumpi\n      dup1\n      0xe985e9c5\n      gt\n      tag_18\n      jumpi\n      dup1\n      0xe985e9c5\n      eq\n      tag_13\n      jumpi\n      dup1\n      0xf242432a\n      eq\n      tag_14\n      jumpi\n      dup1\n      0xf2fde38b\n      eq\n      tag_15\n      jumpi\n      dup1\n      0xf5298aca\n      eq\n      tag_16\n      jumpi\n      jump(tag_2)\n    tag_18:\n      dup1\n      0x731133e9\n      eq\n      tag_10\n      jumpi\n      dup1\n      0x8da5cb5b\n      eq\n      tag_11\n      jumpi\n      dup1\n      0xa22cb465\n      eq\n      tag_12\n      jumpi\n      jump(tag_2)\n    tag_17:\n      dup1\n      0x0e89341c\n      gt\n      tag_19\n      jumpi\n      dup1\n      0x0e89341c\n      eq\n      tag_6\n      jumpi\n      dup1\n      0x2eb2c2d6\n      eq\n      tag_7\n      jumpi\n      dup1\n      0x4e1273f4\n      eq\n      tag_8\n      jumpi\n      dup1\n      0x715018a6\n      eq\n      tag_9\n      jumpi\n      jump(tag_2)\n    tag_19:\n      dup1\n      0xfdd58e\n      eq\n      tag_3\n      jumpi\n      dup1\n      0x01ffc9a7\n      eq\n      tag_4\n      jumpi\n      dup1\n      0x02fe5305\n      eq\n      tag_5\n      jumpi\n    tag_2:\n      0x00\n      dup1\n      revert\n        /* \"@openzeppelin/contracts/token/ERC1155/ERC1155.sol\":2247:2379  function balanceOf(address account, uint256 id) public view virtual returns (uint256) {... */\n    tag_3:\n      tag_20\n      0x04\n      dup1\n      calldatasize\n      sub\n      dup2\n      add\n      swap1\n      tag_21\n      swap2\n      swap1\n      tag_22\n      jump\t// in\n    tag_21:\n      tag_23\n      jump\t// in\n    tag_20:\n      mload(0x40)\n      tag_24\n      swap2\n      swap1\n      tag_25\n      jump\t// in\n    tag_24:\n      mload(0x40)\n      dup1\n      swap2\n      sub\n      swap1\n      return\n        /* \"@openzeppelin/contracts/token/ERC1155/ERC1155.sol\":1380:1685  function supportsInterface(bytes4 interfaceId) public view virtual override(ERC165, IERC165) returns (bool) {... */\n    tag_4:\n      tag_26\n      0x04\n      dup1\n      calldatasize\n      sub\n      dup2\n      add\n      swap1\n      tag_27\n      swap2\n      swap1\n      tag_28\n      jump\t// in\n    tag_27:\n      tag_29\n      jump\t// in\n    tag_26:\n      mload(0x40)\n      tag_30\n      swap2\n      swap1\n      tag_31\n      jump\t// in\n    tag_30:\n      mload(0x40)\n      dup1\n      swap2\n      sub\n      swap1\n      return\n        /* \"contracts/PropiedadesToke.sol\":842:933  function setURI(string memory newuri) external onlyOwner {... */\n    tag_5:\n      tag_32\n      0x04\n      dup1\n      calldatasize\n      sub\n      dup2\n      add\n      swap1\n      tag_33\n      swap2\n      swap1\n      tag_34\n      jump\t// in\n    tag_33:\n      tag_35\n      jump\t// in\n    tag_32:\n      stop\n        /* \"@openzeppelin/contracts/token/ERC1155/ERC1155.sol\":2084:2187  function uri(uint256 /* id */) public view virtual returns (string memory) {... */\n    tag_6:\n      tag_36\n      0x04\n      dup1\n      calldatasize\n      sub\n      dup2\n      add\n      swap1\n      tag_37\n      swap2\n      swap1\n      tag_38\n      jump\t// in\n    tag_37:\n      tag_39\n      jump\t// in\n    tag_36:\n      mload(0x40)\n      tag_40\n      swap2\n      swap1\n      tag_41\n      jump\t// in\n    tag_40:\n      mload(0x40)\n      dup1\n      swap2\n      sub\n      swap1\n      return\n        /* \"@openzeppelin/contracts/token/ERC1155/ERC1155.sol\":4014:4443  function safeBatchTransferFrom(... */\n    tag_7:\n      tag_42\n      0x04\n      dup1\n      calldatasize\n      sub\n      dup2\n      add\n      swap1\n      tag_43\n      swap2\n      swap1\n      tag_44\n      jump\t// in\n    tag_43:\n      tag_45\n      jump\t// in\n    tag_42:\n      stop\n        /* \"@openzeppelin/contracts/token/ERC1155/ERC1155.sol\":2536:3088  function balanceOfBatch(... */\n    tag_8:\n      tag_46\n      0x04\n      dup1\n      calldatasize\n      sub\n      dup2\n      add\n      swap1\n      tag_47\n      swap2\n      swap1\n      tag_48\n      jump\t// in\n    tag_47:\n      tag_49\n      jump\t// in\n    tag_46:\n      mload(0x40)\n      tag_50\n      swap2\n      swap1\n      tag_51\n      jump\t// in\n    tag_50:\n      mload(0x40)\n      dup1\n      swap2\n      sub\n      swap1\n      return\n        /* \"@openzeppelin/contracts/access/Ownable.sol\":2293:2394  function renounceOwnership() public virtual onlyOwner {... */\n    tag_9:\n      tag_52\n      tag_53\n      jump\t// in\n    tag_52:\n      stop\n        /* \"contracts/PropiedadesToke.sol\":446:592  function mint(address account, uint256 id, uint256 amount, bytes memory data) public onlyOwner {... */\n    tag_10:\n      tag_54\n      0x04\n      dup1\n      calldatasize\n      sub\n      dup2\n      add\n      swap1\n      tag_55\n      swap2\n      swap1\n      tag_56\n      jump\t// in\n    tag_55:\n      tag_57\n      jump\t// in\n    tag_54:\n      stop\n        /* \"@openzeppelin/contracts/access/Ownable.sol\":1638:1723  function owner() public view virtual returns (address) {... */\n    tag_11:\n      tag_58\n      tag_59\n      jump\t// in\n    tag_58:\n      mload(0x40)\n      tag_60\n      swap2\n      swap1\n      tag_61\n      jump\t// in\n    tag_60:\n      mload(0x40)\n      dup1\n      swap2\n      sub\n      swap1\n      return\n        /* \"@openzeppelin/contracts/token/ERC1155/ERC1155.sol\":3156:3300  function setApprovalForAll(address operator, bool approved) public virtual {... */\n    tag_12:\n      tag_62\n      0x04\n      dup1\n      calldatasize\n      sub\n      dup2\n      add\n      swap1\n      tag_63\n      swap2\n      swap1\n      tag_64\n      jump\t// in\n    tag_63:\n      tag_65\n      jump\t// in\n    tag_62:\n      stop\n        /* \"@openzeppelin/contracts/token/ERC1155/ERC1155.sol\":3367:3524  function isApprovedForAll(address account, address operator) public view virtual returns (bool) {... */\n    tag_13:\n      tag_66\n      0x04\n      dup1\n      calldatasize\n      sub\n      dup2\n      add\n      swap1\n      tag_67\n      swap2\n      swap1\n      tag_68\n      jump\t// in\n    tag_67:\n      tag_69\n      jump\t// in\n    tag_66:\n      mload(0x40)\n      tag_70\n      swap2\n      swap1\n      tag_31\n      jump\t// in\n    tag_70:\n      mload(0x40)\n      dup1\n      swap2\n      sub\n      swap1\n      return\n        /* \"@openzeppelin/contracts/token/ERC1155/ERC1155.sol\":3591:3942  function safeTransferFrom(address from, address to, uint256 id, uint256 value, bytes memory data) public virtual {... */\n    tag_14:\n      tag_71\n      0x04\n      dup1\n      calldatasize\n      sub\n      dup2\n      add\n      swap1\n      tag_72\n      swap2\n      swap1\n      tag_73\n      jump\t// in\n    tag_72:\n      tag_74\n      jump\t// in\n    tag_71:\n      stop\n        /* \"@openzeppelin/contracts/access/Ownable.sol\":2543:2758  function transferOwnership(address newOwner) public virtual onlyOwner {... */\n    tag_15:\n      tag_75\n      0x04\n      dup1\n      calldatasize\n      sub\n      dup2\n      add\n      swap1\n      tag_76\n      swap2\n      swap1\n      tag_77\n      jump\t// in\n    tag_76:\n      tag_78\n      jump\t// in\n    tag_75:\n      stop\n        /* \"contracts/PropiedadesToke.sol\":668:789  function burn(address account, uint256 id, uint256 amount) public onlyOwner {... */\n    tag_16:\n      tag_79\n      0x04\n      dup1\n      calldatasize\n      sub\n      dup2\n      add\n      swap1\n      tag_80\n      swap2\n      swap1\n      tag_81\n      jump\t// in\n    tag_80:\n      tag_82\n      jump\t// in\n    tag_79:\n      stop\n        /* \"@openzeppelin/contracts/token/ERC1155/ERC1155.sol\":2247:2379  function balanceOf(address account, uint256 id) public view virtual returns (uint256) {... */\n    tag_23:\n        /* \"@openzeppelin/contracts/token/ERC1155/ERC1155.sol\":2324:2331  uint256 */\n      0x00\n        /* \"@openzeppelin/contracts/token/ERC1155/ERC1155.sol\":2350:2359  _balances */\n      dup1\n        /* \"@openzeppelin/contracts/token/ERC1155/ERC1155.sol\":2350:2363  _balances[id] */\n      0x00\n        /* \"@openzeppelin/contracts/token/ERC1155/ERC1155.sol\":2360:2362  id */\n      dup4\n        /* \"@openzeppelin/contracts/token/ERC1155/ERC1155.sol\":2350:2363  _balances[id] */\n      dup2\n      mstore\n      0x20\n      add\n      swap1\n      dup2\n      mstore\n      0x20\n      add\n      0x00\n      keccak256\n        /* \"@openzeppelin/contracts/token/ERC1155/ERC1155.sol\":2350:2372  _balances[id][account] */\n      0x00\n        /* \"@openzeppelin/contracts/token/ERC1155/ERC1155.sol\":2364:2371  account */\n      dup5\n        /* \"@openzeppelin/contracts/token/ERC1155/ERC1155.sol\":2350:2372  _balances[id][account] */\n      0xffffffffffffffffffffffffffffffffffffffff\n      and\n      0xffffffffffffffffffffffffffffffffffffffff\n      and\n      dup2\n      mstore\n      0x20\n      add\n      swap1\n      dup2\n      mstore\n      0x20\n      add\n      0x00\n      keccak256\n      sload\n        /* \"@openzeppelin/contracts/token/ERC1155/ERC1155.sol\":2343:2372  return _balances[id][account] */\n      swap1\n      pop\n        /* \"@openzeppelin/contracts/token/ERC1155/ERC1155.sol\":2247:2379  function balanceOf(address account, uint256 id) public view virtual returns (uint256) {... */\n      swap3\n      swap2\n      pop\n      pop\n      jump\t// out\n        /* \"@openzeppelin/contracts/token/ERC1155/ERC1155.sol\":1380:1685  function supportsInterface(bytes4 interfaceId) public view virtual override(ERC165, IERC165) returns (bool) {... */\n    tag_29:\n        /* \"@openzeppelin/contracts/token/ERC1155/ERC1155.sol\":1482:1486  bool */\n      0x00\n        /* \"@openzeppelin/contracts/token/ERC1155/ERC1155.sol\":1532:1558  type(IERC1155).interfaceId */\n      0xd9b67a2600000000000000000000000000000000000000000000000000000000\n        /* \"@openzeppelin/contracts/token/ERC1155/ERC1155.sol\":1517:1558  interfaceId == type(IERC1155).interfaceId */\n      not(0xffffffffffffffffffffffffffffffffffffffffffffffffffffffff)\n      and\n        /* \"@openzeppelin/contracts/token/ERC1155/ERC1155.sol\":1517:1528  interfaceId */\n      dup3\n        /* \"@openzeppelin/contracts/token/ERC1155/ERC1155.sol\":1517:1558  interfaceId == type(IERC1155).interfaceId */\n      not(0xffffffffffffffffffffffffffffffffffffffffffffffffffffffff)\n      and\n      eq\n        /* \"@openzeppelin/contracts/token/ERC1155/ERC1155.sol\":1517:1626  interfaceId == type(IERC1155).interfaceId ||... */\n      dup1\n      tag_85\n      jumpi\n      pop\n        /* \"@openzeppelin/contracts/token/ERC1155/ERC1155.sol\":1589:1626  type(IERC1155MetadataURI).interfaceId */\n      0x0e89341c00000000000000000000000000000000000000000000000000000000\n        /* \"@openzeppelin/contracts/token/ERC1155/ERC1155.sol\":1574:1626  interfaceId == type(IERC1155MetadataURI).interfaceId */\n      not(0xffffffffffffffffffffffffffffffffffffffffffffffffffffffff)\n      and\n        /* \"@openzeppelin/contracts/token/ERC1155/ERC1155.sol\":1574:1585  interfaceId */\n      dup3\n        /* \"@openzeppelin/contracts/token/ERC1155/ERC1155.sol\":1574:1626  interfaceId == type(IERC1155MetadataURI).interfaceId */\n      not(0xffffffffffffffffffffffffffffffffffffffffffffffffffffffff)\n      and\n      eq\n        /* \"@openzeppelin/contracts/token/ERC1155/ERC1155.sol\":1517:1626  interfaceId == type(IERC1155).interfaceId ||... */\n    tag_85:\n        /* \"@openzeppelin/contracts/token/ERC1155/ERC1155.sol\":1517:1678  interfaceId == type(IERC1155).interfaceId ||... */\n      dup1\n      tag_86\n      jumpi\n      pop\n        /* \"@openzeppelin/contracts/token/ERC1155/ERC1155.sol\":1642:1678  super.supportsInterface(interfaceId) */\n      tag_87\n        /* \"@openzeppelin/contracts/token/ERC1155/ERC1155.sol\":1666:1677  interfaceId */\n      dup3\n        /* \"@openzeppelin/contracts/token/ERC1155/ERC1155.sol\":1642:1665  super.supportsInterface */\n      tag_88\n        /* \"@openzeppelin/contracts/token/ERC1155/ERC1155.sol\":1642:1678  super.supportsInterface(interfaceId) */\n      jump\t// in\n    tag_87:\n        /* \"@openzeppelin/contracts/token/ERC1155/ERC1155.sol\":1517:1678  interfaceId == type(IERC1155).interfaceId ||... */\n    tag_86:\n        /* \"@openzeppelin/contracts/token/ERC1155/ERC1155.sol\":1498:1678  return... */\n      swap1\n      pop\n        /* \"@openzeppelin/contracts/token/ERC1155/ERC1155.sol\":1380:1685  function supportsInterface(bytes4 interfaceId) public view virtual override(ERC165, IERC165) returns (bool) {... */\n      swap2\n      swap1\n      pop\n      jump\t// out\n        /* \"contracts/PropiedadesToke.sol\":842:933  function setURI(string memory newuri) external onlyOwner {... */\n    tag_35:\n        /* \"@openzeppelin/contracts/access/Ownable.sol\":1531:1544  _checkOwner() */\n      tag_90\n        /* \"@openzeppelin/contracts/access/Ownable.sol\":1531:1542  _checkOwner */\n      tag_91\n        /* \"@openzeppelin/contracts/access/Ownable.sol\":1531:1544  _checkOwner() */\n      jump\t// in\n    tag_90:\n        /* \"contracts/PropiedadesToke.sol\":910:925  _setURI(newuri) */\n      tag_93\n        /* \"contracts/PropiedadesToke.sol\":918:924  newuri */\n      dup2\n        /* \"contracts/PropiedadesToke.sol\":910:917  _setURI */\n      tag_94\n        /* \"contracts/PropiedadesToke.sol\":910:925  _setURI(newuri) */\n      jump\t// in\n    tag_93:\n        /* \"contracts/PropiedadesToke.sol\":842:933  function setURI(string memory newuri) external onlyOwner {... */\n      pop\n      jump\t// out\n        /* \"@openzeppelin/contracts/token/ERC1155/ERC1155.sol\":2084:2187  function uri(uint256 /* id */) public view virtual returns (string memory) {... */\n    tag_39:\n        /* \"@openzeppelin/contracts/token/ERC1155/ERC1155.sol\":2144:2157  string memory */\n      0x60\n        /* \"@openzeppelin/contracts/token/ERC1155/ERC1155.sol\":2176:2180  _uri */\n      0x02\n        /* \"@openzeppelin/contracts/token/ERC1155/ERC1155.sol\":2169:2180  return _uri */\n      dup1\n      sload\n      tag_96\n      swap1\n      tag_97\n      jump\t// in\n    tag_96:\n      dup1\n      0x1f\n      add\n      0x20\n      dup1\n      swap2\n      div\n      mul\n      0x20\n      add\n      mload(0x40)\n      swap1\n      dup2\n      add\n      0x40\n      mstore\n      dup1\n      swap3\n      swap2\n      swap1\n      dup2\n      dup2\n      mstore\n      0x20\n      add\n      dup3\n      dup1\n      sload\n      tag_98\n      swap1\n      tag_97\n      jump\t// in\n    tag_98:\n      dup1\n      iszero\n      tag_99\n      jumpi\n      dup1\n      0x1f\n      lt\n      tag_100\n      jumpi\n      0x0100\n      dup1\n      dup4\n      sload\n      div\n      mul\n      dup4\n      mstore\n      swap2\n      0x20\n      add\n      swap2\n      jump(tag_99)\n    tag_100:\n      dup3\n      add\n      swap2\n      swap1\n      0x00\n      mstore\n      keccak256(0x00, 0x20)\n      swap1\n    tag_101:\n      dup2\n      sload\n      dup2\n      mstore\n      swap1\n      0x01\n      add\n      swap1\n      0x20\n      add\n      dup1\n      dup4\n      gt\n      tag_101\n      jumpi\n      dup3\n      swap1\n      sub\n      0x1f\n      and\n      dup3\n      add\n      swap2\n    tag_99:\n      pop\n      pop\n      pop\n      pop\n      pop\n      swap1\n      pop\n        /* \"@openzeppelin/contracts/token/ERC1155/ERC1155.sol\":2084:2187  function uri(uint256 /* id */) public view virtual returns (string memory) {... */\n      swap2\n      swap1\n      pop\n      jump\t// out\n        /* \"@openzeppelin/contracts/token/ERC1155/ERC1155.sol\":4014:4443  function safeBatchTransferFrom(... */\n    tag_45:\n        /* \"@openzeppelin/contracts/token/ERC1155/ERC1155.sol\":4208:4222  address sender */\n      0x00\n        /* \"@openzeppelin/contracts/token/ERC1155/ERC1155.sol\":4225:4237  _msgSender() */\n      tag_103\n        /* \"@openzeppelin/contracts/token/ERC1155/ERC1155.sol\":4225:4235  _msgSender */\n      tag_104\n        /* \"@openzeppelin/contracts/token/ERC1155/ERC1155.sol\":4225:4237  _msgSender() */\n      jump\t// in\n    tag_103:\n        /* \"@openzeppelin/contracts/token/ERC1155/ERC1155.sol\":4208:4237  address sender = _msgSender() */\n      swap1\n      pop\n        /* \"@openzeppelin/contracts/token/ERC1155/ERC1155.sol\":4259:4265  sender */\n      dup1\n        /* \"@openzeppelin/contracts/token/ERC1155/ERC1155.sol\":4251:4265  from != sender */\n      0xffffffffffffffffffffffffffffffffffffffff\n      and\n        /* \"@openzeppelin/contracts/token/ERC1155/ERC1155.sol\":4251:4255  from */\n      dup7\n        /* \"@openzeppelin/contracts/token/ERC1155/ERC1155.sol\":4251:4265  from != sender */\n      0xffffffffffffffffffffffffffffffffffffffff\n      and\n      eq\n      iszero\n        /* \"@openzeppelin/contracts/token/ERC1155/ERC1155.sol\":4251:4300  from != sender && !isApprovedForAll(from, sender) */\n      dup1\n      iszero\n      tag_105\n      jumpi\n      pop\n        /* \"@openzeppelin/contracts/token/ERC1155/ERC1155.sol\":4270:4300  isApprovedForAll(from, sender) */\n      tag_106\n        /* \"@openzeppelin/contracts/token/ERC1155/ERC1155.sol\":4287:4291  from */\n      dup7\n        /* \"@openzeppelin/contracts/token/ERC1155/ERC1155.sol\":4293:4299  sender */\n      dup3\n        /* \"@openzeppelin/contracts/token/ERC1155/ERC1155.sol\":4270:4286  isApprovedForAll */\n      tag_69\n        /* \"@openzeppelin/contracts/token/ERC1155/ERC1155.sol\":4270:4300  isApprovedForAll(from, sender) */\n      jump\t// in\n    tag_106:\n        /* \"@openzeppelin/contracts/token/ERC1155/ERC1155.sol\":4269:4300  !isApprovedForAll(from, sender) */\n      iszero\n        /* \"@openzeppelin/contracts/token/ERC1155/ERC1155.sol\":4251:4300  from != sender && !isApprovedForAll(from, sender) */\n    tag_105:\n        /* \"@openzeppelin/contracts/token/ERC1155/ERC1155.sol\":4247:4376  if (from != sender && !isApprovedForAll(from, sender)) {... */\n      iszero\n      tag_107\n      jumpi\n        /* \"@openzeppelin/contracts/token/ERC1155/ERC1155.sol\":4352:4358  sender */\n      dup1\n        /* \"@openzeppelin/contracts/token/ERC1155/ERC1155.sol\":4360:4364  from */\n      dup7\n        /* \"@openzeppelin/contracts/token/ERC1155/ERC1155.sol\":4323:4365  ERC1155MissingApprovalForAll(sender, from) */\n      mload(0x40)\n      0xe237d92200000000000000000000000000000000000000000000000000000000\n      dup2\n      mstore\n      0x04\n      add\n      tag_108\n      swap3\n      swap2\n      swap1\n      tag_109\n      jump\t// in\n    tag_108:\n      mload(0x40)\n      dup1\n      swap2\n      sub\n      swap1\n      revert\n        /* \"@openzeppelin/contracts/token/ERC1155/ERC1155.sol\":4247:4376  if (from != sender && !isApprovedForAll(from, sender)) {... */\n    tag_107:\n        /* \"@openzeppelin/contracts/token/ERC1155/ERC1155.sol\":4385:4436  _safeBatchTransferFrom(from, to, ids, values, data) */\n      tag_110\n        /* \"@openzeppelin/contracts/token/ERC1155/ERC1155.sol\":4408:4412  from */\n      dup7\n        /* \"@openzeppelin/contracts/token/ERC1155/ERC1155.sol\":4414:4416  to */\n      dup7\n        /* \"@openzeppelin/contracts/token/ERC1155/ERC1155.sol\":4418:4421  ids */\n      dup7\n        /* \"@openzeppelin/contracts/token/ERC1155/ERC1155.sol\":4423:4429  values */\n      dup7\n        /* \"@openzeppelin/contracts/token/ERC1155/ERC1155.sol\":4431:4435  data */\n      dup7\n        /* \"@openzeppelin/contracts/token/ERC1155/ERC1155.sol\":4385:4407  _safeBatchTransferFrom */\n      tag_111\n        /* \"@openzeppelin/contracts/token/ERC1155/ERC1155.sol\":4385:4436  _safeBatchTransferFrom(from, to, ids, values, data) */\n      jump\t// in\n    tag_110:\n        /* \"@openzeppelin/contracts/token/ERC1155/ERC1155.sol\":4198:4443  {... */\n      pop\n        /* \"@openzeppelin/contracts/token/ERC1155/ERC1155.sol\":4014:4443  function safeBatchTransferFrom(... */\n      pop\n      pop\n      pop\n      pop\n      pop\n      jump\t// out\n        /* \"@openzeppelin/contracts/token/ERC1155/ERC1155.sol\":2536:3088  function balanceOfBatch(... */\n    tag_49:\n        /* \"@openzeppelin/contracts/token/ERC1155/ERC1155.sol\":2660:2676  uint256[] memory */\n      0x60\n        /* \"@openzeppelin/contracts/token/ERC1155/ERC1155.sol\":2711:2714  ids */\n      dup2\n        /* \"@openzeppelin/contracts/token/ERC1155/ERC1155.sol\":2711:2721  ids.length */\n      mload\n        /* \"@openzeppelin/contracts/token/ERC1155/ERC1155.sol\":2692:2700  accounts */\n      dup4\n        /* \"@openzeppelin/contracts/token/ERC1155/ERC1155.sol\":2692:2707  accounts.length */\n      mload\n        /* \"@openzeppelin/contracts/token/ERC1155/ERC1155.sol\":2692:2721  accounts.length != ids.length */\n      eq\n        /* \"@openzeppelin/contracts/token/ERC1155/ERC1155.sol\":2688:2809  if (accounts.length != ids.length) {... */\n      tag_113\n      jumpi\n        /* \"@openzeppelin/contracts/token/ERC1155/ERC1155.sol\":2770:2773  ids */\n      dup2\n        /* \"@openzeppelin/contracts/token/ERC1155/ERC1155.sol\":2770:2780  ids.length */\n      mload\n        /* \"@openzeppelin/contracts/token/ERC1155/ERC1155.sol\":2782:2790  accounts */\n      dup4\n        /* \"@openzeppelin/contracts/token/ERC1155/ERC1155.sol\":2782:2797  accounts.length */\n      mload\n        /* \"@openzeppelin/contracts/token/ERC1155/ERC1155.sol\":2744:2798  ERC1155InvalidArrayLength(ids.length, accounts.length) */\n      mload(0x40)\n      0x5b05999100000000000000000000000000000000000000000000000000000000\n      dup2\n      mstore\n      0x04\n      add\n      tag_114\n      swap3\n      swap2\n      swap1\n      tag_115\n      jump\t// in\n    tag_114:\n      mload(0x40)\n      dup1\n      swap2\n      sub\n      swap1\n      revert\n        /* \"@openzeppelin/contracts/token/ERC1155/ERC1155.sol\":2688:2809  if (accounts.length != ids.length) {... */\n    tag_113:\n        /* \"@openzeppelin/contracts/token/ERC1155/ERC1155.sol\":2819:2849  uint256[] memory batchBalances */\n      0x00\n        /* \"@openzeppelin/contracts/token/ERC1155/ERC1155.sol\":2866:2874  accounts */\n      dup4\n        /* \"@openzeppelin/contracts/token/ERC1155/ERC1155.sol\":2866:2881  accounts.length */\n      mload\n        /* \"@openzeppelin/contracts/token/ERC1155/ERC1155.sol\":2852:2882  new uint256[](accounts.length) */\n      0xffffffffffffffff\n      dup2\n      gt\n      iszero\n      tag_116\n      jumpi\n      tag_117\n      tag_118\n      jump\t// in\n    tag_117:\n    tag_116:\n      mload(0x40)\n      swap1\n      dup1\n      dup3\n      mstore\n      dup1\n      0x20\n      mul\n      0x20\n      add\n      dup3\n      add\n      0x40\n      mstore\n      dup1\n      iszero\n      tag_119\n      jumpi\n      dup2\n      0x20\n      add\n      0x20\n      dup3\n      mul\n      dup1\n      calldatasize\n      dup4\n      calldatacopy\n      dup1\n      dup3\n      add\n      swap2\n      pop\n      pop\n      swap1\n      pop\n    tag_119:\n      pop\n        /* \"@openzeppelin/contracts/token/ERC1155/ERC1155.sol\":2819:2882  uint256[] memory batchBalances = new uint256[](accounts.length) */\n      swap1\n      pop\n        /* \"@openzeppelin/contracts/token/ERC1155/ERC1155.sol\":2898:2907  uint256 i */\n      0x00\n        /* \"@openzeppelin/contracts/token/ERC1155/ERC1155.sol\":2893:3051  for (uint256 i = 0; i < accounts.length; ++i) {... */\n    tag_120:\n        /* \"@openzeppelin/contracts/token/ERC1155/ERC1155.sol\":2917:2925  accounts */\n      dup5\n        /* \"@openzeppelin/contracts/token/ERC1155/ERC1155.sol\":2917:2932  accounts.length */\n      mload\n        /* \"@openzeppelin/contracts/token/ERC1155/ERC1155.sol\":2913:2914  i */\n      dup2\n        /* \"@openzeppelin/contracts/token/ERC1155/ERC1155.sol\":2913:2932  i < accounts.length */\n      lt\n        /* \"@openzeppelin/contracts/token/ERC1155/ERC1155.sol\":2893:3051  for (uint256 i = 0; i < accounts.length; ++i) {... */\n      iszero\n      tag_121\n      jumpi\n        /* \"@openzeppelin/contracts/token/ERC1155/ERC1155.sol\":2972:3040  balanceOf(accounts.unsafeMemoryAccess(i), ids.unsafeMemoryAccess(i)) */\n      tag_123\n        /* \"@openzeppelin/contracts/token/ERC1155/ERC1155.sol\":2982:3012  accounts.unsafeMemoryAccess(i) */\n      tag_124\n        /* \"@openzeppelin/contracts/token/ERC1155/ERC1155.sol\":3010:3011  i */\n      dup3\n        /* \"@openzeppelin/contracts/token/ERC1155/ERC1155.sol\":2982:2990  accounts */\n      dup8\n        /* \"@openzeppelin/contracts/token/ERC1155/ERC1155.sol\":2982:3009  accounts.unsafeMemoryAccess */\n      tag_125\n      swap1\n        /* \"@openzeppelin/contracts/token/ERC1155/ERC1155.sol\":2982:3012  accounts.unsafeMemoryAccess(i) */\n      swap2\n      swap1\n      0xffffffff\n      and\n      jump\t// in\n    tag_124:\n        /* \"@openzeppelin/contracts/token/ERC1155/ERC1155.sol\":3014:3039  ids.unsafeMemoryAccess(i) */\n      tag_126\n        /* \"@openzeppelin/contracts/token/ERC1155/ERC1155.sol\":3037:3038  i */\n      dup4\n        /* \"@openzeppelin/contracts/token/ERC1155/ERC1155.sol\":3014:3017  ids */\n      dup8\n        /* \"@openzeppelin/contracts/token/ERC1155/ERC1155.sol\":3014:3036  ids.unsafeMemoryAccess */\n      tag_127\n      swap1\n        /* \"@openzeppelin/contracts/token/ERC1155/ERC1155.sol\":3014:3039  ids.unsafeMemoryAccess(i) */\n      swap2\n      swap1\n      0xffffffff\n      and\n      jump\t// in\n    tag_126:\n        /* \"@openzeppelin/contracts/token/ERC1155/ERC1155.sol\":2972:2981  balanceOf */\n      tag_23\n        /* \"@openzeppelin/contracts/token/ERC1155/ERC1155.sol\":2972:3040  balanceOf(accounts.unsafeMemoryAccess(i), ids.unsafeMemoryAccess(i)) */\n      jump\t// in\n    tag_123:\n        /* \"@openzeppelin/contracts/token/ERC1155/ERC1155.sol\":2953:2966  batchBalances */\n      dup3\n        /* \"@openzeppelin/contracts/token/ERC1155/ERC1155.sol\":2967:2968  i */\n      dup3\n        /* \"@openzeppelin/contracts/token/ERC1155/ERC1155.sol\":2953:2969  batchBalances[i] */\n      dup2\n      mload\n      dup2\n      lt\n      tag_128\n      jumpi\n      tag_129\n      tag_130\n      jump\t// in\n    tag_129:\n    tag_128:\n      0x20\n      mul\n      0x20\n      add\n      add\n        /* \"@openzeppelin/contracts/token/ERC1155/ERC1155.sol\":2953:3040  batchBalances[i] = balanceOf(accounts.unsafeMemoryAccess(i), ids.unsafeMemoryAccess(i)) */\n      dup2\n      dup2\n      mstore\n      pop\n      pop\n        /* \"@openzeppelin/contracts/token/ERC1155/ERC1155.sol\":2934:2937  ++i */\n      dup1\n      0x01\n      add\n      swap1\n      pop\n        /* \"@openzeppelin/contracts/token/ERC1155/ERC1155.sol\":2893:3051  for (uint256 i = 0; i < accounts.length; ++i) {... */\n      jump(tag_120)\n    tag_121:\n      pop\n        /* \"@openzeppelin/contracts/token/ERC1155/ERC1155.sol\":3068:3081  batchBalances */\n      dup1\n        /* \"@openzeppelin/contracts/token/ERC1155/ERC1155.sol\":3061:3081  return batchBalances */\n      swap2\n      pop\n      pop\n        /* \"@openzeppelin/contracts/token/ERC1155/ERC1155.sol\":2536:3088  function balanceOfBatch(... */\n      swap3\n      swap2\n      pop\n      pop\n      jump\t// out\n        /* \"@openzeppelin/contracts/access/Ownable.sol\":2293:2394  function renounceOwnership() public virtual onlyOwner {... */\n    tag_53:\n        /* \"@openzeppelin/contracts/access/Ownable.sol\":1531:1544  _checkOwner() */\n      tag_132\n        /* \"@openzeppelin/contracts/access/Ownable.sol\":1531:1542  _checkOwner */\n      tag_91\n        /* \"@openzeppelin/contracts/access/Ownable.sol\":1531:1544  _checkOwner() */\n      jump\t// in\n    tag_132:\n        /* \"@openzeppelin/contracts/access/Ownable.sol\":2357:2387  _transferOwnership(address(0)) */\n      tag_134\n        /* \"@openzeppelin/contracts/access/Ownable.sol\":2384:2385  0 */\n      0x00\n        /* \"@openzeppelin/contracts/access/Ownable.sol\":2357:2375  _transferOwnership */\n      tag_135\n        /* \"@openzeppelin/contracts/access/Ownable.sol\":2357:2387  _transferOwnership(address(0)) */\n      jump\t// in\n    tag_134:\n        /* \"@openzeppelin/contracts/access/Ownable.sol\":2293:2394  function renounceOwnership() public virtual onlyOwner {... */\n      jump\t// out\n        /* \"contracts/PropiedadesToke.sol\":446:592  function mint(address account, uint256 id, uint256 amount, bytes memory data) public onlyOwner {... */\n    tag_57:\n        /* \"@openzeppelin/contracts/access/Ownable.sol\":1531:1544  _checkOwner() */\n      tag_137\n        /* \"@openzeppelin/contracts/access/Ownable.sol\":1531:1542  _checkOwner */\n      tag_91\n        /* \"@openzeppelin/contracts/access/Ownable.sol\":1531:1544  _checkOwner() */\n      jump\t// in\n    tag_137:\n        /* \"contracts/PropiedadesToke.sol\":552:584  _mint(account, id, amount, data) */\n      tag_139\n        /* \"contracts/PropiedadesToke.sol\":558:565  account */\n      dup5\n        /* \"contracts/PropiedadesToke.sol\":567:569  id */\n      dup5\n        /* \"contracts/PropiedadesToke.sol\":571:577  amount */\n      dup5\n        /* \"contracts/PropiedadesToke.sol\":579:583  data */\n      dup5\n        /* \"contracts/PropiedadesToke.sol\":552:557  _mint */\n      tag_140\n        /* \"contracts/PropiedadesToke.sol\":552:584  _mint(account, id, amount, data) */\n      jump\t// in\n    tag_139:\n        /* \"contracts/PropiedadesToke.sol\":446:592  function mint(address account, uint256 id, uint256 amount, bytes memory data) public onlyOwner {... */\n      pop\n      pop\n      pop\n      pop\n      jump\t// out\n        /* \"@openzeppelin/contracts/access/Ownable.sol\":1638:1723  function owner() public view virtual returns (address) {... */\n    tag_59:\n        /* \"@openzeppelin/contracts/access/Ownable.sol\":1684:1691  address */\n      0x00\n        /* \"@openzeppelin/contracts/access/Ownable.sol\":1710:1716  _owner */\n      0x03\n      0x00\n      swap1\n      sload\n      swap1\n      0x0100\n      exp\n      swap1\n      div\n      0xffffffffffffffffffffffffffffffffffffffff\n      and\n        /* \"@openzeppelin/contracts/access/Ownable.sol\":1703:1716  return _owner */\n      swap1\n      pop\n        /* \"@openzeppelin/contracts/access/Ownable.sol\":1638:1723  function owner() public view virtual returns (address) {... */\n      swap1\n      jump\t// out\n        /* \"@openzeppelin/contracts/token/ERC1155/ERC1155.sol\":3156:3300  function setApprovalForAll(address operator, bool approved) public virtual {... */\n    tag_65:\n        /* \"@openzeppelin/contracts/token/ERC1155/ERC1155.sol\":3241:3293  _setApprovalForAll(_msgSender(), operator, approved) */\n      tag_143\n        /* \"@openzeppelin/contracts/token/ERC1155/ERC1155.sol\":3260:3272  _msgSender() */\n      tag_144\n        /* \"@openzeppelin/contracts/token/ERC1155/ERC1155.sol\":3260:3270  _msgSender */\n      tag_104\n        /* \"@openzeppelin/contracts/token/ERC1155/ERC1155.sol\":3260:3272  _msgSender() */\n      jump\t// in\n    tag_144:\n        /* \"@openzeppelin/contracts/token/ERC1155/ERC1155.sol\":3274:3282  operator */\n      dup4\n        /* \"@openzeppelin/contracts/token/ERC1155/ERC1155.sol\":3284:3292  approved */\n      dup4\n        /* \"@openzeppelin/contracts/token/ERC1155/ERC1155.sol\":3241:3259  _setApprovalForAll */\n      tag_145\n        /* \"@openzeppelin/contracts/token/ERC1155/ERC1155.sol\":3241:3293  _setApprovalForAll(_msgSender(), operator, approved) */\n      jump\t// in\n    tag_143:\n        /* \"@openzeppelin/contracts/token/ERC1155/ERC1155.sol\":3156:3300  function setApprovalForAll(address operator, bool approved) public virtual {... */\n      pop\n      pop\n      jump\t// out\n        /* \"@openzeppelin/contracts/token/ERC1155/ERC1155.sol\":3367:3524  function isApprovedForAll(address account, address operator) public view virtual returns (bool) {... */\n    tag_69:\n        /* \"@openzeppelin/contracts/token/ERC1155/ERC1155.sol\":3457:3461  bool */\n      0x00\n        /* \"@openzeppelin/contracts/token/ERC1155/ERC1155.sol\":3480:3498  _operatorApprovals */\n      0x01\n        /* \"@openzeppelin/contracts/token/ERC1155/ERC1155.sol\":3480:3507  _operatorApprovals[account] */\n      0x00\n        /* \"@openzeppelin/contracts/token/ERC1155/ERC1155.sol\":3499:3506  account */\n      dup5\n        /* \"@openzeppelin/contracts/token/ERC1155/ERC1155.sol\":3480:3507  _operatorApprovals[account] */\n      0xffffffffffffffffffffffffffffffffffffffff\n      and\n      0xffffffffffffffffffffffffffffffffffffffff\n      and\n      dup2\n      mstore\n      0x20\n      add\n      swap1\n      dup2\n      mstore\n      0x20\n      add\n      0x00\n      keccak256\n        /* \"@openzeppelin/contracts/token/ERC1155/ERC1155.sol\":3480:3517  _operatorApprovals[account][operator] */\n      0x00\n        /* \"@openzeppelin/contracts/token/ERC1155/ERC1155.sol\":3508:3516  operator */\n      dup4\n        /* \"@openzeppelin/contracts/token/ERC1155/ERC1155.sol\":3480:3517  _operatorApprovals[account][operator] */\n      0xffffffffffffffffffffffffffffffffffffffff\n      and\n      0xffffffffffffffffffffffffffffffffffffffff\n      and\n      dup2\n      mstore\n      0x20\n      add\n      swap1\n      dup2\n      mstore\n      0x20\n      add\n      0x00\n      keccak256\n      0x00\n      swap1\n      sload\n      swap1\n      0x0100\n      exp\n      swap1\n      div\n      0xff\n      and\n        /* \"@openzeppelin/contracts/token/ERC1155/ERC1155.sol\":3473:3517  return _operatorApprovals[account][operator] */\n      swap1\n      pop\n        /* \"@openzeppelin/contracts/token/ERC1155/ERC1155.sol\":3367:3524  function isApprovedForAll(address account, address operator) public view virtual returns (bool) {... */\n      swap3\n      swap2\n      pop\n      pop\n      jump\t// out\n        /* \"@openzeppelin/contracts/token/ERC1155/ERC1155.sol\":3591:3942  function safeTransferFrom(address from, address to, uint256 id, uint256 value, bytes memory data) public virtual {... */\n    tag_74:\n        /* \"@openzeppelin/contracts/token/ERC1155/ERC1155.sol\":3714:3728  address sender */\n      0x00\n        /* \"@openzeppelin/contracts/token/ERC1155/ERC1155.sol\":3731:3743  _msgSender() */\n      tag_148\n        /* \"@openzeppelin/contracts/token/ERC1155/ERC1155.sol\":3731:3741  _msgSender */\n      tag_104\n        /* \"@openzeppelin/contracts/token/ERC1155/ERC1155.sol\":3731:3743  _msgSender() */\n      jump\t// in\n    tag_148:\n        /* \"@openzeppelin/contracts/token/ERC1155/ERC1155.sol\":3714:3743  address sender = _msgSender() */\n      swap1\n      pop\n        /* \"@openzeppelin/contracts/token/ERC1155/ERC1155.sol\":3765:3771  sender */\n      dup1\n        /* \"@openzeppelin/contracts/token/ERC1155/ERC1155.sol\":3757:3771  from != sender */\n      0xffffffffffffffffffffffffffffffffffffffff\n      and\n        /* \"@openzeppelin/contracts/token/ERC1155/ERC1155.sol\":3757:3761  from */\n      dup7\n        /* \"@openzeppelin/contracts/token/ERC1155/ERC1155.sol\":3757:3771  from != sender */\n      0xffffffffffffffffffffffffffffffffffffffff\n      and\n      eq\n      iszero\n        /* \"@openzeppelin/contracts/token/ERC1155/ERC1155.sol\":3757:3806  from != sender && !isApprovedForAll(from, sender) */\n      dup1\n      iszero\n      tag_149\n      jumpi\n      pop\n        /* \"@openzeppelin/contracts/token/ERC1155/ERC1155.sol\":3776:3806  isApprovedForAll(from, sender) */\n      tag_150\n        /* \"@openzeppelin/contracts/token/ERC1155/ERC1155.sol\":3793:3797  from */\n      dup7\n        /* \"@openzeppelin/contracts/token/ERC1155/ERC1155.sol\":3799:3805  sender */\n      dup3\n        /* \"@openzeppelin/contracts/token/ERC1155/ERC1155.sol\":3776:3792  isApprovedForAll */\n      tag_69\n        /* \"@openzeppelin/contracts/token/ERC1155/ERC1155.sol\":3776:3806  isApprovedForAll(from, sender) */\n      jump\t// in\n    tag_150:\n        /* \"@openzeppelin/contracts/token/ERC1155/ERC1155.sol\":3775:3806  !isApprovedForAll(from, sender) */\n      iszero\n        /* \"@openzeppelin/contracts/token/ERC1155/ERC1155.sol\":3757:3806  from != sender && !isApprovedForAll(from, sender) */\n    tag_149:\n        /* \"@openzeppelin/contracts/token/ERC1155/ERC1155.sol\":3753:3882  if (from != sender && !isApprovedForAll(from, sender)) {... */\n      iszero\n      tag_151\n      jumpi\n        /* \"@openzeppelin/contracts/token/ERC1155/ERC1155.sol\":3858:3864  sender */\n      dup1\n        /* \"@openzeppelin/contracts/token/ERC1155/ERC1155.sol\":3866:3870  from */\n      dup7\n        /* \"@openzeppelin/contracts/token/ERC1155/ERC1155.sol\":3829:3871  ERC1155MissingApprovalForAll(sender, from) */\n      mload(0x40)\n      0xe237d92200000000000000000000000000000000000000000000000000000000\n      dup2\n      mstore\n      0x04\n      add\n      tag_152\n      swap3\n      swap2\n      swap1\n      tag_109\n      jump\t// in\n    tag_152:\n      mload(0x40)\n      dup1\n      swap2\n      sub\n      swap1\n      revert\n        /* \"@openzeppelin/contracts/token/ERC1155/ERC1155.sol\":3753:3882  if (from != sender && !isApprovedForAll(from, sender)) {... */\n    tag_151:\n        /* \"@openzeppelin/contracts/token/ERC1155/ERC1155.sol\":3891:3935  _safeTransferFrom(from, to, id, value, data) */\n      tag_153\n        /* \"@openzeppelin/contracts/token/ERC1155/ERC1155.sol\":3909:3913  from */\n      dup7\n        /* \"@openzeppelin/contracts/token/ERC1155/ERC1155.sol\":3915:3917  to */\n      dup7\n        /* \"@openzeppelin/contracts/token/ERC1155/ERC1155.sol\":3919:3921  id */\n      dup7\n        /* \"@openzeppelin/contracts/token/ERC1155/ERC1155.sol\":3923:3928  value */\n      dup7\n        /* \"@openzeppelin/contracts/token/ERC1155/ERC1155.sol\":3930:3934  data */\n      dup7\n        /* \"@openzeppelin/contracts/token/ERC1155/ERC1155.sol\":3891:3908  _safeTransferFrom */\n      tag_154\n        /* \"@openzeppelin/contracts/token/ERC1155/ERC1155.sol\":3891:3935  _safeTransferFrom(from, to, id, value, data) */\n      jump\t// in\n    tag_153:\n        /* \"@openzeppelin/contracts/token/ERC1155/ERC1155.sol\":3704:3942  {... */\n      pop\n        /* \"@openzeppelin/contracts/token/ERC1155/ERC1155.sol\":3591:3942  function safeTransferFrom(address from, address to, uint256 id, uint256 value, bytes memory data) public virtual {... */\n      pop\n      pop\n      pop\n      pop\n      pop\n      jump\t// out\n        /* \"@openzeppelin/contracts/access/Ownable.sol\":2543:2758  function transferOwnership(address newOwner) public virtual onlyOwner {... */\n    tag_78:\n        /* \"@openzeppelin/contracts/access/Ownable.sol\":1531:1544  _checkOwner() */\n      tag_156\n        /* \"@openzeppelin/contracts/access/Ownable.sol\":1531:1542  _checkOwner */\n      tag_91\n        /* \"@openzeppelin/contracts/access/Ownable.sol\":1531:1544  _checkOwner() */\n      jump\t// in\n    tag_156:\n        /* \"@openzeppelin/contracts/access/Ownable.sol\":2647:2648  0 */\n      0x00\n        /* \"@openzeppelin/contracts/access/Ownable.sol\":2627:2649  newOwner == address(0) */\n      0xffffffffffffffffffffffffffffffffffffffff\n      and\n        /* \"@openzeppelin/contracts/access/Ownable.sol\":2627:2635  newOwner */\n      dup2\n        /* \"@openzeppelin/contracts/access/Ownable.sol\":2627:2649  newOwner == address(0) */\n      0xffffffffffffffffffffffffffffffffffffffff\n      and\n      sub\n        /* \"@openzeppelin/contracts/access/Ownable.sol\":2623:2714  if (newOwner == address(0)) {... */\n      tag_158\n      jumpi\n        /* \"@openzeppelin/contracts/access/Ownable.sol\":2700:2701  0 */\n      0x00\n        /* \"@openzeppelin/contracts/access/Ownable.sol\":2672:2703  OwnableInvalidOwner(address(0)) */\n      mload(0x40)\n      0x1e4fbdf700000000000000000000000000000000000000000000000000000000\n      dup2\n      mstore\n      0x04\n      add\n      tag_159\n      swap2\n      swap1\n      tag_61\n      jump\t// in\n    tag_159:\n      mload(0x40)\n      dup1\n      swap2\n      sub\n      swap1\n      revert\n        /* \"@openzeppelin/contracts/access/Ownable.sol\":2623:2714  if (newOwner == address(0)) {... */\n    tag_158:\n        /* \"@openzeppelin/contracts/access/Ownable.sol\":2723:2751  _transferOwnership(newOwner) */\n      tag_160\n        /* \"@openzeppelin/contracts/access/Ownable.sol\":2742:2750  newOwner */\n      dup2\n        /* \"@openzeppelin/contracts/access/Ownable.sol\":2723:2741  _transferOwnership */\n      tag_135\n        /* \"@openzeppelin/contracts/access/Ownable.sol\":2723:2751  _transferOwnership(newOwner) */\n      jump\t// in\n    tag_160:\n        /* \"@openzeppelin/contracts/access/Ownable.sol\":2543:2758  function transferOwnership(address newOwner) public virtual onlyOwner {... */\n      pop\n      jump\t// out\n        /* \"contracts/PropiedadesToke.sol\":668:789  function burn(address account, uint256 id, uint256 amount) public onlyOwner {... */\n    tag_82:\n        /* \"@openzeppelin/contracts/access/Ownable.sol\":1531:1544  _checkOwner() */\n      tag_162\n        /* \"@openzeppelin/contracts/access/Ownable.sol\":1531:1542  _checkOwner */\n      tag_91\n        /* \"@openzeppelin/contracts/access/Ownable.sol\":1531:1544  _checkOwner() */\n      jump\t// in\n    tag_162:\n        /* \"contracts/PropiedadesToke.sol\":755:781  _burn(account, id, amount) */\n      tag_164\n        /* \"contracts/PropiedadesToke.sol\":761:768  account */\n      dup4\n        /* \"contracts/PropiedadesToke.sol\":770:772  id */\n      dup4\n        /* \"contracts/PropiedadesToke.sol\":774:780  amount */\n      dup4\n        /* \"contracts/PropiedadesToke.sol\":755:760  _burn */\n      tag_165\n        /* \"contracts/PropiedadesToke.sol\":755:781  _burn(account, id, amount) */\n      jump\t// in\n    tag_164:\n        /* \"contracts/PropiedadesToke.sol\":668:789  function burn(address account, uint256 id, uint256 amount) public onlyOwner {... */\n      pop\n      pop\n      pop\n      jump\t// out\n        /* \"@openzeppelin/contracts/utils/introspection/ERC165.sol\":762:908  function supportsInterface(bytes4 interfaceId) public view virtual returns (bool) {... */\n    tag_88:\n        /* \"@openzeppelin/contracts/utils/introspection/ERC165.sol\":838:842  bool */\n      0x00\n        /* \"@openzeppelin/contracts/utils/introspection/ERC165.sol\":876:901  type(IERC165).interfaceId */\n      0x01ffc9a700000000000000000000000000000000000000000000000000000000\n        /* \"@openzeppelin/contracts/utils/introspection/ERC165.sol\":861:901  interfaceId == type(IERC165).interfaceId */\n      not(0xffffffffffffffffffffffffffffffffffffffffffffffffffffffff)\n      and\n        /* \"@openzeppelin/contracts/utils/introspection/ERC165.sol\":861:872  interfaceId */\n      dup3\n        /* \"@openzeppelin/contracts/utils/introspection/ERC165.sol\":861:901  interfaceId == type(IERC165).interfaceId */\n      not(0xffffffffffffffffffffffffffffffffffffffffffffffffffffffff)\n      and\n      eq\n        /* \"@openzeppelin/contracts/utils/introspection/ERC165.sol\":854:901  return interfaceId == type(IERC165).interfaceId */\n      swap1\n      pop\n        /* \"@openzeppelin/contracts/utils/introspection/ERC165.sol\":762:908  function supportsInterface(bytes4 interfaceId) public view virtual returns (bool) {... */\n      swap2\n      swap1\n      pop\n      jump\t// out\n        /* \"@openzeppelin/contracts/access/Ownable.sol\":1796:1958  function _checkOwner() internal view virtual {... */\n    tag_91:\n        /* \"@openzeppelin/contracts/access/Ownable.sol\":1866:1878  _msgSender() */\n      tag_168\n        /* \"@openzeppelin/contracts/access/Ownable.sol\":1866:1876  _msgSender */\n      tag_104\n        /* \"@openzeppelin/contracts/access/Ownable.sol\":1866:1878  _msgSender() */\n      jump\t// in\n    tag_168:\n        /* \"@openzeppelin/contracts/access/Ownable.sol\":1855:1878  owner() != _msgSender() */\n      0xffffffffffffffffffffffffffffffffffffffff\n      and\n        /* \"@openzeppelin/contracts/access/Ownable.sol\":1855:1862  owner() */\n      tag_169\n        /* \"@openzeppelin/contracts/access/Ownable.sol\":1855:1860  owner */\n      tag_59\n        /* \"@openzeppelin/contracts/access/Ownable.sol\":1855:1862  owner() */\n      jump\t// in\n    tag_169:\n        /* \"@openzeppelin/contracts/access/Ownable.sol\":1855:1878  owner() != _msgSender() */\n      0xffffffffffffffffffffffffffffffffffffffff\n      and\n      eq\n        /* \"@openzeppelin/contracts/access/Ownable.sol\":1851:1952  if (owner() != _msgSender()) {... */\n      tag_170\n      jumpi\n        /* \"@openzeppelin/contracts/access/Ownable.sol\":1928:1940  _msgSender() */\n      tag_171\n        /* \"@openzeppelin/contracts/access/Ownable.sol\":1928:1938  _msgSender */\n      tag_104\n        /* \"@openzeppelin/contracts/access/Ownable.sol\":1928:1940  _msgSender() */\n      jump\t// in\n    tag_171:\n        /* \"@openzeppelin/contracts/access/Ownable.sol\":1901:1941  OwnableUnauthorizedAccount(_msgSender()) */\n      mload(0x40)\n      0x118cdaa700000000000000000000000000000000000000000000000000000000\n      dup2\n      mstore\n      0x04\n      add\n      tag_172\n      swap2\n      swap1\n      tag_61\n      jump\t// in\n    tag_172:\n      mload(0x40)\n      dup1\n      swap2\n      sub\n      swap1\n      revert\n        /* \"@openzeppelin/contracts/access/Ownable.sol\":1851:1952  if (owner() != _msgSender()) {... */\n    tag_170:\n        /* \"@openzeppelin/contracts/access/Ownable.sol\":1796:1958  function _checkOwner() internal view virtual {... */\n      jump\t// out\n        /* \"@openzeppelin/contracts/token/ERC1155/ERC1155.sol\":10282:10368  function _setURI(string memory newuri) internal virtual {... */\n    tag_94:\n        /* \"@openzeppelin/contracts/token/ERC1155/ERC1155.sol\":10355:10361  newuri */\n      dup1\n        /* \"@openzeppelin/contracts/token/ERC1155/ERC1155.sol\":10348:10352  _uri */\n      0x02\n        /* \"@openzeppelin/contracts/token/ERC1155/ERC1155.sol\":10348:10361  _uri = newuri */\n      swap1\n      dup2\n      tag_174\n      swap2\n      swap1\n      tag_175\n      jump\t// in\n    tag_174:\n      pop\n        /* \"@openzeppelin/contracts/token/ERC1155/ERC1155.sol\":10282:10368  function _setURI(string memory newuri) internal virtual {... */\n      pop\n      jump\t// out\n        /* \"@openzeppelin/contracts/utils/Context.sol\":656:752  function _msgSender() internal view virtual returns (address) {... */\n    tag_104:\n        /* \"@openzeppelin/contracts/utils/Context.sol\":709:716  address */\n      0x00\n        /* \"@openzeppelin/contracts/utils/Context.sol\":735:745  msg.sender */\n      caller\n        /* \"@openzeppelin/contracts/utils/Context.sol\":728:745  return msg.sender */\n      swap1\n      pop\n        /* \"@openzeppelin/contracts/utils/Context.sol\":656:752  function _msgSender() internal view virtual returns (address) {... */\n      swap1\n      jump\t// out\n        /* \"@openzeppelin/contracts/token/ERC1155/ERC1155.sol\":9015:9460  function _safeBatchTransferFrom(... */\n    tag_111:\n        /* \"@openzeppelin/contracts/token/ERC1155/ERC1155.sol\":9222:9223  0 */\n      0x00\n        /* \"@openzeppelin/contracts/token/ERC1155/ERC1155.sol\":9208:9224  to == address(0) */\n      0xffffffffffffffffffffffffffffffffffffffff\n      and\n        /* \"@openzeppelin/contracts/token/ERC1155/ERC1155.sol\":9208:9210  to */\n      dup5\n        /* \"@openzeppelin/contracts/token/ERC1155/ERC1155.sol\":9208:9224  to == address(0) */\n      0xffffffffffffffffffffffffffffffffffffffff\n      and\n      sub\n        /* \"@openzeppelin/contracts/token/ERC1155/ERC1155.sol\":9204:9292  if (to == address(0)) {... */\n      tag_178\n      jumpi\n        /* \"@openzeppelin/contracts/token/ERC1155/ERC1155.sol\":9278:9279  0 */\n      0x00\n        /* \"@openzeppelin/contracts/token/ERC1155/ERC1155.sol\":9247:9281  ERC1155InvalidReceiver(address(0)) */\n      mload(0x40)\n      0x57f447ce00000000000000000000000000000000000000000000000000000000\n      dup2\n      mstore\n      0x04\n      add\n      tag_179\n      swap2\n      swap1\n      tag_61\n      jump\t// in\n    tag_179:\n      mload(0x40)\n      dup1\n      swap2\n      sub\n      swap1\n      revert\n        /* \"@openzeppelin/contracts/token/ERC1155/ERC1155.sol\":9204:9292  if (to == address(0)) {... */\n    tag_178:\n        /* \"@openzeppelin/contracts/token/ERC1155/ERC1155.sol\":9321:9322  0 */\n      0x00\n        /* \"@openzeppelin/contracts/token/ERC1155/ERC1155.sol\":9305:9323  from == address(0) */\n      0xffffffffffffffffffffffffffffffffffffffff\n      and\n        /* \"@openzeppelin/contracts/token/ERC1155/ERC1155.sol\":9305:9309  from */\n      dup6\n        /* \"@openzeppelin/contracts/token/ERC1155/ERC1155.sol\":9305:9323  from == address(0) */\n      0xffffffffffffffffffffffffffffffffffffffff\n      and\n      sub\n        /* \"@openzeppelin/contracts/token/ERC1155/ERC1155.sol\":9301:9389  if (from == address(0)) {... */\n      tag_180\n      jumpi\n        /* \"@openzeppelin/contracts/token/ERC1155/ERC1155.sol\":9375:9376  0 */\n      0x00\n        /* \"@openzeppelin/contracts/token/ERC1155/ERC1155.sol\":9346:9378  ERC1155InvalidSender(address(0)) */\n      mload(0x40)\n      0x01a8351400000000000000000000000000000000000000000000000000000000\n      dup2\n      mstore\n      0x04\n      add\n      tag_181\n      swap2\n      swap1\n      tag_61\n      jump\t// in\n    tag_181:\n      mload(0x40)\n      dup1\n      swap2\n      sub\n      swap1\n      revert\n        /* \"@openzeppelin/contracts/token/ERC1155/ERC1155.sol\":9301:9389  if (from == address(0)) {... */\n    tag_180:\n        /* \"@openzeppelin/contracts/token/ERC1155/ERC1155.sol\":9398:9453  _updateWithAcceptanceCheck(from, to, ids, values, data) */\n      tag_182\n        /* \"@openzeppelin/contracts/token/ERC1155/ERC1155.sol\":9425:9429  from */\n      dup6\n        /* \"@openzeppelin/contracts/token/ERC1155/ERC1155.sol\":9431:9433  to */\n      dup6\n        /* \"@openzeppelin/contracts/token/ERC1155/ERC1155.sol\":9435:9438  ids */\n      dup6\n        /* \"@openzeppelin/contracts/token/ERC1155/ERC1155.sol\":9440:9446  values */\n      dup6\n        /* \"@openzeppelin/contracts/token/ERC1155/ERC1155.sol\":9448:9452  data */\n      dup6\n        /* \"@openzeppelin/contracts/token/ERC1155/ERC1155.sol\":9398:9424  _updateWithAcceptanceCheck */\n      tag_183\n        /* \"@openzeppelin/contracts/token/ERC1155/ERC1155.sol\":9398:9453  _updateWithAcceptanceCheck(from, to, ids, values, data) */\n      jump\t// in\n    tag_182:\n        /* \"@openzeppelin/contracts/token/ERC1155/ERC1155.sol\":9015:9460  function _safeBatchTransferFrom(... */\n      pop\n      pop\n      pop\n      pop\n      pop\n      jump\t// out\n        /* \"@openzeppelin/contracts/utils/Arrays.sol\":4603:4800  function unsafeMemoryAccess(address[] memory arr, uint256 pos) internal pure returns (address res) {... */\n    tag_125:\n        /* \"@openzeppelin/contracts/utils/Arrays.sol\":4689:4700  address res */\n      0x00\n        /* \"@openzeppelin/contracts/utils/Arrays.sol\":4777:4781  0x20 */\n      0x20\n        /* \"@openzeppelin/contracts/utils/Arrays.sol\":4772:4775  pos */\n      dup3\n        /* \"@openzeppelin/contracts/utils/Arrays.sol\":4768:4782  mul(pos, 0x20) */\n      mul\n        /* \"@openzeppelin/contracts/utils/Arrays.sol\":4761:4765  0x20 */\n      0x20\n        /* \"@openzeppelin/contracts/utils/Arrays.sol\":4756:4759  arr */\n      dup5\n        /* \"@openzeppelin/contracts/utils/Arrays.sol\":4752:4766  add(arr, 0x20) */\n      add\n        /* \"@openzeppelin/contracts/utils/Arrays.sol\":4748:4783  add(add(arr, 0x20), mul(pos, 0x20)) */\n      add\n        /* \"@openzeppelin/contracts/utils/Arrays.sol\":4742:4784  mload(add(add(arr, 0x20), mul(pos, 0x20))) */\n      mload\n        /* \"@openzeppelin/contracts/utils/Arrays.sol\":4735:4784  res := mload(add(add(arr, 0x20), mul(pos, 0x20))) */\n      swap1\n      pop\n        /* \"@openzeppelin/contracts/utils/Arrays.sol\":4603:4800  function unsafeMemoryAccess(address[] memory arr, uint256 pos) internal pure returns (address res) {... */\n      swap3\n      swap2\n      pop\n      pop\n      jump\t// out\n        /* \"@openzeppelin/contracts/utils/Arrays.sol\":4204:4401  function unsafeMemoryAccess(uint256[] memory arr, uint256 pos) internal pure returns (uint256 res) {... */\n    tag_127:\n        /* \"@openzeppelin/contracts/utils/Arrays.sol\":4290:4301  uint256 res */\n      0x00\n        /* \"@openzeppelin/contracts/utils/Arrays.sol\":4378:4382  0x20 */\n      0x20\n        /* \"@openzeppelin/contracts/utils/Arrays.sol\":4373:4376  pos */\n      dup3\n        /* \"@openzeppelin/contracts/utils/Arrays.sol\":4369:4383  mul(pos, 0x20) */\n      mul\n        /* \"@openzeppelin/contracts/utils/Arrays.sol\":4362:4366  0x20 */\n      0x20\n        /* \"@openzeppelin/contracts/utils/Arrays.sol\":4357:4360  arr */\n      dup5\n        /* \"@openzeppelin/contracts/utils/Arrays.sol\":4353:4367  add(arr, 0x20) */\n      add\n        /* \"@openzeppelin/contracts/utils/Arrays.sol\":4349:4384  add(add(arr, 0x20), mul(pos, 0x20)) */\n      add\n        /* \"@openzeppelin/contracts/utils/Arrays.sol\":4343:4385  mload(add(add(arr, 0x20), mul(pos, 0x20))) */\n      mload\n        /* \"@openzeppelin/contracts/utils/Arrays.sol\":4336:4385  res := mload(add(add(arr, 0x20), mul(pos, 0x20))) */\n      swap1\n      pop\n        /* \"@openzeppelin/contracts/utils/Arrays.sol\":4204:4401  function unsafeMemoryAccess(uint256[] memory arr, uint256 pos) internal pure returns (uint256 res) {... */\n      swap3\n      swap2\n      pop\n      pop\n      jump\t// out\n        /* \"@openzeppelin/contracts/access/Ownable.sol\":2912:3099  function _transferOwnership(address newOwner) internal virtual {... */\n    tag_135:\n        /* \"@openzeppelin/contracts/access/Ownable.sol\":2985:3001  address oldOwner */\n      0x00\n        /* \"@openzeppelin/contracts/access/Ownable.sol\":3004:3010  _owner */\n      0x03\n      0x00\n      swap1\n      sload\n      swap1\n      0x0100\n      exp\n      swap1\n      div\n      0xffffffffffffffffffffffffffffffffffffffff\n      and\n        /* \"@openzeppelin/contracts/access/Ownable.sol\":2985:3010  address oldOwner = _owner */\n      swap1\n      pop\n        /* \"@openzeppelin/contracts/access/Ownable.sol\":3029:3037  newOwner */\n      dup2\n        /* \"@openzeppelin/contracts/access/Ownable.sol\":3020:3026  _owner */\n      0x03\n      0x00\n        /* \"@openzeppelin/contracts/access/Ownable.sol\":3020:3037  _owner = newOwner */\n      0x0100\n      exp\n      dup2\n      sload\n      dup2\n      0xffffffffffffffffffffffffffffffffffffffff\n      mul\n      not\n      and\n      swap1\n      dup4\n      0xffffffffffffffffffffffffffffffffffffffff\n      and\n      mul\n      or\n      swap1\n      sstore\n      pop\n        /* \"@openzeppelin/contracts/access/Ownable.sol\":3083:3091  newOwner */\n      dup2\n        /* \"@openzeppelin/contracts/access/Ownable.sol\":3052:3092  OwnershipTransferred(oldOwner, newOwner) */\n      0xffffffffffffffffffffffffffffffffffffffff\n      and\n        /* \"@openzeppelin/contracts/access/Ownable.sol\":3073:3081  oldOwner */\n      dup2\n        /* \"@openzeppelin/contracts/access/Ownable.sol\":3052:3092  OwnershipTransferred(oldOwner, newOwner) */\n      0xffffffffffffffffffffffffffffffffffffffff\n      and\n      0x8be0079c531659141344cd1fd0a4f28419497f9722a3daafe3b4186f6b6457e0\n      mload(0x40)\n      mload(0x40)\n      dup1\n      swap2\n      sub\n      swap1\n      log3\n        /* \"@openzeppelin/contracts/access/Ownable.sol\":2975:3099  {... */\n      pop\n        /* \"@openzeppelin/contracts/access/Ownable.sol\":2912:3099  function _transferOwnership(address newOwner) internal virtual {... */\n      pop\n      jump\t// out\n        /* \"@openzeppelin/contracts/token/ERC1155/ERC1155.sol\":10746:11092  function _mint(address to, uint256 id, uint256 value, bytes memory data) internal {... */\n    tag_140:\n        /* \"@openzeppelin/contracts/token/ERC1155/ERC1155.sol\":10856:10857  0 */\n      0x00\n        /* \"@openzeppelin/contracts/token/ERC1155/ERC1155.sol\":10842:10858  to == address(0) */\n      0xffffffffffffffffffffffffffffffffffffffff\n      and\n        /* \"@openzeppelin/contracts/token/ERC1155/ERC1155.sol\":10842:10844  to */\n      dup5\n        /* \"@openzeppelin/contracts/token/ERC1155/ERC1155.sol\":10842:10858  to == address(0) */\n      0xffffffffffffffffffffffffffffffffffffffff\n      and\n      sub\n        /* \"@openzeppelin/contracts/token/ERC1155/ERC1155.sol\":10838:10926  if (to == address(0)) {... */\n      tag_188\n      jumpi\n        /* \"@openzeppelin/contracts/token/ERC1155/ERC1155.sol\":10912:10913  0 */\n      0x00\n        /* \"@openzeppelin/contracts/token/ERC1155/ERC1155.sol\":10881:10915  ERC1155InvalidReceiver(address(0)) */\n      mload(0x40)\n      0x57f447ce00000000000000000000000000000000000000000000000000000000\n      dup2\n      mstore\n      0x04\n      add\n      tag_189\n      swap2\n      swap1\n      tag_61\n      jump\t// in\n    tag_189:\n      mload(0x40)\n      dup1\n      swap2\n      sub\n      swap1\n      revert\n        /* \"@openzeppelin/contracts/token/ERC1155/ERC1155.sol\":10838:10926  if (to == address(0)) {... */\n    tag_188:\n        /* \"@openzeppelin/contracts/token/ERC1155/ERC1155.sol\":10936:10956  uint256[] memory ids */\n      0x00\n        /* \"@openzeppelin/contracts/token/ERC1155/ERC1155.sol\":10958:10981  uint256[] memory values */\n      dup1\n        /* \"@openzeppelin/contracts/token/ERC1155/ERC1155.sol\":10985:11014  _asSingletonArrays(id, value) */\n      tag_190\n        /* \"@openzeppelin/contracts/token/ERC1155/ERC1155.sol\":11004:11006  id */\n      dup6\n        /* \"@openzeppelin/contracts/token/ERC1155/ERC1155.sol\":11008:11013  value */\n      dup6\n        /* \"@openzeppelin/contracts/token/ERC1155/ERC1155.sol\":10985:11003  _asSingletonArrays */\n      tag_191\n        /* \"@openzeppelin/contracts/token/ERC1155/ERC1155.sol\":10985:11014  _asSingletonArrays(id, value) */\n      jump\t// in\n    tag_190:\n        /* \"@openzeppelin/contracts/token/ERC1155/ERC1155.sol\":10935:11014  (uint256[] memory ids, uint256[] memory values) = _asSingletonArrays(id, value) */\n      swap2\n      pop\n      swap2\n      pop\n        /* \"@openzeppelin/contracts/token/ERC1155/ERC1155.sol\":11024:11085  _updateWithAcceptanceCheck(address(0), to, ids, values, data) */\n      tag_192\n        /* \"@openzeppelin/contracts/token/ERC1155/ERC1155.sol\":11059:11060  0 */\n      0x00\n        /* \"@openzeppelin/contracts/token/ERC1155/ERC1155.sol\":11063:11065  to */\n      dup8\n        /* \"@openzeppelin/contracts/token/ERC1155/ERC1155.sol\":11067:11070  ids */\n      dup5\n        /* \"@openzeppelin/contracts/token/ERC1155/ERC1155.sol\":11072:11078  values */\n      dup5\n        /* \"@openzeppelin/contracts/token/ERC1155/ERC1155.sol\":11080:11084  data */\n      dup8\n        /* \"@openzeppelin/contracts/token/ERC1155/ERC1155.sol\":11024:11050  _updateWithAcceptanceCheck */\n      tag_183\n        /* \"@openzeppelin/contracts/token/ERC1155/ERC1155.sol\":11024:11085  _updateWithAcceptanceCheck(address(0), to, ids, values, data) */\n      jump\t// in\n    tag_192:\n        /* \"@openzeppelin/contracts/token/ERC1155/ERC1155.sol\":10828:11092  {... */\n      pop\n      pop\n        /* \"@openzeppelin/contracts/token/ERC1155/ERC1155.sol\":10746:11092  function _mint(address to, uint256 id, uint256 value, bytes memory data) internal {... */\n      pop\n      pop\n      pop\n      pop\n      jump\t// out\n        /* \"@openzeppelin/contracts/token/ERC1155/ERC1155.sol\":13268:13583  function _setApprovalForAll(address owner, address operator, bool approved) internal virtual {... */\n    tag_145:\n        /* \"@openzeppelin/contracts/token/ERC1155/ERC1155.sol\":13395:13396  0 */\n      0x00\n        /* \"@openzeppelin/contracts/token/ERC1155/ERC1155.sol\":13375:13397  operator == address(0) */\n      0xffffffffffffffffffffffffffffffffffffffff\n      and\n        /* \"@openzeppelin/contracts/token/ERC1155/ERC1155.sol\":13375:13383  operator */\n      dup3\n        /* \"@openzeppelin/contracts/token/ERC1155/ERC1155.sol\":13375:13397  operator == address(0) */\n      0xffffffffffffffffffffffffffffffffffffffff\n      and\n      sub\n        /* \"@openzeppelin/contracts/token/ERC1155/ERC1155.sol\":13371:13465  if (operator == address(0)) {... */\n      tag_194\n      jumpi\n        /* \"@openzeppelin/contracts/token/ERC1155/ERC1155.sol\":13451:13452  0 */\n      0x00\n        /* \"@openzeppelin/contracts/token/ERC1155/ERC1155.sol\":13420:13454  ERC1155InvalidOperator(address(0)) */\n      mload(0x40)\n      0xced3e10000000000000000000000000000000000000000000000000000000000\n      dup2\n      mstore\n      0x04\n      add\n      tag_195\n      swap2\n      swap1\n      tag_61\n      jump\t// in\n    tag_195:\n      mload(0x40)\n      dup1\n      swap2\n      sub\n      swap1\n      revert\n        /* \"@openzeppelin/contracts/token/ERC1155/ERC1155.sol\":13371:13465  if (operator == address(0)) {... */\n    tag_194:\n        /* \"@openzeppelin/contracts/token/ERC1155/ERC1155.sol\":13512:13520  approved */\n      dup1\n        /* \"@openzeppelin/contracts/token/ERC1155/ERC1155.sol\":13474:13492  _operatorApprovals */\n      0x01\n        /* \"@openzeppelin/contracts/token/ERC1155/ERC1155.sol\":13474:13499  _operatorApprovals[owner] */\n      0x00\n        /* \"@openzeppelin/contracts/token/ERC1155/ERC1155.sol\":13493:13498  owner */\n      dup6\n        /* \"@openzeppelin/contracts/token/ERC1155/ERC1155.sol\":13474:13499  _operatorApprovals[owner] */\n      0xffffffffffffffffffffffffffffffffffffffff\n      and\n      0xffffffffffffffffffffffffffffffffffffffff\n      and\n      dup2\n      mstore\n      0x20\n      add\n      swap1\n      dup2\n      mstore\n      0x20\n      add\n      0x00\n      keccak256\n        /* \"@openzeppelin/contracts/token/ERC1155/ERC1155.sol\":13474:13509  _operatorApprovals[owner][operator] */\n      0x00\n        /* \"@openzeppelin/contracts/token/ERC1155/ERC1155.sol\":13500:13508  operator */\n      dup5\n        /* \"@openzeppelin/contracts/token/ERC1155/ERC1155.sol\":13474:13509  _operatorApprovals[owner][operator] */\n      0xffffffffffffffffffffffffffffffffffffffff\n      and\n      0xffffffffffffffffffffffffffffffffffffffff\n      and\n      dup2\n      mstore\n      0x20\n      add\n      swap1\n      dup2\n      mstore\n      0x20\n      add\n      0x00\n      keccak256\n      0x00\n        /* \"@openzeppelin/contracts/token/ERC1155/ERC1155.sol\":13474:13520  _operatorApprovals[owner][operator] = approved */\n      0x0100\n      exp\n      dup2\n      sload\n      dup2\n      0xff\n      mul\n      not\n      and\n      swap1\n      dup4\n      iszero\n      iszero\n      mul\n      or\n      swap1\n      sstore\n      pop\n        /* \"@openzeppelin/contracts/token/ERC1155/ERC1155.sol\":13557:13565  operator */\n      dup2\n        /* \"@openzeppelin/contracts/token/ERC1155/ERC1155.sol\":13535:13576  ApprovalForAll(owner, operator, approved) */\n      0xffffffffffffffffffffffffffffffffffffffff\n      and\n        /* \"@openzeppelin/contracts/token/ERC1155/ERC1155.sol\":13550:13555  owner */\n      dup4\n        /* \"@openzeppelin/contracts/token/ERC1155/ERC1155.sol\":13535:13576  ApprovalForAll(owner, operator, approved) */\n      0xffffffffffffffffffffffffffffffffffffffff\n      and\n      0x17307eab39ab6107e8899845ad3d59bd9653f200f220920489ca2b5937696c31\n        /* \"@openzeppelin/contracts/token/ERC1155/ERC1155.sol\":13567:13575  approved */\n      dup4\n        /* \"@openzeppelin/contracts/token/ERC1155/ERC1155.sol\":13535:13576  ApprovalForAll(owner, operator, approved) */\n      mload(0x40)\n      tag_196\n      swap2\n      swap1\n      tag_31\n      jump\t// in\n    tag_196:\n      mload(0x40)\n      dup1\n      swap2\n      sub\n      swap1\n      log3\n        /* \"@openzeppelin/contracts/token/ERC1155/ERC1155.sol\":13268:13583  function _setApprovalForAll(address owner, address operator, bool approved) internal virtual {... */\n      pop\n      pop\n      pop\n      jump\t// out\n        /* \"@openzeppelin/contracts/token/ERC1155/ERC1155.sol\":8151:8614  function _safeTransferFrom(address from, address to, uint256 id, uint256 value, bytes memory data) internal {... */\n    tag_154:\n        /* \"@openzeppelin/contracts/token/ERC1155/ERC1155.sol\":8287:8288  0 */\n      0x00\n        /* \"@openzeppelin/contracts/token/ERC1155/ERC1155.sol\":8273:8289  to == address(0) */\n      0xffffffffffffffffffffffffffffffffffffffff\n      and\n        /* \"@openzeppelin/contracts/token/ERC1155/ERC1155.sol\":8273:8275  to */\n      dup5\n        /* \"@openzeppelin/contracts/token/ERC1155/ERC1155.sol\":8273:8289  to == address(0) */\n      0xffffffffffffffffffffffffffffffffffffffff\n      and\n      sub\n        /* \"@openzeppelin/contracts/token/ERC1155/ERC1155.sol\":8269:8357  if (to == address(0)) {... */\n      tag_198\n      jumpi\n        /* \"@openzeppelin/contracts/token/ERC1155/ERC1155.sol\":8343:8344  0 */\n      0x00\n        /* \"@openzeppelin/contracts/token/ERC1155/ERC1155.sol\":8312:8346  ERC1155InvalidReceiver(address(0)) */\n      mload(0x40)\n      0x57f447ce00000000000000000000000000000000000000000000000000000000\n      dup2\n      mstore\n      0x04\n      add\n      tag_199\n      swap2\n      swap1\n      tag_61\n      jump\t// in\n    tag_199:\n      mload(0x40)\n      dup1\n      swap2\n      sub\n      swap1\n      revert\n        /* \"@openzeppelin/contracts/token/ERC1155/ERC1155.sol\":8269:8357  if (to == address(0)) {... */\n    tag_198:\n        /* \"@openzeppelin/contracts/token/ERC1155/ERC1155.sol\":8386:8387  0 */\n      0x00\n        /* \"@openzeppelin/contracts/token/ERC1155/ERC1155.sol\":8370:8388  from == address(0) */\n      0xffffffffffffffffffffffffffffffffffffffff\n      and\n        /* \"@openzeppelin/contracts/token/ERC1155/ERC1155.sol\":8370:8374  from */\n      dup6\n        /* \"@openzeppelin/contracts/token/ERC1155/ERC1155.sol\":8370:8388  from == address(0) */\n      0xffffffffffffffffffffffffffffffffffffffff\n      and\n      sub\n        /* \"@openzeppelin/contracts/token/ERC1155/ERC1155.sol\":8366:8454  if (from == address(0)) {... */\n      tag_200\n      jumpi\n        /* \"@openzeppelin/contracts/token/ERC1155/ERC1155.sol\":8440:8441  0 */\n      0x00\n        /* \"@openzeppelin/contracts/token/ERC1155/ERC1155.sol\":8411:8443  ERC1155InvalidSender(address(0)) */\n      mload(0x40)\n      0x01a8351400000000000000000000000000000000000000000000000000000000\n      dup2\n      mstore\n      0x04\n      add\n      tag_201\n      swap2\n      swap1\n      tag_61\n      jump\t// in\n    tag_201:\n      mload(0x40)\n      dup1\n      swap2\n      sub\n      swap1\n      revert\n        /* \"@openzeppelin/contracts/token/ERC1155/ERC1155.sol\":8366:8454  if (from == address(0)) {... */\n    tag_200:\n        /* \"@openzeppelin/contracts/token/ERC1155/ERC1155.sol\":8464:8484  uint256[] memory ids */\n      0x00\n        /* \"@openzeppelin/contracts/token/ERC1155/ERC1155.sol\":8486:8509  uint256[] memory values */\n      dup1\n        /* \"@openzeppelin/contracts/token/ERC1155/ERC1155.sol\":8513:8542  _asSingletonArrays(id, value) */\n      tag_202\n        /* \"@openzeppelin/contracts/token/ERC1155/ERC1155.sol\":8532:8534  id */\n      dup6\n        /* \"@openzeppelin/contracts/token/ERC1155/ERC1155.sol\":8536:8541  value */\n      dup6\n        /* \"@openzeppelin/contracts/token/ERC1155/ERC1155.sol\":8513:8531  _asSingletonArrays */\n      tag_191\n        /* \"@openzeppelin/contracts/token/ERC1155/ERC1155.sol\":8513:8542  _asSingletonArrays(id, value) */\n      jump\t// in\n    tag_202:\n        /* \"@openzeppelin/contracts/token/ERC1155/ERC1155.sol\":8463:8542  (uint256[] memory ids, uint256[] memory values) = _asSingletonArrays(id, value) */\n      swap2\n      pop\n      swap2\n      pop\n        /* \"@openzeppelin/contracts/token/ERC1155/ERC1155.sol\":8552:8607  _updateWithAcceptanceCheck(from, to, ids, values, data) */\n      tag_203\n        /* \"@openzeppelin/contracts/token/ERC1155/ERC1155.sol\":8579:8583  from */\n      dup8\n        /* \"@openzeppelin/contracts/token/ERC1155/ERC1155.sol\":8585:8587  to */\n      dup8\n        /* \"@openzeppelin/contracts/token/ERC1155/ERC1155.sol\":8589:8592  ids */\n      dup5\n        /* \"@openzeppelin/contracts/token/ERC1155/ERC1155.sol\":8594:8600  values */\n      dup5\n        /* \"@openzeppelin/contracts/token/ERC1155/ERC1155.sol\":8602:8606  data */\n      dup8\n        /* \"@openzeppelin/contracts/token/ERC1155/ERC1155.sol\":8552:8578  _updateWithAcceptanceCheck */\n      tag_183\n        /* \"@openzeppelin/contracts/token/ERC1155/ERC1155.sol\":8552:8607  _updateWithAcceptanceCheck(from, to, ids, values, data) */\n      jump\t// in\n    tag_203:\n        /* \"@openzeppelin/contracts/token/ERC1155/ERC1155.sol\":8259:8614  {... */\n      pop\n      pop\n        /* \"@openzeppelin/contracts/token/ERC1155/ERC1155.sol\":8151:8614  function _safeTransferFrom(address from, address to, uint256 id, uint256 value, bytes memory data) internal {... */\n      pop\n      pop\n      pop\n      pop\n      pop\n      jump\t// out\n        /* \"@openzeppelin/contracts/token/ERC1155/ERC1155.sol\":12099:12428  function _burn(address from, uint256 id, uint256 value) internal {... */\n    tag_165:\n        /* \"@openzeppelin/contracts/token/ERC1155/ERC1155.sol\":12194:12195  0 */\n      0x00\n        /* \"@openzeppelin/contracts/token/ERC1155/ERC1155.sol\":12178:12196  from == address(0) */\n      0xffffffffffffffffffffffffffffffffffffffff\n      and\n        /* \"@openzeppelin/contracts/token/ERC1155/ERC1155.sol\":12178:12182  from */\n      dup4\n        /* \"@openzeppelin/contracts/token/ERC1155/ERC1155.sol\":12178:12196  from == address(0) */\n      0xffffffffffffffffffffffffffffffffffffffff\n      and\n      sub\n        /* \"@openzeppelin/contracts/token/ERC1155/ERC1155.sol\":12174:12262  if (from == address(0)) {... */\n      tag_205\n      jumpi\n        /* \"@openzeppelin/contracts/token/ERC1155/ERC1155.sol\":12248:12249  0 */\n      0x00\n        /* \"@openzeppelin/contracts/token/ERC1155/ERC1155.sol\":12219:12251  ERC1155InvalidSender(address(0)) */\n      mload(0x40)\n      0x01a8351400000000000000000000000000000000000000000000000000000000\n      dup2\n      mstore\n      0x04\n      add\n      tag_206\n      swap2\n      swap1\n      tag_61\n      jump\t// in\n    tag_206:\n      mload(0x40)\n      dup1\n      swap2\n      sub\n      swap1\n      revert\n        /* \"@openzeppelin/contracts/token/ERC1155/ERC1155.sol\":12174:12262  if (from == address(0)) {... */\n    tag_205:\n        /* \"@openzeppelin/contracts/token/ERC1155/ERC1155.sol\":12272:12292  uint256[] memory ids */\n      0x00\n        /* \"@openzeppelin/contracts/token/ERC1155/ERC1155.sol\":12294:12317  uint256[] memory values */\n      dup1\n        /* \"@openzeppelin/contracts/token/ERC1155/ERC1155.sol\":12321:12350  _asSingletonArrays(id, value) */\n      tag_207\n        /* \"@openzeppelin/contracts/token/ERC1155/ERC1155.sol\":12340:12342  id */\n      dup5\n        /* \"@openzeppelin/contracts/token/ERC1155/ERC1155.sol\":12344:12349  value */\n      dup5\n        /* \"@openzeppelin/contracts/token/ERC1155/ERC1155.sol\":12321:12339  _asSingletonArrays */\n      tag_191\n        /* \"@openzeppelin/contracts/token/ERC1155/ERC1155.sol\":12321:12350  _asSingletonArrays(id, value) */\n      jump\t// in\n    tag_207:\n        /* \"@openzeppelin/contracts/token/ERC1155/ERC1155.sol\":12271:12350  (uint256[] memory ids, uint256[] memory values) = _asSingletonArrays(id, value) */\n      swap2\n      pop\n      swap2\n      pop\n        /* \"@openzeppelin/contracts/token/ERC1155/ERC1155.sol\":12360:12421  _updateWithAcceptanceCheck(from, address(0), ids, values, \"\") */\n      tag_208\n        /* \"@openzeppelin/contracts/token/ERC1155/ERC1155.sol\":12387:12391  from */\n      dup6\n        /* \"@openzeppelin/contracts/token/ERC1155/ERC1155.sol\":12401:12402  0 */\n      0x00\n        /* \"@openzeppelin/contracts/token/ERC1155/ERC1155.sol\":12405:12408  ids */\n      dup5\n        /* \"@openzeppelin/contracts/token/ERC1155/ERC1155.sol\":12410:12416  values */\n      dup5\n        /* \"@openzeppelin/contracts/token/ERC1155/ERC1155.sol\":12360:12421  _updateWithAcceptanceCheck(from, address(0), ids, values, \"\") */\n      mload(0x40)\n      dup1\n      0x20\n      add\n      0x40\n      mstore\n      dup1\n      0x00\n      dup2\n      mstore\n      pop\n        /* \"@openzeppelin/contracts/token/ERC1155/ERC1155.sol\":12360:12386  _updateWithAcceptanceCheck */\n      tag_183\n        /* \"@openzeppelin/contracts/token/ERC1155/ERC1155.sol\":12360:12421  _updateWithAcceptanceCheck(from, address(0), ids, values, \"\") */\n      jump\t// in\n    tag_208:\n        /* \"@openzeppelin/contracts/token/ERC1155/ERC1155.sol\":12164:12428  {... */\n      pop\n      pop\n        /* \"@openzeppelin/contracts/token/ERC1155/ERC1155.sol\":12099:12428  function _burn(address from, uint256 id, uint256 value) internal {... */\n      pop\n      pop\n      pop\n      jump\t// out\n        /* \"@openzeppelin/contracts/token/ERC1155/ERC1155.sol\":7004:7694  function _updateWithAcceptanceCheck(... */\n    tag_183:\n        /* \"@openzeppelin/contracts/token/ERC1155/ERC1155.sol\":7205:7235  _update(from, to, ids, values) */\n      tag_210\n        /* \"@openzeppelin/contracts/token/ERC1155/ERC1155.sol\":7213:7217  from */\n      dup6\n        /* \"@openzeppelin/contracts/token/ERC1155/ERC1155.sol\":7219:7221  to */\n      dup6\n        /* \"@openzeppelin/contracts/token/ERC1155/ERC1155.sol\":7223:7226  ids */\n      dup6\n        /* \"@openzeppelin/contracts/token/ERC1155/ERC1155.sol\":7228:7234  values */\n      dup6\n        /* \"@openzeppelin/contracts/token/ERC1155/ERC1155.sol\":7205:7212  _update */\n      tag_211\n        /* \"@openzeppelin/contracts/token/ERC1155/ERC1155.sol\":7205:7235  _update(from, to, ids, values) */\n      jump\t// in\n    tag_210:\n        /* \"@openzeppelin/contracts/token/ERC1155/ERC1155.sol\":7263:7264  0 */\n      0x00\n        /* \"@openzeppelin/contracts/token/ERC1155/ERC1155.sol\":7249:7265  to != address(0) */\n      0xffffffffffffffffffffffffffffffffffffffff\n      and\n        /* \"@openzeppelin/contracts/token/ERC1155/ERC1155.sol\":7249:7251  to */\n      dup5\n        /* \"@openzeppelin/contracts/token/ERC1155/ERC1155.sol\":7249:7265  to != address(0) */\n      0xffffffffffffffffffffffffffffffffffffffff\n      and\n      eq\n        /* \"@openzeppelin/contracts/token/ERC1155/ERC1155.sol\":7245:7688  if (to != address(0)) {... */\n      tag_212\n      jumpi\n        /* \"@openzeppelin/contracts/token/ERC1155/ERC1155.sol\":7281:7297  address operator */\n      0x00\n        /* \"@openzeppelin/contracts/token/ERC1155/ERC1155.sol\":7300:7312  _msgSender() */\n      tag_213\n        /* \"@openzeppelin/contracts/token/ERC1155/ERC1155.sol\":7300:7310  _msgSender */\n      tag_104\n        /* \"@openzeppelin/contracts/token/ERC1155/ERC1155.sol\":7300:7312  _msgSender() */\n      jump\t// in\n    tag_213:\n        /* \"@openzeppelin/contracts/token/ERC1155/ERC1155.sol\":7281:7312  address operator = _msgSender() */\n      swap1\n      pop\n        /* \"@openzeppelin/contracts/token/ERC1155/ERC1155.sol\":7344:7345  1 */\n      0x01\n        /* \"@openzeppelin/contracts/token/ERC1155/ERC1155.sol\":7330:7333  ids */\n      dup5\n        /* \"@openzeppelin/contracts/token/ERC1155/ERC1155.sol\":7330:7340  ids.length */\n      mload\n        /* \"@openzeppelin/contracts/token/ERC1155/ERC1155.sol\":7330:7345  ids.length == 1 */\n      sub\n        /* \"@openzeppelin/contracts/token/ERC1155/ERC1155.sol\":7326:7678  if (ids.length == 1) {... */\n      tag_214\n      jumpi\n        /* \"@openzeppelin/contracts/token/ERC1155/ERC1155.sol\":7365:7375  uint256 id */\n      0x00\n        /* \"@openzeppelin/contracts/token/ERC1155/ERC1155.sol\":7378:7403  ids.unsafeMemoryAccess(0) */\n      tag_215\n        /* \"@openzeppelin/contracts/token/ERC1155/ERC1155.sol\":7401:7402  0 */\n      0x00\n        /* \"@openzeppelin/contracts/token/ERC1155/ERC1155.sol\":7378:7381  ids */\n      dup7\n        /* \"@openzeppelin/contracts/token/ERC1155/ERC1155.sol\":7378:7400  ids.unsafeMemoryAccess */\n      tag_127\n      swap1\n        /* \"@openzeppelin/contracts/token/ERC1155/ERC1155.sol\":7378:7403  ids.unsafeMemoryAccess(0) */\n      swap2\n      swap1\n      0xffffffff\n      and\n      jump\t// in\n    tag_215:\n        /* \"@openzeppelin/contracts/token/ERC1155/ERC1155.sol\":7365:7403  uint256 id = ids.unsafeMemoryAccess(0) */\n      swap1\n      pop\n        /* \"@openzeppelin/contracts/token/ERC1155/ERC1155.sol\":7421:7434  uint256 value */\n      0x00\n        /* \"@openzeppelin/contracts/token/ERC1155/ERC1155.sol\":7437:7465  values.unsafeMemoryAccess(0) */\n      tag_216\n        /* \"@openzeppelin/contracts/token/ERC1155/ERC1155.sol\":7463:7464  0 */\n      0x00\n        /* \"@openzeppelin/contracts/token/ERC1155/ERC1155.sol\":7437:7443  values */\n      dup7\n        /* \"@openzeppelin/contracts/token/ERC1155/ERC1155.sol\":7437:7462  values.unsafeMemoryAccess */\n      tag_127\n      swap1\n        /* \"@openzeppelin/contracts/token/ERC1155/ERC1155.sol\":7437:7465  values.unsafeMemoryAccess(0) */\n      swap2\n      swap1\n      0xffffffff\n      and\n      jump\t// in\n    tag_216:\n        /* \"@openzeppelin/contracts/token/ERC1155/ERC1155.sol\":7421:7465  uint256 value = values.unsafeMemoryAccess(0) */\n      swap1\n      pop\n        /* \"@openzeppelin/contracts/token/ERC1155/ERC1155.sol\":7483:7550  _doSafeTransferAcceptanceCheck(operator, from, to, id, value, data) */\n      tag_217\n        /* \"@openzeppelin/contracts/token/ERC1155/ERC1155.sol\":7514:7522  operator */\n      dup4\n        /* \"@openzeppelin/contracts/token/ERC1155/ERC1155.sol\":7524:7528  from */\n      dup10\n        /* \"@openzeppelin/contracts/token/ERC1155/ERC1155.sol\":7530:7532  to */\n      dup10\n        /* \"@openzeppelin/contracts/token/ERC1155/ERC1155.sol\":7534:7536  id */\n      dup6\n        /* \"@openzeppelin/contracts/token/ERC1155/ERC1155.sol\":7538:7543  value */\n      dup6\n        /* \"@openzeppelin/contracts/token/ERC1155/ERC1155.sol\":7545:7549  data */\n      dup10\n        /* \"@openzeppelin/contracts/token/ERC1155/ERC1155.sol\":7483:7513  _doSafeTransferAcceptanceCheck */\n      tag_218\n        /* \"@openzeppelin/contracts/token/ERC1155/ERC1155.sol\":7483:7550  _doSafeTransferAcceptanceCheck(operator, from, to, id, value, data) */\n      jump\t// in\n    tag_217:\n        /* \"@openzeppelin/contracts/token/ERC1155/ERC1155.sol\":7347:7565  {... */\n      pop\n      pop\n        /* \"@openzeppelin/contracts/token/ERC1155/ERC1155.sol\":7326:7678  if (ids.length == 1) {... */\n      jump(tag_219)\n    tag_214:\n        /* \"@openzeppelin/contracts/token/ERC1155/ERC1155.sol\":7589:7663  _doSafeBatchTransferAcceptanceCheck(operator, from, to, ids, values, data) */\n      tag_220\n        /* \"@openzeppelin/contracts/token/ERC1155/ERC1155.sol\":7625:7633  operator */\n      dup2\n        /* \"@openzeppelin/contracts/token/ERC1155/ERC1155.sol\":7635:7639  from */\n      dup8\n        /* \"@openzeppelin/contracts/token/ERC1155/ERC1155.sol\":7641:7643  to */\n      dup8\n        /* \"@openzeppelin/contracts/token/ERC1155/ERC1155.sol\":7645:7648  ids */\n      dup8\n        /* \"@openzeppelin/contracts/token/ERC1155/ERC1155.sol\":7650:7656  values */\n      dup8\n        /* \"@openzeppelin/contracts/token/ERC1155/ERC1155.sol\":7658:7662  data */\n      dup8\n        /* \"@openzeppelin/contracts/token/ERC1155/ERC1155.sol\":7589:7624  _doSafeBatchTransferAcceptanceCheck */\n      tag_221\n        /* \"@openzeppelin/contracts/token/ERC1155/ERC1155.sol\":7589:7663  _doSafeBatchTransferAcceptanceCheck(operator, from, to, ids, values, data) */\n      jump\t// in\n    tag_220:\n        /* \"@openzeppelin/contracts/token/ERC1155/ERC1155.sol\":7326:7678  if (ids.length == 1) {... */\n    tag_219:\n        /* \"@openzeppelin/contracts/token/ERC1155/ERC1155.sol\":7267:7688  {... */\n      pop\n        /* \"@openzeppelin/contracts/token/ERC1155/ERC1155.sol\":7245:7688  if (to != address(0)) {... */\n    tag_212:\n        /* \"@openzeppelin/contracts/token/ERC1155/ERC1155.sol\":7004:7694  function _updateWithAcceptanceCheck(... */\n      pop\n      pop\n      pop\n      pop\n      pop\n      jump\t// out\n        /* \"@openzeppelin/contracts/token/ERC1155/ERC1155.sol\":16080:16929  function _asSingletonArrays(... */\n    tag_191:\n        /* \"@openzeppelin/contracts/token/ERC1155/ERC1155.sol\":16188:16211  uint256[] memory array1 */\n      0x60\n        /* \"@openzeppelin/contracts/token/ERC1155/ERC1155.sol\":16213:16236  uint256[] memory array2 */\n      dup1\n        /* \"@openzeppelin/contracts/token/ERC1155/ERC1155.sol\":16374:16378  0x40 */\n      0x40\n        /* \"@openzeppelin/contracts/token/ERC1155/ERC1155.sol\":16368:16379  mload(0x40) */\n      mload\n        /* \"@openzeppelin/contracts/token/ERC1155/ERC1155.sol\":16358:16379  array1 := mload(0x40) */\n      swap2\n      pop\n        /* \"@openzeppelin/contracts/token/ERC1155/ERC1155.sol\":16444:16445  1 */\n      0x01\n        /* \"@openzeppelin/contracts/token/ERC1155/ERC1155.sol\":16436:16442  array1 */\n      dup3\n        /* \"@openzeppelin/contracts/token/ERC1155/ERC1155.sol\":16429:16446  mstore(array1, 1) */\n      mstore\n        /* \"@openzeppelin/contracts/token/ERC1155/ERC1155.sol\":16582:16590  element1 */\n      dup4\n        /* \"@openzeppelin/contracts/token/ERC1155/ERC1155.sol\":16575:16579  0x20 */\n      0x20\n        /* \"@openzeppelin/contracts/token/ERC1155/ERC1155.sol\":16567:16573  array1 */\n      dup4\n        /* \"@openzeppelin/contracts/token/ERC1155/ERC1155.sol\":16563:16580  add(array1, 0x20) */\n      add\n        /* \"@openzeppelin/contracts/token/ERC1155/ERC1155.sol\":16556:16591  mstore(add(array1, 0x20), element1) */\n      mstore\n        /* \"@openzeppelin/contracts/token/ERC1155/ERC1155.sol\":16704:16708  0x40 */\n      0x40\n        /* \"@openzeppelin/contracts/token/ERC1155/ERC1155.sol\":16696:16702  array1 */\n      dup3\n        /* \"@openzeppelin/contracts/token/ERC1155/ERC1155.sol\":16692:16709  add(array1, 0x40) */\n      add\n        /* \"@openzeppelin/contracts/token/ERC1155/ERC1155.sol\":16682:16709  array2 := add(array1, 0x40) */\n      swap1\n      pop\n        /* \"@openzeppelin/contracts/token/ERC1155/ERC1155.sol\":16737:16738  1 */\n      0x01\n        /* \"@openzeppelin/contracts/token/ERC1155/ERC1155.sol\":16729:16735  array2 */\n      dup2\n        /* \"@openzeppelin/contracts/token/ERC1155/ERC1155.sol\":16722:16739  mstore(array2, 1) */\n      mstore\n        /* \"@openzeppelin/contracts/token/ERC1155/ERC1155.sol\":16778:16786  element2 */\n      dup3\n        /* \"@openzeppelin/contracts/token/ERC1155/ERC1155.sol\":16771:16775  0x20 */\n      0x20\n        /* \"@openzeppelin/contracts/token/ERC1155/ERC1155.sol\":16763:16769  array2 */\n      dup3\n        /* \"@openzeppelin/contracts/token/ERC1155/ERC1155.sol\":16759:16776  add(array2, 0x20) */\n      add\n        /* \"@openzeppelin/contracts/token/ERC1155/ERC1155.sol\":16752:16787  mstore(add(array2, 0x20), element2) */\n      mstore\n        /* \"@openzeppelin/contracts/token/ERC1155/ERC1155.sol\":16907:16911  0x40 */\n      0x40\n        /* \"@openzeppelin/contracts/token/ERC1155/ERC1155.sol\":16899:16905  array2 */\n      dup2\n        /* \"@openzeppelin/contracts/token/ERC1155/ERC1155.sol\":16895:16912  add(array2, 0x40) */\n      add\n        /* \"@openzeppelin/contracts/token/ERC1155/ERC1155.sol\":16889:16893  0x40 */\n      0x40\n        /* \"@openzeppelin/contracts/token/ERC1155/ERC1155.sol\":16882:16913  mstore(0x40, add(array2, 0x40)) */\n      mstore\n        /* \"@openzeppelin/contracts/token/ERC1155/ERC1155.sol\":16080:16929  function _asSingletonArrays(... */\n      swap3\n      pop\n      swap3\n      swap1\n      pop\n      jump\t// out\n        /* \"@openzeppelin/contracts/token/ERC1155/ERC1155.sol\":5144:6425  function _update(address from, address to, uint256[] memory ids, uint256[] memory values) internal virtual {... */\n    tag_211:\n        /* \"@openzeppelin/contracts/token/ERC1155/ERC1155.sol\":5279:5285  values */\n      dup1\n        /* \"@openzeppelin/contracts/token/ERC1155/ERC1155.sol\":5279:5292  values.length */\n      mload\n        /* \"@openzeppelin/contracts/token/ERC1155/ERC1155.sol\":5265:5268  ids */\n      dup3\n        /* \"@openzeppelin/contracts/token/ERC1155/ERC1155.sol\":5265:5275  ids.length */\n      mload\n        /* \"@openzeppelin/contracts/token/ERC1155/ERC1155.sol\":5265:5292  ids.length != values.length */\n      eq\n        /* \"@openzeppelin/contracts/token/ERC1155/ERC1155.sol\":5261:5378  if (ids.length != values.length) {... */\n      tag_224\n      jumpi\n        /* \"@openzeppelin/contracts/token/ERC1155/ERC1155.sol\":5341:5344  ids */\n      dup2\n        /* \"@openzeppelin/contracts/token/ERC1155/ERC1155.sol\":5341:5351  ids.length */\n      mload\n        /* \"@openzeppelin/contracts/token/ERC1155/ERC1155.sol\":5353:5359  values */\n      dup2\n        /* \"@openzeppelin/contracts/token/ERC1155/ERC1155.sol\":5353:5366  values.length */\n      mload\n        /* \"@openzeppelin/contracts/token/ERC1155/ERC1155.sol\":5315:5367  ERC1155InvalidArrayLength(ids.length, values.length) */\n      mload(0x40)\n      0x5b05999100000000000000000000000000000000000000000000000000000000\n      dup2\n      mstore\n      0x04\n      add\n      tag_225\n      swap3\n      swap2\n      swap1\n      tag_115\n      jump\t// in\n    tag_225:\n      mload(0x40)\n      dup1\n      swap2\n      sub\n      swap1\n      revert\n        /* \"@openzeppelin/contracts/token/ERC1155/ERC1155.sol\":5261:5378  if (ids.length != values.length) {... */\n    tag_224:\n        /* \"@openzeppelin/contracts/token/ERC1155/ERC1155.sol\":5388:5404  address operator */\n      0x00\n        /* \"@openzeppelin/contracts/token/ERC1155/ERC1155.sol\":5407:5419  _msgSender() */\n      tag_226\n        /* \"@openzeppelin/contracts/token/ERC1155/ERC1155.sol\":5407:5417  _msgSender */\n      tag_104\n        /* \"@openzeppelin/contracts/token/ERC1155/ERC1155.sol\":5407:5419  _msgSender() */\n      jump\t// in\n    tag_226:\n        /* \"@openzeppelin/contracts/token/ERC1155/ERC1155.sol\":5388:5419  address operator = _msgSender() */\n      swap1\n      pop\n        /* \"@openzeppelin/contracts/token/ERC1155/ERC1155.sol\":5435:5444  uint256 i */\n      0x00\n        /* \"@openzeppelin/contracts/token/ERC1155/ERC1155.sol\":5430:6121  for (uint256 i = 0; i < ids.length; ++i) {... */\n    tag_227:\n        /* \"@openzeppelin/contracts/token/ERC1155/ERC1155.sol\":5454:5457  ids */\n      dup4\n        /* \"@openzeppelin/contracts/token/ERC1155/ERC1155.sol\":5454:5464  ids.length */\n      mload\n        /* \"@openzeppelin/contracts/token/ERC1155/ERC1155.sol\":5450:5451  i */\n      dup2\n        /* \"@openzeppelin/contracts/token/ERC1155/ERC1155.sol\":5450:5464  i < ids.length */\n      lt\n        /* \"@openzeppelin/contracts/token/ERC1155/ERC1155.sol\":5430:6121  for (uint256 i = 0; i < ids.length; ++i) {... */\n      iszero\n      tag_228\n      jumpi\n        /* \"@openzeppelin/contracts/token/ERC1155/ERC1155.sol\":5485:5495  uint256 id */\n      0x00\n        /* \"@openzeppelin/contracts/token/ERC1155/ERC1155.sol\":5498:5523  ids.unsafeMemoryAccess(i) */\n      tag_230\n        /* \"@openzeppelin/contracts/token/ERC1155/ERC1155.sol\":5521:5522  i */\n      dup3\n        /* \"@openzeppelin/contracts/token/ERC1155/ERC1155.sol\":5498:5501  ids */\n      dup7\n        /* \"@openzeppelin/contracts/token/ERC1155/ERC1155.sol\":5498:5520  ids.unsafeMemoryAccess */\n      tag_127\n      swap1\n        /* \"@openzeppelin/contracts/token/ERC1155/ERC1155.sol\":5498:5523  ids.unsafeMemoryAccess(i) */\n      swap2\n      swap1\n      0xffffffff\n      and\n      jump\t// in\n    tag_230:\n        /* \"@openzeppelin/contracts/token/ERC1155/ERC1155.sol\":5485:5523  uint256 id = ids.unsafeMemoryAccess(i) */\n      swap1\n      pop\n        /* \"@openzeppelin/contracts/token/ERC1155/ERC1155.sol\":5537:5550  uint256 value */\n      0x00\n        /* \"@openzeppelin/contracts/token/ERC1155/ERC1155.sol\":5553:5581  values.unsafeMemoryAccess(i) */\n      tag_231\n        /* \"@openzeppelin/contracts/token/ERC1155/ERC1155.sol\":5579:5580  i */\n      dup4\n        /* \"@openzeppelin/contracts/token/ERC1155/ERC1155.sol\":5553:5559  values */\n      dup7\n        /* \"@openzeppelin/contracts/token/ERC1155/ERC1155.sol\":5553:5578  values.unsafeMemoryAccess */\n      tag_127\n      swap1\n        /* \"@openzeppelin/contracts/token/ERC1155/ERC1155.sol\":5553:5581  values.unsafeMemoryAccess(i) */\n      swap2\n      swap1\n      0xffffffff\n      and\n      jump\t// in\n    tag_231:\n        /* \"@openzeppelin/contracts/token/ERC1155/ERC1155.sol\":5537:5581  uint256 value = values.unsafeMemoryAccess(i) */\n      swap1\n      pop\n        /* \"@openzeppelin/contracts/token/ERC1155/ERC1155.sol\":5616:5617  0 */\n      0x00\n        /* \"@openzeppelin/contracts/token/ERC1155/ERC1155.sol\":5600:5618  from != address(0) */\n      0xffffffffffffffffffffffffffffffffffffffff\n      and\n        /* \"@openzeppelin/contracts/token/ERC1155/ERC1155.sol\":5600:5604  from */\n      dup9\n        /* \"@openzeppelin/contracts/token/ERC1155/ERC1155.sol\":5600:5618  from != address(0) */\n      0xffffffffffffffffffffffffffffffffffffffff\n      and\n      eq\n        /* \"@openzeppelin/contracts/token/ERC1155/ERC1155.sol\":5596:6016  if (from != address(0)) {... */\n      tag_232\n      jumpi\n        /* \"@openzeppelin/contracts/token/ERC1155/ERC1155.sol\":5638:5657  uint256 fromBalance */\n      0x00\n        /* \"@openzeppelin/contracts/token/ERC1155/ERC1155.sol\":5660:5669  _balances */\n      dup1\n        /* \"@openzeppelin/contracts/token/ERC1155/ERC1155.sol\":5660:5673  _balances[id] */\n      0x00\n        /* \"@openzeppelin/contracts/token/ERC1155/ERC1155.sol\":5670:5672  id */\n      dup5\n        /* \"@openzeppelin/contracts/token/ERC1155/ERC1155.sol\":5660:5673  _balances[id] */\n      dup2\n      mstore\n      0x20\n      add\n      swap1\n      dup2\n      mstore\n      0x20\n      add\n      0x00\n      keccak256\n        /* \"@openzeppelin/contracts/token/ERC1155/ERC1155.sol\":5660:5679  _balances[id][from] */\n      0x00\n        /* \"@openzeppelin/contracts/token/ERC1155/ERC1155.sol\":5674:5678  from */\n      dup11\n        /* \"@openzeppelin/contracts/token/ERC1155/ERC1155.sol\":5660:5679  _balances[id][from] */\n      0xffffffffffffffffffffffffffffffffffffffff\n      and\n      0xffffffffffffffffffffffffffffffffffffffff\n      and\n      dup2\n      mstore\n      0x20\n      add\n      swap1\n      dup2\n      mstore\n      0x20\n      add\n      0x00\n      keccak256\n      sload\n        /* \"@openzeppelin/contracts/token/ERC1155/ERC1155.sol\":5638:5679  uint256 fromBalance = _balances[id][from] */\n      swap1\n      pop\n        /* \"@openzeppelin/contracts/token/ERC1155/ERC1155.sol\":5715:5720  value */\n      dup2\n        /* \"@openzeppelin/contracts/token/ERC1155/ERC1155.sol\":5701:5712  fromBalance */\n      dup2\n        /* \"@openzeppelin/contracts/token/ERC1155/ERC1155.sol\":5701:5720  fromBalance < value */\n      lt\n        /* \"@openzeppelin/contracts/token/ERC1155/ERC1155.sol\":5697:5826  if (fromBalance < value) {... */\n      iszero\n      tag_233\n      jumpi\n        /* \"@openzeppelin/contracts/token/ERC1155/ERC1155.sol\":5778:5782  from */\n      dup9\n        /* \"@openzeppelin/contracts/token/ERC1155/ERC1155.sol\":5784:5795  fromBalance */\n      dup2\n        /* \"@openzeppelin/contracts/token/ERC1155/ERC1155.sol\":5797:5802  value */\n      dup4\n        /* \"@openzeppelin/contracts/token/ERC1155/ERC1155.sol\":5804:5806  id */\n      dup6\n        /* \"@openzeppelin/contracts/token/ERC1155/ERC1155.sol\":5751:5807  ERC1155InsufficientBalance(from, fromBalance, value, id) */\n      mload(0x40)\n      0x03dee4c500000000000000000000000000000000000000000000000000000000\n      dup2\n      mstore\n      0x04\n      add\n      tag_234\n      swap5\n      swap4\n      swap3\n      swap2\n      swap1\n      tag_235\n      jump\t// in\n    tag_234:\n      mload(0x40)\n      dup1\n      swap2\n      sub\n      swap1\n      revert\n        /* \"@openzeppelin/contracts/token/ERC1155/ERC1155.sol\":5697:5826  if (fromBalance < value) {... */\n    tag_233:\n        /* \"@openzeppelin/contracts/token/ERC1155/ERC1155.sol\":5978:5983  value */\n      dup2\n        /* \"@openzeppelin/contracts/token/ERC1155/ERC1155.sol\":5964:5975  fromBalance */\n      dup2\n        /* \"@openzeppelin/contracts/token/ERC1155/ERC1155.sol\":5964:5983  fromBalance - value */\n      sub\n        /* \"@openzeppelin/contracts/token/ERC1155/ERC1155.sol\":5942:5951  _balances */\n      0x00\n        /* \"@openzeppelin/contracts/token/ERC1155/ERC1155.sol\":5942:5955  _balances[id] */\n      dup1\n        /* \"@openzeppelin/contracts/token/ERC1155/ERC1155.sol\":5952:5954  id */\n      dup6\n        /* \"@openzeppelin/contracts/token/ERC1155/ERC1155.sol\":5942:5955  _balances[id] */\n      dup2\n      mstore\n      0x20\n      add\n      swap1\n      dup2\n      mstore\n      0x20\n      add\n      0x00\n      keccak256\n        /* \"@openzeppelin/contracts/token/ERC1155/ERC1155.sol\":5942:5961  _balances[id][from] */\n      0x00\n        /* \"@openzeppelin/contracts/token/ERC1155/ERC1155.sol\":5956:5960  from */\n      dup12\n        /* \"@openzeppelin/contracts/token/ERC1155/ERC1155.sol\":5942:5961  _balances[id][from] */\n      0xffffffffffffffffffffffffffffffffffffffff\n      and\n      0xffffffffffffffffffffffffffffffffffffffff\n      and\n      dup2\n      mstore\n      0x20\n      add\n      swap1\n      dup2\n      mstore\n      0x20\n      add\n      0x00\n      keccak256\n        /* \"@openzeppelin/contracts/token/ERC1155/ERC1155.sol\":5942:5983  _balances[id][from] = fromBalance - value */\n      dup2\n      swap1\n      sstore\n      pop\n        /* \"@openzeppelin/contracts/token/ERC1155/ERC1155.sol\":5620:6016  {... */\n      pop\n        /* \"@openzeppelin/contracts/token/ERC1155/ERC1155.sol\":5596:6016  if (from != address(0)) {... */\n    tag_232:\n        /* \"@openzeppelin/contracts/token/ERC1155/ERC1155.sol\":6048:6049  0 */\n      0x00\n        /* \"@openzeppelin/contracts/token/ERC1155/ERC1155.sol\":6034:6050  to != address(0) */\n      0xffffffffffffffffffffffffffffffffffffffff\n      and\n        /* \"@openzeppelin/contracts/token/ERC1155/ERC1155.sol\":6034:6036  to */\n      dup8\n        /* \"@openzeppelin/contracts/token/ERC1155/ERC1155.sol\":6034:6050  to != address(0) */\n      0xffffffffffffffffffffffffffffffffffffffff\n      and\n      eq\n        /* \"@openzeppelin/contracts/token/ERC1155/ERC1155.sol\":6030:6111  if (to != address(0)) {... */\n      tag_236\n      jumpi\n        /* \"@openzeppelin/contracts/token/ERC1155/ERC1155.sol\":6091:6096  value */\n      dup1\n        /* \"@openzeppelin/contracts/token/ERC1155/ERC1155.sol\":6070:6079  _balances */\n      0x00\n        /* \"@openzeppelin/contracts/token/ERC1155/ERC1155.sol\":6070:6083  _balances[id] */\n      dup1\n        /* \"@openzeppelin/contracts/token/ERC1155/ERC1155.sol\":6080:6082  id */\n      dup5\n        /* \"@openzeppelin/contracts/token/ERC1155/ERC1155.sol\":6070:6083  _balances[id] */\n      dup2\n      mstore\n      0x20\n      add\n      swap1\n      dup2\n      mstore\n      0x20\n      add\n      0x00\n      keccak256\n        /* \"@openzeppelin/contracts/token/ERC1155/ERC1155.sol\":6070:6087  _balances[id][to] */\n      0x00\n        /* \"@openzeppelin/contracts/token/ERC1155/ERC1155.sol\":6084:6086  to */\n      dup10\n        /* \"@openzeppelin/contracts/token/ERC1155/ERC1155.sol\":6070:6087  _balances[id][to] */\n      0xffffffffffffffffffffffffffffffffffffffff\n      and\n      0xffffffffffffffffffffffffffffffffffffffff\n      and\n      dup2\n      mstore\n      0x20\n      add\n      swap1\n      dup2\n      mstore\n      0x20\n      add\n      0x00\n      keccak256\n      0x00\n        /* \"@openzeppelin/contracts/token/ERC1155/ERC1155.sol\":6070:6096  _balances[id][to] += value */\n      dup3\n      dup3\n      sload\n      tag_237\n      swap2\n      swap1\n      tag_238\n      jump\t// in\n    tag_237:\n      swap3\n      pop\n      pop\n      dup2\n      swap1\n      sstore\n      pop\n        /* \"@openzeppelin/contracts/token/ERC1155/ERC1155.sol\":6030:6111  if (to != address(0)) {... */\n    tag_236:\n        /* \"@openzeppelin/contracts/token/ERC1155/ERC1155.sol\":5471:6121  {... */\n      pop\n      pop\n        /* \"@openzeppelin/contracts/token/ERC1155/ERC1155.sol\":5466:5469  ++i */\n      dup1\n      0x01\n      add\n      swap1\n      pop\n        /* \"@openzeppelin/contracts/token/ERC1155/ERC1155.sol\":5430:6121  for (uint256 i = 0; i < ids.length; ++i) {... */\n      jump(tag_227)\n    tag_228:\n      pop\n        /* \"@openzeppelin/contracts/token/ERC1155/ERC1155.sol\":6149:6150  1 */\n      0x01\n        /* \"@openzeppelin/contracts/token/ERC1155/ERC1155.sol\":6135:6138  ids */\n      dup4\n        /* \"@openzeppelin/contracts/token/ERC1155/ERC1155.sol\":6135:6145  ids.length */\n      mload\n        /* \"@openzeppelin/contracts/token/ERC1155/ERC1155.sol\":6135:6150  ids.length == 1 */\n      sub\n        /* \"@openzeppelin/contracts/token/ERC1155/ERC1155.sol\":6131:6419  if (ids.length == 1) {... */\n      tag_239\n      jumpi\n        /* \"@openzeppelin/contracts/token/ERC1155/ERC1155.sol\":6166:6176  uint256 id */\n      0x00\n        /* \"@openzeppelin/contracts/token/ERC1155/ERC1155.sol\":6179:6204  ids.unsafeMemoryAccess(0) */\n      tag_240\n        /* \"@openzeppelin/contracts/token/ERC1155/ERC1155.sol\":6202:6203  0 */\n      0x00\n        /* \"@openzeppelin/contracts/token/ERC1155/ERC1155.sol\":6179:6182  ids */\n      dup6\n        /* \"@openzeppelin/contracts/token/ERC1155/ERC1155.sol\":6179:6201  ids.unsafeMemoryAccess */\n      tag_127\n      swap1\n        /* \"@openzeppelin/contracts/token/ERC1155/ERC1155.sol\":6179:6204  ids.unsafeMemoryAccess(0) */\n      swap2\n      swap1\n      0xffffffff\n      and\n      jump\t// in\n    tag_240:\n        /* \"@openzeppelin/contracts/token/ERC1155/ERC1155.sol\":6166:6204  uint256 id = ids.unsafeMemoryAccess(0) */\n      swap1\n      pop\n        /* \"@openzeppelin/contracts/token/ERC1155/ERC1155.sol\":6218:6231  uint256 value */\n      0x00\n        /* \"@openzeppelin/contracts/token/ERC1155/ERC1155.sol\":6234:6262  values.unsafeMemoryAccess(0) */\n      tag_241\n        /* \"@openzeppelin/contracts/token/ERC1155/ERC1155.sol\":6260:6261  0 */\n      0x00\n        /* \"@openzeppelin/contracts/token/ERC1155/ERC1155.sol\":6234:6240  values */\n      dup6\n        /* \"@openzeppelin/contracts/token/ERC1155/ERC1155.sol\":6234:6259  values.unsafeMemoryAccess */\n      tag_127\n      swap1\n        /* \"@openzeppelin/contracts/token/ERC1155/ERC1155.sol\":6234:6262  values.unsafeMemoryAccess(0) */\n      swap2\n      swap1\n      0xffffffff\n      and\n      jump\t// in\n    tag_241:\n        /* \"@openzeppelin/contracts/token/ERC1155/ERC1155.sol\":6218:6262  uint256 value = values.unsafeMemoryAccess(0) */\n      swap1\n      pop\n        /* \"@openzeppelin/contracts/token/ERC1155/ERC1155.sol\":6312:6314  to */\n      dup6\n        /* \"@openzeppelin/contracts/token/ERC1155/ERC1155.sol\":6281:6326  TransferSingle(operator, from, to, id, value) */\n      0xffffffffffffffffffffffffffffffffffffffff\n      and\n        /* \"@openzeppelin/contracts/token/ERC1155/ERC1155.sol\":6306:6310  from */\n      dup8\n        /* \"@openzeppelin/contracts/token/ERC1155/ERC1155.sol\":6281:6326  TransferSingle(operator, from, to, id, value) */\n      0xffffffffffffffffffffffffffffffffffffffff\n      and\n        /* \"@openzeppelin/contracts/token/ERC1155/ERC1155.sol\":6296:6304  operator */\n      dup5\n        /* \"@openzeppelin/contracts/token/ERC1155/ERC1155.sol\":6281:6326  TransferSingle(operator, from, to, id, value) */\n      0xffffffffffffffffffffffffffffffffffffffff\n      and\n      0xc3d58168c5ae7397731d063d5bbf3d657854427343f4c083240f7aacaa2d0f62\n        /* \"@openzeppelin/contracts/token/ERC1155/ERC1155.sol\":6316:6318  id */\n      dup6\n        /* \"@openzeppelin/contracts/token/ERC1155/ERC1155.sol\":6320:6325  value */\n      dup6\n        /* \"@openzeppelin/contracts/token/ERC1155/ERC1155.sol\":6281:6326  TransferSingle(operator, from, to, id, value) */\n      mload(0x40)\n      tag_242\n      swap3\n      swap2\n      swap1\n      tag_115\n      jump\t// in\n    tag_242:\n      mload(0x40)\n      dup1\n      swap2\n      sub\n      swap1\n      log4\n        /* \"@openzeppelin/contracts/token/ERC1155/ERC1155.sol\":6152:6337  {... */\n      pop\n      pop\n        /* \"@openzeppelin/contracts/token/ERC1155/ERC1155.sol\":6131:6419  if (ids.length == 1) {... */\n      jump(tag_243)\n    tag_239:\n        /* \"@openzeppelin/contracts/token/ERC1155/ERC1155.sol\":6392:6394  to */\n      dup4\n        /* \"@openzeppelin/contracts/token/ERC1155/ERC1155.sol\":6362:6408  TransferBatch(operator, from, to, ids, values) */\n      0xffffffffffffffffffffffffffffffffffffffff\n      and\n        /* \"@openzeppelin/contracts/token/ERC1155/ERC1155.sol\":6386:6390  from */\n      dup6\n        /* \"@openzeppelin/contracts/token/ERC1155/ERC1155.sol\":6362:6408  TransferBatch(operator, from, to, ids, values) */\n      0xffffffffffffffffffffffffffffffffffffffff\n      and\n        /* \"@openzeppelin/contracts/token/ERC1155/ERC1155.sol\":6376:6384  operator */\n      dup3\n        /* \"@openzeppelin/contracts/token/ERC1155/ERC1155.sol\":6362:6408  TransferBatch(operator, from, to, ids, values) */\n      0xffffffffffffffffffffffffffffffffffffffff\n      and\n      0x4a39dc06d4c0dbc64b70af90fd698a233a518aa5d07e595d983b8c0526c8f7fb\n        /* \"@openzeppelin/contracts/token/ERC1155/ERC1155.sol\":6396:6399  ids */\n      dup7\n        /* \"@openzeppelin/contracts/token/ERC1155/ERC1155.sol\":6401:6407  values */\n      dup7\n        /* \"@openzeppelin/contracts/token/ERC1155/ERC1155.sol\":6362:6408  TransferBatch(operator, from, to, ids, values) */\n      mload(0x40)\n      tag_244\n      swap3\n      swap2\n      swap1\n      tag_245\n      jump\t// in\n    tag_244:\n      mload(0x40)\n      dup1\n      swap2\n      sub\n      swap1\n      log4\n        /* \"@openzeppelin/contracts/token/ERC1155/ERC1155.sol\":6131:6419  if (ids.length == 1) {... */\n    tag_243:\n        /* \"@openzeppelin/contracts/token/ERC1155/ERC1155.sol\":5251:6425  {... */\n      pop\n        /* \"@openzeppelin/contracts/token/ERC1155/ERC1155.sol\":5144:6425  function _update(address from, address to, uint256[] memory ids, uint256[] memory values) internal virtual {... */\n      pop\n      pop\n      pop\n      pop\n      jump\t// out\n        /* \"@openzeppelin/contracts/token/ERC1155/ERC1155.sol\":13761:14735  function _doSafeTransferAcceptanceCheck(... */\n    tag_218:\n        /* \"@openzeppelin/contracts/token/ERC1155/ERC1155.sol\":13984:13985  0 */\n      0x00\n        /* \"@openzeppelin/contracts/token/ERC1155/ERC1155.sol\":13967:13969  to */\n      dup5\n        /* \"@openzeppelin/contracts/token/ERC1155/ERC1155.sol\":13967:13981  to.code.length */\n      0xffffffffffffffffffffffffffffffffffffffff\n      and\n      extcodesize\n        /* \"@openzeppelin/contracts/token/ERC1155/ERC1155.sol\":13967:13985  to.code.length > 0 */\n      gt\n        /* \"@openzeppelin/contracts/token/ERC1155/ERC1155.sol\":13963:14729  if (to.code.length > 0) {... */\n      iszero\n      tag_247\n      jumpi\n        /* \"@openzeppelin/contracts/token/ERC1155/ERC1155.sol\":14022:14024  to */\n      dup4\n        /* \"@openzeppelin/contracts/token/ERC1155/ERC1155.sol\":14005:14043  IERC1155Receiver(to).onERC1155Received */\n      0xffffffffffffffffffffffffffffffffffffffff\n      and\n      0xf23a6e61\n        /* \"@openzeppelin/contracts/token/ERC1155/ERC1155.sol\":14044:14052  operator */\n      dup8\n        /* \"@openzeppelin/contracts/token/ERC1155/ERC1155.sol\":14054:14058  from */\n      dup8\n        /* \"@openzeppelin/contracts/token/ERC1155/ERC1155.sol\":14060:14062  id */\n      dup7\n        /* \"@openzeppelin/contracts/token/ERC1155/ERC1155.sol\":14064:14069  value */\n      dup7\n        /* \"@openzeppelin/contracts/token/ERC1155/ERC1155.sol\":14071:14075  data */\n      dup7\n        /* \"@openzeppelin/contracts/token/ERC1155/ERC1155.sol\":14005:14076  IERC1155Receiver(to).onERC1155Received(operator, from, id, value, data) */\n      mload(0x40)\n      dup7\n      0xffffffff\n      and\n      0xe0\n      shl\n      dup2\n      mstore\n      0x04\n      add\n      tag_248\n      swap6\n      swap5\n      swap4\n      swap3\n      swap2\n      swap1\n      tag_249\n      jump\t// in\n    tag_248:\n      0x20\n      mload(0x40)\n      dup1\n      dup4\n      sub\n      dup2\n      0x00\n      dup8\n      gas\n      call\n      swap3\n      pop\n      pop\n      pop\n      dup1\n      iszero\n      tag_250\n      jumpi\n      pop\n      mload(0x40)\n      returndatasize\n      not(0x1f)\n      0x1f\n      dup3\n      add\n      and\n      dup3\n      add\n      dup1\n      0x40\n      mstore\n      pop\n      dup2\n      add\n      swap1\n      tag_251\n      swap2\n      swap1\n      tag_252\n      jump\t// in\n    tag_251:\n      0x01\n    tag_250:\n        /* \"@openzeppelin/contracts/token/ERC1155/ERC1155.sol\":14001:14719  try IERC1155Receiver(to).onERC1155Received(operator, from, id, value, data) returns (bytes4 response) {... */\n      tag_253\n      jumpi\n      returndatasize\n      dup1\n      0x00\n      dup2\n      eq\n      tag_258\n      jumpi\n      mload(0x40)\n      swap2\n      pop\n      and(add(returndatasize, 0x3f), not(0x1f))\n      dup3\n      add\n      0x40\n      mstore\n      returndatasize\n      dup3\n      mstore\n      returndatasize\n      0x00\n      0x20\n      dup5\n      add\n      returndatacopy\n      jump(tag_257)\n    tag_258:\n      0x60\n      swap2\n      pop\n    tag_257:\n      pop\n        /* \"@openzeppelin/contracts/token/ERC1155/ERC1155.sol\":14377:14378  0 */\n      0x00\n        /* \"@openzeppelin/contracts/token/ERC1155/ERC1155.sol\":14360:14366  reason */\n      dup2\n        /* \"@openzeppelin/contracts/token/ERC1155/ERC1155.sol\":14360:14373  reason.length */\n      mload\n        /* \"@openzeppelin/contracts/token/ERC1155/ERC1155.sol\":14360:14378  reason.length == 0 */\n      sub\n        /* \"@openzeppelin/contracts/token/ERC1155/ERC1155.sol\":14356:14705  if (reason.length == 0) {... */\n      tag_259\n      jumpi\n        /* \"@openzeppelin/contracts/token/ERC1155/ERC1155.sol\":14487:14489  to */\n      dup5\n        /* \"@openzeppelin/contracts/token/ERC1155/ERC1155.sol\":14464:14490  ERC1155InvalidReceiver(to) */\n      mload(0x40)\n      0x57f447ce00000000000000000000000000000000000000000000000000000000\n      dup2\n      mstore\n      0x04\n      add\n      tag_260\n      swap2\n      swap1\n      tag_61\n      jump\t// in\n    tag_260:\n      mload(0x40)\n      dup1\n      swap2\n      sub\n      swap1\n      revert\n        /* \"@openzeppelin/contracts/token/ERC1155/ERC1155.sol\":14356:14705  if (reason.length == 0) {... */\n    tag_259:\n        /* \"@openzeppelin/contracts/token/ERC1155/ERC1155.sol\":14657:14663  reason */\n      dup1\n        /* \"@openzeppelin/contracts/token/ERC1155/ERC1155.sol\":14651:14664  mload(reason) */\n      mload\n        /* \"@openzeppelin/contracts/token/ERC1155/ERC1155.sol\":14642:14648  reason */\n      dup2\n        /* \"@openzeppelin/contracts/token/ERC1155/ERC1155.sol\":14638:14640  32 */\n      0x20\n        /* \"@openzeppelin/contracts/token/ERC1155/ERC1155.sol\":14634:14649  add(32, reason) */\n      add\n        /* \"@openzeppelin/contracts/token/ERC1155/ERC1155.sol\":14627:14665  revert(add(32, reason), mload(reason)) */\n      revert\n        /* \"@openzeppelin/contracts/token/ERC1155/ERC1155.sol\":14001:14719  try IERC1155Receiver(to).onERC1155Received(operator, from, id, value, data) returns (bytes4 response) {... */\n    tag_253:\n        /* \"@openzeppelin/contracts/token/ERC1155/ERC1155.sol\":14137:14180  IERC1155Receiver.onERC1155Received.selector */\n      shl(0xe0, 0xf23a6e61)\n        /* \"@openzeppelin/contracts/token/ERC1155/ERC1155.sol\":14125:14180  response != IERC1155Receiver.onERC1155Received.selector */\n      not(0xffffffffffffffffffffffffffffffffffffffffffffffffffffffff)\n      and\n        /* \"@openzeppelin/contracts/token/ERC1155/ERC1155.sol\":14125:14133  response */\n      dup2\n        /* \"@openzeppelin/contracts/token/ERC1155/ERC1155.sol\":14125:14180  response != IERC1155Receiver.onERC1155Received.selector */\n      not(0xffffffffffffffffffffffffffffffffffffffffffffffffffffffff)\n      and\n      eq\n        /* \"@openzeppelin/contracts/token/ERC1155/ERC1155.sol\":14121:14295  if (response != IERC1155Receiver.onERC1155Received.selector) {... */\n      tag_263\n      jumpi\n        /* \"@openzeppelin/contracts/token/ERC1155/ERC1155.sol\":14273:14275  to */\n      dup5\n        /* \"@openzeppelin/contracts/token/ERC1155/ERC1155.sol\":14250:14276  ERC1155InvalidReceiver(to) */\n      mload(0x40)\n      0x57f447ce00000000000000000000000000000000000000000000000000000000\n      dup2\n      mstore\n      0x04\n      add\n      tag_264\n      swap2\n      swap1\n      tag_61\n      jump\t// in\n    tag_264:\n      mload(0x40)\n      dup1\n      swap2\n      sub\n      swap1\n      revert\n        /* \"@openzeppelin/contracts/token/ERC1155/ERC1155.sol\":14121:14295  if (response != IERC1155Receiver.onERC1155Received.selector) {... */\n    tag_263:\n        /* \"@openzeppelin/contracts/token/ERC1155/ERC1155.sol\":14077:14309  returns (bytes4 response) {... */\n      pop\n        /* \"@openzeppelin/contracts/token/ERC1155/ERC1155.sol\":13963:14729  if (to.code.length > 0) {... */\n    tag_247:\n        /* \"@openzeppelin/contracts/token/ERC1155/ERC1155.sol\":13761:14735  function _doSafeTransferAcceptanceCheck(... */\n      pop\n      pop\n      pop\n      pop\n      pop\n      pop\n      jump\t// out\n        /* \"@openzeppelin/contracts/token/ERC1155/ERC1155.sol\":14923:15964  function _doSafeBatchTransferAcceptanceCheck(... */\n    tag_221:\n        /* \"@openzeppelin/contracts/token/ERC1155/ERC1155.sol\":15171:15172  0 */\n      0x00\n        /* \"@openzeppelin/contracts/token/ERC1155/ERC1155.sol\":15154:15156  to */\n      dup5\n        /* \"@openzeppelin/contracts/token/ERC1155/ERC1155.sol\":15154:15168  to.code.length */\n      0xffffffffffffffffffffffffffffffffffffffff\n      and\n      extcodesize\n        /* \"@openzeppelin/contracts/token/ERC1155/ERC1155.sol\":15154:15172  to.code.length > 0 */\n      gt\n        /* \"@openzeppelin/contracts/token/ERC1155/ERC1155.sol\":15150:15958  if (to.code.length > 0) {... */\n      iszero\n      tag_266\n      jumpi\n        /* \"@openzeppelin/contracts/token/ERC1155/ERC1155.sol\":15209:15211  to */\n      dup4\n        /* \"@openzeppelin/contracts/token/ERC1155/ERC1155.sol\":15192:15235  IERC1155Receiver(to).onERC1155BatchReceived */\n      0xffffffffffffffffffffffffffffffffffffffff\n      and\n      0xbc197c81\n        /* \"@openzeppelin/contracts/token/ERC1155/ERC1155.sol\":15236:15244  operator */\n      dup8\n        /* \"@openzeppelin/contracts/token/ERC1155/ERC1155.sol\":15246:15250  from */\n      dup8\n        /* \"@openzeppelin/contracts/token/ERC1155/ERC1155.sol\":15252:15255  ids */\n      dup7\n        /* \"@openzeppelin/contracts/token/ERC1155/ERC1155.sol\":15257:15263  values */\n      dup7\n        /* \"@openzeppelin/contracts/token/ERC1155/ERC1155.sol\":15265:15269  data */\n      dup7\n        /* \"@openzeppelin/contracts/token/ERC1155/ERC1155.sol\":15192:15270  IERC1155Receiver(to).onERC1155BatchReceived(operator, from, ids, values, data) */\n      mload(0x40)\n      dup7\n      0xffffffff\n      and\n      0xe0\n      shl\n      dup2\n      mstore\n      0x04\n      add\n      tag_267\n      swap6\n      swap5\n      swap4\n      swap3\n      swap2\n      swap1\n      tag_268\n      jump\t// in\n    tag_267:\n      0x20\n      mload(0x40)\n      dup1\n      dup4\n      sub\n      dup2\n      0x00\n      dup8\n      gas\n      call\n      swap3\n      pop\n      pop\n      pop\n      dup1\n      iszero\n      tag_269\n      jumpi\n      pop\n      mload(0x40)\n      returndatasize\n      not(0x1f)\n      0x1f\n      dup3\n      add\n      and\n      dup3\n      add\n      dup1\n      0x40\n      mstore\n      pop\n      dup2\n      add\n      swap1\n      tag_270\n      swap2\n      swap1\n      tag_252\n      jump\t// in\n    tag_270:\n      0x01\n    tag_269:\n        /* \"@openzeppelin/contracts/token/ERC1155/ERC1155.sol\":15188:15948  try IERC1155Receiver(to).onERC1155BatchReceived(operator, from, ids, values, data) returns (... */\n      tag_271\n      jumpi\n      returndatasize\n      dup1\n      0x00\n      dup2\n      eq\n      tag_276\n      jumpi\n      mload(0x40)\n      swap2\n      pop\n      and(add(returndatasize, 0x3f), not(0x1f))\n      dup3\n      add\n      0x40\n      mstore\n      returndatasize\n      dup3\n      mstore\n      returndatasize\n      0x00\n      0x20\n      dup5\n      add\n      returndatacopy\n      jump(tag_275)\n    tag_276:\n      0x60\n      swap2\n      pop\n    tag_275:\n      pop\n        /* \"@openzeppelin/contracts/token/ERC1155/ERC1155.sol\":15606:15607  0 */\n      0x00\n        /* \"@openzeppelin/contracts/token/ERC1155/ERC1155.sol\":15589:15595  reason */\n      dup2\n        /* \"@openzeppelin/contracts/token/ERC1155/ERC1155.sol\":15589:15602  reason.length */\n      mload\n        /* \"@openzeppelin/contracts/token/ERC1155/ERC1155.sol\":15589:15607  reason.length == 0 */\n      sub\n        /* \"@openzeppelin/contracts/token/ERC1155/ERC1155.sol\":15585:15934  if (reason.length == 0) {... */\n      tag_277\n      jumpi\n        /* \"@openzeppelin/contracts/token/ERC1155/ERC1155.sol\":15716:15718  to */\n      dup5\n        /* \"@openzeppelin/contracts/token/ERC1155/ERC1155.sol\":15693:15719  ERC1155InvalidReceiver(to) */\n      mload(0x40)\n      0x57f447ce00000000000000000000000000000000000000000000000000000000\n      dup2\n      mstore\n      0x04\n      add\n      tag_278\n      swap2\n      swap1\n      tag_61\n      jump\t// in\n    tag_278:\n      mload(0x40)\n      dup1\n      swap2\n      sub\n      swap1\n      revert\n        /* \"@openzeppelin/contracts/token/ERC1155/ERC1155.sol\":15585:15934  if (reason.length == 0) {... */\n    tag_277:\n        /* \"@openzeppelin/contracts/token/ERC1155/ERC1155.sol\":15886:15892  reason */\n      dup1\n        /* \"@openzeppelin/contracts/token/ERC1155/ERC1155.sol\":15880:15893  mload(reason) */\n      mload\n        /* \"@openzeppelin/contracts/token/ERC1155/ERC1155.sol\":15871:15877  reason */\n      dup2\n        /* \"@openzeppelin/contracts/token/ERC1155/ERC1155.sol\":15867:15869  32 */\n      0x20\n        /* \"@openzeppelin/contracts/token/ERC1155/ERC1155.sol\":15863:15878  add(32, reason) */\n      add\n        /* \"@openzeppelin/contracts/token/ERC1155/ERC1155.sol\":15856:15894  revert(add(32, reason), mload(reason)) */\n      revert\n        /* \"@openzeppelin/contracts/token/ERC1155/ERC1155.sol\":15188:15948  try IERC1155Receiver(to).onERC1155BatchReceived(operator, from, ids, values, data) returns (... */\n    tag_271:\n        /* \"@openzeppelin/contracts/token/ERC1155/ERC1155.sol\":15361:15409  IERC1155Receiver.onERC1155BatchReceived.selector */\n      shl(0xe0, 0xbc197c81)\n        /* \"@openzeppelin/contracts/token/ERC1155/ERC1155.sol\":15349:15409  response != IERC1155Receiver.onERC1155BatchReceived.selector */\n      not(0xffffffffffffffffffffffffffffffffffffffffffffffffffffffff)\n      and\n        /* \"@openzeppelin/contracts/token/ERC1155/ERC1155.sol\":15349:15357  response */\n      dup2\n        /* \"@openzeppelin/contracts/token/ERC1155/ERC1155.sol\":15349:15409  response != IERC1155Receiver.onERC1155BatchReceived.selector */\n      not(0xffffffffffffffffffffffffffffffffffffffffffffffffffffffff)\n      and\n      eq\n        /* \"@openzeppelin/contracts/token/ERC1155/ERC1155.sol\":15345:15524  if (response != IERC1155Receiver.onERC1155BatchReceived.selector) {... */\n      tag_281\n      jumpi\n        /* \"@openzeppelin/contracts/token/ERC1155/ERC1155.sol\":15502:15504  to */\n      dup5\n        /* \"@openzeppelin/contracts/token/ERC1155/ERC1155.sol\":15479:15505  ERC1155InvalidReceiver(to) */\n      mload(0x40)\n      0x57f447ce00000000000000000000000000000000000000000000000000000000\n      dup2\n      mstore\n      0x04\n      add\n      tag_282\n      swap2\n      swap1\n      tag_61\n      jump\t// in\n    tag_282:\n      mload(0x40)\n      dup1\n      swap2\n      sub\n      swap1\n      revert\n        /* \"@openzeppelin/contracts/token/ERC1155/ERC1155.sol\":15345:15524  if (response != IERC1155Receiver.onERC1155BatchReceived.selector) {... */\n    tag_281:\n        /* \"@openzeppelin/contracts/token/ERC1155/ERC1155.sol\":15271:15538  returns (... */\n      pop\n        /* \"@openzeppelin/contracts/token/ERC1155/ERC1155.sol\":15150:15958  if (to.code.length > 0) {... */\n    tag_266:\n        /* \"@openzeppelin/contracts/token/ERC1155/ERC1155.sol\":14923:15964  function _doSafeBatchTransferAcceptanceCheck(... */\n      pop\n      pop\n      pop\n      pop\n      pop\n      pop\n      jump\t// out\n        /* \"#utility.yul\":7:82   */\n    tag_283:\n        /* \"#utility.yul\":40:46   */\n      0x00\n        /* \"#utility.yul\":73:75   */\n      0x40\n        /* \"#utility.yul\":67:76   */\n      mload\n        /* \"#utility.yul\":57:76   */\n      swap1\n      pop\n        /* \"#utility.yul\":7:82   */\n      swap1\n      jump\t// out\n        /* \"#utility.yul\":88:205   */\n    tag_284:\n        /* \"#utility.yul\":197:198   */\n      0x00\n        /* \"#utility.yul\":194:195   */\n      dup1\n        /* \"#utility.yul\":187:199   */\n      revert\n        /* \"#utility.yul\":211:328   */\n    tag_285:\n        /* \"#utility.yul\":320:321   */\n      0x00\n        /* \"#utility.yul\":317:318   */\n      dup1\n        /* \"#utility.yul\":310:322   */\n      revert\n        /* \"#utility.yul\":334:460   */\n    tag_286:\n        /* \"#utility.yul\":371:378   */\n      0x00\n        /* \"#utility.yul\":411:453   */\n      0xffffffffffffffffffffffffffffffffffffffff\n        /* \"#utility.yul\":404:409   */\n      dup3\n        /* \"#utility.yul\":400:454   */\n      and\n        /* \"#utility.yul\":389:454   */\n      swap1\n      pop\n        /* \"#utility.yul\":334:460   */\n      swap2\n      swap1\n      pop\n      jump\t// out\n        /* \"#utility.yul\":466:562   */\n    tag_287:\n        /* \"#utility.yul\":503:510   */\n      0x00\n        /* \"#utility.yul\":532:556   */\n      tag_359\n        /* \"#utility.yul\":550:555   */\n      dup3\n        /* \"#utility.yul\":532:556   */\n      tag_286\n      jump\t// in\n    tag_359:\n        /* \"#utility.yul\":521:556   */\n      swap1\n      pop\n        /* \"#utility.yul\":466:562   */\n      swap2\n      swap1\n      pop\n      jump\t// out\n        /* \"#utility.yul\":568:690   */\n    tag_288:\n        /* \"#utility.yul\":641:665   */\n      tag_361\n        /* \"#utility.yul\":659:664   */\n      dup2\n        /* \"#utility.yul\":641:665   */\n      tag_287\n      jump\t// in\n    tag_361:\n        /* \"#utility.yul\":634:639   */\n      dup2\n        /* \"#utility.yul\":631:666   */\n      eq\n        /* \"#utility.yul\":621:684   */\n      tag_362\n      jumpi\n        /* \"#utility.yul\":680:681   */\n      0x00\n        /* \"#utility.yul\":677:678   */\n      dup1\n        /* \"#utility.yul\":670:682   */\n      revert\n        /* \"#utility.yul\":621:684   */\n    tag_362:\n        /* \"#utility.yul\":568:690   */\n      pop\n      jump\t// out\n        /* \"#utility.yul\":696:835   */\n    tag_289:\n        /* \"#utility.yul\":742:747   */\n      0x00\n        /* \"#utility.yul\":780:786   */\n      dup2\n        /* \"#utility.yul\":767:787   */\n      calldataload\n        /* \"#utility.yul\":758:787   */\n      swap1\n      pop\n        /* \"#utility.yul\":796:829   */\n      tag_364\n        /* \"#utility.yul\":823:828   */\n      dup2\n        /* \"#utility.yul\":796:829   */\n      tag_288\n      jump\t// in\n    tag_364:\n        /* \"#utility.yul\":696:835   */\n      swap3\n      swap2\n      pop\n      pop\n      jump\t// out\n        /* \"#utility.yul\":841:918   */\n    tag_290:\n        /* \"#utility.yul\":878:885   */\n      0x00\n        /* \"#utility.yul\":907:912   */\n      dup2\n        /* \"#utility.yul\":896:912   */\n      swap1\n      pop\n        /* \"#utility.yul\":841:918   */\n      swap2\n      swap1\n      pop\n      jump\t// out\n        /* \"#utility.yul\":924:1046   */\n    tag_291:\n        /* \"#utility.yul\":997:1021   */\n      tag_367\n        /* \"#utility.yul\":1015:1020   */\n      dup2\n        /* \"#utility.yul\":997:1021   */\n      tag_290\n      jump\t// in\n    tag_367:\n        /* \"#utility.yul\":990:995   */\n      dup2\n        /* \"#utility.yul\":987:1022   */\n      eq\n        /* \"#utility.yul\":977:1040   */\n      tag_368\n      jumpi\n        /* \"#utility.yul\":1036:1037   */\n      0x00\n        /* \"#utility.yul\":1033:1034   */\n      dup1\n        /* \"#utility.yul\":1026:1038   */\n      revert\n        /* \"#utility.yul\":977:1040   */\n    tag_368:\n        /* \"#utility.yul\":924:1046   */\n      pop\n      jump\t// out\n        /* \"#utility.yul\":1052:1191   */\n    tag_292:\n        /* \"#utility.yul\":1098:1103   */\n      0x00\n        /* \"#utility.yul\":1136:1142   */\n      dup2\n        /* \"#utility.yul\":1123:1143   */\n      calldataload\n        /* \"#utility.yul\":1114:1143   */\n      swap1\n      pop\n        /* \"#utility.yul\":1152:1185   */\n      tag_370\n        /* \"#utility.yul\":1179:1184   */\n      dup2\n        /* \"#utility.yul\":1152:1185   */\n      tag_291\n      jump\t// in\n    tag_370:\n        /* \"#utility.yul\":1052:1191   */\n      swap3\n      swap2\n      pop\n      pop\n      jump\t// out\n        /* \"#utility.yul\":1197:1671   */\n    tag_22:\n        /* \"#utility.yul\":1265:1271   */\n      0x00\n        /* \"#utility.yul\":1273:1279   */\n      dup1\n        /* \"#utility.yul\":1322:1324   */\n      0x40\n        /* \"#utility.yul\":1310:1319   */\n      dup4\n        /* \"#utility.yul\":1301:1308   */\n      dup6\n        /* \"#utility.yul\":1297:1320   */\n      sub\n        /* \"#utility.yul\":1293:1325   */\n      slt\n        /* \"#utility.yul\":1290:1409   */\n      iszero\n      tag_372\n      jumpi\n        /* \"#utility.yul\":1328:1407   */\n      tag_373\n      tag_284\n      jump\t// in\n    tag_373:\n        /* \"#utility.yul\":1290:1409   */\n    tag_372:\n        /* \"#utility.yul\":1448:1449   */\n      0x00\n        /* \"#utility.yul\":1473:1526   */\n      tag_374\n        /* \"#utility.yul\":1518:1525   */\n      dup6\n        /* \"#utility.yul\":1509:1515   */\n      dup3\n        /* \"#utility.yul\":1498:1507   */\n      dup7\n        /* \"#utility.yul\":1494:1516   */\n      add\n        /* \"#utility.yul\":1473:1526   */\n      tag_289\n      jump\t// in\n    tag_374:\n        /* \"#utility.yul\":1463:1526   */\n      swap3\n      pop\n        /* \"#utility.yul\":1419:1536   */\n      pop\n        /* \"#utility.yul\":1575:1577   */\n      0x20\n        /* \"#utility.yul\":1601:1654   */\n      tag_375\n        /* \"#utility.yul\":1646:1653   */\n      dup6\n        /* \"#utility.yul\":1637:1643   */\n      dup3\n        /* \"#utility.yul\":1626:1635   */\n      dup7\n        /* \"#utility.yul\":1622:1644   */\n      add\n        /* \"#utility.yul\":1601:1654   */\n      tag_292\n      jump\t// in\n    tag_375:\n        /* \"#utility.yul\":1591:1654   */\n      swap2\n      pop\n        /* \"#utility.yul\":1546:1664   */\n      pop\n        /* \"#utility.yul\":1197:1671   */\n      swap3\n      pop\n      swap3\n      swap1\n      pop\n      jump\t// out\n        /* \"#utility.yul\":1677:1795   */\n    tag_293:\n        /* \"#utility.yul\":1764:1788   */\n      tag_377\n        /* \"#utility.yul\":1782:1787   */\n      dup2\n        /* \"#utility.yul\":1764:1788   */\n      tag_290\n      jump\t// in\n    tag_377:\n        /* \"#utility.yul\":1759:1762   */\n      dup3\n        /* \"#utility.yul\":1752:1789   */\n      mstore\n        /* \"#utility.yul\":1677:1795   */\n      pop\n      pop\n      jump\t// out\n        /* \"#utility.yul\":1801:2023   */\n    tag_25:\n        /* \"#utility.yul\":1894:1898   */\n      0x00\n        /* \"#utility.yul\":1932:1934   */\n      0x20\n        /* \"#utility.yul\":1921:1930   */\n      dup3\n        /* \"#utility.yul\":1917:1935   */\n      add\n        /* \"#utility.yul\":1909:1935   */\n      swap1\n      pop\n        /* \"#utility.yul\":1945:2016   */\n      tag_379\n        /* \"#utility.yul\":2013:2014   */\n      0x00\n        /* \"#utility.yul\":2002:2011   */\n      dup4\n        /* \"#utility.yul\":1998:2015   */\n      add\n        /* \"#utility.yul\":1989:1995   */\n      dup5\n        /* \"#utility.yul\":1945:2016   */\n      tag_293\n      jump\t// in\n    tag_379:\n        /* \"#utility.yul\":1801:2023   */\n      swap3\n      swap2\n      pop\n      pop\n      jump\t// out\n        /* \"#utility.yul\":2029:2178   */\n    tag_294:\n        /* \"#utility.yul\":2065:2072   */\n      0x00\n        /* \"#utility.yul\":2105:2171   */\n      0xffffffff00000000000000000000000000000000000000000000000000000000\n        /* \"#utility.yul\":2098:2103   */\n      dup3\n        /* \"#utility.yul\":2094:2172   */\n      and\n        /* \"#utility.yul\":2083:2172   */\n      swap1\n      pop\n        /* \"#utility.yul\":2029:2178   */\n      swap2\n      swap1\n      pop\n      jump\t// out\n        /* \"#utility.yul\":2184:2304   */\n    tag_295:\n        /* \"#utility.yul\":2256:2279   */\n      tag_382\n        /* \"#utility.yul\":2273:2278   */\n      dup2\n        /* \"#utility.yul\":2256:2279   */\n      tag_294\n      jump\t// in\n    tag_382:\n        /* \"#utility.yul\":2249:2254   */\n      dup2\n        /* \"#utility.yul\":2246:2280   */\n      eq\n        /* \"#utility.yul\":2236:2298   */\n      tag_383\n      jumpi\n        /* \"#utility.yul\":2294:2295   */\n      0x00\n        /* \"#utility.yul\":2291:2292   */\n      dup1\n        /* \"#utility.yul\":2284:2296   */\n      revert\n        /* \"#utility.yul\":2236:2298   */\n    tag_383:\n        /* \"#utility.yul\":2184:2304   */\n      pop\n      jump\t// out\n        /* \"#utility.yul\":2310:2447   */\n    tag_296:\n        /* \"#utility.yul\":2355:2360   */\n      0x00\n        /* \"#utility.yul\":2393:2399   */\n      dup2\n        /* \"#utility.yul\":2380:2400   */\n      calldataload\n        /* \"#utility.yul\":2371:2400   */\n      swap1\n      pop\n        /* \"#utility.yul\":2409:2441   */\n      tag_385\n        /* \"#utility.yul\":2435:2440   */\n      dup2\n        /* \"#utility.yul\":2409:2441   */\n      tag_295\n      jump\t// in\n    tag_385:\n        /* \"#utility.yul\":2310:2447   */\n      swap3\n      swap2\n      pop\n      pop\n      jump\t// out\n        /* \"#utility.yul\":2453:2780   */\n    tag_28:\n        /* \"#utility.yul\":2511:2517   */\n      0x00\n        /* \"#utility.yul\":2560:2562   */\n      0x20\n        /* \"#utility.yul\":2548:2557   */\n      dup3\n        /* \"#utility.yul\":2539:2546   */\n      dup5\n        /* \"#utility.yul\":2535:2558   */\n      sub\n        /* \"#utility.yul\":2531:2563   */\n      slt\n        /* \"#utility.yul\":2528:2647   */\n      iszero\n      tag_387\n      jumpi\n        /* \"#utility.yul\":2566:2645   */\n      tag_388\n      tag_284\n      jump\t// in\n    tag_388:\n        /* \"#utility.yul\":2528:2647   */\n    tag_387:\n        /* \"#utility.yul\":2686:2687   */\n      0x00\n        /* \"#utility.yul\":2711:2763   */\n      tag_389\n        /* \"#utility.yul\":2755:2762   */\n      dup5\n        /* \"#utility.yul\":2746:2752   */\n      dup3\n        /* \"#utility.yul\":2735:2744   */\n      dup6\n        /* \"#utility.yul\":2731:2753   */\n      add\n        /* \"#utility.yul\":2711:2763   */\n      tag_296\n      jump\t// in\n    tag_389:\n        /* \"#utility.yul\":2701:2763   */\n      swap2\n      pop\n        /* \"#utility.yul\":2657:2773   */\n      pop\n        /* \"#utility.yul\":2453:2780   */\n      swap3\n      swap2\n      pop\n      pop\n      jump\t// out\n        /* \"#utility.yul\":2786:2876   */\n    tag_297:\n        /* \"#utility.yul\":2820:2827   */\n      0x00\n        /* \"#utility.yul\":2863:2868   */\n      dup2\n        /* \"#utility.yul\":2856:2869   */\n      iszero\n        /* \"#utility.yul\":2849:2870   */\n      iszero\n        /* \"#utility.yul\":2838:2870   */\n      swap1\n      pop\n        /* \"#utility.yul\":2786:2876   */\n      swap2\n      swap1\n      pop\n      jump\t// out\n        /* \"#utility.yul\":2882:2991   */\n    tag_298:\n        /* \"#utility.yul\":2963:2984   */\n      tag_392\n        /* \"#utility.yul\":2978:2983   */\n      dup2\n        /* \"#utility.yul\":2963:2984   */\n      tag_297\n      jump\t// in\n    tag_392:\n        /* \"#utility.yul\":2958:2961   */\n      dup3\n        /* \"#utility.yul\":2951:2985   */\n      mstore\n        /* \"#utility.yul\":2882:2991   */\n      pop\n      pop\n      jump\t// out\n        /* \"#utility.yul\":2997:3207   */\n    tag_31:\n        /* \"#utility.yul\":3084:3088   */\n      0x00\n        /* \"#utility.yul\":3122:3124   */\n      0x20\n        /* \"#utility.yul\":3111:3120   */\n      dup3\n        /* \"#utility.yul\":3107:3125   */\n      add\n        /* \"#utility.yul\":3099:3125   */\n      swap1\n      pop\n        /* \"#utility.yul\":3135:3200   */\n      tag_394\n        /* \"#utility.yul\":3197:3198   */\n      0x00\n        /* \"#utility.yul\":3186:3195   */\n      dup4\n        /* \"#utility.yul\":3182:3199   */\n      add\n        /* \"#utility.yul\":3173:3179   */\n      dup5\n        /* \"#utility.yul\":3135:3200   */\n      tag_298\n      jump\t// in\n    tag_394:\n        /* \"#utility.yul\":2997:3207   */\n      swap3\n      swap2\n      pop\n      pop\n      jump\t// out\n        /* \"#utility.yul\":3213:3330   */\n    tag_299:\n        /* \"#utility.yul\":3322:3323   */\n      0x00\n        /* \"#utility.yul\":3319:3320   */\n      dup1\n        /* \"#utility.yul\":3312:3324   */\n      revert\n        /* \"#utility.yul\":3336:3453   */\n    tag_300:\n        /* \"#utility.yul\":3445:3446   */\n      0x00\n        /* \"#utility.yul\":3442:3443   */\n      dup1\n        /* \"#utility.yul\":3435:3447   */\n      revert\n        /* \"#utility.yul\":3459:3561   */\n    tag_301:\n        /* \"#utility.yul\":3500:3506   */\n      0x00\n        /* \"#utility.yul\":3551:3553   */\n      0x1f\n        /* \"#utility.yul\":3547:3554   */\n      not\n        /* \"#utility.yul\":3542:3544   */\n      0x1f\n        /* \"#utility.yul\":3535:3540   */\n      dup4\n        /* \"#utility.yul\":3531:3545   */\n      add\n        /* \"#utility.yul\":3527:3555   */\n      and\n        /* \"#utility.yul\":3517:3555   */\n      swap1\n      pop\n        /* \"#utility.yul\":3459:3561   */\n      swap2\n      swap1\n      pop\n      jump\t// out\n        /* \"#utility.yul\":3567:3747   */\n    tag_118:\n        /* \"#utility.yul\":3615:3692   */\n      0x4e487b7100000000000000000000000000000000000000000000000000000000\n        /* \"#utility.yul\":3612:3613   */\n      0x00\n        /* \"#utility.yul\":3605:3693   */\n      mstore\n        /* \"#utility.yul\":3712:3716   */\n      0x41\n        /* \"#utility.yul\":3709:3710   */\n      0x04\n        /* \"#utility.yul\":3702:3717   */\n      mstore\n        /* \"#utility.yul\":3736:3740   */\n      0x24\n        /* \"#utility.yul\":3733:3734   */\n      0x00\n        /* \"#utility.yul\":3726:3741   */\n      revert\n        /* \"#utility.yul\":3753:4034   */\n    tag_302:\n        /* \"#utility.yul\":3836:3863   */\n      tag_400\n        /* \"#utility.yul\":3858:3862   */\n      dup3\n        /* \"#utility.yul\":3836:3863   */\n      tag_301\n      jump\t// in\n    tag_400:\n        /* \"#utility.yul\":3828:3834   */\n      dup2\n        /* \"#utility.yul\":3824:3864   */\n      add\n        /* \"#utility.yul\":3966:3972   */\n      dup2\n        /* \"#utility.yul\":3954:3964   */\n      dup2\n        /* \"#utility.yul\":3951:3973   */\n      lt\n        /* \"#utility.yul\":3930:3948   */\n      0xffffffffffffffff\n        /* \"#utility.yul\":3918:3928   */\n      dup3\n        /* \"#utility.yul\":3915:3949   */\n      gt\n        /* \"#utility.yul\":3912:3974   */\n      or\n        /* \"#utility.yul\":3909:3997   */\n      iszero\n      tag_401\n      jumpi\n        /* \"#utility.yul\":3977:3995   */\n      tag_402\n      tag_118\n      jump\t// in\n    tag_402:\n        /* \"#utility.yul\":3909:3997   */\n    tag_401:\n        /* \"#utility.yul\":4017:4027   */\n      dup1\n        /* \"#utility.yul\":4013:4015   */\n      0x40\n        /* \"#utility.yul\":4006:4028   */\n      mstore\n        /* \"#utility.yul\":3796:4034   */\n      pop\n        /* \"#utility.yul\":3753:4034   */\n      pop\n      pop\n      jump\t// out\n        /* \"#utility.yul\":4040:4169   */\n    tag_303:\n        /* \"#utility.yul\":4074:4080   */\n      0x00\n        /* \"#utility.yul\":4101:4121   */\n      tag_404\n      tag_283\n      jump\t// in\n    tag_404:\n        /* \"#utility.yul\":4091:4121   */\n      swap1\n      pop\n        /* \"#utility.yul\":4130:4163   */\n      tag_405\n        /* \"#utility.yul\":4158:4162   */\n      dup3\n        /* \"#utility.yul\":4150:4156   */\n      dup3\n        /* \"#utility.yul\":4130:4163   */\n      tag_302\n      jump\t// in\n    tag_405:\n        /* \"#utility.yul\":4040:4169   */\n      swap2\n      swap1\n      pop\n      jump\t// out\n        /* \"#utility.yul\":4175:4483   */\n    tag_304:\n        /* \"#utility.yul\":4237:4241   */\n      0x00\n        /* \"#utility.yul\":4327:4345   */\n      0xffffffffffffffff\n        /* \"#utility.yul\":4319:4325   */\n      dup3\n        /* \"#utility.yul\":4316:4346   */\n      gt\n        /* \"#utility.yul\":4313:4369   */\n      iszero\n      tag_407\n      jumpi\n        /* \"#utility.yul\":4349:4367   */\n      tag_408\n      tag_118\n      jump\t// in\n    tag_408:\n        /* \"#utility.yul\":4313:4369   */\n    tag_407:\n        /* \"#utility.yul\":4387:4416   */\n      tag_409\n        /* \"#utility.yul\":4409:4415   */\n      dup3\n        /* \"#utility.yul\":4387:4416   */\n      tag_301\n      jump\t// in\n    tag_409:\n        /* \"#utility.yul\":4379:4416   */\n      swap1\n      pop\n        /* \"#utility.yul\":4471:4475   */\n      0x20\n        /* \"#utility.yul\":4465:4469   */\n      dup2\n        /* \"#utility.yul\":4461:4476   */\n      add\n        /* \"#utility.yul\":4453:4476   */\n      swap1\n      pop\n        /* \"#utility.yul\":4175:4483   */\n      swap2\n      swap1\n      pop\n      jump\t// out\n        /* \"#utility.yul\":4489:4637   */\n    tag_305:\n        /* \"#utility.yul\":4587:4593   */\n      dup3\n        /* \"#utility.yul\":4582:4585   */\n      dup2\n        /* \"#utility.yul\":4577:4580   */\n      dup4\n        /* \"#utility.yul\":4564:4594   */\n      calldatacopy\n        /* \"#utility.yul\":4628:4629   */\n      0x00\n        /* \"#utility.yul\":4619:4625   */\n      dup4\n        /* \"#utility.yul\":4614:4617   */\n      dup4\n        /* \"#utility.yul\":4610:4626   */\n      add\n        /* \"#utility.yul\":4603:4630   */\n      mstore\n        /* \"#utility.yul\":4489:4637   */\n      pop\n      pop\n      pop\n      jump\t// out\n        /* \"#utility.yul\":4643:5068   */\n    tag_306:\n        /* \"#utility.yul\":4721:4726   */\n      0x00\n        /* \"#utility.yul\":4746:4812   */\n      tag_412\n        /* \"#utility.yul\":4762:4811   */\n      tag_413\n        /* \"#utility.yul\":4804:4810   */\n      dup5\n        /* \"#utility.yul\":4762:4811   */\n      tag_304\n      jump\t// in\n    tag_413:\n        /* \"#utility.yul\":4746:4812   */\n      tag_303\n      jump\t// in\n    tag_412:\n        /* \"#utility.yul\":4737:4812   */\n      swap1\n      pop\n        /* \"#utility.yul\":4835:4841   */\n      dup3\n        /* \"#utility.yul\":4828:4833   */\n      dup2\n        /* \"#utility.yul\":4821:4842   */\n      mstore\n        /* \"#utility.yul\":4873:4877   */\n      0x20\n        /* \"#utility.yul\":4866:4871   */\n      dup2\n        /* \"#utility.yul\":4862:4878   */\n      add\n        /* \"#utility.yul\":4911:4914   */\n      dup5\n        /* \"#utility.yul\":4902:4908   */\n      dup5\n        /* \"#utility.yul\":4897:4900   */\n      dup5\n        /* \"#utility.yul\":4893:4909   */\n      add\n        /* \"#utility.yul\":4890:4915   */\n      gt\n        /* \"#utility.yul\":4887:4999   */\n      iszero\n      tag_414\n      jumpi\n        /* \"#utility.yul\":4918:4997   */\n      tag_415\n      tag_300\n      jump\t// in\n    tag_415:\n        /* \"#utility.yul\":4887:4999   */\n    tag_414:\n        /* \"#utility.yul\":5008:5062   */\n      tag_416\n        /* \"#utility.yul\":5055:5061   */\n      dup5\n        /* \"#utility.yul\":5050:5053   */\n      dup3\n        /* \"#utility.yul\":5045:5048   */\n      dup6\n        /* \"#utility.yul\":5008:5062   */\n      tag_305\n      jump\t// in\n    tag_416:\n        /* \"#utility.yul\":4727:5068   */\n      pop\n        /* \"#utility.yul\":4643:5068   */\n      swap4\n      swap3\n      pop\n      pop\n      pop\n      jump\t// out\n        /* \"#utility.yul\":5088:5428   */\n    tag_307:\n        /* \"#utility.yul\":5144:5149   */\n      0x00\n        /* \"#utility.yul\":5193:5196   */\n      dup3\n        /* \"#utility.yul\":5186:5190   */\n      0x1f\n        /* \"#utility.yul\":5178:5184   */\n      dup4\n        /* \"#utility.yul\":5174:5191   */\n      add\n        /* \"#utility.yul\":5170:5197   */\n      slt\n        /* \"#utility.yul\":5160:5282   */\n      tag_418\n      jumpi\n        /* \"#utility.yul\":5201:5280   */\n      tag_419\n      tag_299\n      jump\t// in\n    tag_419:\n        /* \"#utility.yul\":5160:5282   */\n    tag_418:\n        /* \"#utility.yul\":5318:5324   */\n      dup2\n        /* \"#utility.yul\":5305:5325   */\n      calldataload\n        /* \"#utility.yul\":5343:5422   */\n      tag_420\n        /* \"#utility.yul\":5418:5421   */\n      dup5\n        /* \"#utility.yul\":5410:5416   */\n      dup3\n        /* \"#utility.yul\":5403:5407   */\n      0x20\n        /* \"#utility.yul\":5395:5401   */\n      dup7\n        /* \"#utility.yul\":5391:5408   */\n      add\n        /* \"#utility.yul\":5343:5422   */\n      tag_306\n      jump\t// in\n    tag_420:\n        /* \"#utility.yul\":5334:5422   */\n      swap2\n      pop\n        /* \"#utility.yul\":5150:5428   */\n      pop\n        /* \"#utility.yul\":5088:5428   */\n      swap3\n      swap2\n      pop\n      pop\n      jump\t// out\n        /* \"#utility.yul\":5434:5943   */\n    tag_34:\n        /* \"#utility.yul\":5503:5509   */\n      0x00\n        /* \"#utility.yul\":5552:5554   */\n      0x20\n        /* \"#utility.yul\":5540:5549   */\n      dup3\n        /* \"#utility.yul\":5531:5538   */\n      dup5\n        /* \"#utility.yul\":5527:5550   */\n      sub\n        /* \"#utility.yul\":5523:5555   */\n      slt\n        /* \"#utility.yul\":5520:5639   */\n      iszero\n      tag_422\n      jumpi\n        /* \"#utility.yul\":5558:5637   */\n      tag_423\n      tag_284\n      jump\t// in\n    tag_423:\n        /* \"#utility.yul\":5520:5639   */\n    tag_422:\n        /* \"#utility.yul\":5706:5707   */\n      0x00\n        /* \"#utility.yul\":5695:5704   */\n      dup3\n        /* \"#utility.yul\":5691:5708   */\n      add\n        /* \"#utility.yul\":5678:5709   */\n      calldataload\n        /* \"#utility.yul\":5736:5754   */\n      0xffffffffffffffff\n        /* \"#utility.yul\":5728:5734   */\n      dup2\n        /* \"#utility.yul\":5725:5755   */\n      gt\n        /* \"#utility.yul\":5722:5839   */\n      iszero\n      tag_424\n      jumpi\n        /* \"#utility.yul\":5758:5837   */\n      tag_425\n      tag_285\n      jump\t// in\n    tag_425:\n        /* \"#utility.yul\":5722:5839   */\n    tag_424:\n        /* \"#utility.yul\":5863:5926   */\n      tag_426\n        /* \"#utility.yul\":5918:5925   */\n      dup5\n        /* \"#utility.yul\":5909:5915   */\n      dup3\n        /* \"#utility.yul\":5898:5907   */\n      dup6\n        /* \"#utility.yul\":5894:5916   */\n      add\n        /* \"#utility.yul\":5863:5926   */\n      tag_307\n      jump\t// in\n    tag_426:\n        /* \"#utility.yul\":5853:5926   */\n      swap2\n      pop\n        /* \"#utility.yul\":5649:5936   */\n      pop\n        /* \"#utility.yul\":5434:5943   */\n      swap3\n      swap2\n      pop\n      pop\n      jump\t// out\n        /* \"#utility.yul\":5949:6278   */\n    tag_38:\n        /* \"#utility.yul\":6008:6014   */\n      0x00\n        /* \"#utility.yul\":6057:6059   */\n      0x20\n        /* \"#utility.yul\":6045:6054   */\n      dup3\n        /* \"#utility.yul\":6036:6043   */\n      dup5\n        /* \"#utility.yul\":6032:6055   */\n      sub\n        /* \"#utility.yul\":6028:6060   */\n      slt\n        /* \"#utility.yul\":6025:6144   */\n      iszero\n      tag_428\n      jumpi\n        /* \"#utility.yul\":6063:6142   */\n      tag_429\n      tag_284\n      jump\t// in\n    tag_429:\n        /* \"#utility.yul\":6025:6144   */\n    tag_428:\n        /* \"#utility.yul\":6183:6184   */\n      0x00\n        /* \"#utility.yul\":6208:6261   */\n      tag_430\n        /* \"#utility.yul\":6253:6260   */\n      dup5\n        /* \"#utility.yul\":6244:6250   */\n      dup3\n        /* \"#utility.yul\":6233:6242   */\n      dup6\n        /* \"#utility.yul\":6229:6251   */\n      add\n        /* \"#utility.yul\":6208:6261   */\n      tag_292\n      jump\t// in\n    tag_430:\n        /* \"#utility.yul\":6198:6261   */\n      swap2\n      pop\n        /* \"#utility.yul\":6154:6271   */\n      pop\n        /* \"#utility.yul\":5949:6278   */\n      swap3\n      swap2\n      pop\n      pop\n      jump\t// out\n        /* \"#utility.yul\":6284:6383   */\n    tag_308:\n        /* \"#utility.yul\":6336:6342   */\n      0x00\n        /* \"#utility.yul\":6370:6375   */\n      dup2\n        /* \"#utility.yul\":6364:6376   */\n      mload\n        /* \"#utility.yul\":6354:6376   */\n      swap1\n      pop\n        /* \"#utility.yul\":6284:6383   */\n      swap2\n      swap1\n      pop\n      jump\t// out\n        /* \"#utility.yul\":6389:6558   */\n    tag_309:\n        /* \"#utility.yul\":6473:6484   */\n      0x00\n        /* \"#utility.yul\":6507:6513   */\n      dup3\n        /* \"#utility.yul\":6502:6505   */\n      dup3\n        /* \"#utility.yul\":6495:6514   */\n      mstore\n        /* \"#utility.yul\":6547:6551   */\n      0x20\n        /* \"#utility.yul\":6542:6545   */\n      dup3\n        /* \"#utility.yul\":6538:6552   */\n      add\n        /* \"#utility.yul\":6523:6552   */\n      swap1\n      pop\n        /* \"#utility.yul\":6389:6558   */\n      swap3\n      swap2\n      pop\n      pop\n      jump\t// out\n        /* \"#utility.yul\":6564:6703   */\n    tag_310:\n        /* \"#utility.yul\":6653:6659   */\n      dup3\n        /* \"#utility.yul\":6648:6651   */\n      dup2\n        /* \"#utility.yul\":6643:6646   */\n      dup4\n        /* \"#utility.yul\":6637:6660   */\n      mcopy\n        /* \"#utility.yul\":6694:6695   */\n      0x00\n        /* \"#utility.yul\":6685:6691   */\n      dup4\n        /* \"#utility.yul\":6680:6683   */\n      dup4\n        /* \"#utility.yul\":6676:6692   */\n      add\n        /* \"#utility.yul\":6669:6696   */\n      mstore\n        /* \"#utility.yul\":6564:6703   */\n      pop\n      pop\n      pop\n      jump\t// out\n        /* \"#utility.yul\":6709:7086   */\n    tag_311:\n        /* \"#utility.yul\":6797:6800   */\n      0x00\n        /* \"#utility.yul\":6825:6864   */\n      tag_435\n        /* \"#utility.yul\":6858:6863   */\n      dup3\n        /* \"#utility.yul\":6825:6864   */\n      tag_308\n      jump\t// in\n    tag_435:\n        /* \"#utility.yul\":6880:6951   */\n      tag_436\n        /* \"#utility.yul\":6944:6950   */\n      dup2\n        /* \"#utility.yul\":6939:6942   */\n      dup6\n        /* \"#utility.yul\":6880:6951   */\n      tag_309\n      jump\t// in\n    tag_436:\n        /* \"#utility.yul\":6873:6951   */\n      swap4\n      pop\n        /* \"#utility.yul\":6960:7025   */\n      tag_437\n        /* \"#utility.yul\":7018:7024   */\n      dup2\n        /* \"#utility.yul\":7013:7016   */\n      dup6\n        /* \"#utility.yul\":7006:7010   */\n      0x20\n        /* \"#utility.yul\":6999:7004   */\n      dup7\n        /* \"#utility.yul\":6995:7011   */\n      add\n        /* \"#utility.yul\":6960:7025   */\n      tag_310\n      jump\t// in\n    tag_437:\n        /* \"#utility.yul\":7050:7079   */\n      tag_438\n        /* \"#utility.yul\":7072:7078   */\n      dup2\n        /* \"#utility.yul\":7050:7079   */\n      tag_301\n      jump\t// in\n    tag_438:\n        /* \"#utility.yul\":7045:7048   */\n      dup5\n        /* \"#utility.yul\":7041:7080   */\n      add\n        /* \"#utility.yul\":7034:7080   */\n      swap2\n      pop\n        /* \"#utility.yul\":6801:7086   */\n      pop\n        /* \"#utility.yul\":6709:7086   */\n      swap3\n      swap2\n      pop\n      pop\n      jump\t// out\n        /* \"#utility.yul\":7092:7405   */\n    tag_41:\n        /* \"#utility.yul\":7205:7209   */\n      0x00\n        /* \"#utility.yul\":7243:7245   */\n      0x20\n        /* \"#utility.yul\":7232:7241   */\n      dup3\n        /* \"#utility.yul\":7228:7246   */\n      add\n        /* \"#utility.yul\":7220:7246   */\n      swap1\n      pop\n        /* \"#utility.yul\":7292:7301   */\n      dup2\n        /* \"#utility.yul\":7286:7290   */\n      dup2\n        /* \"#utility.yul\":7282:7302   */\n      sub\n        /* \"#utility.yul\":7278:7279   */\n      0x00\n        /* \"#utility.yul\":7267:7276   */\n      dup4\n        /* \"#utility.yul\":7263:7280   */\n      add\n        /* \"#utility.yul\":7256:7303   */\n      mstore\n        /* \"#utility.yul\":7320:7398   */\n      tag_440\n        /* \"#utility.yul\":7393:7397   */\n      dup2\n        /* \"#utility.yul\":7384:7390   */\n      dup5\n        /* \"#utility.yul\":7320:7398   */\n      tag_311\n      jump\t// in\n    tag_440:\n        /* \"#utility.yul\":7312:7398   */\n      swap1\n      pop\n        /* \"#utility.yul\":7092:7405   */\n      swap3\n      swap2\n      pop\n      pop\n      jump\t// out\n        /* \"#utility.yul\":7411:7722   */\n    tag_312:\n        /* \"#utility.yul\":7488:7492   */\n      0x00\n        /* \"#utility.yul\":7578:7596   */\n      0xffffffffffffffff\n        /* \"#utility.yul\":7570:7576   */\n      dup3\n        /* \"#utility.yul\":7567:7597   */\n      gt\n        /* \"#utility.yul\":7564:7620   */\n      iszero\n      tag_442\n      jumpi\n        /* \"#utility.yul\":7600:7618   */\n      tag_443\n      tag_118\n      jump\t// in\n    tag_443:\n        /* \"#utility.yul\":7564:7620   */\n    tag_442:\n        /* \"#utility.yul\":7650:7654   */\n      0x20\n        /* \"#utility.yul\":7642:7648   */\n      dup3\n        /* \"#utility.yul\":7638:7655   */\n      mul\n        /* \"#utility.yul\":7630:7655   */\n      swap1\n      pop\n        /* \"#utility.yul\":7710:7714   */\n      0x20\n        /* \"#utility.yul\":7704:7708   */\n      dup2\n        /* \"#utility.yul\":7700:7715   */\n      add\n        /* \"#utility.yul\":7692:7715   */\n      swap1\n      pop\n        /* \"#utility.yul\":7411:7722   */\n      swap2\n      swap1\n      pop\n      jump\t// out\n        /* \"#utility.yul\":7728:7845   */\n    tag_313:\n        /* \"#utility.yul\":7837:7838   */\n      0x00\n        /* \"#utility.yul\":7834:7835   */\n      dup1\n        /* \"#utility.yul\":7827:7839   */\n      revert\n        /* \"#utility.yul\":7868:8578   */\n    tag_314:\n        /* \"#utility.yul\":7964:7969   */\n      0x00\n        /* \"#utility.yul\":7989:8070   */\n      tag_446\n        /* \"#utility.yul\":8005:8069   */\n      tag_447\n        /* \"#utility.yul\":8062:8068   */\n      dup5\n        /* \"#utility.yul\":8005:8069   */\n      tag_312\n      jump\t// in\n    tag_447:\n        /* \"#utility.yul\":7989:8070   */\n      tag_303\n      jump\t// in\n    tag_446:\n        /* \"#utility.yul\":7980:8070   */\n      swap1\n      pop\n        /* \"#utility.yul\":8090:8095   */\n      dup1\n        /* \"#utility.yul\":8119:8125   */\n      dup4\n        /* \"#utility.yul\":8112:8117   */\n      dup3\n        /* \"#utility.yul\":8105:8126   */\n      mstore\n        /* \"#utility.yul\":8153:8157   */\n      0x20\n        /* \"#utility.yul\":8146:8151   */\n      dup3\n        /* \"#utility.yul\":8142:8158   */\n      add\n        /* \"#utility.yul\":8135:8158   */\n      swap1\n      pop\n        /* \"#utility.yul\":8206:8210   */\n      0x20\n        /* \"#utility.yul\":8198:8204   */\n      dup5\n        /* \"#utility.yul\":8194:8211   */\n      mul\n        /* \"#utility.yul\":8186:8192   */\n      dup4\n        /* \"#utility.yul\":8182:8212   */\n      add\n        /* \"#utility.yul\":8235:8238   */\n      dup6\n        /* \"#utility.yul\":8227:8233   */\n      dup2\n        /* \"#utility.yul\":8224:8239   */\n      gt\n        /* \"#utility.yul\":8221:8343   */\n      iszero\n      tag_448\n      jumpi\n        /* \"#utility.yul\":8254:8333   */\n      tag_449\n      tag_313\n      jump\t// in\n    tag_449:\n        /* \"#utility.yul\":8221:8343   */\n    tag_448:\n        /* \"#utility.yul\":8369:8375   */\n      dup4\n        /* \"#utility.yul\":8352:8572   */\n    tag_450:\n        /* \"#utility.yul\":8386:8392   */\n      dup2\n        /* \"#utility.yul\":8381:8384   */\n      dup2\n        /* \"#utility.yul\":8378:8393   */\n      lt\n        /* \"#utility.yul\":8352:8572   */\n      iszero\n      tag_452\n      jumpi\n        /* \"#utility.yul\":8461:8464   */\n      dup1\n        /* \"#utility.yul\":8490:8527   */\n      tag_453\n        /* \"#utility.yul\":8523:8526   */\n      dup9\n        /* \"#utility.yul\":8511:8521   */\n      dup3\n        /* \"#utility.yul\":8490:8527   */\n      tag_292\n      jump\t// in\n    tag_453:\n        /* \"#utility.yul\":8485:8488   */\n      dup5\n        /* \"#utility.yul\":8478:8528   */\n      mstore\n        /* \"#utility.yul\":8557:8561   */\n      0x20\n        /* \"#utility.yul\":8552:8555   */\n      dup5\n        /* \"#utility.yul\":8548:8562   */\n      add\n        /* \"#utility.yul\":8541:8562   */\n      swap4\n      pop\n        /* \"#utility.yul\":8428:8572   */\n      pop\n        /* \"#utility.yul\":8412:8416   */\n      0x20\n        /* \"#utility.yul\":8407:8410   */\n      dup2\n        /* \"#utility.yul\":8403:8417   */\n      add\n        /* \"#utility.yul\":8396:8417   */\n      swap1\n      pop\n        /* \"#utility.yul\":8352:8572   */\n      jump(tag_450)\n    tag_452:\n        /* \"#utility.yul\":8356:8377   */\n      pop\n        /* \"#utility.yul\":7970:8578   */\n      pop\n      pop\n        /* \"#utility.yul\":7868:8578   */\n      swap4\n      swap3\n      pop\n      pop\n      pop\n      jump\t// out\n        /* \"#utility.yul\":8601:8971   */\n    tag_315:\n        /* \"#utility.yul\":8672:8677   */\n      0x00\n        /* \"#utility.yul\":8721:8724   */\n      dup3\n        /* \"#utility.yul\":8714:8718   */\n      0x1f\n        /* \"#utility.yul\":8706:8712   */\n      dup4\n        /* \"#utility.yul\":8702:8719   */\n      add\n        /* \"#utility.yul\":8698:8725   */\n      slt\n        /* \"#utility.yul\":8688:8810   */\n      tag_455\n      jumpi\n        /* \"#utility.yul\":8729:8808   */\n      tag_456\n      tag_299\n      jump\t// in\n    tag_456:\n        /* \"#utility.yul\":8688:8810   */\n    tag_455:\n        /* \"#utility.yul\":8846:8852   */\n      dup2\n        /* \"#utility.yul\":8833:8853   */\n      calldataload\n        /* \"#utility.yul\":8871:8965   */\n      tag_457\n        /* \"#utility.yul\":8961:8964   */\n      dup5\n        /* \"#utility.yul\":8953:8959   */\n      dup3\n        /* \"#utility.yul\":8946:8950   */\n      0x20\n        /* \"#utility.yul\":8938:8944   */\n      dup7\n        /* \"#utility.yul\":8934:8951   */\n      add\n        /* \"#utility.yul\":8871:8965   */\n      tag_314\n      jump\t// in\n    tag_457:\n        /* \"#utility.yul\":8862:8965   */\n      swap2\n      pop\n        /* \"#utility.yul\":8678:8971   */\n      pop\n        /* \"#utility.yul\":8601:8971   */\n      swap3\n      swap2\n      pop\n      pop\n      jump\t// out\n        /* \"#utility.yul\":8977:9284   */\n    tag_316:\n        /* \"#utility.yul\":9038:9042   */\n      0x00\n        /* \"#utility.yul\":9128:9146   */\n      0xffffffffffffffff\n        /* \"#utility.yul\":9120:9126   */\n      dup3\n        /* \"#utility.yul\":9117:9147   */\n      gt\n        /* \"#utility.yul\":9114:9170   */\n      iszero\n      tag_459\n      jumpi\n        /* \"#utility.yul\":9150:9168   */\n      tag_460\n      tag_118\n      jump\t// in\n    tag_460:\n        /* \"#utility.yul\":9114:9170   */\n    tag_459:\n        /* \"#utility.yul\":9188:9217   */\n      tag_461\n        /* \"#utility.yul\":9210:9216   */\n      dup3\n        /* \"#utility.yul\":9188:9217   */\n      tag_301\n      jump\t// in\n    tag_461:\n        /* \"#utility.yul\":9180:9217   */\n      swap1\n      pop\n        /* \"#utility.yul\":9272:9276   */\n      0x20\n        /* \"#utility.yul\":9266:9270   */\n      dup2\n        /* \"#utility.yul\":9262:9277   */\n      add\n        /* \"#utility.yul\":9254:9277   */\n      swap1\n      pop\n        /* \"#utility.yul\":8977:9284   */\n      swap2\n      swap1\n      pop\n      jump\t// out\n        /* \"#utility.yul\":9290:9713   */\n    tag_317:\n        /* \"#utility.yul\":9367:9372   */\n      0x00\n        /* \"#utility.yul\":9392:9457   */\n      tag_463\n        /* \"#utility.yul\":9408:9456   */\n      tag_464\n        /* \"#utility.yul\":9449:9455   */\n      dup5\n        /* \"#utility.yul\":9408:9456   */\n      tag_316\n      jump\t// in\n    tag_464:\n        /* \"#utility.yul\":9392:9457   */\n      tag_303\n      jump\t// in\n    tag_463:\n        /* \"#utility.yul\":9383:9457   */\n      swap1\n      pop\n        /* \"#utility.yul\":9480:9486   */\n      dup3\n        /* \"#utility.yul\":9473:9478   */\n      dup2\n        /* \"#utility.yul\":9466:9487   */\n      mstore\n        /* \"#utility.yul\":9518:9522   */\n      0x20\n        /* \"#utility.yul\":9511:9516   */\n      dup2\n        /* \"#utility.yul\":9507:9523   */\n      add\n        /* \"#utility.yul\":9556:9559   */\n      dup5\n        /* \"#utility.yul\":9547:9553   */\n      dup5\n        /* \"#utility.yul\":9542:9545   */\n      dup5\n        /* \"#utility.yul\":9538:9554   */\n      add\n        /* \"#utility.yul\":9535:9560   */\n      gt\n        /* \"#utility.yul\":9532:9644   */\n      iszero\n      tag_465\n      jumpi\n        /* \"#utility.yul\":9563:9642   */\n      tag_466\n      tag_300\n      jump\t// in\n    tag_466:\n        /* \"#utility.yul\":9532:9644   */\n    tag_465:\n        /* \"#utility.yul\":9653:9707   */\n      tag_467\n        /* \"#utility.yul\":9700:9706   */\n      dup5\n        /* \"#utility.yul\":9695:9698   */\n      dup3\n        /* \"#utility.yul\":9690:9693   */\n      dup6\n        /* \"#utility.yul\":9653:9707   */\n      tag_305\n      jump\t// in\n    tag_467:\n        /* \"#utility.yul\":9373:9713   */\n      pop\n        /* \"#utility.yul\":9290:9713   */\n      swap4\n      swap3\n      pop\n      pop\n      pop\n      jump\t// out\n        /* \"#utility.yul\":9732:10070   */\n    tag_318:\n        /* \"#utility.yul\":9787:9792   */\n      0x00\n        /* \"#utility.yul\":9836:9839   */\n      dup3\n        /* \"#utility.yul\":9829:9833   */\n      0x1f\n        /* \"#utility.yul\":9821:9827   */\n      dup4\n        /* \"#utility.yul\":9817:9834   */\n      add\n        /* \"#utility.yul\":9813:9840   */\n      slt\n        /* \"#utility.yul\":9803:9925   */\n      tag_469\n      jumpi\n        /* \"#utility.yul\":9844:9923   */\n      tag_470\n      tag_299\n      jump\t// in\n    tag_470:\n        /* \"#utility.yul\":9803:9925   */\n    tag_469:\n        /* \"#utility.yul\":9961:9967   */\n      dup2\n        /* \"#utility.yul\":9948:9968   */\n      calldataload\n        /* \"#utility.yul\":9986:10064   */\n      tag_471\n        /* \"#utility.yul\":10060:10063   */\n      dup5\n        /* \"#utility.yul\":10052:10058   */\n      dup3\n        /* \"#utility.yul\":10045:10049   */\n      0x20\n        /* \"#utility.yul\":10037:10043   */\n      dup7\n        /* \"#utility.yul\":10033:10050   */\n      add\n        /* \"#utility.yul\":9986:10064   */\n      tag_317\n      jump\t// in\n    tag_471:\n        /* \"#utility.yul\":9977:10064   */\n      swap2\n      pop\n        /* \"#utility.yul\":9793:10070   */\n      pop\n        /* \"#utility.yul\":9732:10070   */\n      swap3\n      swap2\n      pop\n      pop\n      jump\t// out\n        /* \"#utility.yul\":10076:11585   */\n    tag_44:\n        /* \"#utility.yul\":10230:10236   */\n      0x00\n        /* \"#utility.yul\":10238:10244   */\n      dup1\n        /* \"#utility.yul\":10246:10252   */\n      0x00\n        /* \"#utility.yul\":10254:10260   */\n      dup1\n        /* \"#utility.yul\":10262:10268   */\n      0x00\n        /* \"#utility.yul\":10311:10314   */\n      0xa0\n        /* \"#utility.yul\":10299:10308   */\n      dup7\n        /* \"#utility.yul\":10290:10297   */\n      dup9\n        /* \"#utility.yul\":10286:10309   */\n      sub\n        /* \"#utility.yul\":10282:10315   */\n      slt\n        /* \"#utility.yul\":10279:10399   */\n      iszero\n      tag_473\n      jumpi\n        /* \"#utility.yul\":10318:10397   */\n      tag_474\n      tag_284\n      jump\t// in\n    tag_474:\n        /* \"#utility.yul\":10279:10399   */\n    tag_473:\n        /* \"#utility.yul\":10438:10439   */\n      0x00\n        /* \"#utility.yul\":10463:10516   */\n      tag_475\n        /* \"#utility.yul\":10508:10515   */\n      dup9\n        /* \"#utility.yul\":10499:10505   */\n      dup3\n        /* \"#utility.yul\":10488:10497   */\n      dup10\n        /* \"#utility.yul\":10484:10506   */\n      add\n        /* \"#utility.yul\":10463:10516   */\n      tag_289\n      jump\t// in\n    tag_475:\n        /* \"#utility.yul\":10453:10516   */\n      swap6\n      pop\n        /* \"#utility.yul\":10409:10526   */\n      pop\n        /* \"#utility.yul\":10565:10567   */\n      0x20\n        /* \"#utility.yul\":10591:10644   */\n      tag_476\n        /* \"#utility.yul\":10636:10643   */\n      dup9\n        /* \"#utility.yul\":10627:10633   */\n      dup3\n        /* \"#utility.yul\":10616:10625   */\n      dup10\n        /* \"#utility.yul\":10612:10634   */\n      add\n        /* \"#utility.yul\":10591:10644   */\n      tag_289\n      jump\t// in\n    tag_476:\n        /* \"#utility.yul\":10581:10644   */\n      swap5\n      pop\n        /* \"#utility.yul\":10536:10654   */\n      pop\n        /* \"#utility.yul\":10721:10723   */\n      0x40\n        /* \"#utility.yul\":10710:10719   */\n      dup7\n        /* \"#utility.yul\":10706:10724   */\n      add\n        /* \"#utility.yul\":10693:10725   */\n      calldataload\n        /* \"#utility.yul\":10752:10770   */\n      0xffffffffffffffff\n        /* \"#utility.yul\":10744:10750   */\n      dup2\n        /* \"#utility.yul\":10741:10771   */\n      gt\n        /* \"#utility.yul\":10738:10855   */\n      iszero\n      tag_477\n      jumpi\n        /* \"#utility.yul\":10774:10853   */\n      tag_478\n      tag_285\n      jump\t// in\n    tag_478:\n        /* \"#utility.yul\":10738:10855   */\n    tag_477:\n        /* \"#utility.yul\":10879:10957   */\n      tag_479\n        /* \"#utility.yul\":10949:10956   */\n      dup9\n        /* \"#utility.yul\":10940:10946   */\n      dup3\n        /* \"#utility.yul\":10929:10938   */\n      dup10\n        /* \"#utility.yul\":10925:10947   */\n      add\n        /* \"#utility.yul\":10879:10957   */\n      tag_315\n      jump\t// in\n    tag_479:\n        /* \"#utility.yul\":10869:10957   */\n      swap4\n      pop\n        /* \"#utility.yul\":10664:10967   */\n      pop\n        /* \"#utility.yul\":11034:11036   */\n      0x60\n        /* \"#utility.yul\":11023:11032   */\n      dup7\n        /* \"#utility.yul\":11019:11037   */\n      add\n        /* \"#utility.yul\":11006:11038   */\n      calldataload\n        /* \"#utility.yul\":11065:11083   */\n      0xffffffffffffffff\n        /* \"#utility.yul\":11057:11063   */\n      dup2\n        /* \"#utility.yul\":11054:11084   */\n      gt\n        /* \"#utility.yul\":11051:11168   */\n      iszero\n      tag_480\n      jumpi\n        /* \"#utility.yul\":11087:11166   */\n      tag_481\n      tag_285\n      jump\t// in\n    tag_481:\n        /* \"#utility.yul\":11051:11168   */\n    tag_480:\n        /* \"#utility.yul\":11192:11270   */\n      tag_482\n        /* \"#utility.yul\":11262:11269   */\n      dup9\n        /* \"#utility.yul\":11253:11259   */\n      dup3\n        /* \"#utility.yul\":11242:11251   */\n      dup10\n        /* \"#utility.yul\":11238:11260   */\n      add\n        /* \"#utility.yul\":11192:11270   */\n      tag_315\n      jump\t// in\n    tag_482:\n        /* \"#utility.yul\":11182:11270   */\n      swap3\n      pop\n        /* \"#utility.yul\":10977:11280   */\n      pop\n        /* \"#utility.yul\":11347:11350   */\n      0x80\n        /* \"#utility.yul\":11336:11345   */\n      dup7\n        /* \"#utility.yul\":11332:11351   */\n      add\n        /* \"#utility.yul\":11319:11352   */\n      calldataload\n        /* \"#utility.yul\":11379:11397   */\n      0xffffffffffffffff\n        /* \"#utility.yul\":11371:11377   */\n      dup2\n        /* \"#utility.yul\":11368:11398   */\n      gt\n        /* \"#utility.yul\":11365:11482   */\n      iszero\n      tag_483\n      jumpi\n        /* \"#utility.yul\":11401:11480   */\n      tag_484\n      tag_285\n      jump\t// in\n    tag_484:\n        /* \"#utility.yul\":11365:11482   */\n    tag_483:\n        /* \"#utility.yul\":11506:11568   */\n      tag_485\n        /* \"#utility.yul\":11560:11567   */\n      dup9\n        /* \"#utility.yul\":11551:11557   */\n      dup3\n        /* \"#utility.yul\":11540:11549   */\n      dup10\n        /* \"#utility.yul\":11536:11558   */\n      add\n        /* \"#utility.yul\":11506:11568   */\n      tag_318\n      jump\t// in\n    tag_485:\n        /* \"#utility.yul\":11496:11568   */\n      swap2\n      pop\n        /* \"#utility.yul\":11290:11578   */\n      pop\n        /* \"#utility.yul\":10076:11585   */\n      swap3\n      swap6\n      pop\n      swap3\n      swap6\n      swap1\n      swap4\n      pop\n      jump\t// out\n        /* \"#utility.yul\":11591:11902   */\n    tag_319:\n        /* \"#utility.yul\":11668:11672   */\n      0x00\n        /* \"#utility.yul\":11758:11776   */\n      0xffffffffffffffff\n        /* \"#utility.yul\":11750:11756   */\n      dup3\n        /* \"#utility.yul\":11747:11777   */\n      gt\n        /* \"#utility.yul\":11744:11800   */\n      iszero\n      tag_487\n      jumpi\n        /* \"#utility.yul\":11780:11798   */\n      tag_488\n      tag_118\n      jump\t// in\n    tag_488:\n        /* \"#utility.yul\":11744:11800   */\n    tag_487:\n        /* \"#utility.yul\":11830:11834   */\n      0x20\n        /* \"#utility.yul\":11822:11828   */\n      dup3\n        /* \"#utility.yul\":11818:11835   */\n      mul\n        /* \"#utility.yul\":11810:11835   */\n      swap1\n      pop\n        /* \"#utility.yul\":11890:11894   */\n      0x20\n        /* \"#utility.yul\":11884:11888   */\n      dup2\n        /* \"#utility.yul\":11880:11895   */\n      add\n        /* \"#utility.yul\":11872:11895   */\n      swap1\n      pop\n        /* \"#utility.yul\":11591:11902   */\n      swap2\n      swap1\n      pop\n      jump\t// out\n        /* \"#utility.yul\":11925:12635   */\n    tag_320:\n        /* \"#utility.yul\":12021:12026   */\n      0x00\n        /* \"#utility.yul\":12046:12127   */\n      tag_490\n        /* \"#utility.yul\":12062:12126   */\n      tag_491\n        /* \"#utility.yul\":12119:12125   */\n      dup5\n        /* \"#utility.yul\":12062:12126   */\n      tag_319\n      jump\t// in\n    tag_491:\n        /* \"#utility.yul\":12046:12127   */\n      tag_303\n      jump\t// in\n    tag_490:\n        /* \"#utility.yul\":12037:12127   */\n      swap1\n      pop\n        /* \"#utility.yul\":12147:12152   */\n      dup1\n        /* \"#utility.yul\":12176:12182   */\n      dup4\n        /* \"#utility.yul\":12169:12174   */\n      dup3\n        /* \"#utility.yul\":12162:12183   */\n      mstore\n        /* \"#utility.yul\":12210:12214   */\n      0x20\n        /* \"#utility.yul\":12203:12208   */\n      dup3\n        /* \"#utility.yul\":12199:12215   */\n      add\n        /* \"#utility.yul\":12192:12215   */\n      swap1\n      pop\n        /* \"#utility.yul\":12263:12267   */\n      0x20\n        /* \"#utility.yul\":12255:12261   */\n      dup5\n        /* \"#utility.yul\":12251:12268   */\n      mul\n        /* \"#utility.yul\":12243:12249   */\n      dup4\n        /* \"#utility.yul\":12239:12269   */\n      add\n        /* \"#utility.yul\":12292:12295   */\n      dup6\n        /* \"#utility.yul\":12284:12290   */\n      dup2\n        /* \"#utility.yul\":12281:12296   */\n      gt\n        /* \"#utility.yul\":12278:12400   */\n      iszero\n      tag_492\n      jumpi\n        /* \"#utility.yul\":12311:12390   */\n      tag_493\n      tag_313\n      jump\t// in\n    tag_493:\n        /* \"#utility.yul\":12278:12400   */\n    tag_492:\n        /* \"#utility.yul\":12426:12432   */\n      dup4\n        /* \"#utility.yul\":12409:12629   */\n    tag_494:\n        /* \"#utility.yul\":12443:12449   */\n      dup2\n        /* \"#utility.yul\":12438:12441   */\n      dup2\n        /* \"#utility.yul\":12435:12450   */\n      lt\n        /* \"#utility.yul\":12409:12629   */\n      iszero\n      tag_496\n      jumpi\n        /* \"#utility.yul\":12518:12521   */\n      dup1\n        /* \"#utility.yul\":12547:12584   */\n      tag_497\n        /* \"#utility.yul\":12580:12583   */\n      dup9\n        /* \"#utility.yul\":12568:12578   */\n      dup3\n        /* \"#utility.yul\":12547:12584   */\n      tag_289\n      jump\t// in\n    tag_497:\n        /* \"#utility.yul\":12542:12545   */\n      dup5\n        /* \"#utility.yul\":12535:12585   */\n      mstore\n        /* \"#utility.yul\":12614:12618   */\n      0x20\n        /* \"#utility.yul\":12609:12612   */\n      dup5\n        /* \"#utility.yul\":12605:12619   */\n      add\n        /* \"#utility.yul\":12598:12619   */\n      swap4\n      pop\n        /* \"#utility.yul\":12485:12629   */\n      pop\n        /* \"#utility.yul\":12469:12473   */\n      0x20\n        /* \"#utility.yul\":12464:12467   */\n      dup2\n        /* \"#utility.yul\":12460:12474   */\n      add\n        /* \"#utility.yul\":12453:12474   */\n      swap1\n      pop\n        /* \"#utility.yul\":12409:12629   */\n      jump(tag_494)\n    tag_496:\n        /* \"#utility.yul\":12413:12434   */\n      pop\n        /* \"#utility.yul\":12027:12635   */\n      pop\n      pop\n        /* \"#utility.yul\":11925:12635   */\n      swap4\n      swap3\n      pop\n      pop\n      pop\n      jump\t// out\n        /* \"#utility.yul\":12658:13028   */\n    tag_321:\n        /* \"#utility.yul\":12729:12734   */\n      0x00\n        /* \"#utility.yul\":12778:12781   */\n      dup3\n        /* \"#utility.yul\":12771:12775   */\n      0x1f\n        /* \"#utility.yul\":12763:12769   */\n      dup4\n        /* \"#utility.yul\":12759:12776   */\n      add\n        /* \"#utility.yul\":12755:12782   */\n      slt\n        /* \"#utility.yul\":12745:12867   */\n      tag_499\n      jumpi\n        /* \"#utility.yul\":12786:12865   */\n      tag_500\n      tag_299\n      jump\t// in\n    tag_500:\n        /* \"#utility.yul\":12745:12867   */\n    tag_499:\n        /* \"#utility.yul\":12903:12909   */\n      dup2\n        /* \"#utility.yul\":12890:12910   */\n      calldataload\n        /* \"#utility.yul\":12928:13022   */\n      tag_501\n        /* \"#utility.yul\":13018:13021   */\n      dup5\n        /* \"#utility.yul\":13010:13016   */\n      dup3\n        /* \"#utility.yul\":13003:13007   */\n      0x20\n        /* \"#utility.yul\":12995:13001   */\n      dup7\n        /* \"#utility.yul\":12991:13008   */\n      add\n        /* \"#utility.yul\":12928:13022   */\n      tag_320\n      jump\t// in\n    tag_501:\n        /* \"#utility.yul\":12919:13022   */\n      swap2\n      pop\n        /* \"#utility.yul\":12735:13028   */\n      pop\n        /* \"#utility.yul\":12658:13028   */\n      swap3\n      swap2\n      pop\n      pop\n      jump\t// out\n        /* \"#utility.yul\":13034:13928   */\n    tag_48:\n        /* \"#utility.yul\":13152:13158   */\n      0x00\n        /* \"#utility.yul\":13160:13166   */\n      dup1\n        /* \"#utility.yul\":13209:13211   */\n      0x40\n        /* \"#utility.yul\":13197:13206   */\n      dup4\n        /* \"#utility.yul\":13188:13195   */\n      dup6\n        /* \"#utility.yul\":13184:13207   */\n      sub\n        /* \"#utility.yul\":13180:13212   */\n      slt\n        /* \"#utility.yul\":13177:13296   */\n      iszero\n      tag_503\n      jumpi\n        /* \"#utility.yul\":13215:13294   */\n      tag_504\n      tag_284\n      jump\t// in\n    tag_504:\n        /* \"#utility.yul\":13177:13296   */\n    tag_503:\n        /* \"#utility.yul\":13363:13364   */\n      0x00\n        /* \"#utility.yul\":13352:13361   */\n      dup4\n        /* \"#utility.yul\":13348:13365   */\n      add\n        /* \"#utility.yul\":13335:13366   */\n      calldataload\n        /* \"#utility.yul\":13393:13411   */\n      0xffffffffffffffff\n        /* \"#utility.yul\":13385:13391   */\n      dup2\n        /* \"#utility.yul\":13382:13412   */\n      gt\n        /* \"#utility.yul\":13379:13496   */\n      iszero\n      tag_505\n      jumpi\n        /* \"#utility.yul\":13415:13494   */\n      tag_506\n      tag_285\n      jump\t// in\n    tag_506:\n        /* \"#utility.yul\":13379:13496   */\n    tag_505:\n        /* \"#utility.yul\":13520:13598   */\n      tag_507\n        /* \"#utility.yul\":13590:13597   */\n      dup6\n        /* \"#utility.yul\":13581:13587   */\n      dup3\n        /* \"#utility.yul\":13570:13579   */\n      dup7\n        /* \"#utility.yul\":13566:13588   */\n      add\n        /* \"#utility.yul\":13520:13598   */\n      tag_321\n      jump\t// in\n    tag_507:\n        /* \"#utility.yul\":13510:13598   */\n      swap3\n      pop\n        /* \"#utility.yul\":13306:13608   */\n      pop\n        /* \"#utility.yul\":13675:13677   */\n      0x20\n        /* \"#utility.yul\":13664:13673   */\n      dup4\n        /* \"#utility.yul\":13660:13678   */\n      add\n        /* \"#utility.yul\":13647:13679   */\n      calldataload\n        /* \"#utility.yul\":13706:13724   */\n      0xffffffffffffffff\n        /* \"#utility.yul\":13698:13704   */\n      dup2\n        /* \"#utility.yul\":13695:13725   */\n      gt\n        /* \"#utility.yul\":13692:13809   */\n      iszero\n      tag_508\n      jumpi\n        /* \"#utility.yul\":13728:13807   */\n      tag_509\n      tag_285\n      jump\t// in\n    tag_509:\n        /* \"#utility.yul\":13692:13809   */\n    tag_508:\n        /* \"#utility.yul\":13833:13911   */\n      tag_510\n        /* \"#utility.yul\":13903:13910   */\n      dup6\n        /* \"#utility.yul\":13894:13900   */\n      dup3\n        /* \"#utility.yul\":13883:13892   */\n      dup7\n        /* \"#utility.yul\":13879:13901   */\n      add\n        /* \"#utility.yul\":13833:13911   */\n      tag_315\n      jump\t// in\n    tag_510:\n        /* \"#utility.yul\":13823:13911   */\n      swap2\n      pop\n        /* \"#utility.yul\":13618:13921   */\n      pop\n        /* \"#utility.yul\":13034:13928   */\n      swap3\n      pop\n      swap3\n      swap1\n      pop\n      jump\t// out\n        /* \"#utility.yul\":13934:14048   */\n    tag_322:\n        /* \"#utility.yul\":14001:14007   */\n      0x00\n        /* \"#utility.yul\":14035:14040   */\n      dup2\n        /* \"#utility.yul\":14029:14041   */\n      mload\n        /* \"#utility.yul\":14019:14041   */\n      swap1\n      pop\n        /* \"#utility.yul\":13934:14048   */\n      swap2\n      swap1\n      pop\n      jump\t// out\n        /* \"#utility.yul\":14054:14238   */\n    tag_323:\n        /* \"#utility.yul\":14153:14164   */\n      0x00\n        /* \"#utility.yul\":14187:14193   */\n      dup3\n        /* \"#utility.yul\":14182:14185   */\n      dup3\n        /* \"#utility.yul\":14175:14194   */\n      mstore\n        /* \"#utility.yul\":14227:14231   */\n      0x20\n        /* \"#utility.yul\":14222:14225   */\n      dup3\n        /* \"#utility.yul\":14218:14232   */\n      add\n        /* \"#utility.yul\":14203:14232   */\n      swap1\n      pop\n        /* \"#utility.yul\":14054:14238   */\n      swap3\n      swap2\n      pop\n      pop\n      jump\t// out\n        /* \"#utility.yul\":14244:14376   */\n    tag_324:\n        /* \"#utility.yul\":14311:14315   */\n      0x00\n        /* \"#utility.yul\":14334:14337   */\n      dup2\n        /* \"#utility.yul\":14326:14337   */\n      swap1\n      pop\n        /* \"#utility.yul\":14364:14368   */\n      0x20\n        /* \"#utility.yul\":14359:14362   */\n      dup3\n        /* \"#utility.yul\":14355:14369   */\n      add\n        /* \"#utility.yul\":14347:14369   */\n      swap1\n      pop\n        /* \"#utility.yul\":14244:14376   */\n      swap2\n      swap1\n      pop\n      jump\t// out\n        /* \"#utility.yul\":14382:14490   */\n    tag_325:\n        /* \"#utility.yul\":14459:14483   */\n      tag_515\n        /* \"#utility.yul\":14477:14482   */\n      dup2\n        /* \"#utility.yul\":14459:14483   */\n      tag_290\n      jump\t// in\n    tag_515:\n        /* \"#utility.yul\":14454:14457   */\n      dup3\n        /* \"#utility.yul\":14447:14484   */\n      mstore\n        /* \"#utility.yul\":14382:14490   */\n      pop\n      pop\n      jump\t// out\n        /* \"#utility.yul\":14496:14675   */\n    tag_326:\n        /* \"#utility.yul\":14565:14575   */\n      0x00\n        /* \"#utility.yul\":14586:14632   */\n      tag_517\n        /* \"#utility.yul\":14628:14631   */\n      dup4\n        /* \"#utility.yul\":14620:14626   */\n      dup4\n        /* \"#utility.yul\":14586:14632   */\n      tag_325\n      jump\t// in\n    tag_517:\n        /* \"#utility.yul\":14664:14668   */\n      0x20\n        /* \"#utility.yul\":14659:14662   */\n      dup4\n        /* \"#utility.yul\":14655:14669   */\n      add\n        /* \"#utility.yul\":14641:14669   */\n      swap1\n      pop\n        /* \"#utility.yul\":14496:14675   */\n      swap3\n      swap2\n      pop\n      pop\n      jump\t// out\n        /* \"#utility.yul\":14681:14794   */\n    tag_327:\n        /* \"#utility.yul\":14751:14755   */\n      0x00\n        /* \"#utility.yul\":14783:14787   */\n      0x20\n        /* \"#utility.yul\":14778:14781   */\n      dup3\n        /* \"#utility.yul\":14774:14788   */\n      add\n        /* \"#utility.yul\":14766:14788   */\n      swap1\n      pop\n        /* \"#utility.yul\":14681:14794   */\n      swap2\n      swap1\n      pop\n      jump\t// out\n        /* \"#utility.yul\":14830:15562   */\n    tag_328:\n        /* \"#utility.yul\":14949:14952   */\n      0x00\n        /* \"#utility.yul\":14978:15032   */\n      tag_520\n        /* \"#utility.yul\":15026:15031   */\n      dup3\n        /* \"#utility.yul\":14978:15032   */\n      tag_322\n      jump\t// in\n    tag_520:\n        /* \"#utility.yul\":15048:15134   */\n      tag_521\n        /* \"#utility.yul\":15127:15133   */\n      dup2\n        /* \"#utility.yul\":15122:15125   */\n      dup6\n        /* \"#utility.yul\":15048:15134   */\n      tag_323\n      jump\t// in\n    tag_521:\n        /* \"#utility.yul\":15041:15134   */\n      swap4\n      pop\n        /* \"#utility.yul\":15158:15214   */\n      tag_522\n        /* \"#utility.yul\":15208:15213   */\n      dup4\n        /* \"#utility.yul\":15158:15214   */\n      tag_324\n      jump\t// in\n    tag_522:\n        /* \"#utility.yul\":15237:15244   */\n      dup1\n        /* \"#utility.yul\":15268:15269   */\n      0x00\n        /* \"#utility.yul\":15253:15537   */\n    tag_523:\n        /* \"#utility.yul\":15278:15284   */\n      dup4\n        /* \"#utility.yul\":15275:15276   */\n      dup2\n        /* \"#utility.yul\":15272:15285   */\n      lt\n        /* \"#utility.yul\":15253:15537   */\n      iszero\n      tag_525\n      jumpi\n        /* \"#utility.yul\":15354:15360   */\n      dup2\n        /* \"#utility.yul\":15348:15361   */\n      mload\n        /* \"#utility.yul\":15381:15444   */\n      tag_526\n        /* \"#utility.yul\":15440:15443   */\n      dup9\n        /* \"#utility.yul\":15425:15438   */\n      dup3\n        /* \"#utility.yul\":15381:15444   */\n      tag_326\n      jump\t// in\n    tag_526:\n        /* \"#utility.yul\":15374:15444   */\n      swap8\n      pop\n        /* \"#utility.yul\":15467:15527   */\n      tag_527\n        /* \"#utility.yul\":15520:15526   */\n      dup4\n        /* \"#utility.yul\":15467:15527   */\n      tag_327\n      jump\t// in\n    tag_527:\n        /* \"#utility.yul\":15457:15527   */\n      swap3\n      pop\n        /* \"#utility.yul\":15313:15537   */\n      pop\n        /* \"#utility.yul\":15300:15301   */\n      0x01\n        /* \"#utility.yul\":15297:15298   */\n      dup2\n        /* \"#utility.yul\":15293:15302   */\n      add\n        /* \"#utility.yul\":15288:15302   */\n      swap1\n      pop\n        /* \"#utility.yul\":15253:15537   */\n      jump(tag_523)\n    tag_525:\n        /* \"#utility.yul\":15257:15271   */\n      pop\n        /* \"#utility.yul\":15553:15556   */\n      dup6\n        /* \"#utility.yul\":15546:15556   */\n      swap4\n      pop\n        /* \"#utility.yul\":14954:15562   */\n      pop\n      pop\n      pop\n        /* \"#utility.yul\":14830:15562   */\n      swap3\n      swap2\n      pop\n      pop\n      jump\t// out\n        /* \"#utility.yul\":15568:15941   */\n    tag_51:\n        /* \"#utility.yul\":15711:15715   */\n      0x00\n        /* \"#utility.yul\":15749:15751   */\n      0x20\n        /* \"#utility.yul\":15738:15747   */\n      dup3\n        /* \"#utility.yul\":15734:15752   */\n      add\n        /* \"#utility.yul\":15726:15752   */\n      swap1\n      pop\n        /* \"#utility.yul\":15798:15807   */\n      dup2\n        /* \"#utility.yul\":15792:15796   */\n      dup2\n        /* \"#utility.yul\":15788:15808   */\n      sub\n        /* \"#utility.yul\":15784:15785   */\n      0x00\n        /* \"#utility.yul\":15773:15782   */\n      dup4\n        /* \"#utility.yul\":15769:15786   */\n      add\n        /* \"#utility.yul\":15762:15809   */\n      mstore\n        /* \"#utility.yul\":15826:15934   */\n      tag_529\n        /* \"#utility.yul\":15929:15933   */\n      dup2\n        /* \"#utility.yul\":15920:15926   */\n      dup5\n        /* \"#utility.yul\":15826:15934   */\n      tag_328\n      jump\t// in\n    tag_529:\n        /* \"#utility.yul\":15818:15934   */\n      swap1\n      pop\n        /* \"#utility.yul\":15568:15941   */\n      swap3\n      swap2\n      pop\n      pop\n      jump\t// out\n        /* \"#utility.yul\":15947:16890   */\n    tag_56:\n        /* \"#utility.yul\":16042:16048   */\n      0x00\n        /* \"#utility.yul\":16050:16056   */\n      dup1\n        /* \"#utility.yul\":16058:16064   */\n      0x00\n        /* \"#utility.yul\":16066:16072   */\n      dup1\n        /* \"#utility.yul\":16115:16118   */\n      0x80\n        /* \"#utility.yul\":16103:16112   */\n      dup6\n        /* \"#utility.yul\":16094:16101   */\n      dup8\n        /* \"#utility.yul\":16090:16113   */\n      sub\n        /* \"#utility.yul\":16086:16119   */\n      slt\n        /* \"#utility.yul\":16083:16203   */\n      iszero\n      tag_531\n      jumpi\n        /* \"#utility.yul\":16122:16201   */\n      tag_532\n      tag_284\n      jump\t// in\n    tag_532:\n        /* \"#utility.yul\":16083:16203   */\n    tag_531:\n        /* \"#utility.yul\":16242:16243   */\n      0x00\n        /* \"#utility.yul\":16267:16320   */\n      tag_533\n        /* \"#utility.yul\":16312:16319   */\n      dup8\n        /* \"#utility.yul\":16303:16309   */\n      dup3\n        /* \"#utility.yul\":16292:16301   */\n      dup9\n        /* \"#utility.yul\":16288:16310   */\n      add\n        /* \"#utility.yul\":16267:16320   */\n      tag_289\n      jump\t// in\n    tag_533:\n        /* \"#utility.yul\":16257:16320   */\n      swap5\n      pop\n        /* \"#utility.yul\":16213:16330   */\n      pop\n        /* \"#utility.yul\":16369:16371   */\n      0x20\n        /* \"#utility.yul\":16395:16448   */\n      tag_534\n        /* \"#utility.yul\":16440:16447   */\n      dup8\n        /* \"#utility.yul\":16431:16437   */\n      dup3\n        /* \"#utility.yul\":16420:16429   */\n      dup9\n        /* \"#utility.yul\":16416:16438   */\n      add\n        /* \"#utility.yul\":16395:16448   */\n      tag_292\n      jump\t// in\n    tag_534:\n        /* \"#utility.yul\":16385:16448   */\n      swap4\n      pop\n        /* \"#utility.yul\":16340:16458   */\n      pop\n        /* \"#utility.yul\":16497:16499   */\n      0x40\n        /* \"#utility.yul\":16523:16576   */\n      tag_535\n        /* \"#utility.yul\":16568:16575   */\n      dup8\n        /* \"#utility.yul\":16559:16565   */\n      dup3\n        /* \"#utility.yul\":16548:16557   */\n      dup9\n        /* \"#utility.yul\":16544:16566   */\n      add\n        /* \"#utility.yul\":16523:16576   */\n      tag_292\n      jump\t// in\n    tag_535:\n        /* \"#utility.yul\":16513:16576   */\n      swap3\n      pop\n        /* \"#utility.yul\":16468:16586   */\n      pop\n        /* \"#utility.yul\":16653:16655   */\n      0x60\n        /* \"#utility.yul\":16642:16651   */\n      dup6\n        /* \"#utility.yul\":16638:16656   */\n      add\n        /* \"#utility.yul\":16625:16657   */\n      calldataload\n        /* \"#utility.yul\":16684:16702   */\n      0xffffffffffffffff\n        /* \"#utility.yul\":16676:16682   */\n      dup2\n        /* \"#utility.yul\":16673:16703   */\n      gt\n        /* \"#utility.yul\":16670:16787   */\n      iszero\n      tag_536\n      jumpi\n        /* \"#utility.yul\":16706:16785   */\n      tag_537\n      tag_285\n      jump\t// in\n    tag_537:\n        /* \"#utility.yul\":16670:16787   */\n    tag_536:\n        /* \"#utility.yul\":16811:16873   */\n      tag_538\n        /* \"#utility.yul\":16865:16872   */\n      dup8\n        /* \"#utility.yul\":16856:16862   */\n      dup3\n        /* \"#utility.yul\":16845:16854   */\n      dup9\n        /* \"#utility.yul\":16841:16863   */\n      add\n        /* \"#utility.yul\":16811:16873   */\n      tag_318\n      jump\t// in\n    tag_538:\n        /* \"#utility.yul\":16801:16873   */\n      swap2\n      pop\n        /* \"#utility.yul\":16596:16883   */\n      pop\n        /* \"#utility.yul\":15947:16890   */\n      swap3\n      swap6\n      swap2\n      swap5\n      pop\n      swap3\n      pop\n      jump\t// out\n        /* \"#utility.yul\":16896:17014   */\n    tag_329:\n        /* \"#utility.yul\":16983:17007   */\n      tag_540\n        /* \"#utility.yul\":17001:17006   */\n      dup2\n        /* \"#utility.yul\":16983:17007   */\n      tag_287\n      jump\t// in\n    tag_540:\n        /* \"#utility.yul\":16978:16981   */\n      dup3\n        /* \"#utility.yul\":16971:17008   */\n      mstore\n        /* \"#utility.yul\":16896:17014   */\n      pop\n      pop\n      jump\t// out\n        /* \"#utility.yul\":17020:17242   */\n    tag_61:\n        /* \"#utility.yul\":17113:17117   */\n      0x00\n        /* \"#utility.yul\":17151:17153   */\n      0x20\n        /* \"#utility.yul\":17140:17149   */\n      dup3\n        /* \"#utility.yul\":17136:17154   */\n      add\n        /* \"#utility.yul\":17128:17154   */\n      swap1\n      pop\n        /* \"#utility.yul\":17164:17235   */\n      tag_542\n        /* \"#utility.yul\":17232:17233   */\n      0x00\n        /* \"#utility.yul\":17221:17230   */\n      dup4\n        /* \"#utility.yul\":17217:17234   */\n      add\n        /* \"#utility.yul\":17208:17214   */\n      dup5\n        /* \"#utility.yul\":17164:17235   */\n      tag_329\n      jump\t// in\n    tag_542:\n        /* \"#utility.yul\":17020:17242   */\n      swap3\n      swap2\n      pop\n      pop\n      jump\t// out\n        /* \"#utility.yul\":17248:17364   */\n    tag_330:\n        /* \"#utility.yul\":17318:17339   */\n      tag_544\n        /* \"#utility.yul\":17333:17338   */\n      dup2\n        /* \"#utility.yul\":17318:17339   */\n      tag_297\n      jump\t// in\n    tag_544:\n        /* \"#utility.yul\":17311:17316   */\n      dup2\n        /* \"#utility.yul\":17308:17340   */\n      eq\n        /* \"#utility.yul\":17298:17358   */\n      tag_545\n      jumpi\n        /* \"#utility.yul\":17354:17355   */\n      0x00\n        /* \"#utility.yul\":17351:17352   */\n      dup1\n        /* \"#utility.yul\":17344:17356   */\n      revert\n        /* \"#utility.yul\":17298:17358   */\n    tag_545:\n        /* \"#utility.yul\":17248:17364   */\n      pop\n      jump\t// out\n        /* \"#utility.yul\":17370:17503   */\n    tag_331:\n        /* \"#utility.yul\":17413:17418   */\n      0x00\n        /* \"#utility.yul\":17451:17457   */\n      dup2\n        /* \"#utility.yul\":17438:17458   */\n      calldataload\n        /* \"#utility.yul\":17429:17458   */\n      swap1\n      pop\n        /* \"#utility.yul\":17467:17497   */\n      tag_547\n        /* \"#utility.yul\":17491:17496   */\n      dup2\n        /* \"#utility.yul\":17467:17497   */\n      tag_330\n      jump\t// in\n    tag_547:\n        /* \"#utility.yul\":17370:17503   */\n      swap3\n      swap2\n      pop\n      pop\n      jump\t// out\n        /* \"#utility.yul\":17509:17977   */\n    tag_64:\n        /* \"#utility.yul\":17574:17580   */\n      0x00\n        /* \"#utility.yul\":17582:17588   */\n      dup1\n        /* \"#utility.yul\":17631:17633   */\n      0x40\n        /* \"#utility.yul\":17619:17628   */\n      dup4\n        /* \"#utility.yul\":17610:17617   */\n      dup6\n        /* \"#utility.yul\":17606:17629   */\n      sub\n        /* \"#utility.yul\":17602:17634   */\n      slt\n        /* \"#utility.yul\":17599:17718   */\n      iszero\n      tag_549\n      jumpi\n        /* \"#utility.yul\":17637:17716   */\n      tag_550\n      tag_284\n      jump\t// in\n    tag_550:\n        /* \"#utility.yul\":17599:17718   */\n    tag_549:\n        /* \"#utility.yul\":17757:17758   */\n      0x00\n        /* \"#utility.yul\":17782:17835   */\n      tag_551\n        /* \"#utility.yul\":17827:17834   */\n      dup6\n        /* \"#utility.yul\":17818:17824   */\n      dup3\n        /* \"#utility.yul\":17807:17816   */\n      dup7\n        /* \"#utility.yul\":17803:17825   */\n      add\n        /* \"#utility.yul\":17782:17835   */\n      tag_289\n      jump\t// in\n    tag_551:\n        /* \"#utility.yul\":17772:17835   */\n      swap3\n      pop\n        /* \"#utility.yul\":17728:17845   */\n      pop\n        /* \"#utility.yul\":17884:17886   */\n      0x20\n        /* \"#utility.yul\":17910:17960   */\n      tag_552\n        /* \"#utility.yul\":17952:17959   */\n      dup6\n        /* \"#utility.yul\":17943:17949   */\n      dup3\n        /* \"#utility.yul\":17932:17941   */\n      dup7\n        /* \"#utility.yul\":17928:17950   */\n      add\n        /* \"#utility.yul\":17910:17960   */\n      tag_331\n      jump\t// in\n    tag_552:\n        /* \"#utility.yul\":17900:17960   */\n      swap2\n      pop\n        /* \"#utility.yul\":17855:17970   */\n      pop\n        /* \"#utility.yul\":17509:17977   */\n      swap3\n      pop\n      swap3\n      swap1\n      pop\n      jump\t// out\n        /* \"#utility.yul\":17983:18457   */\n    tag_68:\n        /* \"#utility.yul\":18051:18057   */\n      0x00\n        /* \"#utility.yul\":18059:18065   */\n      dup1\n        /* \"#utility.yul\":18108:18110   */\n      0x40\n        /* \"#utility.yul\":18096:18105   */\n      dup4\n        /* \"#utility.yul\":18087:18094   */\n      dup6\n        /* \"#utility.yul\":18083:18106   */\n      sub\n        /* \"#utility.yul\":18079:18111   */\n      slt\n        /* \"#utility.yul\":18076:18195   */\n      iszero\n      tag_554\n      jumpi\n        /* \"#utility.yul\":18114:18193   */\n      tag_555\n      tag_284\n      jump\t// in\n    tag_555:\n        /* \"#utility.yul\":18076:18195   */\n    tag_554:\n        /* \"#utility.yul\":18234:18235   */\n      0x00\n        /* \"#utility.yul\":18259:18312   */\n      tag_556\n        /* \"#utility.yul\":18304:18311   */\n      dup6\n        /* \"#utility.yul\":18295:18301   */\n      dup3\n        /* \"#utility.yul\":18284:18293   */\n      dup7\n        /* \"#utility.yul\":18280:18302   */\n      add\n        /* \"#utility.yul\":18259:18312   */\n      tag_289\n      jump\t// in\n    tag_556:\n        /* \"#utility.yul\":18249:18312   */\n      swap3\n      pop\n        /* \"#utility.yul\":18205:18322   */\n      pop\n        /* \"#utility.yul\":18361:18363   */\n      0x20\n        /* \"#utility.yul\":18387:18440   */\n      tag_557\n        /* \"#utility.yul\":18432:18439   */\n      dup6\n        /* \"#utility.yul\":18423:18429   */\n      dup3\n        /* \"#utility.yul\":18412:18421   */\n      dup7\n        /* \"#utility.yul\":18408:18430   */\n      add\n        /* \"#utility.yul\":18387:18440   */\n      tag_289\n      jump\t// in\n    tag_557:\n        /* \"#utility.yul\":18377:18440   */\n      swap2\n      pop\n        /* \"#utility.yul\":18332:18450   */\n      pop\n        /* \"#utility.yul\":17983:18457   */\n      swap3\n      pop\n      swap3\n      swap1\n      pop\n      jump\t// out\n        /* \"#utility.yul\":18463:19552   */\n    tag_73:\n        /* \"#utility.yul\":18567:18573   */\n      0x00\n        /* \"#utility.yul\":18575:18581   */\n      dup1\n        /* \"#utility.yul\":18583:18589   */\n      0x00\n        /* \"#utility.yul\":18591:18597   */\n      dup1\n        /* \"#utility.yul\":18599:18605   */\n      0x00\n        /* \"#utility.yul\":18648:18651   */\n      0xa0\n        /* \"#utility.yul\":18636:18645   */\n      dup7\n        /* \"#utility.yul\":18627:18634   */\n      dup9\n        /* \"#utility.yul\":18623:18646   */\n      sub\n        /* \"#utility.yul\":18619:18652   */\n      slt\n        /* \"#utility.yul\":18616:18736   */\n      iszero\n      tag_559\n      jumpi\n        /* \"#utility.yul\":18655:18734   */\n      tag_560\n      tag_284\n      jump\t// in\n    tag_560:\n        /* \"#utility.yul\":18616:18736   */\n    tag_559:\n        /* \"#utility.yul\":18775:18776   */\n      0x00\n        /* \"#utility.yul\":18800:18853   */\n      tag_561\n        /* \"#utility.yul\":18845:18852   */\n      dup9\n        /* \"#utility.yul\":18836:18842   */\n      dup3\n        /* \"#utility.yul\":18825:18834   */\n      dup10\n        /* \"#utility.yul\":18821:18843   */\n      add\n        /* \"#utility.yul\":18800:18853   */\n      tag_289\n      jump\t// in\n    tag_561:\n        /* \"#utility.yul\":18790:18853   */\n      swap6\n      pop\n        /* \"#utility.yul\":18746:18863   */\n      pop\n        /* \"#utility.yul\":18902:18904   */\n      0x20\n        /* \"#utility.yul\":18928:18981   */\n      tag_562\n        /* \"#utility.yul\":18973:18980   */\n      dup9\n        /* \"#utility.yul\":18964:18970   */\n      dup3\n        /* \"#utility.yul\":18953:18962   */\n      dup10\n        /* \"#utility.yul\":18949:18971   */\n      add\n        /* \"#utility.yul\":18928:18981   */\n      tag_289\n      jump\t// in\n    tag_562:\n        /* \"#utility.yul\":18918:18981   */\n      swap5\n      pop\n        /* \"#utility.yul\":18873:18991   */\n      pop\n        /* \"#utility.yul\":19030:19032   */\n      0x40\n        /* \"#utility.yul\":19056:19109   */\n      tag_563\n        /* \"#utility.yul\":19101:19108   */\n      dup9\n        /* \"#utility.yul\":19092:19098   */\n      dup3\n        /* \"#utility.yul\":19081:19090   */\n      dup10\n        /* \"#utility.yul\":19077:19099   */\n      add\n        /* \"#utility.yul\":19056:19109   */\n      tag_292\n      jump\t// in\n    tag_563:\n        /* \"#utility.yul\":19046:19109   */\n      swap4\n      pop\n        /* \"#utility.yul\":19001:19119   */\n      pop\n        /* \"#utility.yul\":19158:19160   */\n      0x60\n        /* \"#utility.yul\":19184:19237   */\n      tag_564\n        /* \"#utility.yul\":19229:19236   */\n      dup9\n        /* \"#utility.yul\":19220:19226   */\n      dup3\n        /* \"#utility.yul\":19209:19218   */\n      dup10\n        /* \"#utility.yul\":19205:19227   */\n      add\n        /* \"#utility.yul\":19184:19237   */\n      tag_292\n      jump\t// in\n    tag_564:\n        /* \"#utility.yul\":19174:19237   */\n      swap3\n      pop\n        /* \"#utility.yul\":19129:19247   */\n      pop\n        /* \"#utility.yul\":19314:19317   */\n      0x80\n        /* \"#utility.yul\":19303:19312   */\n      dup7\n        /* \"#utility.yul\":19299:19318   */\n      add\n        /* \"#utility.yul\":19286:19319   */\n      calldataload\n        /* \"#utility.yul\":19346:19364   */\n      0xffffffffffffffff\n        /* \"#utility.yul\":19338:19344   */\n      dup2\n        /* \"#utility.yul\":19335:19365   */\n      gt\n        /* \"#utility.yul\":19332:19449   */\n      iszero\n      tag_565\n      jumpi\n        /* \"#utility.yul\":19368:19447   */\n      tag_566\n      tag_285\n      jump\t// in\n    tag_566:\n        /* \"#utility.yul\":19332:19449   */\n    tag_565:\n        /* \"#utility.yul\":19473:19535   */\n      tag_567\n        /* \"#utility.yul\":19527:19534   */\n      dup9\n        /* \"#utility.yul\":19518:19524   */\n      dup3\n        /* \"#utility.yul\":19507:19516   */\n      dup10\n        /* \"#utility.yul\":19503:19525   */\n      add\n        /* \"#utility.yul\":19473:19535   */\n      tag_318\n      jump\t// in\n    tag_567:\n        /* \"#utility.yul\":19463:19535   */\n      swap2\n      pop\n        /* \"#utility.yul\":19257:19545   */\n      pop\n        /* \"#utility.yul\":18463:19552   */\n      swap3\n      swap6\n      pop\n      swap3\n      swap6\n      swap1\n      swap4\n      pop\n      jump\t// out\n        /* \"#utility.yul\":19558:19887   */\n    tag_77:\n        /* \"#utility.yul\":19617:19623   */\n      0x00\n        /* \"#utility.yul\":19666:19668   */\n      0x20\n        /* \"#utility.yul\":19654:19663   */\n      dup3\n        /* \"#utility.yul\":19645:19652   */\n      dup5\n        /* \"#utility.yul\":19641:19664   */\n      sub\n        /* \"#utility.yul\":19637:19669   */\n      slt\n        /* \"#utility.yul\":19634:19753   */\n      iszero\n      tag_569\n      jumpi\n        /* \"#utility.yul\":19672:19751   */\n      tag_570\n      tag_284\n      jump\t// in\n    tag_570:\n        /* \"#utility.yul\":19634:19753   */\n    tag_569:\n        /* \"#utility.yul\":19792:19793   */\n      0x00\n        /* \"#utility.yul\":19817:19870   */\n      tag_571\n        /* \"#utility.yul\":19862:19869   */\n      dup5\n        /* \"#utility.yul\":19853:19859   */\n      dup3\n        /* \"#utility.yul\":19842:19851   */\n      dup6\n        /* \"#utility.yul\":19838:19860   */\n      add\n        /* \"#utility.yul\":19817:19870   */\n      tag_289\n      jump\t// in\n    tag_571:\n        /* \"#utility.yul\":19807:19870   */\n      swap2\n      pop\n        /* \"#utility.yul\":19763:19880   */\n      pop\n        /* \"#utility.yul\":19558:19887   */\n      swap3\n      swap2\n      pop\n      pop\n      jump\t// out\n        /* \"#utility.yul\":19893:20512   */\n    tag_81:\n        /* \"#utility.yul\":19970:19976   */\n      0x00\n        /* \"#utility.yul\":19978:19984   */\n      dup1\n        /* \"#utility.yul\":19986:19992   */\n      0x00\n        /* \"#utility.yul\":20035:20037   */\n      0x60\n        /* \"#utility.yul\":20023:20032   */\n      dup5\n        /* \"#utility.yul\":20014:20021   */\n      dup7\n        /* \"#utility.yul\":20010:20033   */\n      sub\n        /* \"#utility.yul\":20006:20038   */\n      slt\n        /* \"#utility.yul\":20003:20122   */\n      iszero\n      tag_573\n      jumpi\n        /* \"#utility.yul\":20041:20120   */\n      tag_574\n      tag_284\n      jump\t// in\n    tag_574:\n        /* \"#utility.yul\":20003:20122   */\n    tag_573:\n        /* \"#utility.yul\":20161:20162   */\n      0x00\n        /* \"#utility.yul\":20186:20239   */\n      tag_575\n        /* \"#utility.yul\":20231:20238   */\n      dup7\n        /* \"#utility.yul\":20222:20228   */\n      dup3\n        /* \"#utility.yul\":20211:20220   */\n      dup8\n        /* \"#utility.yul\":20207:20229   */\n      add\n        /* \"#utility.yul\":20186:20239   */\n      tag_289\n      jump\t// in\n    tag_575:\n        /* \"#utility.yul\":20176:20239   */\n      swap4\n      pop\n        /* \"#utility.yul\":20132:20249   */\n      pop\n        /* \"#utility.yul\":20288:20290   */\n      0x20\n        /* \"#utility.yul\":20314:20367   */\n      tag_576\n        /* \"#utility.yul\":20359:20366   */\n      dup7\n        /* \"#utility.yul\":20350:20356   */\n      dup3\n        /* \"#utility.yul\":20339:20348   */\n      dup8\n        /* \"#utility.yul\":20335:20357   */\n      add\n        /* \"#utility.yul\":20314:20367   */\n      tag_292\n      jump\t// in\n    tag_576:\n        /* \"#utility.yul\":20304:20367   */\n      swap3\n      pop\n        /* \"#utility.yul\":20259:20377   */\n      pop\n        /* \"#utility.yul\":20416:20418   */\n      0x40\n        /* \"#utility.yul\":20442:20495   */\n      tag_577\n        /* \"#utility.yul\":20487:20494   */\n      dup7\n        /* \"#utility.yul\":20478:20484   */\n      dup3\n        /* \"#utility.yul\":20467:20476   */\n      dup8\n        /* \"#utility.yul\":20463:20485   */\n      add\n        /* \"#utility.yul\":20442:20495   */\n      tag_292\n      jump\t// in\n    tag_577:\n        /* \"#utility.yul\":20432:20495   */\n      swap2\n      pop\n        /* \"#utility.yul\":20387:20505   */\n      pop\n        /* \"#utility.yul\":19893:20512   */\n      swap3\n      pop\n      swap3\n      pop\n      swap3\n      jump\t// out\n        /* \"#utility.yul\":20518:20698   */\n    tag_332:\n        /* \"#utility.yul\":20566:20643   */\n      0x4e487b7100000000000000000000000000000000000000000000000000000000\n        /* \"#utility.yul\":20563:20564   */\n      0x00\n        /* \"#utility.yul\":20556:20644   */\n      mstore\n        /* \"#utility.yul\":20663:20667   */\n      0x22\n        /* \"#utility.yul\":20660:20661   */\n      0x04\n        /* \"#utility.yul\":20653:20668   */\n      mstore\n        /* \"#utility.yul\":20687:20691   */\n      0x24\n        /* \"#utility.yul\":20684:20685   */\n      0x00\n        /* \"#utility.yul\":20677:20692   */\n      revert\n        /* \"#utility.yul\":20704:21024   */\n    tag_97:\n        /* \"#utility.yul\":20748:20754   */\n      0x00\n        /* \"#utility.yul\":20785:20786   */\n      0x02\n        /* \"#utility.yul\":20779:20783   */\n      dup3\n        /* \"#utility.yul\":20775:20787   */\n      div\n        /* \"#utility.yul\":20765:20787   */\n      swap1\n      pop\n        /* \"#utility.yul\":20832:20833   */\n      0x01\n        /* \"#utility.yul\":20826:20830   */\n      dup3\n        /* \"#utility.yul\":20822:20834   */\n      and\n        /* \"#utility.yul\":20853:20871   */\n      dup1\n        /* \"#utility.yul\":20843:20924   */\n      tag_580\n      jumpi\n        /* \"#utility.yul\":20909:20913   */\n      0x7f\n        /* \"#utility.yul\":20901:20907   */\n      dup3\n        /* \"#utility.yul\":20897:20914   */\n      and\n        /* \"#utility.yul\":20887:20914   */\n      swap2\n      pop\n        /* \"#utility.yul\":20843:20924   */\n    tag_580:\n        /* \"#utility.yul\":20971:20973   */\n      0x20\n        /* \"#utility.yul\":20963:20969   */\n      dup3\n        /* \"#utility.yul\":20960:20974   */\n      lt\n        /* \"#utility.yul\":20940:20958   */\n      dup2\n        /* \"#utility.yul\":20937:20975   */\n      sub\n        /* \"#utility.yul\":20934:21018   */\n      tag_581\n      jumpi\n        /* \"#utility.yul\":20990:21008   */\n      tag_582\n      tag_332\n      jump\t// in\n    tag_582:\n        /* \"#utility.yul\":20934:21018   */\n    tag_581:\n        /* \"#utility.yul\":20755:21024   */\n      pop\n        /* \"#utility.yul\":20704:21024   */\n      swap2\n      swap1\n      pop\n      jump\t// out\n        /* \"#utility.yul\":21030:21362   */\n    tag_109:\n        /* \"#utility.yul\":21151:21155   */\n      0x00\n        /* \"#utility.yul\":21189:21191   */\n      0x40\n        /* \"#utility.yul\":21178:21187   */\n      dup3\n        /* \"#utility.yul\":21174:21192   */\n      add\n        /* \"#utility.yul\":21166:21192   */\n      swap1\n      pop\n        /* \"#utility.yul\":21202:21273   */\n      tag_584\n        /* \"#utility.yul\":21270:21271   */\n      0x00\n        /* \"#utility.yul\":21259:21268   */\n      dup4\n        /* \"#utility.yul\":21255:21272   */\n      add\n        /* \"#utility.yul\":21246:21252   */\n      dup6\n        /* \"#utility.yul\":21202:21273   */\n      tag_329\n      jump\t// in\n    tag_584:\n        /* \"#utility.yul\":21283:21355   */\n      tag_585\n        /* \"#utility.yul\":21351:21353   */\n      0x20\n        /* \"#utility.yul\":21340:21349   */\n      dup4\n        /* \"#utility.yul\":21336:21354   */\n      add\n        /* \"#utility.yul\":21327:21333   */\n      dup5\n        /* \"#utility.yul\":21283:21355   */\n      tag_329\n      jump\t// in\n    tag_585:\n        /* \"#utility.yul\":21030:21362   */\n      swap4\n      swap3\n      pop\n      pop\n      pop\n      jump\t// out\n        /* \"#utility.yul\":21368:21700   */\n    tag_115:\n        /* \"#utility.yul\":21489:21493   */\n      0x00\n        /* \"#utility.yul\":21527:21529   */\n      0x40\n        /* \"#utility.yul\":21516:21525   */\n      dup3\n        /* \"#utility.yul\":21512:21530   */\n      add\n        /* \"#utility.yul\":21504:21530   */\n      swap1\n      pop\n        /* \"#utility.yul\":21540:21611   */\n      tag_587\n        /* \"#utility.yul\":21608:21609   */\n      0x00\n        /* \"#utility.yul\":21597:21606   */\n      dup4\n        /* \"#utility.yul\":21593:21610   */\n      add\n        /* \"#utility.yul\":21584:21590   */\n      dup6\n        /* \"#utility.yul\":21540:21611   */\n      tag_293\n      jump\t// in\n    tag_587:\n        /* \"#utility.yul\":21621:21693   */\n      tag_588\n        /* \"#utility.yul\":21689:21691   */\n      0x20\n        /* \"#utility.yul\":21678:21687   */\n      dup4\n        /* \"#utility.yul\":21674:21692   */\n      add\n        /* \"#utility.yul\":21665:21671   */\n      dup5\n        /* \"#utility.yul\":21621:21693   */\n      tag_293\n      jump\t// in\n    tag_588:\n        /* \"#utility.yul\":21368:21700   */\n      swap4\n      swap3\n      pop\n      pop\n      pop\n      jump\t// out\n        /* \"#utility.yul\":21706:21886   */\n    tag_130:\n        /* \"#utility.yul\":21754:21831   */\n      0x4e487b7100000000000000000000000000000000000000000000000000000000\n        /* \"#utility.yul\":21751:21752   */\n      0x00\n        /* \"#utility.yul\":21744:21832   */\n      mstore\n        /* \"#utility.yul\":21851:21855   */\n      0x32\n        /* \"#utility.yul\":21848:21849   */\n      0x04\n        /* \"#utility.yul\":21841:21856   */\n      mstore\n        /* \"#utility.yul\":21875:21879   */\n      0x24\n        /* \"#utility.yul\":21872:21873   */\n      0x00\n        /* \"#utility.yul\":21865:21880   */\n      revert\n        /* \"#utility.yul\":21892:22033   */\n    tag_333:\n        /* \"#utility.yul\":21941:21945   */\n      0x00\n        /* \"#utility.yul\":21964:21967   */\n      dup2\n        /* \"#utility.yul\":21956:21967   */\n      swap1\n      pop\n        /* \"#utility.yul\":21987:21990   */\n      dup2\n        /* \"#utility.yul\":21984:21985   */\n      0x00\n        /* \"#utility.yul\":21977:21991   */\n      mstore\n        /* \"#utility.yul\":22021:22025   */\n      0x20\n        /* \"#utility.yul\":22018:22019   */\n      0x00\n        /* \"#utility.yul\":22008:22026   */\n      keccak256\n        /* \"#utility.yul\":22000:22026   */\n      swap1\n      pop\n        /* \"#utility.yul\":21892:22033   */\n      swap2\n      swap1\n      pop\n      jump\t// out\n        /* \"#utility.yul\":22039:22132   */\n    tag_334:\n        /* \"#utility.yul\":22076:22082   */\n      0x00\n        /* \"#utility.yul\":22123:22125   */\n      0x20\n        /* \"#utility.yul\":22118:22120   */\n      0x1f\n        /* \"#utility.yul\":22111:22116   */\n      dup4\n        /* \"#utility.yul\":22107:22121   */\n      add\n        /* \"#utility.yul\":22103:22126   */\n      div\n        /* \"#utility.yul\":22093:22126   */\n      swap1\n      pop\n        /* \"#utility.yul\":22039:22132   */\n      swap2\n      swap1\n      pop\n      jump\t// out\n        /* \"#utility.yul\":22138:22245   */\n    tag_335:\n        /* \"#utility.yul\":22182:22190   */\n      0x00\n        /* \"#utility.yul\":22232:22237   */\n      dup3\n        /* \"#utility.yul\":22226:22230   */\n      dup3\n        /* \"#utility.yul\":22222:22238   */\n      shl\n        /* \"#utility.yul\":22201:22238   */\n      swap1\n      pop\n        /* \"#utility.yul\":22138:22245   */\n      swap3\n      swap2\n      pop\n      pop\n      jump\t// out\n        /* \"#utility.yul\":22251:22644   */\n    tag_336:\n        /* \"#utility.yul\":22320:22326   */\n      0x00\n        /* \"#utility.yul\":22370:22371   */\n      0x08\n        /* \"#utility.yul\":22358:22368   */\n      dup4\n        /* \"#utility.yul\":22354:22372   */\n      mul\n        /* \"#utility.yul\":22393:22490   */\n      tag_594\n        /* \"#utility.yul\":22423:22489   */\n      0xffffffffffffffffffffffffffffffffffffffffffffffffffffffffffffffff\n        /* \"#utility.yul\":22412:22421   */\n      dup3\n        /* \"#utility.yul\":22393:22490   */\n      tag_335\n      jump\t// in\n    tag_594:\n        /* \"#utility.yul\":22511:22550   */\n      tag_595\n        /* \"#utility.yul\":22541:22549   */\n      dup7\n        /* \"#utility.yul\":22530:22539   */\n      dup4\n        /* \"#utility.yul\":22511:22550   */\n      tag_335\n      jump\t// in\n    tag_595:\n        /* \"#utility.yul\":22499:22550   */\n      swap6\n      pop\n        /* \"#utility.yul\":22583:22587   */\n      dup1\n        /* \"#utility.yul\":22579:22588   */\n      not\n        /* \"#utility.yul\":22572:22577   */\n      dup5\n        /* \"#utility.yul\":22568:22589   */\n      and\n        /* \"#utility.yul\":22559:22589   */\n      swap4\n      pop\n        /* \"#utility.yul\":22632:22636   */\n      dup1\n        /* \"#utility.yul\":22622:22630   */\n      dup7\n        /* \"#utility.yul\":22618:22637   */\n      and\n        /* \"#utility.yul\":22611:22616   */\n      dup5\n        /* \"#utility.yul\":22608:22638   */\n      or\n        /* \"#utility.yul\":22598:22638   */\n      swap3\n      pop\n        /* \"#utility.yul\":22327:22644   */\n      pop\n      pop\n        /* \"#utility.yul\":22251:22644   */\n      swap4\n      swap3\n      pop\n      pop\n      pop\n      jump\t// out\n        /* \"#utility.yul\":22650:22710   */\n    tag_337:\n        /* \"#utility.yul\":22678:22681   */\n      0x00\n        /* \"#utility.yul\":22699:22704   */\n      dup2\n        /* \"#utility.yul\":22692:22704   */\n      swap1\n      pop\n        /* \"#utility.yul\":22650:22710   */\n      swap2\n      swap1\n      pop\n      jump\t// out\n        /* \"#utility.yul\":22716:22858   */\n    tag_338:\n        /* \"#utility.yul\":22766:22775   */\n      0x00\n        /* \"#utility.yul\":22799:22852   */\n      tag_598\n        /* \"#utility.yul\":22817:22851   */\n      tag_599\n        /* \"#utility.yul\":22826:22850   */\n      tag_600\n        /* \"#utility.yul\":22844:22849   */\n      dup5\n        /* \"#utility.yul\":22826:22850   */\n      tag_290\n      jump\t// in\n    tag_600:\n        /* \"#utility.yul\":22817:22851   */\n      tag_337\n      jump\t// in\n    tag_599:\n        /* \"#utility.yul\":22799:22852   */\n      tag_290\n      jump\t// in\n    tag_598:\n        /* \"#utility.yul\":22786:22852   */\n      swap1\n      pop\n        /* \"#utility.yul\":22716:22858   */\n      swap2\n      swap1\n      pop\n      jump\t// out\n        /* \"#utility.yul\":22864:22939   */\n    tag_339:\n        /* \"#utility.yul\":22907:22910   */\n      0x00\n        /* \"#utility.yul\":22928:22933   */\n      dup2\n        /* \"#utility.yul\":22921:22933   */\n      swap1\n      pop\n        /* \"#utility.yul\":22864:22939   */\n      swap2\n      swap1\n      pop\n      jump\t// out\n        /* \"#utility.yul\":22945:23214   */\n    tag_340:\n        /* \"#utility.yul\":23055:23094   */\n      tag_603\n        /* \"#utility.yul\":23086:23093   */\n      dup4\n        /* \"#utility.yul\":23055:23094   */\n      tag_338\n      jump\t// in\n    tag_603:\n        /* \"#utility.yul\":23116:23207   */\n      tag_604\n        /* \"#utility.yul\":23165:23206   */\n      tag_605\n        /* \"#utility.yul\":23189:23205   */\n      dup3\n        /* \"#utility.yul\":23165:23206   */\n      tag_339\n      jump\t// in\n    tag_605:\n        /* \"#utility.yul\":23157:23163   */\n      dup5\n        /* \"#utility.yul\":23150:23154   */\n      dup5\n        /* \"#utility.yul\":23144:23155   */\n      sload\n        /* \"#utility.yul\":23116:23207   */\n      tag_336\n      jump\t// in\n    tag_604:\n        /* \"#utility.yul\":23110:23114   */\n      dup3\n        /* \"#utility.yul\":23103:23208   */\n      sstore\n        /* \"#utility.yul\":23021:23214   */\n      pop\n        /* \"#utility.yul\":22945:23214   */\n      pop\n      pop\n      pop\n      jump\t// out\n        /* \"#utility.yul\":23220:23293   */\n    tag_341:\n        /* \"#utility.yul\":23265:23268   */\n      0x00\n        /* \"#utility.yul\":23220:23293   */\n      swap1\n      jump\t// out\n        /* \"#utility.yul\":23299:23488   */\n    tag_342:\n        /* \"#utility.yul\":23376:23408   */\n      tag_608\n      tag_341\n      jump\t// in\n    tag_608:\n        /* \"#utility.yul\":23417:23482   */\n      tag_609\n        /* \"#utility.yul\":23475:23481   */\n      dup2\n        /* \"#utility.yul\":23467:23473   */\n      dup5\n        /* \"#utility.yul\":23461:23465   */\n      dup5\n        /* \"#utility.yul\":23417:23482   */\n      tag_340\n      jump\t// in\n    tag_609:\n        /* \"#utility.yul\":23352:23488   */\n      pop\n        /* \"#utility.yul\":23299:23488   */\n      pop\n      pop\n      jump\t// out\n        /* \"#utility.yul\":23494:23680   */\n    tag_343:\n        /* \"#utility.yul\":23554:23674   */\n    tag_611:\n        /* \"#utility.yul\":23571:23574   */\n      dup2\n        /* \"#utility.yul\":23564:23569   */\n      dup2\n        /* \"#utility.yul\":23561:23575   */\n      lt\n        /* \"#utility.yul\":23554:23674   */\n      iszero\n      tag_613\n      jumpi\n        /* \"#utility.yul\":23625:23664   */\n      tag_614\n        /* \"#utility.yul\":23662:23663   */\n      0x00\n        /* \"#utility.yul\":23655:23660   */\n      dup3\n        /* \"#utility.yul\":23625:23664   */\n      tag_342\n      jump\t// in\n    tag_614:\n        /* \"#utility.yul\":23598:23599   */\n      0x01\n        /* \"#utility.yul\":23591:23596   */\n      dup2\n        /* \"#utility.yul\":23587:23600   */\n      add\n        /* \"#utility.yul\":23578:23600   */\n      swap1\n      pop\n        /* \"#utility.yul\":23554:23674   */\n      jump(tag_611)\n    tag_613:\n        /* \"#utility.yul\":23494:23680   */\n      pop\n      pop\n      jump\t// out\n        /* \"#utility.yul\":23686:24229   */\n    tag_344:\n        /* \"#utility.yul\":23787:23789   */\n      0x1f\n        /* \"#utility.yul\":23782:23785   */\n      dup3\n        /* \"#utility.yul\":23779:23790   */\n      gt\n        /* \"#utility.yul\":23776:24222   */\n      iszero\n      tag_616\n      jumpi\n        /* \"#utility.yul\":23821:23859   */\n      tag_617\n        /* \"#utility.yul\":23853:23858   */\n      dup2\n        /* \"#utility.yul\":23821:23859   */\n      tag_333\n      jump\t// in\n    tag_617:\n        /* \"#utility.yul\":23905:23934   */\n      tag_618\n        /* \"#utility.yul\":23923:23933   */\n      dup5\n        /* \"#utility.yul\":23905:23934   */\n      tag_334\n      jump\t// in\n    tag_618:\n        /* \"#utility.yul\":23895:23903   */\n      dup2\n        /* \"#utility.yul\":23891:23935   */\n      add\n        /* \"#utility.yul\":24088:24090   */\n      0x20\n        /* \"#utility.yul\":24076:24086   */\n      dup6\n        /* \"#utility.yul\":24073:24091   */\n      lt\n        /* \"#utility.yul\":24070:24119   */\n      iszero\n      tag_619\n      jumpi\n        /* \"#utility.yul\":24109:24117   */\n      dup2\n        /* \"#utility.yul\":24094:24117   */\n      swap1\n      pop\n        /* \"#utility.yul\":24070:24119   */\n    tag_619:\n        /* \"#utility.yul\":24132:24212   */\n      tag_620\n        /* \"#utility.yul\":24188:24210   */\n      tag_621\n        /* \"#utility.yul\":24206:24209   */\n      dup6\n        /* \"#utility.yul\":24188:24210   */\n      tag_334\n      jump\t// in\n    tag_621:\n        /* \"#utility.yul\":24178:24186   */\n      dup4\n        /* \"#utility.yul\":24174:24211   */\n      add\n        /* \"#utility.yul\":24161:24172   */\n      dup3\n        /* \"#utility.yul\":24132:24212   */\n      tag_343\n      jump\t// in\n    tag_620:\n        /* \"#utility.yul\":23791:24222   */\n      pop\n      pop\n        /* \"#utility.yul\":23776:24222   */\n    tag_616:\n        /* \"#utility.yul\":23686:24229   */\n      pop\n      pop\n      pop\n      jump\t// out\n        /* \"#utility.yul\":24235:24352   */\n    tag_345:\n        /* \"#utility.yul\":24289:24297   */\n      0x00\n        /* \"#utility.yul\":24339:24344   */\n      dup3\n        /* \"#utility.yul\":24333:24337   */\n      dup3\n        /* \"#utility.yul\":24329:24345   */\n      shr\n        /* \"#utility.yul\":24308:24345   */\n      swap1\n      pop\n        /* \"#utility.yul\":24235:24352   */\n      swap3\n      swap2\n      pop\n      pop\n      jump\t// out\n        /* \"#utility.yul\":24358:24527   */\n    tag_346:\n        /* \"#utility.yul\":24402:24408   */\n      0x00\n        /* \"#utility.yul\":24435:24486   */\n      tag_624\n        /* \"#utility.yul\":24483:24484   */\n      0x00\n        /* \"#utility.yul\":24479:24485   */\n      not\n        /* \"#utility.yul\":24471:24476   */\n      dup5\n        /* \"#utility.yul\":24468:24469   */\n      0x08\n        /* \"#utility.yul\":24464:24477   */\n      mul\n        /* \"#utility.yul\":24435:24486   */\n      tag_345\n      jump\t// in\n    tag_624:\n        /* \"#utility.yul\":24431:24487   */\n      not\n        /* \"#utility.yul\":24516:24520   */\n      dup1\n        /* \"#utility.yul\":24510:24514   */\n      dup4\n        /* \"#utility.yul\":24506:24521   */\n      and\n        /* \"#utility.yul\":24496:24521   */\n      swap2\n      pop\n        /* \"#utility.yul\":24409:24527   */\n      pop\n        /* \"#utility.yul\":24358:24527   */\n      swap3\n      swap2\n      pop\n      pop\n      jump\t// out\n        /* \"#utility.yul\":24532:24827   */\n    tag_347:\n        /* \"#utility.yul\":24608:24612   */\n      0x00\n        /* \"#utility.yul\":24754:24783   */\n      tag_626\n        /* \"#utility.yul\":24779:24782   */\n      dup4\n        /* \"#utility.yul\":24773:24777   */\n      dup4\n        /* \"#utility.yul\":24754:24783   */\n      tag_346\n      jump\t// in\n    tag_626:\n        /* \"#utility.yul\":24746:24783   */\n      swap2\n      pop\n        /* \"#utility.yul\":24816:24819   */\n      dup3\n        /* \"#utility.yul\":24813:24814   */\n      0x02\n        /* \"#utility.yul\":24809:24820   */\n      mul\n        /* \"#utility.yul\":24803:24807   */\n      dup3\n        /* \"#utility.yul\":24800:24821   */\n      or\n        /* \"#utility.yul\":24792:24821   */\n      swap1\n      pop\n        /* \"#utility.yul\":24532:24827   */\n      swap3\n      swap2\n      pop\n      pop\n      jump\t// out\n        /* \"#utility.yul\":24832:26227   */\n    tag_175:\n        /* \"#utility.yul\":24949:24986   */\n      tag_628\n        /* \"#utility.yul\":24982:24985   */\n      dup3\n        /* \"#utility.yul\":24949:24986   */\n      tag_308\n      jump\t// in\n    tag_628:\n        /* \"#utility.yul\":25051:25069   */\n      0xffffffffffffffff\n        /* \"#utility.yul\":25043:25049   */\n      dup2\n        /* \"#utility.yul\":25040:25070   */\n      gt\n        /* \"#utility.yul\":25037:25093   */\n      iszero\n      tag_629\n      jumpi\n        /* \"#utility.yul\":25073:25091   */\n      tag_630\n      tag_118\n      jump\t// in\n    tag_630:\n        /* \"#utility.yul\":25037:25093   */\n    tag_629:\n        /* \"#utility.yul\":25117:25155   */\n      tag_631\n        /* \"#utility.yul\":25149:25153   */\n      dup3\n        /* \"#utility.yul\":25143:25154   */\n      sload\n        /* \"#utility.yul\":25117:25155   */\n      tag_97\n      jump\t// in\n    tag_631:\n        /* \"#utility.yul\":25202:25269   */\n      tag_632\n        /* \"#utility.yul\":25262:25268   */\n      dup3\n        /* \"#utility.yul\":25254:25260   */\n      dup3\n        /* \"#utility.yul\":25248:25252   */\n      dup6\n        /* \"#utility.yul\":25202:25269   */\n      tag_344\n      jump\t// in\n    tag_632:\n        /* \"#utility.yul\":25296:25297   */\n      0x00\n        /* \"#utility.yul\":25320:25324   */\n      0x20\n        /* \"#utility.yul\":25307:25324   */\n      swap1\n      pop\n        /* \"#utility.yul\":25352:25354   */\n      0x1f\n        /* \"#utility.yul\":25344:25350   */\n      dup4\n        /* \"#utility.yul\":25341:25355   */\n      gt\n        /* \"#utility.yul\":25369:25370   */\n      0x01\n        /* \"#utility.yul\":25364:25982   */\n      dup2\n      eq\n      tag_634\n      jumpi\n        /* \"#utility.yul\":26026:26027   */\n      0x00\n        /* \"#utility.yul\":26043:26049   */\n      dup5\n        /* \"#utility.yul\":26040:26117   */\n      iszero\n      tag_635\n      jumpi\n        /* \"#utility.yul\":26092:26101   */\n      dup3\n        /* \"#utility.yul\":26087:26090   */\n      dup8\n        /* \"#utility.yul\":26083:26102   */\n      add\n        /* \"#utility.yul\":26077:26103   */\n      mload\n        /* \"#utility.yul\":26068:26103   */\n      swap1\n      pop\n        /* \"#utility.yul\":26040:26117   */\n    tag_635:\n        /* \"#utility.yul\":26143:26210   */\n      tag_636\n        /* \"#utility.yul\":26203:26209   */\n      dup6\n        /* \"#utility.yul\":26196:26201   */\n      dup3\n        /* \"#utility.yul\":26143:26210   */\n      tag_347\n      jump\t// in\n    tag_636:\n        /* \"#utility.yul\":26137:26141   */\n      dup7\n        /* \"#utility.yul\":26130:26211   */\n      sstore\n        /* \"#utility.yul\":25999:26221   */\n      pop\n        /* \"#utility.yul\":25334:26221   */\n      jump(tag_633)\n        /* \"#utility.yul\":25364:25982   */\n    tag_634:\n        /* \"#utility.yul\":25416:25420   */\n      0x1f\n        /* \"#utility.yul\":25412:25421   */\n      not\n        /* \"#utility.yul\":25404:25410   */\n      dup5\n        /* \"#utility.yul\":25400:25422   */\n      and\n        /* \"#utility.yul\":25450:25487   */\n      tag_637\n        /* \"#utility.yul\":25482:25486   */\n      dup7\n        /* \"#utility.yul\":25450:25487   */\n      tag_333\n      jump\t// in\n    tag_637:\n        /* \"#utility.yul\":25509:25510   */\n      0x00\n        /* \"#utility.yul\":25523:25731   */\n    tag_638:\n        /* \"#utility.yul\":25537:25544   */\n      dup3\n        /* \"#utility.yul\":25534:25535   */\n      dup2\n        /* \"#utility.yul\":25531:25545   */\n      lt\n        /* \"#utility.yul\":25523:25731   */\n      iszero\n      tag_640\n      jumpi\n        /* \"#utility.yul\":25616:25625   */\n      dup5\n        /* \"#utility.yul\":25611:25614   */\n      dup10\n        /* \"#utility.yul\":25607:25626   */\n      add\n        /* \"#utility.yul\":25601:25627   */\n      mload\n        /* \"#utility.yul\":25593:25599   */\n      dup3\n        /* \"#utility.yul\":25586:25628   */\n      sstore\n        /* \"#utility.yul\":25667:25668   */\n      0x01\n        /* \"#utility.yul\":25659:25665   */\n      dup3\n        /* \"#utility.yul\":25655:25669   */\n      add\n        /* \"#utility.yul\":25645:25669   */\n      swap2\n      pop\n        /* \"#utility.yul\":25714:25716   */\n      0x20\n        /* \"#utility.yul\":25703:25712   */\n      dup6\n        /* \"#utility.yul\":25699:25717   */\n      add\n        /* \"#utility.yul\":25686:25717   */\n      swap5\n      pop\n        /* \"#utility.yul\":25560:25564   */\n      0x20\n        /* \"#utility.yul\":25557:25558   */\n      dup2\n        /* \"#utility.yul\":25553:25565   */\n      add\n        /* \"#utility.yul\":25548:25565   */\n      swap1\n      pop\n        /* \"#utility.yul\":25523:25731   */\n      jump(tag_638)\n    tag_640:\n        /* \"#utility.yul\":25759:25765   */\n      dup7\n        /* \"#utility.yul\":25750:25757   */\n      dup4\n        /* \"#utility.yul\":25747:25766   */\n      lt\n        /* \"#utility.yul\":25744:25923   */\n      iszero\n      tag_641\n      jumpi\n        /* \"#utility.yul\":25817:25826   */\n      dup5\n        /* \"#utility.yul\":25812:25815   */\n      dup10\n        /* \"#utility.yul\":25808:25827   */\n      add\n        /* \"#utility.yul\":25802:25828   */\n      mload\n        /* \"#utility.yul\":25860:25908   */\n      tag_642\n        /* \"#utility.yul\":25902:25906   */\n      0x1f\n        /* \"#utility.yul\":25894:25900   */\n      dup10\n        /* \"#utility.yul\":25890:25907   */\n      and\n        /* \"#utility.yul\":25879:25888   */\n      dup3\n        /* \"#utility.yul\":25860:25908   */\n      tag_346\n      jump\t// in\n    tag_642:\n        /* \"#utility.yul\":25852:25858   */\n      dup4\n        /* \"#utility.yul\":25845:25909   */\n      sstore\n        /* \"#utility.yul\":25767:25923   */\n      pop\n        /* \"#utility.yul\":25744:25923   */\n    tag_641:\n        /* \"#utility.yul\":25969:25970   */\n      0x01\n        /* \"#utility.yul\":25965:25966   */\n      0x02\n        /* \"#utility.yul\":25957:25963   */\n      dup9\n        /* \"#utility.yul\":25953:25967   */\n      mul\n        /* \"#utility.yul\":25949:25971   */\n      add\n        /* \"#utility.yul\":25943:25947   */\n      dup9\n        /* \"#utility.yul\":25936:25972   */\n      sstore\n        /* \"#utility.yul\":25371:25982   */\n      pop\n      pop\n      pop\n        /* \"#utility.yul\":25334:26221   */\n    tag_633:\n      pop\n        /* \"#utility.yul\":24924:26227   */\n      pop\n      pop\n      pop\n        /* \"#utility.yul\":24832:26227   */\n      pop\n      pop\n      jump\t// out\n        /* \"#utility.yul\":26233:26786   */\n    tag_235:\n        /* \"#utility.yul\":26410:26414   */\n      0x00\n        /* \"#utility.yul\":26448:26451   */\n      0x80\n        /* \"#utility.yul\":26437:26446   */\n      dup3\n        /* \"#utility.yul\":26433:26452   */\n      add\n        /* \"#utility.yul\":26425:26452   */\n      swap1\n      pop\n        /* \"#utility.yul\":26462:26533   */\n      tag_644\n        /* \"#utility.yul\":26530:26531   */\n      0x00\n        /* \"#utility.yul\":26519:26528   */\n      dup4\n        /* \"#utility.yul\":26515:26532   */\n      add\n        /* \"#utility.yul\":26506:26512   */\n      dup8\n        /* \"#utility.yul\":26462:26533   */\n      tag_329\n      jump\t// in\n    tag_644:\n        /* \"#utility.yul\":26543:26615   */\n      tag_645\n        /* \"#utility.yul\":26611:26613   */\n      0x20\n        /* \"#utility.yul\":26600:26609   */\n      dup4\n        /* \"#utility.yul\":26596:26614   */\n      add\n        /* \"#utility.yul\":26587:26593   */\n      dup7\n        /* \"#utility.yul\":26543:26615   */\n      tag_293\n      jump\t// in\n    tag_645:\n        /* \"#utility.yul\":26625:26697   */\n      tag_646\n        /* \"#utility.yul\":26693:26695   */\n      0x40\n        /* \"#utility.yul\":26682:26691   */\n      dup4\n        /* \"#utility.yul\":26678:26696   */\n      add\n        /* \"#utility.yul\":26669:26675   */\n      dup6\n        /* \"#utility.yul\":26625:26697   */\n      tag_293\n      jump\t// in\n    tag_646:\n        /* \"#utility.yul\":26707:26779   */\n      tag_647\n        /* \"#utility.yul\":26775:26777   */\n      0x60\n        /* \"#utility.yul\":26764:26773   */\n      dup4\n        /* \"#utility.yul\":26760:26778   */\n      add\n        /* \"#utility.yul\":26751:26757   */\n      dup5\n        /* \"#utility.yul\":26707:26779   */\n      tag_293\n      jump\t// in\n    tag_647:\n        /* \"#utility.yul\":26233:26786   */\n      swap6\n      swap5\n      pop\n      pop\n      pop\n      pop\n      pop\n      jump\t// out\n        /* \"#utility.yul\":26792:26972   */\n    tag_348:\n        /* \"#utility.yul\":26840:26917   */\n      0x4e487b7100000000000000000000000000000000000000000000000000000000\n        /* \"#utility.yul\":26837:26838   */\n      0x00\n        /* \"#utility.yul\":26830:26918   */\n      mstore\n        /* \"#utility.yul\":26937:26941   */\n      0x11\n        /* \"#utility.yul\":26934:26935   */\n      0x04\n        /* \"#utility.yul\":26927:26942   */\n      mstore\n        /* \"#utility.yul\":26961:26965   */\n      0x24\n        /* \"#utility.yul\":26958:26959   */\n      0x00\n        /* \"#utility.yul\":26951:26966   */\n      revert\n        /* \"#utility.yul\":26978:27169   */\n    tag_238:\n        /* \"#utility.yul\":27018:27021   */\n      0x00\n        /* \"#utility.yul\":27037:27057   */\n      tag_650\n        /* \"#utility.yul\":27055:27056   */\n      dup3\n        /* \"#utility.yul\":27037:27057   */\n      tag_290\n      jump\t// in\n    tag_650:\n        /* \"#utility.yul\":27032:27057   */\n      swap2\n      pop\n        /* \"#utility.yul\":27071:27091   */\n      tag_651\n        /* \"#utility.yul\":27089:27090   */\n      dup4\n        /* \"#utility.yul\":27071:27091   */\n      tag_290\n      jump\t// in\n    tag_651:\n        /* \"#utility.yul\":27066:27091   */\n      swap3\n      pop\n        /* \"#utility.yul\":27114:27115   */\n      dup3\n        /* \"#utility.yul\":27111:27112   */\n      dup3\n        /* \"#utility.yul\":27107:27116   */\n      add\n        /* \"#utility.yul\":27100:27116   */\n      swap1\n      pop\n        /* \"#utility.yul\":27135:27138   */\n      dup1\n        /* \"#utility.yul\":27132:27133   */\n      dup3\n        /* \"#utility.yul\":27129:27139   */\n      gt\n        /* \"#utility.yul\":27126:27162   */\n      iszero\n      tag_652\n      jumpi\n        /* \"#utility.yul\":27142:27160   */\n      tag_653\n      tag_348\n      jump\t// in\n    tag_653:\n        /* \"#utility.yul\":27126:27162   */\n    tag_652:\n        /* \"#utility.yul\":26978:27169   */\n      swap3\n      swap2\n      pop\n      pop\n      jump\t// out\n        /* \"#utility.yul\":27175:27809   */\n    tag_245:\n        /* \"#utility.yul\":27396:27400   */\n      0x00\n        /* \"#utility.yul\":27434:27436   */\n      0x40\n        /* \"#utility.yul\":27423:27432   */\n      dup3\n        /* \"#utility.yul\":27419:27437   */\n      add\n        /* \"#utility.yul\":27411:27437   */\n      swap1\n      pop\n        /* \"#utility.yul\":27483:27492   */\n      dup2\n        /* \"#utility.yul\":27477:27481   */\n      dup2\n        /* \"#utility.yul\":27473:27493   */\n      sub\n        /* \"#utility.yul\":27469:27470   */\n      0x00\n        /* \"#utility.yul\":27458:27467   */\n      dup4\n        /* \"#utility.yul\":27454:27471   */\n      add\n        /* \"#utility.yul\":27447:27494   */\n      mstore\n        /* \"#utility.yul\":27511:27619   */\n      tag_655\n        /* \"#utility.yul\":27614:27618   */\n      dup2\n        /* \"#utility.yul\":27605:27611   */\n      dup6\n        /* \"#utility.yul\":27511:27619   */\n      tag_328\n      jump\t// in\n    tag_655:\n        /* \"#utility.yul\":27503:27619   */\n      swap1\n      pop\n        /* \"#utility.yul\":27666:27675   */\n      dup2\n        /* \"#utility.yul\":27660:27664   */\n      dup2\n        /* \"#utility.yul\":27656:27676   */\n      sub\n        /* \"#utility.yul\":27651:27653   */\n      0x20\n        /* \"#utility.yul\":27640:27649   */\n      dup4\n        /* \"#utility.yul\":27636:27654   */\n      add\n        /* \"#utility.yul\":27629:27677   */\n      mstore\n        /* \"#utility.yul\":27694:27802   */\n      tag_656\n        /* \"#utility.yul\":27797:27801   */\n      dup2\n        /* \"#utility.yul\":27788:27794   */\n      dup5\n        /* \"#utility.yul\":27694:27802   */\n      tag_328\n      jump\t// in\n    tag_656:\n        /* \"#utility.yul\":27686:27802   */\n      swap1\n      pop\n        /* \"#utility.yul\":27175:27809   */\n      swap4\n      swap3\n      pop\n      pop\n      pop\n      jump\t// out\n        /* \"#utility.yul\":27815:27913   */\n    tag_349:\n        /* \"#utility.yul\":27866:27872   */\n      0x00\n        /* \"#utility.yul\":27900:27905   */\n      dup2\n        /* \"#utility.yul\":27894:27906   */\n      mload\n        /* \"#utility.yul\":27884:27906   */\n      swap1\n      pop\n        /* \"#utility.yul\":27815:27913   */\n      swap2\n      swap1\n      pop\n      jump\t// out\n        /* \"#utility.yul\":27919:28087   */\n    tag_350:\n        /* \"#utility.yul\":28002:28013   */\n      0x00\n        /* \"#utility.yul\":28036:28042   */\n      dup3\n        /* \"#utility.yul\":28031:28034   */\n      dup3\n        /* \"#utility.yul\":28024:28043   */\n      mstore\n        /* \"#utility.yul\":28076:28080   */\n      0x20\n        /* \"#utility.yul\":28071:28074   */\n      dup3\n        /* \"#utility.yul\":28067:28081   */\n      add\n        /* \"#utility.yul\":28052:28081   */\n      swap1\n      pop\n        /* \"#utility.yul\":27919:28087   */\n      swap3\n      swap2\n      pop\n      pop\n      jump\t// out\n        /* \"#utility.yul\":28093:28466   */\n    tag_351:\n        /* \"#utility.yul\":28179:28182   */\n      0x00\n        /* \"#utility.yul\":28207:28245   */\n      tag_660\n        /* \"#utility.yul\":28239:28244   */\n      dup3\n        /* \"#utility.yul\":28207:28245   */\n      tag_349\n      jump\t// in\n    tag_660:\n        /* \"#utility.yul\":28261:28331   */\n      tag_661\n        /* \"#utility.yul\":28324:28330   */\n      dup2\n        /* \"#utility.yul\":28319:28322   */\n      dup6\n        /* \"#utility.yul\":28261:28331   */\n      tag_350\n      jump\t// in\n    tag_661:\n        /* \"#utility.yul\":28254:28331   */\n      swap4\n      pop\n        /* \"#utility.yul\":28340:28405   */\n      tag_662\n        /* \"#utility.yul\":28398:28404   */\n      dup2\n        /* \"#utility.yul\":28393:28396   */\n      dup6\n        /* \"#utility.yul\":28386:28390   */\n      0x20\n        /* \"#utility.yul\":28379:28384   */\n      dup7\n        /* \"#utility.yul\":28375:28391   */\n      add\n        /* \"#utility.yul\":28340:28405   */\n      tag_310\n      jump\t// in\n    tag_662:\n        /* \"#utility.yul\":28430:28459   */\n      tag_663\n        /* \"#utility.yul\":28452:28458   */\n      dup2\n        /* \"#utility.yul\":28430:28459   */\n      tag_301\n      jump\t// in\n    tag_663:\n        /* \"#utility.yul\":28425:28428   */\n      dup5\n        /* \"#utility.yul\":28421:28460   */\n      add\n        /* \"#utility.yul\":28414:28460   */\n      swap2\n      pop\n        /* \"#utility.yul\":28183:28466   */\n      pop\n        /* \"#utility.yul\":28093:28466   */\n      swap3\n      swap2\n      pop\n      pop\n      jump\t// out\n        /* \"#utility.yul\":28472:29223   */\n    tag_249:\n        /* \"#utility.yul\":28695:28699   */\n      0x00\n        /* \"#utility.yul\":28733:28736   */\n      0xa0\n        /* \"#utility.yul\":28722:28731   */\n      dup3\n        /* \"#utility.yul\":28718:28737   */\n      add\n        /* \"#utility.yul\":28710:28737   */\n      swap1\n      pop\n        /* \"#utility.yul\":28747:28818   */\n      tag_665\n        /* \"#utility.yul\":28815:28816   */\n      0x00\n        /* \"#utility.yul\":28804:28813   */\n      dup4\n        /* \"#utility.yul\":28800:28817   */\n      add\n        /* \"#utility.yul\":28791:28797   */\n      dup9\n        /* \"#utility.yul\":28747:28818   */\n      tag_329\n      jump\t// in\n    tag_665:\n        /* \"#utility.yul\":28828:28900   */\n      tag_666\n        /* \"#utility.yul\":28896:28898   */\n      0x20\n        /* \"#utility.yul\":28885:28894   */\n      dup4\n        /* \"#utility.yul\":28881:28899   */\n      add\n        /* \"#utility.yul\":28872:28878   */\n      dup8\n        /* \"#utility.yul\":28828:28900   */\n      tag_329\n      jump\t// in\n    tag_666:\n        /* \"#utility.yul\":28910:28982   */\n      tag_667\n        /* \"#utility.yul\":28978:28980   */\n      0x40\n        /* \"#utility.yul\":28967:28976   */\n      dup4\n        /* \"#utility.yul\":28963:28981   */\n      add\n        /* \"#utility.yul\":28954:28960   */\n      dup7\n        /* \"#utility.yul\":28910:28982   */\n      tag_293\n      jump\t// in\n    tag_667:\n        /* \"#utility.yul\":28992:29064   */\n      tag_668\n        /* \"#utility.yul\":29060:29062   */\n      0x60\n        /* \"#utility.yul\":29049:29058   */\n      dup4\n        /* \"#utility.yul\":29045:29063   */\n      add\n        /* \"#utility.yul\":29036:29042   */\n      dup6\n        /* \"#utility.yul\":28992:29064   */\n      tag_293\n      jump\t// in\n    tag_668:\n        /* \"#utility.yul\":29112:29121   */\n      dup2\n        /* \"#utility.yul\":29106:29110   */\n      dup2\n        /* \"#utility.yul\":29102:29122   */\n      sub\n        /* \"#utility.yul\":29096:29099   */\n      0x80\n        /* \"#utility.yul\":29085:29094   */\n      dup4\n        /* \"#utility.yul\":29081:29100   */\n      add\n        /* \"#utility.yul\":29074:29123   */\n      mstore\n        /* \"#utility.yul\":29140:29216   */\n      tag_669\n        /* \"#utility.yul\":29211:29215   */\n      dup2\n        /* \"#utility.yul\":29202:29208   */\n      dup5\n        /* \"#utility.yul\":29140:29216   */\n      tag_351\n      jump\t// in\n    tag_669:\n        /* \"#utility.yul\":29132:29216   */\n      swap1\n      pop\n        /* \"#utility.yul\":28472:29223   */\n      swap7\n      swap6\n      pop\n      pop\n      pop\n      pop\n      pop\n      pop\n      jump\t// out\n        /* \"#utility.yul\":29229:29370   */\n    tag_352:\n        /* \"#utility.yul\":29285:29290   */\n      0x00\n        /* \"#utility.yul\":29316:29322   */\n      dup2\n        /* \"#utility.yul\":29310:29323   */\n      mload\n        /* \"#utility.yul\":29301:29323   */\n      swap1\n      pop\n        /* \"#utility.yul\":29332:29364   */\n      tag_671\n        /* \"#utility.yul\":29358:29363   */\n      dup2\n        /* \"#utility.yul\":29332:29364   */\n      tag_295\n      jump\t// in\n    tag_671:\n        /* \"#utility.yul\":29229:29370   */\n      swap3\n      swap2\n      pop\n      pop\n      jump\t// out\n        /* \"#utility.yul\":29376:29725   */\n    tag_252:\n        /* \"#utility.yul\":29445:29451   */\n      0x00\n        /* \"#utility.yul\":29494:29496   */\n      0x20\n        /* \"#utility.yul\":29482:29491   */\n      dup3\n        /* \"#utility.yul\":29473:29480   */\n      dup5\n        /* \"#utility.yul\":29469:29492   */\n      sub\n        /* \"#utility.yul\":29465:29497   */\n      slt\n        /* \"#utility.yul\":29462:29581   */\n      iszero\n      tag_673\n      jumpi\n        /* \"#utility.yul\":29500:29579   */\n      tag_674\n      tag_284\n      jump\t// in\n    tag_674:\n        /* \"#utility.yul\":29462:29581   */\n    tag_673:\n        /* \"#utility.yul\":29620:29621   */\n      0x00\n        /* \"#utility.yul\":29645:29708   */\n      tag_675\n        /* \"#utility.yul\":29700:29707   */\n      dup5\n        /* \"#utility.yul\":29691:29697   */\n      dup3\n        /* \"#utility.yul\":29680:29689   */\n      dup6\n        /* \"#utility.yul\":29676:29698   */\n      add\n        /* \"#utility.yul\":29645:29708   */\n      tag_352\n      jump\t// in\n    tag_675:\n        /* \"#utility.yul\":29635:29708   */\n      swap2\n      pop\n        /* \"#utility.yul\":29591:29718   */\n      pop\n        /* \"#utility.yul\":29376:29725   */\n      swap3\n      swap2\n      pop\n      pop\n      jump\t// out\n        /* \"#utility.yul\":29731:30784   */\n    tag_268:\n        /* \"#utility.yul\":30054:30058   */\n      0x00\n        /* \"#utility.yul\":30092:30095   */\n      0xa0\n        /* \"#utility.yul\":30081:30090   */\n      dup3\n        /* \"#utility.yul\":30077:30096   */\n      add\n        /* \"#utility.yul\":30069:30096   */\n      swap1\n      pop\n        /* \"#utility.yul\":30106:30177   */\n      tag_677\n        /* \"#utility.yul\":30174:30175   */\n      0x00\n        /* \"#utility.yul\":30163:30172   */\n      dup4\n        /* \"#utility.yul\":30159:30176   */\n      add\n        /* \"#utility.yul\":30150:30156   */\n      dup9\n        /* \"#utility.yul\":30106:30177   */\n      tag_329\n      jump\t// in\n    tag_677:\n        /* \"#utility.yul\":30187:30259   */\n      tag_678\n        /* \"#utility.yul\":30255:30257   */\n      0x20\n        /* \"#utility.yul\":30244:30253   */\n      dup4\n        /* \"#utility.yul\":30240:30258   */\n      add\n        /* \"#utility.yul\":30231:30237   */\n      dup8\n        /* \"#utility.yul\":30187:30259   */\n      tag_329\n      jump\t// in\n    tag_678:\n        /* \"#utility.yul\":30306:30315   */\n      dup2\n        /* \"#utility.yul\":30300:30304   */\n      dup2\n        /* \"#utility.yul\":30296:30316   */\n      sub\n        /* \"#utility.yul\":30291:30293   */\n      0x40\n        /* \"#utility.yul\":30280:30289   */\n      dup4\n        /* \"#utility.yul\":30276:30294   */\n      add\n        /* \"#utility.yul\":30269:30317   */\n      mstore\n        /* \"#utility.yul\":30334:30442   */\n      tag_679\n        /* \"#utility.yul\":30437:30441   */\n      dup2\n        /* \"#utility.yul\":30428:30434   */\n      dup7\n        /* \"#utility.yul\":30334:30442   */\n      tag_328\n      jump\t// in\n    tag_679:\n        /* \"#utility.yul\":30326:30442   */\n      swap1\n      pop\n        /* \"#utility.yul\":30489:30498   */\n      dup2\n        /* \"#utility.yul\":30483:30487   */\n      dup2\n        /* \"#utility.yul\":30479:30499   */\n      sub\n        /* \"#utility.yul\":30474:30476   */\n      0x60\n        /* \"#utility.yul\":30463:30472   */\n      dup4\n        /* \"#utility.yul\":30459:30477   */\n      add\n        /* \"#utility.yul\":30452:30500   */\n      mstore\n        /* \"#utility.yul\":30517:30625   */\n      tag_680\n        /* \"#utility.yul\":30620:30624   */\n      dup2\n        /* \"#utility.yul\":30611:30617   */\n      dup6\n        /* \"#utility.yul\":30517:30625   */\n      tag_328\n      jump\t// in\n    tag_680:\n        /* \"#utility.yul\":30509:30625   */\n      swap1\n      pop\n        /* \"#utility.yul\":30673:30682   */\n      dup2\n        /* \"#utility.yul\":30667:30671   */\n      dup2\n        /* \"#utility.yul\":30663:30683   */\n      sub\n        /* \"#utility.yul\":30657:30660   */\n      0x80\n        /* \"#utility.yul\":30646:30655   */\n      dup4\n        /* \"#utility.yul\":30642:30661   */\n      add\n        /* \"#utility.yul\":30635:30684   */\n      mstore\n        /* \"#utility.yul\":30701:30777   */\n      tag_681\n        /* \"#utility.yul\":30772:30776   */\n      dup2\n        /* \"#utility.yul\":30763:30769   */\n      dup5\n        /* \"#utility.yul\":30701:30777   */\n      tag_351\n      jump\t// in\n    tag_681:\n        /* \"#utility.yul\":30693:30777   */\n      swap1\n      pop\n        /* \"#utility.yul\":29731:30784   */\n      swap7\n      swap6\n      pop\n      pop\n      pop\n      pop\n      pop\n      pop\n      jump\t// out\n\n    auxdata: 0xa2646970667358221220fe4c5669394c825d0eb1d6f2f25a3046118e65d9df119bd9df2cb1e193b6cd2064736f6c63430008190033\n}\n",
				"bytecode": {
					"linkReferences": {},
					"object": "608060405234801561000f575f80fd5b50604051612d74380380612d74833981810160405281019061003191906102ec565b3381610042816100c960201b60201c565b505f73ffffffffffffffffffffffffffffffffffffffff168173ffffffffffffffffffffffffffffffffffffffff16036100b3575f6040517f1e4fbdf70000000000000000000000000000000000000000000000000000000081526004016100aa9190610372565b60405180910390fd5b6100c2816100dc60201b60201c565b5050610667565b80600290816100d89190610598565b5050565b5f60035f9054906101000a900473ffffffffffffffffffffffffffffffffffffffff1690508160035f6101000a81548173ffffffffffffffffffffffffffffffffffffffff021916908373ffffffffffffffffffffffffffffffffffffffff1602179055508173ffffffffffffffffffffffffffffffffffffffff168173ffffffffffffffffffffffffffffffffffffffff167f8be0079c531659141344cd1fd0a4f28419497f9722a3daafe3b4186f6b6457e060405160405180910390a35050565b5f604051905090565b5f80fd5b5f80fd5b5f80fd5b5f80fd5b5f601f19601f8301169050919050565b7f4e487b71000000000000000000000000000000000000000000000000000000005f52604160045260245ffd5b6101fe826101b8565b810181811067ffffffffffffffff8211171561021d5761021c6101c8565b5b80604052505050565b5f61022f61019f565b905061023b82826101f5565b919050565b5f67ffffffffffffffff82111561025a576102596101c8565b5b610263826101b8565b9050602081019050919050565b8281835e5f83830152505050565b5f61029061028b84610240565b610226565b9050828152602081018484840111156102ac576102ab6101b4565b5b6102b7848285610270565b509392505050565b5f82601f8301126102d3576102d26101b0565b5b81516102e384826020860161027e565b91505092915050565b5f60208284031215610301576103006101a8565b5b5f82015167ffffffffffffffff81111561031e5761031d6101ac565b5b61032a848285016102bf565b91505092915050565b5f73ffffffffffffffffffffffffffffffffffffffff82169050919050565b5f61035c82610333565b9050919050565b61036c81610352565b82525050565b5f6020820190506103855f830184610363565b92915050565b5f81519050919050565b7f4e487b71000000000000000000000000000000000000000000000000000000005f52602260045260245ffd5b5f60028204905060018216806103d957607f821691505b6020821081036103ec576103eb610395565b5b50919050565b5f819050815f5260205f209050919050565b5f6020601f8301049050919050565b5f82821b905092915050565b5f6008830261044e7fffffffffffffffffffffffffffffffffffffffffffffffffffffffffffffffff82610413565b6104588683610413565b95508019841693508086168417925050509392505050565b5f819050919050565b5f819050919050565b5f61049c61049761049284610470565b610479565b610470565b9050919050565b5f819050919050565b6104b583610482565b6104c96104c1826104a3565b84845461041f565b825550505050565b5f90565b6104dd6104d1565b6104e88184846104ac565b505050565b5b8181101561050b576105005f826104d5565b6001810190506104ee565b5050565b601f82111561055057610521816103f2565b61052a84610404565b81016020851015610539578190505b61054d61054585610404565b8301826104ed565b50505b505050565b5f82821c905092915050565b5f6105705f1984600802610555565b1980831691505092915050565b5f6105888383610561565b9150826002028217905092915050565b6105a18261038b565b67ffffffffffffffff8111156105ba576105b96101c8565b5b6105c482546103c2565b6105cf82828561050f565b5f60209050601f831160018114610600575f84156105ee578287015190505b6105f8858261057d565b86555061065f565b601f19841661060e866103f2565b5f5b8281101561063557848901518255600182019150602085019450602081019050610610565b86831015610652578489015161064e601f891682610561565b8355505b6001600288020188555050505b505050505050565b612700806106745f395ff3fe608060405234801561000f575f80fd5b50600436106100e7575f3560e01c8063731133e91161008a578063e985e9c511610064578063e985e9c514610243578063f242432a14610273578063f2fde38b1461028f578063f5298aca146102ab576100e7565b8063731133e9146101ed5780638da5cb5b14610209578063a22cb46514610227576100e7565b80630e89341c116100c65780630e89341c146101675780632eb2c2d6146101975780634e1273f4146101b3578063715018a6146101e3576100e7565b8062fdd58e146100eb57806301ffc9a71461011b57806302fe53051461014b575b5f80fd5b61010560048036038101906101009190611782565b6102c7565b60405161011291906117cf565b60405180910390f35b6101356004803603810190610130919061183d565b61031c565b6040516101429190611882565b60405180910390f35b610165600480360381019061016091906119d7565b6103fd565b005b610181600480360381019061017c9190611a1e565b610411565b60405161018e9190611aa9565b60405180910390f35b6101b160048036038101906101ac9190611c2b565b6104a3565b005b6101cd60048036038101906101c89190611db6565b61054a565b6040516101da9190611ee3565b60405180910390f35b6101eb610651565b005b61020760048036038101906102029190611f03565b610664565b005b61021161067e565b60405161021e9190611f92565b60405180910390f35b610241600480360381019061023c9190611fd5565b6106a6565b005b61025d60048036038101906102589190612013565b6106bc565b60405161026a9190611882565b60405180910390f35b61028d60048036038101906102889190612051565b61074a565b005b6102a960048036038101906102a491906120e4565b6107f1565b005b6102c560048036038101906102c0919061210f565b610875565b005b5f805f8381526020019081526020015f205f8473ffffffffffffffffffffffffffffffffffffffff1673ffffffffffffffffffffffffffffffffffffffff1681526020019081526020015f2054905092915050565b5f7fd9b67a26000000000000000000000000000000000000000000000000000000007bffffffffffffffffffffffffffffffffffffffffffffffffffffffff1916827bffffffffffffffffffffffffffffffffffffffffffffffffffffffff191614806103e657507f0e89341c000000000000000000000000000000000000000000000000000000007bffffffffffffffffffffffffffffffffffffffffffffffffffffffff1916827bffffffffffffffffffffffffffffffffffffffffffffffffffffffff1916145b806103f657506103f58261088d565b5b9050919050565b6104056108f6565b61040e8161097d565b50565b6060600280546104209061218c565b80601f016020809104026020016040519081016040528092919081815260200182805461044c9061218c565b80156104975780601f1061046e57610100808354040283529160200191610497565b820191905f5260205f20905b81548152906001019060200180831161047a57829003601f168201915b50505050509050919050565b5f6104ac610990565b90508073ffffffffffffffffffffffffffffffffffffffff168673ffffffffffffffffffffffffffffffffffffffff16141580156104f157506104ef86826106bc565b155b156105355780866040517fe237d92200000000000000000000000000000000000000000000000000000000815260040161052c9291906121bc565b60405180910390fd5b6105428686868686610997565b505050505050565b6060815183511461059657815183516040517f5b05999100000000000000000000000000000000000000000000000000000000815260040161058d9291906121e3565b60405180910390fd5b5f835167ffffffffffffffff8111156105b2576105b16118b3565b5b6040519080825280602002602001820160405280156105e05781602001602082028036833780820191505090505b5090505f5b84518110156106465761061c6106048287610a8b90919063ffffffff16565b6106178387610a9e90919063ffffffff16565b6102c7565b82828151811061062f5761062e61220a565b5b6020026020010181815250508060010190506105e5565b508091505092915050565b6106596108f6565b6106625f610ab1565b565b61066c6108f6565b61067884848484610b74565b50505050565b5f60035f9054906101000a900473ffffffffffffffffffffffffffffffffffffffff16905090565b6106b86106b1610990565b8383610c09565b5050565b5f60015f8473ffffffffffffffffffffffffffffffffffffffff1673ffffffffffffffffffffffffffffffffffffffff1681526020019081526020015f205f8373ffffffffffffffffffffffffffffffffffffffff1673ffffffffffffffffffffffffffffffffffffffff1681526020019081526020015f205f9054906101000a900460ff16905092915050565b5f610753610990565b90508073ffffffffffffffffffffffffffffffffffffffff168673ffffffffffffffffffffffffffffffffffffffff1614158015610798575061079686826106bc565b155b156107dc5780866040517fe237d9220000000000000000000000000000000000000000000000000000000081526004016107d39291906121bc565b60405180910390fd5b6107e98686868686610d72565b505050505050565b6107f96108f6565b5f73ffffffffffffffffffffffffffffffffffffffff168173ffffffffffffffffffffffffffffffffffffffff1603610869575f6040517f1e4fbdf70000000000000000000000000000000000000000000000000000000081526004016108609190611f92565b60405180910390fd5b61087281610ab1565b50565b61087d6108f6565b610888838383610e78565b505050565b5f7f01ffc9a7000000000000000000000000000000000000000000000000000000007bffffffffffffffffffffffffffffffffffffffffffffffffffffffff1916827bffffffffffffffffffffffffffffffffffffffffffffffffffffffff1916149050919050565b6108fe610990565b73ffffffffffffffffffffffffffffffffffffffff1661091c61067e565b73ffffffffffffffffffffffffffffffffffffffff161461097b5761093f610990565b6040517f118cdaa70000000000000000000000000000000000000000000000000000000081526004016109729190611f92565b60405180910390fd5b565b806002908161098c91906123d4565b5050565b5f33905090565b5f73ffffffffffffffffffffffffffffffffffffffff168473ffffffffffffffffffffffffffffffffffffffff1603610a07575f6040517f57f447ce0000000000000000000000000000000000000000000000000000000081526004016109fe9190611f92565b60405180910390fd5b5f73ffffffffffffffffffffffffffffffffffffffff168573ffffffffffffffffffffffffffffffffffffffff1603610a77575f6040517f01a83514000000000000000000000000000000000000000000000000000000008152600401610a6e9190611f92565b60405180910390fd5b610a848585858585610f1a565b5050505050565b5f60208202602084010151905092915050565b5f60208202602084010151905092915050565b5f60035f9054906101000a900473ffffffffffffffffffffffffffffffffffffffff1690508160035f6101000a81548173ffffffffffffffffffffffffffffffffffffffff021916908373ffffffffffffffffffffffffffffffffffffffff1602179055508173ffffffffffffffffffffffffffffffffffffffff168173ffffffffffffffffffffffffffffffffffffffff167f8be0079c531659141344cd1fd0a4f28419497f9722a3daafe3b4186f6b6457e060405160405180910390a35050565b5f73ffffffffffffffffffffffffffffffffffffffff168473ffffffffffffffffffffffffffffffffffffffff1603610be4575f6040517f57f447ce000000000000000000000000000000000000000000000000000000008152600401610bdb9190611f92565b60405180910390fd5b5f80610bf08585610fc6565b91509150610c015f87848487610f1a565b505050505050565b5f73ffffffffffffffffffffffffffffffffffffffff168273ffffffffffffffffffffffffffffffffffffffff1603610c79575f6040517fced3e100000000000000000000000000000000000000000000000000000000008152600401610c709190611f92565b60405180910390fd5b8060015f8573ffffffffffffffffffffffffffffffffffffffff1673ffffffffffffffffffffffffffffffffffffffff1681526020019081526020015f205f8473ffffffffffffffffffffffffffffffffffffffff1673ffffffffffffffffffffffffffffffffffffffff1681526020019081526020015f205f6101000a81548160ff0219169083151502179055508173ffffffffffffffffffffffffffffffffffffffff168373ffffffffffffffffffffffffffffffffffffffff167f17307eab39ab6107e8899845ad3d59bd9653f200f220920489ca2b5937696c3183604051610d659190611882565b60405180910390a3505050565b5f73ffffffffffffffffffffffffffffffffffffffff168473ffffffffffffffffffffffffffffffffffffffff1603610de2575f6040517f57f447ce000000000000000000000000000000000000000000000000000000008152600401610dd99190611f92565b60405180910390fd5b5f73ffffffffffffffffffffffffffffffffffffffff168573ffffffffffffffffffffffffffffffffffffffff1603610e52575f6040517f01a83514000000000000000000000000000000000000000000000000000000008152600401610e499190611f92565b60405180910390fd5b5f80610e5e8585610fc6565b91509150610e6f8787848487610f1a565b50505050505050565b5f73ffffffffffffffffffffffffffffffffffffffff168373ffffffffffffffffffffffffffffffffffffffff1603610ee8575f6040517f01a83514000000000000000000000000000000000000000000000000000000008152600401610edf9190611f92565b60405180910390fd5b5f80610ef48484610fc6565b91509150610f13855f848460405180602001604052805f815250610f1a565b5050505050565b610f2685858585610ff6565b5f73ffffffffffffffffffffffffffffffffffffffff168473ffffffffffffffffffffffffffffffffffffffff1614610fbf575f610f62610990565b90506001845103610fae575f610f815f86610a9e90919063ffffffff16565b90505f610f975f86610a9e90919063ffffffff16565b9050610fa7838989858589611386565b5050610fbd565b610fbc818787878787611535565b5b505b5050505050565b60608060405191506001825283602083015260408201905060018152826020820152604081016040529250929050565b805182511461104057815181516040517f5b0599910000000000000000000000000000000000000000000000000000000081526004016110379291906121e3565b60405180910390fd5b5f611049610990565b90505f5b8351811015611245575f61106a8286610a9e90919063ffffffff16565b90505f6110808386610a9e90919063ffffffff16565b90505f73ffffffffffffffffffffffffffffffffffffffff168873ffffffffffffffffffffffffffffffffffffffff16146111a3575f805f8481526020019081526020015f205f8a73ffffffffffffffffffffffffffffffffffffffff1673ffffffffffffffffffffffffffffffffffffffff1681526020019081526020015f205490508181101561114f57888183856040517f03dee4c500000000000000000000000000000000000000000000000000000000815260040161114694939291906124a3565b60405180910390fd5b8181035f808581526020019081526020015f205f8b73ffffffffffffffffffffffffffffffffffffffff1673ffffffffffffffffffffffffffffffffffffffff1681526020019081526020015f2081905550505b5f73ffffffffffffffffffffffffffffffffffffffff168773ffffffffffffffffffffffffffffffffffffffff161461123857805f808481526020019081526020015f205f8973ffffffffffffffffffffffffffffffffffffffff1673ffffffffffffffffffffffffffffffffffffffff1681526020019081526020015f205f8282546112309190612513565b925050819055505b505080600101905061104d565b506001835103611300575f6112635f85610a9e90919063ffffffff16565b90505f6112795f85610a9e90919063ffffffff16565b90508573ffffffffffffffffffffffffffffffffffffffff168773ffffffffffffffffffffffffffffffffffffffff168473ffffffffffffffffffffffffffffffffffffffff167fc3d58168c5ae7397731d063d5bbf3d657854427343f4c083240f7aacaa2d0f6285856040516112f19291906121e3565b60405180910390a4505061137f565b8373ffffffffffffffffffffffffffffffffffffffff168573ffffffffffffffffffffffffffffffffffffffff168273ffffffffffffffffffffffffffffffffffffffff167f4a39dc06d4c0dbc64b70af90fd698a233a518aa5d07e595d983b8c0526c8f7fb8686604051611376929190612546565b60405180910390a45b5050505050565b5f8473ffffffffffffffffffffffffffffffffffffffff163b111561152d578373ffffffffffffffffffffffffffffffffffffffff1663f23a6e6187878686866040518663ffffffff1660e01b81526004016113e69594939291906125cd565b6020604051808303815f875af192505050801561142157506040513d601f19601f8201168201806040525081019061141e9190612639565b60015b6114a2573d805f811461144f576040519150601f19603f3d011682016040523d82523d5f602084013e611454565b606091505b505f81510361149a57846040517f57f447ce0000000000000000000000000000000000000000000000000000000081526004016114919190611f92565b60405180910390fd5b805181602001fd5b63f23a6e6160e01b7bffffffffffffffffffffffffffffffffffffffffffffffffffffffff1916817bffffffffffffffffffffffffffffffffffffffffffffffffffffffff19161461152b57846040517f57f447ce0000000000000000000000000000000000000000000000000000000081526004016115229190611f92565b60405180910390fd5b505b505050505050565b5f8473ffffffffffffffffffffffffffffffffffffffff163b11156116dc578373ffffffffffffffffffffffffffffffffffffffff1663bc197c8187878686866040518663ffffffff1660e01b8152600401611595959493929190612664565b6020604051808303815f875af19250505080156115d057506040513d601f19601f820116820180604052508101906115cd9190612639565b60015b611651573d805f81146115fe576040519150601f19603f3d011682016040523d82523d5f602084013e611603565b606091505b505f81510361164957846040517f57f447ce0000000000000000000000000000000000000000000000000000000081526004016116409190611f92565b60405180910390fd5b805181602001fd5b63bc197c8160e01b7bffffffffffffffffffffffffffffffffffffffffffffffffffffffff1916817bffffffffffffffffffffffffffffffffffffffffffffffffffffffff1916146116da57846040517f57f447ce0000000000000000000000000000000000000000000000000000000081526004016116d19190611f92565b60405180910390fd5b505b505050505050565b5f604051905090565b5f80fd5b5f80fd5b5f73ffffffffffffffffffffffffffffffffffffffff82169050919050565b5f61171e826116f5565b9050919050565b61172e81611714565b8114611738575f80fd5b50565b5f8135905061174981611725565b92915050565b5f819050919050565b6117618161174f565b811461176b575f80fd5b50565b5f8135905061177c81611758565b92915050565b5f8060408385031215611798576117976116ed565b5b5f6117a58582860161173b565b92505060206117b68582860161176e565b9150509250929050565b6117c98161174f565b82525050565b5f6020820190506117e25f8301846117c0565b92915050565b5f7fffffffff0000000000000000000000000000000000000000000000000000000082169050919050565b61181c816117e8565b8114611826575f80fd5b50565b5f8135905061183781611813565b92915050565b5f60208284031215611852576118516116ed565b5b5f61185f84828501611829565b91505092915050565b5f8115159050919050565b61187c81611868565b82525050565b5f6020820190506118955f830184611873565b92915050565b5f80fd5b5f80fd5b5f601f19601f8301169050919050565b7f4e487b71000000000000000000000000000000000000000000000000000000005f52604160045260245ffd5b6118e9826118a3565b810181811067ffffffffffffffff82111715611908576119076118b3565b5b80604052505050565b5f61191a6116e4565b905061192682826118e0565b919050565b5f67ffffffffffffffff821115611945576119446118b3565b5b61194e826118a3565b9050602081019050919050565b828183375f83830152505050565b5f61197b6119768461192b565b611911565b9050828152602081018484840111156119975761199661189f565b5b6119a284828561195b565b509392505050565b5f82601f8301126119be576119bd61189b565b5b81356119ce848260208601611969565b91505092915050565b5f602082840312156119ec576119eb6116ed565b5b5f82013567ffffffffffffffff811115611a0957611a086116f1565b5b611a15848285016119aa565b91505092915050565b5f60208284031215611a3357611a326116ed565b5b5f611a408482850161176e565b91505092915050565b5f81519050919050565b5f82825260208201905092915050565b8281835e5f83830152505050565b5f611a7b82611a49565b611a858185611a53565b9350611a95818560208601611a63565b611a9e816118a3565b840191505092915050565b5f6020820190508181035f830152611ac18184611a71565b905092915050565b5f67ffffffffffffffff821115611ae357611ae26118b3565b5b602082029050602081019050919050565b5f80fd5b5f611b0a611b0584611ac9565b611911565b90508083825260208201905060208402830185811115611b2d57611b2c611af4565b5b835b81811015611b565780611b42888261176e565b845260208401935050602081019050611b2f565b5050509392505050565b5f82601f830112611b7457611b7361189b565b5b8135611b84848260208601611af8565b91505092915050565b5f67ffffffffffffffff821115611ba757611ba66118b3565b5b611bb0826118a3565b9050602081019050919050565b5f611bcf611bca84611b8d565b611911565b905082815260208101848484011115611beb57611bea61189f565b5b611bf684828561195b565b509392505050565b5f82601f830112611c1257611c1161189b565b5b8135611c22848260208601611bbd565b91505092915050565b5f805f805f60a08688031215611c4457611c436116ed565b5b5f611c518882890161173b565b9550506020611c628882890161173b565b945050604086013567ffffffffffffffff811115611c8357611c826116f1565b5b611c8f88828901611b60565b935050606086013567ffffffffffffffff811115611cb057611caf6116f1565b5b611cbc88828901611b60565b925050608086013567ffffffffffffffff811115611cdd57611cdc6116f1565b5b611ce988828901611bfe565b9150509295509295909350565b5f67ffffffffffffffff821115611d1057611d0f6118b3565b5b602082029050602081019050919050565b5f611d33611d2e84611cf6565b611911565b90508083825260208201905060208402830185811115611d5657611d55611af4565b5b835b81811015611d7f5780611d6b888261173b565b845260208401935050602081019050611d58565b5050509392505050565b5f82601f830112611d9d57611d9c61189b565b5b8135611dad848260208601611d21565b91505092915050565b5f8060408385031215611dcc57611dcb6116ed565b5b5f83013567ffffffffffffffff811115611de957611de86116f1565b5b611df585828601611d89565b925050602083013567ffffffffffffffff811115611e1657611e156116f1565b5b611e2285828601611b60565b9150509250929050565b5f81519050919050565b5f82825260208201905092915050565b5f819050602082019050919050565b611e5e8161174f565b82525050565b5f611e6f8383611e55565b60208301905092915050565b5f602082019050919050565b5f611e9182611e2c565b611e9b8185611e36565b9350611ea683611e46565b805f5b83811015611ed6578151611ebd8882611e64565b9750611ec883611e7b565b925050600181019050611ea9565b5085935050505092915050565b5f6020820190508181035f830152611efb8184611e87565b905092915050565b5f805f8060808587031215611f1b57611f1a6116ed565b5b5f611f288782880161173b565b9450506020611f398782880161176e565b9350506040611f4a8782880161176e565b925050606085013567ffffffffffffffff811115611f6b57611f6a6116f1565b5b611f7787828801611bfe565b91505092959194509250565b611f8c81611714565b82525050565b5f602082019050611fa55f830184611f83565b92915050565b611fb481611868565b8114611fbe575f80fd5b50565b5f81359050611fcf81611fab565b92915050565b5f8060408385031215611feb57611fea6116ed565b5b5f611ff88582860161173b565b925050602061200985828601611fc1565b9150509250929050565b5f8060408385031215612029576120286116ed565b5b5f6120368582860161173b565b92505060206120478582860161173b565b9150509250929050565b5f805f805f60a0868803121561206a576120696116ed565b5b5f6120778882890161173b565b95505060206120888882890161173b565b94505060406120998882890161176e565b93505060606120aa8882890161176e565b925050608086013567ffffffffffffffff8111156120cb576120ca6116f1565b5b6120d788828901611bfe565b9150509295509295909350565b5f602082840312156120f9576120f86116ed565b5b5f6121068482850161173b565b91505092915050565b5f805f60608486031215612126576121256116ed565b5b5f6121338682870161173b565b93505060206121448682870161176e565b92505060406121558682870161176e565b9150509250925092565b7f4e487b71000000000000000000000000000000000000000000000000000000005f52602260045260245ffd5b5f60028204905060018216806121a357607f821691505b6020821081036121b6576121b561215f565b5b50919050565b5f6040820190506121cf5f830185611f83565b6121dc6020830184611f83565b9392505050565b5f6040820190506121f65f8301856117c0565b61220360208301846117c0565b9392505050565b7f4e487b71000000000000000000000000000000000000000000000000000000005f52603260045260245ffd5b5f819050815f5260205f209050919050565b5f6020601f8301049050919050565b5f82821b905092915050565b5f600883026122937fffffffffffffffffffffffffffffffffffffffffffffffffffffffffffffffff82612258565b61229d8683612258565b95508019841693508086168417925050509392505050565b5f819050919050565b5f6122d86122d36122ce8461174f565b6122b5565b61174f565b9050919050565b5f819050919050565b6122f1836122be565b6123056122fd826122df565b848454612264565b825550505050565b5f90565b61231961230d565b6123248184846122e8565b505050565b5b818110156123475761233c5f82612311565b60018101905061232a565b5050565b601f82111561238c5761235d81612237565b61236684612249565b81016020851015612375578190505b61238961238185612249565b830182612329565b50505b505050565b5f82821c905092915050565b5f6123ac5f1984600802612391565b1980831691505092915050565b5f6123c4838361239d565b9150826002028217905092915050565b6123dd82611a49565b67ffffffffffffffff8111156123f6576123f56118b3565b5b612400825461218c565b61240b82828561234b565b5f60209050601f83116001811461243c575f841561242a578287015190505b61243485826123b9565b86555061249b565b601f19841661244a86612237565b5f5b828110156124715784890151825560018201915060208501945060208101905061244c565b8683101561248e578489015161248a601f89168261239d565b8355505b6001600288020188555050505b505050505050565b5f6080820190506124b65f830187611f83565b6124c360208301866117c0565b6124d060408301856117c0565b6124dd60608301846117c0565b95945050505050565b7f4e487b71000000000000000000000000000000000000000000000000000000005f52601160045260245ffd5b5f61251d8261174f565b91506125288361174f565b92508282019050808211156125405761253f6124e6565b5b92915050565b5f6040820190508181035f83015261255e8185611e87565b905081810360208301526125728184611e87565b90509392505050565b5f81519050919050565b5f82825260208201905092915050565b5f61259f8261257b565b6125a98185612585565b93506125b9818560208601611a63565b6125c2816118a3565b840191505092915050565b5f60a0820190506125e05f830188611f83565b6125ed6020830187611f83565b6125fa60408301866117c0565b61260760608301856117c0565b81810360808301526126198184612595565b90509695505050505050565b5f8151905061263381611813565b92915050565b5f6020828403121561264e5761264d6116ed565b5b5f61265b84828501612625565b91505092915050565b5f60a0820190506126775f830188611f83565b6126846020830187611f83565b81810360408301526126968186611e87565b905081810360608301526126aa8185611e87565b905081810360808301526126be8184612595565b9050969550505050505056fea2646970667358221220fe4c5669394c825d0eb1d6f2f25a3046118e65d9df119bd9df2cb1e193b6cd2064736f6c63430008190033",
					"opcodes": "PUSH1 0x80 PUSH1 0x40 MSTORE CALLVALUE DUP1 ISZERO PUSH2 0xF JUMPI PUSH0 DUP1 REVERT JUMPDEST POP PUSH1 0x40 MLOAD PUSH2 0x2D74 CODESIZE SUB DUP1 PUSH2 0x2D74 DUP4 CODECOPY DUP2 DUP2 ADD PUSH1 0x40 MSTORE DUP2 ADD SWAP1 PUSH2 0x31 SWAP2 SWAP1 PUSH2 0x2EC JUMP JUMPDEST CALLER DUP2 PUSH2 0x42 DUP2 PUSH2 0xC9 PUSH1 0x20 SHL PUSH1 0x20 SHR JUMP JUMPDEST POP PUSH0 PUSH20 0xFFFFFFFFFFFFFFFFFFFFFFFFFFFFFFFFFFFFFFFF AND DUP2 PUSH20 0xFFFFFFFFFFFFFFFFFFFFFFFFFFFFFFFFFFFFFFFF AND SUB PUSH2 0xB3 JUMPI PUSH0 PUSH1 0x40 MLOAD PUSH32 0x1E4FBDF700000000000000000000000000000000000000000000000000000000 DUP2 MSTORE PUSH1 0x4 ADD PUSH2 0xAA SWAP2 SWAP1 PUSH2 0x372 JUMP JUMPDEST PUSH1 0x40 MLOAD DUP1 SWAP2 SUB SWAP1 REVERT JUMPDEST PUSH2 0xC2 DUP2 PUSH2 0xDC PUSH1 0x20 SHL PUSH1 0x20 SHR JUMP JUMPDEST POP POP PUSH2 0x667 JUMP JUMPDEST DUP1 PUSH1 0x2 SWAP1 DUP2 PUSH2 0xD8 SWAP2 SWAP1 PUSH2 0x598 JUMP JUMPDEST POP POP JUMP JUMPDEST PUSH0 PUSH1 0x3 PUSH0 SWAP1 SLOAD SWAP1 PUSH2 0x100 EXP SWAP1 DIV PUSH20 0xFFFFFFFFFFFFFFFFFFFFFFFFFFFFFFFFFFFFFFFF AND SWAP1 POP DUP2 PUSH1 0x3 PUSH0 PUSH2 0x100 EXP DUP2 SLOAD DUP2 PUSH20 0xFFFFFFFFFFFFFFFFFFFFFFFFFFFFFFFFFFFFFFFF MUL NOT AND SWAP1 DUP4 PUSH20 0xFFFFFFFFFFFFFFFFFFFFFFFFFFFFFFFFFFFFFFFF AND MUL OR SWAP1 SSTORE POP DUP2 PUSH20 0xFFFFFFFFFFFFFFFFFFFFFFFFFFFFFFFFFFFFFFFF AND DUP2 PUSH20 0xFFFFFFFFFFFFFFFFFFFFFFFFFFFFFFFFFFFFFFFF AND PUSH32 0x8BE0079C531659141344CD1FD0A4F28419497F9722A3DAAFE3B4186F6B6457E0 PUSH1 0x40 MLOAD PUSH1 0x40 MLOAD DUP1 SWAP2 SUB SWAP1 LOG3 POP POP JUMP JUMPDEST PUSH0 PUSH1 0x40 MLOAD SWAP1 POP SWAP1 JUMP JUMPDEST PUSH0 DUP1 REVERT JUMPDEST PUSH0 DUP1 REVERT JUMPDEST PUSH0 DUP1 REVERT JUMPDEST PUSH0 DUP1 REVERT JUMPDEST PUSH0 PUSH1 0x1F NOT PUSH1 0x1F DUP4 ADD AND SWAP1 POP SWAP2 SWAP1 POP JUMP JUMPDEST PUSH32 0x4E487B7100000000000000000000000000000000000000000000000000000000 PUSH0 MSTORE PUSH1 0x41 PUSH1 0x4 MSTORE PUSH1 0x24 PUSH0 REVERT JUMPDEST PUSH2 0x1FE DUP3 PUSH2 0x1B8 JUMP JUMPDEST DUP2 ADD DUP2 DUP2 LT PUSH8 0xFFFFFFFFFFFFFFFF DUP3 GT OR ISZERO PUSH2 0x21D JUMPI PUSH2 0x21C PUSH2 0x1C8 JUMP JUMPDEST JUMPDEST DUP1 PUSH1 0x40 MSTORE POP POP POP JUMP JUMPDEST PUSH0 PUSH2 0x22F PUSH2 0x19F JUMP JUMPDEST SWAP1 POP PUSH2 0x23B DUP3 DUP3 PUSH2 0x1F5 JUMP JUMPDEST SWAP2 SWAP1 POP JUMP JUMPDEST PUSH0 PUSH8 0xFFFFFFFFFFFFFFFF DUP3 GT ISZERO PUSH2 0x25A JUMPI PUSH2 0x259 PUSH2 0x1C8 JUMP JUMPDEST JUMPDEST PUSH2 0x263 DUP3 PUSH2 0x1B8 JUMP JUMPDEST SWAP1 POP PUSH1 0x20 DUP2 ADD SWAP1 POP SWAP2 SWAP1 POP JUMP JUMPDEST DUP3 DUP2 DUP4 MCOPY PUSH0 DUP4 DUP4 ADD MSTORE POP POP POP JUMP JUMPDEST PUSH0 PUSH2 0x290 PUSH2 0x28B DUP5 PUSH2 0x240 JUMP JUMPDEST PUSH2 0x226 JUMP JUMPDEST SWAP1 POP DUP3 DUP2 MSTORE PUSH1 0x20 DUP2 ADD DUP5 DUP5 DUP5 ADD GT ISZERO PUSH2 0x2AC JUMPI PUSH2 0x2AB PUSH2 0x1B4 JUMP JUMPDEST JUMPDEST PUSH2 0x2B7 DUP5 DUP3 DUP6 PUSH2 0x270 JUMP JUMPDEST POP SWAP4 SWAP3 POP POP POP JUMP JUMPDEST PUSH0 DUP3 PUSH1 0x1F DUP4 ADD SLT PUSH2 0x2D3 JUMPI PUSH2 0x2D2 PUSH2 0x1B0 JUMP JUMPDEST JUMPDEST DUP2 MLOAD PUSH2 0x2E3 DUP5 DUP3 PUSH1 0x20 DUP7 ADD PUSH2 0x27E JUMP JUMPDEST SWAP2 POP POP SWAP3 SWAP2 POP POP JUMP JUMPDEST PUSH0 PUSH1 0x20 DUP3 DUP5 SUB SLT ISZERO PUSH2 0x301 JUMPI PUSH2 0x300 PUSH2 0x1A8 JUMP JUMPDEST JUMPDEST PUSH0 DUP3 ADD MLOAD PUSH8 0xFFFFFFFFFFFFFFFF DUP2 GT ISZERO PUSH2 0x31E JUMPI PUSH2 0x31D PUSH2 0x1AC JUMP JUMPDEST JUMPDEST PUSH2 0x32A DUP5 DUP3 DUP6 ADD PUSH2 0x2BF JUMP JUMPDEST SWAP2 POP POP SWAP3 SWAP2 POP POP JUMP JUMPDEST PUSH0 PUSH20 0xFFFFFFFFFFFFFFFFFFFFFFFFFFFFFFFFFFFFFFFF DUP3 AND SWAP1 POP SWAP2 SWAP1 POP JUMP JUMPDEST PUSH0 PUSH2 0x35C DUP3 PUSH2 0x333 JUMP JUMPDEST SWAP1 POP SWAP2 SWAP1 POP JUMP JUMPDEST PUSH2 0x36C DUP2 PUSH2 0x352 JUMP JUMPDEST DUP3 MSTORE POP POP JUMP JUMPDEST PUSH0 PUSH1 0x20 DUP3 ADD SWAP1 POP PUSH2 0x385 PUSH0 DUP4 ADD DUP5 PUSH2 0x363 JUMP JUMPDEST SWAP3 SWAP2 POP POP JUMP JUMPDEST PUSH0 DUP2 MLOAD SWAP1 POP SWAP2 SWAP1 POP JUMP JUMPDEST PUSH32 0x4E487B7100000000000000000000000000000000000000000000000000000000 PUSH0 MSTORE PUSH1 0x22 PUSH1 0x4 MSTORE PUSH1 0x24 PUSH0 REVERT JUMPDEST PUSH0 PUSH1 0x2 DUP3 DIV SWAP1 POP PUSH1 0x1 DUP3 AND DUP1 PUSH2 0x3D9 JUMPI PUSH1 0x7F DUP3 AND SWAP2 POP JUMPDEST PUSH1 0x20 DUP3 LT DUP2 SUB PUSH2 0x3EC JUMPI PUSH2 0x3EB PUSH2 0x395 JUMP JUMPDEST JUMPDEST POP SWAP2 SWAP1 POP JUMP JUMPDEST PUSH0 DUP2 SWAP1 POP DUP2 PUSH0 MSTORE PUSH1 0x20 PUSH0 KECCAK256 SWAP1 POP SWAP2 SWAP1 POP JUMP JUMPDEST PUSH0 PUSH1 0x20 PUSH1 0x1F DUP4 ADD DIV SWAP1 POP SWAP2 SWAP1 POP JUMP JUMPDEST PUSH0 DUP3 DUP3 SHL SWAP1 POP SWAP3 SWAP2 POP POP JUMP JUMPDEST PUSH0 PUSH1 0x8 DUP4 MUL PUSH2 0x44E PUSH32 0xFFFFFFFFFFFFFFFFFFFFFFFFFFFFFFFFFFFFFFFFFFFFFFFFFFFFFFFFFFFFFFFF DUP3 PUSH2 0x413 JUMP JUMPDEST PUSH2 0x458 DUP7 DUP4 PUSH2 0x413 JUMP JUMPDEST SWAP6 POP DUP1 NOT DUP5 AND SWAP4 POP DUP1 DUP7 AND DUP5 OR SWAP3 POP POP POP SWAP4 SWAP3 POP POP POP JUMP JUMPDEST PUSH0 DUP2 SWAP1 POP SWAP2 SWAP1 POP JUMP JUMPDEST PUSH0 DUP2 SWAP1 POP SWAP2 SWAP1 POP JUMP JUMPDEST PUSH0 PUSH2 0x49C PUSH2 0x497 PUSH2 0x492 DUP5 PUSH2 0x470 JUMP JUMPDEST PUSH2 0x479 JUMP JUMPDEST PUSH2 0x470 JUMP JUMPDEST SWAP1 POP SWAP2 SWAP1 POP JUMP JUMPDEST PUSH0 DUP2 SWAP1 POP SWAP2 SWAP1 POP JUMP JUMPDEST PUSH2 0x4B5 DUP4 PUSH2 0x482 JUMP JUMPDEST PUSH2 0x4C9 PUSH2 0x4C1 DUP3 PUSH2 0x4A3 JUMP JUMPDEST DUP5 DUP5 SLOAD PUSH2 0x41F JUMP JUMPDEST DUP3 SSTORE POP POP POP POP JUMP JUMPDEST PUSH0 SWAP1 JUMP JUMPDEST PUSH2 0x4DD PUSH2 0x4D1 JUMP JUMPDEST PUSH2 0x4E8 DUP2 DUP5 DUP5 PUSH2 0x4AC JUMP JUMPDEST POP POP POP JUMP JUMPDEST JUMPDEST DUP2 DUP2 LT ISZERO PUSH2 0x50B JUMPI PUSH2 0x500 PUSH0 DUP3 PUSH2 0x4D5 JUMP JUMPDEST PUSH1 0x1 DUP2 ADD SWAP1 POP PUSH2 0x4EE JUMP JUMPDEST POP POP JUMP JUMPDEST PUSH1 0x1F DUP3 GT ISZERO PUSH2 0x550 JUMPI PUSH2 0x521 DUP2 PUSH2 0x3F2 JUMP JUMPDEST PUSH2 0x52A DUP5 PUSH2 0x404 JUMP JUMPDEST DUP2 ADD PUSH1 0x20 DUP6 LT ISZERO PUSH2 0x539 JUMPI DUP2 SWAP1 POP JUMPDEST PUSH2 0x54D PUSH2 0x545 DUP6 PUSH2 0x404 JUMP JUMPDEST DUP4 ADD DUP3 PUSH2 0x4ED JUMP JUMPDEST POP POP JUMPDEST POP POP POP JUMP JUMPDEST PUSH0 DUP3 DUP3 SHR SWAP1 POP SWAP3 SWAP2 POP POP JUMP JUMPDEST PUSH0 PUSH2 0x570 PUSH0 NOT DUP5 PUSH1 0x8 MUL PUSH2 0x555 JUMP JUMPDEST NOT DUP1 DUP4 AND SWAP2 POP POP SWAP3 SWAP2 POP POP JUMP JUMPDEST PUSH0 PUSH2 0x588 DUP4 DUP4 PUSH2 0x561 JUMP JUMPDEST SWAP2 POP DUP3 PUSH1 0x2 MUL DUP3 OR SWAP1 POP SWAP3 SWAP2 POP POP JUMP JUMPDEST PUSH2 0x5A1 DUP3 PUSH2 0x38B JUMP JUMPDEST PUSH8 0xFFFFFFFFFFFFFFFF DUP2 GT ISZERO PUSH2 0x5BA JUMPI PUSH2 0x5B9 PUSH2 0x1C8 JUMP JUMPDEST JUMPDEST PUSH2 0x5C4 DUP3 SLOAD PUSH2 0x3C2 JUMP JUMPDEST PUSH2 0x5CF DUP3 DUP3 DUP6 PUSH2 0x50F JUMP JUMPDEST PUSH0 PUSH1 0x20 SWAP1 POP PUSH1 0x1F DUP4 GT PUSH1 0x1 DUP2 EQ PUSH2 0x600 JUMPI PUSH0 DUP5 ISZERO PUSH2 0x5EE JUMPI DUP3 DUP8 ADD MLOAD SWAP1 POP JUMPDEST PUSH2 0x5F8 DUP6 DUP3 PUSH2 0x57D JUMP JUMPDEST DUP7 SSTORE POP PUSH2 0x65F JUMP JUMPDEST PUSH1 0x1F NOT DUP5 AND PUSH2 0x60E DUP7 PUSH2 0x3F2 JUMP JUMPDEST PUSH0 JUMPDEST DUP3 DUP2 LT ISZERO PUSH2 0x635 JUMPI DUP5 DUP10 ADD MLOAD DUP3 SSTORE PUSH1 0x1 DUP3 ADD SWAP2 POP PUSH1 0x20 DUP6 ADD SWAP5 POP PUSH1 0x20 DUP2 ADD SWAP1 POP PUSH2 0x610 JUMP JUMPDEST DUP7 DUP4 LT ISZERO PUSH2 0x652 JUMPI DUP5 DUP10 ADD MLOAD PUSH2 0x64E PUSH1 0x1F DUP10 AND DUP3 PUSH2 0x561 JUMP JUMPDEST DUP4 SSTORE POP JUMPDEST PUSH1 0x1 PUSH1 0x2 DUP9 MUL ADD DUP9 SSTORE POP POP POP JUMPDEST POP POP POP POP POP POP JUMP JUMPDEST PUSH2 0x2700 DUP1 PUSH2 0x674 PUSH0 CODECOPY PUSH0 RETURN INVALID PUSH1 0x80 PUSH1 0x40 MSTORE CALLVALUE DUP1 ISZERO PUSH2 0xF JUMPI PUSH0 DUP1 REVERT JUMPDEST POP PUSH1 0x4 CALLDATASIZE LT PUSH2 0xE7 JUMPI PUSH0 CALLDATALOAD PUSH1 0xE0 SHR DUP1 PUSH4 0x731133E9 GT PUSH2 0x8A JUMPI DUP1 PUSH4 0xE985E9C5 GT PUSH2 0x64 JUMPI DUP1 PUSH4 0xE985E9C5 EQ PUSH2 0x243 JUMPI DUP1 PUSH4 0xF242432A EQ PUSH2 0x273 JUMPI DUP1 PUSH4 0xF2FDE38B EQ PUSH2 0x28F JUMPI DUP1 PUSH4 0xF5298ACA EQ PUSH2 0x2AB JUMPI PUSH2 0xE7 JUMP JUMPDEST DUP1 PUSH4 0x731133E9 EQ PUSH2 0x1ED JUMPI DUP1 PUSH4 0x8DA5CB5B EQ PUSH2 0x209 JUMPI DUP1 PUSH4 0xA22CB465 EQ PUSH2 0x227 JUMPI PUSH2 0xE7 JUMP JUMPDEST DUP1 PUSH4 0xE89341C GT PUSH2 0xC6 JUMPI DUP1 PUSH4 0xE89341C EQ PUSH2 0x167 JUMPI DUP1 PUSH4 0x2EB2C2D6 EQ PUSH2 0x197 JUMPI DUP1 PUSH4 0x4E1273F4 EQ PUSH2 0x1B3 JUMPI DUP1 PUSH4 0x715018A6 EQ PUSH2 0x1E3 JUMPI PUSH2 0xE7 JUMP JUMPDEST DUP1 PUSH3 0xFDD58E EQ PUSH2 0xEB JUMPI DUP1 PUSH4 0x1FFC9A7 EQ PUSH2 0x11B JUMPI DUP1 PUSH4 0x2FE5305 EQ PUSH2 0x14B JUMPI JUMPDEST PUSH0 DUP1 REVERT JUMPDEST PUSH2 0x105 PUSH1 0x4 DUP1 CALLDATASIZE SUB DUP2 ADD SWAP1 PUSH2 0x100 SWAP2 SWAP1 PUSH2 0x1782 JUMP JUMPDEST PUSH2 0x2C7 JUMP JUMPDEST PUSH1 0x40 MLOAD PUSH2 0x112 SWAP2 SWAP1 PUSH2 0x17CF JUMP JUMPDEST PUSH1 0x40 MLOAD DUP1 SWAP2 SUB SWAP1 RETURN JUMPDEST PUSH2 0x135 PUSH1 0x4 DUP1 CALLDATASIZE SUB DUP2 ADD SWAP1 PUSH2 0x130 SWAP2 SWAP1 PUSH2 0x183D JUMP JUMPDEST PUSH2 0x31C JUMP JUMPDEST PUSH1 0x40 MLOAD PUSH2 0x142 SWAP2 SWAP1 PUSH2 0x1882 JUMP JUMPDEST PUSH1 0x40 MLOAD DUP1 SWAP2 SUB SWAP1 RETURN JUMPDEST PUSH2 0x165 PUSH1 0x4 DUP1 CALLDATASIZE SUB DUP2 ADD SWAP1 PUSH2 0x160 SWAP2 SWAP1 PUSH2 0x19D7 JUMP JUMPDEST PUSH2 0x3FD JUMP JUMPDEST STOP JUMPDEST PUSH2 0x181 PUSH1 0x4 DUP1 CALLDATASIZE SUB DUP2 ADD SWAP1 PUSH2 0x17C SWAP2 SWAP1 PUSH2 0x1A1E JUMP JUMPDEST PUSH2 0x411 JUMP JUMPDEST PUSH1 0x40 MLOAD PUSH2 0x18E SWAP2 SWAP1 PUSH2 0x1AA9 JUMP JUMPDEST PUSH1 0x40 MLOAD DUP1 SWAP2 SUB SWAP1 RETURN JUMPDEST PUSH2 0x1B1 PUSH1 0x4 DUP1 CALLDATASIZE SUB DUP2 ADD SWAP1 PUSH2 0x1AC SWAP2 SWAP1 PUSH2 0x1C2B JUMP JUMPDEST PUSH2 0x4A3 JUMP JUMPDEST STOP JUMPDEST PUSH2 0x1CD PUSH1 0x4 DUP1 CALLDATASIZE SUB DUP2 ADD SWAP1 PUSH2 0x1C8 SWAP2 SWAP1 PUSH2 0x1DB6 JUMP JUMPDEST PUSH2 0x54A JUMP JUMPDEST PUSH1 0x40 MLOAD PUSH2 0x1DA SWAP2 SWAP1 PUSH2 0x1EE3 JUMP JUMPDEST PUSH1 0x40 MLOAD DUP1 SWAP2 SUB SWAP1 RETURN JUMPDEST PUSH2 0x1EB PUSH2 0x651 JUMP JUMPDEST STOP JUMPDEST PUSH2 0x207 PUSH1 0x4 DUP1 CALLDATASIZE SUB DUP2 ADD SWAP1 PUSH2 0x202 SWAP2 SWAP1 PUSH2 0x1F03 JUMP JUMPDEST PUSH2 0x664 JUMP JUMPDEST STOP JUMPDEST PUSH2 0x211 PUSH2 0x67E JUMP JUMPDEST PUSH1 0x40 MLOAD PUSH2 0x21E SWAP2 SWAP1 PUSH2 0x1F92 JUMP JUMPDEST PUSH1 0x40 MLOAD DUP1 SWAP2 SUB SWAP1 RETURN JUMPDEST PUSH2 0x241 PUSH1 0x4 DUP1 CALLDATASIZE SUB DUP2 ADD SWAP1 PUSH2 0x23C SWAP2 SWAP1 PUSH2 0x1FD5 JUMP JUMPDEST PUSH2 0x6A6 JUMP JUMPDEST STOP JUMPDEST PUSH2 0x25D PUSH1 0x4 DUP1 CALLDATASIZE SUB DUP2 ADD SWAP1 PUSH2 0x258 SWAP2 SWAP1 PUSH2 0x2013 JUMP JUMPDEST PUSH2 0x6BC JUMP JUMPDEST PUSH1 0x40 MLOAD PUSH2 0x26A SWAP2 SWAP1 PUSH2 0x1882 JUMP JUMPDEST PUSH1 0x40 MLOAD DUP1 SWAP2 SUB SWAP1 RETURN JUMPDEST PUSH2 0x28D PUSH1 0x4 DUP1 CALLDATASIZE SUB DUP2 ADD SWAP1 PUSH2 0x288 SWAP2 SWAP1 PUSH2 0x2051 JUMP JUMPDEST PUSH2 0x74A JUMP JUMPDEST STOP JUMPDEST PUSH2 0x2A9 PUSH1 0x4 DUP1 CALLDATASIZE SUB DUP2 ADD SWAP1 PUSH2 0x2A4 SWAP2 SWAP1 PUSH2 0x20E4 JUMP JUMPDEST PUSH2 0x7F1 JUMP JUMPDEST STOP JUMPDEST PUSH2 0x2C5 PUSH1 0x4 DUP1 CALLDATASIZE SUB DUP2 ADD SWAP1 PUSH2 0x2C0 SWAP2 SWAP1 PUSH2 0x210F JUMP JUMPDEST PUSH2 0x875 JUMP JUMPDEST STOP JUMPDEST PUSH0 DUP1 PUSH0 DUP4 DUP2 MSTORE PUSH1 0x20 ADD SWAP1 DUP2 MSTORE PUSH1 0x20 ADD PUSH0 KECCAK256 PUSH0 DUP5 PUSH20 0xFFFFFFFFFFFFFFFFFFFFFFFFFFFFFFFFFFFFFFFF AND PUSH20 0xFFFFFFFFFFFFFFFFFFFFFFFFFFFFFFFFFFFFFFFF AND DUP2 MSTORE PUSH1 0x20 ADD SWAP1 DUP2 MSTORE PUSH1 0x20 ADD PUSH0 KECCAK256 SLOAD SWAP1 POP SWAP3 SWAP2 POP POP JUMP JUMPDEST PUSH0 PUSH32 0xD9B67A2600000000000000000000000000000000000000000000000000000000 PUSH28 0xFFFFFFFFFFFFFFFFFFFFFFFFFFFFFFFFFFFFFFFFFFFFFFFFFFFFFFFF NOT AND DUP3 PUSH28 0xFFFFFFFFFFFFFFFFFFFFFFFFFFFFFFFFFFFFFFFFFFFFFFFFFFFFFFFF NOT AND EQ DUP1 PUSH2 0x3E6 JUMPI POP PUSH32 0xE89341C00000000000000000000000000000000000000000000000000000000 PUSH28 0xFFFFFFFFFFFFFFFFFFFFFFFFFFFFFFFFFFFFFFFFFFFFFFFFFFFFFFFF NOT AND DUP3 PUSH28 0xFFFFFFFFFFFFFFFFFFFFFFFFFFFFFFFFFFFFFFFFFFFFFFFFFFFFFFFF NOT AND EQ JUMPDEST DUP1 PUSH2 0x3F6 JUMPI POP PUSH2 0x3F5 DUP3 PUSH2 0x88D JUMP JUMPDEST JUMPDEST SWAP1 POP SWAP2 SWAP1 POP JUMP JUMPDEST PUSH2 0x405 PUSH2 0x8F6 JUMP JUMPDEST PUSH2 0x40E DUP2 PUSH2 0x97D JUMP JUMPDEST POP JUMP JUMPDEST PUSH1 0x60 PUSH1 0x2 DUP1 SLOAD PUSH2 0x420 SWAP1 PUSH2 0x218C JUMP JUMPDEST DUP1 PUSH1 0x1F ADD PUSH1 0x20 DUP1 SWAP2 DIV MUL PUSH1 0x20 ADD PUSH1 0x40 MLOAD SWAP1 DUP2 ADD PUSH1 0x40 MSTORE DUP1 SWAP3 SWAP2 SWAP1 DUP2 DUP2 MSTORE PUSH1 0x20 ADD DUP3 DUP1 SLOAD PUSH2 0x44C SWAP1 PUSH2 0x218C JUMP JUMPDEST DUP1 ISZERO PUSH2 0x497 JUMPI DUP1 PUSH1 0x1F LT PUSH2 0x46E JUMPI PUSH2 0x100 DUP1 DUP4 SLOAD DIV MUL DUP4 MSTORE SWAP2 PUSH1 0x20 ADD SWAP2 PUSH2 0x497 JUMP JUMPDEST DUP3 ADD SWAP2 SWAP1 PUSH0 MSTORE PUSH1 0x20 PUSH0 KECCAK256 SWAP1 JUMPDEST DUP2 SLOAD DUP2 MSTORE SWAP1 PUSH1 0x1 ADD SWAP1 PUSH1 0x20 ADD DUP1 DUP4 GT PUSH2 0x47A JUMPI DUP3 SWAP1 SUB PUSH1 0x1F AND DUP3 ADD SWAP2 JUMPDEST POP POP POP POP POP SWAP1 POP SWAP2 SWAP1 POP JUMP JUMPDEST PUSH0 PUSH2 0x4AC PUSH2 0x990 JUMP JUMPDEST SWAP1 POP DUP1 PUSH20 0xFFFFFFFFFFFFFFFFFFFFFFFFFFFFFFFFFFFFFFFF AND DUP7 PUSH20 0xFFFFFFFFFFFFFFFFFFFFFFFFFFFFFFFFFFFFFFFF AND EQ ISZERO DUP1 ISZERO PUSH2 0x4F1 JUMPI POP PUSH2 0x4EF DUP7 DUP3 PUSH2 0x6BC JUMP JUMPDEST ISZERO JUMPDEST ISZERO PUSH2 0x535 JUMPI DUP1 DUP7 PUSH1 0x40 MLOAD PUSH32 0xE237D92200000000000000000000000000000000000000000000000000000000 DUP2 MSTORE PUSH1 0x4 ADD PUSH2 0x52C SWAP3 SWAP2 SWAP1 PUSH2 0x21BC JUMP JUMPDEST PUSH1 0x40 MLOAD DUP1 SWAP2 SUB SWAP1 REVERT JUMPDEST PUSH2 0x542 DUP7 DUP7 DUP7 DUP7 DUP7 PUSH2 0x997 JUMP JUMPDEST POP POP POP POP POP POP JUMP JUMPDEST PUSH1 0x60 DUP2 MLOAD DUP4 MLOAD EQ PUSH2 0x596 JUMPI DUP2 MLOAD DUP4 MLOAD PUSH1 0x40 MLOAD PUSH32 0x5B05999100000000000000000000000000000000000000000000000000000000 DUP2 MSTORE PUSH1 0x4 ADD PUSH2 0x58D SWAP3 SWAP2 SWAP1 PUSH2 0x21E3 JUMP JUMPDEST PUSH1 0x40 MLOAD DUP1 SWAP2 SUB SWAP1 REVERT JUMPDEST PUSH0 DUP4 MLOAD PUSH8 0xFFFFFFFFFFFFFFFF DUP2 GT ISZERO PUSH2 0x5B2 JUMPI PUSH2 0x5B1 PUSH2 0x18B3 JUMP JUMPDEST JUMPDEST PUSH1 0x40 MLOAD SWAP1 DUP1 DUP3 MSTORE DUP1 PUSH1 0x20 MUL PUSH1 0x20 ADD DUP3 ADD PUSH1 0x40 MSTORE DUP1 ISZERO PUSH2 0x5E0 JUMPI DUP2 PUSH1 0x20 ADD PUSH1 0x20 DUP3 MUL DUP1 CALLDATASIZE DUP4 CALLDATACOPY DUP1 DUP3 ADD SWAP2 POP POP SWAP1 POP JUMPDEST POP SWAP1 POP PUSH0 JUMPDEST DUP5 MLOAD DUP2 LT ISZERO PUSH2 0x646 JUMPI PUSH2 0x61C PUSH2 0x604 DUP3 DUP8 PUSH2 0xA8B SWAP1 SWAP2 SWAP1 PUSH4 0xFFFFFFFF AND JUMP JUMPDEST PUSH2 0x617 DUP4 DUP8 PUSH2 0xA9E SWAP1 SWAP2 SWAP1 PUSH4 0xFFFFFFFF AND JUMP JUMPDEST PUSH2 0x2C7 JUMP JUMPDEST DUP3 DUP3 DUP2 MLOAD DUP2 LT PUSH2 0x62F JUMPI PUSH2 0x62E PUSH2 0x220A JUMP JUMPDEST JUMPDEST PUSH1 0x20 MUL PUSH1 0x20 ADD ADD DUP2 DUP2 MSTORE POP POP DUP1 PUSH1 0x1 ADD SWAP1 POP PUSH2 0x5E5 JUMP JUMPDEST POP DUP1 SWAP2 POP POP SWAP3 SWAP2 POP POP JUMP JUMPDEST PUSH2 0x659 PUSH2 0x8F6 JUMP JUMPDEST PUSH2 0x662 PUSH0 PUSH2 0xAB1 JUMP JUMPDEST JUMP JUMPDEST PUSH2 0x66C PUSH2 0x8F6 JUMP JUMPDEST PUSH2 0x678 DUP5 DUP5 DUP5 DUP5 PUSH2 0xB74 JUMP JUMPDEST POP POP POP POP JUMP JUMPDEST PUSH0 PUSH1 0x3 PUSH0 SWAP1 SLOAD SWAP1 PUSH2 0x100 EXP SWAP1 DIV PUSH20 0xFFFFFFFFFFFFFFFFFFFFFFFFFFFFFFFFFFFFFFFF AND SWAP1 POP SWAP1 JUMP JUMPDEST PUSH2 0x6B8 PUSH2 0x6B1 PUSH2 0x990 JUMP JUMPDEST DUP4 DUP4 PUSH2 0xC09 JUMP JUMPDEST POP POP JUMP JUMPDEST PUSH0 PUSH1 0x1 PUSH0 DUP5 PUSH20 0xFFFFFFFFFFFFFFFFFFFFFFFFFFFFFFFFFFFFFFFF AND PUSH20 0xFFFFFFFFFFFFFFFFFFFFFFFFFFFFFFFFFFFFFFFF AND DUP2 MSTORE PUSH1 0x20 ADD SWAP1 DUP2 MSTORE PUSH1 0x20 ADD PUSH0 KECCAK256 PUSH0 DUP4 PUSH20 0xFFFFFFFFFFFFFFFFFFFFFFFFFFFFFFFFFFFFFFFF AND PUSH20 0xFFFFFFFFFFFFFFFFFFFFFFFFFFFFFFFFFFFFFFFF AND DUP2 MSTORE PUSH1 0x20 ADD SWAP1 DUP2 MSTORE PUSH1 0x20 ADD PUSH0 KECCAK256 PUSH0 SWAP1 SLOAD SWAP1 PUSH2 0x100 EXP SWAP1 DIV PUSH1 0xFF AND SWAP1 POP SWAP3 SWAP2 POP POP JUMP JUMPDEST PUSH0 PUSH2 0x753 PUSH2 0x990 JUMP JUMPDEST SWAP1 POP DUP1 PUSH20 0xFFFFFFFFFFFFFFFFFFFFFFFFFFFFFFFFFFFFFFFF AND DUP7 PUSH20 0xFFFFFFFFFFFFFFFFFFFFFFFFFFFFFFFFFFFFFFFF AND EQ ISZERO DUP1 ISZERO PUSH2 0x798 JUMPI POP PUSH2 0x796 DUP7 DUP3 PUSH2 0x6BC JUMP JUMPDEST ISZERO JUMPDEST ISZERO PUSH2 0x7DC JUMPI DUP1 DUP7 PUSH1 0x40 MLOAD PUSH32 0xE237D92200000000000000000000000000000000000000000000000000000000 DUP2 MSTORE PUSH1 0x4 ADD PUSH2 0x7D3 SWAP3 SWAP2 SWAP1 PUSH2 0x21BC JUMP JUMPDEST PUSH1 0x40 MLOAD DUP1 SWAP2 SUB SWAP1 REVERT JUMPDEST PUSH2 0x7E9 DUP7 DUP7 DUP7 DUP7 DUP7 PUSH2 0xD72 JUMP JUMPDEST POP POP POP POP POP POP JUMP JUMPDEST PUSH2 0x7F9 PUSH2 0x8F6 JUMP JUMPDEST PUSH0 PUSH20 0xFFFFFFFFFFFFFFFFFFFFFFFFFFFFFFFFFFFFFFFF AND DUP2 PUSH20 0xFFFFFFFFFFFFFFFFFFFFFFFFFFFFFFFFFFFFFFFF AND SUB PUSH2 0x869 JUMPI PUSH0 PUSH1 0x40 MLOAD PUSH32 0x1E4FBDF700000000000000000000000000000000000000000000000000000000 DUP2 MSTORE PUSH1 0x4 ADD PUSH2 0x860 SWAP2 SWAP1 PUSH2 0x1F92 JUMP JUMPDEST PUSH1 0x40 MLOAD DUP1 SWAP2 SUB SWAP1 REVERT JUMPDEST PUSH2 0x872 DUP2 PUSH2 0xAB1 JUMP JUMPDEST POP JUMP JUMPDEST PUSH2 0x87D PUSH2 0x8F6 JUMP JUMPDEST PUSH2 0x888 DUP4 DUP4 DUP4 PUSH2 0xE78 JUMP JUMPDEST POP POP POP JUMP JUMPDEST PUSH0 PUSH32 0x1FFC9A700000000000000000000000000000000000000000000000000000000 PUSH28 0xFFFFFFFFFFFFFFFFFFFFFFFFFFFFFFFFFFFFFFFFFFFFFFFFFFFFFFFF NOT AND DUP3 PUSH28 0xFFFFFFFFFFFFFFFFFFFFFFFFFFFFFFFFFFFFFFFFFFFFFFFFFFFFFFFF NOT AND EQ SWAP1 POP SWAP2 SWAP1 POP JUMP JUMPDEST PUSH2 0x8FE PUSH2 0x990 JUMP JUMPDEST PUSH20 0xFFFFFFFFFFFFFFFFFFFFFFFFFFFFFFFFFFFFFFFF AND PUSH2 0x91C PUSH2 0x67E JUMP JUMPDEST PUSH20 0xFFFFFFFFFFFFFFFFFFFFFFFFFFFFFFFFFFFFFFFF AND EQ PUSH2 0x97B JUMPI PUSH2 0x93F PUSH2 0x990 JUMP JUMPDEST PUSH1 0x40 MLOAD PUSH32 0x118CDAA700000000000000000000000000000000000000000000000000000000 DUP2 MSTORE PUSH1 0x4 ADD PUSH2 0x972 SWAP2 SWAP1 PUSH2 0x1F92 JUMP JUMPDEST PUSH1 0x40 MLOAD DUP1 SWAP2 SUB SWAP1 REVERT JUMPDEST JUMP JUMPDEST DUP1 PUSH1 0x2 SWAP1 DUP2 PUSH2 0x98C SWAP2 SWAP1 PUSH2 0x23D4 JUMP JUMPDEST POP POP JUMP JUMPDEST PUSH0 CALLER SWAP1 POP SWAP1 JUMP JUMPDEST PUSH0 PUSH20 0xFFFFFFFFFFFFFFFFFFFFFFFFFFFFFFFFFFFFFFFF AND DUP5 PUSH20 0xFFFFFFFFFFFFFFFFFFFFFFFFFFFFFFFFFFFFFFFF AND SUB PUSH2 0xA07 JUMPI PUSH0 PUSH1 0x40 MLOAD PUSH32 0x57F447CE00000000000000000000000000000000000000000000000000000000 DUP2 MSTORE PUSH1 0x4 ADD PUSH2 0x9FE SWAP2 SWAP1 PUSH2 0x1F92 JUMP JUMPDEST PUSH1 0x40 MLOAD DUP1 SWAP2 SUB SWAP1 REVERT JUMPDEST PUSH0 PUSH20 0xFFFFFFFFFFFFFFFFFFFFFFFFFFFFFFFFFFFFFFFF AND DUP6 PUSH20 0xFFFFFFFFFFFFFFFFFFFFFFFFFFFFFFFFFFFFFFFF AND SUB PUSH2 0xA77 JUMPI PUSH0 PUSH1 0x40 MLOAD PUSH32 0x1A8351400000000000000000000000000000000000000000000000000000000 DUP2 MSTORE PUSH1 0x4 ADD PUSH2 0xA6E SWAP2 SWAP1 PUSH2 0x1F92 JUMP JUMPDEST PUSH1 0x40 MLOAD DUP1 SWAP2 SUB SWAP1 REVERT JUMPDEST PUSH2 0xA84 DUP6 DUP6 DUP6 DUP6 DUP6 PUSH2 0xF1A JUMP JUMPDEST POP POP POP POP POP JUMP JUMPDEST PUSH0 PUSH1 0x20 DUP3 MUL PUSH1 0x20 DUP5 ADD ADD MLOAD SWAP1 POP SWAP3 SWAP2 POP POP JUMP JUMPDEST PUSH0 PUSH1 0x20 DUP3 MUL PUSH1 0x20 DUP5 ADD ADD MLOAD SWAP1 POP SWAP3 SWAP2 POP POP JUMP JUMPDEST PUSH0 PUSH1 0x3 PUSH0 SWAP1 SLOAD SWAP1 PUSH2 0x100 EXP SWAP1 DIV PUSH20 0xFFFFFFFFFFFFFFFFFFFFFFFFFFFFFFFFFFFFFFFF AND SWAP1 POP DUP2 PUSH1 0x3 PUSH0 PUSH2 0x100 EXP DUP2 SLOAD DUP2 PUSH20 0xFFFFFFFFFFFFFFFFFFFFFFFFFFFFFFFFFFFFFFFF MUL NOT AND SWAP1 DUP4 PUSH20 0xFFFFFFFFFFFFFFFFFFFFFFFFFFFFFFFFFFFFFFFF AND MUL OR SWAP1 SSTORE POP DUP2 PUSH20 0xFFFFFFFFFFFFFFFFFFFFFFFFFFFFFFFFFFFFFFFF AND DUP2 PUSH20 0xFFFFFFFFFFFFFFFFFFFFFFFFFFFFFFFFFFFFFFFF AND PUSH32 0x8BE0079C531659141344CD1FD0A4F28419497F9722A3DAAFE3B4186F6B6457E0 PUSH1 0x40 MLOAD PUSH1 0x40 MLOAD DUP1 SWAP2 SUB SWAP1 LOG3 POP POP JUMP JUMPDEST PUSH0 PUSH20 0xFFFFFFFFFFFFFFFFFFFFFFFFFFFFFFFFFFFFFFFF AND DUP5 PUSH20 0xFFFFFFFFFFFFFFFFFFFFFFFFFFFFFFFFFFFFFFFF AND SUB PUSH2 0xBE4 JUMPI PUSH0 PUSH1 0x40 MLOAD PUSH32 0x57F447CE00000000000000000000000000000000000000000000000000000000 DUP2 MSTORE PUSH1 0x4 ADD PUSH2 0xBDB SWAP2 SWAP1 PUSH2 0x1F92 JUMP JUMPDEST PUSH1 0x40 MLOAD DUP1 SWAP2 SUB SWAP1 REVERT JUMPDEST PUSH0 DUP1 PUSH2 0xBF0 DUP6 DUP6 PUSH2 0xFC6 JUMP JUMPDEST SWAP2 POP SWAP2 POP PUSH2 0xC01 PUSH0 DUP8 DUP5 DUP5 DUP8 PUSH2 0xF1A JUMP JUMPDEST POP POP POP POP POP POP JUMP JUMPDEST PUSH0 PUSH20 0xFFFFFFFFFFFFFFFFFFFFFFFFFFFFFFFFFFFFFFFF AND DUP3 PUSH20 0xFFFFFFFFFFFFFFFFFFFFFFFFFFFFFFFFFFFFFFFF AND SUB PUSH2 0xC79 JUMPI PUSH0 PUSH1 0x40 MLOAD PUSH32 0xCED3E10000000000000000000000000000000000000000000000000000000000 DUP2 MSTORE PUSH1 0x4 ADD PUSH2 0xC70 SWAP2 SWAP1 PUSH2 0x1F92 JUMP JUMPDEST PUSH1 0x40 MLOAD DUP1 SWAP2 SUB SWAP1 REVERT JUMPDEST DUP1 PUSH1 0x1 PUSH0 DUP6 PUSH20 0xFFFFFFFFFFFFFFFFFFFFFFFFFFFFFFFFFFFFFFFF AND PUSH20 0xFFFFFFFFFFFFFFFFFFFFFFFFFFFFFFFFFFFFFFFF AND DUP2 MSTORE PUSH1 0x20 ADD SWAP1 DUP2 MSTORE PUSH1 0x20 ADD PUSH0 KECCAK256 PUSH0 DUP5 PUSH20 0xFFFFFFFFFFFFFFFFFFFFFFFFFFFFFFFFFFFFFFFF AND PUSH20 0xFFFFFFFFFFFFFFFFFFFFFFFFFFFFFFFFFFFFFFFF AND DUP2 MSTORE PUSH1 0x20 ADD SWAP1 DUP2 MSTORE PUSH1 0x20 ADD PUSH0 KECCAK256 PUSH0 PUSH2 0x100 EXP DUP2 SLOAD DUP2 PUSH1 0xFF MUL NOT AND SWAP1 DUP4 ISZERO ISZERO MUL OR SWAP1 SSTORE POP DUP2 PUSH20 0xFFFFFFFFFFFFFFFFFFFFFFFFFFFFFFFFFFFFFFFF AND DUP4 PUSH20 0xFFFFFFFFFFFFFFFFFFFFFFFFFFFFFFFFFFFFFFFF AND PUSH32 0x17307EAB39AB6107E8899845AD3D59BD9653F200F220920489CA2B5937696C31 DUP4 PUSH1 0x40 MLOAD PUSH2 0xD65 SWAP2 SWAP1 PUSH2 0x1882 JUMP JUMPDEST PUSH1 0x40 MLOAD DUP1 SWAP2 SUB SWAP1 LOG3 POP POP POP JUMP JUMPDEST PUSH0 PUSH20 0xFFFFFFFFFFFFFFFFFFFFFFFFFFFFFFFFFFFFFFFF AND DUP5 PUSH20 0xFFFFFFFFFFFFFFFFFFFFFFFFFFFFFFFFFFFFFFFF AND SUB PUSH2 0xDE2 JUMPI PUSH0 PUSH1 0x40 MLOAD PUSH32 0x57F447CE00000000000000000000000000000000000000000000000000000000 DUP2 MSTORE PUSH1 0x4 ADD PUSH2 0xDD9 SWAP2 SWAP1 PUSH2 0x1F92 JUMP JUMPDEST PUSH1 0x40 MLOAD DUP1 SWAP2 SUB SWAP1 REVERT JUMPDEST PUSH0 PUSH20 0xFFFFFFFFFFFFFFFFFFFFFFFFFFFFFFFFFFFFFFFF AND DUP6 PUSH20 0xFFFFFFFFFFFFFFFFFFFFFFFFFFFFFFFFFFFFFFFF AND SUB PUSH2 0xE52 JUMPI PUSH0 PUSH1 0x40 MLOAD PUSH32 0x1A8351400000000000000000000000000000000000000000000000000000000 DUP2 MSTORE PUSH1 0x4 ADD PUSH2 0xE49 SWAP2 SWAP1 PUSH2 0x1F92 JUMP JUMPDEST PUSH1 0x40 MLOAD DUP1 SWAP2 SUB SWAP1 REVERT JUMPDEST PUSH0 DUP1 PUSH2 0xE5E DUP6 DUP6 PUSH2 0xFC6 JUMP JUMPDEST SWAP2 POP SWAP2 POP PUSH2 0xE6F DUP8 DUP8 DUP5 DUP5 DUP8 PUSH2 0xF1A JUMP JUMPDEST POP POP POP POP POP POP POP JUMP JUMPDEST PUSH0 PUSH20 0xFFFFFFFFFFFFFFFFFFFFFFFFFFFFFFFFFFFFFFFF AND DUP4 PUSH20 0xFFFFFFFFFFFFFFFFFFFFFFFFFFFFFFFFFFFFFFFF AND SUB PUSH2 0xEE8 JUMPI PUSH0 PUSH1 0x40 MLOAD PUSH32 0x1A8351400000000000000000000000000000000000000000000000000000000 DUP2 MSTORE PUSH1 0x4 ADD PUSH2 0xEDF SWAP2 SWAP1 PUSH2 0x1F92 JUMP JUMPDEST PUSH1 0x40 MLOAD DUP1 SWAP2 SUB SWAP1 REVERT JUMPDEST PUSH0 DUP1 PUSH2 0xEF4 DUP5 DUP5 PUSH2 0xFC6 JUMP JUMPDEST SWAP2 POP SWAP2 POP PUSH2 0xF13 DUP6 PUSH0 DUP5 DUP5 PUSH1 0x40 MLOAD DUP1 PUSH1 0x20 ADD PUSH1 0x40 MSTORE DUP1 PUSH0 DUP2 MSTORE POP PUSH2 0xF1A JUMP JUMPDEST POP POP POP POP POP JUMP JUMPDEST PUSH2 0xF26 DUP6 DUP6 DUP6 DUP6 PUSH2 0xFF6 JUMP JUMPDEST PUSH0 PUSH20 0xFFFFFFFFFFFFFFFFFFFFFFFFFFFFFFFFFFFFFFFF AND DUP5 PUSH20 0xFFFFFFFFFFFFFFFFFFFFFFFFFFFFFFFFFFFFFFFF AND EQ PUSH2 0xFBF JUMPI PUSH0 PUSH2 0xF62 PUSH2 0x990 JUMP JUMPDEST SWAP1 POP PUSH1 0x1 DUP5 MLOAD SUB PUSH2 0xFAE JUMPI PUSH0 PUSH2 0xF81 PUSH0 DUP7 PUSH2 0xA9E SWAP1 SWAP2 SWAP1 PUSH4 0xFFFFFFFF AND JUMP JUMPDEST SWAP1 POP PUSH0 PUSH2 0xF97 PUSH0 DUP7 PUSH2 0xA9E SWAP1 SWAP2 SWAP1 PUSH4 0xFFFFFFFF AND JUMP JUMPDEST SWAP1 POP PUSH2 0xFA7 DUP4 DUP10 DUP10 DUP6 DUP6 DUP10 PUSH2 0x1386 JUMP JUMPDEST POP POP PUSH2 0xFBD JUMP JUMPDEST PUSH2 0xFBC DUP2 DUP8 DUP8 DUP8 DUP8 DUP8 PUSH2 0x1535 JUMP JUMPDEST JUMPDEST POP JUMPDEST POP POP POP POP POP JUMP JUMPDEST PUSH1 0x60 DUP1 PUSH1 0x40 MLOAD SWAP2 POP PUSH1 0x1 DUP3 MSTORE DUP4 PUSH1 0x20 DUP4 ADD MSTORE PUSH1 0x40 DUP3 ADD SWAP1 POP PUSH1 0x1 DUP2 MSTORE DUP3 PUSH1 0x20 DUP3 ADD MSTORE PUSH1 0x40 DUP2 ADD PUSH1 0x40 MSTORE SWAP3 POP SWAP3 SWAP1 POP JUMP JUMPDEST DUP1 MLOAD DUP3 MLOAD EQ PUSH2 0x1040 JUMPI DUP2 MLOAD DUP2 MLOAD PUSH1 0x40 MLOAD PUSH32 0x5B05999100000000000000000000000000000000000000000000000000000000 DUP2 MSTORE PUSH1 0x4 ADD PUSH2 0x1037 SWAP3 SWAP2 SWAP1 PUSH2 0x21E3 JUMP JUMPDEST PUSH1 0x40 MLOAD DUP1 SWAP2 SUB SWAP1 REVERT JUMPDEST PUSH0 PUSH2 0x1049 PUSH2 0x990 JUMP JUMPDEST SWAP1 POP PUSH0 JUMPDEST DUP4 MLOAD DUP2 LT ISZERO PUSH2 0x1245 JUMPI PUSH0 PUSH2 0x106A DUP3 DUP7 PUSH2 0xA9E SWAP1 SWAP2 SWAP1 PUSH4 0xFFFFFFFF AND JUMP JUMPDEST SWAP1 POP PUSH0 PUSH2 0x1080 DUP4 DUP7 PUSH2 0xA9E SWAP1 SWAP2 SWAP1 PUSH4 0xFFFFFFFF AND JUMP JUMPDEST SWAP1 POP PUSH0 PUSH20 0xFFFFFFFFFFFFFFFFFFFFFFFFFFFFFFFFFFFFFFFF AND DUP9 PUSH20 0xFFFFFFFFFFFFFFFFFFFFFFFFFFFFFFFFFFFFFFFF AND EQ PUSH2 0x11A3 JUMPI PUSH0 DUP1 PUSH0 DUP5 DUP2 MSTORE PUSH1 0x20 ADD SWAP1 DUP2 MSTORE PUSH1 0x20 ADD PUSH0 KECCAK256 PUSH0 DUP11 PUSH20 0xFFFFFFFFFFFFFFFFFFFFFFFFFFFFFFFFFFFFFFFF AND PUSH20 0xFFFFFFFFFFFFFFFFFFFFFFFFFFFFFFFFFFFFFFFF AND DUP2 MSTORE PUSH1 0x20 ADD SWAP1 DUP2 MSTORE PUSH1 0x20 ADD PUSH0 KECCAK256 SLOAD SWAP1 POP DUP2 DUP2 LT ISZERO PUSH2 0x114F JUMPI DUP9 DUP2 DUP4 DUP6 PUSH1 0x40 MLOAD PUSH32 0x3DEE4C500000000000000000000000000000000000000000000000000000000 DUP2 MSTORE PUSH1 0x4 ADD PUSH2 0x1146 SWAP5 SWAP4 SWAP3 SWAP2 SWAP1 PUSH2 0x24A3 JUMP JUMPDEST PUSH1 0x40 MLOAD DUP1 SWAP2 SUB SWAP1 REVERT JUMPDEST DUP2 DUP2 SUB PUSH0 DUP1 DUP6 DUP2 MSTORE PUSH1 0x20 ADD SWAP1 DUP2 MSTORE PUSH1 0x20 ADD PUSH0 KECCAK256 PUSH0 DUP12 PUSH20 0xFFFFFFFFFFFFFFFFFFFFFFFFFFFFFFFFFFFFFFFF AND PUSH20 0xFFFFFFFFFFFFFFFFFFFFFFFFFFFFFFFFFFFFFFFF AND DUP2 MSTORE PUSH1 0x20 ADD SWAP1 DUP2 MSTORE PUSH1 0x20 ADD PUSH0 KECCAK256 DUP2 SWAP1 SSTORE POP POP JUMPDEST PUSH0 PUSH20 0xFFFFFFFFFFFFFFFFFFFFFFFFFFFFFFFFFFFFFFFF AND DUP8 PUSH20 0xFFFFFFFFFFFFFFFFFFFFFFFFFFFFFFFFFFFFFFFF AND EQ PUSH2 0x1238 JUMPI DUP1 PUSH0 DUP1 DUP5 DUP2 MSTORE PUSH1 0x20 ADD SWAP1 DUP2 MSTORE PUSH1 0x20 ADD PUSH0 KECCAK256 PUSH0 DUP10 PUSH20 0xFFFFFFFFFFFFFFFFFFFFFFFFFFFFFFFFFFFFFFFF AND PUSH20 0xFFFFFFFFFFFFFFFFFFFFFFFFFFFFFFFFFFFFFFFF AND DUP2 MSTORE PUSH1 0x20 ADD SWAP1 DUP2 MSTORE PUSH1 0x20 ADD PUSH0 KECCAK256 PUSH0 DUP3 DUP3 SLOAD PUSH2 0x1230 SWAP2 SWAP1 PUSH2 0x2513 JUMP JUMPDEST SWAP3 POP POP DUP2 SWAP1 SSTORE POP JUMPDEST POP POP DUP1 PUSH1 0x1 ADD SWAP1 POP PUSH2 0x104D JUMP JUMPDEST POP PUSH1 0x1 DUP4 MLOAD SUB PUSH2 0x1300 JUMPI PUSH0 PUSH2 0x1263 PUSH0 DUP6 PUSH2 0xA9E SWAP1 SWAP2 SWAP1 PUSH4 0xFFFFFFFF AND JUMP JUMPDEST SWAP1 POP PUSH0 PUSH2 0x1279 PUSH0 DUP6 PUSH2 0xA9E SWAP1 SWAP2 SWAP1 PUSH4 0xFFFFFFFF AND JUMP JUMPDEST SWAP1 POP DUP6 PUSH20 0xFFFFFFFFFFFFFFFFFFFFFFFFFFFFFFFFFFFFFFFF AND DUP8 PUSH20 0xFFFFFFFFFFFFFFFFFFFFFFFFFFFFFFFFFFFFFFFF AND DUP5 PUSH20 0xFFFFFFFFFFFFFFFFFFFFFFFFFFFFFFFFFFFFFFFF AND PUSH32 0xC3D58168C5AE7397731D063D5BBF3D657854427343F4C083240F7AACAA2D0F62 DUP6 DUP6 PUSH1 0x40 MLOAD PUSH2 0x12F1 SWAP3 SWAP2 SWAP1 PUSH2 0x21E3 JUMP JUMPDEST PUSH1 0x40 MLOAD DUP1 SWAP2 SUB SWAP1 LOG4 POP POP PUSH2 0x137F JUMP JUMPDEST DUP4 PUSH20 0xFFFFFFFFFFFFFFFFFFFFFFFFFFFFFFFFFFFFFFFF AND DUP6 PUSH20 0xFFFFFFFFFFFFFFFFFFFFFFFFFFFFFFFFFFFFFFFF AND DUP3 PUSH20 0xFFFFFFFFFFFFFFFFFFFFFFFFFFFFFFFFFFFFFFFF AND PUSH32 0x4A39DC06D4C0DBC64B70AF90FD698A233A518AA5D07E595D983B8C0526C8F7FB DUP7 DUP7 PUSH1 0x40 MLOAD PUSH2 0x1376 SWAP3 SWAP2 SWAP1 PUSH2 0x2546 JUMP JUMPDEST PUSH1 0x40 MLOAD DUP1 SWAP2 SUB SWAP1 LOG4 JUMPDEST POP POP POP POP POP JUMP JUMPDEST PUSH0 DUP5 PUSH20 0xFFFFFFFFFFFFFFFFFFFFFFFFFFFFFFFFFFFFFFFF AND EXTCODESIZE GT ISZERO PUSH2 0x152D JUMPI DUP4 PUSH20 0xFFFFFFFFFFFFFFFFFFFFFFFFFFFFFFFFFFFFFFFF AND PUSH4 0xF23A6E61 DUP8 DUP8 DUP7 DUP7 DUP7 PUSH1 0x40 MLOAD DUP7 PUSH4 0xFFFFFFFF AND PUSH1 0xE0 SHL DUP2 MSTORE PUSH1 0x4 ADD PUSH2 0x13E6 SWAP6 SWAP5 SWAP4 SWAP3 SWAP2 SWAP1 PUSH2 0x25CD JUMP JUMPDEST PUSH1 0x20 PUSH1 0x40 MLOAD DUP1 DUP4 SUB DUP2 PUSH0 DUP8 GAS CALL SWAP3 POP POP POP DUP1 ISZERO PUSH2 0x1421 JUMPI POP PUSH1 0x40 MLOAD RETURNDATASIZE PUSH1 0x1F NOT PUSH1 0x1F DUP3 ADD AND DUP3 ADD DUP1 PUSH1 0x40 MSTORE POP DUP2 ADD SWAP1 PUSH2 0x141E SWAP2 SWAP1 PUSH2 0x2639 JUMP JUMPDEST PUSH1 0x1 JUMPDEST PUSH2 0x14A2 JUMPI RETURNDATASIZE DUP1 PUSH0 DUP2 EQ PUSH2 0x144F JUMPI PUSH1 0x40 MLOAD SWAP2 POP PUSH1 0x1F NOT PUSH1 0x3F RETURNDATASIZE ADD AND DUP3 ADD PUSH1 0x40 MSTORE RETURNDATASIZE DUP3 MSTORE RETURNDATASIZE PUSH0 PUSH1 0x20 DUP5 ADD RETURNDATACOPY PUSH2 0x1454 JUMP JUMPDEST PUSH1 0x60 SWAP2 POP JUMPDEST POP PUSH0 DUP2 MLOAD SUB PUSH2 0x149A JUMPI DUP5 PUSH1 0x40 MLOAD PUSH32 0x57F447CE00000000000000000000000000000000000000000000000000000000 DUP2 MSTORE PUSH1 0x4 ADD PUSH2 0x1491 SWAP2 SWAP1 PUSH2 0x1F92 JUMP JUMPDEST PUSH1 0x40 MLOAD DUP1 SWAP2 SUB SWAP1 REVERT JUMPDEST DUP1 MLOAD DUP2 PUSH1 0x20 ADD REVERT JUMPDEST PUSH4 0xF23A6E61 PUSH1 0xE0 SHL PUSH28 0xFFFFFFFFFFFFFFFFFFFFFFFFFFFFFFFFFFFFFFFFFFFFFFFFFFFFFFFF NOT AND DUP2 PUSH28 0xFFFFFFFFFFFFFFFFFFFFFFFFFFFFFFFFFFFFFFFFFFFFFFFFFFFFFFFF NOT AND EQ PUSH2 0x152B JUMPI DUP5 PUSH1 0x40 MLOAD PUSH32 0x57F447CE00000000000000000000000000000000000000000000000000000000 DUP2 MSTORE PUSH1 0x4 ADD PUSH2 0x1522 SWAP2 SWAP1 PUSH2 0x1F92 JUMP JUMPDEST PUSH1 0x40 MLOAD DUP1 SWAP2 SUB SWAP1 REVERT JUMPDEST POP JUMPDEST POP POP POP POP POP POP JUMP JUMPDEST PUSH0 DUP5 PUSH20 0xFFFFFFFFFFFFFFFFFFFFFFFFFFFFFFFFFFFFFFFF AND EXTCODESIZE GT ISZERO PUSH2 0x16DC JUMPI DUP4 PUSH20 0xFFFFFFFFFFFFFFFFFFFFFFFFFFFFFFFFFFFFFFFF AND PUSH4 0xBC197C81 DUP8 DUP8 DUP7 DUP7 DUP7 PUSH1 0x40 MLOAD DUP7 PUSH4 0xFFFFFFFF AND PUSH1 0xE0 SHL DUP2 MSTORE PUSH1 0x4 ADD PUSH2 0x1595 SWAP6 SWAP5 SWAP4 SWAP3 SWAP2 SWAP1 PUSH2 0x2664 JUMP JUMPDEST PUSH1 0x20 PUSH1 0x40 MLOAD DUP1 DUP4 SUB DUP2 PUSH0 DUP8 GAS CALL SWAP3 POP POP POP DUP1 ISZERO PUSH2 0x15D0 JUMPI POP PUSH1 0x40 MLOAD RETURNDATASIZE PUSH1 0x1F NOT PUSH1 0x1F DUP3 ADD AND DUP3 ADD DUP1 PUSH1 0x40 MSTORE POP DUP2 ADD SWAP1 PUSH2 0x15CD SWAP2 SWAP1 PUSH2 0x2639 JUMP JUMPDEST PUSH1 0x1 JUMPDEST PUSH2 0x1651 JUMPI RETURNDATASIZE DUP1 PUSH0 DUP2 EQ PUSH2 0x15FE JUMPI PUSH1 0x40 MLOAD SWAP2 POP PUSH1 0x1F NOT PUSH1 0x3F RETURNDATASIZE ADD AND DUP3 ADD PUSH1 0x40 MSTORE RETURNDATASIZE DUP3 MSTORE RETURNDATASIZE PUSH0 PUSH1 0x20 DUP5 ADD RETURNDATACOPY PUSH2 0x1603 JUMP JUMPDEST PUSH1 0x60 SWAP2 POP JUMPDEST POP PUSH0 DUP2 MLOAD SUB PUSH2 0x1649 JUMPI DUP5 PUSH1 0x40 MLOAD PUSH32 0x57F447CE00000000000000000000000000000000000000000000000000000000 DUP2 MSTORE PUSH1 0x4 ADD PUSH2 0x1640 SWAP2 SWAP1 PUSH2 0x1F92 JUMP JUMPDEST PUSH1 0x40 MLOAD DUP1 SWAP2 SUB SWAP1 REVERT JUMPDEST DUP1 MLOAD DUP2 PUSH1 0x20 ADD REVERT JUMPDEST PUSH4 0xBC197C81 PUSH1 0xE0 SHL PUSH28 0xFFFFFFFFFFFFFFFFFFFFFFFFFFFFFFFFFFFFFFFFFFFFFFFFFFFFFFFF NOT AND DUP2 PUSH28 0xFFFFFFFFFFFFFFFFFFFFFFFFFFFFFFFFFFFFFFFFFFFFFFFFFFFFFFFF NOT AND EQ PUSH2 0x16DA JUMPI DUP5 PUSH1 0x40 MLOAD PUSH32 0x57F447CE00000000000000000000000000000000000000000000000000000000 DUP2 MSTORE PUSH1 0x4 ADD PUSH2 0x16D1 SWAP2 SWAP1 PUSH2 0x1F92 JUMP JUMPDEST PUSH1 0x40 MLOAD DUP1 SWAP2 SUB SWAP1 REVERT JUMPDEST POP JUMPDEST POP POP POP POP POP POP JUMP JUMPDEST PUSH0 PUSH1 0x40 MLOAD SWAP1 POP SWAP1 JUMP JUMPDEST PUSH0 DUP1 REVERT JUMPDEST PUSH0 DUP1 REVERT JUMPDEST PUSH0 PUSH20 0xFFFFFFFFFFFFFFFFFFFFFFFFFFFFFFFFFFFFFFFF DUP3 AND SWAP1 POP SWAP2 SWAP1 POP JUMP JUMPDEST PUSH0 PUSH2 0x171E DUP3 PUSH2 0x16F5 JUMP JUMPDEST SWAP1 POP SWAP2 SWAP1 POP JUMP JUMPDEST PUSH2 0x172E DUP2 PUSH2 0x1714 JUMP JUMPDEST DUP2 EQ PUSH2 0x1738 JUMPI PUSH0 DUP1 REVERT JUMPDEST POP JUMP JUMPDEST PUSH0 DUP2 CALLDATALOAD SWAP1 POP PUSH2 0x1749 DUP2 PUSH2 0x1725 JUMP JUMPDEST SWAP3 SWAP2 POP POP JUMP JUMPDEST PUSH0 DUP2 SWAP1 POP SWAP2 SWAP1 POP JUMP JUMPDEST PUSH2 0x1761 DUP2 PUSH2 0x174F JUMP JUMPDEST DUP2 EQ PUSH2 0x176B JUMPI PUSH0 DUP1 REVERT JUMPDEST POP JUMP JUMPDEST PUSH0 DUP2 CALLDATALOAD SWAP1 POP PUSH2 0x177C DUP2 PUSH2 0x1758 JUMP JUMPDEST SWAP3 SWAP2 POP POP JUMP JUMPDEST PUSH0 DUP1 PUSH1 0x40 DUP4 DUP6 SUB SLT ISZERO PUSH2 0x1798 JUMPI PUSH2 0x1797 PUSH2 0x16ED JUMP JUMPDEST JUMPDEST PUSH0 PUSH2 0x17A5 DUP6 DUP3 DUP7 ADD PUSH2 0x173B JUMP JUMPDEST SWAP3 POP POP PUSH1 0x20 PUSH2 0x17B6 DUP6 DUP3 DUP7 ADD PUSH2 0x176E JUMP JUMPDEST SWAP2 POP POP SWAP3 POP SWAP3 SWAP1 POP JUMP JUMPDEST PUSH2 0x17C9 DUP2 PUSH2 0x174F JUMP JUMPDEST DUP3 MSTORE POP POP JUMP JUMPDEST PUSH0 PUSH1 0x20 DUP3 ADD SWAP1 POP PUSH2 0x17E2 PUSH0 DUP4 ADD DUP5 PUSH2 0x17C0 JUMP JUMPDEST SWAP3 SWAP2 POP POP JUMP JUMPDEST PUSH0 PUSH32 0xFFFFFFFF00000000000000000000000000000000000000000000000000000000 DUP3 AND SWAP1 POP SWAP2 SWAP1 POP JUMP JUMPDEST PUSH2 0x181C DUP2 PUSH2 0x17E8 JUMP JUMPDEST DUP2 EQ PUSH2 0x1826 JUMPI PUSH0 DUP1 REVERT JUMPDEST POP JUMP JUMPDEST PUSH0 DUP2 CALLDATALOAD SWAP1 POP PUSH2 0x1837 DUP2 PUSH2 0x1813 JUMP JUMPDEST SWAP3 SWAP2 POP POP JUMP JUMPDEST PUSH0 PUSH1 0x20 DUP3 DUP5 SUB SLT ISZERO PUSH2 0x1852 JUMPI PUSH2 0x1851 PUSH2 0x16ED JUMP JUMPDEST JUMPDEST PUSH0 PUSH2 0x185F DUP5 DUP3 DUP6 ADD PUSH2 0x1829 JUMP JUMPDEST SWAP2 POP POP SWAP3 SWAP2 POP POP JUMP JUMPDEST PUSH0 DUP2 ISZERO ISZERO SWAP1 POP SWAP2 SWAP1 POP JUMP JUMPDEST PUSH2 0x187C DUP2 PUSH2 0x1868 JUMP JUMPDEST DUP3 MSTORE POP POP JUMP JUMPDEST PUSH0 PUSH1 0x20 DUP3 ADD SWAP1 POP PUSH2 0x1895 PUSH0 DUP4 ADD DUP5 PUSH2 0x1873 JUMP JUMPDEST SWAP3 SWAP2 POP POP JUMP JUMPDEST PUSH0 DUP1 REVERT JUMPDEST PUSH0 DUP1 REVERT JUMPDEST PUSH0 PUSH1 0x1F NOT PUSH1 0x1F DUP4 ADD AND SWAP1 POP SWAP2 SWAP1 POP JUMP JUMPDEST PUSH32 0x4E487B7100000000000000000000000000000000000000000000000000000000 PUSH0 MSTORE PUSH1 0x41 PUSH1 0x4 MSTORE PUSH1 0x24 PUSH0 REVERT JUMPDEST PUSH2 0x18E9 DUP3 PUSH2 0x18A3 JUMP JUMPDEST DUP2 ADD DUP2 DUP2 LT PUSH8 0xFFFFFFFFFFFFFFFF DUP3 GT OR ISZERO PUSH2 0x1908 JUMPI PUSH2 0x1907 PUSH2 0x18B3 JUMP JUMPDEST JUMPDEST DUP1 PUSH1 0x40 MSTORE POP POP POP JUMP JUMPDEST PUSH0 PUSH2 0x191A PUSH2 0x16E4 JUMP JUMPDEST SWAP1 POP PUSH2 0x1926 DUP3 DUP3 PUSH2 0x18E0 JUMP JUMPDEST SWAP2 SWAP1 POP JUMP JUMPDEST PUSH0 PUSH8 0xFFFFFFFFFFFFFFFF DUP3 GT ISZERO PUSH2 0x1945 JUMPI PUSH2 0x1944 PUSH2 0x18B3 JUMP JUMPDEST JUMPDEST PUSH2 0x194E DUP3 PUSH2 0x18A3 JUMP JUMPDEST SWAP1 POP PUSH1 0x20 DUP2 ADD SWAP1 POP SWAP2 SWAP1 POP JUMP JUMPDEST DUP3 DUP2 DUP4 CALLDATACOPY PUSH0 DUP4 DUP4 ADD MSTORE POP POP POP JUMP JUMPDEST PUSH0 PUSH2 0x197B PUSH2 0x1976 DUP5 PUSH2 0x192B JUMP JUMPDEST PUSH2 0x1911 JUMP JUMPDEST SWAP1 POP DUP3 DUP2 MSTORE PUSH1 0x20 DUP2 ADD DUP5 DUP5 DUP5 ADD GT ISZERO PUSH2 0x1997 JUMPI PUSH2 0x1996 PUSH2 0x189F JUMP JUMPDEST JUMPDEST PUSH2 0x19A2 DUP5 DUP3 DUP6 PUSH2 0x195B JUMP JUMPDEST POP SWAP4 SWAP3 POP POP POP JUMP JUMPDEST PUSH0 DUP3 PUSH1 0x1F DUP4 ADD SLT PUSH2 0x19BE JUMPI PUSH2 0x19BD PUSH2 0x189B JUMP JUMPDEST JUMPDEST DUP2 CALLDATALOAD PUSH2 0x19CE DUP5 DUP3 PUSH1 0x20 DUP7 ADD PUSH2 0x1969 JUMP JUMPDEST SWAP2 POP POP SWAP3 SWAP2 POP POP JUMP JUMPDEST PUSH0 PUSH1 0x20 DUP3 DUP5 SUB SLT ISZERO PUSH2 0x19EC JUMPI PUSH2 0x19EB PUSH2 0x16ED JUMP JUMPDEST JUMPDEST PUSH0 DUP3 ADD CALLDATALOAD PUSH8 0xFFFFFFFFFFFFFFFF DUP2 GT ISZERO PUSH2 0x1A09 JUMPI PUSH2 0x1A08 PUSH2 0x16F1 JUMP JUMPDEST JUMPDEST PUSH2 0x1A15 DUP5 DUP3 DUP6 ADD PUSH2 0x19AA JUMP JUMPDEST SWAP2 POP POP SWAP3 SWAP2 POP POP JUMP JUMPDEST PUSH0 PUSH1 0x20 DUP3 DUP5 SUB SLT ISZERO PUSH2 0x1A33 JUMPI PUSH2 0x1A32 PUSH2 0x16ED JUMP JUMPDEST JUMPDEST PUSH0 PUSH2 0x1A40 DUP5 DUP3 DUP6 ADD PUSH2 0x176E JUMP JUMPDEST SWAP2 POP POP SWAP3 SWAP2 POP POP JUMP JUMPDEST PUSH0 DUP2 MLOAD SWAP1 POP SWAP2 SWAP1 POP JUMP JUMPDEST PUSH0 DUP3 DUP3 MSTORE PUSH1 0x20 DUP3 ADD SWAP1 POP SWAP3 SWAP2 POP POP JUMP JUMPDEST DUP3 DUP2 DUP4 MCOPY PUSH0 DUP4 DUP4 ADD MSTORE POP POP POP JUMP JUMPDEST PUSH0 PUSH2 0x1A7B DUP3 PUSH2 0x1A49 JUMP JUMPDEST PUSH2 0x1A85 DUP2 DUP6 PUSH2 0x1A53 JUMP JUMPDEST SWAP4 POP PUSH2 0x1A95 DUP2 DUP6 PUSH1 0x20 DUP7 ADD PUSH2 0x1A63 JUMP JUMPDEST PUSH2 0x1A9E DUP2 PUSH2 0x18A3 JUMP JUMPDEST DUP5 ADD SWAP2 POP POP SWAP3 SWAP2 POP POP JUMP JUMPDEST PUSH0 PUSH1 0x20 DUP3 ADD SWAP1 POP DUP2 DUP2 SUB PUSH0 DUP4 ADD MSTORE PUSH2 0x1AC1 DUP2 DUP5 PUSH2 0x1A71 JUMP JUMPDEST SWAP1 POP SWAP3 SWAP2 POP POP JUMP JUMPDEST PUSH0 PUSH8 0xFFFFFFFFFFFFFFFF DUP3 GT ISZERO PUSH2 0x1AE3 JUMPI PUSH2 0x1AE2 PUSH2 0x18B3 JUMP JUMPDEST JUMPDEST PUSH1 0x20 DUP3 MUL SWAP1 POP PUSH1 0x20 DUP2 ADD SWAP1 POP SWAP2 SWAP1 POP JUMP JUMPDEST PUSH0 DUP1 REVERT JUMPDEST PUSH0 PUSH2 0x1B0A PUSH2 0x1B05 DUP5 PUSH2 0x1AC9 JUMP JUMPDEST PUSH2 0x1911 JUMP JUMPDEST SWAP1 POP DUP1 DUP4 DUP3 MSTORE PUSH1 0x20 DUP3 ADD SWAP1 POP PUSH1 0x20 DUP5 MUL DUP4 ADD DUP6 DUP2 GT ISZERO PUSH2 0x1B2D JUMPI PUSH2 0x1B2C PUSH2 0x1AF4 JUMP JUMPDEST JUMPDEST DUP4 JUMPDEST DUP2 DUP2 LT ISZERO PUSH2 0x1B56 JUMPI DUP1 PUSH2 0x1B42 DUP9 DUP3 PUSH2 0x176E JUMP JUMPDEST DUP5 MSTORE PUSH1 0x20 DUP5 ADD SWAP4 POP POP PUSH1 0x20 DUP2 ADD SWAP1 POP PUSH2 0x1B2F JUMP JUMPDEST POP POP POP SWAP4 SWAP3 POP POP POP JUMP JUMPDEST PUSH0 DUP3 PUSH1 0x1F DUP4 ADD SLT PUSH2 0x1B74 JUMPI PUSH2 0x1B73 PUSH2 0x189B JUMP JUMPDEST JUMPDEST DUP2 CALLDATALOAD PUSH2 0x1B84 DUP5 DUP3 PUSH1 0x20 DUP7 ADD PUSH2 0x1AF8 JUMP JUMPDEST SWAP2 POP POP SWAP3 SWAP2 POP POP JUMP JUMPDEST PUSH0 PUSH8 0xFFFFFFFFFFFFFFFF DUP3 GT ISZERO PUSH2 0x1BA7 JUMPI PUSH2 0x1BA6 PUSH2 0x18B3 JUMP JUMPDEST JUMPDEST PUSH2 0x1BB0 DUP3 PUSH2 0x18A3 JUMP JUMPDEST SWAP1 POP PUSH1 0x20 DUP2 ADD SWAP1 POP SWAP2 SWAP1 POP JUMP JUMPDEST PUSH0 PUSH2 0x1BCF PUSH2 0x1BCA DUP5 PUSH2 0x1B8D JUMP JUMPDEST PUSH2 0x1911 JUMP JUMPDEST SWAP1 POP DUP3 DUP2 MSTORE PUSH1 0x20 DUP2 ADD DUP5 DUP5 DUP5 ADD GT ISZERO PUSH2 0x1BEB JUMPI PUSH2 0x1BEA PUSH2 0x189F JUMP JUMPDEST JUMPDEST PUSH2 0x1BF6 DUP5 DUP3 DUP6 PUSH2 0x195B JUMP JUMPDEST POP SWAP4 SWAP3 POP POP POP JUMP JUMPDEST PUSH0 DUP3 PUSH1 0x1F DUP4 ADD SLT PUSH2 0x1C12 JUMPI PUSH2 0x1C11 PUSH2 0x189B JUMP JUMPDEST JUMPDEST DUP2 CALLDATALOAD PUSH2 0x1C22 DUP5 DUP3 PUSH1 0x20 DUP7 ADD PUSH2 0x1BBD JUMP JUMPDEST SWAP2 POP POP SWAP3 SWAP2 POP POP JUMP JUMPDEST PUSH0 DUP1 PUSH0 DUP1 PUSH0 PUSH1 0xA0 DUP7 DUP9 SUB SLT ISZERO PUSH2 0x1C44 JUMPI PUSH2 0x1C43 PUSH2 0x16ED JUMP JUMPDEST JUMPDEST PUSH0 PUSH2 0x1C51 DUP9 DUP3 DUP10 ADD PUSH2 0x173B JUMP JUMPDEST SWAP6 POP POP PUSH1 0x20 PUSH2 0x1C62 DUP9 DUP3 DUP10 ADD PUSH2 0x173B JUMP JUMPDEST SWAP5 POP POP PUSH1 0x40 DUP7 ADD CALLDATALOAD PUSH8 0xFFFFFFFFFFFFFFFF DUP2 GT ISZERO PUSH2 0x1C83 JUMPI PUSH2 0x1C82 PUSH2 0x16F1 JUMP JUMPDEST JUMPDEST PUSH2 0x1C8F DUP9 DUP3 DUP10 ADD PUSH2 0x1B60 JUMP JUMPDEST SWAP4 POP POP PUSH1 0x60 DUP7 ADD CALLDATALOAD PUSH8 0xFFFFFFFFFFFFFFFF DUP2 GT ISZERO PUSH2 0x1CB0 JUMPI PUSH2 0x1CAF PUSH2 0x16F1 JUMP JUMPDEST JUMPDEST PUSH2 0x1CBC DUP9 DUP3 DUP10 ADD PUSH2 0x1B60 JUMP JUMPDEST SWAP3 POP POP PUSH1 0x80 DUP7 ADD CALLDATALOAD PUSH8 0xFFFFFFFFFFFFFFFF DUP2 GT ISZERO PUSH2 0x1CDD JUMPI PUSH2 0x1CDC PUSH2 0x16F1 JUMP JUMPDEST JUMPDEST PUSH2 0x1CE9 DUP9 DUP3 DUP10 ADD PUSH2 0x1BFE JUMP JUMPDEST SWAP2 POP POP SWAP3 SWAP6 POP SWAP3 SWAP6 SWAP1 SWAP4 POP JUMP JUMPDEST PUSH0 PUSH8 0xFFFFFFFFFFFFFFFF DUP3 GT ISZERO PUSH2 0x1D10 JUMPI PUSH2 0x1D0F PUSH2 0x18B3 JUMP JUMPDEST JUMPDEST PUSH1 0x20 DUP3 MUL SWAP1 POP PUSH1 0x20 DUP2 ADD SWAP1 POP SWAP2 SWAP1 POP JUMP JUMPDEST PUSH0 PUSH2 0x1D33 PUSH2 0x1D2E DUP5 PUSH2 0x1CF6 JUMP JUMPDEST PUSH2 0x1911 JUMP JUMPDEST SWAP1 POP DUP1 DUP4 DUP3 MSTORE PUSH1 0x20 DUP3 ADD SWAP1 POP PUSH1 0x20 DUP5 MUL DUP4 ADD DUP6 DUP2 GT ISZERO PUSH2 0x1D56 JUMPI PUSH2 0x1D55 PUSH2 0x1AF4 JUMP JUMPDEST JUMPDEST DUP4 JUMPDEST DUP2 DUP2 LT ISZERO PUSH2 0x1D7F JUMPI DUP1 PUSH2 0x1D6B DUP9 DUP3 PUSH2 0x173B JUMP JUMPDEST DUP5 MSTORE PUSH1 0x20 DUP5 ADD SWAP4 POP POP PUSH1 0x20 DUP2 ADD SWAP1 POP PUSH2 0x1D58 JUMP JUMPDEST POP POP POP SWAP4 SWAP3 POP POP POP JUMP JUMPDEST PUSH0 DUP3 PUSH1 0x1F DUP4 ADD SLT PUSH2 0x1D9D JUMPI PUSH2 0x1D9C PUSH2 0x189B JUMP JUMPDEST JUMPDEST DUP2 CALLDATALOAD PUSH2 0x1DAD DUP5 DUP3 PUSH1 0x20 DUP7 ADD PUSH2 0x1D21 JUMP JUMPDEST SWAP2 POP POP SWAP3 SWAP2 POP POP JUMP JUMPDEST PUSH0 DUP1 PUSH1 0x40 DUP4 DUP6 SUB SLT ISZERO PUSH2 0x1DCC JUMPI PUSH2 0x1DCB PUSH2 0x16ED JUMP JUMPDEST JUMPDEST PUSH0 DUP4 ADD CALLDATALOAD PUSH8 0xFFFFFFFFFFFFFFFF DUP2 GT ISZERO PUSH2 0x1DE9 JUMPI PUSH2 0x1DE8 PUSH2 0x16F1 JUMP JUMPDEST JUMPDEST PUSH2 0x1DF5 DUP6 DUP3 DUP7 ADD PUSH2 0x1D89 JUMP JUMPDEST SWAP3 POP POP PUSH1 0x20 DUP4 ADD CALLDATALOAD PUSH8 0xFFFFFFFFFFFFFFFF DUP2 GT ISZERO PUSH2 0x1E16 JUMPI PUSH2 0x1E15 PUSH2 0x16F1 JUMP JUMPDEST JUMPDEST PUSH2 0x1E22 DUP6 DUP3 DUP7 ADD PUSH2 0x1B60 JUMP JUMPDEST SWAP2 POP POP SWAP3 POP SWAP3 SWAP1 POP JUMP JUMPDEST PUSH0 DUP2 MLOAD SWAP1 POP SWAP2 SWAP1 POP JUMP JUMPDEST PUSH0 DUP3 DUP3 MSTORE PUSH1 0x20 DUP3 ADD SWAP1 POP SWAP3 SWAP2 POP POP JUMP JUMPDEST PUSH0 DUP2 SWAP1 POP PUSH1 0x20 DUP3 ADD SWAP1 POP SWAP2 SWAP1 POP JUMP JUMPDEST PUSH2 0x1E5E DUP2 PUSH2 0x174F JUMP JUMPDEST DUP3 MSTORE POP POP JUMP JUMPDEST PUSH0 PUSH2 0x1E6F DUP4 DUP4 PUSH2 0x1E55 JUMP JUMPDEST PUSH1 0x20 DUP4 ADD SWAP1 POP SWAP3 SWAP2 POP POP JUMP JUMPDEST PUSH0 PUSH1 0x20 DUP3 ADD SWAP1 POP SWAP2 SWAP1 POP JUMP JUMPDEST PUSH0 PUSH2 0x1E91 DUP3 PUSH2 0x1E2C JUMP JUMPDEST PUSH2 0x1E9B DUP2 DUP6 PUSH2 0x1E36 JUMP JUMPDEST SWAP4 POP PUSH2 0x1EA6 DUP4 PUSH2 0x1E46 JUMP JUMPDEST DUP1 PUSH0 JUMPDEST DUP4 DUP2 LT ISZERO PUSH2 0x1ED6 JUMPI DUP2 MLOAD PUSH2 0x1EBD DUP9 DUP3 PUSH2 0x1E64 JUMP JUMPDEST SWAP8 POP PUSH2 0x1EC8 DUP4 PUSH2 0x1E7B JUMP JUMPDEST SWAP3 POP POP PUSH1 0x1 DUP2 ADD SWAP1 POP PUSH2 0x1EA9 JUMP JUMPDEST POP DUP6 SWAP4 POP POP POP POP SWAP3 SWAP2 POP POP JUMP JUMPDEST PUSH0 PUSH1 0x20 DUP3 ADD SWAP1 POP DUP2 DUP2 SUB PUSH0 DUP4 ADD MSTORE PUSH2 0x1EFB DUP2 DUP5 PUSH2 0x1E87 JUMP JUMPDEST SWAP1 POP SWAP3 SWAP2 POP POP JUMP JUMPDEST PUSH0 DUP1 PUSH0 DUP1 PUSH1 0x80 DUP6 DUP8 SUB SLT ISZERO PUSH2 0x1F1B JUMPI PUSH2 0x1F1A PUSH2 0x16ED JUMP JUMPDEST JUMPDEST PUSH0 PUSH2 0x1F28 DUP8 DUP3 DUP9 ADD PUSH2 0x173B JUMP JUMPDEST SWAP5 POP POP PUSH1 0x20 PUSH2 0x1F39 DUP8 DUP3 DUP9 ADD PUSH2 0x176E JUMP JUMPDEST SWAP4 POP POP PUSH1 0x40 PUSH2 0x1F4A DUP8 DUP3 DUP9 ADD PUSH2 0x176E JUMP JUMPDEST SWAP3 POP POP PUSH1 0x60 DUP6 ADD CALLDATALOAD PUSH8 0xFFFFFFFFFFFFFFFF DUP2 GT ISZERO PUSH2 0x1F6B JUMPI PUSH2 0x1F6A PUSH2 0x16F1 JUMP JUMPDEST JUMPDEST PUSH2 0x1F77 DUP8 DUP3 DUP9 ADD PUSH2 0x1BFE JUMP JUMPDEST SWAP2 POP POP SWAP3 SWAP6 SWAP2 SWAP5 POP SWAP3 POP JUMP JUMPDEST PUSH2 0x1F8C DUP2 PUSH2 0x1714 JUMP JUMPDEST DUP3 MSTORE POP POP JUMP JUMPDEST PUSH0 PUSH1 0x20 DUP3 ADD SWAP1 POP PUSH2 0x1FA5 PUSH0 DUP4 ADD DUP5 PUSH2 0x1F83 JUMP JUMPDEST SWAP3 SWAP2 POP POP JUMP JUMPDEST PUSH2 0x1FB4 DUP2 PUSH2 0x1868 JUMP JUMPDEST DUP2 EQ PUSH2 0x1FBE JUMPI PUSH0 DUP1 REVERT JUMPDEST POP JUMP JUMPDEST PUSH0 DUP2 CALLDATALOAD SWAP1 POP PUSH2 0x1FCF DUP2 PUSH2 0x1FAB JUMP JUMPDEST SWAP3 SWAP2 POP POP JUMP JUMPDEST PUSH0 DUP1 PUSH1 0x40 DUP4 DUP6 SUB SLT ISZERO PUSH2 0x1FEB JUMPI PUSH2 0x1FEA PUSH2 0x16ED JUMP JUMPDEST JUMPDEST PUSH0 PUSH2 0x1FF8 DUP6 DUP3 DUP7 ADD PUSH2 0x173B JUMP JUMPDEST SWAP3 POP POP PUSH1 0x20 PUSH2 0x2009 DUP6 DUP3 DUP7 ADD PUSH2 0x1FC1 JUMP JUMPDEST SWAP2 POP POP SWAP3 POP SWAP3 SWAP1 POP JUMP JUMPDEST PUSH0 DUP1 PUSH1 0x40 DUP4 DUP6 SUB SLT ISZERO PUSH2 0x2029 JUMPI PUSH2 0x2028 PUSH2 0x16ED JUMP JUMPDEST JUMPDEST PUSH0 PUSH2 0x2036 DUP6 DUP3 DUP7 ADD PUSH2 0x173B JUMP JUMPDEST SWAP3 POP POP PUSH1 0x20 PUSH2 0x2047 DUP6 DUP3 DUP7 ADD PUSH2 0x173B JUMP JUMPDEST SWAP2 POP POP SWAP3 POP SWAP3 SWAP1 POP JUMP JUMPDEST PUSH0 DUP1 PUSH0 DUP1 PUSH0 PUSH1 0xA0 DUP7 DUP9 SUB SLT ISZERO PUSH2 0x206A JUMPI PUSH2 0x2069 PUSH2 0x16ED JUMP JUMPDEST JUMPDEST PUSH0 PUSH2 0x2077 DUP9 DUP3 DUP10 ADD PUSH2 0x173B JUMP JUMPDEST SWAP6 POP POP PUSH1 0x20 PUSH2 0x2088 DUP9 DUP3 DUP10 ADD PUSH2 0x173B JUMP JUMPDEST SWAP5 POP POP PUSH1 0x40 PUSH2 0x2099 DUP9 DUP3 DUP10 ADD PUSH2 0x176E JUMP JUMPDEST SWAP4 POP POP PUSH1 0x60 PUSH2 0x20AA DUP9 DUP3 DUP10 ADD PUSH2 0x176E JUMP JUMPDEST SWAP3 POP POP PUSH1 0x80 DUP7 ADD CALLDATALOAD PUSH8 0xFFFFFFFFFFFFFFFF DUP2 GT ISZERO PUSH2 0x20CB JUMPI PUSH2 0x20CA PUSH2 0x16F1 JUMP JUMPDEST JUMPDEST PUSH2 0x20D7 DUP9 DUP3 DUP10 ADD PUSH2 0x1BFE JUMP JUMPDEST SWAP2 POP POP SWAP3 SWAP6 POP SWAP3 SWAP6 SWAP1 SWAP4 POP JUMP JUMPDEST PUSH0 PUSH1 0x20 DUP3 DUP5 SUB SLT ISZERO PUSH2 0x20F9 JUMPI PUSH2 0x20F8 PUSH2 0x16ED JUMP JUMPDEST JUMPDEST PUSH0 PUSH2 0x2106 DUP5 DUP3 DUP6 ADD PUSH2 0x173B JUMP JUMPDEST SWAP2 POP POP SWAP3 SWAP2 POP POP JUMP JUMPDEST PUSH0 DUP1 PUSH0 PUSH1 0x60 DUP5 DUP7 SUB SLT ISZERO PUSH2 0x2126 JUMPI PUSH2 0x2125 PUSH2 0x16ED JUMP JUMPDEST JUMPDEST PUSH0 PUSH2 0x2133 DUP7 DUP3 DUP8 ADD PUSH2 0x173B JUMP JUMPDEST SWAP4 POP POP PUSH1 0x20 PUSH2 0x2144 DUP7 DUP3 DUP8 ADD PUSH2 0x176E JUMP JUMPDEST SWAP3 POP POP PUSH1 0x40 PUSH2 0x2155 DUP7 DUP3 DUP8 ADD PUSH2 0x176E JUMP JUMPDEST SWAP2 POP POP SWAP3 POP SWAP3 POP SWAP3 JUMP JUMPDEST PUSH32 0x4E487B7100000000000000000000000000000000000000000000000000000000 PUSH0 MSTORE PUSH1 0x22 PUSH1 0x4 MSTORE PUSH1 0x24 PUSH0 REVERT JUMPDEST PUSH0 PUSH1 0x2 DUP3 DIV SWAP1 POP PUSH1 0x1 DUP3 AND DUP1 PUSH2 0x21A3 JUMPI PUSH1 0x7F DUP3 AND SWAP2 POP JUMPDEST PUSH1 0x20 DUP3 LT DUP2 SUB PUSH2 0x21B6 JUMPI PUSH2 0x21B5 PUSH2 0x215F JUMP JUMPDEST JUMPDEST POP SWAP2 SWAP1 POP JUMP JUMPDEST PUSH0 PUSH1 0x40 DUP3 ADD SWAP1 POP PUSH2 0x21CF PUSH0 DUP4 ADD DUP6 PUSH2 0x1F83 JUMP JUMPDEST PUSH2 0x21DC PUSH1 0x20 DUP4 ADD DUP5 PUSH2 0x1F83 JUMP JUMPDEST SWAP4 SWAP3 POP POP POP JUMP JUMPDEST PUSH0 PUSH1 0x40 DUP3 ADD SWAP1 POP PUSH2 0x21F6 PUSH0 DUP4 ADD DUP6 PUSH2 0x17C0 JUMP JUMPDEST PUSH2 0x2203 PUSH1 0x20 DUP4 ADD DUP5 PUSH2 0x17C0 JUMP JUMPDEST SWAP4 SWAP3 POP POP POP JUMP JUMPDEST PUSH32 0x4E487B7100000000000000000000000000000000000000000000000000000000 PUSH0 MSTORE PUSH1 0x32 PUSH1 0x4 MSTORE PUSH1 0x24 PUSH0 REVERT JUMPDEST PUSH0 DUP2 SWAP1 POP DUP2 PUSH0 MSTORE PUSH1 0x20 PUSH0 KECCAK256 SWAP1 POP SWAP2 SWAP1 POP JUMP JUMPDEST PUSH0 PUSH1 0x20 PUSH1 0x1F DUP4 ADD DIV SWAP1 POP SWAP2 SWAP1 POP JUMP JUMPDEST PUSH0 DUP3 DUP3 SHL SWAP1 POP SWAP3 SWAP2 POP POP JUMP JUMPDEST PUSH0 PUSH1 0x8 DUP4 MUL PUSH2 0x2293 PUSH32 0xFFFFFFFFFFFFFFFFFFFFFFFFFFFFFFFFFFFFFFFFFFFFFFFFFFFFFFFFFFFFFFFF DUP3 PUSH2 0x2258 JUMP JUMPDEST PUSH2 0x229D DUP7 DUP4 PUSH2 0x2258 JUMP JUMPDEST SWAP6 POP DUP1 NOT DUP5 AND SWAP4 POP DUP1 DUP7 AND DUP5 OR SWAP3 POP POP POP SWAP4 SWAP3 POP POP POP JUMP JUMPDEST PUSH0 DUP2 SWAP1 POP SWAP2 SWAP1 POP JUMP JUMPDEST PUSH0 PUSH2 0x22D8 PUSH2 0x22D3 PUSH2 0x22CE DUP5 PUSH2 0x174F JUMP JUMPDEST PUSH2 0x22B5 JUMP JUMPDEST PUSH2 0x174F JUMP JUMPDEST SWAP1 POP SWAP2 SWAP1 POP JUMP JUMPDEST PUSH0 DUP2 SWAP1 POP SWAP2 SWAP1 POP JUMP JUMPDEST PUSH2 0x22F1 DUP4 PUSH2 0x22BE JUMP JUMPDEST PUSH2 0x2305 PUSH2 0x22FD DUP3 PUSH2 0x22DF JUMP JUMPDEST DUP5 DUP5 SLOAD PUSH2 0x2264 JUMP JUMPDEST DUP3 SSTORE POP POP POP POP JUMP JUMPDEST PUSH0 SWAP1 JUMP JUMPDEST PUSH2 0x2319 PUSH2 0x230D JUMP JUMPDEST PUSH2 0x2324 DUP2 DUP5 DUP5 PUSH2 0x22E8 JUMP JUMPDEST POP POP POP JUMP JUMPDEST JUMPDEST DUP2 DUP2 LT ISZERO PUSH2 0x2347 JUMPI PUSH2 0x233C PUSH0 DUP3 PUSH2 0x2311 JUMP JUMPDEST PUSH1 0x1 DUP2 ADD SWAP1 POP PUSH2 0x232A JUMP JUMPDEST POP POP JUMP JUMPDEST PUSH1 0x1F DUP3 GT ISZERO PUSH2 0x238C JUMPI PUSH2 0x235D DUP2 PUSH2 0x2237 JUMP JUMPDEST PUSH2 0x2366 DUP5 PUSH2 0x2249 JUMP JUMPDEST DUP2 ADD PUSH1 0x20 DUP6 LT ISZERO PUSH2 0x2375 JUMPI DUP2 SWAP1 POP JUMPDEST PUSH2 0x2389 PUSH2 0x2381 DUP6 PUSH2 0x2249 JUMP JUMPDEST DUP4 ADD DUP3 PUSH2 0x2329 JUMP JUMPDEST POP POP JUMPDEST POP POP POP JUMP JUMPDEST PUSH0 DUP3 DUP3 SHR SWAP1 POP SWAP3 SWAP2 POP POP JUMP JUMPDEST PUSH0 PUSH2 0x23AC PUSH0 NOT DUP5 PUSH1 0x8 MUL PUSH2 0x2391 JUMP JUMPDEST NOT DUP1 DUP4 AND SWAP2 POP POP SWAP3 SWAP2 POP POP JUMP JUMPDEST PUSH0 PUSH2 0x23C4 DUP4 DUP4 PUSH2 0x239D JUMP JUMPDEST SWAP2 POP DUP3 PUSH1 0x2 MUL DUP3 OR SWAP1 POP SWAP3 SWAP2 POP POP JUMP JUMPDEST PUSH2 0x23DD DUP3 PUSH2 0x1A49 JUMP JUMPDEST PUSH8 0xFFFFFFFFFFFFFFFF DUP2 GT ISZERO PUSH2 0x23F6 JUMPI PUSH2 0x23F5 PUSH2 0x18B3 JUMP JUMPDEST JUMPDEST PUSH2 0x2400 DUP3 SLOAD PUSH2 0x218C JUMP JUMPDEST PUSH2 0x240B DUP3 DUP3 DUP6 PUSH2 0x234B JUMP JUMPDEST PUSH0 PUSH1 0x20 SWAP1 POP PUSH1 0x1F DUP4 GT PUSH1 0x1 DUP2 EQ PUSH2 0x243C JUMPI PUSH0 DUP5 ISZERO PUSH2 0x242A JUMPI DUP3 DUP8 ADD MLOAD SWAP1 POP JUMPDEST PUSH2 0x2434 DUP6 DUP3 PUSH2 0x23B9 JUMP JUMPDEST DUP7 SSTORE POP PUSH2 0x249B JUMP JUMPDEST PUSH1 0x1F NOT DUP5 AND PUSH2 0x244A DUP7 PUSH2 0x2237 JUMP JUMPDEST PUSH0 JUMPDEST DUP3 DUP2 LT ISZERO PUSH2 0x2471 JUMPI DUP5 DUP10 ADD MLOAD DUP3 SSTORE PUSH1 0x1 DUP3 ADD SWAP2 POP PUSH1 0x20 DUP6 ADD SWAP5 POP PUSH1 0x20 DUP2 ADD SWAP1 POP PUSH2 0x244C JUMP JUMPDEST DUP7 DUP4 LT ISZERO PUSH2 0x248E JUMPI DUP5 DUP10 ADD MLOAD PUSH2 0x248A PUSH1 0x1F DUP10 AND DUP3 PUSH2 0x239D JUMP JUMPDEST DUP4 SSTORE POP JUMPDEST PUSH1 0x1 PUSH1 0x2 DUP9 MUL ADD DUP9 SSTORE POP POP POP JUMPDEST POP POP POP POP POP POP JUMP JUMPDEST PUSH0 PUSH1 0x80 DUP3 ADD SWAP1 POP PUSH2 0x24B6 PUSH0 DUP4 ADD DUP8 PUSH2 0x1F83 JUMP JUMPDEST PUSH2 0x24C3 PUSH1 0x20 DUP4 ADD DUP7 PUSH2 0x17C0 JUMP JUMPDEST PUSH2 0x24D0 PUSH1 0x40 DUP4 ADD DUP6 PUSH2 0x17C0 JUMP JUMPDEST PUSH2 0x24DD PUSH1 0x60 DUP4 ADD DUP5 PUSH2 0x17C0 JUMP JUMPDEST SWAP6 SWAP5 POP POP POP POP POP JUMP JUMPDEST PUSH32 0x4E487B7100000000000000000000000000000000000000000000000000000000 PUSH0 MSTORE PUSH1 0x11 PUSH1 0x4 MSTORE PUSH1 0x24 PUSH0 REVERT JUMPDEST PUSH0 PUSH2 0x251D DUP3 PUSH2 0x174F JUMP JUMPDEST SWAP2 POP PUSH2 0x2528 DUP4 PUSH2 0x174F JUMP JUMPDEST SWAP3 POP DUP3 DUP3 ADD SWAP1 POP DUP1 DUP3 GT ISZERO PUSH2 0x2540 JUMPI PUSH2 0x253F PUSH2 0x24E6 JUMP JUMPDEST JUMPDEST SWAP3 SWAP2 POP POP JUMP JUMPDEST PUSH0 PUSH1 0x40 DUP3 ADD SWAP1 POP DUP2 DUP2 SUB PUSH0 DUP4 ADD MSTORE PUSH2 0x255E DUP2 DUP6 PUSH2 0x1E87 JUMP JUMPDEST SWAP1 POP DUP2 DUP2 SUB PUSH1 0x20 DUP4 ADD MSTORE PUSH2 0x2572 DUP2 DUP5 PUSH2 0x1E87 JUMP JUMPDEST SWAP1 POP SWAP4 SWAP3 POP POP POP JUMP JUMPDEST PUSH0 DUP2 MLOAD SWAP1 POP SWAP2 SWAP1 POP JUMP JUMPDEST PUSH0 DUP3 DUP3 MSTORE PUSH1 0x20 DUP3 ADD SWAP1 POP SWAP3 SWAP2 POP POP JUMP JUMPDEST PUSH0 PUSH2 0x259F DUP3 PUSH2 0x257B JUMP JUMPDEST PUSH2 0x25A9 DUP2 DUP6 PUSH2 0x2585 JUMP JUMPDEST SWAP4 POP PUSH2 0x25B9 DUP2 DUP6 PUSH1 0x20 DUP7 ADD PUSH2 0x1A63 JUMP JUMPDEST PUSH2 0x25C2 DUP2 PUSH2 0x18A3 JUMP JUMPDEST DUP5 ADD SWAP2 POP POP SWAP3 SWAP2 POP POP JUMP JUMPDEST PUSH0 PUSH1 0xA0 DUP3 ADD SWAP1 POP PUSH2 0x25E0 PUSH0 DUP4 ADD DUP9 PUSH2 0x1F83 JUMP JUMPDEST PUSH2 0x25ED PUSH1 0x20 DUP4 ADD DUP8 PUSH2 0x1F83 JUMP JUMPDEST PUSH2 0x25FA PUSH1 0x40 DUP4 ADD DUP7 PUSH2 0x17C0 JUMP JUMPDEST PUSH2 0x2607 PUSH1 0x60 DUP4 ADD DUP6 PUSH2 0x17C0 JUMP JUMPDEST DUP2 DUP2 SUB PUSH1 0x80 DUP4 ADD MSTORE PUSH2 0x2619 DUP2 DUP5 PUSH2 0x2595 JUMP JUMPDEST SWAP1 POP SWAP7 SWAP6 POP POP POP POP POP POP JUMP JUMPDEST PUSH0 DUP2 MLOAD SWAP1 POP PUSH2 0x2633 DUP2 PUSH2 0x1813 JUMP JUMPDEST SWAP3 SWAP2 POP POP JUMP JUMPDEST PUSH0 PUSH1 0x20 DUP3 DUP5 SUB SLT ISZERO PUSH2 0x264E JUMPI PUSH2 0x264D PUSH2 0x16ED JUMP JUMPDEST JUMPDEST PUSH0 PUSH2 0x265B DUP5 DUP3 DUP6 ADD PUSH2 0x2625 JUMP JUMPDEST SWAP2 POP POP SWAP3 SWAP2 POP POP JUMP JUMPDEST PUSH0 PUSH1 0xA0 DUP3 ADD SWAP1 POP PUSH2 0x2677 PUSH0 DUP4 ADD DUP9 PUSH2 0x1F83 JUMP JUMPDEST PUSH2 0x2684 PUSH1 0x20 DUP4 ADD DUP8 PUSH2 0x1F83 JUMP JUMPDEST DUP2 DUP2 SUB PUSH1 0x40 DUP4 ADD MSTORE PUSH2 0x2696 DUP2 DUP7 PUSH2 0x1E87 JUMP JUMPDEST SWAP1 POP DUP2 DUP2 SUB PUSH1 0x60 DUP4 ADD MSTORE PUSH2 0x26AA DUP2 DUP6 PUSH2 0x1E87 JUMP JUMPDEST SWAP1 POP DUP2 DUP2 SUB PUSH1 0x80 DUP4 ADD MSTORE PUSH2 0x26BE DUP2 DUP5 PUSH2 0x2595 JUMP JUMPDEST SWAP1 POP SWAP7 SWAP6 POP POP POP POP POP POP JUMP INVALID LOG2 PUSH5 0x6970667358 0x22 SLT KECCAK256 INVALID 0x4C JUMP PUSH10 0x394C825D0EB1D6F2F25A ADDRESS CHAINID GT DUP15 PUSH6 0xD9DF119BD9DF 0x2C 0xB1 0xE1 SWAP4 0xB6 0xCD KECCAK256 PUSH5 0x736F6C6343 STOP ADDMOD NOT STOP CALLER "
				},
				"gasEstimates": {
					"creation": {
						"codeDepositCost": "1996800",
						"executionCost": "infinite",
						"totalCost": "infinite"
					},
					"external": {
						"balanceOf(address,uint256)": "infinite",
						"balanceOfBatch(address[],uint256[])": "infinite",
						"burn(address,uint256,uint256)": "infinite",
						"isApprovedForAll(address,address)": "infinite",
						"mint(address,uint256,uint256,bytes)": "infinite",
						"owner()": "2560",
						"renounceOwnership()": "infinite",
						"safeBatchTransferFrom(address,address,uint256[],uint256[],bytes)": "infinite",
						"safeTransferFrom(address,address,uint256,uint256,bytes)": "infinite",
						"setApprovalForAll(address,bool)": "infinite",
						"setURI(string)": "infinite",
						"supportsInterface(bytes4)": "809",
						"transferOwnership(address)": "infinite",
						"uri(uint256)": "infinite"
					}
				},
				"methodIdentifiers": {
					"balanceOf(address,uint256)": "00fdd58e",
					"balanceOfBatch(address[],uint256[])": "4e1273f4",
					"burn(address,uint256,uint256)": "f5298aca",
					"isApprovedForAll(address,address)": "e985e9c5",
					"mint(address,uint256,uint256,bytes)": "731133e9",
					"owner()": "8da5cb5b",
					"renounceOwnership()": "715018a6",
					"safeBatchTransferFrom(address,address,uint256[],uint256[],bytes)": "2eb2c2d6",
					"safeTransferFrom(address,address,uint256,uint256,bytes)": "f242432a",
					"setApprovalForAll(address,bool)": "a22cb465",
					"setURI(string)": "02fe5305",
					"supportsInterface(bytes4)": "01ffc9a7",
					"transferOwnership(address)": "f2fde38b",
					"uri(uint256)": "0e89341c"
				}
			},
			"storageLayout": {
				"storage": [
					{
						"astId": 326,
						"contract": "contracts/PropiedadesToke.sol:PropiedadesERC1155",
						"label": "_balances",
						"offset": 0,
						"slot": "0",
						"type": "t_mapping(t_uint256,t_mapping(t_address,t_uint256))"
					},
					{
						"astId": 332,
						"contract": "contracts/PropiedadesToke.sol:PropiedadesERC1155",
						"label": "_operatorApprovals",
						"offset": 0,
						"slot": "1",
						"type": "t_mapping(t_address,t_mapping(t_address,t_bool))"
					},
					{
						"astId": 334,
						"contract": "contracts/PropiedadesToke.sol:PropiedadesERC1155",
						"label": "_uri",
						"offset": 0,
						"slot": "2",
						"type": "t_string_storage"
					},
					{
						"astId": 8,
						"contract": "contracts/PropiedadesToke.sol:PropiedadesERC1155",
						"label": "_owner",
						"offset": 0,
						"slot": "3",
						"type": "t_address"
					}
				],
				"types": {
					"t_address": {
						"encoding": "inplace",
						"label": "address",
						"numberOfBytes": "20"
					},
					"t_bool": {
						"encoding": "inplace",
						"label": "bool",
						"numberOfBytes": "1"
					},
					"t_mapping(t_address,t_bool)": {
						"encoding": "mapping",
						"key": "t_address",
						"label": "mapping(address => bool)",
						"numberOfBytes": "32",
						"value": "t_bool"
					},
					"t_mapping(t_address,t_mapping(t_address,t_bool))": {
						"encoding": "mapping",
						"key": "t_address",
						"label": "mapping(address => mapping(address => bool))",
						"numberOfBytes": "32",
						"value": "t_mapping(t_address,t_bool)"
					},
					"t_mapping(t_address,t_uint256)": {
						"encoding": "mapping",
						"key": "t_address",
						"label": "mapping(address => uint256)",
						"numberOfBytes": "32",
						"value": "t_uint256"
					},
					"t_mapping(t_uint256,t_mapping(t_address,t_uint256))": {
						"encoding": "mapping",
						"key": "t_uint256",
						"label": "mapping(uint256 => mapping(address => uint256))",
						"numberOfBytes": "32",
						"value": "t_mapping(t_address,t_uint256)"
					},
					"t_string_storage": {
						"encoding": "bytes",
						"label": "string",
						"numberOfBytes": "32"
					},
					"t_uint256": {
						"encoding": "inplace",
						"label": "uint256",
						"numberOfBytes": "32"
					}
				}
			},
			"userdoc": {
				"kind": "user",
				"methods": {},
				"version": 1
			}
		}
	}
}