{
	"contracts/MyNFT_flattened.sol": {
		"MyToken": {
			"abi": [
				{
					"inputs": [],
					"stateMutability": "nonpayable",
					"type": "constructor"
				},
				{
					"inputs": [
						{
							"internalType": "address",
							"name": "sender",
							"type": "address"
						},
						{
							"internalType": "uint256",
							"name": "tokenId",
							"type": "uint256"
						},
						{
							"internalType": "address",
							"name": "owner",
							"type": "address"
						}
					],
					"name": "ERC721IncorrectOwner",
					"type": "error"
				},
				{
					"inputs": [
						{
							"internalType": "address",
							"name": "operator",
							"type": "address"
						},
						{
							"internalType": "uint256",
							"name": "tokenId",
							"type": "uint256"
						}
					],
					"name": "ERC721InsufficientApproval",
					"type": "error"
				},
				{
					"inputs": [
						{
							"internalType": "address",
							"name": "approver",
							"type": "address"
						}
					],
					"name": "ERC721InvalidApprover",
					"type": "error"
				},
				{
					"inputs": [
						{
							"internalType": "address",
							"name": "operator",
							"type": "address"
						}
					],
					"name": "ERC721InvalidOperator",
					"type": "error"
				},
				{
					"inputs": [
						{
							"internalType": "address",
							"name": "owner",
							"type": "address"
						}
					],
					"name": "ERC721InvalidOwner",
					"type": "error"
				},
				{
					"inputs": [
						{
							"internalType": "address",
							"name": "receiver",
							"type": "address"
						}
					],
					"name": "ERC721InvalidReceiver",
					"type": "error"
				},
				{
					"inputs": [
						{
							"internalType": "address",
							"name": "sender",
							"type": "address"
						}
					],
					"name": "ERC721InvalidSender",
					"type": "error"
				},
				{
					"inputs": [
						{
							"internalType": "uint256",
							"name": "tokenId",
							"type": "uint256"
						}
					],
					"name": "ERC721NonexistentToken",
					"type": "error"
				},
				{
					"anonymous": false,
					"inputs": [
						{
							"indexed": true,
							"internalType": "address",
							"name": "owner",
							"type": "address"
						},
						{
							"indexed": true,
							"internalType": "address",
							"name": "approved",
							"type": "address"
						},
						{
							"indexed": true,
							"internalType": "uint256",
							"name": "tokenId",
							"type": "uint256"
						}
					],
					"name": "Approval",
					"type": "event"
				},
				{
					"anonymous": false,
					"inputs": [
						{
							"indexed": true,
							"internalType": "address",
							"name": "owner",
							"type": "address"
						},
						{
							"indexed": true,
							"internalType": "address",
							"name": "operator",
							"type": "address"
						},
						{
							"indexed": false,
							"internalType": "bool",
							"name": "approved",
							"type": "bool"
						}
					],
					"name": "ApprovalForAll",
					"type": "event"
				},
				{
					"anonymous": false,
					"inputs": [
						{
							"indexed": true,
							"internalType": "address",
							"name": "from",
							"type": "address"
						},
						{
							"indexed": true,
							"internalType": "address",
							"name": "to",
							"type": "address"
						},
						{
							"indexed": true,
							"internalType": "uint256",
							"name": "tokenId",
							"type": "uint256"
						}
					],
					"name": "Transfer",
					"type": "event"
				},
				{
					"inputs": [
						{
							"internalType": "address",
							"name": "to",
							"type": "address"
						},
						{
							"internalType": "uint256",
							"name": "tokenId",
							"type": "uint256"
						}
					],
					"name": "approve",
					"outputs": [],
					"stateMutability": "nonpayable",
					"type": "function"
				},
				{
					"inputs": [
						{
							"internalType": "uint256",
							"name": "",
							"type": "uint256"
						}
					],
					"name": "assetPrices",
					"outputs": [
						{
							"internalType": "uint256",
							"name": "",
							"type": "uint256"
						}
					],
					"stateMutability": "view",
					"type": "function"
				},
				{
					"inputs": [
						{
							"internalType": "address",
							"name": "owner",
							"type": "address"
						}
					],
					"name": "balanceOf",
					"outputs": [
						{
							"internalType": "uint256",
							"name": "",
							"type": "uint256"
						}
					],
					"stateMutability": "view",
					"type": "function"
				},
				{
					"inputs": [
						{
							"internalType": "uint256",
							"name": "tokenId",
							"type": "uint256"
						}
					],
					"name": "buy",
					"outputs": [],
					"stateMutability": "payable",
					"type": "function"
				},
				{
					"inputs": [
						{
							"internalType": "uint256",
							"name": "tokenId",
							"type": "uint256"
						}
					],
					"name": "getApproved",
					"outputs": [
						{
							"internalType": "address",
							"name": "",
							"type": "address"
						}
					],
					"stateMutability": "view",
					"type": "function"
				},
				{
					"inputs": [
						{
							"internalType": "address",
							"name": "owner",
							"type": "address"
						},
						{
							"internalType": "address",
							"name": "operator",
							"type": "address"
						}
					],
					"name": "isApprovedForAll",
					"outputs": [
						{
							"internalType": "bool",
							"name": "",
							"type": "bool"
						}
					],
					"stateMutability": "view",
					"type": "function"
				},
				{
					"inputs": [
						{
							"internalType": "address",
							"name": "to",
							"type": "address"
						},
						{
							"internalType": "uint256",
							"name": "price",
							"type": "uint256"
						}
					],
					"name": "mint",
					"outputs": [],
					"stateMutability": "nonpayable",
					"type": "function"
				},
				{
					"inputs": [],
					"name": "name",
					"outputs": [
						{
							"internalType": "string",
							"name": "",
							"type": "string"
						}
					],
					"stateMutability": "view",
					"type": "function"
				},
				{
					"inputs": [],
					"name": "owner",
					"outputs": [
						{
							"internalType": "address",
							"name": "",
							"type": "address"
						}
					],
					"stateMutability": "view",
					"type": "function"
				},
				{
					"inputs": [
						{
							"internalType": "uint256",
							"name": "tokenId",
							"type": "uint256"
						}
					],
					"name": "ownerOf",
					"outputs": [
						{
							"internalType": "address",
							"name": "",
							"type": "address"
						}
					],
					"stateMutability": "view",
					"type": "function"
				},
				{
					"inputs": [
						{
							"internalType": "address",
							"name": "from",
							"type": "address"
						},
						{
							"internalType": "address",
							"name": "to",
							"type": "address"
						},
						{
							"internalType": "uint256",
							"name": "tokenId",
							"type": "uint256"
						}
					],
					"name": "safeTransferFrom",
					"outputs": [],
					"stateMutability": "nonpayable",
					"type": "function"
				},
				{
					"inputs": [
						{
							"internalType": "address",
							"name": "from",
							"type": "address"
						},
						{
							"internalType": "address",
							"name": "to",
							"type": "address"
						},
						{
							"internalType": "uint256",
							"name": "tokenId",
							"type": "uint256"
						},
						{
							"internalType": "bytes",
							"name": "data",
							"type": "bytes"
						}
					],
					"name": "safeTransferFrom",
					"outputs": [],
					"stateMutability": "nonpayable",
					"type": "function"
				},
				{
					"inputs": [
						{
							"internalType": "address",
							"name": "operator",
							"type": "address"
						},
						{
							"internalType": "bool",
							"name": "approved",
							"type": "bool"
						}
					],
					"name": "setApprovalForAll",
					"outputs": [],
					"stateMutability": "nonpayable",
					"type": "function"
				},
				{
					"inputs": [
						{
							"internalType": "uint256",
							"name": "tokenId",
							"type": "uint256"
						},
						{
							"internalType": "uint256",
							"name": "price",
							"type": "uint256"
						}
					],
					"name": "setPrice",
					"outputs": [],
					"stateMutability": "nonpayable",
					"type": "function"
				},
				{
					"inputs": [
						{
							"internalType": "bytes4",
							"name": "interfaceId",
							"type": "bytes4"
						}
					],
					"name": "supportsInterface",
					"outputs": [
						{
							"internalType": "bool",
							"name": "",
							"type": "bool"
						}
					],
					"stateMutability": "view",
					"type": "function"
				},
				{
					"inputs": [],
					"name": "symbol",
					"outputs": [
						{
							"internalType": "string",
							"name": "",
							"type": "string"
						}
					],
					"stateMutability": "view",
					"type": "function"
				},
				{
					"inputs": [
						{
							"internalType": "uint256",
							"name": "tokenId",
							"type": "uint256"
						}
					],
					"name": "tokenURI",
					"outputs": [
						{
							"internalType": "string",
							"name": "",
							"type": "string"
						}
					],
					"stateMutability": "view",
					"type": "function"
				},
				{
					"inputs": [
						{
							"internalType": "address",
							"name": "from",
							"type": "address"
						},
						{
							"internalType": "address",
							"name": "to",
							"type": "address"
						},
						{
							"internalType": "uint256",
							"name": "tokenId",
							"type": "uint256"
						}
					],
					"name": "transferFrom",
					"outputs": [],
					"stateMutability": "nonpayable",
					"type": "function"
				}
			],
			"devdoc": {
				"errors": {
					"ERC721IncorrectOwner(address,uint256,address)": [
						{
							"details": "Indicates an error related to the ownership over a particular token. Used in transfers.",
							"params": {
								"owner": "Address of the current owner of a token.",
								"sender": "Address whose tokens are being transferred.",
								"tokenId": "Identifier number of a token."
							}
						}
					],
					"ERC721InsufficientApproval(address,uint256)": [
						{
							"details": "Indicates a failure with the `operator`’s approval. Used in transfers.",
							"params": {
								"operator": "Address that may be allowed to operate on tokens without being their owner.",
								"tokenId": "Identifier number of a token."
							}
						}
					],
					"ERC721InvalidApprover(address)": [
						{
							"details": "Indicates a failure with the `approver` of a token to be approved. Used in approvals.",
							"params": {
								"approver": "Address initiating an approval operation."
							}
						}
					],
					"ERC721InvalidOperator(address)": [
						{
							"details": "Indicates a failure with the `operator` to be approved. Used in approvals.",
							"params": {
								"operator": "Address that may be allowed to operate on tokens without being their owner."
							}
						}
					],
					"ERC721InvalidOwner(address)": [
						{
							"details": "Indicates that an address can't be an owner. For example, `address(0)` is a forbidden owner in EIP-20. Used in balance queries.",
							"params": {
								"owner": "Address of the current owner of a token."
							}
						}
					],
					"ERC721InvalidReceiver(address)": [
						{
							"details": "Indicates a failure with the token `receiver`. Used in transfers.",
							"params": {
								"receiver": "Address to which tokens are being transferred."
							}
						}
					],
					"ERC721InvalidSender(address)": [
						{
							"details": "Indicates a failure with the token `sender`. Used in transfers.",
							"params": {
								"sender": "Address whose tokens are being transferred."
							}
						}
					],
					"ERC721NonexistentToken(uint256)": [
						{
							"details": "Indicates a `tokenId` whose `owner` is the zero address.",
							"params": {
								"tokenId": "Identifier number of a token."
							}
						}
					]
				},
				"events": {
					"Approval(address,address,uint256)": {
						"details": "Emitted when `owner` enables `approved` to manage the `tokenId` token."
					},
					"ApprovalForAll(address,address,bool)": {
						"details": "Emitted when `owner` enables or disables (`approved`) `operator` to manage all of its assets."
					},
					"Transfer(address,address,uint256)": {
						"details": "Emitted when `tokenId` token is transferred from `from` to `to`."
					}
				},
				"kind": "dev",
				"methods": {
					"approve(address,uint256)": {
						"details": "See {IERC721-approve}."
					},
					"balanceOf(address)": {
						"details": "See {IERC721-balanceOf}."
					},
					"getApproved(uint256)": {
						"details": "See {IERC721-getApproved}."
					},
					"isApprovedForAll(address,address)": {
						"details": "See {IERC721-isApprovedForAll}."
					},
					"name()": {
						"details": "See {IERC721Metadata-name}."
					},
					"ownerOf(uint256)": {
						"details": "See {IERC721-ownerOf}."
					},
					"safeTransferFrom(address,address,uint256)": {
						"details": "See {IERC721-safeTransferFrom}."
					},
					"safeTransferFrom(address,address,uint256,bytes)": {
						"details": "See {IERC721-safeTransferFrom}."
					},
					"setApprovalForAll(address,bool)": {
						"details": "See {IERC721-setApprovalForAll}."
					},
					"supportsInterface(bytes4)": {
						"details": "See {IERC165-supportsInterface}."
					},
					"symbol()": {
						"details": "See {IERC721Metadata-symbol}."
					},
					"tokenURI(uint256)": {
						"details": "See {IERC721Metadata-tokenURI}."
					},
					"transferFrom(address,address,uint256)": {
						"details": "See {IERC721-transferFrom}."
					}
				},
				"version": 1
			},
			"evm": {
				"assembly": "    /* \"contracts/MyNFT_flattened.sol\":57427:59292  contract MyToken is ERC721 {... */\n  mstore(0x40, 0x80)\n    /* \"contracts/MyNFT_flattened.sol\":57805:57878  constructor() ERC721(\"MyNFT\", \"MNFT\") {... */\n  callvalue\n  dup1\n  iszero\n  tag_1\n  jumpi\n  0x00\n  dup1\n  revert\ntag_1:\n  pop\n    /* \"contracts/MyNFT_flattened.sol\":39106:39219  constructor(string memory name_, string memory symbol_) {... */\n  mload(0x40)\n  dup1\n  0x40\n  add\n  0x40\n  mstore\n  dup1\n  0x05\n  dup2\n  mstore\n  0x20\n  add\n  0x4d794e4654000000000000000000000000000000000000000000000000000000\n  dup2\n  mstore\n  pop\n  mload(0x40)\n  dup1\n  0x40\n  add\n  0x40\n  mstore\n  dup1\n  0x04\n  dup2\n  mstore\n  0x20\n  add\n  0x4d4e465400000000000000000000000000000000000000000000000000000000\n  dup2\n  mstore\n  pop\n    /* \"contracts/MyNFT_flattened.sol\":39180:39185  name_ */\n  dup2\n    /* \"contracts/MyNFT_flattened.sol\":39172:39177  _name */\n  0x00\n    /* \"contracts/MyNFT_flattened.sol\":39172:39185  _name = name_ */\n  swap1\n  dup2\n  tag_5\n  swap2\n  swap1\n  tag_6\n  jump\t// in\ntag_5:\n  pop\n    /* \"contracts/MyNFT_flattened.sol\":39205:39212  symbol_ */\n  dup1\n    /* \"contracts/MyNFT_flattened.sol\":39195:39202  _symbol */\n  0x01\n    /* \"contracts/MyNFT_flattened.sol\":39195:39212  _symbol = symbol_ */\n  swap1\n  dup2\n  tag_7\n  swap2\n  swap1\n  tag_6\n  jump\t// in\ntag_7:\n  pop\n    /* \"contracts/MyNFT_flattened.sol\":39106:39219  constructor(string memory name_, string memory symbol_) {... */\n  pop\n  pop\n    /* \"contracts/MyNFT_flattened.sol\":57861:57871  msg.sender */\n  caller\n    /* \"contracts/MyNFT_flattened.sol\":57853:57858  owner */\n  0x06\n  0x00\n    /* \"contracts/MyNFT_flattened.sol\":57853:57871  owner = msg.sender */\n  0x0100\n  exp\n  dup2\n  sload\n  dup2\n  0xffffffffffffffffffffffffffffffffffffffff\n  mul\n  not\n  and\n  swap1\n  dup4\n  0xffffffffffffffffffffffffffffffffffffffff\n  and\n  mul\n  or\n  swap1\n  sstore\n  pop\n    /* \"contracts/MyNFT_flattened.sol\":57427:59292  contract MyToken is ERC721 {... */\n  jump(tag_9)\n    /* \"#utility.yul\":7:106   */\ntag_10:\n    /* \"#utility.yul\":59:65   */\n  0x00\n    /* \"#utility.yul\":93:98   */\n  dup2\n    /* \"#utility.yul\":87:99   */\n  mload\n    /* \"#utility.yul\":77:99   */\n  swap1\n  pop\n    /* \"#utility.yul\":7:106   */\n  swap2\n  swap1\n  pop\n  jump\t// out\n    /* \"#utility.yul\":112:292   */\ntag_11:\n    /* \"#utility.yul\":160:237   */\n  0x4e487b7100000000000000000000000000000000000000000000000000000000\n    /* \"#utility.yul\":157:158   */\n  0x00\n    /* \"#utility.yul\":150:238   */\n  mstore\n    /* \"#utility.yul\":257:261   */\n  0x41\n    /* \"#utility.yul\":254:255   */\n  0x04\n    /* \"#utility.yul\":247:262   */\n  mstore\n    /* \"#utility.yul\":281:285   */\n  0x24\n    /* \"#utility.yul\":278:279   */\n  0x00\n    /* \"#utility.yul\":271:286   */\n  revert\n    /* \"#utility.yul\":298:478   */\ntag_12:\n    /* \"#utility.yul\":346:423   */\n  0x4e487b7100000000000000000000000000000000000000000000000000000000\n    /* \"#utility.yul\":343:344   */\n  0x00\n    /* \"#utility.yul\":336:424   */\n  mstore\n    /* \"#utility.yul\":443:447   */\n  0x22\n    /* \"#utility.yul\":440:441   */\n  0x04\n    /* \"#utility.yul\":433:448   */\n  mstore\n    /* \"#utility.yul\":467:471   */\n  0x24\n    /* \"#utility.yul\":464:465   */\n  0x00\n    /* \"#utility.yul\":457:472   */\n  revert\n    /* \"#utility.yul\":484:804   */\ntag_13:\n    /* \"#utility.yul\":528:534   */\n  0x00\n    /* \"#utility.yul\":565:566   */\n  0x02\n    /* \"#utility.yul\":559:563   */\n  dup3\n    /* \"#utility.yul\":555:567   */\n  div\n    /* \"#utility.yul\":545:567   */\n  swap1\n  pop\n    /* \"#utility.yul\":612:613   */\n  0x01\n    /* \"#utility.yul\":606:610   */\n  dup3\n    /* \"#utility.yul\":602:614   */\n  and\n    /* \"#utility.yul\":633:651   */\n  dup1\n    /* \"#utility.yul\":623:704   */\n  tag_35\n  jumpi\n    /* \"#utility.yul\":689:693   */\n  0x7f\n    /* \"#utility.yul\":681:687   */\n  dup3\n    /* \"#utility.yul\":677:694   */\n  and\n    /* \"#utility.yul\":667:694   */\n  swap2\n  pop\n    /* \"#utility.yul\":623:704   */\ntag_35:\n    /* \"#utility.yul\":751:753   */\n  0x20\n    /* \"#utility.yul\":743:749   */\n  dup3\n    /* \"#utility.yul\":740:754   */\n  lt\n    /* \"#utility.yul\":720:738   */\n  dup2\n    /* \"#utility.yul\":717:755   */\n  sub\n    /* \"#utility.yul\":714:798   */\n  tag_36\n  jumpi\n    /* \"#utility.yul\":770:788   */\n  tag_37\n  tag_12\n  jump\t// in\ntag_37:\n    /* \"#utility.yul\":714:798   */\ntag_36:\n    /* \"#utility.yul\":535:804   */\n  pop\n    /* \"#utility.yul\":484:804   */\n  swap2\n  swap1\n  pop\n  jump\t// out\n    /* \"#utility.yul\":810:951   */\ntag_14:\n    /* \"#utility.yul\":859:863   */\n  0x00\n    /* \"#utility.yul\":882:885   */\n  dup2\n    /* \"#utility.yul\":874:885   */\n  swap1\n  pop\n    /* \"#utility.yul\":905:908   */\n  dup2\n    /* \"#utility.yul\":902:903   */\n  0x00\n    /* \"#utility.yul\":895:909   */\n  mstore\n    /* \"#utility.yul\":939:943   */\n  0x20\n    /* \"#utility.yul\":936:937   */\n  0x00\n    /* \"#utility.yul\":926:944   */\n  keccak256\n    /* \"#utility.yul\":918:944   */\n  swap1\n  pop\n    /* \"#utility.yul\":810:951   */\n  swap2\n  swap1\n  pop\n  jump\t// out\n    /* \"#utility.yul\":957:1050   */\ntag_15:\n    /* \"#utility.yul\":994:1000   */\n  0x00\n    /* \"#utility.yul\":1041:1043   */\n  0x20\n    /* \"#utility.yul\":1036:1038   */\n  0x1f\n    /* \"#utility.yul\":1029:1034   */\n  dup4\n    /* \"#utility.yul\":1025:1039   */\n  add\n    /* \"#utility.yul\":1021:1044   */\n  div\n    /* \"#utility.yul\":1011:1044   */\n  swap1\n  pop\n    /* \"#utility.yul\":957:1050   */\n  swap2\n  swap1\n  pop\n  jump\t// out\n    /* \"#utility.yul\":1056:1163   */\ntag_16:\n    /* \"#utility.yul\":1100:1108   */\n  0x00\n    /* \"#utility.yul\":1150:1155   */\n  dup3\n    /* \"#utility.yul\":1144:1148   */\n  dup3\n    /* \"#utility.yul\":1140:1156   */\n  shl\n    /* \"#utility.yul\":1119:1156   */\n  swap1\n  pop\n    /* \"#utility.yul\":1056:1163   */\n  swap3\n  swap2\n  pop\n  pop\n  jump\t// out\n    /* \"#utility.yul\":1169:1562   */\ntag_17:\n    /* \"#utility.yul\":1238:1244   */\n  0x00\n    /* \"#utility.yul\":1288:1289   */\n  0x08\n    /* \"#utility.yul\":1276:1286   */\n  dup4\n    /* \"#utility.yul\":1272:1290   */\n  mul\n    /* \"#utility.yul\":1311:1408   */\n  tag_42\n    /* \"#utility.yul\":1341:1407   */\n  0xffffffffffffffffffffffffffffffffffffffffffffffffffffffffffffffff\n    /* \"#utility.yul\":1330:1339   */\n  dup3\n    /* \"#utility.yul\":1311:1408   */\n  tag_16\n  jump\t// in\ntag_42:\n    /* \"#utility.yul\":1429:1468   */\n  tag_43\n    /* \"#utility.yul\":1459:1467   */\n  dup7\n    /* \"#utility.yul\":1448:1457   */\n  dup4\n    /* \"#utility.yul\":1429:1468   */\n  tag_16\n  jump\t// in\ntag_43:\n    /* \"#utility.yul\":1417:1468   */\n  swap6\n  pop\n    /* \"#utility.yul\":1501:1505   */\n  dup1\n    /* \"#utility.yul\":1497:1506   */\n  not\n    /* \"#utility.yul\":1490:1495   */\n  dup5\n    /* \"#utility.yul\":1486:1507   */\n  and\n    /* \"#utility.yul\":1477:1507   */\n  swap4\n  pop\n    /* \"#utility.yul\":1550:1554   */\n  dup1\n    /* \"#utility.yul\":1540:1548   */\n  dup7\n    /* \"#utility.yul\":1536:1555   */\n  and\n    /* \"#utility.yul\":1529:1534   */\n  dup5\n    /* \"#utility.yul\":1526:1556   */\n  or\n    /* \"#utility.yul\":1516:1556   */\n  swap3\n  pop\n    /* \"#utility.yul\":1245:1562   */\n  pop\n  pop\n    /* \"#utility.yul\":1169:1562   */\n  swap4\n  swap3\n  pop\n  pop\n  pop\n  jump\t// out\n    /* \"#utility.yul\":1568:1645   */\ntag_18:\n    /* \"#utility.yul\":1605:1612   */\n  0x00\n    /* \"#utility.yul\":1634:1639   */\n  dup2\n    /* \"#utility.yul\":1623:1639   */\n  swap1\n  pop\n    /* \"#utility.yul\":1568:1645   */\n  swap2\n  swap1\n  pop\n  jump\t// out\n    /* \"#utility.yul\":1651:1711   */\ntag_19:\n    /* \"#utility.yul\":1679:1682   */\n  0x00\n    /* \"#utility.yul\":1700:1705   */\n  dup2\n    /* \"#utility.yul\":1693:1705   */\n  swap1\n  pop\n    /* \"#utility.yul\":1651:1711   */\n  swap2\n  swap1\n  pop\n  jump\t// out\n    /* \"#utility.yul\":1717:1859   */\ntag_20:\n    /* \"#utility.yul\":1767:1776   */\n  0x00\n    /* \"#utility.yul\":1800:1853   */\n  tag_47\n    /* \"#utility.yul\":1818:1852   */\n  tag_48\n    /* \"#utility.yul\":1827:1851   */\n  tag_49\n    /* \"#utility.yul\":1845:1850   */\n  dup5\n    /* \"#utility.yul\":1827:1851   */\n  tag_18\n  jump\t// in\ntag_49:\n    /* \"#utility.yul\":1818:1852   */\n  tag_19\n  jump\t// in\ntag_48:\n    /* \"#utility.yul\":1800:1853   */\n  tag_18\n  jump\t// in\ntag_47:\n    /* \"#utility.yul\":1787:1853   */\n  swap1\n  pop\n    /* \"#utility.yul\":1717:1859   */\n  swap2\n  swap1\n  pop\n  jump\t// out\n    /* \"#utility.yul\":1865:1940   */\ntag_21:\n    /* \"#utility.yul\":1908:1911   */\n  0x00\n    /* \"#utility.yul\":1929:1934   */\n  dup2\n    /* \"#utility.yul\":1922:1934   */\n  swap1\n  pop\n    /* \"#utility.yul\":1865:1940   */\n  swap2\n  swap1\n  pop\n  jump\t// out\n    /* \"#utility.yul\":1946:2215   */\ntag_22:\n    /* \"#utility.yul\":2056:2095   */\n  tag_52\n    /* \"#utility.yul\":2087:2094   */\n  dup4\n    /* \"#utility.yul\":2056:2095   */\n  tag_20\n  jump\t// in\ntag_52:\n    /* \"#utility.yul\":2117:2208   */\n  tag_53\n    /* \"#utility.yul\":2166:2207   */\n  tag_54\n    /* \"#utility.yul\":2190:2206   */\n  dup3\n    /* \"#utility.yul\":2166:2207   */\n  tag_21\n  jump\t// in\ntag_54:\n    /* \"#utility.yul\":2158:2164   */\n  dup5\n    /* \"#utility.yul\":2151:2155   */\n  dup5\n    /* \"#utility.yul\":2145:2156   */\n  sload\n    /* \"#utility.yul\":2117:2208   */\n  tag_17\n  jump\t// in\ntag_53:\n    /* \"#utility.yul\":2111:2115   */\n  dup3\n    /* \"#utility.yul\":2104:2209   */\n  sstore\n    /* \"#utility.yul\":2022:2215   */\n  pop\n    /* \"#utility.yul\":1946:2215   */\n  pop\n  pop\n  pop\n  jump\t// out\n    /* \"#utility.yul\":2221:2294   */\ntag_23:\n    /* \"#utility.yul\":2266:2269   */\n  0x00\n    /* \"#utility.yul\":2221:2294   */\n  swap1\n  jump\t// out\n    /* \"#utility.yul\":2300:2489   */\ntag_24:\n    /* \"#utility.yul\":2377:2409   */\n  tag_57\n  tag_23\n  jump\t// in\ntag_57:\n    /* \"#utility.yul\":2418:2483   */\n  tag_58\n    /* \"#utility.yul\":2476:2482   */\n  dup2\n    /* \"#utility.yul\":2468:2474   */\n  dup5\n    /* \"#utility.yul\":2462:2466   */\n  dup5\n    /* \"#utility.yul\":2418:2483   */\n  tag_22\n  jump\t// in\ntag_58:\n    /* \"#utility.yul\":2353:2489   */\n  pop\n    /* \"#utility.yul\":2300:2489   */\n  pop\n  pop\n  jump\t// out\n    /* \"#utility.yul\":2495:2681   */\ntag_25:\n    /* \"#utility.yul\":2555:2675   */\ntag_60:\n    /* \"#utility.yul\":2572:2575   */\n  dup2\n    /* \"#utility.yul\":2565:2570   */\n  dup2\n    /* \"#utility.yul\":2562:2576   */\n  lt\n    /* \"#utility.yul\":2555:2675   */\n  iszero\n  tag_62\n  jumpi\n    /* \"#utility.yul\":2626:2665   */\n  tag_63\n    /* \"#utility.yul\":2663:2664   */\n  0x00\n    /* \"#utility.yul\":2656:2661   */\n  dup3\n    /* \"#utility.yul\":2626:2665   */\n  tag_24\n  jump\t// in\ntag_63:\n    /* \"#utility.yul\":2599:2600   */\n  0x01\n    /* \"#utility.yul\":2592:2597   */\n  dup2\n    /* \"#utility.yul\":2588:2601   */\n  add\n    /* \"#utility.yul\":2579:2601   */\n  swap1\n  pop\n    /* \"#utility.yul\":2555:2675   */\n  jump(tag_60)\ntag_62:\n    /* \"#utility.yul\":2495:2681   */\n  pop\n  pop\n  jump\t// out\n    /* \"#utility.yul\":2687:3230   */\ntag_26:\n    /* \"#utility.yul\":2788:2790   */\n  0x1f\n    /* \"#utility.yul\":2783:2786   */\n  dup3\n    /* \"#utility.yul\":2780:2791   */\n  gt\n    /* \"#utility.yul\":2777:3223   */\n  iszero\n  tag_65\n  jumpi\n    /* \"#utility.yul\":2822:2860   */\n  tag_66\n    /* \"#utility.yul\":2854:2859   */\n  dup2\n    /* \"#utility.yul\":2822:2860   */\n  tag_14\n  jump\t// in\ntag_66:\n    /* \"#utility.yul\":2906:2935   */\n  tag_67\n    /* \"#utility.yul\":2924:2934   */\n  dup5\n    /* \"#utility.yul\":2906:2935   */\n  tag_15\n  jump\t// in\ntag_67:\n    /* \"#utility.yul\":2896:2904   */\n  dup2\n    /* \"#utility.yul\":2892:2936   */\n  add\n    /* \"#utility.yul\":3089:3091   */\n  0x20\n    /* \"#utility.yul\":3077:3087   */\n  dup6\n    /* \"#utility.yul\":3074:3092   */\n  lt\n    /* \"#utility.yul\":3071:3120   */\n  iszero\n  tag_68\n  jumpi\n    /* \"#utility.yul\":3110:3118   */\n  dup2\n    /* \"#utility.yul\":3095:3118   */\n  swap1\n  pop\n    /* \"#utility.yul\":3071:3120   */\ntag_68:\n    /* \"#utility.yul\":3133:3213   */\n  tag_69\n    /* \"#utility.yul\":3189:3211   */\n  tag_70\n    /* \"#utility.yul\":3207:3210   */\n  dup6\n    /* \"#utility.yul\":3189:3211   */\n  tag_15\n  jump\t// in\ntag_70:\n    /* \"#utility.yul\":3179:3187   */\n  dup4\n    /* \"#utility.yul\":3175:3212   */\n  add\n    /* \"#utility.yul\":3162:3173   */\n  dup3\n    /* \"#utility.yul\":3133:3213   */\n  tag_25\n  jump\t// in\ntag_69:\n    /* \"#utility.yul\":2792:3223   */\n  pop\n  pop\n    /* \"#utility.yul\":2777:3223   */\ntag_65:\n    /* \"#utility.yul\":2687:3230   */\n  pop\n  pop\n  pop\n  jump\t// out\n    /* \"#utility.yul\":3236:3353   */\ntag_27:\n    /* \"#utility.yul\":3290:3298   */\n  0x00\n    /* \"#utility.yul\":3340:3345   */\n  dup3\n    /* \"#utility.yul\":3334:3338   */\n  dup3\n    /* \"#utility.yul\":3330:3346   */\n  shr\n    /* \"#utility.yul\":3309:3346   */\n  swap1\n  pop\n    /* \"#utility.yul\":3236:3353   */\n  swap3\n  swap2\n  pop\n  pop\n  jump\t// out\n    /* \"#utility.yul\":3359:3528   */\ntag_28:\n    /* \"#utility.yul\":3403:3409   */\n  0x00\n    /* \"#utility.yul\":3436:3487   */\n  tag_73\n    /* \"#utility.yul\":3484:3485   */\n  0x00\n    /* \"#utility.yul\":3480:3486   */\n  not\n    /* \"#utility.yul\":3472:3477   */\n  dup5\n    /* \"#utility.yul\":3469:3470   */\n  0x08\n    /* \"#utility.yul\":3465:3478   */\n  mul\n    /* \"#utility.yul\":3436:3487   */\n  tag_27\n  jump\t// in\ntag_73:\n    /* \"#utility.yul\":3432:3488   */\n  not\n    /* \"#utility.yul\":3517:3521   */\n  dup1\n    /* \"#utility.yul\":3511:3515   */\n  dup4\n    /* \"#utility.yul\":3507:3522   */\n  and\n    /* \"#utility.yul\":3497:3522   */\n  swap2\n  pop\n    /* \"#utility.yul\":3410:3528   */\n  pop\n    /* \"#utility.yul\":3359:3528   */\n  swap3\n  swap2\n  pop\n  pop\n  jump\t// out\n    /* \"#utility.yul\":3533:3828   */\ntag_29:\n    /* \"#utility.yul\":3609:3613   */\n  0x00\n    /* \"#utility.yul\":3755:3784   */\n  tag_75\n    /* \"#utility.yul\":3780:3783   */\n  dup4\n    /* \"#utility.yul\":3774:3778   */\n  dup4\n    /* \"#utility.yul\":3755:3784   */\n  tag_28\n  jump\t// in\ntag_75:\n    /* \"#utility.yul\":3747:3784   */\n  swap2\n  pop\n    /* \"#utility.yul\":3817:3820   */\n  dup3\n    /* \"#utility.yul\":3814:3815   */\n  0x02\n    /* \"#utility.yul\":3810:3821   */\n  mul\n    /* \"#utility.yul\":3804:3808   */\n  dup3\n    /* \"#utility.yul\":3801:3822   */\n  or\n    /* \"#utility.yul\":3793:3822   */\n  swap1\n  pop\n    /* \"#utility.yul\":3533:3828   */\n  swap3\n  swap2\n  pop\n  pop\n  jump\t// out\n    /* \"#utility.yul\":3833:5228   */\ntag_6:\n    /* \"#utility.yul\":3950:3987   */\n  tag_77\n    /* \"#utility.yul\":3983:3986   */\n  dup3\n    /* \"#utility.yul\":3950:3987   */\n  tag_10\n  jump\t// in\ntag_77:\n    /* \"#utility.yul\":4052:4070   */\n  0xffffffffffffffff\n    /* \"#utility.yul\":4044:4050   */\n  dup2\n    /* \"#utility.yul\":4041:4071   */\n  gt\n    /* \"#utility.yul\":4038:4094   */\n  iszero\n  tag_78\n  jumpi\n    /* \"#utility.yul\":4074:4092   */\n  tag_79\n  tag_11\n  jump\t// in\ntag_79:\n    /* \"#utility.yul\":4038:4094   */\ntag_78:\n    /* \"#utility.yul\":4118:4156   */\n  tag_80\n    /* \"#utility.yul\":4150:4154   */\n  dup3\n    /* \"#utility.yul\":4144:4155   */\n  sload\n    /* \"#utility.yul\":4118:4156   */\n  tag_13\n  jump\t// in\ntag_80:\n    /* \"#utility.yul\":4203:4270   */\n  tag_81\n    /* \"#utility.yul\":4263:4269   */\n  dup3\n    /* \"#utility.yul\":4255:4261   */\n  dup3\n    /* \"#utility.yul\":4249:4253   */\n  dup6\n    /* \"#utility.yul\":4203:4270   */\n  tag_26\n  jump\t// in\ntag_81:\n    /* \"#utility.yul\":4297:4298   */\n  0x00\n    /* \"#utility.yul\":4321:4325   */\n  0x20\n    /* \"#utility.yul\":4308:4325   */\n  swap1\n  pop\n    /* \"#utility.yul\":4353:4355   */\n  0x1f\n    /* \"#utility.yul\":4345:4351   */\n  dup4\n    /* \"#utility.yul\":4342:4356   */\n  gt\n    /* \"#utility.yul\":4370:4371   */\n  0x01\n    /* \"#utility.yul\":4365:4983   */\n  dup2\n  eq\n  tag_83\n  jumpi\n    /* \"#utility.yul\":5027:5028   */\n  0x00\n    /* \"#utility.yul\":5044:5050   */\n  dup5\n    /* \"#utility.yul\":5041:5118   */\n  iszero\n  tag_84\n  jumpi\n    /* \"#utility.yul\":5093:5102   */\n  dup3\n    /* \"#utility.yul\":5088:5091   */\n  dup8\n    /* \"#utility.yul\":5084:5103   */\n  add\n    /* \"#utility.yul\":5078:5104   */\n  mload\n    /* \"#utility.yul\":5069:5104   */\n  swap1\n  pop\n    /* \"#utility.yul\":5041:5118   */\ntag_84:\n    /* \"#utility.yul\":5144:5211   */\n  tag_85\n    /* \"#utility.yul\":5204:5210   */\n  dup6\n    /* \"#utility.yul\":5197:5202   */\n  dup3\n    /* \"#utility.yul\":5144:5211   */\n  tag_29\n  jump\t// in\ntag_85:\n    /* \"#utility.yul\":5138:5142   */\n  dup7\n    /* \"#utility.yul\":5131:5212   */\n  sstore\n    /* \"#utility.yul\":5000:5222   */\n  pop\n    /* \"#utility.yul\":4335:5222   */\n  jump(tag_82)\n    /* \"#utility.yul\":4365:4983   */\ntag_83:\n    /* \"#utility.yul\":4417:4421   */\n  0x1f\n    /* \"#utility.yul\":4413:4422   */\n  not\n    /* \"#utility.yul\":4405:4411   */\n  dup5\n    /* \"#utility.yul\":4401:4423   */\n  and\n    /* \"#utility.yul\":4451:4488   */\n  tag_86\n    /* \"#utility.yul\":4483:4487   */\n  dup7\n    /* \"#utility.yul\":4451:4488   */\n  tag_14\n  jump\t// in\ntag_86:\n    /* \"#utility.yul\":4510:4511   */\n  0x00\n    /* \"#utility.yul\":4524:4732   */\ntag_87:\n    /* \"#utility.yul\":4538:4545   */\n  dup3\n    /* \"#utility.yul\":4535:4536   */\n  dup2\n    /* \"#utility.yul\":4532:4546   */\n  lt\n    /* \"#utility.yul\":4524:4732   */\n  iszero\n  tag_89\n  jumpi\n    /* \"#utility.yul\":4617:4626   */\n  dup5\n    /* \"#utility.yul\":4612:4615   */\n  dup10\n    /* \"#utility.yul\":4608:4627   */\n  add\n    /* \"#utility.yul\":4602:4628   */\n  mload\n    /* \"#utility.yul\":4594:4600   */\n  dup3\n    /* \"#utility.yul\":4587:4629   */\n  sstore\n    /* \"#utility.yul\":4668:4669   */\n  0x01\n    /* \"#utility.yul\":4660:4666   */\n  dup3\n    /* \"#utility.yul\":4656:4670   */\n  add\n    /* \"#utility.yul\":4646:4670   */\n  swap2\n  pop\n    /* \"#utility.yul\":4715:4717   */\n  0x20\n    /* \"#utility.yul\":4704:4713   */\n  dup6\n    /* \"#utility.yul\":4700:4718   */\n  add\n    /* \"#utility.yul\":4687:4718   */\n  swap5\n  pop\n    /* \"#utility.yul\":4561:4565   */\n  0x20\n    /* \"#utility.yul\":4558:4559   */\n  dup2\n    /* \"#utility.yul\":4554:4566   */\n  add\n    /* \"#utility.yul\":4549:4566   */\n  swap1\n  pop\n    /* \"#utility.yul\":4524:4732   */\n  jump(tag_87)\ntag_89:\n    /* \"#utility.yul\":4760:4766   */\n  dup7\n    /* \"#utility.yul\":4751:4758   */\n  dup4\n    /* \"#utility.yul\":4748:4767   */\n  lt\n    /* \"#utility.yul\":4745:4924   */\n  iszero\n  tag_90\n  jumpi\n    /* \"#utility.yul\":4818:4827   */\n  dup5\n    /* \"#utility.yul\":4813:4816   */\n  dup10\n    /* \"#utility.yul\":4809:4828   */\n  add\n    /* \"#utility.yul\":4803:4829   */\n  mload\n    /* \"#utility.yul\":4861:4909   */\n  tag_91\n    /* \"#utility.yul\":4903:4907   */\n  0x1f\n    /* \"#utility.yul\":4895:4901   */\n  dup10\n    /* \"#utility.yul\":4891:4908   */\n  and\n    /* \"#utility.yul\":4880:4889   */\n  dup3\n    /* \"#utility.yul\":4861:4909   */\n  tag_28\n  jump\t// in\ntag_91:\n    /* \"#utility.yul\":4853:4859   */\n  dup4\n    /* \"#utility.yul\":4846:4910   */\n  sstore\n    /* \"#utility.yul\":4768:4924   */\n  pop\n    /* \"#utility.yul\":4745:4924   */\ntag_90:\n    /* \"#utility.yul\":4970:4971   */\n  0x01\n    /* \"#utility.yul\":4966:4967   */\n  0x02\n    /* \"#utility.yul\":4958:4964   */\n  dup9\n    /* \"#utility.yul\":4954:4968   */\n  mul\n    /* \"#utility.yul\":4950:4972   */\n  add\n    /* \"#utility.yul\":4944:4948   */\n  dup9\n    /* \"#utility.yul\":4937:4973   */\n  sstore\n    /* \"#utility.yul\":4372:4983   */\n  pop\n  pop\n  pop\n    /* \"#utility.yul\":4335:5222   */\ntag_82:\n  pop\n    /* \"#utility.yul\":3925:5228   */\n  pop\n  pop\n  pop\n    /* \"#utility.yul\":3833:5228   */\n  pop\n  pop\n  jump\t// out\n    /* \"contracts/MyNFT_flattened.sol\":57427:59292  contract MyToken is ERC721 {... */\ntag_9:\n  dataSize(sub_0)\n  dup1\n  dataOffset(sub_0)\n  0x00\n  codecopy\n  0x00\n  return\nstop\n\nsub_0: assembly {\n        /* \"contracts/MyNFT_flattened.sol\":57427:59292  contract MyToken is ERC721 {... */\n      mstore(0x40, 0x80)\n      jumpi(tag_1, lt(calldatasize, 0x04))\n      shr(0xe0, calldataload(0x00))\n      dup1\n      0x70a08231\n      gt\n      tag_20\n      jumpi\n      dup1\n      0xb88d4fde\n      gt\n      tag_21\n      jumpi\n      dup1\n      0xb88d4fde\n      eq\n      tag_15\n      jumpi\n      dup1\n      0xc87b56dd\n      eq\n      tag_16\n      jumpi\n      dup1\n      0xd96a094a\n      eq\n      tag_17\n      jumpi\n      dup1\n      0xe985e9c5\n      eq\n      tag_18\n      jumpi\n      dup1\n      0xf7d97577\n      eq\n      tag_19\n      jumpi\n      jump(tag_1)\n    tag_21:\n      dup1\n      0x70a08231\n      eq\n      tag_11\n      jumpi\n      dup1\n      0x8da5cb5b\n      eq\n      tag_12\n      jumpi\n      dup1\n      0x95d89b41\n      eq\n      tag_13\n      jumpi\n      dup1\n      0xa22cb465\n      eq\n      tag_14\n      jumpi\n      jump(tag_1)\n    tag_20:\n      dup1\n      0x23b872dd\n      gt\n      tag_22\n      jumpi\n      dup1\n      0x23b872dd\n      eq\n      tag_6\n      jumpi\n      dup1\n      0x40c10f19\n      eq\n      tag_7\n      jumpi\n      dup1\n      0x4191c45b\n      eq\n      tag_8\n      jumpi\n      dup1\n      0x42842e0e\n      eq\n      tag_9\n      jumpi\n      dup1\n      0x6352211e\n      eq\n      tag_10\n      jumpi\n      jump(tag_1)\n    tag_22:\n      dup1\n      0x01ffc9a7\n      eq\n      tag_2\n      jumpi\n      dup1\n      0x06fdde03\n      eq\n      tag_3\n      jumpi\n      dup1\n      0x081812fc\n      eq\n      tag_4\n      jumpi\n      dup1\n      0x095ea7b3\n      eq\n      tag_5\n      jumpi\n    tag_1:\n      0x00\n      dup1\n      revert\n        /* \"contracts/MyNFT_flattened.sol\":39286:39586  function supportsInterface(bytes4 interfaceId) public view virtual override(ERC165, IERC165) returns (bool) {... */\n    tag_2:\n      callvalue\n      dup1\n      iszero\n      tag_23\n      jumpi\n      0x00\n      dup1\n      revert\n    tag_23:\n      pop\n      tag_24\n      0x04\n      dup1\n      calldatasize\n      sub\n      dup2\n      add\n      swap1\n      tag_25\n      swap2\n      swap1\n      tag_26\n      jump\t// in\n    tag_25:\n      tag_27\n      jump\t// in\n    tag_24:\n      mload(0x40)\n      tag_28\n      swap2\n      swap1\n      tag_29\n      jump\t// in\n    tag_28:\n      mload(0x40)\n      dup1\n      swap2\n      sub\n      swap1\n      return\n        /* \"contracts/MyNFT_flattened.sol\":40090:40179  function name() public view virtual returns (string memory) {... */\n    tag_3:\n      callvalue\n      dup1\n      iszero\n      tag_30\n      jumpi\n      0x00\n      dup1\n      revert\n    tag_30:\n      pop\n      tag_31\n      tag_32\n      jump\t// in\n    tag_31:\n      mload(0x40)\n      tag_33\n      swap2\n      swap1\n      tag_34\n      jump\t// in\n    tag_33:\n      mload(0x40)\n      dup1\n      swap2\n      sub\n      swap1\n      return\n        /* \"contracts/MyNFT_flattened.sol\":41222:41376  function getApproved(uint256 tokenId) public view virtual returns (address) {... */\n    tag_4:\n      callvalue\n      dup1\n      iszero\n      tag_35\n      jumpi\n      0x00\n      dup1\n      revert\n    tag_35:\n      pop\n      tag_36\n      0x04\n      dup1\n      calldatasize\n      sub\n      dup2\n      add\n      swap1\n      tag_37\n      swap2\n      swap1\n      tag_38\n      jump\t// in\n    tag_37:\n      tag_39\n      jump\t// in\n    tag_36:\n      mload(0x40)\n      tag_40\n      swap2\n      swap1\n      tag_41\n      jump\t// in\n    tag_40:\n      mload(0x40)\n      dup1\n      swap2\n      sub\n      swap1\n      return\n        /* \"contracts/MyNFT_flattened.sol\":41048:41161  function approve(address to, uint256 tokenId) public virtual {... */\n    tag_5:\n      callvalue\n      dup1\n      iszero\n      tag_42\n      jumpi\n      0x00\n      dup1\n      revert\n    tag_42:\n      pop\n      tag_43\n      0x04\n      dup1\n      calldatasize\n      sub\n      dup2\n      add\n      swap1\n      tag_44\n      swap2\n      swap1\n      tag_45\n      jump\t// in\n    tag_44:\n      tag_46\n      jump\t// in\n    tag_43:\n      stop\n        /* \"contracts/MyNFT_flattened.sol\":41868:42446  function transferFrom(address from, address to, uint256 tokenId) public virtual {... */\n    tag_6:\n      callvalue\n      dup1\n      iszero\n      tag_47\n      jumpi\n      0x00\n      dup1\n      revert\n    tag_47:\n      pop\n      tag_48\n      0x04\n      dup1\n      calldatasize\n      sub\n      dup2\n      add\n      swap1\n      tag_49\n      swap2\n      swap1\n      tag_50\n      jump\t// in\n    tag_49:\n      tag_51\n      jump\t// in\n    tag_48:\n      stop\n        /* \"contracts/MyNFT_flattened.sol\":58056:58336  function mint(address to, uint256 price) external onlyOwner {... */\n    tag_7:\n      callvalue\n      dup1\n      iszero\n      tag_52\n      jumpi\n      0x00\n      dup1\n      revert\n    tag_52:\n      pop\n      tag_53\n      0x04\n      dup1\n      calldatasize\n      sub\n      dup2\n      add\n      swap1\n      tag_54\n      swap2\n      swap1\n      tag_45\n      jump\t// in\n    tag_54:\n      tag_55\n      jump\t// in\n    tag_53:\n      stop\n        /* \"contracts/MyNFT_flattened.sol\":57655:57701  mapping(uint256 => uint256) public assetPrices */\n    tag_8:\n      callvalue\n      dup1\n      iszero\n      tag_56\n      jumpi\n      0x00\n      dup1\n      revert\n    tag_56:\n      pop\n      tag_57\n      0x04\n      dup1\n      calldatasize\n      sub\n      dup2\n      add\n      swap1\n      tag_58\n      swap2\n      swap1\n      tag_38\n      jump\t// in\n    tag_58:\n      tag_59\n      jump\t// in\n    tag_57:\n      mload(0x40)\n      tag_60\n      swap2\n      swap1\n      tag_61\n      jump\t// in\n    tag_60:\n      mload(0x40)\n      dup1\n      swap2\n      sub\n      swap1\n      return\n        /* \"contracts/MyNFT_flattened.sol\":42512:42644  function safeTransferFrom(address from, address to, uint256 tokenId) public {... */\n    tag_9:\n      callvalue\n      dup1\n      iszero\n      tag_62\n      jumpi\n      0x00\n      dup1\n      revert\n    tag_62:\n      pop\n      tag_63\n      0x04\n      dup1\n      calldatasize\n      sub\n      dup2\n      add\n      swap1\n      tag_64\n      swap2\n      swap1\n      tag_50\n      jump\t// in\n    tag_64:\n      tag_65\n      jump\t// in\n    tag_63:\n      stop\n        /* \"contracts/MyNFT_flattened.sol\":39910:40028  function ownerOf(uint256 tokenId) public view virtual returns (address) {... */\n    tag_10:\n      callvalue\n      dup1\n      iszero\n      tag_66\n      jumpi\n      0x00\n      dup1\n      revert\n    tag_66:\n      pop\n      tag_67\n      0x04\n      dup1\n      calldatasize\n      sub\n      dup2\n      add\n      swap1\n      tag_68\n      swap2\n      swap1\n      tag_38\n      jump\t// in\n    tag_68:\n      tag_69\n      jump\t// in\n    tag_67:\n      mload(0x40)\n      tag_70\n      swap2\n      swap1\n      tag_41\n      jump\t// in\n    tag_70:\n      mload(0x40)\n      dup1\n      swap2\n      sub\n      swap1\n      return\n        /* \"contracts/MyNFT_flattened.sol\":39645:39853  function balanceOf(address owner) public view virtual returns (uint256) {... */\n    tag_11:\n      callvalue\n      dup1\n      iszero\n      tag_71\n      jumpi\n      0x00\n      dup1\n      revert\n    tag_71:\n      pop\n      tag_72\n      0x04\n      dup1\n      calldatasize\n      sub\n      dup2\n      add\n      swap1\n      tag_73\n      swap2\n      swap1\n      tag_74\n      jump\t// in\n    tag_73:\n      tag_75\n      jump\t// in\n    tag_72:\n      mload(0x40)\n      tag_76\n      swap2\n      swap1\n      tag_61\n      jump\t// in\n    tag_76:\n      mload(0x40)\n      dup1\n      swap2\n      sub\n      swap1\n      return\n        /* \"contracts/MyNFT_flattened.sol\":57501:57521  address public owner */\n    tag_12:\n      callvalue\n      dup1\n      iszero\n      tag_77\n      jumpi\n      0x00\n      dup1\n      revert\n    tag_77:\n      pop\n      tag_78\n      tag_79\n      jump\t// in\n    tag_78:\n      mload(0x40)\n      tag_80\n      swap2\n      swap1\n      tag_41\n      jump\t// in\n    tag_80:\n      mload(0x40)\n      dup1\n      swap2\n      sub\n      swap1\n      return\n        /* \"contracts/MyNFT_flattened.sol\":40243:40336  function symbol() public view virtual returns (string memory) {... */\n    tag_13:\n      callvalue\n      dup1\n      iszero\n      tag_81\n      jumpi\n      0x00\n      dup1\n      revert\n    tag_81:\n      pop\n      tag_82\n      tag_83\n      jump\t// in\n    tag_82:\n      mload(0x40)\n      tag_84\n      swap2\n      swap1\n      tag_34\n      jump\t// in\n    tag_84:\n      mload(0x40)\n      dup1\n      swap2\n      sub\n      swap1\n      return\n        /* \"contracts/MyNFT_flattened.sol\":41443:41587  function setApprovalForAll(address operator, bool approved) public virtual {... */\n    tag_14:\n      callvalue\n      dup1\n      iszero\n      tag_85\n      jumpi\n      0x00\n      dup1\n      revert\n    tag_85:\n      pop\n      tag_86\n      0x04\n      dup1\n      calldatasize\n      sub\n      dup2\n      add\n      swap1\n      tag_87\n      swap2\n      swap1\n      tag_88\n      jump\t// in\n    tag_87:\n      tag_89\n      jump\t// in\n    tag_86:\n      stop\n        /* \"contracts/MyNFT_flattened.sol\":42710:42918  function safeTransferFrom(address from, address to, uint256 tokenId, bytes memory data) public virtual {... */\n    tag_15:\n      callvalue\n      dup1\n      iszero\n      tag_90\n      jumpi\n      0x00\n      dup1\n      revert\n    tag_90:\n      pop\n      tag_91\n      0x04\n      dup1\n      calldatasize\n      sub\n      dup2\n      add\n      swap1\n      tag_92\n      swap2\n      swap1\n      tag_93\n      jump\t// in\n    tag_92:\n      tag_94\n      jump\t// in\n    tag_91:\n      stop\n        /* \"contracts/MyNFT_flattened.sol\":40402:40657  function tokenURI(uint256 tokenId) public view virtual returns (string memory) {... */\n    tag_16:\n      callvalue\n      dup1\n      iszero\n      tag_95\n      jumpi\n      0x00\n      dup1\n      revert\n    tag_95:\n      pop\n      tag_96\n      0x04\n      dup1\n      calldatasize\n      sub\n      dup2\n      add\n      swap1\n      tag_97\n      swap2\n      swap1\n      tag_38\n      jump\t// in\n    tag_97:\n      tag_98\n      jump\t// in\n    tag_96:\n      mload(0x40)\n      tag_99\n      swap2\n      swap1\n      tag_34\n      jump\t// in\n    tag_99:\n      mload(0x40)\n      dup1\n      swap2\n      sub\n      swap1\n      return\n        /* \"contracts/MyNFT_flattened.sol\":58404:58838  function buy(uint256 tokenId) external payable {... */\n    tag_17:\n      tag_100\n      0x04\n      dup1\n      calldatasize\n      sub\n      dup2\n      add\n      swap1\n      tag_101\n      swap2\n      swap1\n      tag_38\n      jump\t// in\n    tag_101:\n      tag_102\n      jump\t// in\n    tag_100:\n      stop\n        /* \"contracts/MyNFT_flattened.sol\":41653:41806  function isApprovedForAll(address owner, address operator) public view virtual returns (bool) {... */\n    tag_18:\n      callvalue\n      dup1\n      iszero\n      tag_103\n      jumpi\n      0x00\n      dup1\n      revert\n    tag_103:\n      pop\n      tag_104\n      0x04\n      dup1\n      calldatasize\n      sub\n      dup2\n      add\n      swap1\n      tag_105\n      swap2\n      swap1\n      tag_106\n      jump\t// in\n    tag_105:\n      tag_107\n      jump\t// in\n    tag_104:\n      mload(0x40)\n      tag_108\n      swap2\n      swap1\n      tag_29\n      jump\t// in\n    tag_108:\n      mload(0x40)\n      dup1\n      swap2\n      sub\n      swap1\n      return\n        /* \"contracts/MyNFT_flattened.sol\":58939:59116  function setPrice(uint256 tokenId, uint256 price) external onlyOwner {... */\n    tag_19:\n      callvalue\n      dup1\n      iszero\n      tag_109\n      jumpi\n      0x00\n      dup1\n      revert\n    tag_109:\n      pop\n      tag_110\n      0x04\n      dup1\n      calldatasize\n      sub\n      dup2\n      add\n      swap1\n      tag_111\n      swap2\n      swap1\n      tag_112\n      jump\t// in\n    tag_111:\n      tag_113\n      jump\t// in\n    tag_110:\n      stop\n        /* \"contracts/MyNFT_flattened.sol\":39286:39586  function supportsInterface(bytes4 interfaceId) public view virtual override(ERC165, IERC165) returns (bool) {... */\n    tag_27:\n        /* \"contracts/MyNFT_flattened.sol\":39388:39392  bool */\n      0x00\n        /* \"contracts/MyNFT_flattened.sol\":39438:39463  type(IERC721).interfaceId */\n      0x80ac58cd00000000000000000000000000000000000000000000000000000000\n        /* \"contracts/MyNFT_flattened.sol\":39423:39463  interfaceId == type(IERC721).interfaceId */\n      not(0xffffffffffffffffffffffffffffffffffffffffffffffffffffffff)\n      and\n        /* \"contracts/MyNFT_flattened.sol\":39423:39434  interfaceId */\n      dup3\n        /* \"contracts/MyNFT_flattened.sol\":39423:39463  interfaceId == type(IERC721).interfaceId */\n      not(0xffffffffffffffffffffffffffffffffffffffffffffffffffffffff)\n      and\n      eq\n        /* \"contracts/MyNFT_flattened.sol\":39423:39527  interfaceId == type(IERC721).interfaceId ||... */\n      dup1\n      tag_115\n      jumpi\n      pop\n        /* \"contracts/MyNFT_flattened.sol\":39494:39527  type(IERC721Metadata).interfaceId */\n      0x5b5e139f00000000000000000000000000000000000000000000000000000000\n        /* \"contracts/MyNFT_flattened.sol\":39479:39527  interfaceId == type(IERC721Metadata).interfaceId */\n      not(0xffffffffffffffffffffffffffffffffffffffffffffffffffffffff)\n      and\n        /* \"contracts/MyNFT_flattened.sol\":39479:39490  interfaceId */\n      dup3\n        /* \"contracts/MyNFT_flattened.sol\":39479:39527  interfaceId == type(IERC721Metadata).interfaceId */\n      not(0xffffffffffffffffffffffffffffffffffffffffffffffffffffffff)\n      and\n      eq\n        /* \"contracts/MyNFT_flattened.sol\":39423:39527  interfaceId == type(IERC721).interfaceId ||... */\n    tag_115:\n        /* \"contracts/MyNFT_flattened.sol\":39423:39579  interfaceId == type(IERC721).interfaceId ||... */\n      dup1\n      tag_116\n      jumpi\n      pop\n        /* \"contracts/MyNFT_flattened.sol\":39543:39579  super.supportsInterface(interfaceId) */\n      tag_117\n        /* \"contracts/MyNFT_flattened.sol\":39567:39578  interfaceId */\n      dup3\n        /* \"contracts/MyNFT_flattened.sol\":39543:39566  super.supportsInterface */\n      tag_118\n        /* \"contracts/MyNFT_flattened.sol\":39543:39579  super.supportsInterface(interfaceId) */\n      jump\t// in\n    tag_117:\n        /* \"contracts/MyNFT_flattened.sol\":39423:39579  interfaceId == type(IERC721).interfaceId ||... */\n    tag_116:\n        /* \"contracts/MyNFT_flattened.sol\":39404:39579  return... */\n      swap1\n      pop\n        /* \"contracts/MyNFT_flattened.sol\":39286:39586  function supportsInterface(bytes4 interfaceId) public view virtual override(ERC165, IERC165) returns (bool) {... */\n      swap2\n      swap1\n      pop\n      jump\t// out\n        /* \"contracts/MyNFT_flattened.sol\":40090:40179  function name() public view virtual returns (string memory) {... */\n    tag_32:\n        /* \"contracts/MyNFT_flattened.sol\":40135:40148  string memory */\n      0x60\n        /* \"contracts/MyNFT_flattened.sol\":40167:40172  _name */\n      0x00\n        /* \"contracts/MyNFT_flattened.sol\":40160:40172  return _name */\n      dup1\n      sload\n      tag_120\n      swap1\n      tag_121\n      jump\t// in\n    tag_120:\n      dup1\n      0x1f\n      add\n      0x20\n      dup1\n      swap2\n      div\n      mul\n      0x20\n      add\n      mload(0x40)\n      swap1\n      dup2\n      add\n      0x40\n      mstore\n      dup1\n      swap3\n      swap2\n      swap1\n      dup2\n      dup2\n      mstore\n      0x20\n      add\n      dup3\n      dup1\n      sload\n      tag_122\n      swap1\n      tag_121\n      jump\t// in\n    tag_122:\n      dup1\n      iszero\n      tag_123\n      jumpi\n      dup1\n      0x1f\n      lt\n      tag_124\n      jumpi\n      0x0100\n      dup1\n      dup4\n      sload\n      div\n      mul\n      dup4\n      mstore\n      swap2\n      0x20\n      add\n      swap2\n      jump(tag_123)\n    tag_124:\n      dup3\n      add\n      swap2\n      swap1\n      0x00\n      mstore\n      keccak256(0x00, 0x20)\n      swap1\n    tag_125:\n      dup2\n      sload\n      dup2\n      mstore\n      swap1\n      0x01\n      add\n      swap1\n      0x20\n      add\n      dup1\n      dup4\n      gt\n      tag_125\n      jumpi\n      dup3\n      swap1\n      sub\n      0x1f\n      and\n      dup3\n      add\n      swap2\n    tag_123:\n      pop\n      pop\n      pop\n      pop\n      pop\n      swap1\n      pop\n        /* \"contracts/MyNFT_flattened.sol\":40090:40179  function name() public view virtual returns (string memory) {... */\n      swap1\n      jump\t// out\n        /* \"contracts/MyNFT_flattened.sol\":41222:41376  function getApproved(uint256 tokenId) public view virtual returns (address) {... */\n    tag_39:\n        /* \"contracts/MyNFT_flattened.sol\":41289:41296  address */\n      0x00\n        /* \"contracts/MyNFT_flattened.sol\":41308:41330  _requireOwned(tokenId) */\n      tag_127\n        /* \"contracts/MyNFT_flattened.sol\":41322:41329  tokenId */\n      dup3\n        /* \"contracts/MyNFT_flattened.sol\":41308:41321  _requireOwned */\n      tag_128\n        /* \"contracts/MyNFT_flattened.sol\":41308:41330  _requireOwned(tokenId) */\n      jump\t// in\n    tag_127:\n      pop\n        /* \"contracts/MyNFT_flattened.sol\":41348:41369  _getApproved(tokenId) */\n      tag_129\n        /* \"contracts/MyNFT_flattened.sol\":41361:41368  tokenId */\n      dup3\n        /* \"contracts/MyNFT_flattened.sol\":41348:41360  _getApproved */\n      tag_130\n        /* \"contracts/MyNFT_flattened.sol\":41348:41369  _getApproved(tokenId) */\n      jump\t// in\n    tag_129:\n        /* \"contracts/MyNFT_flattened.sol\":41341:41369  return _getApproved(tokenId) */\n      swap1\n      pop\n        /* \"contracts/MyNFT_flattened.sol\":41222:41376  function getApproved(uint256 tokenId) public view virtual returns (address) {... */\n      swap2\n      swap1\n      pop\n      jump\t// out\n        /* \"contracts/MyNFT_flattened.sol\":41048:41161  function approve(address to, uint256 tokenId) public virtual {... */\n    tag_46:\n        /* \"contracts/MyNFT_flattened.sol\":41119:41154  _approve(to, tokenId, _msgSender()) */\n      tag_132\n        /* \"contracts/MyNFT_flattened.sol\":41128:41130  to */\n      dup3\n        /* \"contracts/MyNFT_flattened.sol\":41132:41139  tokenId */\n      dup3\n        /* \"contracts/MyNFT_flattened.sol\":41141:41153  _msgSender() */\n      tag_133\n        /* \"contracts/MyNFT_flattened.sol\":41141:41151  _msgSender */\n      tag_134\n        /* \"contracts/MyNFT_flattened.sol\":41141:41153  _msgSender() */\n      jump\t// in\n    tag_133:\n        /* \"contracts/MyNFT_flattened.sol\":41119:41127  _approve */\n      tag_135\n        /* \"contracts/MyNFT_flattened.sol\":41119:41154  _approve(to, tokenId, _msgSender()) */\n      jump\t// in\n    tag_132:\n        /* \"contracts/MyNFT_flattened.sol\":41048:41161  function approve(address to, uint256 tokenId) public virtual {... */\n      pop\n      pop\n      jump\t// out\n        /* \"contracts/MyNFT_flattened.sol\":41868:42446  function transferFrom(address from, address to, uint256 tokenId) public virtual {... */\n    tag_51:\n        /* \"contracts/MyNFT_flattened.sol\":41976:41977  0 */\n      0x00\n        /* \"contracts/MyNFT_flattened.sol\":41962:41978  to == address(0) */\n      0xffffffffffffffffffffffffffffffffffffffff\n      and\n        /* \"contracts/MyNFT_flattened.sol\":41962:41964  to */\n      dup3\n        /* \"contracts/MyNFT_flattened.sol\":41962:41978  to == address(0) */\n      0xffffffffffffffffffffffffffffffffffffffff\n      and\n      sub\n        /* \"contracts/MyNFT_flattened.sol\":41958:42045  if (to == address(0)) {... */\n      tag_137\n      jumpi\n        /* \"contracts/MyNFT_flattened.sol\":42031:42032  0 */\n      0x00\n        /* \"contracts/MyNFT_flattened.sol\":42001:42034  ERC721InvalidReceiver(address(0)) */\n      mload(0x40)\n      0x64a0ae9200000000000000000000000000000000000000000000000000000000\n      dup2\n      mstore\n      0x04\n      add\n      tag_138\n      swap2\n      swap1\n      tag_41\n      jump\t// in\n    tag_138:\n      mload(0x40)\n      dup1\n      swap2\n      sub\n      swap1\n      revert\n        /* \"contracts/MyNFT_flattened.sol\":41958:42045  if (to == address(0)) {... */\n    tag_137:\n        /* \"contracts/MyNFT_flattened.sol\":42263:42284  address previousOwner */\n      0x00\n        /* \"contracts/MyNFT_flattened.sol\":42287:42321  _update(to, tokenId, _msgSender()) */\n      tag_139\n        /* \"contracts/MyNFT_flattened.sol\":42295:42297  to */\n      dup4\n        /* \"contracts/MyNFT_flattened.sol\":42299:42306  tokenId */\n      dup4\n        /* \"contracts/MyNFT_flattened.sol\":42308:42320  _msgSender() */\n      tag_140\n        /* \"contracts/MyNFT_flattened.sol\":42308:42318  _msgSender */\n      tag_134\n        /* \"contracts/MyNFT_flattened.sol\":42308:42320  _msgSender() */\n      jump\t// in\n    tag_140:\n        /* \"contracts/MyNFT_flattened.sol\":42287:42294  _update */\n      tag_141\n        /* \"contracts/MyNFT_flattened.sol\":42287:42321  _update(to, tokenId, _msgSender()) */\n      jump\t// in\n    tag_139:\n        /* \"contracts/MyNFT_flattened.sol\":42263:42321  address previousOwner = _update(to, tokenId, _msgSender()) */\n      swap1\n      pop\n        /* \"contracts/MyNFT_flattened.sol\":42352:42356  from */\n      dup4\n        /* \"contracts/MyNFT_flattened.sol\":42335:42356  previousOwner != from */\n      0xffffffffffffffffffffffffffffffffffffffff\n      and\n        /* \"contracts/MyNFT_flattened.sol\":42335:42348  previousOwner */\n      dup2\n        /* \"contracts/MyNFT_flattened.sol\":42335:42356  previousOwner != from */\n      0xffffffffffffffffffffffffffffffffffffffff\n      and\n      eq\n        /* \"contracts/MyNFT_flattened.sol\":42331:42440  if (previousOwner != from) {... */\n      tag_142\n      jumpi\n        /* \"contracts/MyNFT_flattened.sol\":42400:42404  from */\n      dup4\n        /* \"contracts/MyNFT_flattened.sol\":42406:42413  tokenId */\n      dup3\n        /* \"contracts/MyNFT_flattened.sol\":42415:42428  previousOwner */\n      dup3\n        /* \"contracts/MyNFT_flattened.sol\":42379:42429  ERC721IncorrectOwner(from, tokenId, previousOwner) */\n      mload(0x40)\n      0x64283d7b00000000000000000000000000000000000000000000000000000000\n      dup2\n      mstore\n      0x04\n      add\n      tag_143\n      swap4\n      swap3\n      swap2\n      swap1\n      tag_144\n      jump\t// in\n    tag_143:\n      mload(0x40)\n      dup1\n      swap2\n      sub\n      swap1\n      revert\n        /* \"contracts/MyNFT_flattened.sol\":42331:42440  if (previousOwner != from) {... */\n    tag_142:\n        /* \"contracts/MyNFT_flattened.sol\":41948:42446  {... */\n      pop\n        /* \"contracts/MyNFT_flattened.sol\":41868:42446  function transferFrom(address from, address to, uint256 tokenId) public virtual {... */\n      pop\n      pop\n      pop\n      jump\t// out\n        /* \"contracts/MyNFT_flattened.sol\":58056:58336  function mint(address to, uint256 price) external onlyOwner {... */\n    tag_55:\n        /* \"contracts/MyNFT_flattened.sol\":57937:57942  owner */\n      0x06\n      0x00\n      swap1\n      sload\n      swap1\n      0x0100\n      exp\n      swap1\n      div\n      0xffffffffffffffffffffffffffffffffffffffff\n      and\n        /* \"contracts/MyNFT_flattened.sol\":57923:57942  msg.sender == owner */\n      0xffffffffffffffffffffffffffffffffffffffff\n      and\n        /* \"contracts/MyNFT_flattened.sol\":57923:57933  msg.sender */\n      caller\n        /* \"contracts/MyNFT_flattened.sol\":57923:57942  msg.sender == owner */\n      0xffffffffffffffffffffffffffffffffffffffff\n      and\n      eq\n        /* \"contracts/MyNFT_flattened.sol\":57915:57980  require(msg.sender == owner, \"Only owner can call this function\") */\n      tag_146\n      jumpi\n      mload(0x40)\n      0x08c379a000000000000000000000000000000000000000000000000000000000\n      dup2\n      mstore\n      0x04\n      add\n      tag_147\n      swap1\n      tag_148\n      jump\t// in\n    tag_147:\n      mload(0x40)\n      dup1\n      swap2\n      sub\n      swap1\n      revert\n    tag_146:\n        /* \"contracts/MyNFT_flattened.sol\":58126:58141  uint256 tokenId */\n      0x00\n        /* \"contracts/MyNFT_flattened.sol\":58144:58169  _tokenIdCounter.current() */\n      tag_150\n        /* \"contracts/MyNFT_flattened.sol\":58144:58159  _tokenIdCounter */\n      0x07\n        /* \"contracts/MyNFT_flattened.sol\":58144:58167  _tokenIdCounter.current */\n      tag_151\n        /* \"contracts/MyNFT_flattened.sol\":58144:58169  _tokenIdCounter.current() */\n      jump\t// in\n    tag_150:\n        /* \"contracts/MyNFT_flattened.sol\":58126:58169  uint256 tokenId = _tokenIdCounter.current() */\n      swap1\n      pop\n        /* \"contracts/MyNFT_flattened.sol\":58179:58197  _mint(to, tokenId) */\n      tag_152\n        /* \"contracts/MyNFT_flattened.sol\":58185:58187  to */\n      dup4\n        /* \"contracts/MyNFT_flattened.sol\":58189:58196  tokenId */\n      dup3\n        /* \"contracts/MyNFT_flattened.sol\":58179:58184  _mint */\n      tag_153\n        /* \"contracts/MyNFT_flattened.sol\":58179:58197  _mint(to, tokenId) */\n      jump\t// in\n    tag_152:\n        /* \"contracts/MyNFT_flattened.sol\":58230:58235  price */\n      dup2\n        /* \"contracts/MyNFT_flattened.sol\":58207:58218  assetPrices */\n      0x08\n        /* \"contracts/MyNFT_flattened.sol\":58207:58227  assetPrices[tokenId] */\n      0x00\n        /* \"contracts/MyNFT_flattened.sol\":58219:58226  tokenId */\n      dup4\n        /* \"contracts/MyNFT_flattened.sol\":58207:58227  assetPrices[tokenId] */\n      dup2\n      mstore\n      0x20\n      add\n      swap1\n      dup2\n      mstore\n      0x20\n      add\n      0x00\n      keccak256\n        /* \"contracts/MyNFT_flattened.sol\":58207:58235  assetPrices[tokenId] = price */\n      dup2\n      swap1\n      sstore\n      pop\n        /* \"contracts/MyNFT_flattened.sol\":58245:58272  _tokenIdCounter.increment() */\n      tag_154\n        /* \"contracts/MyNFT_flattened.sol\":58245:58260  _tokenIdCounter */\n      0x07\n        /* \"contracts/MyNFT_flattened.sol\":58245:58270  _tokenIdCounter.increment */\n      tag_155\n        /* \"contracts/MyNFT_flattened.sol\":58245:58272  _tokenIdCounter.increment() */\n      jump\t// in\n    tag_154:\n        /* \"contracts/MyNFT_flattened.sol\":58116:58336  {... */\n      pop\n        /* \"contracts/MyNFT_flattened.sol\":58056:58336  function mint(address to, uint256 price) external onlyOwner {... */\n      pop\n      pop\n      jump\t// out\n        /* \"contracts/MyNFT_flattened.sol\":57655:57701  mapping(uint256 => uint256) public assetPrices */\n    tag_59:\n      mstore(0x20, 0x08)\n      dup1\n      0x00\n      mstore\n      keccak256(0x00, 0x40)\n      0x00\n      swap2\n      pop\n      swap1\n      pop\n      sload\n      dup2\n      jump\t// out\n        /* \"contracts/MyNFT_flattened.sol\":42512:42644  function safeTransferFrom(address from, address to, uint256 tokenId) public {... */\n    tag_65:\n        /* \"contracts/MyNFT_flattened.sol\":42598:42637  safeTransferFrom(from, to, tokenId, \"\") */\n      tag_157\n        /* \"contracts/MyNFT_flattened.sol\":42615:42619  from */\n      dup4\n        /* \"contracts/MyNFT_flattened.sol\":42621:42623  to */\n      dup4\n        /* \"contracts/MyNFT_flattened.sol\":42625:42632  tokenId */\n      dup4\n        /* \"contracts/MyNFT_flattened.sol\":42598:42637  safeTransferFrom(from, to, tokenId, \"\") */\n      mload(0x40)\n      dup1\n      0x20\n      add\n      0x40\n      mstore\n      dup1\n      0x00\n      dup2\n      mstore\n      pop\n        /* \"contracts/MyNFT_flattened.sol\":42598:42614  safeTransferFrom */\n      tag_94\n        /* \"contracts/MyNFT_flattened.sol\":42598:42637  safeTransferFrom(from, to, tokenId, \"\") */\n      jump\t// in\n    tag_157:\n        /* \"contracts/MyNFT_flattened.sol\":42512:42644  function safeTransferFrom(address from, address to, uint256 tokenId) public {... */\n      pop\n      pop\n      pop\n      jump\t// out\n        /* \"contracts/MyNFT_flattened.sol\":39910:40028  function ownerOf(uint256 tokenId) public view virtual returns (address) {... */\n    tag_69:\n        /* \"contracts/MyNFT_flattened.sol\":39973:39980  address */\n      0x00\n        /* \"contracts/MyNFT_flattened.sol\":39999:40021  _requireOwned(tokenId) */\n      tag_159\n        /* \"contracts/MyNFT_flattened.sol\":40013:40020  tokenId */\n      dup3\n        /* \"contracts/MyNFT_flattened.sol\":39999:40012  _requireOwned */\n      tag_128\n        /* \"contracts/MyNFT_flattened.sol\":39999:40021  _requireOwned(tokenId) */\n      jump\t// in\n    tag_159:\n        /* \"contracts/MyNFT_flattened.sol\":39992:40021  return _requireOwned(tokenId) */\n      swap1\n      pop\n        /* \"contracts/MyNFT_flattened.sol\":39910:40028  function ownerOf(uint256 tokenId) public view virtual returns (address) {... */\n      swap2\n      swap1\n      pop\n      jump\t// out\n        /* \"contracts/MyNFT_flattened.sol\":39645:39853  function balanceOf(address owner) public view virtual returns (uint256) {... */\n    tag_75:\n        /* \"contracts/MyNFT_flattened.sol\":39708:39715  uint256 */\n      0x00\n        /* \"contracts/MyNFT_flattened.sol\":39748:39749  0 */\n      dup1\n        /* \"contracts/MyNFT_flattened.sol\":39731:39750  owner == address(0) */\n      0xffffffffffffffffffffffffffffffffffffffff\n      and\n        /* \"contracts/MyNFT_flattened.sol\":39731:39736  owner */\n      dup3\n        /* \"contracts/MyNFT_flattened.sol\":39731:39750  owner == address(0) */\n      0xffffffffffffffffffffffffffffffffffffffff\n      and\n      sub\n        /* \"contracts/MyNFT_flattened.sol\":39727:39814  if (owner == address(0)) {... */\n      tag_161\n      jumpi\n        /* \"contracts/MyNFT_flattened.sol\":39800:39801  0 */\n      0x00\n        /* \"contracts/MyNFT_flattened.sol\":39773:39803  ERC721InvalidOwner(address(0)) */\n      mload(0x40)\n      0x89c62b6400000000000000000000000000000000000000000000000000000000\n      dup2\n      mstore\n      0x04\n      add\n      tag_162\n      swap2\n      swap1\n      tag_41\n      jump\t// in\n    tag_162:\n      mload(0x40)\n      dup1\n      swap2\n      sub\n      swap1\n      revert\n        /* \"contracts/MyNFT_flattened.sol\":39727:39814  if (owner == address(0)) {... */\n    tag_161:\n        /* \"contracts/MyNFT_flattened.sol\":39830:39839  _balances */\n      0x03\n        /* \"contracts/MyNFT_flattened.sol\":39830:39846  _balances[owner] */\n      0x00\n        /* \"contracts/MyNFT_flattened.sol\":39840:39845  owner */\n      dup4\n        /* \"contracts/MyNFT_flattened.sol\":39830:39846  _balances[owner] */\n      0xffffffffffffffffffffffffffffffffffffffff\n      and\n      0xffffffffffffffffffffffffffffffffffffffff\n      and\n      dup2\n      mstore\n      0x20\n      add\n      swap1\n      dup2\n      mstore\n      0x20\n      add\n      0x00\n      keccak256\n      sload\n        /* \"contracts/MyNFT_flattened.sol\":39823:39846  return _balances[owner] */\n      swap1\n      pop\n        /* \"contracts/MyNFT_flattened.sol\":39645:39853  function balanceOf(address owner) public view virtual returns (uint256) {... */\n      swap2\n      swap1\n      pop\n      jump\t// out\n        /* \"contracts/MyNFT_flattened.sol\":57501:57521  address public owner */\n    tag_79:\n      0x06\n      0x00\n      swap1\n      sload\n      swap1\n      0x0100\n      exp\n      swap1\n      div\n      0xffffffffffffffffffffffffffffffffffffffff\n      and\n      dup2\n      jump\t// out\n        /* \"contracts/MyNFT_flattened.sol\":40243:40336  function symbol() public view virtual returns (string memory) {... */\n    tag_83:\n        /* \"contracts/MyNFT_flattened.sol\":40290:40303  string memory */\n      0x60\n        /* \"contracts/MyNFT_flattened.sol\":40322:40329  _symbol */\n      0x01\n        /* \"contracts/MyNFT_flattened.sol\":40315:40329  return _symbol */\n      dup1\n      sload\n      tag_164\n      swap1\n      tag_121\n      jump\t// in\n    tag_164:\n      dup1\n      0x1f\n      add\n      0x20\n      dup1\n      swap2\n      div\n      mul\n      0x20\n      add\n      mload(0x40)\n      swap1\n      dup2\n      add\n      0x40\n      mstore\n      dup1\n      swap3\n      swap2\n      swap1\n      dup2\n      dup2\n      mstore\n      0x20\n      add\n      dup3\n      dup1\n      sload\n      tag_165\n      swap1\n      tag_121\n      jump\t// in\n    tag_165:\n      dup1\n      iszero\n      tag_166\n      jumpi\n      dup1\n      0x1f\n      lt\n      tag_167\n      jumpi\n      0x0100\n      dup1\n      dup4\n      sload\n      div\n      mul\n      dup4\n      mstore\n      swap2\n      0x20\n      add\n      swap2\n      jump(tag_166)\n    tag_167:\n      dup3\n      add\n      swap2\n      swap1\n      0x00\n      mstore\n      keccak256(0x00, 0x20)\n      swap1\n    tag_168:\n      dup2\n      sload\n      dup2\n      mstore\n      swap1\n      0x01\n      add\n      swap1\n      0x20\n      add\n      dup1\n      dup4\n      gt\n      tag_168\n      jumpi\n      dup3\n      swap1\n      sub\n      0x1f\n      and\n      dup3\n      add\n      swap2\n    tag_166:\n      pop\n      pop\n      pop\n      pop\n      pop\n      swap1\n      pop\n        /* \"contracts/MyNFT_flattened.sol\":40243:40336  function symbol() public view virtual returns (string memory) {... */\n      swap1\n      jump\t// out\n        /* \"contracts/MyNFT_flattened.sol\":41443:41587  function setApprovalForAll(address operator, bool approved) public virtual {... */\n    tag_89:\n        /* \"contracts/MyNFT_flattened.sol\":41528:41580  _setApprovalForAll(_msgSender(), operator, approved) */\n      tag_170\n        /* \"contracts/MyNFT_flattened.sol\":41547:41559  _msgSender() */\n      tag_171\n        /* \"contracts/MyNFT_flattened.sol\":41547:41557  _msgSender */\n      tag_134\n        /* \"contracts/MyNFT_flattened.sol\":41547:41559  _msgSender() */\n      jump\t// in\n    tag_171:\n        /* \"contracts/MyNFT_flattened.sol\":41561:41569  operator */\n      dup4\n        /* \"contracts/MyNFT_flattened.sol\":41571:41579  approved */\n      dup4\n        /* \"contracts/MyNFT_flattened.sol\":41528:41546  _setApprovalForAll */\n      tag_172\n        /* \"contracts/MyNFT_flattened.sol\":41528:41580  _setApprovalForAll(_msgSender(), operator, approved) */\n      jump\t// in\n    tag_170:\n        /* \"contracts/MyNFT_flattened.sol\":41443:41587  function setApprovalForAll(address operator, bool approved) public virtual {... */\n      pop\n      pop\n      jump\t// out\n        /* \"contracts/MyNFT_flattened.sol\":42710:42918  function safeTransferFrom(address from, address to, uint256 tokenId, bytes memory data) public virtual {... */\n    tag_94:\n        /* \"contracts/MyNFT_flattened.sol\":42823:42854  transferFrom(from, to, tokenId) */\n      tag_174\n        /* \"contracts/MyNFT_flattened.sol\":42836:42840  from */\n      dup5\n        /* \"contracts/MyNFT_flattened.sol\":42842:42844  to */\n      dup5\n        /* \"contracts/MyNFT_flattened.sol\":42846:42853  tokenId */\n      dup5\n        /* \"contracts/MyNFT_flattened.sol\":42823:42835  transferFrom */\n      tag_51\n        /* \"contracts/MyNFT_flattened.sol\":42823:42854  transferFrom(from, to, tokenId) */\n      jump\t// in\n    tag_174:\n        /* \"contracts/MyNFT_flattened.sol\":42864:42911  _checkOnERC721Received(from, to, tokenId, data) */\n      tag_175\n        /* \"contracts/MyNFT_flattened.sol\":42887:42891  from */\n      dup5\n        /* \"contracts/MyNFT_flattened.sol\":42893:42895  to */\n      dup5\n        /* \"contracts/MyNFT_flattened.sol\":42897:42904  tokenId */\n      dup5\n        /* \"contracts/MyNFT_flattened.sol\":42906:42910  data */\n      dup5\n        /* \"contracts/MyNFT_flattened.sol\":42864:42886  _checkOnERC721Received */\n      tag_176\n        /* \"contracts/MyNFT_flattened.sol\":42864:42911  _checkOnERC721Received(from, to, tokenId, data) */\n      jump\t// in\n    tag_175:\n        /* \"contracts/MyNFT_flattened.sol\":42710:42918  function safeTransferFrom(address from, address to, uint256 tokenId, bytes memory data) public virtual {... */\n      pop\n      pop\n      pop\n      pop\n      jump\t// out\n        /* \"contracts/MyNFT_flattened.sol\":40402:40657  function tokenURI(uint256 tokenId) public view virtual returns (string memory) {... */\n    tag_98:\n        /* \"contracts/MyNFT_flattened.sol\":40466:40479  string memory */\n      0x60\n        /* \"contracts/MyNFT_flattened.sol\":40491:40513  _requireOwned(tokenId) */\n      tag_178\n        /* \"contracts/MyNFT_flattened.sol\":40505:40512  tokenId */\n      dup3\n        /* \"contracts/MyNFT_flattened.sol\":40491:40504  _requireOwned */\n      tag_128\n        /* \"contracts/MyNFT_flattened.sol\":40491:40513  _requireOwned(tokenId) */\n      jump\t// in\n    tag_178:\n      pop\n        /* \"contracts/MyNFT_flattened.sol\":40524:40545  string memory baseURI */\n      0x00\n        /* \"contracts/MyNFT_flattened.sol\":40548:40558  _baseURI() */\n      tag_179\n        /* \"contracts/MyNFT_flattened.sol\":40548:40556  _baseURI */\n      tag_180\n        /* \"contracts/MyNFT_flattened.sol\":40548:40558  _baseURI() */\n      jump\t// in\n    tag_179:\n        /* \"contracts/MyNFT_flattened.sol\":40524:40558  string memory baseURI = _baseURI() */\n      swap1\n      pop\n        /* \"contracts/MyNFT_flattened.sol\":40599:40600  0 */\n      0x00\n        /* \"contracts/MyNFT_flattened.sol\":40581:40588  baseURI */\n      dup2\n        /* \"contracts/MyNFT_flattened.sol\":40575:40596  bytes(baseURI).length */\n      mload\n        /* \"contracts/MyNFT_flattened.sol\":40575:40600  bytes(baseURI).length > 0 */\n      gt\n        /* \"contracts/MyNFT_flattened.sol\":40575:40650  bytes(baseURI).length > 0 ? string.concat(baseURI, tokenId.toString()) : \"\" */\n      tag_181\n      jumpi\n      mload(0x40)\n      dup1\n      0x20\n      add\n      0x40\n      mstore\n      dup1\n      0x00\n      dup2\n      mstore\n      pop\n      jump(tag_182)\n    tag_181:\n        /* \"contracts/MyNFT_flattened.sol\":40617:40624  baseURI */\n      dup1\n        /* \"contracts/MyNFT_flattened.sol\":40626:40644  tokenId.toString() */\n      tag_183\n        /* \"contracts/MyNFT_flattened.sol\":40626:40633  tokenId */\n      dup5\n        /* \"contracts/MyNFT_flattened.sol\":40626:40642  tokenId.toString */\n      tag_184\n        /* \"contracts/MyNFT_flattened.sol\":40626:40644  tokenId.toString() */\n      jump\t// in\n    tag_183:\n        /* \"contracts/MyNFT_flattened.sol\":40603:40645  string.concat(baseURI, tokenId.toString()) */\n      add(0x20, mload(0x40))\n      tag_185\n      swap3\n      swap2\n      swap1\n      tag_186\n      jump\t// in\n    tag_185:\n      mload(0x40)\n      0x20\n      dup2\n      dup4\n      sub\n      sub\n      dup2\n      mstore\n      swap1\n      0x40\n      mstore\n        /* \"contracts/MyNFT_flattened.sol\":40575:40650  bytes(baseURI).length > 0 ? string.concat(baseURI, tokenId.toString()) : \"\" */\n    tag_182:\n        /* \"contracts/MyNFT_flattened.sol\":40568:40650  return bytes(baseURI).length > 0 ? string.concat(baseURI, tokenId.toString()) : \"\" */\n      swap2\n      pop\n      pop\n        /* \"contracts/MyNFT_flattened.sol\":40402:40657  function tokenURI(uint256 tokenId) public view virtual returns (string memory) {... */\n      swap2\n      swap1\n      pop\n      jump\t// out\n        /* \"contracts/MyNFT_flattened.sol\":58404:58838  function buy(uint256 tokenId) external payable {... */\n    tag_102:\n        /* \"contracts/MyNFT_flattened.sol\":58469:58485  _exists(tokenId) */\n      tag_188\n        /* \"contracts/MyNFT_flattened.sol\":58477:58484  tokenId */\n      dup2\n        /* \"contracts/MyNFT_flattened.sol\":58469:58476  _exists */\n      tag_189\n        /* \"contracts/MyNFT_flattened.sol\":58469:58485  _exists(tokenId) */\n      jump\t// in\n    tag_188:\n        /* \"contracts/MyNFT_flattened.sol\":58461:58514  require(_exists(tokenId), \"El ID de token no existe\") */\n      tag_190\n      jumpi\n      mload(0x40)\n      0x08c379a000000000000000000000000000000000000000000000000000000000\n      dup2\n      mstore\n      0x04\n      add\n      tag_191\n      swap1\n      tag_192\n      jump\t// in\n    tag_191:\n      mload(0x40)\n      dup1\n      swap2\n      sub\n      swap1\n      revert\n    tag_190:\n        /* \"contracts/MyNFT_flattened.sol\":58545:58556  assetPrices */\n      0x08\n        /* \"contracts/MyNFT_flattened.sol\":58545:58565  assetPrices[tokenId] */\n      0x00\n        /* \"contracts/MyNFT_flattened.sol\":58557:58564  tokenId */\n      dup3\n        /* \"contracts/MyNFT_flattened.sol\":58545:58565  assetPrices[tokenId] */\n      dup2\n      mstore\n      0x20\n      add\n      swap1\n      dup2\n      mstore\n      0x20\n      add\n      0x00\n      keccak256\n      sload\n        /* \"contracts/MyNFT_flattened.sol\":58532:58541  msg.value */\n      callvalue\n        /* \"contracts/MyNFT_flattened.sol\":58532:58565  msg.value >= assetPrices[tokenId] */\n      lt\n      iszero\n        /* \"contracts/MyNFT_flattened.sol\":58524:58587  require(msg.value >= assetPrices[tokenId], \"Pago insuficiente\") */\n      tag_193\n      jumpi\n      mload(0x40)\n      0x08c379a000000000000000000000000000000000000000000000000000000000\n      dup2\n      mstore\n      0x04\n      add\n      tag_194\n      swap1\n      tag_195\n      jump\t// in\n    tag_194:\n      mload(0x40)\n      dup1\n      swap2\n      sub\n      swap1\n      revert\n    tag_193:\n        /* \"contracts/MyNFT_flattened.sol\":58597:58617  address ownerAddress */\n      0x00\n        /* \"contracts/MyNFT_flattened.sol\":58620:58636  ownerOf(tokenId) */\n      tag_196\n        /* \"contracts/MyNFT_flattened.sol\":58628:58635  tokenId */\n      dup3\n        /* \"contracts/MyNFT_flattened.sol\":58620:58627  ownerOf */\n      tag_69\n        /* \"contracts/MyNFT_flattened.sol\":58620:58636  ownerOf(tokenId) */\n      jump\t// in\n    tag_196:\n        /* \"contracts/MyNFT_flattened.sol\":58597:58636  address ownerAddress = ownerOf(tokenId) */\n      swap1\n      pop\n        /* \"contracts/MyNFT_flattened.sol\":58646:58674  address payable ownerPayable */\n      0x00\n        /* \"contracts/MyNFT_flattened.sol\":58685:58697  ownerAddress */\n      dup2\n        /* \"contracts/MyNFT_flattened.sol\":58646:58698  address payable ownerPayable = payable(ownerAddress) */\n      swap1\n      pop\n        /* \"contracts/MyNFT_flattened.sol\":58708:58720  ownerPayable */\n      dup1\n        /* \"contracts/MyNFT_flattened.sol\":58708:58729  ownerPayable.transfer */\n      0xffffffffffffffffffffffffffffffffffffffff\n      and\n        /* \"contracts/MyNFT_flattened.sol\":58708:58740  ownerPayable.transfer(msg.value) */\n      0x08fc\n        /* \"contracts/MyNFT_flattened.sol\":58730:58739  msg.value */\n      callvalue\n        /* \"contracts/MyNFT_flattened.sol\":58708:58740  ownerPayable.transfer(msg.value) */\n      swap1\n      dup2\n      iszero\n      mul\n      swap1\n      mload(0x40)\n      0x00\n      mload(0x40)\n      dup1\n      dup4\n      sub\n      dup2\n      dup6\n      dup9\n      dup9\n      call\n      swap4\n      pop\n      pop\n      pop\n      pop\n      iszero\n      dup1\n      iszero\n      tag_198\n      jumpi\n      returndatasize\n      0x00\n      dup1\n      returndatacopy\n      revert(0x00, returndatasize)\n    tag_198:\n      pop\n        /* \"contracts/MyNFT_flattened.sol\":58750:58794  _transfer(ownerAddress, msg.sender, tokenId) */\n      tag_199\n        /* \"contracts/MyNFT_flattened.sol\":58760:58772  ownerAddress */\n      dup3\n        /* \"contracts/MyNFT_flattened.sol\":58774:58784  msg.sender */\n      caller\n        /* \"contracts/MyNFT_flattened.sol\":58786:58793  tokenId */\n      dup6\n        /* \"contracts/MyNFT_flattened.sol\":58750:58759  _transfer */\n      tag_200\n        /* \"contracts/MyNFT_flattened.sol\":58750:58794  _transfer(ownerAddress, msg.sender, tokenId) */\n      jump\t// in\n    tag_199:\n        /* \"contracts/MyNFT_flattened.sol\":58811:58822  assetPrices */\n      0x08\n        /* \"contracts/MyNFT_flattened.sol\":58811:58831  assetPrices[tokenId] */\n      0x00\n        /* \"contracts/MyNFT_flattened.sol\":58823:58830  tokenId */\n      dup5\n        /* \"contracts/MyNFT_flattened.sol\":58811:58831  assetPrices[tokenId] */\n      dup2\n      mstore\n      0x20\n      add\n      swap1\n      dup2\n      mstore\n      0x20\n      add\n      0x00\n      keccak256\n        /* \"contracts/MyNFT_flattened.sol\":58804:58831  delete assetPrices[tokenId] */\n      0x00\n      swap1\n      sstore\n        /* \"contracts/MyNFT_flattened.sol\":58451:58838  {... */\n      pop\n      pop\n        /* \"contracts/MyNFT_flattened.sol\":58404:58838  function buy(uint256 tokenId) external payable {... */\n      pop\n      jump\t// out\n        /* \"contracts/MyNFT_flattened.sol\":41653:41806  function isApprovedForAll(address owner, address operator) public view virtual returns (bool) {... */\n    tag_107:\n        /* \"contracts/MyNFT_flattened.sol\":41741:41745  bool */\n      0x00\n        /* \"contracts/MyNFT_flattened.sol\":41764:41782  _operatorApprovals */\n      0x05\n        /* \"contracts/MyNFT_flattened.sol\":41764:41789  _operatorApprovals[owner] */\n      0x00\n        /* \"contracts/MyNFT_flattened.sol\":41783:41788  owner */\n      dup5\n        /* \"contracts/MyNFT_flattened.sol\":41764:41789  _operatorApprovals[owner] */\n      0xffffffffffffffffffffffffffffffffffffffff\n      and\n      0xffffffffffffffffffffffffffffffffffffffff\n      and\n      dup2\n      mstore\n      0x20\n      add\n      swap1\n      dup2\n      mstore\n      0x20\n      add\n      0x00\n      keccak256\n        /* \"contracts/MyNFT_flattened.sol\":41764:41799  _operatorApprovals[owner][operator] */\n      0x00\n        /* \"contracts/MyNFT_flattened.sol\":41790:41798  operator */\n      dup4\n        /* \"contracts/MyNFT_flattened.sol\":41764:41799  _operatorApprovals[owner][operator] */\n      0xffffffffffffffffffffffffffffffffffffffff\n      and\n      0xffffffffffffffffffffffffffffffffffffffff\n      and\n      dup2\n      mstore\n      0x20\n      add\n      swap1\n      dup2\n      mstore\n      0x20\n      add\n      0x00\n      keccak256\n      0x00\n      swap1\n      sload\n      swap1\n      0x0100\n      exp\n      swap1\n      div\n      0xff\n      and\n        /* \"contracts/MyNFT_flattened.sol\":41757:41799  return _operatorApprovals[owner][operator] */\n      swap1\n      pop\n        /* \"contracts/MyNFT_flattened.sol\":41653:41806  function isApprovedForAll(address owner, address operator) public view virtual returns (bool) {... */\n      swap3\n      swap2\n      pop\n      pop\n      jump\t// out\n        /* \"contracts/MyNFT_flattened.sol\":58939:59116  function setPrice(uint256 tokenId, uint256 price) external onlyOwner {... */\n    tag_113:\n        /* \"contracts/MyNFT_flattened.sol\":57937:57942  owner */\n      0x06\n      0x00\n      swap1\n      sload\n      swap1\n      0x0100\n      exp\n      swap1\n      div\n      0xffffffffffffffffffffffffffffffffffffffff\n      and\n        /* \"contracts/MyNFT_flattened.sol\":57923:57942  msg.sender == owner */\n      0xffffffffffffffffffffffffffffffffffffffff\n      and\n        /* \"contracts/MyNFT_flattened.sol\":57923:57933  msg.sender */\n      caller\n        /* \"contracts/MyNFT_flattened.sol\":57923:57942  msg.sender == owner */\n      0xffffffffffffffffffffffffffffffffffffffff\n      and\n      eq\n        /* \"contracts/MyNFT_flattened.sol\":57915:57980  require(msg.sender == owner, \"Only owner can call this function\") */\n      tag_203\n      jumpi\n      mload(0x40)\n      0x08c379a000000000000000000000000000000000000000000000000000000000\n      dup2\n      mstore\n      0x04\n      add\n      tag_204\n      swap1\n      tag_148\n      jump\t// in\n    tag_204:\n      mload(0x40)\n      dup1\n      swap2\n      sub\n      swap1\n      revert\n    tag_203:\n        /* \"contracts/MyNFT_flattened.sol\":59026:59042  _exists(tokenId) */\n      tag_206\n        /* \"contracts/MyNFT_flattened.sol\":59034:59041  tokenId */\n      dup3\n        /* \"contracts/MyNFT_flattened.sol\":59026:59033  _exists */\n      tag_189\n        /* \"contracts/MyNFT_flattened.sol\":59026:59042  _exists(tokenId) */\n      jump\t// in\n    tag_206:\n        /* \"contracts/MyNFT_flattened.sol\":59018:59071  require(_exists(tokenId), \"El ID de token no existe\") */\n      tag_207\n      jumpi\n      mload(0x40)\n      0x08c379a000000000000000000000000000000000000000000000000000000000\n      dup2\n      mstore\n      0x04\n      add\n      tag_208\n      swap1\n      tag_192\n      jump\t// in\n    tag_208:\n      mload(0x40)\n      dup1\n      swap2\n      sub\n      swap1\n      revert\n    tag_207:\n        /* \"contracts/MyNFT_flattened.sol\":59104:59109  price */\n      dup1\n        /* \"contracts/MyNFT_flattened.sol\":59081:59092  assetPrices */\n      0x08\n        /* \"contracts/MyNFT_flattened.sol\":59081:59101  assetPrices[tokenId] */\n      0x00\n        /* \"contracts/MyNFT_flattened.sol\":59093:59100  tokenId */\n      dup5\n        /* \"contracts/MyNFT_flattened.sol\":59081:59101  assetPrices[tokenId] */\n      dup2\n      mstore\n      0x20\n      add\n      swap1\n      dup2\n      mstore\n      0x20\n      add\n      0x00\n      keccak256\n        /* \"contracts/MyNFT_flattened.sol\":59081:59109  assetPrices[tokenId] = price */\n      dup2\n      swap1\n      sstore\n      pop\n        /* \"contracts/MyNFT_flattened.sol\":58939:59116  function setPrice(uint256 tokenId, uint256 price) external onlyOwner {... */\n      pop\n      pop\n      jump\t// out\n        /* \"contracts/MyNFT_flattened.sol\":31294:31440  function supportsInterface(bytes4 interfaceId) public view virtual returns (bool) {... */\n    tag_118:\n        /* \"contracts/MyNFT_flattened.sol\":31370:31374  bool */\n      0x00\n        /* \"contracts/MyNFT_flattened.sol\":31408:31433  type(IERC165).interfaceId */\n      0x01ffc9a700000000000000000000000000000000000000000000000000000000\n        /* \"contracts/MyNFT_flattened.sol\":31393:31433  interfaceId == type(IERC165).interfaceId */\n      not(0xffffffffffffffffffffffffffffffffffffffffffffffffffffffff)\n      and\n        /* \"contracts/MyNFT_flattened.sol\":31393:31404  interfaceId */\n      dup3\n        /* \"contracts/MyNFT_flattened.sol\":31393:31433  interfaceId == type(IERC165).interfaceId */\n      not(0xffffffffffffffffffffffffffffffffffffffffffffffffffffffff)\n      and\n      eq\n        /* \"contracts/MyNFT_flattened.sol\":31386:31433  return interfaceId == type(IERC165).interfaceId */\n      swap1\n      pop\n        /* \"contracts/MyNFT_flattened.sol\":31294:31440  function supportsInterface(bytes4 interfaceId) public view virtual returns (bool) {... */\n      swap2\n      swap1\n      pop\n      jump\t// out\n        /* \"contracts/MyNFT_flattened.sol\":53863:54104  function _requireOwned(uint256 tokenId) internal view returns (address) {... */\n    tag_128:\n        /* \"contracts/MyNFT_flattened.sol\":53926:53933  address */\n      0x00\n        /* \"contracts/MyNFT_flattened.sol\":53945:53958  address owner */\n      dup1\n        /* \"contracts/MyNFT_flattened.sol\":53961:53978  _ownerOf(tokenId) */\n      tag_211\n        /* \"contracts/MyNFT_flattened.sol\":53970:53977  tokenId */\n      dup4\n        /* \"contracts/MyNFT_flattened.sol\":53961:53969  _ownerOf */\n      tag_212\n        /* \"contracts/MyNFT_flattened.sol\":53961:53978  _ownerOf(tokenId) */\n      jump\t// in\n    tag_211:\n        /* \"contracts/MyNFT_flattened.sol\":53945:53978  address owner = _ownerOf(tokenId) */\n      swap1\n      pop\n        /* \"contracts/MyNFT_flattened.sol\":54009:54010  0 */\n      0x00\n        /* \"contracts/MyNFT_flattened.sol\":53992:54011  owner == address(0) */\n      0xffffffffffffffffffffffffffffffffffffffff\n      and\n        /* \"contracts/MyNFT_flattened.sol\":53992:53997  owner */\n      dup2\n        /* \"contracts/MyNFT_flattened.sol\":53992:54011  owner == address(0) */\n      0xffffffffffffffffffffffffffffffffffffffff\n      and\n      sub\n        /* \"contracts/MyNFT_flattened.sol\":53988:54076  if (owner == address(0)) {... */\n      tag_213\n      jumpi\n        /* \"contracts/MyNFT_flattened.sol\":54057:54064  tokenId */\n      dup3\n        /* \"contracts/MyNFT_flattened.sol\":54034:54065  ERC721NonexistentToken(tokenId) */\n      mload(0x40)\n      0x7e27328900000000000000000000000000000000000000000000000000000000\n      dup2\n      mstore\n      0x04\n      add\n      tag_214\n      swap2\n      swap1\n      tag_61\n      jump\t// in\n    tag_214:\n      mload(0x40)\n      dup1\n      swap2\n      sub\n      swap1\n      revert\n        /* \"contracts/MyNFT_flattened.sol\":53988:54076  if (owner == address(0)) {... */\n    tag_213:\n        /* \"contracts/MyNFT_flattened.sol\":54092:54097  owner */\n      dup1\n        /* \"contracts/MyNFT_flattened.sol\":54085:54097  return owner */\n      swap2\n      pop\n      pop\n        /* \"contracts/MyNFT_flattened.sol\":53863:54104  function _requireOwned(uint256 tokenId) internal view returns (address) {... */\n      swap2\n      swap1\n      pop\n      jump\t// out\n        /* \"contracts/MyNFT_flattened.sol\":43663:43790  function _getApproved(uint256 tokenId) internal view virtual returns (address) {... */\n    tag_130:\n        /* \"contracts/MyNFT_flattened.sol\":43733:43740  address */\n      0x00\n        /* \"contracts/MyNFT_flattened.sol\":43759:43774  _tokenApprovals */\n      0x04\n        /* \"contracts/MyNFT_flattened.sol\":43759:43783  _tokenApprovals[tokenId] */\n      0x00\n        /* \"contracts/MyNFT_flattened.sol\":43775:43782  tokenId */\n      dup4\n        /* \"contracts/MyNFT_flattened.sol\":43759:43783  _tokenApprovals[tokenId] */\n      dup2\n      mstore\n      0x20\n      add\n      swap1\n      dup2\n      mstore\n      0x20\n      add\n      0x00\n      keccak256\n      0x00\n      swap1\n      sload\n      swap1\n      0x0100\n      exp\n      swap1\n      div\n      0xffffffffffffffffffffffffffffffffffffffff\n      and\n        /* \"contracts/MyNFT_flattened.sol\":43752:43783  return _tokenApprovals[tokenId] */\n      swap1\n      pop\n        /* \"contracts/MyNFT_flattened.sol\":43663:43790  function _getApproved(uint256 tokenId) internal view virtual returns (address) {... */\n      swap2\n      swap1\n      pop\n      jump\t// out\n        /* \"contracts/MyNFT_flattened.sol\":28133:28229  function _msgSender() internal view virtual returns (address) {... */\n    tag_134:\n        /* \"contracts/MyNFT_flattened.sol\":28186:28193  address */\n      0x00\n        /* \"contracts/MyNFT_flattened.sol\":28212:28222  msg.sender */\n      caller\n        /* \"contracts/MyNFT_flattened.sol\":28205:28222  return msg.sender */\n      swap1\n      pop\n        /* \"contracts/MyNFT_flattened.sol\":28133:28229  function _msgSender() internal view virtual returns (address) {... */\n      swap1\n      jump\t// out\n        /* \"contracts/MyNFT_flattened.sol\":52143:52263  function _approve(address to, uint256 tokenId, address auth) internal {... */\n    tag_135:\n        /* \"contracts/MyNFT_flattened.sol\":52223:52256  _approve(to, tokenId, auth, true) */\n      tag_218\n        /* \"contracts/MyNFT_flattened.sol\":52232:52234  to */\n      dup4\n        /* \"contracts/MyNFT_flattened.sol\":52236:52243  tokenId */\n      dup4\n        /* \"contracts/MyNFT_flattened.sol\":52245:52249  auth */\n      dup4\n        /* \"contracts/MyNFT_flattened.sol\":52251:52255  true */\n      0x01\n        /* \"contracts/MyNFT_flattened.sol\":52223:52231  _approve */\n      tag_219\n        /* \"contracts/MyNFT_flattened.sol\":52223:52256  _approve(to, tokenId, auth, true) */\n      jump\t// in\n    tag_218:\n        /* \"contracts/MyNFT_flattened.sol\":52143:52263  function _approve(address to, uint256 tokenId, address auth) internal {... */\n      pop\n      pop\n      pop\n      jump\t// out\n        /* \"contracts/MyNFT_flattened.sol\":46563:47358  function _update(address to, uint256 tokenId, address auth) internal virtual returns (address) {... */\n    tag_141:\n        /* \"contracts/MyNFT_flattened.sol\":46649:46656  address */\n      0x00\n        /* \"contracts/MyNFT_flattened.sol\":46668:46680  address from */\n      dup1\n        /* \"contracts/MyNFT_flattened.sol\":46683:46700  _ownerOf(tokenId) */\n      tag_221\n        /* \"contracts/MyNFT_flattened.sol\":46692:46699  tokenId */\n      dup5\n        /* \"contracts/MyNFT_flattened.sol\":46683:46691  _ownerOf */\n      tag_212\n        /* \"contracts/MyNFT_flattened.sol\":46683:46700  _ownerOf(tokenId) */\n      jump\t// in\n    tag_221:\n        /* \"contracts/MyNFT_flattened.sol\":46668:46700  address from = _ownerOf(tokenId) */\n      swap1\n      pop\n        /* \"contracts/MyNFT_flattened.sol\":46776:46777  0 */\n      0x00\n        /* \"contracts/MyNFT_flattened.sol\":46760:46778  auth != address(0) */\n      0xffffffffffffffffffffffffffffffffffffffff\n      and\n        /* \"contracts/MyNFT_flattened.sol\":46760:46764  auth */\n      dup4\n        /* \"contracts/MyNFT_flattened.sol\":46760:46778  auth != address(0) */\n      0xffffffffffffffffffffffffffffffffffffffff\n      and\n      eq\n        /* \"contracts/MyNFT_flattened.sol\":46756:46842  if (auth != address(0)) {... */\n      tag_222\n      jumpi\n        /* \"contracts/MyNFT_flattened.sol\":46794:46831  _checkAuthorized(from, auth, tokenId) */\n      tag_223\n        /* \"contracts/MyNFT_flattened.sol\":46811:46815  from */\n      dup2\n        /* \"contracts/MyNFT_flattened.sol\":46817:46821  auth */\n      dup5\n        /* \"contracts/MyNFT_flattened.sol\":46823:46830  tokenId */\n      dup7\n        /* \"contracts/MyNFT_flattened.sol\":46794:46810  _checkAuthorized */\n      tag_224\n        /* \"contracts/MyNFT_flattened.sol\":46794:46831  _checkAuthorized(from, auth, tokenId) */\n      jump\t// in\n    tag_223:\n        /* \"contracts/MyNFT_flattened.sol\":46756:46842  if (auth != address(0)) {... */\n    tag_222:\n        /* \"contracts/MyNFT_flattened.sol\":46902:46903  0 */\n      0x00\n        /* \"contracts/MyNFT_flattened.sol\":46886:46904  from != address(0) */\n      0xffffffffffffffffffffffffffffffffffffffff\n      and\n        /* \"contracts/MyNFT_flattened.sol\":46886:46890  from */\n      dup2\n        /* \"contracts/MyNFT_flattened.sol\":46886:46904  from != address(0) */\n      0xffffffffffffffffffffffffffffffffffffffff\n      and\n      eq\n        /* \"contracts/MyNFT_flattened.sol\":46882:47138  if (from != address(0)) {... */\n      tag_225\n      jumpi\n        /* \"contracts/MyNFT_flattened.sol\":47002:47050  _approve(address(0), tokenId, address(0), false) */\n      tag_226\n        /* \"contracts/MyNFT_flattened.sol\":47019:47020  0 */\n      0x00\n        /* \"contracts/MyNFT_flattened.sol\":47023:47030  tokenId */\n      dup6\n        /* \"contracts/MyNFT_flattened.sol\":47040:47041  0 */\n      0x00\n        /* \"contracts/MyNFT_flattened.sol\":47044:47049  false */\n      dup1\n        /* \"contracts/MyNFT_flattened.sol\":47002:47010  _approve */\n      tag_219\n        /* \"contracts/MyNFT_flattened.sol\":47002:47050  _approve(address(0), tokenId, address(0), false) */\n      jump\t// in\n    tag_226:\n        /* \"contracts/MyNFT_flattened.sol\":47112:47113  1 */\n      0x01\n        /* \"contracts/MyNFT_flattened.sol\":47093:47102  _balances */\n      0x03\n        /* \"contracts/MyNFT_flattened.sol\":47093:47108  _balances[from] */\n      0x00\n        /* \"contracts/MyNFT_flattened.sol\":47103:47107  from */\n      dup4\n        /* \"contracts/MyNFT_flattened.sol\":47093:47108  _balances[from] */\n      0xffffffffffffffffffffffffffffffffffffffff\n      and\n      0xffffffffffffffffffffffffffffffffffffffff\n      and\n      dup2\n      mstore\n      0x20\n      add\n      swap1\n      dup2\n      mstore\n      0x20\n      add\n      0x00\n      keccak256\n      0x00\n        /* \"contracts/MyNFT_flattened.sol\":47093:47113  _balances[from] -= 1 */\n      dup3\n      dup3\n      sload\n      sub\n      swap3\n      pop\n      pop\n      dup2\n      swap1\n      sstore\n      pop\n        /* \"contracts/MyNFT_flattened.sol\":46882:47138  if (from != address(0)) {... */\n    tag_225:\n        /* \"contracts/MyNFT_flattened.sol\":47166:47167  0 */\n      0x00\n        /* \"contracts/MyNFT_flattened.sol\":47152:47168  to != address(0) */\n      0xffffffffffffffffffffffffffffffffffffffff\n      and\n        /* \"contracts/MyNFT_flattened.sol\":47152:47154  to */\n      dup6\n        /* \"contracts/MyNFT_flattened.sol\":47152:47168  to != address(0) */\n      0xffffffffffffffffffffffffffffffffffffffff\n      and\n      eq\n        /* \"contracts/MyNFT_flattened.sol\":47148:47255  if (to != address(0)) {... */\n      tag_227\n      jumpi\n        /* \"contracts/MyNFT_flattened.sol\":47229:47230  1 */\n      0x01\n        /* \"contracts/MyNFT_flattened.sol\":47212:47221  _balances */\n      0x03\n        /* \"contracts/MyNFT_flattened.sol\":47212:47225  _balances[to] */\n      0x00\n        /* \"contracts/MyNFT_flattened.sol\":47222:47224  to */\n      dup8\n        /* \"contracts/MyNFT_flattened.sol\":47212:47225  _balances[to] */\n      0xffffffffffffffffffffffffffffffffffffffff\n      and\n      0xffffffffffffffffffffffffffffffffffffffff\n      and\n      dup2\n      mstore\n      0x20\n      add\n      swap1\n      dup2\n      mstore\n      0x20\n      add\n      0x00\n      keccak256\n      0x00\n        /* \"contracts/MyNFT_flattened.sol\":47212:47230  _balances[to] += 1 */\n      dup3\n      dup3\n      sload\n      add\n      swap3\n      pop\n      pop\n      dup2\n      swap1\n      sstore\n      pop\n        /* \"contracts/MyNFT_flattened.sol\":47148:47255  if (to != address(0)) {... */\n    tag_227:\n        /* \"contracts/MyNFT_flattened.sol\":47284:47286  to */\n      dup5\n        /* \"contracts/MyNFT_flattened.sol\":47265:47272  _owners */\n      0x02\n        /* \"contracts/MyNFT_flattened.sol\":47265:47281  _owners[tokenId] */\n      0x00\n        /* \"contracts/MyNFT_flattened.sol\":47273:47280  tokenId */\n      dup7\n        /* \"contracts/MyNFT_flattened.sol\":47265:47281  _owners[tokenId] */\n      dup2\n      mstore\n      0x20\n      add\n      swap1\n      dup2\n      mstore\n      0x20\n      add\n      0x00\n      keccak256\n      0x00\n        /* \"contracts/MyNFT_flattened.sol\":47265:47286  _owners[tokenId] = to */\n      0x0100\n      exp\n      dup2\n      sload\n      dup2\n      0xffffffffffffffffffffffffffffffffffffffff\n      mul\n      not\n      and\n      swap1\n      dup4\n      0xffffffffffffffffffffffffffffffffffffffff\n      and\n      mul\n      or\n      swap1\n      sstore\n      pop\n        /* \"contracts/MyNFT_flattened.sol\":47321:47328  tokenId */\n      dup4\n        /* \"contracts/MyNFT_flattened.sol\":47317:47319  to */\n      dup6\n        /* \"contracts/MyNFT_flattened.sol\":47302:47329  Transfer(from, to, tokenId) */\n      0xffffffffffffffffffffffffffffffffffffffff\n      and\n        /* \"contracts/MyNFT_flattened.sol\":47311:47315  from */\n      dup3\n        /* \"contracts/MyNFT_flattened.sol\":47302:47329  Transfer(from, to, tokenId) */\n      0xffffffffffffffffffffffffffffffffffffffff\n      and\n      0xddf252ad1be2c89b69c2b068fc378daa952ba7f163c4a11628f55a4df523b3ef\n      mload(0x40)\n      mload(0x40)\n      dup1\n      swap2\n      sub\n      swap1\n      log4\n        /* \"contracts/MyNFT_flattened.sol\":47347:47351  from */\n      dup1\n        /* \"contracts/MyNFT_flattened.sol\":47340:47351  return from */\n      swap2\n      pop\n      pop\n        /* \"contracts/MyNFT_flattened.sol\":46563:47358  function _update(address to, uint256 tokenId, address auth) internal virtual returns (address) {... */\n      swap4\n      swap3\n      pop\n      pop\n      pop\n      jump\t// out\n        /* \"contracts/MyNFT_flattened.sol\":850:962  function current(Counter storage counter) internal view returns (uint256) {... */\n    tag_151:\n        /* \"contracts/MyNFT_flattened.sol\":915:922  uint256 */\n      0x00\n        /* \"contracts/MyNFT_flattened.sol\":941:948  counter */\n      dup2\n        /* \"contracts/MyNFT_flattened.sol\":941:955  counter._value */\n      0x00\n      add\n      sload\n        /* \"contracts/MyNFT_flattened.sol\":934:955  return counter._value */\n      swap1\n      pop\n        /* \"contracts/MyNFT_flattened.sol\":850:962  function current(Counter storage counter) internal view returns (uint256) {... */\n      swap2\n      swap1\n      pop\n      jump\t// out\n        /* \"contracts/MyNFT_flattened.sol\":47680:48007  function _mint(address to, uint256 tokenId) internal {... */\n    tag_153:\n        /* \"contracts/MyNFT_flattened.sol\":47761:47762  0 */\n      0x00\n        /* \"contracts/MyNFT_flattened.sol\":47747:47763  to == address(0) */\n      0xffffffffffffffffffffffffffffffffffffffff\n      and\n        /* \"contracts/MyNFT_flattened.sol\":47747:47749  to */\n      dup3\n        /* \"contracts/MyNFT_flattened.sol\":47747:47763  to == address(0) */\n      0xffffffffffffffffffffffffffffffffffffffff\n      and\n      sub\n        /* \"contracts/MyNFT_flattened.sol\":47743:47830  if (to == address(0)) {... */\n      tag_230\n      jumpi\n        /* \"contracts/MyNFT_flattened.sol\":47816:47817  0 */\n      0x00\n        /* \"contracts/MyNFT_flattened.sol\":47786:47819  ERC721InvalidReceiver(address(0)) */\n      mload(0x40)\n      0x64a0ae9200000000000000000000000000000000000000000000000000000000\n      dup2\n      mstore\n      0x04\n      add\n      tag_231\n      swap2\n      swap1\n      tag_41\n      jump\t// in\n    tag_231:\n      mload(0x40)\n      dup1\n      swap2\n      sub\n      swap1\n      revert\n        /* \"contracts/MyNFT_flattened.sol\":47743:47830  if (to == address(0)) {... */\n    tag_230:\n        /* \"contracts/MyNFT_flattened.sol\":47839:47860  address previousOwner */\n      0x00\n        /* \"contracts/MyNFT_flattened.sol\":47863:47895  _update(to, tokenId, address(0)) */\n      tag_232\n        /* \"contracts/MyNFT_flattened.sol\":47871:47873  to */\n      dup4\n        /* \"contracts/MyNFT_flattened.sol\":47875:47882  tokenId */\n      dup4\n        /* \"contracts/MyNFT_flattened.sol\":47892:47893  0 */\n      0x00\n        /* \"contracts/MyNFT_flattened.sol\":47863:47870  _update */\n      tag_141\n        /* \"contracts/MyNFT_flattened.sol\":47863:47895  _update(to, tokenId, address(0)) */\n      jump\t// in\n    tag_232:\n        /* \"contracts/MyNFT_flattened.sol\":47839:47895  address previousOwner = _update(to, tokenId, address(0)) */\n      swap1\n      pop\n        /* \"contracts/MyNFT_flattened.sol\":47934:47935  0 */\n      0x00\n        /* \"contracts/MyNFT_flattened.sol\":47909:47936  previousOwner != address(0) */\n      0xffffffffffffffffffffffffffffffffffffffff\n      and\n        /* \"contracts/MyNFT_flattened.sol\":47909:47922  previousOwner */\n      dup2\n        /* \"contracts/MyNFT_flattened.sol\":47909:47936  previousOwner != address(0) */\n      0xffffffffffffffffffffffffffffffffffffffff\n      and\n      eq\n        /* \"contracts/MyNFT_flattened.sol\":47905:48001  if (previousOwner != address(0)) {... */\n      tag_233\n      jumpi\n        /* \"contracts/MyNFT_flattened.sol\":47987:47988  0 */\n      0x00\n        /* \"contracts/MyNFT_flattened.sol\":47959:47990  ERC721InvalidSender(address(0)) */\n      mload(0x40)\n      0x73c6ac6e00000000000000000000000000000000000000000000000000000000\n      dup2\n      mstore\n      0x04\n      add\n      tag_234\n      swap2\n      swap1\n      tag_41\n      jump\t// in\n    tag_234:\n      mload(0x40)\n      dup1\n      swap2\n      sub\n      swap1\n      revert\n        /* \"contracts/MyNFT_flattened.sol\":47905:48001  if (previousOwner != address(0)) {... */\n    tag_233:\n        /* \"contracts/MyNFT_flattened.sol\":47733:48007  {... */\n      pop\n        /* \"contracts/MyNFT_flattened.sol\":47680:48007  function _mint(address to, uint256 tokenId) internal {... */\n      pop\n      pop\n      jump\t// out\n        /* \"contracts/MyNFT_flattened.sol\":968:1091  function increment(Counter storage counter) internal {... */\n    tag_155:\n        /* \"contracts/MyNFT_flattened.sol\":1073:1074  1 */\n      0x01\n        /* \"contracts/MyNFT_flattened.sol\":1055:1062  counter */\n      dup2\n        /* \"contracts/MyNFT_flattened.sol\":1055:1069  counter._value */\n      0x00\n      add\n      0x00\n        /* \"contracts/MyNFT_flattened.sol\":1055:1074  counter._value += 1 */\n      dup3\n      dup3\n      sload\n      add\n      swap3\n      pop\n      pop\n      dup2\n      swap1\n      sstore\n      pop\n        /* \"contracts/MyNFT_flattened.sol\":968:1091  function increment(Counter storage counter) internal {... */\n      pop\n      jump\t// out\n        /* \"contracts/MyNFT_flattened.sol\":53316:53628  function _setApprovalForAll(address owner, address operator, bool approved) internal virtual {... */\n    tag_172:\n        /* \"contracts/MyNFT_flattened.sol\":53443:53444  0 */\n      0x00\n        /* \"contracts/MyNFT_flattened.sol\":53423:53445  operator == address(0) */\n      0xffffffffffffffffffffffffffffffffffffffff\n      and\n        /* \"contracts/MyNFT_flattened.sol\":53423:53431  operator */\n      dup3\n        /* \"contracts/MyNFT_flattened.sol\":53423:53445  operator == address(0) */\n      0xffffffffffffffffffffffffffffffffffffffff\n      and\n      sub\n        /* \"contracts/MyNFT_flattened.sol\":53419:53510  if (operator == address(0)) {... */\n      tag_237\n      jumpi\n        /* \"contracts/MyNFT_flattened.sol\":53490:53498  operator */\n      dup2\n        /* \"contracts/MyNFT_flattened.sol\":53468:53499  ERC721InvalidOperator(operator) */\n      mload(0x40)\n      0x5b08ba1800000000000000000000000000000000000000000000000000000000\n      dup2\n      mstore\n      0x04\n      add\n      tag_238\n      swap2\n      swap1\n      tag_41\n      jump\t// in\n    tag_238:\n      mload(0x40)\n      dup1\n      swap2\n      sub\n      swap1\n      revert\n        /* \"contracts/MyNFT_flattened.sol\":53419:53510  if (operator == address(0)) {... */\n    tag_237:\n        /* \"contracts/MyNFT_flattened.sol\":53557:53565  approved */\n      dup1\n        /* \"contracts/MyNFT_flattened.sol\":53519:53537  _operatorApprovals */\n      0x05\n        /* \"contracts/MyNFT_flattened.sol\":53519:53544  _operatorApprovals[owner] */\n      0x00\n        /* \"contracts/MyNFT_flattened.sol\":53538:53543  owner */\n      dup6\n        /* \"contracts/MyNFT_flattened.sol\":53519:53544  _operatorApprovals[owner] */\n      0xffffffffffffffffffffffffffffffffffffffff\n      and\n      0xffffffffffffffffffffffffffffffffffffffff\n      and\n      dup2\n      mstore\n      0x20\n      add\n      swap1\n      dup2\n      mstore\n      0x20\n      add\n      0x00\n      keccak256\n        /* \"contracts/MyNFT_flattened.sol\":53519:53554  _operatorApprovals[owner][operator] */\n      0x00\n        /* \"contracts/MyNFT_flattened.sol\":53545:53553  operator */\n      dup5\n        /* \"contracts/MyNFT_flattened.sol\":53519:53554  _operatorApprovals[owner][operator] */\n      0xffffffffffffffffffffffffffffffffffffffff\n      and\n      0xffffffffffffffffffffffffffffffffffffffff\n      and\n      dup2\n      mstore\n      0x20\n      add\n      swap1\n      dup2\n      mstore\n      0x20\n      add\n      0x00\n      keccak256\n      0x00\n        /* \"contracts/MyNFT_flattened.sol\":53519:53565  _operatorApprovals[owner][operator] = approved */\n      0x0100\n      exp\n      dup2\n      sload\n      dup2\n      0xff\n      mul\n      not\n      and\n      swap1\n      dup4\n      iszero\n      iszero\n      mul\n      or\n      swap1\n      sstore\n      pop\n        /* \"contracts/MyNFT_flattened.sol\":53602:53610  operator */\n      dup2\n        /* \"contracts/MyNFT_flattened.sol\":53580:53621  ApprovalForAll(owner, operator, approved) */\n      0xffffffffffffffffffffffffffffffffffffffff\n      and\n        /* \"contracts/MyNFT_flattened.sol\":53595:53600  owner */\n      dup4\n        /* \"contracts/MyNFT_flattened.sol\":53580:53621  ApprovalForAll(owner, operator, approved) */\n      0xffffffffffffffffffffffffffffffffffffffff\n      and\n      0x17307eab39ab6107e8899845ad3d59bd9653f200f220920489ca2b5937696c31\n        /* \"contracts/MyNFT_flattened.sol\":53612:53620  approved */\n      dup4\n        /* \"contracts/MyNFT_flattened.sol\":53580:53621  ApprovalForAll(owner, operator, approved) */\n      mload(0x40)\n      tag_239\n      swap2\n      swap1\n      tag_29\n      jump\t// in\n    tag_239:\n      mload(0x40)\n      dup1\n      swap2\n      sub\n      swap1\n      log3\n        /* \"contracts/MyNFT_flattened.sol\":53316:53628  function _setApprovalForAll(address owner, address operator, bool approved) internal virtual {... */\n      pop\n      pop\n      pop\n      jump\t// out\n        /* \"contracts/MyNFT_flattened.sol\":54643:55425  function _checkOnERC721Received(address from, address to, uint256 tokenId, bytes memory data) private {... */\n    tag_176:\n        /* \"contracts/MyNFT_flattened.sol\":54776:54777  0 */\n      0x00\n        /* \"contracts/MyNFT_flattened.sol\":54759:54761  to */\n      dup4\n        /* \"contracts/MyNFT_flattened.sol\":54759:54773  to.code.length */\n      0xffffffffffffffffffffffffffffffffffffffff\n      and\n      extcodesize\n        /* \"contracts/MyNFT_flattened.sol\":54759:54777  to.code.length > 0 */\n      gt\n        /* \"contracts/MyNFT_flattened.sol\":54755:55419  if (to.code.length > 0) {... */\n      iszero\n      tag_241\n      jumpi\n        /* \"contracts/MyNFT_flattened.sol\":54813:54815  to */\n      dup3\n        /* \"contracts/MyNFT_flattened.sol\":54797:54833  IERC721Receiver(to).onERC721Received */\n      0xffffffffffffffffffffffffffffffffffffffff\n      and\n      0x150b7a02\n        /* \"contracts/MyNFT_flattened.sol\":54834:54846  _msgSender() */\n      tag_242\n        /* \"contracts/MyNFT_flattened.sol\":54834:54844  _msgSender */\n      tag_134\n        /* \"contracts/MyNFT_flattened.sol\":54834:54846  _msgSender() */\n      jump\t// in\n    tag_242:\n        /* \"contracts/MyNFT_flattened.sol\":54848:54852  from */\n      dup7\n        /* \"contracts/MyNFT_flattened.sol\":54854:54861  tokenId */\n      dup6\n        /* \"contracts/MyNFT_flattened.sol\":54863:54867  data */\n      dup6\n        /* \"contracts/MyNFT_flattened.sol\":54797:54868  IERC721Receiver(to).onERC721Received(_msgSender(), from, tokenId, data) */\n      mload(0x40)\n      dup6\n      0xffffffff\n      and\n      0xe0\n      shl\n      dup2\n      mstore\n      0x04\n      add\n      tag_243\n      swap5\n      swap4\n      swap3\n      swap2\n      swap1\n      tag_244\n      jump\t// in\n    tag_243:\n      0x20\n      mload(0x40)\n      dup1\n      dup4\n      sub\n      dup2\n      0x00\n      dup8\n      gas\n      call\n      swap3\n      pop\n      pop\n      pop\n      dup1\n      iszero\n      tag_245\n      jumpi\n      pop\n      mload(0x40)\n      returndatasize\n      not(0x1f)\n      0x1f\n      dup3\n      add\n      and\n      dup3\n      add\n      dup1\n      0x40\n      mstore\n      pop\n      dup2\n      add\n      swap1\n      tag_246\n      swap2\n      swap1\n      tag_247\n      jump\t// in\n    tag_246:\n      0x01\n    tag_245:\n        /* \"contracts/MyNFT_flattened.sol\":54793:55409  try IERC721Receiver(to).onERC721Received(_msgSender(), from, tokenId, data) returns (bytes4 retval) {... */\n      tag_248\n      jumpi\n      returndatasize\n      dup1\n      0x00\n      dup2\n      eq\n      tag_253\n      jumpi\n      mload(0x40)\n      swap2\n      pop\n      and(add(returndatasize, 0x3f), not(0x1f))\n      dup3\n      add\n      0x40\n      mstore\n      returndatasize\n      dup3\n      mstore\n      returndatasize\n      0x00\n      0x20\n      dup5\n      add\n      returndatacopy\n      jump(tag_252)\n    tag_253:\n      0x60\n      swap2\n      pop\n    tag_252:\n      pop\n        /* \"contracts/MyNFT_flattened.sol\":55123:55124  0 */\n      0x00\n        /* \"contracts/MyNFT_flattened.sol\":55106:55112  reason */\n      dup2\n        /* \"contracts/MyNFT_flattened.sol\":55106:55119  reason.length */\n      mload\n        /* \"contracts/MyNFT_flattened.sol\":55106:55124  reason.length == 0 */\n      sub\n        /* \"contracts/MyNFT_flattened.sol\":55102:55395  if (reason.length == 0) {... */\n      tag_254\n      jumpi\n        /* \"contracts/MyNFT_flattened.sol\":55177:55179  to */\n      dup4\n        /* \"contracts/MyNFT_flattened.sol\":55155:55180  ERC721InvalidReceiver(to) */\n      mload(0x40)\n      0x64a0ae9200000000000000000000000000000000000000000000000000000000\n      dup2\n      mstore\n      0x04\n      add\n      tag_255\n      swap2\n      swap1\n      tag_41\n      jump\t// in\n    tag_255:\n      mload(0x40)\n      dup1\n      swap2\n      sub\n      swap1\n      revert\n        /* \"contracts/MyNFT_flattened.sol\":55102:55395  if (reason.length == 0) {... */\n    tag_254:\n        /* \"contracts/MyNFT_flattened.sol\":55347:55353  reason */\n      dup1\n        /* \"contracts/MyNFT_flattened.sol\":55341:55354  mload(reason) */\n      mload\n        /* \"contracts/MyNFT_flattened.sol\":55332:55338  reason */\n      dup2\n        /* \"contracts/MyNFT_flattened.sol\":55328:55330  32 */\n      0x20\n        /* \"contracts/MyNFT_flattened.sol\":55324:55339  add(32, reason) */\n      add\n        /* \"contracts/MyNFT_flattened.sol\":55317:55355  revert(add(32, reason), mload(reason)) */\n      revert\n        /* \"contracts/MyNFT_flattened.sol\":54793:55409  try IERC721Receiver(to).onERC721Received(_msgSender(), from, tokenId, data) returns (bytes4 retval) {... */\n    tag_248:\n        /* \"contracts/MyNFT_flattened.sol\":54925:54966  IERC721Receiver.onERC721Received.selector */\n      shl(0xe0, 0x150b7a02)\n        /* \"contracts/MyNFT_flattened.sol\":54915:54966  retval != IERC721Receiver.onERC721Received.selector */\n      not(0xffffffffffffffffffffffffffffffffffffffffffffffffffffffff)\n      and\n        /* \"contracts/MyNFT_flattened.sol\":54915:54921  retval */\n      dup2\n        /* \"contracts/MyNFT_flattened.sol\":54915:54966  retval != IERC721Receiver.onERC721Received.selector */\n      not(0xffffffffffffffffffffffffffffffffffffffffffffffffffffffff)\n      and\n      eq\n        /* \"contracts/MyNFT_flattened.sol\":54911:55041  if (retval != IERC721Receiver.onERC721Received.selector) {... */\n      tag_258\n      jumpi\n        /* \"contracts/MyNFT_flattened.sol\":55019:55021  to */\n      dup4\n        /* \"contracts/MyNFT_flattened.sol\":54997:55022  ERC721InvalidReceiver(to) */\n      mload(0x40)\n      0x64a0ae9200000000000000000000000000000000000000000000000000000000\n      dup2\n      mstore\n      0x04\n      add\n      tag_259\n      swap2\n      swap1\n      tag_41\n      jump\t// in\n    tag_259:\n      mload(0x40)\n      dup1\n      swap2\n      sub\n      swap1\n      revert\n        /* \"contracts/MyNFT_flattened.sol\":54911:55041  if (retval != IERC721Receiver.onERC721Received.selector) {... */\n    tag_258:\n        /* \"contracts/MyNFT_flattened.sol\":54869:55055  returns (bytes4 retval) {... */\n      pop\n        /* \"contracts/MyNFT_flattened.sol\":54755:55419  if (to.code.length > 0) {... */\n    tag_241:\n        /* \"contracts/MyNFT_flattened.sol\":54643:55425  function _checkOnERC721Received(address from, address to, uint256 tokenId, bytes memory data) private {... */\n      pop\n      pop\n      pop\n      pop\n      jump\t// out\n        /* \"contracts/MyNFT_flattened.sol\":40899:40991  function _baseURI() internal view virtual returns (string memory) {... */\n    tag_180:\n        /* \"contracts/MyNFT_flattened.sol\":40950:40963  string memory */\n      0x60\n        /* \"contracts/MyNFT_flattened.sol\":40975:40984  return \"\" */\n      mload(0x40)\n      dup1\n      0x20\n      add\n      0x40\n      mstore\n      dup1\n      0x00\n      dup2\n      mstore\n      pop\n      swap1\n      pop\n        /* \"contracts/MyNFT_flattened.sol\":40899:40991  function _baseURI() internal view virtual returns (string memory) {... */\n      swap1\n      jump\t// out\n        /* \"contracts/MyNFT_flattened.sol\":24993:25691  function toString(uint256 value) internal pure returns (string memory) {... */\n    tag_184:\n        /* \"contracts/MyNFT_flattened.sol\":25049:25062  string memory */\n      0x60\n        /* \"contracts/MyNFT_flattened.sol\":25098:25112  uint256 length */\n      0x00\n        /* \"contracts/MyNFT_flattened.sol\":25135:25136  1 */\n      0x01\n        /* \"contracts/MyNFT_flattened.sol\":25115:25132  Math.log10(value) */\n      tag_262\n        /* \"contracts/MyNFT_flattened.sol\":25126:25131  value */\n      dup5\n        /* \"contracts/MyNFT_flattened.sol\":25115:25125  Math.log10 */\n      tag_263\n        /* \"contracts/MyNFT_flattened.sol\":25115:25132  Math.log10(value) */\n      jump\t// in\n    tag_262:\n        /* \"contracts/MyNFT_flattened.sol\":25115:25136  Math.log10(value) + 1 */\n      add\n        /* \"contracts/MyNFT_flattened.sol\":25098:25136  uint256 length = Math.log10(value) + 1 */\n      swap1\n      pop\n        /* \"contracts/MyNFT_flattened.sol\":25150:25170  string memory buffer */\n      0x00\n        /* \"contracts/MyNFT_flattened.sol\":25184:25190  length */\n      dup2\n        /* \"contracts/MyNFT_flattened.sol\":25173:25191  new string(length) */\n      0xffffffffffffffff\n      dup2\n      gt\n      iszero\n      tag_264\n      jumpi\n      tag_265\n      tag_266\n      jump\t// in\n    tag_265:\n    tag_264:\n      mload(0x40)\n      swap1\n      dup1\n      dup3\n      mstore\n      dup1\n      0x1f\n      add\n      not(0x1f)\n      and\n      0x20\n      add\n      dup3\n      add\n      0x40\n      mstore\n      dup1\n      iszero\n      tag_267\n      jumpi\n      dup2\n      0x20\n      add\n      0x01\n      dup3\n      mul\n      dup1\n      calldatasize\n      dup4\n      calldatacopy\n      dup1\n      dup3\n      add\n      swap2\n      pop\n      pop\n      swap1\n      pop\n    tag_267:\n      pop\n        /* \"contracts/MyNFT_flattened.sol\":25150:25191  string memory buffer = new string(length) */\n      swap1\n      pop\n        /* \"contracts/MyNFT_flattened.sol\":25205:25216  uint256 ptr */\n      0x00\n        /* \"contracts/MyNFT_flattened.sol\":25331:25337  length */\n      dup3\n        /* \"contracts/MyNFT_flattened.sol\":25327:25329  32 */\n      0x20\n        /* \"contracts/MyNFT_flattened.sol\":25323:25338  add(32, length) */\n      add\n        /* \"contracts/MyNFT_flattened.sol\":25315:25321  buffer */\n      dup3\n        /* \"contracts/MyNFT_flattened.sol\":25311:25339  add(buffer, add(32, length)) */\n      add\n        /* \"contracts/MyNFT_flattened.sol\":25304:25339  ptr := add(buffer, add(32, length)) */\n      swap1\n      pop\n        /* \"contracts/MyNFT_flattened.sol\":25366:25648  while (true) {... */\n    tag_268:\n        /* \"contracts/MyNFT_flattened.sol\":25373:25377  true */\n      0x01\n        /* \"contracts/MyNFT_flattened.sol\":25366:25648  while (true) {... */\n      iszero\n      tag_269\n      jumpi\n        /* \"contracts/MyNFT_flattened.sol\":25397:25402  ptr-- */\n      dup1\n      dup1\n      0x01\n      swap1\n      sub\n      swap2\n      pop\n      pop\n        /* \"contracts/MyNFT_flattened.sol\":25536:25546  HEX_DIGITS */\n      0x3031323334353637383961626364656600000000000000000000000000000000\n        /* \"contracts/MyNFT_flattened.sol\":25531:25533  10 */\n      0x0a\n        /* \"contracts/MyNFT_flattened.sol\":25524:25529  value */\n      dup7\n        /* \"contracts/MyNFT_flattened.sol\":25520:25534  mod(value, 10) */\n      mod\n        /* \"contracts/MyNFT_flattened.sol\":25515:25547  byte(mod(value, 10), HEX_DIGITS) */\n      byte\n        /* \"contracts/MyNFT_flattened.sol\":25510:25513  ptr */\n      dup2\n        /* \"contracts/MyNFT_flattened.sol\":25502:25548  mstore8(ptr, byte(mod(value, 10), HEX_DIGITS)) */\n      mstore8\n        /* \"contracts/MyNFT_flattened.sol\":25592:25594  10 */\n      0x0a\n        /* \"contracts/MyNFT_flattened.sol\":25583:25594  value /= 10 */\n      dup6\n      dup2\n      tag_270\n      jumpi\n      tag_271\n      tag_272\n      jump\t// in\n    tag_271:\n    tag_270:\n      div\n      swap5\n      pop\n        /* \"contracts/MyNFT_flattened.sol\":25625:25626  0 */\n      0x00\n        /* \"contracts/MyNFT_flattened.sol\":25616:25621  value */\n      dup6\n        /* \"contracts/MyNFT_flattened.sol\":25616:25626  value == 0 */\n      sub\n        /* \"contracts/MyNFT_flattened.sol\":25366:25648  while (true) {... */\n      tag_268\n        /* \"contracts/MyNFT_flattened.sol\":25612:25633  if (value == 0) break */\n      jumpi\n        /* \"contracts/MyNFT_flattened.sol\":25366:25648  while (true) {... */\n    tag_269:\n        /* \"contracts/MyNFT_flattened.sol\":25668:25674  buffer */\n      dup2\n        /* \"contracts/MyNFT_flattened.sol\":25661:25674  return buffer */\n      swap4\n      pop\n      pop\n      pop\n      pop\n        /* \"contracts/MyNFT_flattened.sol\":24993:25691  function toString(uint256 value) internal pure returns (string memory) {... */\n      swap2\n      swap1\n      pop\n      jump\t// out\n        /* \"contracts/MyNFT_flattened.sol\":59122:59290  function _exists(uint256 tokenId) internal view returns (bool) {... */\n    tag_189:\n        /* \"contracts/MyNFT_flattened.sol\":59179:59183  bool */\n      0x00\n        /* \"contracts/MyNFT_flattened.sol\":59195:59215  address ownerAddress */\n      dup1\n        /* \"contracts/MyNFT_flattened.sol\":59219:59230  _tokenOwner */\n      0x09\n        /* \"contracts/MyNFT_flattened.sol\":59219:59239  _tokenOwner[tokenId] */\n      0x00\n        /* \"contracts/MyNFT_flattened.sol\":59231:59238  tokenId */\n      dup5\n        /* \"contracts/MyNFT_flattened.sol\":59219:59239  _tokenOwner[tokenId] */\n      dup2\n      mstore\n      0x20\n      add\n      swap1\n      dup2\n      mstore\n      0x20\n      add\n      0x00\n      keccak256\n      0x00\n      swap1\n      sload\n      swap1\n      0x0100\n      exp\n      swap1\n      div\n      0xffffffffffffffffffffffffffffffffffffffff\n      and\n        /* \"contracts/MyNFT_flattened.sol\":59195:59239  address ownerAddress  = _tokenOwner[tokenId] */\n      swap1\n      pop\n        /* \"contracts/MyNFT_flattened.sol\":59281:59282  0 */\n      0x00\n        /* \"contracts/MyNFT_flattened.sol\":59256:59283  ownerAddress  != address(0) */\n      0xffffffffffffffffffffffffffffffffffffffff\n      and\n        /* \"contracts/MyNFT_flattened.sol\":59256:59268  ownerAddress */\n      dup2\n        /* \"contracts/MyNFT_flattened.sol\":59256:59283  ownerAddress  != address(0) */\n      0xffffffffffffffffffffffffffffffffffffffff\n      and\n      eq\n      iszero\n        /* \"contracts/MyNFT_flattened.sol\":59249:59283  return ownerAddress  != address(0) */\n      swap2\n      pop\n      pop\n        /* \"contracts/MyNFT_flattened.sol\":59122:59290  function _exists(uint256 tokenId) internal view returns (bool) {... */\n      swap2\n      swap1\n      pop\n      jump\t// out\n        /* \"contracts/MyNFT_flattened.sol\":49738:50198  function _transfer(address from, address to, uint256 tokenId) internal {... */\n    tag_200:\n        /* \"contracts/MyNFT_flattened.sol\":49837:49838  0 */\n      0x00\n        /* \"contracts/MyNFT_flattened.sol\":49823:49839  to == address(0) */\n      0xffffffffffffffffffffffffffffffffffffffff\n      and\n        /* \"contracts/MyNFT_flattened.sol\":49823:49825  to */\n      dup3\n        /* \"contracts/MyNFT_flattened.sol\":49823:49839  to == address(0) */\n      0xffffffffffffffffffffffffffffffffffffffff\n      and\n      sub\n        /* \"contracts/MyNFT_flattened.sol\":49819:49906  if (to == address(0)) {... */\n      tag_276\n      jumpi\n        /* \"contracts/MyNFT_flattened.sol\":49892:49893  0 */\n      0x00\n        /* \"contracts/MyNFT_flattened.sol\":49862:49895  ERC721InvalidReceiver(address(0)) */\n      mload(0x40)\n      0x64a0ae9200000000000000000000000000000000000000000000000000000000\n      dup2\n      mstore\n      0x04\n      add\n      tag_277\n      swap2\n      swap1\n      tag_41\n      jump\t// in\n    tag_277:\n      mload(0x40)\n      dup1\n      swap2\n      sub\n      swap1\n      revert\n        /* \"contracts/MyNFT_flattened.sol\":49819:49906  if (to == address(0)) {... */\n    tag_276:\n        /* \"contracts/MyNFT_flattened.sol\":49915:49936  address previousOwner */\n      0x00\n        /* \"contracts/MyNFT_flattened.sol\":49939:49971  _update(to, tokenId, address(0)) */\n      tag_278\n        /* \"contracts/MyNFT_flattened.sol\":49947:49949  to */\n      dup4\n        /* \"contracts/MyNFT_flattened.sol\":49951:49958  tokenId */\n      dup4\n        /* \"contracts/MyNFT_flattened.sol\":49968:49969  0 */\n      0x00\n        /* \"contracts/MyNFT_flattened.sol\":49939:49946  _update */\n      tag_141\n        /* \"contracts/MyNFT_flattened.sol\":49939:49971  _update(to, tokenId, address(0)) */\n      jump\t// in\n    tag_278:\n        /* \"contracts/MyNFT_flattened.sol\":49915:49971  address previousOwner = _update(to, tokenId, address(0)) */\n      swap1\n      pop\n        /* \"contracts/MyNFT_flattened.sol\":50010:50011  0 */\n      0x00\n        /* \"contracts/MyNFT_flattened.sol\":49985:50012  previousOwner == address(0) */\n      0xffffffffffffffffffffffffffffffffffffffff\n      and\n        /* \"contracts/MyNFT_flattened.sol\":49985:49998  previousOwner */\n      dup2\n        /* \"contracts/MyNFT_flattened.sol\":49985:50012  previousOwner == address(0) */\n      0xffffffffffffffffffffffffffffffffffffffff\n      and\n      sub\n        /* \"contracts/MyNFT_flattened.sol\":49981:50192  if (previousOwner == address(0)) {... */\n      tag_279\n      jumpi\n        /* \"contracts/MyNFT_flattened.sol\":50058:50065  tokenId */\n      dup2\n        /* \"contracts/MyNFT_flattened.sol\":50035:50066  ERC721NonexistentToken(tokenId) */\n      mload(0x40)\n      0x7e27328900000000000000000000000000000000000000000000000000000000\n      dup2\n      mstore\n      0x04\n      add\n      tag_280\n      swap2\n      swap1\n      tag_61\n      jump\t// in\n    tag_280:\n      mload(0x40)\n      dup1\n      swap2\n      sub\n      swap1\n      revert\n        /* \"contracts/MyNFT_flattened.sol\":49981:50192  if (previousOwner == address(0)) {... */\n    tag_279:\n        /* \"contracts/MyNFT_flattened.sol\":50104:50108  from */\n      dup4\n        /* \"contracts/MyNFT_flattened.sol\":50087:50108  previousOwner != from */\n      0xffffffffffffffffffffffffffffffffffffffff\n      and\n        /* \"contracts/MyNFT_flattened.sol\":50087:50100  previousOwner */\n      dup2\n        /* \"contracts/MyNFT_flattened.sol\":50087:50108  previousOwner != from */\n      0xffffffffffffffffffffffffffffffffffffffff\n      and\n      eq\n        /* \"contracts/MyNFT_flattened.sol\":50083:50192  if (previousOwner != from) {... */\n      tag_282\n      jumpi\n        /* \"contracts/MyNFT_flattened.sol\":50152:50156  from */\n      dup4\n        /* \"contracts/MyNFT_flattened.sol\":50158:50165  tokenId */\n      dup3\n        /* \"contracts/MyNFT_flattened.sol\":50167:50180  previousOwner */\n      dup3\n        /* \"contracts/MyNFT_flattened.sol\":50131:50181  ERC721IncorrectOwner(from, tokenId, previousOwner) */\n      mload(0x40)\n      0x64283d7b00000000000000000000000000000000000000000000000000000000\n      dup2\n      mstore\n      0x04\n      add\n      tag_283\n      swap4\n      swap3\n      swap2\n      swap1\n      tag_144\n      jump\t// in\n    tag_283:\n      mload(0x40)\n      dup1\n      swap2\n      sub\n      swap1\n      revert\n        /* \"contracts/MyNFT_flattened.sol\":50083:50192  if (previousOwner != from) {... */\n    tag_282:\n        /* \"contracts/MyNFT_flattened.sol\":49809:50198  {... */\n      pop\n        /* \"contracts/MyNFT_flattened.sol\":49738:50198  function _transfer(address from, address to, uint256 tokenId) internal {... */\n      pop\n      pop\n      pop\n      jump\t// out\n        /* \"contracts/MyNFT_flattened.sol\":43432:43547  function _ownerOf(uint256 tokenId) internal view virtual returns (address) {... */\n    tag_212:\n        /* \"contracts/MyNFT_flattened.sol\":43498:43505  address */\n      0x00\n        /* \"contracts/MyNFT_flattened.sol\":43524:43531  _owners */\n      0x02\n        /* \"contracts/MyNFT_flattened.sol\":43524:43540  _owners[tokenId] */\n      0x00\n        /* \"contracts/MyNFT_flattened.sol\":43532:43539  tokenId */\n      dup4\n        /* \"contracts/MyNFT_flattened.sol\":43524:43540  _owners[tokenId] */\n      dup2\n      mstore\n      0x20\n      add\n      swap1\n      dup2\n      mstore\n      0x20\n      add\n      0x00\n      keccak256\n      0x00\n      swap1\n      sload\n      swap1\n      0x0100\n      exp\n      swap1\n      div\n      0xffffffffffffffffffffffffffffffffffffffff\n      and\n        /* \"contracts/MyNFT_flattened.sol\":43517:43540  return _owners[tokenId] */\n      swap1\n      pop\n        /* \"contracts/MyNFT_flattened.sol\":43432:43547  function _ownerOf(uint256 tokenId) internal view virtual returns (address) {... */\n      swap2\n      swap1\n      pop\n      jump\t// out\n        /* \"contracts/MyNFT_flattened.sol\":52445:53107  function _approve(address to, uint256 tokenId, address auth, bool emitEvent) internal virtual {... */\n    tag_219:\n        /* \"contracts/MyNFT_flattened.sol\":52605:52614  emitEvent */\n      dup1\n        /* \"contracts/MyNFT_flattened.sol\":52605:52636  emitEvent || auth != address(0) */\n      dup1\n      tag_286\n      jumpi\n      pop\n        /* \"contracts/MyNFT_flattened.sol\":52634:52635  0 */\n      0x00\n        /* \"contracts/MyNFT_flattened.sol\":52618:52636  auth != address(0) */\n      0xffffffffffffffffffffffffffffffffffffffff\n      and\n        /* \"contracts/MyNFT_flattened.sol\":52618:52622  auth */\n      dup3\n        /* \"contracts/MyNFT_flattened.sol\":52618:52636  auth != address(0) */\n      0xffffffffffffffffffffffffffffffffffffffff\n      and\n      eq\n      iszero\n        /* \"contracts/MyNFT_flattened.sol\":52605:52636  emitEvent || auth != address(0) */\n    tag_286:\n        /* \"contracts/MyNFT_flattened.sol\":52601:53061  if (emitEvent || auth != address(0)) {... */\n      iszero\n      tag_287\n      jumpi\n        /* \"contracts/MyNFT_flattened.sol\":52652:52665  address owner */\n      0x00\n        /* \"contracts/MyNFT_flattened.sol\":52668:52690  _requireOwned(tokenId) */\n      tag_288\n        /* \"contracts/MyNFT_flattened.sol\":52682:52689  tokenId */\n      dup5\n        /* \"contracts/MyNFT_flattened.sol\":52668:52681  _requireOwned */\n      tag_128\n        /* \"contracts/MyNFT_flattened.sol\":52668:52690  _requireOwned(tokenId) */\n      jump\t// in\n    tag_288:\n        /* \"contracts/MyNFT_flattened.sol\":52652:52690  address owner = _requireOwned(tokenId) */\n      swap1\n      pop\n        /* \"contracts/MyNFT_flattened.sol\":52834:52835  0 */\n      0x00\n        /* \"contracts/MyNFT_flattened.sol\":52818:52836  auth != address(0) */\n      0xffffffffffffffffffffffffffffffffffffffff\n      and\n        /* \"contracts/MyNFT_flattened.sol\":52818:52822  auth */\n      dup4\n        /* \"contracts/MyNFT_flattened.sol\":52818:52836  auth != address(0) */\n      0xffffffffffffffffffffffffffffffffffffffff\n      and\n      eq\n      iszero\n        /* \"contracts/MyNFT_flattened.sol\":52818:52853  auth != address(0) && owner != auth */\n      dup1\n      iszero\n      tag_289\n      jumpi\n      pop\n        /* \"contracts/MyNFT_flattened.sol\":52849:52853  auth */\n      dup3\n        /* \"contracts/MyNFT_flattened.sol\":52840:52853  owner != auth */\n      0xffffffffffffffffffffffffffffffffffffffff\n      and\n        /* \"contracts/MyNFT_flattened.sol\":52840:52845  owner */\n      dup2\n        /* \"contracts/MyNFT_flattened.sol\":52840:52853  owner != auth */\n      0xffffffffffffffffffffffffffffffffffffffff\n      and\n      eq\n      iszero\n        /* \"contracts/MyNFT_flattened.sol\":52818:52853  auth != address(0) && owner != auth */\n    tag_289:\n        /* \"contracts/MyNFT_flattened.sol\":52818:52887  auth != address(0) && owner != auth && !isApprovedForAll(owner, auth) */\n      dup1\n      iszero\n      tag_290\n      jumpi\n      pop\n        /* \"contracts/MyNFT_flattened.sol\":52858:52887  isApprovedForAll(owner, auth) */\n      tag_291\n        /* \"contracts/MyNFT_flattened.sol\":52875:52880  owner */\n      dup2\n        /* \"contracts/MyNFT_flattened.sol\":52882:52886  auth */\n      dup5\n        /* \"contracts/MyNFT_flattened.sol\":52858:52874  isApprovedForAll */\n      tag_107\n        /* \"contracts/MyNFT_flattened.sol\":52858:52887  isApprovedForAll(owner, auth) */\n      jump\t// in\n    tag_291:\n        /* \"contracts/MyNFT_flattened.sol\":52857:52887  !isApprovedForAll(owner, auth) */\n      iszero\n        /* \"contracts/MyNFT_flattened.sol\":52818:52887  auth != address(0) && owner != auth && !isApprovedForAll(owner, auth) */\n    tag_290:\n        /* \"contracts/MyNFT_flattened.sol\":52814:52956  if (auth != address(0) && owner != auth && !isApprovedForAll(owner, auth)) {... */\n      iszero\n      tag_292\n      jumpi\n        /* \"contracts/MyNFT_flattened.sol\":52936:52940  auth */\n      dup3\n        /* \"contracts/MyNFT_flattened.sol\":52914:52941  ERC721InvalidApprover(auth) */\n      mload(0x40)\n      0xa9fbf51f00000000000000000000000000000000000000000000000000000000\n      dup2\n      mstore\n      0x04\n      add\n      tag_293\n      swap2\n      swap1\n      tag_41\n      jump\t// in\n    tag_293:\n      mload(0x40)\n      dup1\n      swap2\n      sub\n      swap1\n      revert\n        /* \"contracts/MyNFT_flattened.sol\":52814:52956  if (auth != address(0) && owner != auth && !isApprovedForAll(owner, auth)) {... */\n    tag_292:\n        /* \"contracts/MyNFT_flattened.sol\":52974:52983  emitEvent */\n      dup2\n        /* \"contracts/MyNFT_flattened.sol\":52970:53051  if (emitEvent) {... */\n      iszero\n      tag_294\n      jumpi\n        /* \"contracts/MyNFT_flattened.sol\":53028:53035  tokenId */\n      dup4\n        /* \"contracts/MyNFT_flattened.sol\":53024:53026  to */\n      dup6\n        /* \"contracts/MyNFT_flattened.sol\":53008:53036  Approval(owner, to, tokenId) */\n      0xffffffffffffffffffffffffffffffffffffffff\n      and\n        /* \"contracts/MyNFT_flattened.sol\":53017:53022  owner */\n      dup3\n        /* \"contracts/MyNFT_flattened.sol\":53008:53036  Approval(owner, to, tokenId) */\n      0xffffffffffffffffffffffffffffffffffffffff\n      and\n      0x8c5be1e5ebec7d5bd14f71427d1e84f3dd0314c0f7b2291e5b200ac8c7c3b925\n      mload(0x40)\n      mload(0x40)\n      dup1\n      swap2\n      sub\n      swap1\n      log4\n        /* \"contracts/MyNFT_flattened.sol\":52970:53051  if (emitEvent) {... */\n    tag_294:\n        /* \"contracts/MyNFT_flattened.sol\":52638:53061  {... */\n      pop\n        /* \"contracts/MyNFT_flattened.sol\":52601:53061  if (emitEvent || auth != address(0)) {... */\n    tag_287:\n        /* \"contracts/MyNFT_flattened.sol\":53098:53100  to */\n      dup4\n        /* \"contracts/MyNFT_flattened.sol\":53071:53086  _tokenApprovals */\n      0x04\n        /* \"contracts/MyNFT_flattened.sol\":53071:53095  _tokenApprovals[tokenId] */\n      0x00\n        /* \"contracts/MyNFT_flattened.sol\":53087:53094  tokenId */\n      dup6\n        /* \"contracts/MyNFT_flattened.sol\":53071:53095  _tokenApprovals[tokenId] */\n      dup2\n      mstore\n      0x20\n      add\n      swap1\n      dup2\n      mstore\n      0x20\n      add\n      0x00\n      keccak256\n      0x00\n        /* \"contracts/MyNFT_flattened.sol\":53071:53100  _tokenApprovals[tokenId] = to */\n      0x0100\n      exp\n      dup2\n      sload\n      dup2\n      0xffffffffffffffffffffffffffffffffffffffff\n      mul\n      not\n      and\n      swap1\n      dup4\n      0xffffffffffffffffffffffffffffffffffffffff\n      and\n      mul\n      or\n      swap1\n      sstore\n      pop\n        /* \"contracts/MyNFT_flattened.sol\":52445:53107  function _approve(address to, uint256 tokenId, address auth, bool emitEvent) internal virtual {... */\n      pop\n      pop\n      pop\n      pop\n      jump\t// out\n        /* \"contracts/MyNFT_flattened.sol\":44807:45175  function _checkAuthorized(address owner, address spender, uint256 tokenId) internal view virtual {... */\n    tag_224:\n        /* \"contracts/MyNFT_flattened.sol\":44919:44957  _isAuthorized(owner, spender, tokenId) */\n      tag_296\n        /* \"contracts/MyNFT_flattened.sol\":44933:44938  owner */\n      dup4\n        /* \"contracts/MyNFT_flattened.sol\":44940:44947  spender */\n      dup4\n        /* \"contracts/MyNFT_flattened.sol\":44949:44956  tokenId */\n      dup4\n        /* \"contracts/MyNFT_flattened.sol\":44919:44932  _isAuthorized */\n      tag_297\n        /* \"contracts/MyNFT_flattened.sol\":44919:44957  _isAuthorized(owner, spender, tokenId) */\n      jump\t// in\n    tag_296:\n        /* \"contracts/MyNFT_flattened.sol\":44914:45169  if (!_isAuthorized(owner, spender, tokenId)) {... */\n      tag_298\n      jumpi\n        /* \"contracts/MyNFT_flattened.sol\":44994:44995  0 */\n      0x00\n        /* \"contracts/MyNFT_flattened.sol\":44977:44996  owner == address(0) */\n      0xffffffffffffffffffffffffffffffffffffffff\n      and\n        /* \"contracts/MyNFT_flattened.sol\":44977:44982  owner */\n      dup4\n        /* \"contracts/MyNFT_flattened.sol\":44977:44996  owner == address(0) */\n      0xffffffffffffffffffffffffffffffffffffffff\n      and\n      sub\n        /* \"contracts/MyNFT_flattened.sol\":44973:45159  if (owner == address(0)) {... */\n      tag_299\n      jumpi\n        /* \"contracts/MyNFT_flattened.sol\":45046:45053  tokenId */\n      dup1\n        /* \"contracts/MyNFT_flattened.sol\":45023:45054  ERC721NonexistentToken(tokenId) */\n      mload(0x40)\n      0x7e27328900000000000000000000000000000000000000000000000000000000\n      dup2\n      mstore\n      0x04\n      add\n      tag_300\n      swap2\n      swap1\n      tag_61\n      jump\t// in\n    tag_300:\n      mload(0x40)\n      dup1\n      swap2\n      sub\n      swap1\n      revert\n        /* \"contracts/MyNFT_flattened.sol\":44973:45159  if (owner == address(0)) {... */\n    tag_299:\n        /* \"contracts/MyNFT_flattened.sol\":45127:45134  spender */\n      dup2\n        /* \"contracts/MyNFT_flattened.sol\":45136:45143  tokenId */\n      dup2\n        /* \"contracts/MyNFT_flattened.sol\":45100:45144  ERC721InsufficientApproval(spender, tokenId) */\n      mload(0x40)\n      0x177e802f00000000000000000000000000000000000000000000000000000000\n      dup2\n      mstore\n      0x04\n      add\n      tag_302\n      swap3\n      swap2\n      swap1\n      tag_303\n      jump\t// in\n    tag_302:\n      mload(0x40)\n      dup1\n      swap2\n      sub\n      swap1\n      revert\n        /* \"contracts/MyNFT_flattened.sol\":44914:45169  if (!_isAuthorized(owner, spender, tokenId)) {... */\n    tag_298:\n        /* \"contracts/MyNFT_flattened.sol\":44807:45175  function _checkAuthorized(address owner, address spender, uint256 tokenId) internal view virtual {... */\n      pop\n      pop\n      pop\n      jump\t// out\n        /* \"contracts/MyNFT_flattened.sol\":21517:22433  function log10(uint256 value) internal pure returns (uint256) {... */\n    tag_263:\n        /* \"contracts/MyNFT_flattened.sol\":21570:21577  uint256 */\n      0x00\n        /* \"contracts/MyNFT_flattened.sol\":21589:21603  uint256 result */\n      dup1\n        /* \"contracts/MyNFT_flattened.sol\":21606:21607  0 */\n      0x00\n        /* \"contracts/MyNFT_flattened.sol\":21589:21607  uint256 result = 0 */\n      swap1\n      pop\n        /* \"contracts/MyNFT_flattened.sol\":21654:21662  10 ** 64 */\n      0x184f03e93ff9f4daa797ed6e38ed64bf6a1f010000000000000000\n        /* \"contracts/MyNFT_flattened.sol\":21645:21650  value */\n      dup4\n        /* \"contracts/MyNFT_flattened.sol\":21645:21662  value >= 10 ** 64 */\n      lt\n        /* \"contracts/MyNFT_flattened.sol\":21641:21744  if (value >= 10 ** 64) {... */\n      tag_305\n      jumpi\n        /* \"contracts/MyNFT_flattened.sol\":21691:21699  10 ** 64 */\n      0x184f03e93ff9f4daa797ed6e38ed64bf6a1f010000000000000000\n        /* \"contracts/MyNFT_flattened.sol\":21682:21699  value /= 10 ** 64 */\n      dup4\n      dup2\n      tag_306\n      jumpi\n      tag_307\n      tag_272\n      jump\t// in\n    tag_307:\n    tag_306:\n      div\n      swap3\n      pop\n        /* \"contracts/MyNFT_flattened.sol\":21727:21729  64 */\n      0x40\n        /* \"contracts/MyNFT_flattened.sol\":21717:21729  result += 64 */\n      dup2\n      add\n      swap1\n      pop\n        /* \"contracts/MyNFT_flattened.sol\":21641:21744  if (value >= 10 ** 64) {... */\n    tag_305:\n        /* \"contracts/MyNFT_flattened.sol\":21770:21778  10 ** 32 */\n      0x04ee2d6d415b85acef8100000000\n        /* \"contracts/MyNFT_flattened.sol\":21761:21766  value */\n      dup4\n        /* \"contracts/MyNFT_flattened.sol\":21761:21778  value >= 10 ** 32 */\n      lt\n        /* \"contracts/MyNFT_flattened.sol\":21757:21860  if (value >= 10 ** 32) {... */\n      tag_308\n      jumpi\n        /* \"contracts/MyNFT_flattened.sol\":21807:21815  10 ** 32 */\n      0x04ee2d6d415b85acef8100000000\n        /* \"contracts/MyNFT_flattened.sol\":21798:21815  value /= 10 ** 32 */\n      dup4\n      dup2\n      tag_309\n      jumpi\n      tag_310\n      tag_272\n      jump\t// in\n    tag_310:\n    tag_309:\n      div\n      swap3\n      pop\n        /* \"contracts/MyNFT_flattened.sol\":21843:21845  32 */\n      0x20\n        /* \"contracts/MyNFT_flattened.sol\":21833:21845  result += 32 */\n      dup2\n      add\n      swap1\n      pop\n        /* \"contracts/MyNFT_flattened.sol\":21757:21860  if (value >= 10 ** 32) {... */\n    tag_308:\n        /* \"contracts/MyNFT_flattened.sol\":21886:21894  10 ** 16 */\n      0x2386f26fc10000\n        /* \"contracts/MyNFT_flattened.sol\":21877:21882  value */\n      dup4\n        /* \"contracts/MyNFT_flattened.sol\":21877:21894  value >= 10 ** 16 */\n      lt\n        /* \"contracts/MyNFT_flattened.sol\":21873:21976  if (value >= 10 ** 16) {... */\n      tag_311\n      jumpi\n        /* \"contracts/MyNFT_flattened.sol\":21923:21931  10 ** 16 */\n      0x2386f26fc10000\n        /* \"contracts/MyNFT_flattened.sol\":21914:21931  value /= 10 ** 16 */\n      dup4\n      dup2\n      tag_312\n      jumpi\n      tag_313\n      tag_272\n      jump\t// in\n    tag_313:\n    tag_312:\n      div\n      swap3\n      pop\n        /* \"contracts/MyNFT_flattened.sol\":21959:21961  16 */\n      0x10\n        /* \"contracts/MyNFT_flattened.sol\":21949:21961  result += 16 */\n      dup2\n      add\n      swap1\n      pop\n        /* \"contracts/MyNFT_flattened.sol\":21873:21976  if (value >= 10 ** 16) {... */\n    tag_311:\n        /* \"contracts/MyNFT_flattened.sol\":22002:22009  10 ** 8 */\n      0x05f5e100\n        /* \"contracts/MyNFT_flattened.sol\":21993:21998  value */\n      dup4\n        /* \"contracts/MyNFT_flattened.sol\":21993:22009  value >= 10 ** 8 */\n      lt\n        /* \"contracts/MyNFT_flattened.sol\":21989:22089  if (value >= 10 ** 8) {... */\n      tag_314\n      jumpi\n        /* \"contracts/MyNFT_flattened.sol\":22038:22045  10 ** 8 */\n      0x05f5e100\n        /* \"contracts/MyNFT_flattened.sol\":22029:22045  value /= 10 ** 8 */\n      dup4\n      dup2\n      tag_315\n      jumpi\n      tag_316\n      tag_272\n      jump\t// in\n    tag_316:\n    tag_315:\n      div\n      swap3\n      pop\n        /* \"contracts/MyNFT_flattened.sol\":22073:22074  8 */\n      0x08\n        /* \"contracts/MyNFT_flattened.sol\":22063:22074  result += 8 */\n      dup2\n      add\n      swap1\n      pop\n        /* \"contracts/MyNFT_flattened.sol\":21989:22089  if (value >= 10 ** 8) {... */\n    tag_314:\n        /* \"contracts/MyNFT_flattened.sol\":22115:22122  10 ** 4 */\n      0x2710\n        /* \"contracts/MyNFT_flattened.sol\":22106:22111  value */\n      dup4\n        /* \"contracts/MyNFT_flattened.sol\":22106:22122  value >= 10 ** 4 */\n      lt\n        /* \"contracts/MyNFT_flattened.sol\":22102:22202  if (value >= 10 ** 4) {... */\n      tag_317\n      jumpi\n        /* \"contracts/MyNFT_flattened.sol\":22151:22158  10 ** 4 */\n      0x2710\n        /* \"contracts/MyNFT_flattened.sol\":22142:22158  value /= 10 ** 4 */\n      dup4\n      dup2\n      tag_318\n      jumpi\n      tag_319\n      tag_272\n      jump\t// in\n    tag_319:\n    tag_318:\n      div\n      swap3\n      pop\n        /* \"contracts/MyNFT_flattened.sol\":22186:22187  4 */\n      0x04\n        /* \"contracts/MyNFT_flattened.sol\":22176:22187  result += 4 */\n      dup2\n      add\n      swap1\n      pop\n        /* \"contracts/MyNFT_flattened.sol\":22102:22202  if (value >= 10 ** 4) {... */\n    tag_317:\n        /* \"contracts/MyNFT_flattened.sol\":22228:22235  10 ** 2 */\n      0x64\n        /* \"contracts/MyNFT_flattened.sol\":22219:22224  value */\n      dup4\n        /* \"contracts/MyNFT_flattened.sol\":22219:22235  value >= 10 ** 2 */\n      lt\n        /* \"contracts/MyNFT_flattened.sol\":22215:22315  if (value >= 10 ** 2) {... */\n      tag_320\n      jumpi\n        /* \"contracts/MyNFT_flattened.sol\":22264:22271  10 ** 2 */\n      0x64\n        /* \"contracts/MyNFT_flattened.sol\":22255:22271  value /= 10 ** 2 */\n      dup4\n      dup2\n      tag_321\n      jumpi\n      tag_322\n      tag_272\n      jump\t// in\n    tag_322:\n    tag_321:\n      div\n      swap3\n      pop\n        /* \"contracts/MyNFT_flattened.sol\":22299:22300  2 */\n      0x02\n        /* \"contracts/MyNFT_flattened.sol\":22289:22300  result += 2 */\n      dup2\n      add\n      swap1\n      pop\n        /* \"contracts/MyNFT_flattened.sol\":22215:22315  if (value >= 10 ** 2) {... */\n    tag_320:\n        /* \"contracts/MyNFT_flattened.sol\":22341:22348  10 ** 1 */\n      0x0a\n        /* \"contracts/MyNFT_flattened.sol\":22332:22337  value */\n      dup4\n        /* \"contracts/MyNFT_flattened.sol\":22332:22348  value >= 10 ** 1 */\n      lt\n        /* \"contracts/MyNFT_flattened.sol\":22328:22394  if (value >= 10 ** 1) {... */\n      tag_323\n      jumpi\n        /* \"contracts/MyNFT_flattened.sol\":22378:22379  1 */\n      0x01\n        /* \"contracts/MyNFT_flattened.sol\":22368:22379  result += 1 */\n      dup2\n      add\n      swap1\n      pop\n        /* \"contracts/MyNFT_flattened.sol\":22328:22394  if (value >= 10 ** 1) {... */\n    tag_323:\n        /* \"contracts/MyNFT_flattened.sol\":22420:22426  result */\n      dup1\n        /* \"contracts/MyNFT_flattened.sol\":22413:22426  return result */\n      swap2\n      pop\n      pop\n        /* \"contracts/MyNFT_flattened.sol\":21517:22433  function log10(uint256 value) internal pure returns (uint256) {... */\n      swap2\n      swap1\n      pop\n      jump\t// out\n        /* \"contracts/MyNFT_flattened.sol\":44101:44373  function _isAuthorized(address owner, address spender, uint256 tokenId) internal view virtual returns (bool) {... */\n    tag_297:\n        /* \"contracts/MyNFT_flattened.sol\":44204:44208  bool */\n      0x00\n        /* \"contracts/MyNFT_flattened.sol\":44258:44259  0 */\n      dup1\n        /* \"contracts/MyNFT_flattened.sol\":44239:44260  spender != address(0) */\n      0xffffffffffffffffffffffffffffffffffffffff\n      and\n        /* \"contracts/MyNFT_flattened.sol\":44239:44246  spender */\n      dup4\n        /* \"contracts/MyNFT_flattened.sol\":44239:44260  spender != address(0) */\n      0xffffffffffffffffffffffffffffffffffffffff\n      and\n      eq\n      iszero\n        /* \"contracts/MyNFT_flattened.sol\":44239:44366  spender != address(0) &&... */\n      dup1\n      iszero\n      tag_325\n      jumpi\n      pop\n        /* \"contracts/MyNFT_flattened.sol\":44286:44293  spender */\n      dup3\n        /* \"contracts/MyNFT_flattened.sol\":44277:44293  owner == spender */\n      0xffffffffffffffffffffffffffffffffffffffff\n      and\n        /* \"contracts/MyNFT_flattened.sol\":44277:44282  owner */\n      dup5\n        /* \"contracts/MyNFT_flattened.sol\":44277:44293  owner == spender */\n      0xffffffffffffffffffffffffffffffffffffffff\n      and\n      eq\n        /* \"contracts/MyNFT_flattened.sol\":44277:44329  owner == spender || isApprovedForAll(owner, spender) */\n      dup1\n      tag_326\n      jumpi\n      pop\n        /* \"contracts/MyNFT_flattened.sol\":44297:44329  isApprovedForAll(owner, spender) */\n      tag_327\n        /* \"contracts/MyNFT_flattened.sol\":44314:44319  owner */\n      dup5\n        /* \"contracts/MyNFT_flattened.sol\":44321:44328  spender */\n      dup5\n        /* \"contracts/MyNFT_flattened.sol\":44297:44313  isApprovedForAll */\n      tag_107\n        /* \"contracts/MyNFT_flattened.sol\":44297:44329  isApprovedForAll(owner, spender) */\n      jump\t// in\n    tag_327:\n        /* \"contracts/MyNFT_flattened.sol\":44277:44329  owner == spender || isApprovedForAll(owner, spender) */\n    tag_326:\n        /* \"contracts/MyNFT_flattened.sol\":44277:44365  owner == spender || isApprovedForAll(owner, spender) || _getApproved(tokenId) == spender */\n      dup1\n      tag_328\n      jumpi\n      pop\n        /* \"contracts/MyNFT_flattened.sol\":44358:44365  spender */\n      dup3\n        /* \"contracts/MyNFT_flattened.sol\":44333:44365  _getApproved(tokenId) == spender */\n      0xffffffffffffffffffffffffffffffffffffffff\n      and\n        /* \"contracts/MyNFT_flattened.sol\":44333:44354  _getApproved(tokenId) */\n      tag_329\n        /* \"contracts/MyNFT_flattened.sol\":44346:44353  tokenId */\n      dup4\n        /* \"contracts/MyNFT_flattened.sol\":44333:44345  _getApproved */\n      tag_130\n        /* \"contracts/MyNFT_flattened.sol\":44333:44354  _getApproved(tokenId) */\n      jump\t// in\n    tag_329:\n        /* \"contracts/MyNFT_flattened.sol\":44333:44365  _getApproved(tokenId) == spender */\n      0xffffffffffffffffffffffffffffffffffffffff\n      and\n      eq\n        /* \"contracts/MyNFT_flattened.sol\":44277:44365  owner == spender || isApprovedForAll(owner, spender) || _getApproved(tokenId) == spender */\n    tag_328:\n        /* \"contracts/MyNFT_flattened.sol\":44239:44366  spender != address(0) &&... */\n    tag_325:\n        /* \"contracts/MyNFT_flattened.sol\":44220:44366  return... */\n      swap1\n      pop\n        /* \"contracts/MyNFT_flattened.sol\":44101:44373  function _isAuthorized(address owner, address spender, uint256 tokenId) internal view virtual returns (bool) {... */\n      swap4\n      swap3\n      pop\n      pop\n      pop\n      jump\t// out\n        /* \"#utility.yul\":7:82   */\n    tag_330:\n        /* \"#utility.yul\":40:46   */\n      0x00\n        /* \"#utility.yul\":73:75   */\n      0x40\n        /* \"#utility.yul\":67:76   */\n      mload\n        /* \"#utility.yul\":57:76   */\n      swap1\n      pop\n        /* \"#utility.yul\":7:82   */\n      swap1\n      jump\t// out\n        /* \"#utility.yul\":88:205   */\n    tag_331:\n        /* \"#utility.yul\":197:198   */\n      0x00\n        /* \"#utility.yul\":194:195   */\n      dup1\n        /* \"#utility.yul\":187:199   */\n      revert\n        /* \"#utility.yul\":211:328   */\n    tag_332:\n        /* \"#utility.yul\":320:321   */\n      0x00\n        /* \"#utility.yul\":317:318   */\n      dup1\n        /* \"#utility.yul\":310:322   */\n      revert\n        /* \"#utility.yul\":334:483   */\n    tag_333:\n        /* \"#utility.yul\":370:377   */\n      0x00\n        /* \"#utility.yul\":410:476   */\n      0xffffffff00000000000000000000000000000000000000000000000000000000\n        /* \"#utility.yul\":403:408   */\n      dup3\n        /* \"#utility.yul\":399:477   */\n      and\n        /* \"#utility.yul\":388:477   */\n      swap1\n      pop\n        /* \"#utility.yul\":334:483   */\n      swap2\n      swap1\n      pop\n      jump\t// out\n        /* \"#utility.yul\":489:609   */\n    tag_334:\n        /* \"#utility.yul\":561:584   */\n      tag_381\n        /* \"#utility.yul\":578:583   */\n      dup2\n        /* \"#utility.yul\":561:584   */\n      tag_333\n      jump\t// in\n    tag_381:\n        /* \"#utility.yul\":554:559   */\n      dup2\n        /* \"#utility.yul\":551:585   */\n      eq\n        /* \"#utility.yul\":541:603   */\n      tag_382\n      jumpi\n        /* \"#utility.yul\":599:600   */\n      0x00\n        /* \"#utility.yul\":596:597   */\n      dup1\n        /* \"#utility.yul\":589:601   */\n      revert\n        /* \"#utility.yul\":541:603   */\n    tag_382:\n        /* \"#utility.yul\":489:609   */\n      pop\n      jump\t// out\n        /* \"#utility.yul\":615:752   */\n    tag_335:\n        /* \"#utility.yul\":660:665   */\n      0x00\n        /* \"#utility.yul\":698:704   */\n      dup2\n        /* \"#utility.yul\":685:705   */\n      calldataload\n        /* \"#utility.yul\":676:705   */\n      swap1\n      pop\n        /* \"#utility.yul\":714:746   */\n      tag_384\n        /* \"#utility.yul\":740:745   */\n      dup2\n        /* \"#utility.yul\":714:746   */\n      tag_334\n      jump\t// in\n    tag_384:\n        /* \"#utility.yul\":615:752   */\n      swap3\n      swap2\n      pop\n      pop\n      jump\t// out\n        /* \"#utility.yul\":758:1085   */\n    tag_26:\n        /* \"#utility.yul\":816:822   */\n      0x00\n        /* \"#utility.yul\":865:867   */\n      0x20\n        /* \"#utility.yul\":853:862   */\n      dup3\n        /* \"#utility.yul\":844:851   */\n      dup5\n        /* \"#utility.yul\":840:863   */\n      sub\n        /* \"#utility.yul\":836:868   */\n      slt\n        /* \"#utility.yul\":833:952   */\n      iszero\n      tag_386\n      jumpi\n        /* \"#utility.yul\":871:950   */\n      tag_387\n      tag_331\n      jump\t// in\n    tag_387:\n        /* \"#utility.yul\":833:952   */\n    tag_386:\n        /* \"#utility.yul\":991:992   */\n      0x00\n        /* \"#utility.yul\":1016:1068   */\n      tag_388\n        /* \"#utility.yul\":1060:1067   */\n      dup5\n        /* \"#utility.yul\":1051:1057   */\n      dup3\n        /* \"#utility.yul\":1040:1049   */\n      dup6\n        /* \"#utility.yul\":1036:1058   */\n      add\n        /* \"#utility.yul\":1016:1068   */\n      tag_335\n      jump\t// in\n    tag_388:\n        /* \"#utility.yul\":1006:1068   */\n      swap2\n      pop\n        /* \"#utility.yul\":962:1078   */\n      pop\n        /* \"#utility.yul\":758:1085   */\n      swap3\n      swap2\n      pop\n      pop\n      jump\t// out\n        /* \"#utility.yul\":1091:1181   */\n    tag_336:\n        /* \"#utility.yul\":1125:1132   */\n      0x00\n        /* \"#utility.yul\":1168:1173   */\n      dup2\n        /* \"#utility.yul\":1161:1174   */\n      iszero\n        /* \"#utility.yul\":1154:1175   */\n      iszero\n        /* \"#utility.yul\":1143:1175   */\n      swap1\n      pop\n        /* \"#utility.yul\":1091:1181   */\n      swap2\n      swap1\n      pop\n      jump\t// out\n        /* \"#utility.yul\":1187:1296   */\n    tag_337:\n        /* \"#utility.yul\":1268:1289   */\n      tag_391\n        /* \"#utility.yul\":1283:1288   */\n      dup2\n        /* \"#utility.yul\":1268:1289   */\n      tag_336\n      jump\t// in\n    tag_391:\n        /* \"#utility.yul\":1263:1266   */\n      dup3\n        /* \"#utility.yul\":1256:1290   */\n      mstore\n        /* \"#utility.yul\":1187:1296   */\n      pop\n      pop\n      jump\t// out\n        /* \"#utility.yul\":1302:1512   */\n    tag_29:\n        /* \"#utility.yul\":1389:1393   */\n      0x00\n        /* \"#utility.yul\":1427:1429   */\n      0x20\n        /* \"#utility.yul\":1416:1425   */\n      dup3\n        /* \"#utility.yul\":1412:1430   */\n      add\n        /* \"#utility.yul\":1404:1430   */\n      swap1\n      pop\n        /* \"#utility.yul\":1440:1505   */\n      tag_393\n        /* \"#utility.yul\":1502:1503   */\n      0x00\n        /* \"#utility.yul\":1491:1500   */\n      dup4\n        /* \"#utility.yul\":1487:1504   */\n      add\n        /* \"#utility.yul\":1478:1484   */\n      dup5\n        /* \"#utility.yul\":1440:1505   */\n      tag_337\n      jump\t// in\n    tag_393:\n        /* \"#utility.yul\":1302:1512   */\n      swap3\n      swap2\n      pop\n      pop\n      jump\t// out\n        /* \"#utility.yul\":1518:1617   */\n    tag_338:\n        /* \"#utility.yul\":1570:1576   */\n      0x00\n        /* \"#utility.yul\":1604:1609   */\n      dup2\n        /* \"#utility.yul\":1598:1610   */\n      mload\n        /* \"#utility.yul\":1588:1610   */\n      swap1\n      pop\n        /* \"#utility.yul\":1518:1617   */\n      swap2\n      swap1\n      pop\n      jump\t// out\n        /* \"#utility.yul\":1623:1792   */\n    tag_339:\n        /* \"#utility.yul\":1707:1718   */\n      0x00\n        /* \"#utility.yul\":1741:1747   */\n      dup3\n        /* \"#utility.yul\":1736:1739   */\n      dup3\n        /* \"#utility.yul\":1729:1748   */\n      mstore\n        /* \"#utility.yul\":1781:1785   */\n      0x20\n        /* \"#utility.yul\":1776:1779   */\n      dup3\n        /* \"#utility.yul\":1772:1786   */\n      add\n        /* \"#utility.yul\":1757:1786   */\n      swap1\n      pop\n        /* \"#utility.yul\":1623:1792   */\n      swap3\n      swap2\n      pop\n      pop\n      jump\t// out\n        /* \"#utility.yul\":1798:2044   */\n    tag_340:\n        /* \"#utility.yul\":1879:1880   */\n      0x00\n        /* \"#utility.yul\":1889:2002   */\n    tag_397:\n        /* \"#utility.yul\":1903:1909   */\n      dup4\n        /* \"#utility.yul\":1900:1901   */\n      dup2\n        /* \"#utility.yul\":1897:1910   */\n      lt\n        /* \"#utility.yul\":1889:2002   */\n      iszero\n      tag_399\n      jumpi\n        /* \"#utility.yul\":1988:1989   */\n      dup1\n        /* \"#utility.yul\":1983:1986   */\n      dup3\n        /* \"#utility.yul\":1979:1990   */\n      add\n        /* \"#utility.yul\":1973:1991   */\n      mload\n        /* \"#utility.yul\":1969:1970   */\n      dup2\n        /* \"#utility.yul\":1964:1967   */\n      dup5\n        /* \"#utility.yul\":1960:1971   */\n      add\n        /* \"#utility.yul\":1953:1992   */\n      mstore\n        /* \"#utility.yul\":1925:1927   */\n      0x20\n        /* \"#utility.yul\":1922:1923   */\n      dup2\n        /* \"#utility.yul\":1918:1928   */\n      add\n        /* \"#utility.yul\":1913:1928   */\n      swap1\n      pop\n        /* \"#utility.yul\":1889:2002   */\n      jump(tag_397)\n    tag_399:\n        /* \"#utility.yul\":2036:2037   */\n      0x00\n        /* \"#utility.yul\":2027:2033   */\n      dup5\n        /* \"#utility.yul\":2022:2025   */\n      dup5\n        /* \"#utility.yul\":2018:2034   */\n      add\n        /* \"#utility.yul\":2011:2038   */\n      mstore\n        /* \"#utility.yul\":1860:2044   */\n      pop\n        /* \"#utility.yul\":1798:2044   */\n      pop\n      pop\n      pop\n      jump\t// out\n        /* \"#utility.yul\":2050:2152   */\n    tag_341:\n        /* \"#utility.yul\":2091:2097   */\n      0x00\n        /* \"#utility.yul\":2142:2144   */\n      0x1f\n        /* \"#utility.yul\":2138:2145   */\n      not\n        /* \"#utility.yul\":2133:2135   */\n      0x1f\n        /* \"#utility.yul\":2126:2131   */\n      dup4\n        /* \"#utility.yul\":2122:2136   */\n      add\n        /* \"#utility.yul\":2118:2146   */\n      and\n        /* \"#utility.yul\":2108:2146   */\n      swap1\n      pop\n        /* \"#utility.yul\":2050:2152   */\n      swap2\n      swap1\n      pop\n      jump\t// out\n        /* \"#utility.yul\":2158:2535   */\n    tag_342:\n        /* \"#utility.yul\":2246:2249   */\n      0x00\n        /* \"#utility.yul\":2274:2313   */\n      tag_402\n        /* \"#utility.yul\":2307:2312   */\n      dup3\n        /* \"#utility.yul\":2274:2313   */\n      tag_338\n      jump\t// in\n    tag_402:\n        /* \"#utility.yul\":2329:2400   */\n      tag_403\n        /* \"#utility.yul\":2393:2399   */\n      dup2\n        /* \"#utility.yul\":2388:2391   */\n      dup6\n        /* \"#utility.yul\":2329:2400   */\n      tag_339\n      jump\t// in\n    tag_403:\n        /* \"#utility.yul\":2322:2400   */\n      swap4\n      pop\n        /* \"#utility.yul\":2409:2474   */\n      tag_404\n        /* \"#utility.yul\":2467:2473   */\n      dup2\n        /* \"#utility.yul\":2462:2465   */\n      dup6\n        /* \"#utility.yul\":2455:2459   */\n      0x20\n        /* \"#utility.yul\":2448:2453   */\n      dup7\n        /* \"#utility.yul\":2444:2460   */\n      add\n        /* \"#utility.yul\":2409:2474   */\n      tag_340\n      jump\t// in\n    tag_404:\n        /* \"#utility.yul\":2499:2528   */\n      tag_405\n        /* \"#utility.yul\":2521:2527   */\n      dup2\n        /* \"#utility.yul\":2499:2528   */\n      tag_341\n      jump\t// in\n    tag_405:\n        /* \"#utility.yul\":2494:2497   */\n      dup5\n        /* \"#utility.yul\":2490:2529   */\n      add\n        /* \"#utility.yul\":2483:2529   */\n      swap2\n      pop\n        /* \"#utility.yul\":2250:2535   */\n      pop\n        /* \"#utility.yul\":2158:2535   */\n      swap3\n      swap2\n      pop\n      pop\n      jump\t// out\n        /* \"#utility.yul\":2541:2854   */\n    tag_34:\n        /* \"#utility.yul\":2654:2658   */\n      0x00\n        /* \"#utility.yul\":2692:2694   */\n      0x20\n        /* \"#utility.yul\":2681:2690   */\n      dup3\n        /* \"#utility.yul\":2677:2695   */\n      add\n        /* \"#utility.yul\":2669:2695   */\n      swap1\n      pop\n        /* \"#utility.yul\":2741:2750   */\n      dup2\n        /* \"#utility.yul\":2735:2739   */\n      dup2\n        /* \"#utility.yul\":2731:2751   */\n      sub\n        /* \"#utility.yul\":2727:2728   */\n      0x00\n        /* \"#utility.yul\":2716:2725   */\n      dup4\n        /* \"#utility.yul\":2712:2729   */\n      add\n        /* \"#utility.yul\":2705:2752   */\n      mstore\n        /* \"#utility.yul\":2769:2847   */\n      tag_407\n        /* \"#utility.yul\":2842:2846   */\n      dup2\n        /* \"#utility.yul\":2833:2839   */\n      dup5\n        /* \"#utility.yul\":2769:2847   */\n      tag_342\n      jump\t// in\n    tag_407:\n        /* \"#utility.yul\":2761:2847   */\n      swap1\n      pop\n        /* \"#utility.yul\":2541:2854   */\n      swap3\n      swap2\n      pop\n      pop\n      jump\t// out\n        /* \"#utility.yul\":2860:2937   */\n    tag_343:\n        /* \"#utility.yul\":2897:2904   */\n      0x00\n        /* \"#utility.yul\":2926:2931   */\n      dup2\n        /* \"#utility.yul\":2915:2931   */\n      swap1\n      pop\n        /* \"#utility.yul\":2860:2937   */\n      swap2\n      swap1\n      pop\n      jump\t// out\n        /* \"#utility.yul\":2943:3065   */\n    tag_344:\n        /* \"#utility.yul\":3016:3040   */\n      tag_410\n        /* \"#utility.yul\":3034:3039   */\n      dup2\n        /* \"#utility.yul\":3016:3040   */\n      tag_343\n      jump\t// in\n    tag_410:\n        /* \"#utility.yul\":3009:3014   */\n      dup2\n        /* \"#utility.yul\":3006:3041   */\n      eq\n        /* \"#utility.yul\":2996:3059   */\n      tag_411\n      jumpi\n        /* \"#utility.yul\":3055:3056   */\n      0x00\n        /* \"#utility.yul\":3052:3053   */\n      dup1\n        /* \"#utility.yul\":3045:3057   */\n      revert\n        /* \"#utility.yul\":2996:3059   */\n    tag_411:\n        /* \"#utility.yul\":2943:3065   */\n      pop\n      jump\t// out\n        /* \"#utility.yul\":3071:3210   */\n    tag_345:\n        /* \"#utility.yul\":3117:3122   */\n      0x00\n        /* \"#utility.yul\":3155:3161   */\n      dup2\n        /* \"#utility.yul\":3142:3162   */\n      calldataload\n        /* \"#utility.yul\":3133:3162   */\n      swap1\n      pop\n        /* \"#utility.yul\":3171:3204   */\n      tag_413\n        /* \"#utility.yul\":3198:3203   */\n      dup2\n        /* \"#utility.yul\":3171:3204   */\n      tag_344\n      jump\t// in\n    tag_413:\n        /* \"#utility.yul\":3071:3210   */\n      swap3\n      swap2\n      pop\n      pop\n      jump\t// out\n        /* \"#utility.yul\":3216:3545   */\n    tag_38:\n        /* \"#utility.yul\":3275:3281   */\n      0x00\n        /* \"#utility.yul\":3324:3326   */\n      0x20\n        /* \"#utility.yul\":3312:3321   */\n      dup3\n        /* \"#utility.yul\":3303:3310   */\n      dup5\n        /* \"#utility.yul\":3299:3322   */\n      sub\n        /* \"#utility.yul\":3295:3327   */\n      slt\n        /* \"#utility.yul\":3292:3411   */\n      iszero\n      tag_415\n      jumpi\n        /* \"#utility.yul\":3330:3409   */\n      tag_416\n      tag_331\n      jump\t// in\n    tag_416:\n        /* \"#utility.yul\":3292:3411   */\n    tag_415:\n        /* \"#utility.yul\":3450:3451   */\n      0x00\n        /* \"#utility.yul\":3475:3528   */\n      tag_417\n        /* \"#utility.yul\":3520:3527   */\n      dup5\n        /* \"#utility.yul\":3511:3517   */\n      dup3\n        /* \"#utility.yul\":3500:3509   */\n      dup6\n        /* \"#utility.yul\":3496:3518   */\n      add\n        /* \"#utility.yul\":3475:3528   */\n      tag_345\n      jump\t// in\n    tag_417:\n        /* \"#utility.yul\":3465:3528   */\n      swap2\n      pop\n        /* \"#utility.yul\":3421:3538   */\n      pop\n        /* \"#utility.yul\":3216:3545   */\n      swap3\n      swap2\n      pop\n      pop\n      jump\t// out\n        /* \"#utility.yul\":3551:3677   */\n    tag_346:\n        /* \"#utility.yul\":3588:3595   */\n      0x00\n        /* \"#utility.yul\":3628:3670   */\n      0xffffffffffffffffffffffffffffffffffffffff\n        /* \"#utility.yul\":3621:3626   */\n      dup3\n        /* \"#utility.yul\":3617:3671   */\n      and\n        /* \"#utility.yul\":3606:3671   */\n      swap1\n      pop\n        /* \"#utility.yul\":3551:3677   */\n      swap2\n      swap1\n      pop\n      jump\t// out\n        /* \"#utility.yul\":3683:3779   */\n    tag_347:\n        /* \"#utility.yul\":3720:3727   */\n      0x00\n        /* \"#utility.yul\":3749:3773   */\n      tag_420\n        /* \"#utility.yul\":3767:3772   */\n      dup3\n        /* \"#utility.yul\":3749:3773   */\n      tag_346\n      jump\t// in\n    tag_420:\n        /* \"#utility.yul\":3738:3773   */\n      swap1\n      pop\n        /* \"#utility.yul\":3683:3779   */\n      swap2\n      swap1\n      pop\n      jump\t// out\n        /* \"#utility.yul\":3785:3903   */\n    tag_348:\n        /* \"#utility.yul\":3872:3896   */\n      tag_422\n        /* \"#utility.yul\":3890:3895   */\n      dup2\n        /* \"#utility.yul\":3872:3896   */\n      tag_347\n      jump\t// in\n    tag_422:\n        /* \"#utility.yul\":3867:3870   */\n      dup3\n        /* \"#utility.yul\":3860:3897   */\n      mstore\n        /* \"#utility.yul\":3785:3903   */\n      pop\n      pop\n      jump\t// out\n        /* \"#utility.yul\":3909:4131   */\n    tag_41:\n        /* \"#utility.yul\":4002:4006   */\n      0x00\n        /* \"#utility.yul\":4040:4042   */\n      0x20\n        /* \"#utility.yul\":4029:4038   */\n      dup3\n        /* \"#utility.yul\":4025:4043   */\n      add\n        /* \"#utility.yul\":4017:4043   */\n      swap1\n      pop\n        /* \"#utility.yul\":4053:4124   */\n      tag_424\n        /* \"#utility.yul\":4121:4122   */\n      0x00\n        /* \"#utility.yul\":4110:4119   */\n      dup4\n        /* \"#utility.yul\":4106:4123   */\n      add\n        /* \"#utility.yul\":4097:4103   */\n      dup5\n        /* \"#utility.yul\":4053:4124   */\n      tag_348\n      jump\t// in\n    tag_424:\n        /* \"#utility.yul\":3909:4131   */\n      swap3\n      swap2\n      pop\n      pop\n      jump\t// out\n        /* \"#utility.yul\":4137:4259   */\n    tag_349:\n        /* \"#utility.yul\":4210:4234   */\n      tag_426\n        /* \"#utility.yul\":4228:4233   */\n      dup2\n        /* \"#utility.yul\":4210:4234   */\n      tag_347\n      jump\t// in\n    tag_426:\n        /* \"#utility.yul\":4203:4208   */\n      dup2\n        /* \"#utility.yul\":4200:4235   */\n      eq\n        /* \"#utility.yul\":4190:4253   */\n      tag_427\n      jumpi\n        /* \"#utility.yul\":4249:4250   */\n      0x00\n        /* \"#utility.yul\":4246:4247   */\n      dup1\n        /* \"#utility.yul\":4239:4251   */\n      revert\n        /* \"#utility.yul\":4190:4253   */\n    tag_427:\n        /* \"#utility.yul\":4137:4259   */\n      pop\n      jump\t// out\n        /* \"#utility.yul\":4265:4404   */\n    tag_350:\n        /* \"#utility.yul\":4311:4316   */\n      0x00\n        /* \"#utility.yul\":4349:4355   */\n      dup2\n        /* \"#utility.yul\":4336:4356   */\n      calldataload\n        /* \"#utility.yul\":4327:4356   */\n      swap1\n      pop\n        /* \"#utility.yul\":4365:4398   */\n      tag_429\n        /* \"#utility.yul\":4392:4397   */\n      dup2\n        /* \"#utility.yul\":4365:4398   */\n      tag_349\n      jump\t// in\n    tag_429:\n        /* \"#utility.yul\":4265:4404   */\n      swap3\n      swap2\n      pop\n      pop\n      jump\t// out\n        /* \"#utility.yul\":4410:4884   */\n    tag_45:\n        /* \"#utility.yul\":4478:4484   */\n      0x00\n        /* \"#utility.yul\":4486:4492   */\n      dup1\n        /* \"#utility.yul\":4535:4537   */\n      0x40\n        /* \"#utility.yul\":4523:4532   */\n      dup4\n        /* \"#utility.yul\":4514:4521   */\n      dup6\n        /* \"#utility.yul\":4510:4533   */\n      sub\n        /* \"#utility.yul\":4506:4538   */\n      slt\n        /* \"#utility.yul\":4503:4622   */\n      iszero\n      tag_431\n      jumpi\n        /* \"#utility.yul\":4541:4620   */\n      tag_432\n      tag_331\n      jump\t// in\n    tag_432:\n        /* \"#utility.yul\":4503:4622   */\n    tag_431:\n        /* \"#utility.yul\":4661:4662   */\n      0x00\n        /* \"#utility.yul\":4686:4739   */\n      tag_433\n        /* \"#utility.yul\":4731:4738   */\n      dup6\n        /* \"#utility.yul\":4722:4728   */\n      dup3\n        /* \"#utility.yul\":4711:4720   */\n      dup7\n        /* \"#utility.yul\":4707:4729   */\n      add\n        /* \"#utility.yul\":4686:4739   */\n      tag_350\n      jump\t// in\n    tag_433:\n        /* \"#utility.yul\":4676:4739   */\n      swap3\n      pop\n        /* \"#utility.yul\":4632:4749   */\n      pop\n        /* \"#utility.yul\":4788:4790   */\n      0x20\n        /* \"#utility.yul\":4814:4867   */\n      tag_434\n        /* \"#utility.yul\":4859:4866   */\n      dup6\n        /* \"#utility.yul\":4850:4856   */\n      dup3\n        /* \"#utility.yul\":4839:4848   */\n      dup7\n        /* \"#utility.yul\":4835:4857   */\n      add\n        /* \"#utility.yul\":4814:4867   */\n      tag_345\n      jump\t// in\n    tag_434:\n        /* \"#utility.yul\":4804:4867   */\n      swap2\n      pop\n        /* \"#utility.yul\":4759:4877   */\n      pop\n        /* \"#utility.yul\":4410:4884   */\n      swap3\n      pop\n      swap3\n      swap1\n      pop\n      jump\t// out\n        /* \"#utility.yul\":4890:5509   */\n    tag_50:\n        /* \"#utility.yul\":4967:4973   */\n      0x00\n        /* \"#utility.yul\":4975:4981   */\n      dup1\n        /* \"#utility.yul\":4983:4989   */\n      0x00\n        /* \"#utility.yul\":5032:5034   */\n      0x60\n        /* \"#utility.yul\":5020:5029   */\n      dup5\n        /* \"#utility.yul\":5011:5018   */\n      dup7\n        /* \"#utility.yul\":5007:5030   */\n      sub\n        /* \"#utility.yul\":5003:5035   */\n      slt\n        /* \"#utility.yul\":5000:5119   */\n      iszero\n      tag_436\n      jumpi\n        /* \"#utility.yul\":5038:5117   */\n      tag_437\n      tag_331\n      jump\t// in\n    tag_437:\n        /* \"#utility.yul\":5000:5119   */\n    tag_436:\n        /* \"#utility.yul\":5158:5159   */\n      0x00\n        /* \"#utility.yul\":5183:5236   */\n      tag_438\n        /* \"#utility.yul\":5228:5235   */\n      dup7\n        /* \"#utility.yul\":5219:5225   */\n      dup3\n        /* \"#utility.yul\":5208:5217   */\n      dup8\n        /* \"#utility.yul\":5204:5226   */\n      add\n        /* \"#utility.yul\":5183:5236   */\n      tag_350\n      jump\t// in\n    tag_438:\n        /* \"#utility.yul\":5173:5236   */\n      swap4\n      pop\n        /* \"#utility.yul\":5129:5246   */\n      pop\n        /* \"#utility.yul\":5285:5287   */\n      0x20\n        /* \"#utility.yul\":5311:5364   */\n      tag_439\n        /* \"#utility.yul\":5356:5363   */\n      dup7\n        /* \"#utility.yul\":5347:5353   */\n      dup3\n        /* \"#utility.yul\":5336:5345   */\n      dup8\n        /* \"#utility.yul\":5332:5354   */\n      add\n        /* \"#utility.yul\":5311:5364   */\n      tag_350\n      jump\t// in\n    tag_439:\n        /* \"#utility.yul\":5301:5364   */\n      swap3\n      pop\n        /* \"#utility.yul\":5256:5374   */\n      pop\n        /* \"#utility.yul\":5413:5415   */\n      0x40\n        /* \"#utility.yul\":5439:5492   */\n      tag_440\n        /* \"#utility.yul\":5484:5491   */\n      dup7\n        /* \"#utility.yul\":5475:5481   */\n      dup3\n        /* \"#utility.yul\":5464:5473   */\n      dup8\n        /* \"#utility.yul\":5460:5482   */\n      add\n        /* \"#utility.yul\":5439:5492   */\n      tag_345\n      jump\t// in\n    tag_440:\n        /* \"#utility.yul\":5429:5492   */\n      swap2\n      pop\n        /* \"#utility.yul\":5384:5502   */\n      pop\n        /* \"#utility.yul\":4890:5509   */\n      swap3\n      pop\n      swap3\n      pop\n      swap3\n      jump\t// out\n        /* \"#utility.yul\":5515:5633   */\n    tag_351:\n        /* \"#utility.yul\":5602:5626   */\n      tag_442\n        /* \"#utility.yul\":5620:5625   */\n      dup2\n        /* \"#utility.yul\":5602:5626   */\n      tag_343\n      jump\t// in\n    tag_442:\n        /* \"#utility.yul\":5597:5600   */\n      dup3\n        /* \"#utility.yul\":5590:5627   */\n      mstore\n        /* \"#utility.yul\":5515:5633   */\n      pop\n      pop\n      jump\t// out\n        /* \"#utility.yul\":5639:5861   */\n    tag_61:\n        /* \"#utility.yul\":5732:5736   */\n      0x00\n        /* \"#utility.yul\":5770:5772   */\n      0x20\n        /* \"#utility.yul\":5759:5768   */\n      dup3\n        /* \"#utility.yul\":5755:5773   */\n      add\n        /* \"#utility.yul\":5747:5773   */\n      swap1\n      pop\n        /* \"#utility.yul\":5783:5854   */\n      tag_444\n        /* \"#utility.yul\":5851:5852   */\n      0x00\n        /* \"#utility.yul\":5840:5849   */\n      dup4\n        /* \"#utility.yul\":5836:5853   */\n      add\n        /* \"#utility.yul\":5827:5833   */\n      dup5\n        /* \"#utility.yul\":5783:5854   */\n      tag_351\n      jump\t// in\n    tag_444:\n        /* \"#utility.yul\":5639:5861   */\n      swap3\n      swap2\n      pop\n      pop\n      jump\t// out\n        /* \"#utility.yul\":5867:6196   */\n    tag_74:\n        /* \"#utility.yul\":5926:5932   */\n      0x00\n        /* \"#utility.yul\":5975:5977   */\n      0x20\n        /* \"#utility.yul\":5963:5972   */\n      dup3\n        /* \"#utility.yul\":5954:5961   */\n      dup5\n        /* \"#utility.yul\":5950:5973   */\n      sub\n        /* \"#utility.yul\":5946:5978   */\n      slt\n        /* \"#utility.yul\":5943:6062   */\n      iszero\n      tag_446\n      jumpi\n        /* \"#utility.yul\":5981:6060   */\n      tag_447\n      tag_331\n      jump\t// in\n    tag_447:\n        /* \"#utility.yul\":5943:6062   */\n    tag_446:\n        /* \"#utility.yul\":6101:6102   */\n      0x00\n        /* \"#utility.yul\":6126:6179   */\n      tag_448\n        /* \"#utility.yul\":6171:6178   */\n      dup5\n        /* \"#utility.yul\":6162:6168   */\n      dup3\n        /* \"#utility.yul\":6151:6160   */\n      dup6\n        /* \"#utility.yul\":6147:6169   */\n      add\n        /* \"#utility.yul\":6126:6179   */\n      tag_350\n      jump\t// in\n    tag_448:\n        /* \"#utility.yul\":6116:6179   */\n      swap2\n      pop\n        /* \"#utility.yul\":6072:6189   */\n      pop\n        /* \"#utility.yul\":5867:6196   */\n      swap3\n      swap2\n      pop\n      pop\n      jump\t// out\n        /* \"#utility.yul\":6202:6318   */\n    tag_352:\n        /* \"#utility.yul\":6272:6293   */\n      tag_450\n        /* \"#utility.yul\":6287:6292   */\n      dup2\n        /* \"#utility.yul\":6272:6293   */\n      tag_336\n      jump\t// in\n    tag_450:\n        /* \"#utility.yul\":6265:6270   */\n      dup2\n        /* \"#utility.yul\":6262:6294   */\n      eq\n        /* \"#utility.yul\":6252:6312   */\n      tag_451\n      jumpi\n        /* \"#utility.yul\":6308:6309   */\n      0x00\n        /* \"#utility.yul\":6305:6306   */\n      dup1\n        /* \"#utility.yul\":6298:6310   */\n      revert\n        /* \"#utility.yul\":6252:6312   */\n    tag_451:\n        /* \"#utility.yul\":6202:6318   */\n      pop\n      jump\t// out\n        /* \"#utility.yul\":6324:6457   */\n    tag_353:\n        /* \"#utility.yul\":6367:6372   */\n      0x00\n        /* \"#utility.yul\":6405:6411   */\n      dup2\n        /* \"#utility.yul\":6392:6412   */\n      calldataload\n        /* \"#utility.yul\":6383:6412   */\n      swap1\n      pop\n        /* \"#utility.yul\":6421:6451   */\n      tag_453\n        /* \"#utility.yul\":6445:6450   */\n      dup2\n        /* \"#utility.yul\":6421:6451   */\n      tag_352\n      jump\t// in\n    tag_453:\n        /* \"#utility.yul\":6324:6457   */\n      swap3\n      swap2\n      pop\n      pop\n      jump\t// out\n        /* \"#utility.yul\":6463:6931   */\n    tag_88:\n        /* \"#utility.yul\":6528:6534   */\n      0x00\n        /* \"#utility.yul\":6536:6542   */\n      dup1\n        /* \"#utility.yul\":6585:6587   */\n      0x40\n        /* \"#utility.yul\":6573:6582   */\n      dup4\n        /* \"#utility.yul\":6564:6571   */\n      dup6\n        /* \"#utility.yul\":6560:6583   */\n      sub\n        /* \"#utility.yul\":6556:6588   */\n      slt\n        /* \"#utility.yul\":6553:6672   */\n      iszero\n      tag_455\n      jumpi\n        /* \"#utility.yul\":6591:6670   */\n      tag_456\n      tag_331\n      jump\t// in\n    tag_456:\n        /* \"#utility.yul\":6553:6672   */\n    tag_455:\n        /* \"#utility.yul\":6711:6712   */\n      0x00\n        /* \"#utility.yul\":6736:6789   */\n      tag_457\n        /* \"#utility.yul\":6781:6788   */\n      dup6\n        /* \"#utility.yul\":6772:6778   */\n      dup3\n        /* \"#utility.yul\":6761:6770   */\n      dup7\n        /* \"#utility.yul\":6757:6779   */\n      add\n        /* \"#utility.yul\":6736:6789   */\n      tag_350\n      jump\t// in\n    tag_457:\n        /* \"#utility.yul\":6726:6789   */\n      swap3\n      pop\n        /* \"#utility.yul\":6682:6799   */\n      pop\n        /* \"#utility.yul\":6838:6840   */\n      0x20\n        /* \"#utility.yul\":6864:6914   */\n      tag_458\n        /* \"#utility.yul\":6906:6913   */\n      dup6\n        /* \"#utility.yul\":6897:6903   */\n      dup3\n        /* \"#utility.yul\":6886:6895   */\n      dup7\n        /* \"#utility.yul\":6882:6904   */\n      add\n        /* \"#utility.yul\":6864:6914   */\n      tag_353\n      jump\t// in\n    tag_458:\n        /* \"#utility.yul\":6854:6914   */\n      swap2\n      pop\n        /* \"#utility.yul\":6809:6924   */\n      pop\n        /* \"#utility.yul\":6463:6931   */\n      swap3\n      pop\n      swap3\n      swap1\n      pop\n      jump\t// out\n        /* \"#utility.yul\":6937:7054   */\n    tag_354:\n        /* \"#utility.yul\":7046:7047   */\n      0x00\n        /* \"#utility.yul\":7043:7044   */\n      dup1\n        /* \"#utility.yul\":7036:7048   */\n      revert\n        /* \"#utility.yul\":7060:7177   */\n    tag_355:\n        /* \"#utility.yul\":7169:7170   */\n      0x00\n        /* \"#utility.yul\":7166:7167   */\n      dup1\n        /* \"#utility.yul\":7159:7171   */\n      revert\n        /* \"#utility.yul\":7183:7363   */\n    tag_266:\n        /* \"#utility.yul\":7231:7308   */\n      0x4e487b7100000000000000000000000000000000000000000000000000000000\n        /* \"#utility.yul\":7228:7229   */\n      0x00\n        /* \"#utility.yul\":7221:7309   */\n      mstore\n        /* \"#utility.yul\":7328:7332   */\n      0x41\n        /* \"#utility.yul\":7325:7326   */\n      0x04\n        /* \"#utility.yul\":7318:7333   */\n      mstore\n        /* \"#utility.yul\":7352:7356   */\n      0x24\n        /* \"#utility.yul\":7349:7350   */\n      0x00\n        /* \"#utility.yul\":7342:7357   */\n      revert\n        /* \"#utility.yul\":7369:7650   */\n    tag_356:\n        /* \"#utility.yul\":7452:7479   */\n      tag_463\n        /* \"#utility.yul\":7474:7478   */\n      dup3\n        /* \"#utility.yul\":7452:7479   */\n      tag_341\n      jump\t// in\n    tag_463:\n        /* \"#utility.yul\":7444:7450   */\n      dup2\n        /* \"#utility.yul\":7440:7480   */\n      add\n        /* \"#utility.yul\":7582:7588   */\n      dup2\n        /* \"#utility.yul\":7570:7580   */\n      dup2\n        /* \"#utility.yul\":7567:7589   */\n      lt\n        /* \"#utility.yul\":7546:7564   */\n      0xffffffffffffffff\n        /* \"#utility.yul\":7534:7544   */\n      dup3\n        /* \"#utility.yul\":7531:7565   */\n      gt\n        /* \"#utility.yul\":7528:7590   */\n      or\n        /* \"#utility.yul\":7525:7613   */\n      iszero\n      tag_464\n      jumpi\n        /* \"#utility.yul\":7593:7611   */\n      tag_465\n      tag_266\n      jump\t// in\n    tag_465:\n        /* \"#utility.yul\":7525:7613   */\n    tag_464:\n        /* \"#utility.yul\":7633:7643   */\n      dup1\n        /* \"#utility.yul\":7629:7631   */\n      0x40\n        /* \"#utility.yul\":7622:7644   */\n      mstore\n        /* \"#utility.yul\":7412:7650   */\n      pop\n        /* \"#utility.yul\":7369:7650   */\n      pop\n      pop\n      jump\t// out\n        /* \"#utility.yul\":7656:7785   */\n    tag_357:\n        /* \"#utility.yul\":7690:7696   */\n      0x00\n        /* \"#utility.yul\":7717:7737   */\n      tag_467\n      tag_330\n      jump\t// in\n    tag_467:\n        /* \"#utility.yul\":7707:7737   */\n      swap1\n      pop\n        /* \"#utility.yul\":7746:7779   */\n      tag_468\n        /* \"#utility.yul\":7774:7778   */\n      dup3\n        /* \"#utility.yul\":7766:7772   */\n      dup3\n        /* \"#utility.yul\":7746:7779   */\n      tag_356\n      jump\t// in\n    tag_468:\n        /* \"#utility.yul\":7656:7785   */\n      swap2\n      swap1\n      pop\n      jump\t// out\n        /* \"#utility.yul\":7791:8098   */\n    tag_358:\n        /* \"#utility.yul\":7852:7856   */\n      0x00\n        /* \"#utility.yul\":7942:7960   */\n      0xffffffffffffffff\n        /* \"#utility.yul\":7934:7940   */\n      dup3\n        /* \"#utility.yul\":7931:7961   */\n      gt\n        /* \"#utility.yul\":7928:7984   */\n      iszero\n      tag_470\n      jumpi\n        /* \"#utility.yul\":7964:7982   */\n      tag_471\n      tag_266\n      jump\t// in\n    tag_471:\n        /* \"#utility.yul\":7928:7984   */\n    tag_470:\n        /* \"#utility.yul\":8002:8031   */\n      tag_472\n        /* \"#utility.yul\":8024:8030   */\n      dup3\n        /* \"#utility.yul\":8002:8031   */\n      tag_341\n      jump\t// in\n    tag_472:\n        /* \"#utility.yul\":7994:8031   */\n      swap1\n      pop\n        /* \"#utility.yul\":8086:8090   */\n      0x20\n        /* \"#utility.yul\":8080:8084   */\n      dup2\n        /* \"#utility.yul\":8076:8091   */\n      add\n        /* \"#utility.yul\":8068:8091   */\n      swap1\n      pop\n        /* \"#utility.yul\":7791:8098   */\n      swap2\n      swap1\n      pop\n      jump\t// out\n        /* \"#utility.yul\":8104:8250   */\n    tag_359:\n        /* \"#utility.yul\":8201:8207   */\n      dup3\n        /* \"#utility.yul\":8196:8199   */\n      dup2\n        /* \"#utility.yul\":8191:8194   */\n      dup4\n        /* \"#utility.yul\":8178:8208   */\n      calldatacopy\n        /* \"#utility.yul\":8242:8243   */\n      0x00\n        /* \"#utility.yul\":8233:8239   */\n      dup4\n        /* \"#utility.yul\":8228:8231   */\n      dup4\n        /* \"#utility.yul\":8224:8240   */\n      add\n        /* \"#utility.yul\":8217:8244   */\n      mstore\n        /* \"#utility.yul\":8104:8250   */\n      pop\n      pop\n      pop\n      jump\t// out\n        /* \"#utility.yul\":8256:8679   */\n    tag_360:\n        /* \"#utility.yul\":8333:8338   */\n      0x00\n        /* \"#utility.yul\":8358:8423   */\n      tag_475\n        /* \"#utility.yul\":8374:8422   */\n      tag_476\n        /* \"#utility.yul\":8415:8421   */\n      dup5\n        /* \"#utility.yul\":8374:8422   */\n      tag_358\n      jump\t// in\n    tag_476:\n        /* \"#utility.yul\":8358:8423   */\n      tag_357\n      jump\t// in\n    tag_475:\n        /* \"#utility.yul\":8349:8423   */\n      swap1\n      pop\n        /* \"#utility.yul\":8446:8452   */\n      dup3\n        /* \"#utility.yul\":8439:8444   */\n      dup2\n        /* \"#utility.yul\":8432:8453   */\n      mstore\n        /* \"#utility.yul\":8484:8488   */\n      0x20\n        /* \"#utility.yul\":8477:8482   */\n      dup2\n        /* \"#utility.yul\":8473:8489   */\n      add\n        /* \"#utility.yul\":8522:8525   */\n      dup5\n        /* \"#utility.yul\":8513:8519   */\n      dup5\n        /* \"#utility.yul\":8508:8511   */\n      dup5\n        /* \"#utility.yul\":8504:8520   */\n      add\n        /* \"#utility.yul\":8501:8526   */\n      gt\n        /* \"#utility.yul\":8498:8610   */\n      iszero\n      tag_477\n      jumpi\n        /* \"#utility.yul\":8529:8608   */\n      tag_478\n      tag_355\n      jump\t// in\n    tag_478:\n        /* \"#utility.yul\":8498:8610   */\n    tag_477:\n        /* \"#utility.yul\":8619:8673   */\n      tag_479\n        /* \"#utility.yul\":8666:8672   */\n      dup5\n        /* \"#utility.yul\":8661:8664   */\n      dup3\n        /* \"#utility.yul\":8656:8659   */\n      dup6\n        /* \"#utility.yul\":8619:8673   */\n      tag_359\n      jump\t// in\n    tag_479:\n        /* \"#utility.yul\":8339:8679   */\n      pop\n        /* \"#utility.yul\":8256:8679   */\n      swap4\n      swap3\n      pop\n      pop\n      pop\n      jump\t// out\n        /* \"#utility.yul\":8698:9036   */\n    tag_361:\n        /* \"#utility.yul\":8753:8758   */\n      0x00\n        /* \"#utility.yul\":8802:8805   */\n      dup3\n        /* \"#utility.yul\":8795:8799   */\n      0x1f\n        /* \"#utility.yul\":8787:8793   */\n      dup4\n        /* \"#utility.yul\":8783:8800   */\n      add\n        /* \"#utility.yul\":8779:8806   */\n      slt\n        /* \"#utility.yul\":8769:8891   */\n      tag_481\n      jumpi\n        /* \"#utility.yul\":8810:8889   */\n      tag_482\n      tag_354\n      jump\t// in\n    tag_482:\n        /* \"#utility.yul\":8769:8891   */\n    tag_481:\n        /* \"#utility.yul\":8927:8933   */\n      dup2\n        /* \"#utility.yul\":8914:8934   */\n      calldataload\n        /* \"#utility.yul\":8952:9030   */\n      tag_483\n        /* \"#utility.yul\":9026:9029   */\n      dup5\n        /* \"#utility.yul\":9018:9024   */\n      dup3\n        /* \"#utility.yul\":9011:9015   */\n      0x20\n        /* \"#utility.yul\":9003:9009   */\n      dup7\n        /* \"#utility.yul\":8999:9016   */\n      add\n        /* \"#utility.yul\":8952:9030   */\n      tag_360\n      jump\t// in\n    tag_483:\n        /* \"#utility.yul\":8943:9030   */\n      swap2\n      pop\n        /* \"#utility.yul\":8759:9036   */\n      pop\n        /* \"#utility.yul\":8698:9036   */\n      swap3\n      swap2\n      pop\n      pop\n      jump\t// out\n        /* \"#utility.yul\":9042:9985   */\n    tag_93:\n        /* \"#utility.yul\":9137:9143   */\n      0x00\n        /* \"#utility.yul\":9145:9151   */\n      dup1\n        /* \"#utility.yul\":9153:9159   */\n      0x00\n        /* \"#utility.yul\":9161:9167   */\n      dup1\n        /* \"#utility.yul\":9210:9213   */\n      0x80\n        /* \"#utility.yul\":9198:9207   */\n      dup6\n        /* \"#utility.yul\":9189:9196   */\n      dup8\n        /* \"#utility.yul\":9185:9208   */\n      sub\n        /* \"#utility.yul\":9181:9214   */\n      slt\n        /* \"#utility.yul\":9178:9298   */\n      iszero\n      tag_485\n      jumpi\n        /* \"#utility.yul\":9217:9296   */\n      tag_486\n      tag_331\n      jump\t// in\n    tag_486:\n        /* \"#utility.yul\":9178:9298   */\n    tag_485:\n        /* \"#utility.yul\":9337:9338   */\n      0x00\n        /* \"#utility.yul\":9362:9415   */\n      tag_487\n        /* \"#utility.yul\":9407:9414   */\n      dup8\n        /* \"#utility.yul\":9398:9404   */\n      dup3\n        /* \"#utility.yul\":9387:9396   */\n      dup9\n        /* \"#utility.yul\":9383:9405   */\n      add\n        /* \"#utility.yul\":9362:9415   */\n      tag_350\n      jump\t// in\n    tag_487:\n        /* \"#utility.yul\":9352:9415   */\n      swap5\n      pop\n        /* \"#utility.yul\":9308:9425   */\n      pop\n        /* \"#utility.yul\":9464:9466   */\n      0x20\n        /* \"#utility.yul\":9490:9543   */\n      tag_488\n        /* \"#utility.yul\":9535:9542   */\n      dup8\n        /* \"#utility.yul\":9526:9532   */\n      dup3\n        /* \"#utility.yul\":9515:9524   */\n      dup9\n        /* \"#utility.yul\":9511:9533   */\n      add\n        /* \"#utility.yul\":9490:9543   */\n      tag_350\n      jump\t// in\n    tag_488:\n        /* \"#utility.yul\":9480:9543   */\n      swap4\n      pop\n        /* \"#utility.yul\":9435:9553   */\n      pop\n        /* \"#utility.yul\":9592:9594   */\n      0x40\n        /* \"#utility.yul\":9618:9671   */\n      tag_489\n        /* \"#utility.yul\":9663:9670   */\n      dup8\n        /* \"#utility.yul\":9654:9660   */\n      dup3\n        /* \"#utility.yul\":9643:9652   */\n      dup9\n        /* \"#utility.yul\":9639:9661   */\n      add\n        /* \"#utility.yul\":9618:9671   */\n      tag_345\n      jump\t// in\n    tag_489:\n        /* \"#utility.yul\":9608:9671   */\n      swap3\n      pop\n        /* \"#utility.yul\":9563:9681   */\n      pop\n        /* \"#utility.yul\":9748:9750   */\n      0x60\n        /* \"#utility.yul\":9737:9746   */\n      dup6\n        /* \"#utility.yul\":9733:9751   */\n      add\n        /* \"#utility.yul\":9720:9752   */\n      calldataload\n        /* \"#utility.yul\":9779:9797   */\n      0xffffffffffffffff\n        /* \"#utility.yul\":9771:9777   */\n      dup2\n        /* \"#utility.yul\":9768:9798   */\n      gt\n        /* \"#utility.yul\":9765:9882   */\n      iszero\n      tag_490\n      jumpi\n        /* \"#utility.yul\":9801:9880   */\n      tag_491\n      tag_332\n      jump\t// in\n    tag_491:\n        /* \"#utility.yul\":9765:9882   */\n    tag_490:\n        /* \"#utility.yul\":9906:9968   */\n      tag_492\n        /* \"#utility.yul\":9960:9967   */\n      dup8\n        /* \"#utility.yul\":9951:9957   */\n      dup3\n        /* \"#utility.yul\":9940:9949   */\n      dup9\n        /* \"#utility.yul\":9936:9958   */\n      add\n        /* \"#utility.yul\":9906:9968   */\n      tag_361\n      jump\t// in\n    tag_492:\n        /* \"#utility.yul\":9896:9968   */\n      swap2\n      pop\n        /* \"#utility.yul\":9691:9978   */\n      pop\n        /* \"#utility.yul\":9042:9985   */\n      swap3\n      swap6\n      swap2\n      swap5\n      pop\n      swap3\n      pop\n      jump\t// out\n        /* \"#utility.yul\":9991:10465   */\n    tag_106:\n        /* \"#utility.yul\":10059:10065   */\n      0x00\n        /* \"#utility.yul\":10067:10073   */\n      dup1\n        /* \"#utility.yul\":10116:10118   */\n      0x40\n        /* \"#utility.yul\":10104:10113   */\n      dup4\n        /* \"#utility.yul\":10095:10102   */\n      dup6\n        /* \"#utility.yul\":10091:10114   */\n      sub\n        /* \"#utility.yul\":10087:10119   */\n      slt\n        /* \"#utility.yul\":10084:10203   */\n      iszero\n      tag_494\n      jumpi\n        /* \"#utility.yul\":10122:10201   */\n      tag_495\n      tag_331\n      jump\t// in\n    tag_495:\n        /* \"#utility.yul\":10084:10203   */\n    tag_494:\n        /* \"#utility.yul\":10242:10243   */\n      0x00\n        /* \"#utility.yul\":10267:10320   */\n      tag_496\n        /* \"#utility.yul\":10312:10319   */\n      dup6\n        /* \"#utility.yul\":10303:10309   */\n      dup3\n        /* \"#utility.yul\":10292:10301   */\n      dup7\n        /* \"#utility.yul\":10288:10310   */\n      add\n        /* \"#utility.yul\":10267:10320   */\n      tag_350\n      jump\t// in\n    tag_496:\n        /* \"#utility.yul\":10257:10320   */\n      swap3\n      pop\n        /* \"#utility.yul\":10213:10330   */\n      pop\n        /* \"#utility.yul\":10369:10371   */\n      0x20\n        /* \"#utility.yul\":10395:10448   */\n      tag_497\n        /* \"#utility.yul\":10440:10447   */\n      dup6\n        /* \"#utility.yul\":10431:10437   */\n      dup3\n        /* \"#utility.yul\":10420:10429   */\n      dup7\n        /* \"#utility.yul\":10416:10438   */\n      add\n        /* \"#utility.yul\":10395:10448   */\n      tag_350\n      jump\t// in\n    tag_497:\n        /* \"#utility.yul\":10385:10448   */\n      swap2\n      pop\n        /* \"#utility.yul\":10340:10458   */\n      pop\n        /* \"#utility.yul\":9991:10465   */\n      swap3\n      pop\n      swap3\n      swap1\n      pop\n      jump\t// out\n        /* \"#utility.yul\":10471:10945   */\n    tag_112:\n        /* \"#utility.yul\":10539:10545   */\n      0x00\n        /* \"#utility.yul\":10547:10553   */\n      dup1\n        /* \"#utility.yul\":10596:10598   */\n      0x40\n        /* \"#utility.yul\":10584:10593   */\n      dup4\n        /* \"#utility.yul\":10575:10582   */\n      dup6\n        /* \"#utility.yul\":10571:10594   */\n      sub\n        /* \"#utility.yul\":10567:10599   */\n      slt\n        /* \"#utility.yul\":10564:10683   */\n      iszero\n      tag_499\n      jumpi\n        /* \"#utility.yul\":10602:10681   */\n      tag_500\n      tag_331\n      jump\t// in\n    tag_500:\n        /* \"#utility.yul\":10564:10683   */\n    tag_499:\n        /* \"#utility.yul\":10722:10723   */\n      0x00\n        /* \"#utility.yul\":10747:10800   */\n      tag_501\n        /* \"#utility.yul\":10792:10799   */\n      dup6\n        /* \"#utility.yul\":10783:10789   */\n      dup3\n        /* \"#utility.yul\":10772:10781   */\n      dup7\n        /* \"#utility.yul\":10768:10790   */\n      add\n        /* \"#utility.yul\":10747:10800   */\n      tag_345\n      jump\t// in\n    tag_501:\n        /* \"#utility.yul\":10737:10800   */\n      swap3\n      pop\n        /* \"#utility.yul\":10693:10810   */\n      pop\n        /* \"#utility.yul\":10849:10851   */\n      0x20\n        /* \"#utility.yul\":10875:10928   */\n      tag_502\n        /* \"#utility.yul\":10920:10927   */\n      dup6\n        /* \"#utility.yul\":10911:10917   */\n      dup3\n        /* \"#utility.yul\":10900:10909   */\n      dup7\n        /* \"#utility.yul\":10896:10918   */\n      add\n        /* \"#utility.yul\":10875:10928   */\n      tag_345\n      jump\t// in\n    tag_502:\n        /* \"#utility.yul\":10865:10928   */\n      swap2\n      pop\n        /* \"#utility.yul\":10820:10938   */\n      pop\n        /* \"#utility.yul\":10471:10945   */\n      swap3\n      pop\n      swap3\n      swap1\n      pop\n      jump\t// out\n        /* \"#utility.yul\":10951:11131   */\n    tag_362:\n        /* \"#utility.yul\":10999:11076   */\n      0x4e487b7100000000000000000000000000000000000000000000000000000000\n        /* \"#utility.yul\":10996:10997   */\n      0x00\n        /* \"#utility.yul\":10989:11077   */\n      mstore\n        /* \"#utility.yul\":11096:11100   */\n      0x22\n        /* \"#utility.yul\":11093:11094   */\n      0x04\n        /* \"#utility.yul\":11086:11101   */\n      mstore\n        /* \"#utility.yul\":11120:11124   */\n      0x24\n        /* \"#utility.yul\":11117:11118   */\n      0x00\n        /* \"#utility.yul\":11110:11125   */\n      revert\n        /* \"#utility.yul\":11137:11457   */\n    tag_121:\n        /* \"#utility.yul\":11181:11187   */\n      0x00\n        /* \"#utility.yul\":11218:11219   */\n      0x02\n        /* \"#utility.yul\":11212:11216   */\n      dup3\n        /* \"#utility.yul\":11208:11220   */\n      div\n        /* \"#utility.yul\":11198:11220   */\n      swap1\n      pop\n        /* \"#utility.yul\":11265:11266   */\n      0x01\n        /* \"#utility.yul\":11259:11263   */\n      dup3\n        /* \"#utility.yul\":11255:11267   */\n      and\n        /* \"#utility.yul\":11286:11304   */\n      dup1\n        /* \"#utility.yul\":11276:11357   */\n      tag_505\n      jumpi\n        /* \"#utility.yul\":11342:11346   */\n      0x7f\n        /* \"#utility.yul\":11334:11340   */\n      dup3\n        /* \"#utility.yul\":11330:11347   */\n      and\n        /* \"#utility.yul\":11320:11347   */\n      swap2\n      pop\n        /* \"#utility.yul\":11276:11357   */\n    tag_505:\n        /* \"#utility.yul\":11404:11406   */\n      0x20\n        /* \"#utility.yul\":11396:11402   */\n      dup3\n        /* \"#utility.yul\":11393:11407   */\n      lt\n        /* \"#utility.yul\":11373:11391   */\n      dup2\n        /* \"#utility.yul\":11370:11408   */\n      sub\n        /* \"#utility.yul\":11367:11451   */\n      tag_506\n      jumpi\n        /* \"#utility.yul\":11423:11441   */\n      tag_507\n      tag_362\n      jump\t// in\n    tag_507:\n        /* \"#utility.yul\":11367:11451   */\n    tag_506:\n        /* \"#utility.yul\":11188:11457   */\n      pop\n        /* \"#utility.yul\":11137:11457   */\n      swap2\n      swap1\n      pop\n      jump\t// out\n        /* \"#utility.yul\":11463:11905   */\n    tag_144:\n        /* \"#utility.yul\":11612:11616   */\n      0x00\n        /* \"#utility.yul\":11650:11652   */\n      0x60\n        /* \"#utility.yul\":11639:11648   */\n      dup3\n        /* \"#utility.yul\":11635:11653   */\n      add\n        /* \"#utility.yul\":11627:11653   */\n      swap1\n      pop\n        /* \"#utility.yul\":11663:11734   */\n      tag_509\n        /* \"#utility.yul\":11731:11732   */\n      0x00\n        /* \"#utility.yul\":11720:11729   */\n      dup4\n        /* \"#utility.yul\":11716:11733   */\n      add\n        /* \"#utility.yul\":11707:11713   */\n      dup7\n        /* \"#utility.yul\":11663:11734   */\n      tag_348\n      jump\t// in\n    tag_509:\n        /* \"#utility.yul\":11744:11816   */\n      tag_510\n        /* \"#utility.yul\":11812:11814   */\n      0x20\n        /* \"#utility.yul\":11801:11810   */\n      dup4\n        /* \"#utility.yul\":11797:11815   */\n      add\n        /* \"#utility.yul\":11788:11794   */\n      dup6\n        /* \"#utility.yul\":11744:11816   */\n      tag_351\n      jump\t// in\n    tag_510:\n        /* \"#utility.yul\":11826:11898   */\n      tag_511\n        /* \"#utility.yul\":11894:11896   */\n      0x40\n        /* \"#utility.yul\":11883:11892   */\n      dup4\n        /* \"#utility.yul\":11879:11897   */\n      add\n        /* \"#utility.yul\":11870:11876   */\n      dup5\n        /* \"#utility.yul\":11826:11898   */\n      tag_348\n      jump\t// in\n    tag_511:\n        /* \"#utility.yul\":11463:11905   */\n      swap5\n      swap4\n      pop\n      pop\n      pop\n      pop\n      jump\t// out\n        /* \"#utility.yul\":11911:12131   */\n    tag_363:\n        /* \"#utility.yul\":12051:12085   */\n      0x4f6e6c79206f776e65722063616e2063616c6c20746869732066756e6374696f\n        /* \"#utility.yul\":12047:12048   */\n      0x00\n        /* \"#utility.yul\":12039:12045   */\n      dup3\n        /* \"#utility.yul\":12035:12049   */\n      add\n        /* \"#utility.yul\":12028:12086   */\n      mstore\n        /* \"#utility.yul\":12120:12123   */\n      0x6e00000000000000000000000000000000000000000000000000000000000000\n        /* \"#utility.yul\":12115:12117   */\n      0x20\n        /* \"#utility.yul\":12107:12113   */\n      dup3\n        /* \"#utility.yul\":12103:12118   */\n      add\n        /* \"#utility.yul\":12096:12124   */\n      mstore\n        /* \"#utility.yul\":11911:12131   */\n      pop\n      jump\t// out\n        /* \"#utility.yul\":12137:12503   */\n    tag_364:\n        /* \"#utility.yul\":12279:12282   */\n      0x00\n        /* \"#utility.yul\":12300:12367   */\n      tag_514\n        /* \"#utility.yul\":12364:12366   */\n      0x21\n        /* \"#utility.yul\":12359:12362   */\n      dup4\n        /* \"#utility.yul\":12300:12367   */\n      tag_339\n      jump\t// in\n    tag_514:\n        /* \"#utility.yul\":12293:12367   */\n      swap2\n      pop\n        /* \"#utility.yul\":12376:12469   */\n      tag_515\n        /* \"#utility.yul\":12465:12468   */\n      dup3\n        /* \"#utility.yul\":12376:12469   */\n      tag_363\n      jump\t// in\n    tag_515:\n        /* \"#utility.yul\":12494:12496   */\n      0x40\n        /* \"#utility.yul\":12489:12492   */\n      dup3\n        /* \"#utility.yul\":12485:12497   */\n      add\n        /* \"#utility.yul\":12478:12497   */\n      swap1\n      pop\n        /* \"#utility.yul\":12137:12503   */\n      swap2\n      swap1\n      pop\n      jump\t// out\n        /* \"#utility.yul\":12509:12928   */\n    tag_148:\n        /* \"#utility.yul\":12675:12679   */\n      0x00\n        /* \"#utility.yul\":12713:12715   */\n      0x20\n        /* \"#utility.yul\":12702:12711   */\n      dup3\n        /* \"#utility.yul\":12698:12716   */\n      add\n        /* \"#utility.yul\":12690:12716   */\n      swap1\n      pop\n        /* \"#utility.yul\":12762:12771   */\n      dup2\n        /* \"#utility.yul\":12756:12760   */\n      dup2\n        /* \"#utility.yul\":12752:12772   */\n      sub\n        /* \"#utility.yul\":12748:12749   */\n      0x00\n        /* \"#utility.yul\":12737:12746   */\n      dup4\n        /* \"#utility.yul\":12733:12750   */\n      add\n        /* \"#utility.yul\":12726:12773   */\n      mstore\n        /* \"#utility.yul\":12790:12921   */\n      tag_517\n        /* \"#utility.yul\":12916:12920   */\n      dup2\n        /* \"#utility.yul\":12790:12921   */\n      tag_364\n      jump\t// in\n    tag_517:\n        /* \"#utility.yul\":12782:12921   */\n      swap1\n      pop\n        /* \"#utility.yul\":12509:12928   */\n      swap2\n      swap1\n      pop\n      jump\t// out\n        /* \"#utility.yul\":12934:13082   */\n    tag_365:\n        /* \"#utility.yul\":13036:13047   */\n      0x00\n        /* \"#utility.yul\":13073:13076   */\n      dup2\n        /* \"#utility.yul\":13058:13076   */\n      swap1\n      pop\n        /* \"#utility.yul\":12934:13082   */\n      swap3\n      swap2\n      pop\n      pop\n      jump\t// out\n        /* \"#utility.yul\":13088:13478   */\n    tag_366:\n        /* \"#utility.yul\":13194:13197   */\n      0x00\n        /* \"#utility.yul\":13222:13261   */\n      tag_520\n        /* \"#utility.yul\":13255:13260   */\n      dup3\n        /* \"#utility.yul\":13222:13261   */\n      tag_338\n      jump\t// in\n    tag_520:\n        /* \"#utility.yul\":13277:13366   */\n      tag_521\n        /* \"#utility.yul\":13359:13365   */\n      dup2\n        /* \"#utility.yul\":13354:13357   */\n      dup6\n        /* \"#utility.yul\":13277:13366   */\n      tag_365\n      jump\t// in\n    tag_521:\n        /* \"#utility.yul\":13270:13366   */\n      swap4\n      pop\n        /* \"#utility.yul\":13375:13440   */\n      tag_522\n        /* \"#utility.yul\":13433:13439   */\n      dup2\n        /* \"#utility.yul\":13428:13431   */\n      dup6\n        /* \"#utility.yul\":13421:13425   */\n      0x20\n        /* \"#utility.yul\":13414:13419   */\n      dup7\n        /* \"#utility.yul\":13410:13426   */\n      add\n        /* \"#utility.yul\":13375:13440   */\n      tag_340\n      jump\t// in\n    tag_522:\n        /* \"#utility.yul\":13465:13471   */\n      dup1\n        /* \"#utility.yul\":13460:13463   */\n      dup5\n        /* \"#utility.yul\":13456:13472   */\n      add\n        /* \"#utility.yul\":13449:13472   */\n      swap2\n      pop\n        /* \"#utility.yul\":13198:13478   */\n      pop\n        /* \"#utility.yul\":13088:13478   */\n      swap3\n      swap2\n      pop\n      pop\n      jump\t// out\n        /* \"#utility.yul\":13484:13919   */\n    tag_186:\n        /* \"#utility.yul\":13664:13667   */\n      0x00\n        /* \"#utility.yul\":13686:13781   */\n      tag_524\n        /* \"#utility.yul\":13777:13780   */\n      dup3\n        /* \"#utility.yul\":13768:13774   */\n      dup6\n        /* \"#utility.yul\":13686:13781   */\n      tag_366\n      jump\t// in\n    tag_524:\n        /* \"#utility.yul\":13679:13781   */\n      swap2\n      pop\n        /* \"#utility.yul\":13798:13893   */\n      tag_525\n        /* \"#utility.yul\":13889:13892   */\n      dup3\n        /* \"#utility.yul\":13880:13886   */\n      dup5\n        /* \"#utility.yul\":13798:13893   */\n      tag_366\n      jump\t// in\n    tag_525:\n        /* \"#utility.yul\":13791:13893   */\n      swap2\n      pop\n        /* \"#utility.yul\":13910:13913   */\n      dup2\n        /* \"#utility.yul\":13903:13913   */\n      swap1\n      pop\n        /* \"#utility.yul\":13484:13919   */\n      swap4\n      swap3\n      pop\n      pop\n      pop\n      jump\t// out\n        /* \"#utility.yul\":13925:14099   */\n    tag_367:\n        /* \"#utility.yul\":14065:14091   */\n      0x456c20494420646520746f6b656e206e6f206578697374650000000000000000\n        /* \"#utility.yul\":14061:14062   */\n      0x00\n        /* \"#utility.yul\":14053:14059   */\n      dup3\n        /* \"#utility.yul\":14049:14063   */\n      add\n        /* \"#utility.yul\":14042:14092   */\n      mstore\n        /* \"#utility.yul\":13925:14099   */\n      pop\n      jump\t// out\n        /* \"#utility.yul\":14105:14471   */\n    tag_368:\n        /* \"#utility.yul\":14247:14250   */\n      0x00\n        /* \"#utility.yul\":14268:14335   */\n      tag_528\n        /* \"#utility.yul\":14332:14334   */\n      0x18\n        /* \"#utility.yul\":14327:14330   */\n      dup4\n        /* \"#utility.yul\":14268:14335   */\n      tag_339\n      jump\t// in\n    tag_528:\n        /* \"#utility.yul\":14261:14335   */\n      swap2\n      pop\n        /* \"#utility.yul\":14344:14437   */\n      tag_529\n        /* \"#utility.yul\":14433:14436   */\n      dup3\n        /* \"#utility.yul\":14344:14437   */\n      tag_367\n      jump\t// in\n    tag_529:\n        /* \"#utility.yul\":14462:14464   */\n      0x20\n        /* \"#utility.yul\":14457:14460   */\n      dup3\n        /* \"#utility.yul\":14453:14465   */\n      add\n        /* \"#utility.yul\":14446:14465   */\n      swap1\n      pop\n        /* \"#utility.yul\":14105:14471   */\n      swap2\n      swap1\n      pop\n      jump\t// out\n        /* \"#utility.yul\":14477:14896   */\n    tag_192:\n        /* \"#utility.yul\":14643:14647   */\n      0x00\n        /* \"#utility.yul\":14681:14683   */\n      0x20\n        /* \"#utility.yul\":14670:14679   */\n      dup3\n        /* \"#utility.yul\":14666:14684   */\n      add\n        /* \"#utility.yul\":14658:14684   */\n      swap1\n      pop\n        /* \"#utility.yul\":14730:14739   */\n      dup2\n        /* \"#utility.yul\":14724:14728   */\n      dup2\n        /* \"#utility.yul\":14720:14740   */\n      sub\n        /* \"#utility.yul\":14716:14717   */\n      0x00\n        /* \"#utility.yul\":14705:14714   */\n      dup4\n        /* \"#utility.yul\":14701:14718   */\n      add\n        /* \"#utility.yul\":14694:14741   */\n      mstore\n        /* \"#utility.yul\":14758:14889   */\n      tag_531\n        /* \"#utility.yul\":14884:14888   */\n      dup2\n        /* \"#utility.yul\":14758:14889   */\n      tag_368\n      jump\t// in\n    tag_531:\n        /* \"#utility.yul\":14750:14889   */\n      swap1\n      pop\n        /* \"#utility.yul\":14477:14896   */\n      swap2\n      swap1\n      pop\n      jump\t// out\n        /* \"#utility.yul\":14902:15069   */\n    tag_369:\n        /* \"#utility.yul\":15042:15061   */\n      0x5061676f20696e737566696369656e7465000000000000000000000000000000\n        /* \"#utility.yul\":15038:15039   */\n      0x00\n        /* \"#utility.yul\":15030:15036   */\n      dup3\n        /* \"#utility.yul\":15026:15040   */\n      add\n        /* \"#utility.yul\":15019:15062   */\n      mstore\n        /* \"#utility.yul\":14902:15069   */\n      pop\n      jump\t// out\n        /* \"#utility.yul\":15075:15441   */\n    tag_370:\n        /* \"#utility.yul\":15217:15220   */\n      0x00\n        /* \"#utility.yul\":15238:15305   */\n      tag_534\n        /* \"#utility.yul\":15302:15304   */\n      0x11\n        /* \"#utility.yul\":15297:15300   */\n      dup4\n        /* \"#utility.yul\":15238:15305   */\n      tag_339\n      jump\t// in\n    tag_534:\n        /* \"#utility.yul\":15231:15305   */\n      swap2\n      pop\n        /* \"#utility.yul\":15314:15407   */\n      tag_535\n        /* \"#utility.yul\":15403:15406   */\n      dup3\n        /* \"#utility.yul\":15314:15407   */\n      tag_369\n      jump\t// in\n    tag_535:\n        /* \"#utility.yul\":15432:15434   */\n      0x20\n        /* \"#utility.yul\":15427:15430   */\n      dup3\n        /* \"#utility.yul\":15423:15435   */\n      add\n        /* \"#utility.yul\":15416:15435   */\n      swap1\n      pop\n        /* \"#utility.yul\":15075:15441   */\n      swap2\n      swap1\n      pop\n      jump\t// out\n        /* \"#utility.yul\":15447:15866   */\n    tag_195:\n        /* \"#utility.yul\":15613:15617   */\n      0x00\n        /* \"#utility.yul\":15651:15653   */\n      0x20\n        /* \"#utility.yul\":15640:15649   */\n      dup3\n        /* \"#utility.yul\":15636:15654   */\n      add\n        /* \"#utility.yul\":15628:15654   */\n      swap1\n      pop\n        /* \"#utility.yul\":15700:15709   */\n      dup2\n        /* \"#utility.yul\":15694:15698   */\n      dup2\n        /* \"#utility.yul\":15690:15710   */\n      sub\n        /* \"#utility.yul\":15686:15687   */\n      0x00\n        /* \"#utility.yul\":15675:15684   */\n      dup4\n        /* \"#utility.yul\":15671:15688   */\n      add\n        /* \"#utility.yul\":15664:15711   */\n      mstore\n        /* \"#utility.yul\":15728:15859   */\n      tag_537\n        /* \"#utility.yul\":15854:15858   */\n      dup2\n        /* \"#utility.yul\":15728:15859   */\n      tag_370\n      jump\t// in\n    tag_537:\n        /* \"#utility.yul\":15720:15859   */\n      swap1\n      pop\n        /* \"#utility.yul\":15447:15866   */\n      swap2\n      swap1\n      pop\n      jump\t// out\n        /* \"#utility.yul\":15872:15970   */\n    tag_371:\n        /* \"#utility.yul\":15923:15929   */\n      0x00\n        /* \"#utility.yul\":15957:15962   */\n      dup2\n        /* \"#utility.yul\":15951:15963   */\n      mload\n        /* \"#utility.yul\":15941:15963   */\n      swap1\n      pop\n        /* \"#utility.yul\":15872:15970   */\n      swap2\n      swap1\n      pop\n      jump\t// out\n        /* \"#utility.yul\":15976:16144   */\n    tag_372:\n        /* \"#utility.yul\":16059:16070   */\n      0x00\n        /* \"#utility.yul\":16093:16099   */\n      dup3\n        /* \"#utility.yul\":16088:16091   */\n      dup3\n        /* \"#utility.yul\":16081:16100   */\n      mstore\n        /* \"#utility.yul\":16133:16137   */\n      0x20\n        /* \"#utility.yul\":16128:16131   */\n      dup3\n        /* \"#utility.yul\":16124:16138   */\n      add\n        /* \"#utility.yul\":16109:16138   */\n      swap1\n      pop\n        /* \"#utility.yul\":15976:16144   */\n      swap3\n      swap2\n      pop\n      pop\n      jump\t// out\n        /* \"#utility.yul\":16150:16523   */\n    tag_373:\n        /* \"#utility.yul\":16236:16239   */\n      0x00\n        /* \"#utility.yul\":16264:16302   */\n      tag_541\n        /* \"#utility.yul\":16296:16301   */\n      dup3\n        /* \"#utility.yul\":16264:16302   */\n      tag_371\n      jump\t// in\n    tag_541:\n        /* \"#utility.yul\":16318:16388   */\n      tag_542\n        /* \"#utility.yul\":16381:16387   */\n      dup2\n        /* \"#utility.yul\":16376:16379   */\n      dup6\n        /* \"#utility.yul\":16318:16388   */\n      tag_372\n      jump\t// in\n    tag_542:\n        /* \"#utility.yul\":16311:16388   */\n      swap4\n      pop\n        /* \"#utility.yul\":16397:16462   */\n      tag_543\n        /* \"#utility.yul\":16455:16461   */\n      dup2\n        /* \"#utility.yul\":16450:16453   */\n      dup6\n        /* \"#utility.yul\":16443:16447   */\n      0x20\n        /* \"#utility.yul\":16436:16441   */\n      dup7\n        /* \"#utility.yul\":16432:16448   */\n      add\n        /* \"#utility.yul\":16397:16462   */\n      tag_340\n      jump\t// in\n    tag_543:\n        /* \"#utility.yul\":16487:16516   */\n      tag_544\n        /* \"#utility.yul\":16509:16515   */\n      dup2\n        /* \"#utility.yul\":16487:16516   */\n      tag_341\n      jump\t// in\n    tag_544:\n        /* \"#utility.yul\":16482:16485   */\n      dup5\n        /* \"#utility.yul\":16478:16517   */\n      add\n        /* \"#utility.yul\":16471:16517   */\n      swap2\n      pop\n        /* \"#utility.yul\":16240:16523   */\n      pop\n        /* \"#utility.yul\":16150:16523   */\n      swap3\n      swap2\n      pop\n      pop\n      jump\t// out\n        /* \"#utility.yul\":16529:17169   */\n    tag_244:\n        /* \"#utility.yul\":16724:16728   */\n      0x00\n        /* \"#utility.yul\":16762:16765   */\n      0x80\n        /* \"#utility.yul\":16751:16760   */\n      dup3\n        /* \"#utility.yul\":16747:16766   */\n      add\n        /* \"#utility.yul\":16739:16766   */\n      swap1\n      pop\n        /* \"#utility.yul\":16776:16847   */\n      tag_546\n        /* \"#utility.yul\":16844:16845   */\n      0x00\n        /* \"#utility.yul\":16833:16842   */\n      dup4\n        /* \"#utility.yul\":16829:16846   */\n      add\n        /* \"#utility.yul\":16820:16826   */\n      dup8\n        /* \"#utility.yul\":16776:16847   */\n      tag_348\n      jump\t// in\n    tag_546:\n        /* \"#utility.yul\":16857:16929   */\n      tag_547\n        /* \"#utility.yul\":16925:16927   */\n      0x20\n        /* \"#utility.yul\":16914:16923   */\n      dup4\n        /* \"#utility.yul\":16910:16928   */\n      add\n        /* \"#utility.yul\":16901:16907   */\n      dup7\n        /* \"#utility.yul\":16857:16929   */\n      tag_348\n      jump\t// in\n    tag_547:\n        /* \"#utility.yul\":16939:17011   */\n      tag_548\n        /* \"#utility.yul\":17007:17009   */\n      0x40\n        /* \"#utility.yul\":16996:17005   */\n      dup4\n        /* \"#utility.yul\":16992:17010   */\n      add\n        /* \"#utility.yul\":16983:16989   */\n      dup6\n        /* \"#utility.yul\":16939:17011   */\n      tag_351\n      jump\t// in\n    tag_548:\n        /* \"#utility.yul\":17058:17067   */\n      dup2\n        /* \"#utility.yul\":17052:17056   */\n      dup2\n        /* \"#utility.yul\":17048:17068   */\n      sub\n        /* \"#utility.yul\":17043:17045   */\n      0x60\n        /* \"#utility.yul\":17032:17041   */\n      dup4\n        /* \"#utility.yul\":17028:17046   */\n      add\n        /* \"#utility.yul\":17021:17069   */\n      mstore\n        /* \"#utility.yul\":17086:17162   */\n      tag_549\n        /* \"#utility.yul\":17157:17161   */\n      dup2\n        /* \"#utility.yul\":17148:17154   */\n      dup5\n        /* \"#utility.yul\":17086:17162   */\n      tag_373\n      jump\t// in\n    tag_549:\n        /* \"#utility.yul\":17078:17162   */\n      swap1\n      pop\n        /* \"#utility.yul\":16529:17169   */\n      swap6\n      swap5\n      pop\n      pop\n      pop\n      pop\n      pop\n      jump\t// out\n        /* \"#utility.yul\":17175:17316   */\n    tag_374:\n        /* \"#utility.yul\":17231:17236   */\n      0x00\n        /* \"#utility.yul\":17262:17268   */\n      dup2\n        /* \"#utility.yul\":17256:17269   */\n      mload\n        /* \"#utility.yul\":17247:17269   */\n      swap1\n      pop\n        /* \"#utility.yul\":17278:17310   */\n      tag_551\n        /* \"#utility.yul\":17304:17309   */\n      dup2\n        /* \"#utility.yul\":17278:17310   */\n      tag_334\n      jump\t// in\n    tag_551:\n        /* \"#utility.yul\":17175:17316   */\n      swap3\n      swap2\n      pop\n      pop\n      jump\t// out\n        /* \"#utility.yul\":17322:17671   */\n    tag_247:\n        /* \"#utility.yul\":17391:17397   */\n      0x00\n        /* \"#utility.yul\":17440:17442   */\n      0x20\n        /* \"#utility.yul\":17428:17437   */\n      dup3\n        /* \"#utility.yul\":17419:17426   */\n      dup5\n        /* \"#utility.yul\":17415:17438   */\n      sub\n        /* \"#utility.yul\":17411:17443   */\n      slt\n        /* \"#utility.yul\":17408:17527   */\n      iszero\n      tag_553\n      jumpi\n        /* \"#utility.yul\":17446:17525   */\n      tag_554\n      tag_331\n      jump\t// in\n    tag_554:\n        /* \"#utility.yul\":17408:17527   */\n    tag_553:\n        /* \"#utility.yul\":17566:17567   */\n      0x00\n        /* \"#utility.yul\":17591:17654   */\n      tag_555\n        /* \"#utility.yul\":17646:17653   */\n      dup5\n        /* \"#utility.yul\":17637:17643   */\n      dup3\n        /* \"#utility.yul\":17626:17635   */\n      dup6\n        /* \"#utility.yul\":17622:17644   */\n      add\n        /* \"#utility.yul\":17591:17654   */\n      tag_374\n      jump\t// in\n    tag_555:\n        /* \"#utility.yul\":17581:17654   */\n      swap2\n      pop\n        /* \"#utility.yul\":17537:17664   */\n      pop\n        /* \"#utility.yul\":17322:17671   */\n      swap3\n      swap2\n      pop\n      pop\n      jump\t// out\n        /* \"#utility.yul\":17677:17857   */\n    tag_272:\n        /* \"#utility.yul\":17725:17802   */\n      0x4e487b7100000000000000000000000000000000000000000000000000000000\n        /* \"#utility.yul\":17722:17723   */\n      0x00\n        /* \"#utility.yul\":17715:17803   */\n      mstore\n        /* \"#utility.yul\":17822:17826   */\n      0x12\n        /* \"#utility.yul\":17819:17820   */\n      0x04\n        /* \"#utility.yul\":17812:17827   */\n      mstore\n        /* \"#utility.yul\":17846:17850   */\n      0x24\n        /* \"#utility.yul\":17843:17844   */\n      0x00\n        /* \"#utility.yul\":17836:17851   */\n      revert\n        /* \"#utility.yul\":17863:18195   */\n    tag_303:\n        /* \"#utility.yul\":17984:17988   */\n      0x00\n        /* \"#utility.yul\":18022:18024   */\n      0x40\n        /* \"#utility.yul\":18011:18020   */\n      dup3\n        /* \"#utility.yul\":18007:18025   */\n      add\n        /* \"#utility.yul\":17999:18025   */\n      swap1\n      pop\n        /* \"#utility.yul\":18035:18106   */\n      tag_558\n        /* \"#utility.yul\":18103:18104   */\n      0x00\n        /* \"#utility.yul\":18092:18101   */\n      dup4\n        /* \"#utility.yul\":18088:18105   */\n      add\n        /* \"#utility.yul\":18079:18085   */\n      dup6\n        /* \"#utility.yul\":18035:18106   */\n      tag_348\n      jump\t// in\n    tag_558:\n        /* \"#utility.yul\":18116:18188   */\n      tag_559\n        /* \"#utility.yul\":18184:18186   */\n      0x20\n        /* \"#utility.yul\":18173:18182   */\n      dup4\n        /* \"#utility.yul\":18169:18187   */\n      add\n        /* \"#utility.yul\":18160:18166   */\n      dup5\n        /* \"#utility.yul\":18116:18188   */\n      tag_351\n      jump\t// in\n    tag_559:\n        /* \"#utility.yul\":17863:18195   */\n      swap4\n      swap3\n      pop\n      pop\n      pop\n      jump\t// out\n\n    auxdata: 0xa2646970667358221220eb3f0e3886dd450cb26e35b218cf89b88dc5a97e6afbabecd1ca11c0e3c62e8b64736f6c63430008180033\n}\n",
				"bytecode": {
					"linkReferences": {},
					"object": "608060405234801562000010575f80fd5b506040518060400160405280600581526020017f4d794e46540000000000000000000000000000000000000000000000000000008152506040518060400160405280600481526020017f4d4e465400000000000000000000000000000000000000000000000000000000815250815f90816200008d91906200034c565b5080600190816200009f91906200034c565b5050503360065f6101000a81548173ffffffffffffffffffffffffffffffffffffffff021916908373ffffffffffffffffffffffffffffffffffffffff16021790555062000430565b5f81519050919050565b7f4e487b71000000000000000000000000000000000000000000000000000000005f52604160045260245ffd5b7f4e487b71000000000000000000000000000000000000000000000000000000005f52602260045260245ffd5b5f60028204905060018216806200016457607f821691505b6020821081036200017a57620001796200011f565b5b50919050565b5f819050815f5260205f209050919050565b5f6020601f8301049050919050565b5f82821b905092915050565b5f60088302620001de7fffffffffffffffffffffffffffffffffffffffffffffffffffffffffffffffff82620001a1565b620001ea8683620001a1565b95508019841693508086168417925050509392505050565b5f819050919050565b5f819050919050565b5f620002346200022e620002288462000202565b6200020b565b62000202565b9050919050565b5f819050919050565b6200024f8362000214565b620002676200025e826200023b565b848454620001ad565b825550505050565b5f90565b6200027d6200026f565b6200028a81848462000244565b505050565b5b81811015620002b157620002a55f8262000273565b60018101905062000290565b5050565b601f8211156200030057620002ca8162000180565b620002d58462000192565b81016020851015620002e5578190505b620002fd620002f48562000192565b8301826200028f565b50505b505050565b5f82821c905092915050565b5f620003225f198460080262000305565b1980831691505092915050565b5f6200033c838362000311565b9150826002028217905092915050565b6200035782620000e8565b67ffffffffffffffff811115620003735762000372620000f2565b5b6200037f82546200014c565b6200038c828285620002b5565b5f60209050601f831160018114620003c2575f8415620003ad578287015190505b620003b985826200032f565b86555062000428565b601f198416620003d28662000180565b5f5b82811015620003fb57848901518255600182019150602085019450602081019050620003d4565b868310156200041b578489015162000417601f89168262000311565b8355505b6001600288020188555050505b505050505050565b612515806200043e5f395ff3fe608060405260043610610108575f3560e01c806370a0823111610094578063b88d4fde11610063578063b88d4fde1461037e578063c87b56dd146103a6578063d96a094a146103e2578063e985e9c5146103fe578063f7d975771461043a57610108565b806370a08231146102c65780638da5cb5b1461030257806395d89b411461032c578063a22cb4651461035657610108565b806323b872dd116100db57806323b872dd146101d657806340c10f19146101fe5780634191c45b1461022657806342842e0e146102625780636352211e1461028a57610108565b806301ffc9a71461010c57806306fdde0314610148578063081812fc14610172578063095ea7b3146101ae575b5f80fd5b348015610117575f80fd5b50610132600480360381019061012d9190611c0a565b610462565b60405161013f9190611c4f565b60405180910390f35b348015610153575f80fd5b5061015c610543565b6040516101699190611cf2565b60405180910390f35b34801561017d575f80fd5b5061019860048036038101906101939190611d45565b6105d2565b6040516101a59190611daf565b60405180910390f35b3480156101b9575f80fd5b506101d460048036038101906101cf9190611df2565b6105ed565b005b3480156101e1575f80fd5b506101fc60048036038101906101f79190611e30565b610603565b005b348015610209575f80fd5b50610224600480360381019061021f9190611df2565b610702565b005b348015610231575f80fd5b5061024c60048036038101906102479190611d45565b6107cd565b6040516102599190611e8f565b60405180910390f35b34801561026d575f80fd5b5061028860048036038101906102839190611e30565b6107e2565b005b348015610295575f80fd5b506102b060048036038101906102ab9190611d45565b610801565b6040516102bd9190611daf565b60405180910390f35b3480156102d1575f80fd5b506102ec60048036038101906102e79190611ea8565b610812565b6040516102f99190611e8f565b60405180910390f35b34801561030d575f80fd5b506103166108c8565b6040516103239190611daf565b60405180910390f35b348015610337575f80fd5b506103406108ed565b60405161034d9190611cf2565b60405180910390f35b348015610361575f80fd5b5061037c60048036038101906103779190611efd565b61097d565b005b348015610389575f80fd5b506103a4600480360381019061039f9190612067565b610993565b005b3480156103b1575f80fd5b506103cc60048036038101906103c79190611d45565b6109b0565b6040516103d99190611cf2565b60405180910390f35b6103fc60048036038101906103f79190611d45565b610a16565b005b348015610409575f80fd5b50610424600480360381019061041f91906120e7565b610b2a565b6040516104319190611c4f565b60405180910390f35b348015610445575f80fd5b50610460600480360381019061045b9190612125565b610bb8565b005b5f7f80ac58cd000000000000000000000000000000000000000000000000000000007bffffffffffffffffffffffffffffffffffffffffffffffffffffffff1916827bffffffffffffffffffffffffffffffffffffffffffffffffffffffff1916148061052c57507f5b5e139f000000000000000000000000000000000000000000000000000000007bffffffffffffffffffffffffffffffffffffffffffffffffffffffff1916827bffffffffffffffffffffffffffffffffffffffffffffffffffffffff1916145b8061053c575061053b82610ca9565b5b9050919050565b60605f805461055190612190565b80601f016020809104026020016040519081016040528092919081815260200182805461057d90612190565b80156105c85780601f1061059f576101008083540402835291602001916105c8565b820191905f5260205f20905b8154815290600101906020018083116105ab57829003601f168201915b5050505050905090565b5f6105dc82610d12565b506105e682610d98565b9050919050565b6105ff82826105fa610dd1565b610dd8565b5050565b5f73ffffffffffffffffffffffffffffffffffffffff168273ffffffffffffffffffffffffffffffffffffffff1603610673575f6040517f64a0ae9200000000000000000000000000000000000000000000000000000000815260040161066a9190611daf565b60405180910390fd5b5f6106868383610681610dd1565b610dea565b90508373ffffffffffffffffffffffffffffffffffffffff168173ffffffffffffffffffffffffffffffffffffffff16146106fc578382826040517f64283d7b0000000000000000000000000000000000000000000000000000000081526004016106f3939291906121c0565b60405180910390fd5b50505050565b60065f9054906101000a900473ffffffffffffffffffffffffffffffffffffffff1673ffffffffffffffffffffffffffffffffffffffff163373ffffffffffffffffffffffffffffffffffffffff1614610791576040517f08c379a000000000000000000000000000000000000000000000000000000000815260040161078890612265565b60405180910390fd5b5f61079c6007610ff5565b90506107a88382611001565b8160085f8381526020019081526020015f20819055506107c860076110f4565b505050565b6008602052805f5260405f205f915090505481565b6107fc83838360405180602001604052805f815250610993565b505050565b5f61080b82610d12565b9050919050565b5f8073ffffffffffffffffffffffffffffffffffffffff168273ffffffffffffffffffffffffffffffffffffffff1603610883575f6040517f89c62b6400000000000000000000000000000000000000000000000000000000815260040161087a9190611daf565b60405180910390fd5b60035f8373ffffffffffffffffffffffffffffffffffffffff1673ffffffffffffffffffffffffffffffffffffffff1681526020019081526020015f20549050919050565b60065f9054906101000a900473ffffffffffffffffffffffffffffffffffffffff1681565b6060600180546108fc90612190565b80601f016020809104026020016040519081016040528092919081815260200182805461092890612190565b80156109735780601f1061094a57610100808354040283529160200191610973565b820191905f5260205f20905b81548152906001019060200180831161095657829003601f168201915b5050505050905090565b61098f610988610dd1565b8383611108565b5050565b61099e848484610603565b6109aa84848484611271565b50505050565b60606109bb82610d12565b505f6109c5611423565b90505f8151116109e35760405180602001604052805f815250610a0e565b806109ed84611439565b6040516020016109fe9291906122bd565b6040516020818303038152906040525b915050919050565b610a1f81611503565b610a5e576040517f08c379a0000000000000000000000000000000000000000000000000000000008152600401610a559061232a565b60405180910390fd5b60085f8281526020019081526020015f2054341015610ab2576040517f08c379a0000000000000000000000000000000000000000000000000000000008152600401610aa990612392565b60405180910390fd5b5f610abc82610801565b90505f8190508073ffffffffffffffffffffffffffffffffffffffff166108fc3490811502906040515f60405180830381858888f19350505050158015610b05573d5f803e3d5ffd5b50610b11823385611570565b60085f8481526020019081526020015f205f9055505050565b5f60055f8473ffffffffffffffffffffffffffffffffffffffff1673ffffffffffffffffffffffffffffffffffffffff1681526020019081526020015f205f8373ffffffffffffffffffffffffffffffffffffffff1673ffffffffffffffffffffffffffffffffffffffff1681526020019081526020015f205f9054906101000a900460ff16905092915050565b60065f9054906101000a900473ffffffffffffffffffffffffffffffffffffffff1673ffffffffffffffffffffffffffffffffffffffff163373ffffffffffffffffffffffffffffffffffffffff1614610c47576040517f08c379a0000000000000000000000000000000000000000000000000000000008152600401610c3e90612265565b60405180910390fd5b610c5082611503565b610c8f576040517f08c379a0000000000000000000000000000000000000000000000000000000008152600401610c869061232a565b60405180910390fd5b8060085f8481526020019081526020015f20819055505050565b5f7f01ffc9a7000000000000000000000000000000000000000000000000000000007bffffffffffffffffffffffffffffffffffffffffffffffffffffffff1916827bffffffffffffffffffffffffffffffffffffffffffffffffffffffff1916149050919050565b5f80610d1d836116d8565b90505f73ffffffffffffffffffffffffffffffffffffffff168173ffffffffffffffffffffffffffffffffffffffff1603610d8f57826040517f7e273289000000000000000000000000000000000000000000000000000000008152600401610d869190611e8f565b60405180910390fd5b80915050919050565b5f60045f8381526020019081526020015f205f9054906101000a900473ffffffffffffffffffffffffffffffffffffffff169050919050565b5f33905090565b610de58383836001611711565b505050565b5f80610df5846116d8565b90505f73ffffffffffffffffffffffffffffffffffffffff168373ffffffffffffffffffffffffffffffffffffffff1614610e3657610e358184866118d0565b5b5f73ffffffffffffffffffffffffffffffffffffffff168173ffffffffffffffffffffffffffffffffffffffff1614610ec157610e755f855f80611711565b600160035f8373ffffffffffffffffffffffffffffffffffffffff1673ffffffffffffffffffffffffffffffffffffffff1681526020019081526020015f205f82825403925050819055505b5f73ffffffffffffffffffffffffffffffffffffffff168573ffffffffffffffffffffffffffffffffffffffff1614610f4057600160035f8773ffffffffffffffffffffffffffffffffffffffff1673ffffffffffffffffffffffffffffffffffffffff1681526020019081526020015f205f82825401925050819055505b8460025f8681526020019081526020015f205f6101000a81548173ffffffffffffffffffffffffffffffffffffffff021916908373ffffffffffffffffffffffffffffffffffffffff160217905550838573ffffffffffffffffffffffffffffffffffffffff168273ffffffffffffffffffffffffffffffffffffffff167fddf252ad1be2c89b69c2b068fc378daa952ba7f163c4a11628f55a4df523b3ef60405160405180910390a4809150509392505050565b5f815f01549050919050565b5f73ffffffffffffffffffffffffffffffffffffffff168273ffffffffffffffffffffffffffffffffffffffff1603611071575f6040517f64a0ae920000000000000000000000000000000000000000000000000000000081526004016110689190611daf565b60405180910390fd5b5f61107d83835f610dea565b90505f73ffffffffffffffffffffffffffffffffffffffff168173ffffffffffffffffffffffffffffffffffffffff16146110ef575f6040517f73c6ac6e0000000000000000000000000000000000000000000000000000000081526004016110e69190611daf565b60405180910390fd5b505050565b6001815f015f828254019250508190555050565b5f73ffffffffffffffffffffffffffffffffffffffff168273ffffffffffffffffffffffffffffffffffffffff160361117857816040517f5b08ba1800000000000000000000000000000000000000000000000000000000815260040161116f9190611daf565b60405180910390fd5b8060055f8573ffffffffffffffffffffffffffffffffffffffff1673ffffffffffffffffffffffffffffffffffffffff1681526020019081526020015f205f8473ffffffffffffffffffffffffffffffffffffffff1673ffffffffffffffffffffffffffffffffffffffff1681526020019081526020015f205f6101000a81548160ff0219169083151502179055508173ffffffffffffffffffffffffffffffffffffffff168373ffffffffffffffffffffffffffffffffffffffff167f17307eab39ab6107e8899845ad3d59bd9653f200f220920489ca2b5937696c31836040516112649190611c4f565b60405180910390a3505050565b5f8373ffffffffffffffffffffffffffffffffffffffff163b111561141d578273ffffffffffffffffffffffffffffffffffffffff1663150b7a026112b4610dd1565b8685856040518563ffffffff1660e01b81526004016112d69493929190612402565b6020604051808303815f875af192505050801561131157506040513d601f19601f8201168201806040525081019061130e9190612460565b60015b611392573d805f811461133f576040519150601f19603f3d011682016040523d82523d5f602084013e611344565b606091505b505f81510361138a57836040517f64a0ae920000000000000000000000000000000000000000000000000000000081526004016113819190611daf565b60405180910390fd5b805181602001fd5b63150b7a0260e01b7bffffffffffffffffffffffffffffffffffffffffffffffffffffffff1916817bffffffffffffffffffffffffffffffffffffffffffffffffffffffff19161461141b57836040517f64a0ae920000000000000000000000000000000000000000000000000000000081526004016114129190611daf565b60405180910390fd5b505b50505050565b606060405180602001604052805f815250905090565b60605f600161144784611993565b0190505f8167ffffffffffffffff81111561146557611464611f43565b5b6040519080825280601f01601f1916602001820160405280156114975781602001600182028036833780820191505090505b5090505f82602001820190505b6001156114f8578080600190039150507f3031323334353637383961626364656600000000000000000000000000000000600a86061a8153600a85816114ed576114ec61248b565b5b0494505f85036114a4575b819350505050919050565b5f8060095f8481526020019081526020015f205f9054906101000a900473ffffffffffffffffffffffffffffffffffffffff1690505f73ffffffffffffffffffffffffffffffffffffffff168173ffffffffffffffffffffffffffffffffffffffff161415915050919050565b5f73ffffffffffffffffffffffffffffffffffffffff168273ffffffffffffffffffffffffffffffffffffffff16036115e0575f6040517f64a0ae920000000000000000000000000000000000000000000000000000000081526004016115d79190611daf565b60405180910390fd5b5f6115ec83835f610dea565b90505f73ffffffffffffffffffffffffffffffffffffffff168173ffffffffffffffffffffffffffffffffffffffff160361165e57816040517f7e2732890000000000000000000000000000000000000000000000000000000081526004016116559190611e8f565b60405180910390fd5b8373ffffffffffffffffffffffffffffffffffffffff168173ffffffffffffffffffffffffffffffffffffffff16146116d2578382826040517f64283d7b0000000000000000000000000000000000000000000000000000000081526004016116c9939291906121c0565b60405180910390fd5b50505050565b5f60025f8381526020019081526020015f205f9054906101000a900473ffffffffffffffffffffffffffffffffffffffff169050919050565b808061174957505f73ffffffffffffffffffffffffffffffffffffffff168273ffffffffffffffffffffffffffffffffffffffff1614155b1561187b575f61175884610d12565b90505f73ffffffffffffffffffffffffffffffffffffffff168373ffffffffffffffffffffffffffffffffffffffff16141580156117c257508273ffffffffffffffffffffffffffffffffffffffff168173ffffffffffffffffffffffffffffffffffffffff1614155b80156117d557506117d38184610b2a565b155b1561181757826040517fa9fbf51f00000000000000000000000000000000000000000000000000000000815260040161180e9190611daf565b60405180910390fd5b811561187957838573ffffffffffffffffffffffffffffffffffffffff168273ffffffffffffffffffffffffffffffffffffffff167f8c5be1e5ebec7d5bd14f71427d1e84f3dd0314c0f7b2291e5b200ac8c7c3b92560405160405180910390a45b505b8360045f8581526020019081526020015f205f6101000a81548173ffffffffffffffffffffffffffffffffffffffff021916908373ffffffffffffffffffffffffffffffffffffffff16021790555050505050565b6118db838383611ae4565b61198e575f73ffffffffffffffffffffffffffffffffffffffff168373ffffffffffffffffffffffffffffffffffffffff160361194f57806040517f7e2732890000000000000000000000000000000000000000000000000000000081526004016119469190611e8f565b60405180910390fd5b81816040517f177e802f0000000000000000000000000000000000000000000000000000000081526004016119859291906124b8565b60405180910390fd5b505050565b5f805f90507a184f03e93ff9f4daa797ed6e38ed64bf6a1f01000000000000000083106119ef577a184f03e93ff9f4daa797ed6e38ed64bf6a1f01000000000000000083816119e5576119e461248b565b5b0492506040810190505b6d04ee2d6d415b85acef81000000008310611a2c576d04ee2d6d415b85acef81000000008381611a2257611a2161248b565b5b0492506020810190505b662386f26fc100008310611a5b57662386f26fc100008381611a5157611a5061248b565b5b0492506010810190505b6305f5e1008310611a84576305f5e1008381611a7a57611a7961248b565b5b0492506008810190505b6127108310611aa9576127108381611a9f57611a9e61248b565b5b0492506004810190505b60648310611acc5760648381611ac257611ac161248b565b5b0492506002810190505b600a8310611adb576001810190505b80915050919050565b5f8073ffffffffffffffffffffffffffffffffffffffff168373ffffffffffffffffffffffffffffffffffffffff1614158015611b9b57508273ffffffffffffffffffffffffffffffffffffffff168473ffffffffffffffffffffffffffffffffffffffff161480611b5c5750611b5b8484610b2a565b5b80611b9a57508273ffffffffffffffffffffffffffffffffffffffff16611b8283610d98565b73ffffffffffffffffffffffffffffffffffffffff16145b5b90509392505050565b5f604051905090565b5f80fd5b5f80fd5b5f7fffffffff0000000000000000000000000000000000000000000000000000000082169050919050565b611be981611bb5565b8114611bf3575f80fd5b50565b5f81359050611c0481611be0565b92915050565b5f60208284031215611c1f57611c1e611bad565b5b5f611c2c84828501611bf6565b91505092915050565b5f8115159050919050565b611c4981611c35565b82525050565b5f602082019050611c625f830184611c40565b92915050565b5f81519050919050565b5f82825260208201905092915050565b5f5b83811015611c9f578082015181840152602081019050611c84565b5f8484015250505050565b5f601f19601f8301169050919050565b5f611cc482611c68565b611cce8185611c72565b9350611cde818560208601611c82565b611ce781611caa565b840191505092915050565b5f6020820190508181035f830152611d0a8184611cba565b905092915050565b5f819050919050565b611d2481611d12565b8114611d2e575f80fd5b50565b5f81359050611d3f81611d1b565b92915050565b5f60208284031215611d5a57611d59611bad565b5b5f611d6784828501611d31565b91505092915050565b5f73ffffffffffffffffffffffffffffffffffffffff82169050919050565b5f611d9982611d70565b9050919050565b611da981611d8f565b82525050565b5f602082019050611dc25f830184611da0565b92915050565b611dd181611d8f565b8114611ddb575f80fd5b50565b5f81359050611dec81611dc8565b92915050565b5f8060408385031215611e0857611e07611bad565b5b5f611e1585828601611dde565b9250506020611e2685828601611d31565b9150509250929050565b5f805f60608486031215611e4757611e46611bad565b5b5f611e5486828701611dde565b9350506020611e6586828701611dde565b9250506040611e7686828701611d31565b9150509250925092565b611e8981611d12565b82525050565b5f602082019050611ea25f830184611e80565b92915050565b5f60208284031215611ebd57611ebc611bad565b5b5f611eca84828501611dde565b91505092915050565b611edc81611c35565b8114611ee6575f80fd5b50565b5f81359050611ef781611ed3565b92915050565b5f8060408385031215611f1357611f12611bad565b5b5f611f2085828601611dde565b9250506020611f3185828601611ee9565b9150509250929050565b5f80fd5b5f80fd5b7f4e487b71000000000000000000000000000000000000000000000000000000005f52604160045260245ffd5b611f7982611caa565b810181811067ffffffffffffffff82111715611f9857611f97611f43565b5b80604052505050565b5f611faa611ba4565b9050611fb68282611f70565b919050565b5f67ffffffffffffffff821115611fd557611fd4611f43565b5b611fde82611caa565b9050602081019050919050565b828183375f83830152505050565b5f61200b61200684611fbb565b611fa1565b90508281526020810184848401111561202757612026611f3f565b5b612032848285611feb565b509392505050565b5f82601f83011261204e5761204d611f3b565b5b813561205e848260208601611ff9565b91505092915050565b5f805f806080858703121561207f5761207e611bad565b5b5f61208c87828801611dde565b945050602061209d87828801611dde565b93505060406120ae87828801611d31565b925050606085013567ffffffffffffffff8111156120cf576120ce611bb1565b5b6120db8782880161203a565b91505092959194509250565b5f80604083850312156120fd576120fc611bad565b5b5f61210a85828601611dde565b925050602061211b85828601611dde565b9150509250929050565b5f806040838503121561213b5761213a611bad565b5b5f61214885828601611d31565b925050602061215985828601611d31565b9150509250929050565b7f4e487b71000000000000000000000000000000000000000000000000000000005f52602260045260245ffd5b5f60028204905060018216806121a757607f821691505b6020821081036121ba576121b9612163565b5b50919050565b5f6060820190506121d35f830186611da0565b6121e06020830185611e80565b6121ed6040830184611da0565b949350505050565b7f4f6e6c79206f776e65722063616e2063616c6c20746869732066756e6374696f5f8201527f6e00000000000000000000000000000000000000000000000000000000000000602082015250565b5f61224f602183611c72565b915061225a826121f5565b604082019050919050565b5f6020820190508181035f83015261227c81612243565b9050919050565b5f81905092915050565b5f61229782611c68565b6122a18185612283565b93506122b1818560208601611c82565b80840191505092915050565b5f6122c8828561228d565b91506122d4828461228d565b91508190509392505050565b7f456c20494420646520746f6b656e206e6f2065786973746500000000000000005f82015250565b5f612314601883611c72565b915061231f826122e0565b602082019050919050565b5f6020820190508181035f83015261234181612308565b9050919050565b7f5061676f20696e737566696369656e74650000000000000000000000000000005f82015250565b5f61237c601183611c72565b915061238782612348565b602082019050919050565b5f6020820190508181035f8301526123a981612370565b9050919050565b5f81519050919050565b5f82825260208201905092915050565b5f6123d4826123b0565b6123de81856123ba565b93506123ee818560208601611c82565b6123f781611caa565b840191505092915050565b5f6080820190506124155f830187611da0565b6124226020830186611da0565b61242f6040830185611e80565b818103606083015261244181846123ca565b905095945050505050565b5f8151905061245a81611be0565b92915050565b5f6020828403121561247557612474611bad565b5b5f6124828482850161244c565b91505092915050565b7f4e487b71000000000000000000000000000000000000000000000000000000005f52601260045260245ffd5b5f6040820190506124cb5f830185611da0565b6124d86020830184611e80565b939250505056fea2646970667358221220eb3f0e3886dd450cb26e35b218cf89b88dc5a97e6afbabecd1ca11c0e3c62e8b64736f6c63430008180033",
					"opcodes": "PUSH1 0x80 PUSH1 0x40 MSTORE CALLVALUE DUP1 ISZERO PUSH3 0x10 JUMPI PUSH0 DUP1 REVERT JUMPDEST POP PUSH1 0x40 MLOAD DUP1 PUSH1 0x40 ADD PUSH1 0x40 MSTORE DUP1 PUSH1 0x5 DUP2 MSTORE PUSH1 0x20 ADD PUSH32 0x4D794E4654000000000000000000000000000000000000000000000000000000 DUP2 MSTORE POP PUSH1 0x40 MLOAD DUP1 PUSH1 0x40 ADD PUSH1 0x40 MSTORE DUP1 PUSH1 0x4 DUP2 MSTORE PUSH1 0x20 ADD PUSH32 0x4D4E465400000000000000000000000000000000000000000000000000000000 DUP2 MSTORE POP DUP2 PUSH0 SWAP1 DUP2 PUSH3 0x8D SWAP2 SWAP1 PUSH3 0x34C JUMP JUMPDEST POP DUP1 PUSH1 0x1 SWAP1 DUP2 PUSH3 0x9F SWAP2 SWAP1 PUSH3 0x34C JUMP JUMPDEST POP POP POP CALLER PUSH1 0x6 PUSH0 PUSH2 0x100 EXP DUP2 SLOAD DUP2 PUSH20 0xFFFFFFFFFFFFFFFFFFFFFFFFFFFFFFFFFFFFFFFF MUL NOT AND SWAP1 DUP4 PUSH20 0xFFFFFFFFFFFFFFFFFFFFFFFFFFFFFFFFFFFFFFFF AND MUL OR SWAP1 SSTORE POP PUSH3 0x430 JUMP JUMPDEST PUSH0 DUP2 MLOAD SWAP1 POP SWAP2 SWAP1 POP JUMP JUMPDEST PUSH32 0x4E487B7100000000000000000000000000000000000000000000000000000000 PUSH0 MSTORE PUSH1 0x41 PUSH1 0x4 MSTORE PUSH1 0x24 PUSH0 REVERT JUMPDEST PUSH32 0x4E487B7100000000000000000000000000000000000000000000000000000000 PUSH0 MSTORE PUSH1 0x22 PUSH1 0x4 MSTORE PUSH1 0x24 PUSH0 REVERT JUMPDEST PUSH0 PUSH1 0x2 DUP3 DIV SWAP1 POP PUSH1 0x1 DUP3 AND DUP1 PUSH3 0x164 JUMPI PUSH1 0x7F DUP3 AND SWAP2 POP JUMPDEST PUSH1 0x20 DUP3 LT DUP2 SUB PUSH3 0x17A JUMPI PUSH3 0x179 PUSH3 0x11F JUMP JUMPDEST JUMPDEST POP SWAP2 SWAP1 POP JUMP JUMPDEST PUSH0 DUP2 SWAP1 POP DUP2 PUSH0 MSTORE PUSH1 0x20 PUSH0 KECCAK256 SWAP1 POP SWAP2 SWAP1 POP JUMP JUMPDEST PUSH0 PUSH1 0x20 PUSH1 0x1F DUP4 ADD DIV SWAP1 POP SWAP2 SWAP1 POP JUMP JUMPDEST PUSH0 DUP3 DUP3 SHL SWAP1 POP SWAP3 SWAP2 POP POP JUMP JUMPDEST PUSH0 PUSH1 0x8 DUP4 MUL PUSH3 0x1DE PUSH32 0xFFFFFFFFFFFFFFFFFFFFFFFFFFFFFFFFFFFFFFFFFFFFFFFFFFFFFFFFFFFFFFFF DUP3 PUSH3 0x1A1 JUMP JUMPDEST PUSH3 0x1EA DUP7 DUP4 PUSH3 0x1A1 JUMP JUMPDEST SWAP6 POP DUP1 NOT DUP5 AND SWAP4 POP DUP1 DUP7 AND DUP5 OR SWAP3 POP POP POP SWAP4 SWAP3 POP POP POP JUMP JUMPDEST PUSH0 DUP2 SWAP1 POP SWAP2 SWAP1 POP JUMP JUMPDEST PUSH0 DUP2 SWAP1 POP SWAP2 SWAP1 POP JUMP JUMPDEST PUSH0 PUSH3 0x234 PUSH3 0x22E PUSH3 0x228 DUP5 PUSH3 0x202 JUMP JUMPDEST PUSH3 0x20B JUMP JUMPDEST PUSH3 0x202 JUMP JUMPDEST SWAP1 POP SWAP2 SWAP1 POP JUMP JUMPDEST PUSH0 DUP2 SWAP1 POP SWAP2 SWAP1 POP JUMP JUMPDEST PUSH3 0x24F DUP4 PUSH3 0x214 JUMP JUMPDEST PUSH3 0x267 PUSH3 0x25E DUP3 PUSH3 0x23B JUMP JUMPDEST DUP5 DUP5 SLOAD PUSH3 0x1AD JUMP JUMPDEST DUP3 SSTORE POP POP POP POP JUMP JUMPDEST PUSH0 SWAP1 JUMP JUMPDEST PUSH3 0x27D PUSH3 0x26F JUMP JUMPDEST PUSH3 0x28A DUP2 DUP5 DUP5 PUSH3 0x244 JUMP JUMPDEST POP POP POP JUMP JUMPDEST JUMPDEST DUP2 DUP2 LT ISZERO PUSH3 0x2B1 JUMPI PUSH3 0x2A5 PUSH0 DUP3 PUSH3 0x273 JUMP JUMPDEST PUSH1 0x1 DUP2 ADD SWAP1 POP PUSH3 0x290 JUMP JUMPDEST POP POP JUMP JUMPDEST PUSH1 0x1F DUP3 GT ISZERO PUSH3 0x300 JUMPI PUSH3 0x2CA DUP2 PUSH3 0x180 JUMP JUMPDEST PUSH3 0x2D5 DUP5 PUSH3 0x192 JUMP JUMPDEST DUP2 ADD PUSH1 0x20 DUP6 LT ISZERO PUSH3 0x2E5 JUMPI DUP2 SWAP1 POP JUMPDEST PUSH3 0x2FD PUSH3 0x2F4 DUP6 PUSH3 0x192 JUMP JUMPDEST DUP4 ADD DUP3 PUSH3 0x28F JUMP JUMPDEST POP POP JUMPDEST POP POP POP JUMP JUMPDEST PUSH0 DUP3 DUP3 SHR SWAP1 POP SWAP3 SWAP2 POP POP JUMP JUMPDEST PUSH0 PUSH3 0x322 PUSH0 NOT DUP5 PUSH1 0x8 MUL PUSH3 0x305 JUMP JUMPDEST NOT DUP1 DUP4 AND SWAP2 POP POP SWAP3 SWAP2 POP POP JUMP JUMPDEST PUSH0 PUSH3 0x33C DUP4 DUP4 PUSH3 0x311 JUMP JUMPDEST SWAP2 POP DUP3 PUSH1 0x2 MUL DUP3 OR SWAP1 POP SWAP3 SWAP2 POP POP JUMP JUMPDEST PUSH3 0x357 DUP3 PUSH3 0xE8 JUMP JUMPDEST PUSH8 0xFFFFFFFFFFFFFFFF DUP2 GT ISZERO PUSH3 0x373 JUMPI PUSH3 0x372 PUSH3 0xF2 JUMP JUMPDEST JUMPDEST PUSH3 0x37F DUP3 SLOAD PUSH3 0x14C JUMP JUMPDEST PUSH3 0x38C DUP3 DUP3 DUP6 PUSH3 0x2B5 JUMP JUMPDEST PUSH0 PUSH1 0x20 SWAP1 POP PUSH1 0x1F DUP4 GT PUSH1 0x1 DUP2 EQ PUSH3 0x3C2 JUMPI PUSH0 DUP5 ISZERO PUSH3 0x3AD JUMPI DUP3 DUP8 ADD MLOAD SWAP1 POP JUMPDEST PUSH3 0x3B9 DUP6 DUP3 PUSH3 0x32F JUMP JUMPDEST DUP7 SSTORE POP PUSH3 0x428 JUMP JUMPDEST PUSH1 0x1F NOT DUP5 AND PUSH3 0x3D2 DUP7 PUSH3 0x180 JUMP JUMPDEST PUSH0 JUMPDEST DUP3 DUP2 LT ISZERO PUSH3 0x3FB JUMPI DUP5 DUP10 ADD MLOAD DUP3 SSTORE PUSH1 0x1 DUP3 ADD SWAP2 POP PUSH1 0x20 DUP6 ADD SWAP5 POP PUSH1 0x20 DUP2 ADD SWAP1 POP PUSH3 0x3D4 JUMP JUMPDEST DUP7 DUP4 LT ISZERO PUSH3 0x41B JUMPI DUP5 DUP10 ADD MLOAD PUSH3 0x417 PUSH1 0x1F DUP10 AND DUP3 PUSH3 0x311 JUMP JUMPDEST DUP4 SSTORE POP JUMPDEST PUSH1 0x1 PUSH1 0x2 DUP9 MUL ADD DUP9 SSTORE POP POP POP JUMPDEST POP POP POP POP POP POP JUMP JUMPDEST PUSH2 0x2515 DUP1 PUSH3 0x43E PUSH0 CODECOPY PUSH0 RETURN INVALID PUSH1 0x80 PUSH1 0x40 MSTORE PUSH1 0x4 CALLDATASIZE LT PUSH2 0x108 JUMPI PUSH0 CALLDATALOAD PUSH1 0xE0 SHR DUP1 PUSH4 0x70A08231 GT PUSH2 0x94 JUMPI DUP1 PUSH4 0xB88D4FDE GT PUSH2 0x63 JUMPI DUP1 PUSH4 0xB88D4FDE EQ PUSH2 0x37E JUMPI DUP1 PUSH4 0xC87B56DD EQ PUSH2 0x3A6 JUMPI DUP1 PUSH4 0xD96A094A EQ PUSH2 0x3E2 JUMPI DUP1 PUSH4 0xE985E9C5 EQ PUSH2 0x3FE JUMPI DUP1 PUSH4 0xF7D97577 EQ PUSH2 0x43A JUMPI PUSH2 0x108 JUMP JUMPDEST DUP1 PUSH4 0x70A08231 EQ PUSH2 0x2C6 JUMPI DUP1 PUSH4 0x8DA5CB5B EQ PUSH2 0x302 JUMPI DUP1 PUSH4 0x95D89B41 EQ PUSH2 0x32C JUMPI DUP1 PUSH4 0xA22CB465 EQ PUSH2 0x356 JUMPI PUSH2 0x108 JUMP JUMPDEST DUP1 PUSH4 0x23B872DD GT PUSH2 0xDB JUMPI DUP1 PUSH4 0x23B872DD EQ PUSH2 0x1D6 JUMPI DUP1 PUSH4 0x40C10F19 EQ PUSH2 0x1FE JUMPI DUP1 PUSH4 0x4191C45B EQ PUSH2 0x226 JUMPI DUP1 PUSH4 0x42842E0E EQ PUSH2 0x262 JUMPI DUP1 PUSH4 0x6352211E EQ PUSH2 0x28A JUMPI PUSH2 0x108 JUMP JUMPDEST DUP1 PUSH4 0x1FFC9A7 EQ PUSH2 0x10C JUMPI DUP1 PUSH4 0x6FDDE03 EQ PUSH2 0x148 JUMPI DUP1 PUSH4 0x81812FC EQ PUSH2 0x172 JUMPI DUP1 PUSH4 0x95EA7B3 EQ PUSH2 0x1AE JUMPI JUMPDEST PUSH0 DUP1 REVERT JUMPDEST CALLVALUE DUP1 ISZERO PUSH2 0x117 JUMPI PUSH0 DUP1 REVERT JUMPDEST POP PUSH2 0x132 PUSH1 0x4 DUP1 CALLDATASIZE SUB DUP2 ADD SWAP1 PUSH2 0x12D SWAP2 SWAP1 PUSH2 0x1C0A JUMP JUMPDEST PUSH2 0x462 JUMP JUMPDEST PUSH1 0x40 MLOAD PUSH2 0x13F SWAP2 SWAP1 PUSH2 0x1C4F JUMP JUMPDEST PUSH1 0x40 MLOAD DUP1 SWAP2 SUB SWAP1 RETURN JUMPDEST CALLVALUE DUP1 ISZERO PUSH2 0x153 JUMPI PUSH0 DUP1 REVERT JUMPDEST POP PUSH2 0x15C PUSH2 0x543 JUMP JUMPDEST PUSH1 0x40 MLOAD PUSH2 0x169 SWAP2 SWAP1 PUSH2 0x1CF2 JUMP JUMPDEST PUSH1 0x40 MLOAD DUP1 SWAP2 SUB SWAP1 RETURN JUMPDEST CALLVALUE DUP1 ISZERO PUSH2 0x17D JUMPI PUSH0 DUP1 REVERT JUMPDEST POP PUSH2 0x198 PUSH1 0x4 DUP1 CALLDATASIZE SUB DUP2 ADD SWAP1 PUSH2 0x193 SWAP2 SWAP1 PUSH2 0x1D45 JUMP JUMPDEST PUSH2 0x5D2 JUMP JUMPDEST PUSH1 0x40 MLOAD PUSH2 0x1A5 SWAP2 SWAP1 PUSH2 0x1DAF JUMP JUMPDEST PUSH1 0x40 MLOAD DUP1 SWAP2 SUB SWAP1 RETURN JUMPDEST CALLVALUE DUP1 ISZERO PUSH2 0x1B9 JUMPI PUSH0 DUP1 REVERT JUMPDEST POP PUSH2 0x1D4 PUSH1 0x4 DUP1 CALLDATASIZE SUB DUP2 ADD SWAP1 PUSH2 0x1CF SWAP2 SWAP1 PUSH2 0x1DF2 JUMP JUMPDEST PUSH2 0x5ED JUMP JUMPDEST STOP JUMPDEST CALLVALUE DUP1 ISZERO PUSH2 0x1E1 JUMPI PUSH0 DUP1 REVERT JUMPDEST POP PUSH2 0x1FC PUSH1 0x4 DUP1 CALLDATASIZE SUB DUP2 ADD SWAP1 PUSH2 0x1F7 SWAP2 SWAP1 PUSH2 0x1E30 JUMP JUMPDEST PUSH2 0x603 JUMP JUMPDEST STOP JUMPDEST CALLVALUE DUP1 ISZERO PUSH2 0x209 JUMPI PUSH0 DUP1 REVERT JUMPDEST POP PUSH2 0x224 PUSH1 0x4 DUP1 CALLDATASIZE SUB DUP2 ADD SWAP1 PUSH2 0x21F SWAP2 SWAP1 PUSH2 0x1DF2 JUMP JUMPDEST PUSH2 0x702 JUMP JUMPDEST STOP JUMPDEST CALLVALUE DUP1 ISZERO PUSH2 0x231 JUMPI PUSH0 DUP1 REVERT JUMPDEST POP PUSH2 0x24C PUSH1 0x4 DUP1 CALLDATASIZE SUB DUP2 ADD SWAP1 PUSH2 0x247 SWAP2 SWAP1 PUSH2 0x1D45 JUMP JUMPDEST PUSH2 0x7CD JUMP JUMPDEST PUSH1 0x40 MLOAD PUSH2 0x259 SWAP2 SWAP1 PUSH2 0x1E8F JUMP JUMPDEST PUSH1 0x40 MLOAD DUP1 SWAP2 SUB SWAP1 RETURN JUMPDEST CALLVALUE DUP1 ISZERO PUSH2 0x26D JUMPI PUSH0 DUP1 REVERT JUMPDEST POP PUSH2 0x288 PUSH1 0x4 DUP1 CALLDATASIZE SUB DUP2 ADD SWAP1 PUSH2 0x283 SWAP2 SWAP1 PUSH2 0x1E30 JUMP JUMPDEST PUSH2 0x7E2 JUMP JUMPDEST STOP JUMPDEST CALLVALUE DUP1 ISZERO PUSH2 0x295 JUMPI PUSH0 DUP1 REVERT JUMPDEST POP PUSH2 0x2B0 PUSH1 0x4 DUP1 CALLDATASIZE SUB DUP2 ADD SWAP1 PUSH2 0x2AB SWAP2 SWAP1 PUSH2 0x1D45 JUMP JUMPDEST PUSH2 0x801 JUMP JUMPDEST PUSH1 0x40 MLOAD PUSH2 0x2BD SWAP2 SWAP1 PUSH2 0x1DAF JUMP JUMPDEST PUSH1 0x40 MLOAD DUP1 SWAP2 SUB SWAP1 RETURN JUMPDEST CALLVALUE DUP1 ISZERO PUSH2 0x2D1 JUMPI PUSH0 DUP1 REVERT JUMPDEST POP PUSH2 0x2EC PUSH1 0x4 DUP1 CALLDATASIZE SUB DUP2 ADD SWAP1 PUSH2 0x2E7 SWAP2 SWAP1 PUSH2 0x1EA8 JUMP JUMPDEST PUSH2 0x812 JUMP JUMPDEST PUSH1 0x40 MLOAD PUSH2 0x2F9 SWAP2 SWAP1 PUSH2 0x1E8F JUMP JUMPDEST PUSH1 0x40 MLOAD DUP1 SWAP2 SUB SWAP1 RETURN JUMPDEST CALLVALUE DUP1 ISZERO PUSH2 0x30D JUMPI PUSH0 DUP1 REVERT JUMPDEST POP PUSH2 0x316 PUSH2 0x8C8 JUMP JUMPDEST PUSH1 0x40 MLOAD PUSH2 0x323 SWAP2 SWAP1 PUSH2 0x1DAF JUMP JUMPDEST PUSH1 0x40 MLOAD DUP1 SWAP2 SUB SWAP1 RETURN JUMPDEST CALLVALUE DUP1 ISZERO PUSH2 0x337 JUMPI PUSH0 DUP1 REVERT JUMPDEST POP PUSH2 0x340 PUSH2 0x8ED JUMP JUMPDEST PUSH1 0x40 MLOAD PUSH2 0x34D SWAP2 SWAP1 PUSH2 0x1CF2 JUMP JUMPDEST PUSH1 0x40 MLOAD DUP1 SWAP2 SUB SWAP1 RETURN JUMPDEST CALLVALUE DUP1 ISZERO PUSH2 0x361 JUMPI PUSH0 DUP1 REVERT JUMPDEST POP PUSH2 0x37C PUSH1 0x4 DUP1 CALLDATASIZE SUB DUP2 ADD SWAP1 PUSH2 0x377 SWAP2 SWAP1 PUSH2 0x1EFD JUMP JUMPDEST PUSH2 0x97D JUMP JUMPDEST STOP JUMPDEST CALLVALUE DUP1 ISZERO PUSH2 0x389 JUMPI PUSH0 DUP1 REVERT JUMPDEST POP PUSH2 0x3A4 PUSH1 0x4 DUP1 CALLDATASIZE SUB DUP2 ADD SWAP1 PUSH2 0x39F SWAP2 SWAP1 PUSH2 0x2067 JUMP JUMPDEST PUSH2 0x993 JUMP JUMPDEST STOP JUMPDEST CALLVALUE DUP1 ISZERO PUSH2 0x3B1 JUMPI PUSH0 DUP1 REVERT JUMPDEST POP PUSH2 0x3CC PUSH1 0x4 DUP1 CALLDATASIZE SUB DUP2 ADD SWAP1 PUSH2 0x3C7 SWAP2 SWAP1 PUSH2 0x1D45 JUMP JUMPDEST PUSH2 0x9B0 JUMP JUMPDEST PUSH1 0x40 MLOAD PUSH2 0x3D9 SWAP2 SWAP1 PUSH2 0x1CF2 JUMP JUMPDEST PUSH1 0x40 MLOAD DUP1 SWAP2 SUB SWAP1 RETURN JUMPDEST PUSH2 0x3FC PUSH1 0x4 DUP1 CALLDATASIZE SUB DUP2 ADD SWAP1 PUSH2 0x3F7 SWAP2 SWAP1 PUSH2 0x1D45 JUMP JUMPDEST PUSH2 0xA16 JUMP JUMPDEST STOP JUMPDEST CALLVALUE DUP1 ISZERO PUSH2 0x409 JUMPI PUSH0 DUP1 REVERT JUMPDEST POP PUSH2 0x424 PUSH1 0x4 DUP1 CALLDATASIZE SUB DUP2 ADD SWAP1 PUSH2 0x41F SWAP2 SWAP1 PUSH2 0x20E7 JUMP JUMPDEST PUSH2 0xB2A JUMP JUMPDEST PUSH1 0x40 MLOAD PUSH2 0x431 SWAP2 SWAP1 PUSH2 0x1C4F JUMP JUMPDEST PUSH1 0x40 MLOAD DUP1 SWAP2 SUB SWAP1 RETURN JUMPDEST CALLVALUE DUP1 ISZERO PUSH2 0x445 JUMPI PUSH0 DUP1 REVERT JUMPDEST POP PUSH2 0x460 PUSH1 0x4 DUP1 CALLDATASIZE SUB DUP2 ADD SWAP1 PUSH2 0x45B SWAP2 SWAP1 PUSH2 0x2125 JUMP JUMPDEST PUSH2 0xBB8 JUMP JUMPDEST STOP JUMPDEST PUSH0 PUSH32 0x80AC58CD00000000000000000000000000000000000000000000000000000000 PUSH28 0xFFFFFFFFFFFFFFFFFFFFFFFFFFFFFFFFFFFFFFFFFFFFFFFFFFFFFFFF NOT AND DUP3 PUSH28 0xFFFFFFFFFFFFFFFFFFFFFFFFFFFFFFFFFFFFFFFFFFFFFFFFFFFFFFFF NOT AND EQ DUP1 PUSH2 0x52C JUMPI POP PUSH32 0x5B5E139F00000000000000000000000000000000000000000000000000000000 PUSH28 0xFFFFFFFFFFFFFFFFFFFFFFFFFFFFFFFFFFFFFFFFFFFFFFFFFFFFFFFF NOT AND DUP3 PUSH28 0xFFFFFFFFFFFFFFFFFFFFFFFFFFFFFFFFFFFFFFFFFFFFFFFFFFFFFFFF NOT AND EQ JUMPDEST DUP1 PUSH2 0x53C JUMPI POP PUSH2 0x53B DUP3 PUSH2 0xCA9 JUMP JUMPDEST JUMPDEST SWAP1 POP SWAP2 SWAP1 POP JUMP JUMPDEST PUSH1 0x60 PUSH0 DUP1 SLOAD PUSH2 0x551 SWAP1 PUSH2 0x2190 JUMP JUMPDEST DUP1 PUSH1 0x1F ADD PUSH1 0x20 DUP1 SWAP2 DIV MUL PUSH1 0x20 ADD PUSH1 0x40 MLOAD SWAP1 DUP2 ADD PUSH1 0x40 MSTORE DUP1 SWAP3 SWAP2 SWAP1 DUP2 DUP2 MSTORE PUSH1 0x20 ADD DUP3 DUP1 SLOAD PUSH2 0x57D SWAP1 PUSH2 0x2190 JUMP JUMPDEST DUP1 ISZERO PUSH2 0x5C8 JUMPI DUP1 PUSH1 0x1F LT PUSH2 0x59F JUMPI PUSH2 0x100 DUP1 DUP4 SLOAD DIV MUL DUP4 MSTORE SWAP2 PUSH1 0x20 ADD SWAP2 PUSH2 0x5C8 JUMP JUMPDEST DUP3 ADD SWAP2 SWAP1 PUSH0 MSTORE PUSH1 0x20 PUSH0 KECCAK256 SWAP1 JUMPDEST DUP2 SLOAD DUP2 MSTORE SWAP1 PUSH1 0x1 ADD SWAP1 PUSH1 0x20 ADD DUP1 DUP4 GT PUSH2 0x5AB JUMPI DUP3 SWAP1 SUB PUSH1 0x1F AND DUP3 ADD SWAP2 JUMPDEST POP POP POP POP POP SWAP1 POP SWAP1 JUMP JUMPDEST PUSH0 PUSH2 0x5DC DUP3 PUSH2 0xD12 JUMP JUMPDEST POP PUSH2 0x5E6 DUP3 PUSH2 0xD98 JUMP JUMPDEST SWAP1 POP SWAP2 SWAP1 POP JUMP JUMPDEST PUSH2 0x5FF DUP3 DUP3 PUSH2 0x5FA PUSH2 0xDD1 JUMP JUMPDEST PUSH2 0xDD8 JUMP JUMPDEST POP POP JUMP JUMPDEST PUSH0 PUSH20 0xFFFFFFFFFFFFFFFFFFFFFFFFFFFFFFFFFFFFFFFF AND DUP3 PUSH20 0xFFFFFFFFFFFFFFFFFFFFFFFFFFFFFFFFFFFFFFFF AND SUB PUSH2 0x673 JUMPI PUSH0 PUSH1 0x40 MLOAD PUSH32 0x64A0AE9200000000000000000000000000000000000000000000000000000000 DUP2 MSTORE PUSH1 0x4 ADD PUSH2 0x66A SWAP2 SWAP1 PUSH2 0x1DAF JUMP JUMPDEST PUSH1 0x40 MLOAD DUP1 SWAP2 SUB SWAP1 REVERT JUMPDEST PUSH0 PUSH2 0x686 DUP4 DUP4 PUSH2 0x681 PUSH2 0xDD1 JUMP JUMPDEST PUSH2 0xDEA JUMP JUMPDEST SWAP1 POP DUP4 PUSH20 0xFFFFFFFFFFFFFFFFFFFFFFFFFFFFFFFFFFFFFFFF AND DUP2 PUSH20 0xFFFFFFFFFFFFFFFFFFFFFFFFFFFFFFFFFFFFFFFF AND EQ PUSH2 0x6FC JUMPI DUP4 DUP3 DUP3 PUSH1 0x40 MLOAD PUSH32 0x64283D7B00000000000000000000000000000000000000000000000000000000 DUP2 MSTORE PUSH1 0x4 ADD PUSH2 0x6F3 SWAP4 SWAP3 SWAP2 SWAP1 PUSH2 0x21C0 JUMP JUMPDEST PUSH1 0x40 MLOAD DUP1 SWAP2 SUB SWAP1 REVERT JUMPDEST POP POP POP POP JUMP JUMPDEST PUSH1 0x6 PUSH0 SWAP1 SLOAD SWAP1 PUSH2 0x100 EXP SWAP1 DIV PUSH20 0xFFFFFFFFFFFFFFFFFFFFFFFFFFFFFFFFFFFFFFFF AND PUSH20 0xFFFFFFFFFFFFFFFFFFFFFFFFFFFFFFFFFFFFFFFF AND CALLER PUSH20 0xFFFFFFFFFFFFFFFFFFFFFFFFFFFFFFFFFFFFFFFF AND EQ PUSH2 0x791 JUMPI PUSH1 0x40 MLOAD PUSH32 0x8C379A000000000000000000000000000000000000000000000000000000000 DUP2 MSTORE PUSH1 0x4 ADD PUSH2 0x788 SWAP1 PUSH2 0x2265 JUMP JUMPDEST PUSH1 0x40 MLOAD DUP1 SWAP2 SUB SWAP1 REVERT JUMPDEST PUSH0 PUSH2 0x79C PUSH1 0x7 PUSH2 0xFF5 JUMP JUMPDEST SWAP1 POP PUSH2 0x7A8 DUP4 DUP3 PUSH2 0x1001 JUMP JUMPDEST DUP2 PUSH1 0x8 PUSH0 DUP4 DUP2 MSTORE PUSH1 0x20 ADD SWAP1 DUP2 MSTORE PUSH1 0x20 ADD PUSH0 KECCAK256 DUP2 SWAP1 SSTORE POP PUSH2 0x7C8 PUSH1 0x7 PUSH2 0x10F4 JUMP JUMPDEST POP POP POP JUMP JUMPDEST PUSH1 0x8 PUSH1 0x20 MSTORE DUP1 PUSH0 MSTORE PUSH1 0x40 PUSH0 KECCAK256 PUSH0 SWAP2 POP SWAP1 POP SLOAD DUP2 JUMP JUMPDEST PUSH2 0x7FC DUP4 DUP4 DUP4 PUSH1 0x40 MLOAD DUP1 PUSH1 0x20 ADD PUSH1 0x40 MSTORE DUP1 PUSH0 DUP2 MSTORE POP PUSH2 0x993 JUMP JUMPDEST POP POP POP JUMP JUMPDEST PUSH0 PUSH2 0x80B DUP3 PUSH2 0xD12 JUMP JUMPDEST SWAP1 POP SWAP2 SWAP1 POP JUMP JUMPDEST PUSH0 DUP1 PUSH20 0xFFFFFFFFFFFFFFFFFFFFFFFFFFFFFFFFFFFFFFFF AND DUP3 PUSH20 0xFFFFFFFFFFFFFFFFFFFFFFFFFFFFFFFFFFFFFFFF AND SUB PUSH2 0x883 JUMPI PUSH0 PUSH1 0x40 MLOAD PUSH32 0x89C62B6400000000000000000000000000000000000000000000000000000000 DUP2 MSTORE PUSH1 0x4 ADD PUSH2 0x87A SWAP2 SWAP1 PUSH2 0x1DAF JUMP JUMPDEST PUSH1 0x40 MLOAD DUP1 SWAP2 SUB SWAP1 REVERT JUMPDEST PUSH1 0x3 PUSH0 DUP4 PUSH20 0xFFFFFFFFFFFFFFFFFFFFFFFFFFFFFFFFFFFFFFFF AND PUSH20 0xFFFFFFFFFFFFFFFFFFFFFFFFFFFFFFFFFFFFFFFF AND DUP2 MSTORE PUSH1 0x20 ADD SWAP1 DUP2 MSTORE PUSH1 0x20 ADD PUSH0 KECCAK256 SLOAD SWAP1 POP SWAP2 SWAP1 POP JUMP JUMPDEST PUSH1 0x6 PUSH0 SWAP1 SLOAD SWAP1 PUSH2 0x100 EXP SWAP1 DIV PUSH20 0xFFFFFFFFFFFFFFFFFFFFFFFFFFFFFFFFFFFFFFFF AND DUP2 JUMP JUMPDEST PUSH1 0x60 PUSH1 0x1 DUP1 SLOAD PUSH2 0x8FC SWAP1 PUSH2 0x2190 JUMP JUMPDEST DUP1 PUSH1 0x1F ADD PUSH1 0x20 DUP1 SWAP2 DIV MUL PUSH1 0x20 ADD PUSH1 0x40 MLOAD SWAP1 DUP2 ADD PUSH1 0x40 MSTORE DUP1 SWAP3 SWAP2 SWAP1 DUP2 DUP2 MSTORE PUSH1 0x20 ADD DUP3 DUP1 SLOAD PUSH2 0x928 SWAP1 PUSH2 0x2190 JUMP JUMPDEST DUP1 ISZERO PUSH2 0x973 JUMPI DUP1 PUSH1 0x1F LT PUSH2 0x94A JUMPI PUSH2 0x100 DUP1 DUP4 SLOAD DIV MUL DUP4 MSTORE SWAP2 PUSH1 0x20 ADD SWAP2 PUSH2 0x973 JUMP JUMPDEST DUP3 ADD SWAP2 SWAP1 PUSH0 MSTORE PUSH1 0x20 PUSH0 KECCAK256 SWAP1 JUMPDEST DUP2 SLOAD DUP2 MSTORE SWAP1 PUSH1 0x1 ADD SWAP1 PUSH1 0x20 ADD DUP1 DUP4 GT PUSH2 0x956 JUMPI DUP3 SWAP1 SUB PUSH1 0x1F AND DUP3 ADD SWAP2 JUMPDEST POP POP POP POP POP SWAP1 POP SWAP1 JUMP JUMPDEST PUSH2 0x98F PUSH2 0x988 PUSH2 0xDD1 JUMP JUMPDEST DUP4 DUP4 PUSH2 0x1108 JUMP JUMPDEST POP POP JUMP JUMPDEST PUSH2 0x99E DUP5 DUP5 DUP5 PUSH2 0x603 JUMP JUMPDEST PUSH2 0x9AA DUP5 DUP5 DUP5 DUP5 PUSH2 0x1271 JUMP JUMPDEST POP POP POP POP JUMP JUMPDEST PUSH1 0x60 PUSH2 0x9BB DUP3 PUSH2 0xD12 JUMP JUMPDEST POP PUSH0 PUSH2 0x9C5 PUSH2 0x1423 JUMP JUMPDEST SWAP1 POP PUSH0 DUP2 MLOAD GT PUSH2 0x9E3 JUMPI PUSH1 0x40 MLOAD DUP1 PUSH1 0x20 ADD PUSH1 0x40 MSTORE DUP1 PUSH0 DUP2 MSTORE POP PUSH2 0xA0E JUMP JUMPDEST DUP1 PUSH2 0x9ED DUP5 PUSH2 0x1439 JUMP JUMPDEST PUSH1 0x40 MLOAD PUSH1 0x20 ADD PUSH2 0x9FE SWAP3 SWAP2 SWAP1 PUSH2 0x22BD JUMP JUMPDEST PUSH1 0x40 MLOAD PUSH1 0x20 DUP2 DUP4 SUB SUB DUP2 MSTORE SWAP1 PUSH1 0x40 MSTORE JUMPDEST SWAP2 POP POP SWAP2 SWAP1 POP JUMP JUMPDEST PUSH2 0xA1F DUP2 PUSH2 0x1503 JUMP JUMPDEST PUSH2 0xA5E JUMPI PUSH1 0x40 MLOAD PUSH32 0x8C379A000000000000000000000000000000000000000000000000000000000 DUP2 MSTORE PUSH1 0x4 ADD PUSH2 0xA55 SWAP1 PUSH2 0x232A JUMP JUMPDEST PUSH1 0x40 MLOAD DUP1 SWAP2 SUB SWAP1 REVERT JUMPDEST PUSH1 0x8 PUSH0 DUP3 DUP2 MSTORE PUSH1 0x20 ADD SWAP1 DUP2 MSTORE PUSH1 0x20 ADD PUSH0 KECCAK256 SLOAD CALLVALUE LT ISZERO PUSH2 0xAB2 JUMPI PUSH1 0x40 MLOAD PUSH32 0x8C379A000000000000000000000000000000000000000000000000000000000 DUP2 MSTORE PUSH1 0x4 ADD PUSH2 0xAA9 SWAP1 PUSH2 0x2392 JUMP JUMPDEST PUSH1 0x40 MLOAD DUP1 SWAP2 SUB SWAP1 REVERT JUMPDEST PUSH0 PUSH2 0xABC DUP3 PUSH2 0x801 JUMP JUMPDEST SWAP1 POP PUSH0 DUP2 SWAP1 POP DUP1 PUSH20 0xFFFFFFFFFFFFFFFFFFFFFFFFFFFFFFFFFFFFFFFF AND PUSH2 0x8FC CALLVALUE SWAP1 DUP2 ISZERO MUL SWAP1 PUSH1 0x40 MLOAD PUSH0 PUSH1 0x40 MLOAD DUP1 DUP4 SUB DUP2 DUP6 DUP9 DUP9 CALL SWAP4 POP POP POP POP ISZERO DUP1 ISZERO PUSH2 0xB05 JUMPI RETURNDATASIZE PUSH0 DUP1 RETURNDATACOPY RETURNDATASIZE PUSH0 REVERT JUMPDEST POP PUSH2 0xB11 DUP3 CALLER DUP6 PUSH2 0x1570 JUMP JUMPDEST PUSH1 0x8 PUSH0 DUP5 DUP2 MSTORE PUSH1 0x20 ADD SWAP1 DUP2 MSTORE PUSH1 0x20 ADD PUSH0 KECCAK256 PUSH0 SWAP1 SSTORE POP POP POP JUMP JUMPDEST PUSH0 PUSH1 0x5 PUSH0 DUP5 PUSH20 0xFFFFFFFFFFFFFFFFFFFFFFFFFFFFFFFFFFFFFFFF AND PUSH20 0xFFFFFFFFFFFFFFFFFFFFFFFFFFFFFFFFFFFFFFFF AND DUP2 MSTORE PUSH1 0x20 ADD SWAP1 DUP2 MSTORE PUSH1 0x20 ADD PUSH0 KECCAK256 PUSH0 DUP4 PUSH20 0xFFFFFFFFFFFFFFFFFFFFFFFFFFFFFFFFFFFFFFFF AND PUSH20 0xFFFFFFFFFFFFFFFFFFFFFFFFFFFFFFFFFFFFFFFF AND DUP2 MSTORE PUSH1 0x20 ADD SWAP1 DUP2 MSTORE PUSH1 0x20 ADD PUSH0 KECCAK256 PUSH0 SWAP1 SLOAD SWAP1 PUSH2 0x100 EXP SWAP1 DIV PUSH1 0xFF AND SWAP1 POP SWAP3 SWAP2 POP POP JUMP JUMPDEST PUSH1 0x6 PUSH0 SWAP1 SLOAD SWAP1 PUSH2 0x100 EXP SWAP1 DIV PUSH20 0xFFFFFFFFFFFFFFFFFFFFFFFFFFFFFFFFFFFFFFFF AND PUSH20 0xFFFFFFFFFFFFFFFFFFFFFFFFFFFFFFFFFFFFFFFF AND CALLER PUSH20 0xFFFFFFFFFFFFFFFFFFFFFFFFFFFFFFFFFFFFFFFF AND EQ PUSH2 0xC47 JUMPI PUSH1 0x40 MLOAD PUSH32 0x8C379A000000000000000000000000000000000000000000000000000000000 DUP2 MSTORE PUSH1 0x4 ADD PUSH2 0xC3E SWAP1 PUSH2 0x2265 JUMP JUMPDEST PUSH1 0x40 MLOAD DUP1 SWAP2 SUB SWAP1 REVERT JUMPDEST PUSH2 0xC50 DUP3 PUSH2 0x1503 JUMP JUMPDEST PUSH2 0xC8F JUMPI PUSH1 0x40 MLOAD PUSH32 0x8C379A000000000000000000000000000000000000000000000000000000000 DUP2 MSTORE PUSH1 0x4 ADD PUSH2 0xC86 SWAP1 PUSH2 0x232A JUMP JUMPDEST PUSH1 0x40 MLOAD DUP1 SWAP2 SUB SWAP1 REVERT JUMPDEST DUP1 PUSH1 0x8 PUSH0 DUP5 DUP2 MSTORE PUSH1 0x20 ADD SWAP1 DUP2 MSTORE PUSH1 0x20 ADD PUSH0 KECCAK256 DUP2 SWAP1 SSTORE POP POP POP JUMP JUMPDEST PUSH0 PUSH32 0x1FFC9A700000000000000000000000000000000000000000000000000000000 PUSH28 0xFFFFFFFFFFFFFFFFFFFFFFFFFFFFFFFFFFFFFFFFFFFFFFFFFFFFFFFF NOT AND DUP3 PUSH28 0xFFFFFFFFFFFFFFFFFFFFFFFFFFFFFFFFFFFFFFFFFFFFFFFFFFFFFFFF NOT AND EQ SWAP1 POP SWAP2 SWAP1 POP JUMP JUMPDEST PUSH0 DUP1 PUSH2 0xD1D DUP4 PUSH2 0x16D8 JUMP JUMPDEST SWAP1 POP PUSH0 PUSH20 0xFFFFFFFFFFFFFFFFFFFFFFFFFFFFFFFFFFFFFFFF AND DUP2 PUSH20 0xFFFFFFFFFFFFFFFFFFFFFFFFFFFFFFFFFFFFFFFF AND SUB PUSH2 0xD8F JUMPI DUP3 PUSH1 0x40 MLOAD PUSH32 0x7E27328900000000000000000000000000000000000000000000000000000000 DUP2 MSTORE PUSH1 0x4 ADD PUSH2 0xD86 SWAP2 SWAP1 PUSH2 0x1E8F JUMP JUMPDEST PUSH1 0x40 MLOAD DUP1 SWAP2 SUB SWAP1 REVERT JUMPDEST DUP1 SWAP2 POP POP SWAP2 SWAP1 POP JUMP JUMPDEST PUSH0 PUSH1 0x4 PUSH0 DUP4 DUP2 MSTORE PUSH1 0x20 ADD SWAP1 DUP2 MSTORE PUSH1 0x20 ADD PUSH0 KECCAK256 PUSH0 SWAP1 SLOAD SWAP1 PUSH2 0x100 EXP SWAP1 DIV PUSH20 0xFFFFFFFFFFFFFFFFFFFFFFFFFFFFFFFFFFFFFFFF AND SWAP1 POP SWAP2 SWAP1 POP JUMP JUMPDEST PUSH0 CALLER SWAP1 POP SWAP1 JUMP JUMPDEST PUSH2 0xDE5 DUP4 DUP4 DUP4 PUSH1 0x1 PUSH2 0x1711 JUMP JUMPDEST POP POP POP JUMP JUMPDEST PUSH0 DUP1 PUSH2 0xDF5 DUP5 PUSH2 0x16D8 JUMP JUMPDEST SWAP1 POP PUSH0 PUSH20 0xFFFFFFFFFFFFFFFFFFFFFFFFFFFFFFFFFFFFFFFF AND DUP4 PUSH20 0xFFFFFFFFFFFFFFFFFFFFFFFFFFFFFFFFFFFFFFFF AND EQ PUSH2 0xE36 JUMPI PUSH2 0xE35 DUP2 DUP5 DUP7 PUSH2 0x18D0 JUMP JUMPDEST JUMPDEST PUSH0 PUSH20 0xFFFFFFFFFFFFFFFFFFFFFFFFFFFFFFFFFFFFFFFF AND DUP2 PUSH20 0xFFFFFFFFFFFFFFFFFFFFFFFFFFFFFFFFFFFFFFFF AND EQ PUSH2 0xEC1 JUMPI PUSH2 0xE75 PUSH0 DUP6 PUSH0 DUP1 PUSH2 0x1711 JUMP JUMPDEST PUSH1 0x1 PUSH1 0x3 PUSH0 DUP4 PUSH20 0xFFFFFFFFFFFFFFFFFFFFFFFFFFFFFFFFFFFFFFFF AND PUSH20 0xFFFFFFFFFFFFFFFFFFFFFFFFFFFFFFFFFFFFFFFF AND DUP2 MSTORE PUSH1 0x20 ADD SWAP1 DUP2 MSTORE PUSH1 0x20 ADD PUSH0 KECCAK256 PUSH0 DUP3 DUP3 SLOAD SUB SWAP3 POP POP DUP2 SWAP1 SSTORE POP JUMPDEST PUSH0 PUSH20 0xFFFFFFFFFFFFFFFFFFFFFFFFFFFFFFFFFFFFFFFF AND DUP6 PUSH20 0xFFFFFFFFFFFFFFFFFFFFFFFFFFFFFFFFFFFFFFFF AND EQ PUSH2 0xF40 JUMPI PUSH1 0x1 PUSH1 0x3 PUSH0 DUP8 PUSH20 0xFFFFFFFFFFFFFFFFFFFFFFFFFFFFFFFFFFFFFFFF AND PUSH20 0xFFFFFFFFFFFFFFFFFFFFFFFFFFFFFFFFFFFFFFFF AND DUP2 MSTORE PUSH1 0x20 ADD SWAP1 DUP2 MSTORE PUSH1 0x20 ADD PUSH0 KECCAK256 PUSH0 DUP3 DUP3 SLOAD ADD SWAP3 POP POP DUP2 SWAP1 SSTORE POP JUMPDEST DUP5 PUSH1 0x2 PUSH0 DUP7 DUP2 MSTORE PUSH1 0x20 ADD SWAP1 DUP2 MSTORE PUSH1 0x20 ADD PUSH0 KECCAK256 PUSH0 PUSH2 0x100 EXP DUP2 SLOAD DUP2 PUSH20 0xFFFFFFFFFFFFFFFFFFFFFFFFFFFFFFFFFFFFFFFF MUL NOT AND SWAP1 DUP4 PUSH20 0xFFFFFFFFFFFFFFFFFFFFFFFFFFFFFFFFFFFFFFFF AND MUL OR SWAP1 SSTORE POP DUP4 DUP6 PUSH20 0xFFFFFFFFFFFFFFFFFFFFFFFFFFFFFFFFFFFFFFFF AND DUP3 PUSH20 0xFFFFFFFFFFFFFFFFFFFFFFFFFFFFFFFFFFFFFFFF AND PUSH32 0xDDF252AD1BE2C89B69C2B068FC378DAA952BA7F163C4A11628F55A4DF523B3EF PUSH1 0x40 MLOAD PUSH1 0x40 MLOAD DUP1 SWAP2 SUB SWAP1 LOG4 DUP1 SWAP2 POP POP SWAP4 SWAP3 POP POP POP JUMP JUMPDEST PUSH0 DUP2 PUSH0 ADD SLOAD SWAP1 POP SWAP2 SWAP1 POP JUMP JUMPDEST PUSH0 PUSH20 0xFFFFFFFFFFFFFFFFFFFFFFFFFFFFFFFFFFFFFFFF AND DUP3 PUSH20 0xFFFFFFFFFFFFFFFFFFFFFFFFFFFFFFFFFFFFFFFF AND SUB PUSH2 0x1071 JUMPI PUSH0 PUSH1 0x40 MLOAD PUSH32 0x64A0AE9200000000000000000000000000000000000000000000000000000000 DUP2 MSTORE PUSH1 0x4 ADD PUSH2 0x1068 SWAP2 SWAP1 PUSH2 0x1DAF JUMP JUMPDEST PUSH1 0x40 MLOAD DUP1 SWAP2 SUB SWAP1 REVERT JUMPDEST PUSH0 PUSH2 0x107D DUP4 DUP4 PUSH0 PUSH2 0xDEA JUMP JUMPDEST SWAP1 POP PUSH0 PUSH20 0xFFFFFFFFFFFFFFFFFFFFFFFFFFFFFFFFFFFFFFFF AND DUP2 PUSH20 0xFFFFFFFFFFFFFFFFFFFFFFFFFFFFFFFFFFFFFFFF AND EQ PUSH2 0x10EF JUMPI PUSH0 PUSH1 0x40 MLOAD PUSH32 0x73C6AC6E00000000000000000000000000000000000000000000000000000000 DUP2 MSTORE PUSH1 0x4 ADD PUSH2 0x10E6 SWAP2 SWAP1 PUSH2 0x1DAF JUMP JUMPDEST PUSH1 0x40 MLOAD DUP1 SWAP2 SUB SWAP1 REVERT JUMPDEST POP POP POP JUMP JUMPDEST PUSH1 0x1 DUP2 PUSH0 ADD PUSH0 DUP3 DUP3 SLOAD ADD SWAP3 POP POP DUP2 SWAP1 SSTORE POP POP JUMP JUMPDEST PUSH0 PUSH20 0xFFFFFFFFFFFFFFFFFFFFFFFFFFFFFFFFFFFFFFFF AND DUP3 PUSH20 0xFFFFFFFFFFFFFFFFFFFFFFFFFFFFFFFFFFFFFFFF AND SUB PUSH2 0x1178 JUMPI DUP2 PUSH1 0x40 MLOAD PUSH32 0x5B08BA1800000000000000000000000000000000000000000000000000000000 DUP2 MSTORE PUSH1 0x4 ADD PUSH2 0x116F SWAP2 SWAP1 PUSH2 0x1DAF JUMP JUMPDEST PUSH1 0x40 MLOAD DUP1 SWAP2 SUB SWAP1 REVERT JUMPDEST DUP1 PUSH1 0x5 PUSH0 DUP6 PUSH20 0xFFFFFFFFFFFFFFFFFFFFFFFFFFFFFFFFFFFFFFFF AND PUSH20 0xFFFFFFFFFFFFFFFFFFFFFFFFFFFFFFFFFFFFFFFF AND DUP2 MSTORE PUSH1 0x20 ADD SWAP1 DUP2 MSTORE PUSH1 0x20 ADD PUSH0 KECCAK256 PUSH0 DUP5 PUSH20 0xFFFFFFFFFFFFFFFFFFFFFFFFFFFFFFFFFFFFFFFF AND PUSH20 0xFFFFFFFFFFFFFFFFFFFFFFFFFFFFFFFFFFFFFFFF AND DUP2 MSTORE PUSH1 0x20 ADD SWAP1 DUP2 MSTORE PUSH1 0x20 ADD PUSH0 KECCAK256 PUSH0 PUSH2 0x100 EXP DUP2 SLOAD DUP2 PUSH1 0xFF MUL NOT AND SWAP1 DUP4 ISZERO ISZERO MUL OR SWAP1 SSTORE POP DUP2 PUSH20 0xFFFFFFFFFFFFFFFFFFFFFFFFFFFFFFFFFFFFFFFF AND DUP4 PUSH20 0xFFFFFFFFFFFFFFFFFFFFFFFFFFFFFFFFFFFFFFFF AND PUSH32 0x17307EAB39AB6107E8899845AD3D59BD9653F200F220920489CA2B5937696C31 DUP4 PUSH1 0x40 MLOAD PUSH2 0x1264 SWAP2 SWAP1 PUSH2 0x1C4F JUMP JUMPDEST PUSH1 0x40 MLOAD DUP1 SWAP2 SUB SWAP1 LOG3 POP POP POP JUMP JUMPDEST PUSH0 DUP4 PUSH20 0xFFFFFFFFFFFFFFFFFFFFFFFFFFFFFFFFFFFFFFFF AND EXTCODESIZE GT ISZERO PUSH2 0x141D JUMPI DUP3 PUSH20 0xFFFFFFFFFFFFFFFFFFFFFFFFFFFFFFFFFFFFFFFF AND PUSH4 0x150B7A02 PUSH2 0x12B4 PUSH2 0xDD1 JUMP JUMPDEST DUP7 DUP6 DUP6 PUSH1 0x40 MLOAD DUP6 PUSH4 0xFFFFFFFF AND PUSH1 0xE0 SHL DUP2 MSTORE PUSH1 0x4 ADD PUSH2 0x12D6 SWAP5 SWAP4 SWAP3 SWAP2 SWAP1 PUSH2 0x2402 JUMP JUMPDEST PUSH1 0x20 PUSH1 0x40 MLOAD DUP1 DUP4 SUB DUP2 PUSH0 DUP8 GAS CALL SWAP3 POP POP POP DUP1 ISZERO PUSH2 0x1311 JUMPI POP PUSH1 0x40 MLOAD RETURNDATASIZE PUSH1 0x1F NOT PUSH1 0x1F DUP3 ADD AND DUP3 ADD DUP1 PUSH1 0x40 MSTORE POP DUP2 ADD SWAP1 PUSH2 0x130E SWAP2 SWAP1 PUSH2 0x2460 JUMP JUMPDEST PUSH1 0x1 JUMPDEST PUSH2 0x1392 JUMPI RETURNDATASIZE DUP1 PUSH0 DUP2 EQ PUSH2 0x133F JUMPI PUSH1 0x40 MLOAD SWAP2 POP PUSH1 0x1F NOT PUSH1 0x3F RETURNDATASIZE ADD AND DUP3 ADD PUSH1 0x40 MSTORE RETURNDATASIZE DUP3 MSTORE RETURNDATASIZE PUSH0 PUSH1 0x20 DUP5 ADD RETURNDATACOPY PUSH2 0x1344 JUMP JUMPDEST PUSH1 0x60 SWAP2 POP JUMPDEST POP PUSH0 DUP2 MLOAD SUB PUSH2 0x138A JUMPI DUP4 PUSH1 0x40 MLOAD PUSH32 0x64A0AE9200000000000000000000000000000000000000000000000000000000 DUP2 MSTORE PUSH1 0x4 ADD PUSH2 0x1381 SWAP2 SWAP1 PUSH2 0x1DAF JUMP JUMPDEST PUSH1 0x40 MLOAD DUP1 SWAP2 SUB SWAP1 REVERT JUMPDEST DUP1 MLOAD DUP2 PUSH1 0x20 ADD REVERT JUMPDEST PUSH4 0x150B7A02 PUSH1 0xE0 SHL PUSH28 0xFFFFFFFFFFFFFFFFFFFFFFFFFFFFFFFFFFFFFFFFFFFFFFFFFFFFFFFF NOT AND DUP2 PUSH28 0xFFFFFFFFFFFFFFFFFFFFFFFFFFFFFFFFFFFFFFFFFFFFFFFFFFFFFFFF NOT AND EQ PUSH2 0x141B JUMPI DUP4 PUSH1 0x40 MLOAD PUSH32 0x64A0AE9200000000000000000000000000000000000000000000000000000000 DUP2 MSTORE PUSH1 0x4 ADD PUSH2 0x1412 SWAP2 SWAP1 PUSH2 0x1DAF JUMP JUMPDEST PUSH1 0x40 MLOAD DUP1 SWAP2 SUB SWAP1 REVERT JUMPDEST POP JUMPDEST POP POP POP POP JUMP JUMPDEST PUSH1 0x60 PUSH1 0x40 MLOAD DUP1 PUSH1 0x20 ADD PUSH1 0x40 MSTORE DUP1 PUSH0 DUP2 MSTORE POP SWAP1 POP SWAP1 JUMP JUMPDEST PUSH1 0x60 PUSH0 PUSH1 0x1 PUSH2 0x1447 DUP5 PUSH2 0x1993 JUMP JUMPDEST ADD SWAP1 POP PUSH0 DUP2 PUSH8 0xFFFFFFFFFFFFFFFF DUP2 GT ISZERO PUSH2 0x1465 JUMPI PUSH2 0x1464 PUSH2 0x1F43 JUMP JUMPDEST JUMPDEST PUSH1 0x40 MLOAD SWAP1 DUP1 DUP3 MSTORE DUP1 PUSH1 0x1F ADD PUSH1 0x1F NOT AND PUSH1 0x20 ADD DUP3 ADD PUSH1 0x40 MSTORE DUP1 ISZERO PUSH2 0x1497 JUMPI DUP2 PUSH1 0x20 ADD PUSH1 0x1 DUP3 MUL DUP1 CALLDATASIZE DUP4 CALLDATACOPY DUP1 DUP3 ADD SWAP2 POP POP SWAP1 POP JUMPDEST POP SWAP1 POP PUSH0 DUP3 PUSH1 0x20 ADD DUP3 ADD SWAP1 POP JUMPDEST PUSH1 0x1 ISZERO PUSH2 0x14F8 JUMPI DUP1 DUP1 PUSH1 0x1 SWAP1 SUB SWAP2 POP POP PUSH32 0x3031323334353637383961626364656600000000000000000000000000000000 PUSH1 0xA DUP7 MOD BYTE DUP2 MSTORE8 PUSH1 0xA DUP6 DUP2 PUSH2 0x14ED JUMPI PUSH2 0x14EC PUSH2 0x248B JUMP JUMPDEST JUMPDEST DIV SWAP5 POP PUSH0 DUP6 SUB PUSH2 0x14A4 JUMPI JUMPDEST DUP2 SWAP4 POP POP POP POP SWAP2 SWAP1 POP JUMP JUMPDEST PUSH0 DUP1 PUSH1 0x9 PUSH0 DUP5 DUP2 MSTORE PUSH1 0x20 ADD SWAP1 DUP2 MSTORE PUSH1 0x20 ADD PUSH0 KECCAK256 PUSH0 SWAP1 SLOAD SWAP1 PUSH2 0x100 EXP SWAP1 DIV PUSH20 0xFFFFFFFFFFFFFFFFFFFFFFFFFFFFFFFFFFFFFFFF AND SWAP1 POP PUSH0 PUSH20 0xFFFFFFFFFFFFFFFFFFFFFFFFFFFFFFFFFFFFFFFF AND DUP2 PUSH20 0xFFFFFFFFFFFFFFFFFFFFFFFFFFFFFFFFFFFFFFFF AND EQ ISZERO SWAP2 POP POP SWAP2 SWAP1 POP JUMP JUMPDEST PUSH0 PUSH20 0xFFFFFFFFFFFFFFFFFFFFFFFFFFFFFFFFFFFFFFFF AND DUP3 PUSH20 0xFFFFFFFFFFFFFFFFFFFFFFFFFFFFFFFFFFFFFFFF AND SUB PUSH2 0x15E0 JUMPI PUSH0 PUSH1 0x40 MLOAD PUSH32 0x64A0AE9200000000000000000000000000000000000000000000000000000000 DUP2 MSTORE PUSH1 0x4 ADD PUSH2 0x15D7 SWAP2 SWAP1 PUSH2 0x1DAF JUMP JUMPDEST PUSH1 0x40 MLOAD DUP1 SWAP2 SUB SWAP1 REVERT JUMPDEST PUSH0 PUSH2 0x15EC DUP4 DUP4 PUSH0 PUSH2 0xDEA JUMP JUMPDEST SWAP1 POP PUSH0 PUSH20 0xFFFFFFFFFFFFFFFFFFFFFFFFFFFFFFFFFFFFFFFF AND DUP2 PUSH20 0xFFFFFFFFFFFFFFFFFFFFFFFFFFFFFFFFFFFFFFFF AND SUB PUSH2 0x165E JUMPI DUP2 PUSH1 0x40 MLOAD PUSH32 0x7E27328900000000000000000000000000000000000000000000000000000000 DUP2 MSTORE PUSH1 0x4 ADD PUSH2 0x1655 SWAP2 SWAP1 PUSH2 0x1E8F JUMP JUMPDEST PUSH1 0x40 MLOAD DUP1 SWAP2 SUB SWAP1 REVERT JUMPDEST DUP4 PUSH20 0xFFFFFFFFFFFFFFFFFFFFFFFFFFFFFFFFFFFFFFFF AND DUP2 PUSH20 0xFFFFFFFFFFFFFFFFFFFFFFFFFFFFFFFFFFFFFFFF AND EQ PUSH2 0x16D2 JUMPI DUP4 DUP3 DUP3 PUSH1 0x40 MLOAD PUSH32 0x64283D7B00000000000000000000000000000000000000000000000000000000 DUP2 MSTORE PUSH1 0x4 ADD PUSH2 0x16C9 SWAP4 SWAP3 SWAP2 SWAP1 PUSH2 0x21C0 JUMP JUMPDEST PUSH1 0x40 MLOAD DUP1 SWAP2 SUB SWAP1 REVERT JUMPDEST POP POP POP POP JUMP JUMPDEST PUSH0 PUSH1 0x2 PUSH0 DUP4 DUP2 MSTORE PUSH1 0x20 ADD SWAP1 DUP2 MSTORE PUSH1 0x20 ADD PUSH0 KECCAK256 PUSH0 SWAP1 SLOAD SWAP1 PUSH2 0x100 EXP SWAP1 DIV PUSH20 0xFFFFFFFFFFFFFFFFFFFFFFFFFFFFFFFFFFFFFFFF AND SWAP1 POP SWAP2 SWAP1 POP JUMP JUMPDEST DUP1 DUP1 PUSH2 0x1749 JUMPI POP PUSH0 PUSH20 0xFFFFFFFFFFFFFFFFFFFFFFFFFFFFFFFFFFFFFFFF AND DUP3 PUSH20 0xFFFFFFFFFFFFFFFFFFFFFFFFFFFFFFFFFFFFFFFF AND EQ ISZERO JUMPDEST ISZERO PUSH2 0x187B JUMPI PUSH0 PUSH2 0x1758 DUP5 PUSH2 0xD12 JUMP JUMPDEST SWAP1 POP PUSH0 PUSH20 0xFFFFFFFFFFFFFFFFFFFFFFFFFFFFFFFFFFFFFFFF AND DUP4 PUSH20 0xFFFFFFFFFFFFFFFFFFFFFFFFFFFFFFFFFFFFFFFF AND EQ ISZERO DUP1 ISZERO PUSH2 0x17C2 JUMPI POP DUP3 PUSH20 0xFFFFFFFFFFFFFFFFFFFFFFFFFFFFFFFFFFFFFFFF AND DUP2 PUSH20 0xFFFFFFFFFFFFFFFFFFFFFFFFFFFFFFFFFFFFFFFF AND EQ ISZERO JUMPDEST DUP1 ISZERO PUSH2 0x17D5 JUMPI POP PUSH2 0x17D3 DUP2 DUP5 PUSH2 0xB2A JUMP JUMPDEST ISZERO JUMPDEST ISZERO PUSH2 0x1817 JUMPI DUP3 PUSH1 0x40 MLOAD PUSH32 0xA9FBF51F00000000000000000000000000000000000000000000000000000000 DUP2 MSTORE PUSH1 0x4 ADD PUSH2 0x180E SWAP2 SWAP1 PUSH2 0x1DAF JUMP JUMPDEST PUSH1 0x40 MLOAD DUP1 SWAP2 SUB SWAP1 REVERT JUMPDEST DUP2 ISZERO PUSH2 0x1879 JUMPI DUP4 DUP6 PUSH20 0xFFFFFFFFFFFFFFFFFFFFFFFFFFFFFFFFFFFFFFFF AND DUP3 PUSH20 0xFFFFFFFFFFFFFFFFFFFFFFFFFFFFFFFFFFFFFFFF AND PUSH32 0x8C5BE1E5EBEC7D5BD14F71427D1E84F3DD0314C0F7B2291E5B200AC8C7C3B925 PUSH1 0x40 MLOAD PUSH1 0x40 MLOAD DUP1 SWAP2 SUB SWAP1 LOG4 JUMPDEST POP JUMPDEST DUP4 PUSH1 0x4 PUSH0 DUP6 DUP2 MSTORE PUSH1 0x20 ADD SWAP1 DUP2 MSTORE PUSH1 0x20 ADD PUSH0 KECCAK256 PUSH0 PUSH2 0x100 EXP DUP2 SLOAD DUP2 PUSH20 0xFFFFFFFFFFFFFFFFFFFFFFFFFFFFFFFFFFFFFFFF MUL NOT AND SWAP1 DUP4 PUSH20 0xFFFFFFFFFFFFFFFFFFFFFFFFFFFFFFFFFFFFFFFF AND MUL OR SWAP1 SSTORE POP POP POP POP POP JUMP JUMPDEST PUSH2 0x18DB DUP4 DUP4 DUP4 PUSH2 0x1AE4 JUMP JUMPDEST PUSH2 0x198E JUMPI PUSH0 PUSH20 0xFFFFFFFFFFFFFFFFFFFFFFFFFFFFFFFFFFFFFFFF AND DUP4 PUSH20 0xFFFFFFFFFFFFFFFFFFFFFFFFFFFFFFFFFFFFFFFF AND SUB PUSH2 0x194F JUMPI DUP1 PUSH1 0x40 MLOAD PUSH32 0x7E27328900000000000000000000000000000000000000000000000000000000 DUP2 MSTORE PUSH1 0x4 ADD PUSH2 0x1946 SWAP2 SWAP1 PUSH2 0x1E8F JUMP JUMPDEST PUSH1 0x40 MLOAD DUP1 SWAP2 SUB SWAP1 REVERT JUMPDEST DUP2 DUP2 PUSH1 0x40 MLOAD PUSH32 0x177E802F00000000000000000000000000000000000000000000000000000000 DUP2 MSTORE PUSH1 0x4 ADD PUSH2 0x1985 SWAP3 SWAP2 SWAP1 PUSH2 0x24B8 JUMP JUMPDEST PUSH1 0x40 MLOAD DUP1 SWAP2 SUB SWAP1 REVERT JUMPDEST POP POP POP JUMP JUMPDEST PUSH0 DUP1 PUSH0 SWAP1 POP PUSH27 0x184F03E93FF9F4DAA797ED6E38ED64BF6A1F010000000000000000 DUP4 LT PUSH2 0x19EF JUMPI PUSH27 0x184F03E93FF9F4DAA797ED6E38ED64BF6A1F010000000000000000 DUP4 DUP2 PUSH2 0x19E5 JUMPI PUSH2 0x19E4 PUSH2 0x248B JUMP JUMPDEST JUMPDEST DIV SWAP3 POP PUSH1 0x40 DUP2 ADD SWAP1 POP JUMPDEST PUSH14 0x4EE2D6D415B85ACEF8100000000 DUP4 LT PUSH2 0x1A2C JUMPI PUSH14 0x4EE2D6D415B85ACEF8100000000 DUP4 DUP2 PUSH2 0x1A22 JUMPI PUSH2 0x1A21 PUSH2 0x248B JUMP JUMPDEST JUMPDEST DIV SWAP3 POP PUSH1 0x20 DUP2 ADD SWAP1 POP JUMPDEST PUSH7 0x2386F26FC10000 DUP4 LT PUSH2 0x1A5B JUMPI PUSH7 0x2386F26FC10000 DUP4 DUP2 PUSH2 0x1A51 JUMPI PUSH2 0x1A50 PUSH2 0x248B JUMP JUMPDEST JUMPDEST DIV SWAP3 POP PUSH1 0x10 DUP2 ADD SWAP1 POP JUMPDEST PUSH4 0x5F5E100 DUP4 LT PUSH2 0x1A84 JUMPI PUSH4 0x5F5E100 DUP4 DUP2 PUSH2 0x1A7A JUMPI PUSH2 0x1A79 PUSH2 0x248B JUMP JUMPDEST JUMPDEST DIV SWAP3 POP PUSH1 0x8 DUP2 ADD SWAP1 POP JUMPDEST PUSH2 0x2710 DUP4 LT PUSH2 0x1AA9 JUMPI PUSH2 0x2710 DUP4 DUP2 PUSH2 0x1A9F JUMPI PUSH2 0x1A9E PUSH2 0x248B JUMP JUMPDEST JUMPDEST DIV SWAP3 POP PUSH1 0x4 DUP2 ADD SWAP1 POP JUMPDEST PUSH1 0x64 DUP4 LT PUSH2 0x1ACC JUMPI PUSH1 0x64 DUP4 DUP2 PUSH2 0x1AC2 JUMPI PUSH2 0x1AC1 PUSH2 0x248B JUMP JUMPDEST JUMPDEST DIV SWAP3 POP PUSH1 0x2 DUP2 ADD SWAP1 POP JUMPDEST PUSH1 0xA DUP4 LT PUSH2 0x1ADB JUMPI PUSH1 0x1 DUP2 ADD SWAP1 POP JUMPDEST DUP1 SWAP2 POP POP SWAP2 SWAP1 POP JUMP JUMPDEST PUSH0 DUP1 PUSH20 0xFFFFFFFFFFFFFFFFFFFFFFFFFFFFFFFFFFFFFFFF AND DUP4 PUSH20 0xFFFFFFFFFFFFFFFFFFFFFFFFFFFFFFFFFFFFFFFF AND EQ ISZERO DUP1 ISZERO PUSH2 0x1B9B JUMPI POP DUP3 PUSH20 0xFFFFFFFFFFFFFFFFFFFFFFFFFFFFFFFFFFFFFFFF AND DUP5 PUSH20 0xFFFFFFFFFFFFFFFFFFFFFFFFFFFFFFFFFFFFFFFF AND EQ DUP1 PUSH2 0x1B5C JUMPI POP PUSH2 0x1B5B DUP5 DUP5 PUSH2 0xB2A JUMP JUMPDEST JUMPDEST DUP1 PUSH2 0x1B9A JUMPI POP DUP3 PUSH20 0xFFFFFFFFFFFFFFFFFFFFFFFFFFFFFFFFFFFFFFFF AND PUSH2 0x1B82 DUP4 PUSH2 0xD98 JUMP JUMPDEST PUSH20 0xFFFFFFFFFFFFFFFFFFFFFFFFFFFFFFFFFFFFFFFF AND EQ JUMPDEST JUMPDEST SWAP1 POP SWAP4 SWAP3 POP POP POP JUMP JUMPDEST PUSH0 PUSH1 0x40 MLOAD SWAP1 POP SWAP1 JUMP JUMPDEST PUSH0 DUP1 REVERT JUMPDEST PUSH0 DUP1 REVERT JUMPDEST PUSH0 PUSH32 0xFFFFFFFF00000000000000000000000000000000000000000000000000000000 DUP3 AND SWAP1 POP SWAP2 SWAP1 POP JUMP JUMPDEST PUSH2 0x1BE9 DUP2 PUSH2 0x1BB5 JUMP JUMPDEST DUP2 EQ PUSH2 0x1BF3 JUMPI PUSH0 DUP1 REVERT JUMPDEST POP JUMP JUMPDEST PUSH0 DUP2 CALLDATALOAD SWAP1 POP PUSH2 0x1C04 DUP2 PUSH2 0x1BE0 JUMP JUMPDEST SWAP3 SWAP2 POP POP JUMP JUMPDEST PUSH0 PUSH1 0x20 DUP3 DUP5 SUB SLT ISZERO PUSH2 0x1C1F JUMPI PUSH2 0x1C1E PUSH2 0x1BAD JUMP JUMPDEST JUMPDEST PUSH0 PUSH2 0x1C2C DUP5 DUP3 DUP6 ADD PUSH2 0x1BF6 JUMP JUMPDEST SWAP2 POP POP SWAP3 SWAP2 POP POP JUMP JUMPDEST PUSH0 DUP2 ISZERO ISZERO SWAP1 POP SWAP2 SWAP1 POP JUMP JUMPDEST PUSH2 0x1C49 DUP2 PUSH2 0x1C35 JUMP JUMPDEST DUP3 MSTORE POP POP JUMP JUMPDEST PUSH0 PUSH1 0x20 DUP3 ADD SWAP1 POP PUSH2 0x1C62 PUSH0 DUP4 ADD DUP5 PUSH2 0x1C40 JUMP JUMPDEST SWAP3 SWAP2 POP POP JUMP JUMPDEST PUSH0 DUP2 MLOAD SWAP1 POP SWAP2 SWAP1 POP JUMP JUMPDEST PUSH0 DUP3 DUP3 MSTORE PUSH1 0x20 DUP3 ADD SWAP1 POP SWAP3 SWAP2 POP POP JUMP JUMPDEST PUSH0 JUMPDEST DUP4 DUP2 LT ISZERO PUSH2 0x1C9F JUMPI DUP1 DUP3 ADD MLOAD DUP2 DUP5 ADD MSTORE PUSH1 0x20 DUP2 ADD SWAP1 POP PUSH2 0x1C84 JUMP JUMPDEST PUSH0 DUP5 DUP5 ADD MSTORE POP POP POP POP JUMP JUMPDEST PUSH0 PUSH1 0x1F NOT PUSH1 0x1F DUP4 ADD AND SWAP1 POP SWAP2 SWAP1 POP JUMP JUMPDEST PUSH0 PUSH2 0x1CC4 DUP3 PUSH2 0x1C68 JUMP JUMPDEST PUSH2 0x1CCE DUP2 DUP6 PUSH2 0x1C72 JUMP JUMPDEST SWAP4 POP PUSH2 0x1CDE DUP2 DUP6 PUSH1 0x20 DUP7 ADD PUSH2 0x1C82 JUMP JUMPDEST PUSH2 0x1CE7 DUP2 PUSH2 0x1CAA JUMP JUMPDEST DUP5 ADD SWAP2 POP POP SWAP3 SWAP2 POP POP JUMP JUMPDEST PUSH0 PUSH1 0x20 DUP3 ADD SWAP1 POP DUP2 DUP2 SUB PUSH0 DUP4 ADD MSTORE PUSH2 0x1D0A DUP2 DUP5 PUSH2 0x1CBA JUMP JUMPDEST SWAP1 POP SWAP3 SWAP2 POP POP JUMP JUMPDEST PUSH0 DUP2 SWAP1 POP SWAP2 SWAP1 POP JUMP JUMPDEST PUSH2 0x1D24 DUP2 PUSH2 0x1D12 JUMP JUMPDEST DUP2 EQ PUSH2 0x1D2E JUMPI PUSH0 DUP1 REVERT JUMPDEST POP JUMP JUMPDEST PUSH0 DUP2 CALLDATALOAD SWAP1 POP PUSH2 0x1D3F DUP2 PUSH2 0x1D1B JUMP JUMPDEST SWAP3 SWAP2 POP POP JUMP JUMPDEST PUSH0 PUSH1 0x20 DUP3 DUP5 SUB SLT ISZERO PUSH2 0x1D5A JUMPI PUSH2 0x1D59 PUSH2 0x1BAD JUMP JUMPDEST JUMPDEST PUSH0 PUSH2 0x1D67 DUP5 DUP3 DUP6 ADD PUSH2 0x1D31 JUMP JUMPDEST SWAP2 POP POP SWAP3 SWAP2 POP POP JUMP JUMPDEST PUSH0 PUSH20 0xFFFFFFFFFFFFFFFFFFFFFFFFFFFFFFFFFFFFFFFF DUP3 AND SWAP1 POP SWAP2 SWAP1 POP JUMP JUMPDEST PUSH0 PUSH2 0x1D99 DUP3 PUSH2 0x1D70 JUMP JUMPDEST SWAP1 POP SWAP2 SWAP1 POP JUMP JUMPDEST PUSH2 0x1DA9 DUP2 PUSH2 0x1D8F JUMP JUMPDEST DUP3 MSTORE POP POP JUMP JUMPDEST PUSH0 PUSH1 0x20 DUP3 ADD SWAP1 POP PUSH2 0x1DC2 PUSH0 DUP4 ADD DUP5 PUSH2 0x1DA0 JUMP JUMPDEST SWAP3 SWAP2 POP POP JUMP JUMPDEST PUSH2 0x1DD1 DUP2 PUSH2 0x1D8F JUMP JUMPDEST DUP2 EQ PUSH2 0x1DDB JUMPI PUSH0 DUP1 REVERT JUMPDEST POP JUMP JUMPDEST PUSH0 DUP2 CALLDATALOAD SWAP1 POP PUSH2 0x1DEC DUP2 PUSH2 0x1DC8 JUMP JUMPDEST SWAP3 SWAP2 POP POP JUMP JUMPDEST PUSH0 DUP1 PUSH1 0x40 DUP4 DUP6 SUB SLT ISZERO PUSH2 0x1E08 JUMPI PUSH2 0x1E07 PUSH2 0x1BAD JUMP JUMPDEST JUMPDEST PUSH0 PUSH2 0x1E15 DUP6 DUP3 DUP7 ADD PUSH2 0x1DDE JUMP JUMPDEST SWAP3 POP POP PUSH1 0x20 PUSH2 0x1E26 DUP6 DUP3 DUP7 ADD PUSH2 0x1D31 JUMP JUMPDEST SWAP2 POP POP SWAP3 POP SWAP3 SWAP1 POP JUMP JUMPDEST PUSH0 DUP1 PUSH0 PUSH1 0x60 DUP5 DUP7 SUB SLT ISZERO PUSH2 0x1E47 JUMPI PUSH2 0x1E46 PUSH2 0x1BAD JUMP JUMPDEST JUMPDEST PUSH0 PUSH2 0x1E54 DUP7 DUP3 DUP8 ADD PUSH2 0x1DDE JUMP JUMPDEST SWAP4 POP POP PUSH1 0x20 PUSH2 0x1E65 DUP7 DUP3 DUP8 ADD PUSH2 0x1DDE JUMP JUMPDEST SWAP3 POP POP PUSH1 0x40 PUSH2 0x1E76 DUP7 DUP3 DUP8 ADD PUSH2 0x1D31 JUMP JUMPDEST SWAP2 POP POP SWAP3 POP SWAP3 POP SWAP3 JUMP JUMPDEST PUSH2 0x1E89 DUP2 PUSH2 0x1D12 JUMP JUMPDEST DUP3 MSTORE POP POP JUMP JUMPDEST PUSH0 PUSH1 0x20 DUP3 ADD SWAP1 POP PUSH2 0x1EA2 PUSH0 DUP4 ADD DUP5 PUSH2 0x1E80 JUMP JUMPDEST SWAP3 SWAP2 POP POP JUMP JUMPDEST PUSH0 PUSH1 0x20 DUP3 DUP5 SUB SLT ISZERO PUSH2 0x1EBD JUMPI PUSH2 0x1EBC PUSH2 0x1BAD JUMP JUMPDEST JUMPDEST PUSH0 PUSH2 0x1ECA DUP5 DUP3 DUP6 ADD PUSH2 0x1DDE JUMP JUMPDEST SWAP2 POP POP SWAP3 SWAP2 POP POP JUMP JUMPDEST PUSH2 0x1EDC DUP2 PUSH2 0x1C35 JUMP JUMPDEST DUP2 EQ PUSH2 0x1EE6 JUMPI PUSH0 DUP1 REVERT JUMPDEST POP JUMP JUMPDEST PUSH0 DUP2 CALLDATALOAD SWAP1 POP PUSH2 0x1EF7 DUP2 PUSH2 0x1ED3 JUMP JUMPDEST SWAP3 SWAP2 POP POP JUMP JUMPDEST PUSH0 DUP1 PUSH1 0x40 DUP4 DUP6 SUB SLT ISZERO PUSH2 0x1F13 JUMPI PUSH2 0x1F12 PUSH2 0x1BAD JUMP JUMPDEST JUMPDEST PUSH0 PUSH2 0x1F20 DUP6 DUP3 DUP7 ADD PUSH2 0x1DDE JUMP JUMPDEST SWAP3 POP POP PUSH1 0x20 PUSH2 0x1F31 DUP6 DUP3 DUP7 ADD PUSH2 0x1EE9 JUMP JUMPDEST SWAP2 POP POP SWAP3 POP SWAP3 SWAP1 POP JUMP JUMPDEST PUSH0 DUP1 REVERT JUMPDEST PUSH0 DUP1 REVERT JUMPDEST PUSH32 0x4E487B7100000000000000000000000000000000000000000000000000000000 PUSH0 MSTORE PUSH1 0x41 PUSH1 0x4 MSTORE PUSH1 0x24 PUSH0 REVERT JUMPDEST PUSH2 0x1F79 DUP3 PUSH2 0x1CAA JUMP JUMPDEST DUP2 ADD DUP2 DUP2 LT PUSH8 0xFFFFFFFFFFFFFFFF DUP3 GT OR ISZERO PUSH2 0x1F98 JUMPI PUSH2 0x1F97 PUSH2 0x1F43 JUMP JUMPDEST JUMPDEST DUP1 PUSH1 0x40 MSTORE POP POP POP JUMP JUMPDEST PUSH0 PUSH2 0x1FAA PUSH2 0x1BA4 JUMP JUMPDEST SWAP1 POP PUSH2 0x1FB6 DUP3 DUP3 PUSH2 0x1F70 JUMP JUMPDEST SWAP2 SWAP1 POP JUMP JUMPDEST PUSH0 PUSH8 0xFFFFFFFFFFFFFFFF DUP3 GT ISZERO PUSH2 0x1FD5 JUMPI PUSH2 0x1FD4 PUSH2 0x1F43 JUMP JUMPDEST JUMPDEST PUSH2 0x1FDE DUP3 PUSH2 0x1CAA JUMP JUMPDEST SWAP1 POP PUSH1 0x20 DUP2 ADD SWAP1 POP SWAP2 SWAP1 POP JUMP JUMPDEST DUP3 DUP2 DUP4 CALLDATACOPY PUSH0 DUP4 DUP4 ADD MSTORE POP POP POP JUMP JUMPDEST PUSH0 PUSH2 0x200B PUSH2 0x2006 DUP5 PUSH2 0x1FBB JUMP JUMPDEST PUSH2 0x1FA1 JUMP JUMPDEST SWAP1 POP DUP3 DUP2 MSTORE PUSH1 0x20 DUP2 ADD DUP5 DUP5 DUP5 ADD GT ISZERO PUSH2 0x2027 JUMPI PUSH2 0x2026 PUSH2 0x1F3F JUMP JUMPDEST JUMPDEST PUSH2 0x2032 DUP5 DUP3 DUP6 PUSH2 0x1FEB JUMP JUMPDEST POP SWAP4 SWAP3 POP POP POP JUMP JUMPDEST PUSH0 DUP3 PUSH1 0x1F DUP4 ADD SLT PUSH2 0x204E JUMPI PUSH2 0x204D PUSH2 0x1F3B JUMP JUMPDEST JUMPDEST DUP2 CALLDATALOAD PUSH2 0x205E DUP5 DUP3 PUSH1 0x20 DUP7 ADD PUSH2 0x1FF9 JUMP JUMPDEST SWAP2 POP POP SWAP3 SWAP2 POP POP JUMP JUMPDEST PUSH0 DUP1 PUSH0 DUP1 PUSH1 0x80 DUP6 DUP8 SUB SLT ISZERO PUSH2 0x207F JUMPI PUSH2 0x207E PUSH2 0x1BAD JUMP JUMPDEST JUMPDEST PUSH0 PUSH2 0x208C DUP8 DUP3 DUP9 ADD PUSH2 0x1DDE JUMP JUMPDEST SWAP5 POP POP PUSH1 0x20 PUSH2 0x209D DUP8 DUP3 DUP9 ADD PUSH2 0x1DDE JUMP JUMPDEST SWAP4 POP POP PUSH1 0x40 PUSH2 0x20AE DUP8 DUP3 DUP9 ADD PUSH2 0x1D31 JUMP JUMPDEST SWAP3 POP POP PUSH1 0x60 DUP6 ADD CALLDATALOAD PUSH8 0xFFFFFFFFFFFFFFFF DUP2 GT ISZERO PUSH2 0x20CF JUMPI PUSH2 0x20CE PUSH2 0x1BB1 JUMP JUMPDEST JUMPDEST PUSH2 0x20DB DUP8 DUP3 DUP9 ADD PUSH2 0x203A JUMP JUMPDEST SWAP2 POP POP SWAP3 SWAP6 SWAP2 SWAP5 POP SWAP3 POP JUMP JUMPDEST PUSH0 DUP1 PUSH1 0x40 DUP4 DUP6 SUB SLT ISZERO PUSH2 0x20FD JUMPI PUSH2 0x20FC PUSH2 0x1BAD JUMP JUMPDEST JUMPDEST PUSH0 PUSH2 0x210A DUP6 DUP3 DUP7 ADD PUSH2 0x1DDE JUMP JUMPDEST SWAP3 POP POP PUSH1 0x20 PUSH2 0x211B DUP6 DUP3 DUP7 ADD PUSH2 0x1DDE JUMP JUMPDEST SWAP2 POP POP SWAP3 POP SWAP3 SWAP1 POP JUMP JUMPDEST PUSH0 DUP1 PUSH1 0x40 DUP4 DUP6 SUB SLT ISZERO PUSH2 0x213B JUMPI PUSH2 0x213A PUSH2 0x1BAD JUMP JUMPDEST JUMPDEST PUSH0 PUSH2 0x2148 DUP6 DUP3 DUP7 ADD PUSH2 0x1D31 JUMP JUMPDEST SWAP3 POP POP PUSH1 0x20 PUSH2 0x2159 DUP6 DUP3 DUP7 ADD PUSH2 0x1D31 JUMP JUMPDEST SWAP2 POP POP SWAP3 POP SWAP3 SWAP1 POP JUMP JUMPDEST PUSH32 0x4E487B7100000000000000000000000000000000000000000000000000000000 PUSH0 MSTORE PUSH1 0x22 PUSH1 0x4 MSTORE PUSH1 0x24 PUSH0 REVERT JUMPDEST PUSH0 PUSH1 0x2 DUP3 DIV SWAP1 POP PUSH1 0x1 DUP3 AND DUP1 PUSH2 0x21A7 JUMPI PUSH1 0x7F DUP3 AND SWAP2 POP JUMPDEST PUSH1 0x20 DUP3 LT DUP2 SUB PUSH2 0x21BA JUMPI PUSH2 0x21B9 PUSH2 0x2163 JUMP JUMPDEST JUMPDEST POP SWAP2 SWAP1 POP JUMP JUMPDEST PUSH0 PUSH1 0x60 DUP3 ADD SWAP1 POP PUSH2 0x21D3 PUSH0 DUP4 ADD DUP7 PUSH2 0x1DA0 JUMP JUMPDEST PUSH2 0x21E0 PUSH1 0x20 DUP4 ADD DUP6 PUSH2 0x1E80 JUMP JUMPDEST PUSH2 0x21ED PUSH1 0x40 DUP4 ADD DUP5 PUSH2 0x1DA0 JUMP JUMPDEST SWAP5 SWAP4 POP POP POP POP JUMP JUMPDEST PUSH32 0x4F6E6C79206F776E65722063616E2063616C6C20746869732066756E6374696F PUSH0 DUP3 ADD MSTORE PUSH32 0x6E00000000000000000000000000000000000000000000000000000000000000 PUSH1 0x20 DUP3 ADD MSTORE POP JUMP JUMPDEST PUSH0 PUSH2 0x224F PUSH1 0x21 DUP4 PUSH2 0x1C72 JUMP JUMPDEST SWAP2 POP PUSH2 0x225A DUP3 PUSH2 0x21F5 JUMP JUMPDEST PUSH1 0x40 DUP3 ADD SWAP1 POP SWAP2 SWAP1 POP JUMP JUMPDEST PUSH0 PUSH1 0x20 DUP3 ADD SWAP1 POP DUP2 DUP2 SUB PUSH0 DUP4 ADD MSTORE PUSH2 0x227C DUP2 PUSH2 0x2243 JUMP JUMPDEST SWAP1 POP SWAP2 SWAP1 POP JUMP JUMPDEST PUSH0 DUP2 SWAP1 POP SWAP3 SWAP2 POP POP JUMP JUMPDEST PUSH0 PUSH2 0x2297 DUP3 PUSH2 0x1C68 JUMP JUMPDEST PUSH2 0x22A1 DUP2 DUP6 PUSH2 0x2283 JUMP JUMPDEST SWAP4 POP PUSH2 0x22B1 DUP2 DUP6 PUSH1 0x20 DUP7 ADD PUSH2 0x1C82 JUMP JUMPDEST DUP1 DUP5 ADD SWAP2 POP POP SWAP3 SWAP2 POP POP JUMP JUMPDEST PUSH0 PUSH2 0x22C8 DUP3 DUP6 PUSH2 0x228D JUMP JUMPDEST SWAP2 POP PUSH2 0x22D4 DUP3 DUP5 PUSH2 0x228D JUMP JUMPDEST SWAP2 POP DUP2 SWAP1 POP SWAP4 SWAP3 POP POP POP JUMP JUMPDEST PUSH32 0x456C20494420646520746F6B656E206E6F206578697374650000000000000000 PUSH0 DUP3 ADD MSTORE POP JUMP JUMPDEST PUSH0 PUSH2 0x2314 PUSH1 0x18 DUP4 PUSH2 0x1C72 JUMP JUMPDEST SWAP2 POP PUSH2 0x231F DUP3 PUSH2 0x22E0 JUMP JUMPDEST PUSH1 0x20 DUP3 ADD SWAP1 POP SWAP2 SWAP1 POP JUMP JUMPDEST PUSH0 PUSH1 0x20 DUP3 ADD SWAP1 POP DUP2 DUP2 SUB PUSH0 DUP4 ADD MSTORE PUSH2 0x2341 DUP2 PUSH2 0x2308 JUMP JUMPDEST SWAP1 POP SWAP2 SWAP1 POP JUMP JUMPDEST PUSH32 0x5061676F20696E737566696369656E7465000000000000000000000000000000 PUSH0 DUP3 ADD MSTORE POP JUMP JUMPDEST PUSH0 PUSH2 0x237C PUSH1 0x11 DUP4 PUSH2 0x1C72 JUMP JUMPDEST SWAP2 POP PUSH2 0x2387 DUP3 PUSH2 0x2348 JUMP JUMPDEST PUSH1 0x20 DUP3 ADD SWAP1 POP SWAP2 SWAP1 POP JUMP JUMPDEST PUSH0 PUSH1 0x20 DUP3 ADD SWAP1 POP DUP2 DUP2 SUB PUSH0 DUP4 ADD MSTORE PUSH2 0x23A9 DUP2 PUSH2 0x2370 JUMP JUMPDEST SWAP1 POP SWAP2 SWAP1 POP JUMP JUMPDEST PUSH0 DUP2 MLOAD SWAP1 POP SWAP2 SWAP1 POP JUMP JUMPDEST PUSH0 DUP3 DUP3 MSTORE PUSH1 0x20 DUP3 ADD SWAP1 POP SWAP3 SWAP2 POP POP JUMP JUMPDEST PUSH0 PUSH2 0x23D4 DUP3 PUSH2 0x23B0 JUMP JUMPDEST PUSH2 0x23DE DUP2 DUP6 PUSH2 0x23BA JUMP JUMPDEST SWAP4 POP PUSH2 0x23EE DUP2 DUP6 PUSH1 0x20 DUP7 ADD PUSH2 0x1C82 JUMP JUMPDEST PUSH2 0x23F7 DUP2 PUSH2 0x1CAA JUMP JUMPDEST DUP5 ADD SWAP2 POP POP SWAP3 SWAP2 POP POP JUMP JUMPDEST PUSH0 PUSH1 0x80 DUP3 ADD SWAP1 POP PUSH2 0x2415 PUSH0 DUP4 ADD DUP8 PUSH2 0x1DA0 JUMP JUMPDEST PUSH2 0x2422 PUSH1 0x20 DUP4 ADD DUP7 PUSH2 0x1DA0 JUMP JUMPDEST PUSH2 0x242F PUSH1 0x40 DUP4 ADD DUP6 PUSH2 0x1E80 JUMP JUMPDEST DUP2 DUP2 SUB PUSH1 0x60 DUP4 ADD MSTORE PUSH2 0x2441 DUP2 DUP5 PUSH2 0x23CA JUMP JUMPDEST SWAP1 POP SWAP6 SWAP5 POP POP POP POP POP JUMP JUMPDEST PUSH0 DUP2 MLOAD SWAP1 POP PUSH2 0x245A DUP2 PUSH2 0x1BE0 JUMP JUMPDEST SWAP3 SWAP2 POP POP JUMP JUMPDEST PUSH0 PUSH1 0x20 DUP3 DUP5 SUB SLT ISZERO PUSH2 0x2475 JUMPI PUSH2 0x2474 PUSH2 0x1BAD JUMP JUMPDEST JUMPDEST PUSH0 PUSH2 0x2482 DUP5 DUP3 DUP6 ADD PUSH2 0x244C JUMP JUMPDEST SWAP2 POP POP SWAP3 SWAP2 POP POP JUMP JUMPDEST PUSH32 0x4E487B7100000000000000000000000000000000000000000000000000000000 PUSH0 MSTORE PUSH1 0x12 PUSH1 0x4 MSTORE PUSH1 0x24 PUSH0 REVERT JUMPDEST PUSH0 PUSH1 0x40 DUP3 ADD SWAP1 POP PUSH2 0x24CB PUSH0 DUP4 ADD DUP6 PUSH2 0x1DA0 JUMP JUMPDEST PUSH2 0x24D8 PUSH1 0x20 DUP4 ADD DUP5 PUSH2 0x1E80 JUMP JUMPDEST SWAP4 SWAP3 POP POP POP JUMP INVALID LOG2 PUSH5 0x6970667358 0x22 SLT KECCAK256 0xEB EXTCODEHASH 0xE CODESIZE DUP7 0xDD GASLIMIT 0xC 0xB2 PUSH15 0x35B218CF89B88DC5A97E6AFBABECD1 0xCA GT 0xC0 0xE3 0xC6 0x2E DUP12 PUSH5 0x736F6C6343 STOP ADDMOD XOR STOP CALLER "
				},
				"gasEstimates": {
					"creation": {
						"codeDepositCost": "1898600",
						"executionCost": "infinite",
						"totalCost": "infinite"
					},
					"external": {
						"approve(address,uint256)": "infinite",
						"assetPrices(uint256)": "infinite",
						"balanceOf(address)": "infinite",
						"buy(uint256)": "infinite",
						"getApproved(uint256)": "infinite",
						"isApprovedForAll(address,address)": "infinite",
						"mint(address,uint256)": "infinite",
						"name()": "infinite",
						"owner()": "2553",
						"ownerOf(uint256)": "infinite",
						"safeTransferFrom(address,address,uint256)": "infinite",
						"safeTransferFrom(address,address,uint256,bytes)": "infinite",
						"setApprovalForAll(address,bool)": "infinite",
						"setPrice(uint256,uint256)": "infinite",
						"supportsInterface(bytes4)": "787",
						"symbol()": "infinite",
						"tokenURI(uint256)": "infinite",
						"transferFrom(address,address,uint256)": "infinite"
					},
					"internal": {
						"_exists(uint256)": "2277"
					}
				},
				"methodIdentifiers": {
					"approve(address,uint256)": "095ea7b3",
					"assetPrices(uint256)": "4191c45b",
					"balanceOf(address)": "70a08231",
					"buy(uint256)": "d96a094a",
					"getApproved(uint256)": "081812fc",
					"isApprovedForAll(address,address)": "e985e9c5",
					"mint(address,uint256)": "40c10f19",
					"name()": "06fdde03",
					"owner()": "8da5cb5b",
					"ownerOf(uint256)": "6352211e",
					"safeTransferFrom(address,address,uint256)": "42842e0e",
					"safeTransferFrom(address,address,uint256,bytes)": "b88d4fde",
					"setApprovalForAll(address,bool)": "a22cb465",
					"setPrice(uint256,uint256)": "f7d97577",
					"supportsInterface(bytes4)": "01ffc9a7",
					"symbol()": "95d89b41",
					"tokenURI(uint256)": "c87b56dd",
					"transferFrom(address,address,uint256)": "23b872dd"
				}
			},
			"storageLayout": {
				"storage": [
					{
						"astId": 1871,
						"contract": "contracts/MyNFT_flattened.sol:MyToken",
						"label": "_name",
						"offset": 0,
						"slot": "0",
						"type": "t_string_storage"
					},
					{
						"astId": 1873,
						"contract": "contracts/MyNFT_flattened.sol:MyToken",
						"label": "_symbol",
						"offset": 0,
						"slot": "1",
						"type": "t_string_storage"
					},
					{
						"astId": 1877,
						"contract": "contracts/MyNFT_flattened.sol:MyToken",
						"label": "_owners",
						"offset": 0,
						"slot": "2",
						"type": "t_mapping(t_uint256,t_address)"
					},
					{
						"astId": 1881,
						"contract": "contracts/MyNFT_flattened.sol:MyToken",
						"label": "_balances",
						"offset": 0,
						"slot": "3",
						"type": "t_mapping(t_address,t_uint256)"
					},
					{
						"astId": 1885,
						"contract": "contracts/MyNFT_flattened.sol:MyToken",
						"label": "_tokenApprovals",
						"offset": 0,
						"slot": "4",
						"type": "t_mapping(t_uint256,t_address)"
					},
					{
						"astId": 1891,
						"contract": "contracts/MyNFT_flattened.sol:MyToken",
						"label": "_operatorApprovals",
						"offset": 0,
						"slot": "5",
						"type": "t_mapping(t_address,t_mapping(t_address,t_bool))"
					},
					{
						"astId": 2973,
						"contract": "contracts/MyNFT_flattened.sol:MyToken",
						"label": "owner",
						"offset": 0,
						"slot": "6",
						"type": "t_address"
					},
					{
						"astId": 2976,
						"contract": "contracts/MyNFT_flattened.sol:MyToken",
						"label": "_tokenIdCounter",
						"offset": 0,
						"slot": "7",
						"type": "t_struct(Counter)5_storage"
					},
					{
						"astId": 2980,
						"contract": "contracts/MyNFT_flattened.sol:MyToken",
						"label": "assetPrices",
						"offset": 0,
						"slot": "8",
						"type": "t_mapping(t_uint256,t_uint256)"
					},
					{
						"astId": 2984,
						"contract": "contracts/MyNFT_flattened.sol:MyToken",
						"label": "_tokenOwner",
						"offset": 0,
						"slot": "9",
						"type": "t_mapping(t_uint256,t_address)"
					}
				],
				"types": {
					"t_address": {
						"encoding": "inplace",
						"label": "address",
						"numberOfBytes": "20"
					},
					"t_bool": {
						"encoding": "inplace",
						"label": "bool",
						"numberOfBytes": "1"
					},
					"t_mapping(t_address,t_bool)": {
						"encoding": "mapping",
						"key": "t_address",
						"label": "mapping(address => bool)",
						"numberOfBytes": "32",
						"value": "t_bool"
					},
					"t_mapping(t_address,t_mapping(t_address,t_bool))": {
						"encoding": "mapping",
						"key": "t_address",
						"label": "mapping(address => mapping(address => bool))",
						"numberOfBytes": "32",
						"value": "t_mapping(t_address,t_bool)"
					},
					"t_mapping(t_address,t_uint256)": {
						"encoding": "mapping",
						"key": "t_address",
						"label": "mapping(address => uint256)",
						"numberOfBytes": "32",
						"value": "t_uint256"
					},
					"t_mapping(t_uint256,t_address)": {
						"encoding": "mapping",
						"key": "t_uint256",
						"label": "mapping(uint256 => address)",
						"numberOfBytes": "32",
						"value": "t_address"
					},
					"t_mapping(t_uint256,t_uint256)": {
						"encoding": "mapping",
						"key": "t_uint256",
						"label": "mapping(uint256 => uint256)",
						"numberOfBytes": "32",
						"value": "t_uint256"
					},
					"t_string_storage": {
						"encoding": "bytes",
						"label": "string",
						"numberOfBytes": "32"
					},
					"t_struct(Counter)5_storage": {
						"encoding": "inplace",
						"label": "struct Counters.Counter",
						"members": [
							{
								"astId": 4,
								"contract": "contracts/MyNFT_flattened.sol:MyToken",
								"label": "_value",
								"offset": 0,
								"slot": "0",
								"type": "t_uint256"
							}
						],
						"numberOfBytes": "32"
					},
					"t_uint256": {
						"encoding": "inplace",
						"label": "uint256",
						"numberOfBytes": "32"
					}
				}
			},
			"userdoc": {
				"kind": "user",
				"methods": {},
				"version": 1
			}
		}
	}
}